{
  "address": "0xE206074595D33bd315aA436f3eb5159668Ec8f8b",
  "abi": [
    {
      "inputs": [],
      "stateMutability": "nonpayable",
      "type": "constructor"
    },
    {
      "anonymous": false,
      "inputs": [
        {
          "indexed": false,
          "internalType": "address",
          "name": "sender",
          "type": "address"
        },
        {
          "indexed": false,
          "internalType": "uint256",
          "name": "amount",
          "type": "uint256"
        }
      ],
      "name": "Deposit",
      "type": "event"
    },
    {
      "anonymous": false,
      "inputs": [
        {
          "indexed": false,
          "internalType": "uint256",
          "name": "harvested",
          "type": "uint256"
        }
      ],
      "name": "Harvest",
      "type": "event"
    },
    {
      "anonymous": false,
      "inputs": [
        {
          "indexed": false,
          "internalType": "uint256",
          "name": "harvest0",
          "type": "uint256"
        },
        {
          "indexed": false,
          "internalType": "uint256",
          "name": "harvest1",
          "type": "uint256"
        },
        {
          "indexed": false,
          "internalType": "uint256",
          "name": "harvest2",
          "type": "uint256"
        }
      ],
      "name": "LendHarvest",
      "type": "event"
    },
    {
      "anonymous": false,
      "inputs": [
        {
          "indexed": false,
          "internalType": "uint256",
          "name": "harvest",
          "type": "uint256"
        }
      ],
      "name": "LpHarvest",
      "type": "event"
    },
    {
      "anonymous": false,
      "inputs": [
        {
          "indexed": true,
          "internalType": "address",
          "name": "account",
          "type": "address"
        },
        {
          "indexed": false,
          "internalType": "bool",
          "name": "isManager",
          "type": "bool"
        }
      ],
      "name": "ManagerUpdate",
      "type": "event"
    },
    {
      "anonymous": false,
      "inputs": [
        {
          "indexed": true,
          "internalType": "address",
          "name": "previousOwner",
          "type": "address"
        },
        {
          "indexed": true,
          "internalType": "address",
          "name": "newOwner",
          "type": "address"
        }
      ],
      "name": "OwnershipTransferred",
      "type": "event"
    },
    {
      "anonymous": false,
      "inputs": [
        {
          "indexed": false,
          "internalType": "uint256",
          "name": "shortPrice",
          "type": "uint256"
        },
        {
          "indexed": false,
          "internalType": "uint256",
          "name": "tvlBeforeRebalance",
          "type": "uint256"
        },
        {
          "indexed": false,
          "internalType": "uint256",
          "name": "positionOffset",
          "type": "uint256"
        }
      ],
      "name": "Rebalance",
      "type": "event"
    },
    {
      "anonymous": false,
      "inputs": [],
      "name": "Upgrade",
      "type": "event"
    },
    {
      "anonymous": false,
      "inputs": [
        {
          "indexed": false,
          "internalType": "address",
          "name": "sender",
          "type": "address"
        },
        {
          "indexed": false,
          "internalType": "uint256",
          "name": "amount",
          "type": "uint256"
        }
      ],
      "name": "Withdraw",
      "type": "event"
    },
    {
      "inputs": [],
      "name": "BASE_UNIT",
      "outputs": [
        {
          "internalType": "uint256",
          "name": "",
          "type": "uint256"
        }
      ],
      "stateMutability": "view",
      "type": "function"
    },
    {
      "inputs": [
        {
          "internalType": "contract IUniswapV2Pair",
          "name": "pair",
          "type": "address"
        },
        {
          "internalType": "uint256",
          "name": "amountIn",
          "type": "uint256"
        },
        {
          "internalType": "address",
          "name": "inToken",
          "type": "address"
        },
        {
          "internalType": "address",
          "name": "outToken",
          "type": "address"
        }
      ],
      "name": "_swapExactTokensForTokens",
      "outputs": [
        {
          "internalType": "uint256",
          "name": "",
          "type": "uint256"
        }
      ],
      "stateMutability": "nonpayable",
      "type": "function"
    },
    {
      "inputs": [
        {
          "internalType": "contract IUniswapV2Pair",
          "name": "pair",
          "type": "address"
        },
        {
          "internalType": "uint256",
          "name": "amountOut",
          "type": "uint256"
        },
        {
          "internalType": "address",
          "name": "inToken",
          "type": "address"
        },
        {
          "internalType": "address",
          "name": "outToken",
          "type": "address"
        }
      ],
      "name": "_swapTokensForExactTokens",
      "outputs": [
        {
          "internalType": "uint256",
          "name": "",
          "type": "uint256"
        }
      ],
      "stateMutability": "nonpayable",
      "type": "function"
    },
    {
      "inputs": [
        {
          "internalType": "address",
          "name": "",
          "type": "address"
        }
      ],
      "name": "balanceOfUnderlying",
      "outputs": [
        {
          "internalType": "uint256",
          "name": "",
          "type": "uint256"
        }
      ],
      "stateMutability": "view",
      "type": "function"
    },
    {
      "inputs": [],
      "name": "balanceOfUnderlying",
      "outputs": [
        {
          "internalType": "uint256",
          "name": "assets",
          "type": "uint256"
        }
      ],
      "stateMutability": "view",
      "type": "function"
    },
    {
      "inputs": [],
      "name": "cTokenBorrow",
      "outputs": [
        {
          "internalType": "contract ICTokenErc20",
          "name": "",
          "type": "address"
        }
      ],
      "stateMutability": "view",
      "type": "function"
    },
    {
      "inputs": [],
      "name": "cTokenLend",
      "outputs": [
        {
          "internalType": "contract ICTokenErc20",
          "name": "",
          "type": "address"
        }
      ],
      "stateMutability": "view",
      "type": "function"
    },
    {
      "inputs": [],
      "name": "closePosition",
      "outputs": [],
      "stateMutability": "nonpayable",
      "type": "function"
    },
    {
      "inputs": [],
      "name": "comptroller",
      "outputs": [
        {
          "internalType": "contract IComptroller",
          "name": "",
          "type": "address"
        }
      ],
      "stateMutability": "view",
      "type": "function"
    },
    {
      "inputs": [],
      "name": "decimals",
      "outputs": [
        {
          "internalType": "uint8",
          "name": "",
          "type": "uint8"
        }
      ],
      "stateMutability": "view",
      "type": "function"
    },
    {
      "inputs": [],
      "name": "getCollateralRatio",
      "outputs": [
        {
          "internalType": "uint256",
          "name": "",
          "type": "uint256"
        }
      ],
      "stateMutability": "view",
      "type": "function"
    },
    {
      "inputs": [],
      "name": "getPricePerShare",
      "outputs": [
        {
          "internalType": "uint256",
          "name": "",
          "type": "uint256"
        }
      ],
      "stateMutability": "view",
      "type": "function"
    },
    {
      "inputs": [],
      "name": "getTVL",
      "outputs": [
        {
          "internalType": "uint256",
          "name": "tvl",
          "type": "uint256"
        },
        {
          "internalType": "uint256",
          "name": "collateralBalance",
          "type": "uint256"
        },
        {
          "internalType": "uint256",
          "name": "shortPosition",
          "type": "uint256"
        },
        {
          "internalType": "uint256",
          "name": "shortBalance",
          "type": "uint256"
        },
        {
          "internalType": "uint256",
          "name": "lpBalance",
          "type": "uint256"
        },
        {
          "internalType": "uint256",
          "name": "underlyingBalance",
          "type": "uint256"
        }
      ],
      "stateMutability": "view",
      "type": "function"
    },
    {
      "inputs": [],
      "name": "getUnderlyingShortReserves",
      "outputs": [
        {
          "internalType": "uint256",
          "name": "reserveA",
          "type": "uint256"
        },
        {
          "internalType": "uint256",
          "name": "reserveB",
          "type": "uint256"
        }
      ],
      "stateMutability": "view",
      "type": "function"
    },
    {
      "inputs": [],
      "name": "harvest",
      "outputs": [],
      "stateMutability": "nonpayable",
      "type": "function"
    },
    {
      "inputs": [
        {
          "components": [
            {
              "internalType": "address",
              "name": "underlying",
              "type": "address"
            },
            {
              "internalType": "address",
              "name": "short",
              "type": "address"
            },
            {
              "internalType": "address",
              "name": "cTokenLend",
              "type": "address"
            },
            {
              "internalType": "address",
              "name": "cTokenBorrow",
              "type": "address"
            },
            {
              "internalType": "address",
              "name": "uniPair",
              "type": "address"
            },
            {
              "internalType": "address",
              "name": "uniFarm",
              "type": "address"
            },
            {
              "internalType": "address",
              "name": "farmLp",
              "type": "address"
            },
            {
              "internalType": "address",
              "name": "farmToken",
              "type": "address"
            },
            {
              "internalType": "uint256",
              "name": "farmId",
              "type": "uint256"
            },
            {
              "internalType": "address",
              "name": "router",
              "type": "address"
            },
            {
              "internalType": "address",
              "name": "comptroller",
              "type": "address"
            },
            {
              "internalType": "address",
              "name": "lendRewardPair",
              "type": "address"
            },
            {
              "internalType": "address",
              "name": "lendRewardToken",
              "type": "address"
            },
            {
              "internalType": "uint256",
              "name": "safeCollateralRatio",
              "type": "uint256"
            },
            {
              "internalType": "address",
              "name": "vault",
              "type": "address"
            },
            {
              "internalType": "string",
              "name": "symbol",
              "type": "string"
            },
            {
              "internalType": "string",
              "name": "name",
              "type": "string"
            }
          ],
          "internalType": "struct USDCftmSPIRITscream.Config",
          "name": "config",
          "type": "tuple"
        }
      ],
      "name": "initialize",
      "outputs": [],
      "stateMutability": "nonpayable",
      "type": "function"
    },
    {
      "inputs": [],
      "name": "isCEther",
      "outputs": [
        {
          "internalType": "bool",
          "name": "",
          "type": "bool"
        }
      ],
      "stateMutability": "pure",
      "type": "function"
    },
    {
      "inputs": [
        {
          "internalType": "address",
          "name": "user",
          "type": "address"
        }
      ],
      "name": "isManager",
      "outputs": [
        {
          "internalType": "bool",
          "name": "",
          "type": "bool"
        }
      ],
      "stateMutability": "view",
      "type": "function"
    },
    {
      "inputs": [],
      "name": "lastHarvest",
      "outputs": [
        {
          "internalType": "uint256",
          "name": "",
          "type": "uint256"
        }
      ],
      "stateMutability": "view",
      "type": "function"
    },
    {
      "inputs": [
        {
          "internalType": "uint256",
          "name": "amount",
          "type": "uint256"
        }
      ],
      "name": "mint",
      "outputs": [
        {
          "internalType": "uint256",
          "name": "errCode",
          "type": "uint256"
        }
      ],
      "stateMutability": "nonpayable",
      "type": "function"
    },
    {
      "inputs": [],
      "name": "name",
      "outputs": [
        {
          "internalType": "string",
          "name": "",
          "type": "string"
        }
      ],
      "stateMutability": "view",
      "type": "function"
    },
    {
      "inputs": [
        {
          "internalType": "string",
          "name": "_symbol",
          "type": "string"
        },
        {
          "internalType": "string",
          "name": "_name",
          "type": "string"
        }
      ],
      "name": "onUpgrade",
      "outputs": [],
      "stateMutability": "nonpayable",
      "type": "function"
    },
    {
      "inputs": [],
      "name": "onUpgradeFarm",
      "outputs": [],
      "stateMutability": "nonpayable",
      "type": "function"
    },
    {
      "inputs": [],
      "name": "onUpgradeLend",
      "outputs": [],
      "stateMutability": "nonpayable",
      "type": "function"
    },
    {
      "inputs": [],
      "name": "oracle",
      "outputs": [
        {
          "internalType": "contract ICompPriceOracle",
          "name": "",
          "type": "address"
        }
      ],
      "stateMutability": "view",
      "type": "function"
    },
    {
      "inputs": [],
      "name": "owner",
      "outputs": [
        {
          "internalType": "address",
          "name": "",
          "type": "address"
        }
      ],
      "stateMutability": "view",
      "type": "function"
    },
    {
      "inputs": [],
      "name": "pair",
      "outputs": [
        {
          "internalType": "contract IUniswapV2Pair",
          "name": "",
          "type": "address"
        }
      ],
      "stateMutability": "view",
      "type": "function"
    },
    {
      "inputs": [],
      "name": "rebalance",
      "outputs": [],
      "stateMutability": "nonpayable",
      "type": "function"
    },
    {
      "inputs": [],
      "name": "rebalanceThreshold",
      "outputs": [
        {
          "internalType": "uint16",
          "name": "",
          "type": "uint16"
        }
      ],
      "stateMutability": "view",
      "type": "function"
    },
    {
      "inputs": [
        {
          "internalType": "uint256",
          "name": "amount",
          "type": "uint256"
        }
      ],
      "name": "redeemUnderlying",
      "outputs": [
        {
          "internalType": "uint256",
          "name": "errCode",
          "type": "uint256"
        }
      ],
      "stateMutability": "nonpayable",
      "type": "function"
    },
    {
      "inputs": [],
      "name": "renounceOwnership",
      "outputs": [],
      "stateMutability": "nonpayable",
      "type": "function"
    },
    {
      "inputs": [],
      "name": "safeCollateralRatio",
      "outputs": [
        {
          "internalType": "uint256",
          "name": "",
          "type": "uint256"
        }
      ],
      "stateMutability": "view",
      "type": "function"
    },
    {
      "inputs": [
        {
          "internalType": "address",
          "name": "user",
          "type": "address"
        },
        {
          "internalType": "bool",
          "name": "_isManager",
          "type": "bool"
        }
      ],
      "name": "setManager",
      "outputs": [],
      "stateMutability": "nonpayable",
      "type": "function"
    },
    {
      "inputs": [
        {
          "internalType": "uint256",
          "name": "maxPriceMismatch_",
          "type": "uint256"
        }
      ],
      "name": "setMaxPriceMismatch",
      "outputs": [],
      "stateMutability": "nonpayable",
      "type": "function"
    },
    {
      "inputs": [
        {
          "internalType": "uint256",
          "name": "minLendHarvest_",
          "type": "uint256"
        }
      ],
      "name": "setMinLendHarvest",
      "outputs": [],
      "stateMutability": "nonpayable",
      "type": "function"
    },
    {
      "inputs": [
        {
          "internalType": "uint16",
          "name": "rebalanceThreshold_",
          "type": "uint16"
        }
      ],
      "name": "setRebalanceThreshold",
      "outputs": [],
      "stateMutability": "nonpayable",
      "type": "function"
    },
    {
      "inputs": [
        {
          "internalType": "address",
          "name": "vault_",
          "type": "address"
        }
      ],
      "name": "setVault",
      "outputs": [],
      "stateMutability": "nonpayable",
      "type": "function"
    },
    {
      "inputs": [],
      "name": "short",
      "outputs": [
        {
          "internalType": "contract IERC20",
          "name": "",
          "type": "address"
        }
      ],
      "stateMutability": "view",
      "type": "function"
    },
    {
      "inputs": [],
      "name": "symbol",
      "outputs": [
        {
          "internalType": "string",
          "name": "",
          "type": "string"
        }
      ],
      "stateMutability": "view",
      "type": "function"
    },
    {
      "inputs": [],
      "name": "totalSupply",
      "outputs": [
        {
          "internalType": "uint256",
          "name": "",
          "type": "uint256"
        }
      ],
      "stateMutability": "view",
      "type": "function"
    },
    {
      "inputs": [
        {
          "internalType": "address",
          "name": "newOwner",
          "type": "address"
        }
      ],
      "name": "transferOwnership",
      "outputs": [],
      "stateMutability": "nonpayable",
      "type": "function"
    },
    {
      "inputs": [],
      "name": "underlying",
      "outputs": [
        {
          "internalType": "contract IERC20",
          "name": "",
          "type": "address"
        }
      ],
      "stateMutability": "view",
      "type": "function"
    },
    {
      "inputs": [],
      "name": "vault",
      "outputs": [
        {
          "internalType": "address",
          "name": "",
          "type": "address"
        }
      ],
      "stateMutability": "view",
      "type": "function"
    },
    {
      "inputs": [],
      "name": "version",
      "outputs": [
        {
          "internalType": "uint256",
          "name": "",
          "type": "uint256"
        }
      ],
      "stateMutability": "view",
      "type": "function"
    },
    {
      "stateMutability": "payable",
      "type": "receive"
    }
  ],
  "transactionHash": "0x52a1823a41cda5fcaa8ed0ea640aed8db383b90525492805ed202681a878e1bf",
  "args": [],
  "numDeployments": 2,
  "solcInputHash": "b94a9bfe6ec3898123a86570253bf917",
  "bytecode": "0x60806040523480156200001157600080fd5b50600054610100900460ff166200002f5760005460ff161562000039565b62000039620000de565b620000a15760405162461bcd60e51b815260206004820152602e60248201527f496e697469616c697a61626c653a20636f6e747261637420697320616c72656160448201526d191e481a5b9a5d1a585b1a5e995960921b606482015260840160405180910390fd5b600054610100900460ff16158015620000c4576000805461ffff19166101011790555b8015620000d7576000805461ff00191690555b5062000102565b6000620000f630620000fc60201b620015891760201c565b15905090565b3b151590565b6151cb80620001126000396000f3fe6080604052600436106101fb5760003560e01c806302df632f1461020757806306fdde031461021e5780630e962f001461024957806318160ddd1461026d5780632125001e1461028257806330741fa4146102a2578063313ce567146102c257806338bea4cb146102e95780633af9e6691461030b5780633d68175c1461032b5780633dfe9f6a146103405780634641257d1461036e5780634654e3f3146103835780634880f951146103a35780634f1342d4146103b85780635439c4ad146103d857806354fd4d50146103f85780635fe3b5671461040f5780636817031b146104245780636f307dc314610461578063711326ce14610476578063715018a6146104965780637d7c2a1c146104ab5780637dc0d1d0146104c0578063852a12e3146104d55780638da5cb5b146104f557806395d89b411461050a57806397b3fcaa1461051f578063a0712d6814610561578063a52602b914610581578063a5e90eee14610596578063a8aa1b31146105b6578063ac784ddc146105cb578063c393d0e3146105eb578063cd377c5314610600578063d539fe4b14610615578063d56974cf1461062b578063de747e5a14610640578063f1a392da14610660578063f2fde38b14610676578063f3ae241514610696578063f9e40ac4146106cf578063fbfa77cf146106f2578063fd6bac701461070757600080fd5b3661020257005b600080fd5b34801561021357600080fd5b5061021c61071c565b005b34801561022a57600080fd5b50610233610846565b60405161024091906146d9565b60405180910390f35b34801561025557600080fd5b5061025f609d5481565b604051908152602001610240565b34801561027957600080fd5b5060995461025f565b34801561028e57600080fd5b5061021c61029d3660046146ec565b6108d4565b3480156102ae57600080fd5b5061025f6102bd36600461472a565b610911565b3480156102ce57600080fd5b506102d76109f0565b60405160ff9091168152602001610240565b3480156102f557600080fd5b506102fe610a63565b604051610240919061477d565b34801561031757600080fd5b5061025f610326366004614791565b610a72565b34801561033757600080fd5b5061025f610a82565b34801561034c57600080fd5b5060d35461035b9061ffff1681565b60405161ffff9091168152602001610240565b34801561037a57600080fd5b5061021c610ac2565b34801561038f57600080fd5b5061021c61039e3660046147ef565b610b61565b3480156103af57600080fd5b5061025f610bd9565b3480156103c457600080fd5b5061021c6103d3366004614938565b610bee565b3480156103e457600080fd5b5061025f6103f336600461472a565b610cf7565b34801561040457600080fd5b5061025f6102715481565b34801561041b57600080fd5b506102fe610d58565b34801561043057600080fd5b5061021c61043f366004614791565b609880546001600160a01b0319166001600160a01b0392909216919091179055565b34801561046d57600080fd5b506102fe610d68565b34801561048257600080fd5b5061021c6104913660046146ec565b610d77565b3480156104a257600080fd5b5061021c610dab565b3480156104b757600080fd5b5061021c610de6565b3480156104cc57600080fd5b506102fe611024565b3480156104e157600080fd5b5061025f6104f03660046146ec565b611034565b34801561050157600080fd5b506102fe61109b565b34801561051657600080fd5b506102336110aa565b34801561052b57600080fd5b506105346110b7565b604080519687526020870195909552938501929092526060840152608083015260a082015260c001610240565b34801561056d57600080fd5b5061025f61057c3660046146ec565b611196565b34801561058d57600080fd5b506102fe6111ef565b3480156105a257600080fd5b5061021c6105b1366004614ad5565b6111ff565b3480156105c257600080fd5b506102fe61128d565b3480156105d757600080fd5b5060005b6040519015158152602001610240565b3480156105f757600080fd5b5061021c61129d565b34801561060c57600080fd5b5061025f6112fc565b34801561062157600080fd5b5061010a5461025f565b34801561063757600080fd5b5061021c61132d565b34801561064c57600080fd5b5061021c61065b366004614b0e565b611457565b34801561066c57600080fd5b5061025f60975481565b34801561068257600080fd5b5061021c610691366004614791565b61149e565b3480156106a257600080fd5b506105db6106b1366004614791565b6001600160a01b03166000908152609c602052604090205460ff1690565b3480156106db57600080fd5b506106e461153e565b604051610240929190614b32565b3480156106fe57600080fd5b506102fe61156a565b34801561071357600080fd5b506102fe611579565b6101735460408051630dfe168160e01b815290516000926001600160a01b031691630dfe16819160048083019260209291908290030181865afa158015610767573d6000803e3d6000fd5b505050506040513d601f19601f8201168201806040525081019061078b9190614b40565b610174549091506001600160a01b038083169116146107aa5780610822565b61017360009054906101000a90046001600160a01b03166001600160a01b031663d21220a76040518163ffffffff1660e01b8152600401602060405180830381865afa1580156107fe573d6000803e3d6000fd5b505050506040513d601f19601f820116820180604052508101906108229190614b40565b61017780546001600160a01b0319166001600160a01b039290921691909117905550565b609a805461085390614b5d565b80601f016020809104026020016040519081016040528092919081815260200182805461087f90614b5d565b80156108cc5780601f106108a1576101008083540402835291602001916108cc565b820191906000526020600020905b8154815290600101906020018083116108af57829003601f168201915b505050505081565b336108dd61109b565b6001600160a01b03161461090c5760405162461bcd60e51b815260040161090390614b92565b60405180910390fd5b60d255565b6000806109208686868661158f565b9050600061092e8486611650565b509050600080826001600160a01b0316876001600160a01b03161461095557836000610959565b6000845b90925090506109726001600160a01b0388168a8a611733565b6040805160008152602081019182905263022c0d9f60e01b9091526001600160a01b038a169063022c0d9f906109b19085908590309060248101614bc7565b600060405180830381600087803b1580156109cb57600080fd5b505af11580156109df573d6000803e3d6000fd5b50959b9a5050505050505050505050565b60d0546040805163313ce56760e01b815290516000926001600160a01b03169163313ce5679160048083019260209291908290030181865afa158015610a3a573d6000803e3d6000fd5b505050506040513d601f19601f82011682018060405250810190610a5e9190614bfe565b905090565b60d1546001600160a01b031690565b6000610a7c610bd9565b92915050565b600080610a8d610bd9565b905060995460001415610aa2575050609d5490565b609954609d54610ab29083614c37565b610abc9190614c56565b91505090565b610aca61109b565b6001600160a01b0316336001600160a01b03161480610afd5750336000908152609c602052604090205460ff1615156001145b610b195760405162461bcd60e51b815260040161090390614c78565b6000610b2361178e565b90507f80f97f878e16410266694f134ddf012f2be424f54f8b5cafa107eccc51d00d5881604051610b5691815260200190565b60405180910390a150565b33610b6a61109b565b6001600160a01b031614610b905760405162461bcd60e51b815260040161090390614b92565b610b9c609a8383614574565b50610ba9609b8585614574565b506040517f6f2d71ced264587bd808aaf888d1c083d1ef532ab6eafb10b4fbd18b60eda3e690600090a150505050565b6000610be36110b7565b509395945050505050565b600054610100900460ff16610c095760005460ff1615610c0d565b303b155b610c295760405162461bcd60e51b815260040161090390614ca0565b600054610100900460ff16158015610c4b576000805461ffff19166101011790555b610c6d82608001518360a001518460c001518560e001518661010001516119a9565b610c8b82610140015183604001518460600151856101a00151611b93565b610c9f826101600151836101800151611cd5565b610cb9826101c00151836101e00151846102000151611e95565b610ccb82600001518360200151611f5d565b610cd361203c565b610cdb612084565b6001610271558015610cf3576000805461ff00191690555b5050565b600080610d06868686866120a5565b90506000610d148486611650565b509050600080826001600160a01b0316876001600160a01b031614610d3b57876000610d3f565b6000885b90925090506109726001600160a01b0388168a86611733565b610108546001600160a01b031690565b60d0546001600160a01b031690565b33610d8061109b565b6001600160a01b031614610da65760405162461bcd60e51b815260040161090390614b92565b60cf55565b33610db461109b565b6001600160a01b031614610dda5760405162461bcd60e51b815260040161090390614b92565b610de4600061216b565b565b610dee61109b565b6001600160a01b0316336001600160a01b03161480610e215750336000908152609c602052604090205460ff1615156001145b610e3d5760405162461bcd60e51b815260040161090390614c78565b60d15460d054600091610e6691670de0b6b3a7640000916001600160a01b0390811691166121bd565b90506000610e7b670de0b6b3a76400006121fc565b9050818111610e8b578082610e8e565b81815b60cf54919350915081612710610ea48583614cee565b610eae9190614c37565b610eb89190614c56565b10610ed55760405162461bcd60e51b815260040161090390614d05565b60026065541415610ef85760405162461bcd60e51b815260040161090390614d3c565b60026065556000610f07612308565b5090506000610f146123c9565b90506000610f21826124a8565b90506000806000610f3284876124d5565b92509250925082610f9c5760405162461bcd60e51b815260206004820152602e60248201527f4865646765644c503a2068617665206e6f74207265616368656420726562616c60448201526d185b98d9481d1a1c995cda1bdb1960921b6064820152608401610903565b6000610fa88587614cee565b90508215610fbf57610fba85826125fe565b610fc9565b610fc9858261282b565b7fe0b4077da7dfa5015ff10fab6a214f37acc1b23d745f30336942d17e07848c6b610ffb670de0b6b3a7640000612a72565b838860405161100c93929190614d73565b60405180910390a15050600160655550505050505050565b610109546001600160a01b031690565b600061103e61156a565b6001600160a01b0316336001600160a01b03161461106e5760405162461bcd60e51b815260040161090390614c78565b600061107983612a9f565b9050806099600082825461108d9190614cee565b909155506000949350505050565b6033546001600160a01b031690565b609b805461085390614b5d565b6000806000806000806110c8612d7c565b94506110d2612e71565b93506110dd84612a72565b925060006110e9612308565b5090506110f7816002614c37565b60d0546040516370a0823160e01b81529194506001600160a01b0316906370a082319061112890309060040161477d565b602060405180830381865afa158015611145573d6000803e3d6000fd5b505050506040513d601f19601f820116820180604052508101906111699190614d89565b915081846111778589614da2565b6111819190614cee565b61118b9190614da2565b965050909192939495565b60006111a061156a565b6001600160a01b0316336001600160a01b0316146111d05760405162461bcd60e51b815260040161090390614c78565b60006111db83612ee7565b9050806099600082825461108d9190614da2565b610106546001600160a01b031690565b3361120861109b565b6001600160a01b03161461122e5760405162461bcd60e51b815260040161090390614b92565b6001600160a01b0382166000818152609c6020908152604091829020805460ff191685151590811790915591519182527f2458f684567d238b66deaa0126265bf3becabda0caaab7ebdda6b1794614a2d3910160405180910390a25050565b610175546001600160a01b031690565b6112a561109b565b6001600160a01b0316336001600160a01b031614806112d85750336000908152609c602052604090205460ff1615156001145b6112f45760405162461bcd60e51b815260040161090390614c78565b610de46130b8565b6000670de0b6b3a764000061131161010a5490565b611319613254565b6113239190614c37565b610a5e9190614c56565b61013f5460408051630dfe168160e01b815290516000926001600160a01b031691630dfe16819160048083019260209291908290030181865afa158015611378573d6000803e3d6000fd5b505050506040513d601f19601f8201168201806040525081019061139c9190614b40565b61013e549091506001600160a01b038083169116146113bb5780611433565b61013f60009054906101000a90046001600160a01b03166001600160a01b031663d21220a76040518163ffffffff1660e01b8152600401602060405180830381865afa15801561140f573d6000803e3d6000fd5b505050506040513d601f19601f820116820180604052508101906114339190614b40565b61013d80546001600160a01b0319166001600160a01b039290921691909117905550565b3361146061109b565b6001600160a01b0316146114865760405162461bcd60e51b815260040161090390614b92565b60d3805461ffff191661ffff92909216919091179055565b336114a761109b565b6001600160a01b0316146114cd5760405162461bcd60e51b815260040161090390614b92565b6001600160a01b0381166115325760405162461bcd60e51b815260206004820152602660248201527f4f776e61626c653a206e6577206f776e657220697320746865207a65726f206160448201526564647265737360d01b6064820152608401610903565b61153b8161216b565b50565b60008061156161154c61128d565b611554610d68565b61155c610a63565b6132da565b90939092509050565b6098546001600160a01b031690565b610107546001600160a01b031690565b3b151590565b60008084116115ec5760405162461bcd60e51b815260206004820152602360248201527f556e695574696c733a20494e53554646494349454e545f494e5055545f414d4f60448201526215539560ea1b6064820152608401610903565b6000806115fa8786866132da565b9092509050600061160d876103e5614c37565b9050600061161b8383614c37565b905060008261162c866103e8614c37565b6116369190614da2565b90506116428183614c56565b9a9950505050505050505050565b600080826001600160a01b0316846001600160a01b031614156116b55760405162461bcd60e51b815260206004820152601d60248201527f556e695574696c733a204944454e544943414c5f4144445245535345530000006044820152606401610903565b826001600160a01b0316846001600160a01b0316106116d55782846116d8565b83835b90925090506001600160a01b03821661172c5760405162461bcd60e51b8152602060048201526016602482015275556e695574696c733a205a45524f5f4144445245535360501b6044820152606401610903565b9250929050565b6117898363a9059cbb60e01b8484604051602401611752929190614dba565b60408051601f198184030181529190526020810180516001600160e01b03166001600160e01b03199093169290921790915261339a565b505050565b60d15460d05460009182916117b991670de0b6b3a7640000916001600160a01b0391821691166121bd565b905060006117ce670de0b6b3a76400006121fc565b90508181116117de5780826117e1565b81815b60cf549193509150816127106117f78583614cee565b6118019190614c37565b61180b9190614c56565b106118285760405162461bcd60e51b815260040161090390614d05565b6002606554141561184b5760405162461bcd60e51b815260040161090390614d3c565b6002606555600061185a6123c9565b905061186760d25461346c565b61186f613652565b60d0546040516370a0823160e01b81526000916001600160a01b0316906370a08231906118a090309060040161477d565b602060405180830381865afa1580156118bd573d6000803e3d6000fd5b505050506040513d601f19601f820116820180604052508101906118e19190614d89565b905080156118f2576118f281613794565b60d1546040516370a0823160e01b81526000916001600160a01b0316906370a082319061192390309060040161477d565b602060405180830381865afa158015611940573d6000803e3d6000fd5b505050506040513d601f19601f820116820180604052508101906119649190614d89565b90508015611975576119758161380c565b600061197f610bd9565b905083811161198f576000611999565b6119998482614cee565b9650505050505050600160655590565b600054610100900460ff166119c45760005460ff16156119c8565b303b155b6119e45760405162461bcd60e51b815260040161090390614ca0565b600054610100900460ff16158015611a06576000805461ffff19166101011790555b61017280546001600160a01b038088166001600160a01b0319928316179092556101738054878416908316811790915561017480548785169084161790556101758054938a169390921692909217905561017683905560408051630dfe168160e01b8152905160009291630dfe16819160048083019260209291908290030181865afa158015611a9a573d6000803e3d6000fd5b505050506040513d601f19601f82011682018060405250810190611abe9190614b40565b9050836001600160a01b0316816001600160a01b031614611adf5780611b57565b61017360009054906101000a90046001600160a01b03166001600160a01b031663d21220a76040518163ffffffff1660e01b8152600401602060405180830381865afa158015611b33573d6000803e3d6000fd5b505050506040513d601f19601f82011682018060405250810190611b579190614b40565b61017780546001600160a01b0319166001600160a01b0392909216919091179055508015611b8b576000805461ff00191690555b505050505050565b600054610100900460ff16611bae5760005460ff1615611bb2565b303b155b611bce5760405162461bcd60e51b815260040161090390614ca0565b600054610100900460ff16158015611bf0576000805461ffff19166101011790555b61010680546001600160a01b038087166001600160a01b031992831617909255610107805486841690831617905561010880549288169290911682179055604080516307dc0d1d60e41b81529051637dc0d1d0916004808201926020929091908290030181865afa158015611c69573d6000803e3d6000fd5b505050506040513d601f19601f82011682018060405250810190611c8d9190614b40565b61010980546001600160a01b0319166001600160a01b039290921691909117905561010a829055611cbc613841565b8015611cce576000805461ff00191690555b5050505050565b600054610100900460ff16611cf05760005460ff1615611cf4565b303b155b611d105760405162461bcd60e51b815260040161090390614ca0565b600054610100900460ff16158015611d32576000805461ffff19166101011790555b61013f80546001600160a01b038086166001600160a01b0319928316811790935561013e80549186169190921617905560408051630dfe168160e01b8152905160009291630dfe16819160048083019260209291908290030181865afa158015611da0573d6000803e3d6000fd5b505050506040513d601f19601f82011682018060405250810190611dc49190614b40565b9050826001600160a01b0316816001600160a01b031614611de55780611e5d565b61013f60009054906101000a90046001600160a01b03166001600160a01b031663d21220a76040518163ffffffff1660e01b8152600401602060405180830381865afa158015611e39573d6000803e3d6000fd5b505050506040513d601f19601f82011682018060405250810190611e5d9190614b40565b61013d80546001600160a01b0319166001600160a01b0392909216919091179055508015611789576000805461ff0019169055505050565b600054610100900460ff16611eb05760005460ff1615611eb4565b303b155b611ed05760405162461bcd60e51b815260040161090390614ca0565b600054610100900460ff16158015611ef2576000805461ffff19166101011790555b611efa613952565b611f02613981565b609880546001600160a01b0319166001600160a01b0386161790558251611f3090609b9060208601906145f8565b508151611f4490609a9060208501906145f8565b508015611f57576000805461ff00191690555b50505050565b600054610100900460ff16611f785760005460ff1615611f7c565b303b155b611f985760405162461bcd60e51b815260040161090390614ca0565b600054610100900460ff16158015611fba576000805461ffff19166101011790555b60d080546001600160a01b038086166001600160a01b0319928316811790935560d1805491861691909216179055611ff590306000196139b8565b603c60cf5560d3805461ffff1916610190179055623d090060d2556120186109f0565b61202390600a614eb7565b609d558015611789576000805461ff0019169055505050565b61010654612068906001600160a01b0316600019612058610d68565b6001600160a01b031691906139b8565b61010754610de4906001600160a01b0316600019612058610a63565b6101725461017554610de4916001600160a01b0391821691166000196139b8565b60008084116121025760405162461bcd60e51b8152602060048201526024808201527f556e695574696c733a20494e53554646494349454e545f4f55545055545f414d60448201526313d5539560e21b6064820152608401610903565b6000806121108786866132da565b909250905060006121218784614c37565b61212d906103e8614c37565b9050600061213b8884614cee565b612147906103e5614c37565b90506121538183614c56565b61215e906001614da2565b9998505050505050505050565b603380546001600160a01b038381166001600160a01b0319831681179093556040519116919082907f8be0079c531659141344cd1fd0a4f28419497f9722a3daafe3b4186f6b6457e090600090a35050565b6000836121cc575060006121f5565b6000806121e16121da61128d565b86866132da565b915091506121f0868383613abc565b925050505b9392505050565b6000612206611024565b6001600160a01b031663fc57d4df61221c6111ef565b6040518263ffffffff1660e01b8152600401612238919061477d565b602060405180830381865afa158015612255573d6000803e3d6000fd5b505050506040513d601f19601f820116820180604052508101906122799190614d89565b612281611024565b6001600160a01b031663fc57d4df612297611579565b6040518263ffffffff1660e01b81526004016122b3919061477d565b602060405180830381865afa1580156122d0573d6000803e3d6000fd5b505050506040513d601f19601f820116820180604052508101906122f49190614d89565b6122fe9084614c37565b610a7c9190614c56565b6000806000612315613b86565b905060008061232261153e565b91509150600061233061128d565b6001600160a01b03166318160ddd6040518163ffffffff1660e01b8152600401602060405180830381865afa15801561236d573d6000803e3d6000fd5b505050506040513d601f19601f820116820180604052508101906123919190614d89565b90508061239e8585614c37565b6123a89190614c56565b9550806123b58584614c37565b6123bf9190614c56565b9450505050509091565b6000806123d4613c1c565b905060006123e0613c70565b905060006123ed82612a72565b905060006123f9612308565b5060d0546040516370a0823160e01b81529192506000916001600160a01b03909116906370a082319061243090309060040161477d565b602060405180830381865afa15801561244d573d6000803e3d6000fd5b505050506040513d601f19601f820116820180604052508101906124719190614d89565b90508083612480846002614c37565b61248a9088614da2565b6124949190614cee565b61249e9190614da2565b9550505050505090565b6000806124b36112fc565b90506124c181612710614da2565b6124cb8285614c37565b6121f59190614c56565b60008060008385116124e85760006124eb565b60015b91508315806124f8575084155b15612508578484141592506125f7565b6000612512612e71565b90508261254057856127106125278288614cee565b6125319190614c37565b61253b9190614c56565b612562565b8461271061254e8289614cee565b6125589190614c37565b6125629190614c56565b60d35490925061ffff168211806125ea575060d0546040516370a0823160e01b815262989680916001600160a01b0316906370a08231906125a790309060040161477d565b602060405180830381865afa1580156125c4573d6000803e3d6000fd5b505050506040513d601f19601f820116820180604052508101906125e89190614d89565b115b806125f3575080155b9350505b9250925092565b61260781613ca5565b5050600061261483613d07565b90506000612620612e71565b905061263461262f8284614cee565b613d34565b600061263e612308565b5060d0546040516370a0823160e01b815291925060009183916001600160a01b0316906370a082319061267590309060040161477d565b602060405180830381865afa158015612692573d6000803e3d6000fd5b505050506040513d601f19601f820116820180604052508101906126b69190614d89565b6126c09190614da2565b6126ca9087614cee565b905080156126f9576126f76126dd61128d565b60d15460d05484916001600160a01b039081169116610cf7565b505b60d1546040516370a0823160e01b81526000916001600160a01b0316906370a082319061272a90309060040161477d565b602060405180830381865afa158015612747573d6000803e3d6000fd5b505050506040513d601f19601f8201168201806040525081019061276b9190614d89565b9050600061277882612a72565b60d0546040516370a0823160e01b81529192506000916001600160a01b03909116906370a08231906127ae90309060040161477d565b602060405180830381865afa1580156127cb573d6000803e3d6000fd5b505050506040513d601f19601f820116820180604052508101906127ef9190614d89565b9050818110156128085780915061280582613d07565b92505b60006128148385613d69565b905061281f81613e19565b50505050505050505050565b8161283857610cf36130b8565b61284182613e7c565b505060d1546040516370a0823160e01b81526000916001600160a01b0316906370a082319061287490309060040161477d565b602060405180830381865afa158015612891573d6000803e3d6000fd5b505050506040513d601f19601f820116820180604052508101906128b59190614d89565b90506128c08161380c565b60006128cb83613ca5565b91505060006128d8613c70565b905060006128e586613d07565b6128ef9083614cee565b9050806128fe57505050505050565b600061292561290b61128d565b60d05460d15485916001600160a01b0390811691166120a5565b60d0546040516370a0823160e01b81529192506000916001600160a01b03909116906370a082319061295b90309060040161477d565b602060405180830381865afa158015612978573d6000803e3d6000fd5b505050506040513d601f19601f8201168201806040525081019061299c9190614d89565b905060008183106129ad57816129af565b825b90506129d66129bc61128d565b60d05460d15484916001600160a01b039081169116610911565b5060d1546040516370a0823160e01b81526001600160a01b03909116906370a0823190612a0790309060040161477d565b602060405180830381865afa158015612a24573d6000803e3d6000fd5b505050506040513d601f19601f82011682018060405250810190612a489190614d89565b9650612a538761380c565b85881115612a6757612a6488613ca5565b50505b505050505050505050565b600081612a8157506000919050565b60d15460d054610a7c9184916001600160a01b0391821691166121bd565b6000612aa961156a565b6001600160a01b0316336001600160a01b031614612ad95760405162461bcd60e51b815260040161090390614c78565b60d15460d054600091612b0291670de0b6b3a7640000916001600160a01b0390811691166121bd565b90506000612b17670de0b6b3a76400006121fc565b9050818111612b27578082612b2a565b81815b60cf54919350915081612710612b408583614cee565b612b4a9190614c37565b612b549190614c56565b10612b715760405162461bcd60e51b815260040161090390614d05565b60026065541415612b945760405162461bcd60e51b815260040161090390614d3c565b60026065556000612ba36123c9565b60d0546040516370a0823160e01b81529192506000916001600160a01b03909116906370a0823190612bd990309060040161477d565b602060405180830381865afa158015612bf6573d6000803e3d6000fd5b505050506040513d601f19601f82011682018060405250810190612c1a9190614d89565b905085811015612cf45760006064612c33886065614c37565b612c3d9190614c56565b9050828110612cc657612c4e6130b8565b60d0546040516370a0823160e01b81526001600160a01b03909116906370a0823190612c7e90309060040161477d565b602060405180830381865afa158015612c9b573d6000803e3d6000fd5b505050506040513d601f19601f82011682018060405250810190612cbf9190614d89565b9050612ce6565b81612cd9612cd48284614cee565b613ede565b612ce39190614da2565b90505b612cf08188613f89565b9650505b81612cfe60995490565b612d089088614c37565b612d129190614c56565b9450612d3430612d2061156a565b60d0546001600160a01b0316919089613f9f565b7f884edad9ce6fa2440d8a54cc123490eb96d2768479d49ff9c7366125a94243643387604051612d65929190614dba565b60405180910390a150506001606555509092915050565b600080612d876111ef565b6001600160a01b03166370a08231306040518263ffffffff1660e01b8152600401612db2919061477d565b602060405180830381865afa158015612dcf573d6000803e3d6000fd5b505050506040513d601f19601f82011682018060405250810190612df39190614d89565b9050670de0b6b3a7640000612e066111ef565b6001600160a01b031663182df0f56040518163ffffffff1660e01b8152600401602060405180830381865afa158015612e43573d6000803e3d6000fd5b505050506040513d601f19601f82011682018060405250810190612e679190614d89565b610ab29083614c37565b6000612e7b611579565b6001600160a01b03166395dd9193306040518263ffffffff1660e01b8152600401612ea6919061477d565b602060405180830381865afa158015612ec3573d6000803e3d6000fd5b505050506040513d601f19601f82011682018060405250810190610a5e9190614d89565b60d15460d0546000918291612f1291670de0b6b3a7640000916001600160a01b0391821691166121bd565b90506000612f27670de0b6b3a76400006121fc565b9050818111612f37578082612f3a565b81815b60cf54919350915081612710612f508583614cee565b612f5a9190614c37565b612f649190614c56565b10612f815760405162461bcd60e51b815260040161090390614d05565b60026065541415612fa45760405162461bcd60e51b815260040161090390614d3c565b60026065556000612fb36123c9565b9050612fbe60995490565b15612fe7578085612fce60995490565b612fd89190614c37565b612fe29190614c56565b612fe9565b845b60d0549094506001600160a01b03166323b872dd61300561156a565b30886040518463ffffffff1660e01b815260040161302593929190614ec6565b6020604051808303816000875af1158015613044573d6000803e3d6000fd5b505050506040513d601f19601f820116820180604052508101906130689190614eea565b5061307285613fc0565b7fe1fffcc4923d04b559f4d29a8bfc6cda04eb5b0d3c460751c2402c5c5cc9109c33866040516130a3929190614dba565b60405180910390a15050600160655550919050565b6130c26000613e7c565b505060006130ce613c70565b60d1546040516370a0823160e01b81529192506000916001600160a01b03909116906370a082319061310490309060040161477d565b602060405180830381865afa158015613121573d6000803e3d6000fd5b505050506040513d601f19601f820116820180604052508101906131459190614d89565b90508082111561318957600061315b8284614cee565b905061318261316861128d565b60d05460d15484916001600160a01b039081169116610cf7565b50506131c7565b818111156131c757600061319d8383614cee565b90506131c46131aa61128d565b60d15460d05484916001600160a01b039081169116610911565b50505b60d1546040516370a0823160e01b815261323f916001600160a01b0316906370a08231906131f990309060040161477d565b602060405180830381865afa158015613216573d6000803e3d6000fd5b505050506040513d601f19601f8201168201806040525081019061323a9190614d89565b61380c565b6000613249613c1c565b905061178981614023565b60008061325f610d58565b6001600160a01b0316638e8f294b6132756111ef565b6040518263ffffffff1660e01b8152600401613291919061477d565b606060405180830381865afa1580156132ae573d6000803e3d6000fd5b505050506040513d601f19601f820116820180604052508101906132d29190614f07565b509392505050565b60008060006132e98585611650565b509050600080876001600160a01b0316630902f1ac6040518163ffffffff1660e01b8152600401606060405180830381865afa15801561332d573d6000803e3d6000fd5b505050506040513d601f19601f820116820180604052508101906133519190614f61565b506001600160701b031691506001600160701b03169150826001600160a01b0316876001600160a01b03161461338857808261338b565b81815b90999098509650505050505050565b60006133ef826040518060400160405280602081526020017f5361666545524332303a206c6f772d6c6576656c2063616c6c206661696c6564815250856001600160a01b031661409d9092919063ffffffff16565b805190915015611789578080602001905181019061340d9190614eea565b6117895760405162461bcd60e51b815260206004820152602a60248201527f5361666545524332303a204552433230206f7065726174696f6e20646964206e6044820152691bdd081cdd58d8d9595960b21b6064820152608401610903565b6040805160028082526060820183526000926020830190803683370190505090506134956111ef565b816000815181106134a8576134a8614fa6565b60200260200101906001600160a01b031690816001600160a01b0316815250506134d0611579565b816001815181106134e3576134e3614fa6565b60200260200101906001600160a01b031690816001600160a01b03168152505061350b610d58565b6001600160a01b0316631c3db2e030836040518363ffffffff1660e01b8152600401613538929190614fbc565b600060405180830381600087803b15801561355257600080fd5b505af1158015613566573d6000803e3d6000fd5b505061013e546040516370a0823160e01b8152600093506001600160a01b0390911691506370a082319061359e90309060040161477d565b602060405180830381865afa1580156135bb573d6000803e3d6000fd5b505050506040513d601f19601f820116820180604052508101906135df9190614d89565b905080156136115761013f5461013e5461013d5461360f926001600160a01b039081169285929082169116610911565b505b7fb7828c606ac1d345dde5ddccf4f72a887cac5c2627ffabb0ed53c2346497e0108160008060405161364593929190614d73565b60405180910390a1505050565b6101725461017654604051631c57762b60e31b81526001600160a01b039092169163e2bbb1589161368891600090600401614b32565b600060405180830381600087803b1580156136a257600080fd5b505af11580156136b6573d6000803e3d6000fd5b5050610174546040516370a0823160e01b8152600093506001600160a01b0390911691506370a08231906136ee90309060040161477d565b602060405180830381865afa15801561370b573d6000803e3d6000fd5b505050506040513d601f19601f8201168201806040525081019061372f9190614d89565b9050806137395750565b610173546101745461017754613761926001600160a01b039081169285929082169116610911565b90507f32a12275d11ded9e7f36c2998c56e68328a566370e94f5a57d62df0bb39c690581604051610b5691815260200190565b61379c6111ef565b6001600160a01b031663a0712d68826040518263ffffffff1660e01b81526004016137c991815260200190565b6020604051808303816000875af11580156137e8573d6000803e3d6000fd5b505050506040513d601f19601f82011682018060405250810190610cf39190614d89565b613814611579565b6001600160a01b0316630e752702826040518263ffffffff1660e01b81526004016137c991815260200190565b60408051600280825260608201835260009260208301908036833701905050905061386a6111ef565b8160008151811061387d5761387d614fa6565b60200260200101906001600160a01b031690816001600160a01b0316815250506138a5611579565b816001815181106138b8576138b8614fa6565b60200260200101906001600160a01b031690816001600160a01b0316815250506138e0610d58565b6001600160a01b031663c2998238826040518263ffffffff1660e01b815260040161390b9190615018565b6000604051808303816000875af115801561392a573d6000803e3d6000fd5b505050506040513d6000823e601f3d908101601f19168201604052610cf39190810190615065565b600054610100900460ff166139795760405162461bcd60e51b81526004016109039061510a565b610de46140ac565b600054610100900460ff166139a85760405162461bcd60e51b81526004016109039061510a565b6139b06140da565b610de4614101565b801580613a325750604051636eb1769f60e11b81523060048201526001600160a01b03838116602483015284169063dd62ed3e90604401602060405180830381865afa158015613a0c573d6000803e3d6000fd5b505050506040513d601f19601f82011682018060405250810190613a309190614d89565b155b613a9d5760405162461bcd60e51b815260206004820152603660248201527f5361666545524332303a20617070726f76652066726f6d206e6f6e2d7a65726f60448201527520746f206e6f6e2d7a65726f20616c6c6f77616e636560501b6064820152608401610903565b6117898363095ea7b360e01b8484604051602401611752929190614dba565b6000808411613b0d5760405162461bcd60e51b815260206004820152601d60248201527f556e695574696c733a20494e53554646494349454e545f414d4f554e540000006044820152606401610903565b600083118015613b1d5750600082115b613b695760405162461bcd60e51b815260206004820181905260248201527f556e695574696c733a20494e53554646494349454e545f4c49515549444954596044820152606401610903565b82613b748386614c37565b613b7e9190614c56565b949350505050565b600080613b91614131565b610175546040516370a0823160e01b81529192506000916001600160a01b03909116906370a0823190613bc890309060040161477d565b602060405180830381865afa158015613be5573d6000803e3d6000fd5b505050506040513d601f19601f82011682018060405250810190613c099190614d89565b9050613c158183614da2565b9250505090565b6000613c266111ef565b6001600160a01b0316633af9e669306040518263ffffffff1660e01b8152600401613c51919061477d565b6020604051808303816000875af1158015612ec3573d6000803e3d6000fd5b6000613c7a611579565b6001600160a01b03166317bfdfbc306040518263ffffffff1660e01b8152600401613c51919061477d565b6000806000613cb2612d7c565b905083811415613cc85750600093849350915050565b838111613ce857613ce1613cdc8286614cee565b6141b5565b6000613cfc565b6000613cfc613cf78684614cee565b614254565b909590945092505050565b600081613d1657506000919050565b60d05460d154610a7c9184916001600160a01b0391821691166121bd565b613d3c611579565b6001600160a01b031663c5ebeaec826040518263ffffffff1660e01b81526004016137c991815260200190565b6000613d8f613d7661128d565b84613d7f610d68565b6001600160a01b03169190611733565b613da3613d9a61128d565b83613d7f610a63565b613dab61128d565b6001600160a01b0316636a627842306040518263ffffffff1660e01b8152600401613dd6919061477d565b6020604051808303816000875af1158015613df5573d6000803e3d6000fd5b505050506040513d601f19601f820116820180604052508101906121f59190614d89565b6101725461017654604051631c57762b60e31b81526001600160a01b039092169163e2bbb15891613e4e918590600401614b32565b600060405180830381600087803b158015613e6857600080fd5b505af1158015611cce573d6000803e3d6000fd5b6000806000613e89612308565b5090506000613e96613b86565b9050600082613ea58784614c37565b613eaf9190614c56565b90506000613ebd8284614cee565b9050613ec8816142f8565b613ed18161432d565b9550955050505050915091565b600080613eea836124a8565b90506000613ef6612308565b5090506000613f03612e71565b9050600080613f1a613f158686614cee565b613e7c565b90925090508080841015613f6557613f55613f3361128d565b613f3d8685614cee565b60d15460d0546001600160a01b039182169116610911565b613f5f9084614da2565b92508390505b613f6e8161380c565b6000613f7d613cf7858b614cee565b905061215e8185614da2565b6000818310613f9857816121f5565b5090919050565b611f57846323b872dd60e01b85858560405160240161175293929190614ec6565b6000613fcb826124a8565b60d05460d154919250600091613fef9184916001600160a01b0391821691166121bd565b9050614003613ffe8385614cee565b613794565b61400c81613d34565b60006140188383613d69565b9050611f5781613e19565b600061402d6111ef565b6001600160a01b031663852a12e3836040518263ffffffff1660e01b815260040161405a91815260200190565b6020604051808303816000875af1158015614079573d6000803e3d6000fd5b505050506040513d601f19601f820116820180604052508101906117899190614d89565b6060613b7e8484600085614413565b600054610100900460ff166140d35760405162461bcd60e51b81526004016109039061510a565b6001606555565b600054610100900460ff16610de45760405162461bcd60e51b81526004016109039061510a565b600054610100900460ff166141285760405162461bcd60e51b81526004016109039061510a565b610de43361216b565b61017254610176546040516393f1a40b60e01b8152600481019190915230602482015260009182916001600160a01b03909116906393f1a40b906044016040805180830381865afa15801561418a573d6000803e3d6000fd5b505050506040513d601f19601f820116820180604052508101906141ae9190615155565b5092915050565b6000806141c0610d68565b6001600160a01b03166370a08231306040518263ffffffff1660e01b81526004016141eb919061477d565b602060405180830381865afa158015614208573d6000803e3d6000fd5b505050506040513d601f19601f8201168201806040525081019061422c9190614d89565b905082811161423b578061423d565b825b9150811561424e5761424e82613794565b50919050565b600080614267614262612e71565b6121fc565b90506000614273612d7c565b90506000605f614281613254565b61429385670de0b6b3a7640000614c37565b61429e906064614c37565b6142a89190614c56565b6142b29190614c56565b9050818111156142c757506000949350505050565b60006142d38284614cee565b90508581116142e257806142e4565b855b94506142ef85614023565b50505050919050565b6101725461017654604051630441a3e760e41b81526001600160a01b039092169163441a3e7091613e4e918590600401614b32565b60008061434461433b61128d565b84613d7f61128d565b600061435e614351610d68565b614359610a63565b611650565b50905060008061436c61128d565b6001600160a01b03166389afcb44306040518263ffffffff1660e01b8152600401614397919061477d565b60408051808303816000875af11580156143b5573d6000803e3d6000fd5b505050506040513d601f19601f820116820180604052508101906143d99190615155565b915091506143e5610d68565b6001600160a01b0316836001600160a01b031614614404578082614407565b81815b94509450505050915091565b6060824710156144745760405162461bcd60e51b815260206004820152602660248201527f416464726573733a20696e73756666696369656e742062616c616e636520666f6044820152651c8818d85b1b60d21b6064820152608401610903565b843b6144c25760405162461bcd60e51b815260206004820152601d60248201527f416464726573733a2063616c6c20746f206e6f6e2d636f6e74726163740000006044820152606401610903565b600080866001600160a01b031685876040516144de9190615179565b60006040518083038185875af1925050503d806000811461451b576040519150601f19603f3d011682016040523d82523d6000602084013e614520565b606091505b509150915061453082828661453b565b979650505050505050565b6060831561454a5750816121f5565b82511561455a5782518084602001fd5b8160405162461bcd60e51b815260040161090391906146d9565b82805461458090614b5d565b90600052602060002090601f0160209004810192826145a257600085556145e8565b82601f106145bb5782800160ff198235161785556145e8565b828001600101855582156145e8579182015b828111156145e85782358255916020019190600101906145cd565b506145f492915061466c565b5090565b82805461460490614b5d565b90600052602060002090601f01602090048101928261462657600085556145e8565b82601f1061463f57805160ff19168380011785556145e8565b828001600101855582156145e8579182015b828111156145e8578251825591602001919060010190614651565b5b808211156145f4576000815560010161466d565b60005b8381101561469c578181015183820152602001614684565b83811115611f575750506000910152565b600081518084526146c5816020860160208601614681565b601f01601f19169290920160200192915050565b6020815260006121f560208301846146ad565b6000602082840312156146fe57600080fd5b5035919050565b6001600160a01b038116811461153b57600080fd5b803561472581614705565b919050565b6000806000806080858703121561474057600080fd5b843561474b81614705565b935060208501359250604085013561476281614705565b9150606085013561477281614705565b939692955090935050565b6001600160a01b0391909116815260200190565b6000602082840312156147a357600080fd5b81356121f581614705565b60008083601f8401126147c057600080fd5b5081356001600160401b038111156147d757600080fd5b60208301915083602082850101111561172c57600080fd5b6000806000806040858703121561480557600080fd5b84356001600160401b038082111561481c57600080fd5b614828888389016147ae565b9096509450602087013591508082111561484157600080fd5b5061484e878288016147ae565b95989497509550505050565b634e487b7160e01b600052604160045260246000fd5b60405161022081016001600160401b03811182821017156148935761489361485a565b60405290565b604051601f8201601f191681016001600160401b03811182821017156148c1576148c161485a565b604052919050565b600082601f8301126148da57600080fd5b81356001600160401b038111156148f3576148f361485a565b614906601f8201601f1916602001614899565b81815284602083860101111561491b57600080fd5b816020850160208301376000918101602001919091529392505050565b60006020828403121561494a57600080fd5b81356001600160401b038082111561496157600080fd5b90830190610220828603121561497657600080fd5b61497e614870565b6149878361471a565b81526149956020840161471a565b60208201526149a66040840161471a565b60408201526149b76060840161471a565b60608201526149c86080840161471a565b60808201526149d960a0840161471a565b60a08201526149ea60c0840161471a565b60c08201526149fb60e0840161471a565b60e08201526101008381013590820152610120614a1981850161471a565b90820152610140614a2b84820161471a565b90820152610160614a3d84820161471a565b90820152610180614a4f84820161471a565b908201526101a083810135908201526101c0614a6c81850161471a565b908201526101e08381013583811115614a8457600080fd5b614a90888287016148c9565b8284015250506102008084013583811115614aaa57600080fd5b614ab6888287016148c9565b918301919091525095945050505050565b801515811461153b57600080fd5b60008060408385031215614ae857600080fd5b8235614af381614705565b91506020830135614b0381614ac7565b809150509250929050565b600060208284031215614b2057600080fd5b813561ffff811681146121f557600080fd5b918252602082015260400190565b600060208284031215614b5257600080fd5b81516121f581614705565b600181811c90821680614b7157607f821691505b6020821081141561424e57634e487b7160e01b600052602260045260246000fd5b6020808252818101527f4f776e61626c653a2063616c6c6572206973206e6f7420746865206f776e6572604082015260600190565b84815283602082015260018060a01b0383166040820152608060608201526000614bf460808301846146ad565b9695505050505050565b600060208284031215614c1057600080fd5b815160ff811681146121f557600080fd5b634e487b7160e01b600052601160045260246000fd5b6000816000190483118215151615614c5157614c51614c21565b500290565b600082614c7357634e487b7160e01b600052601260045260246000fd5b500490565b6020808252600e908201526d0a6e8e4c2e874409c9ebe82aaa8960931b604082015260600190565b6020808252602e908201527f496e697469616c697a61626c653a20636f6e747261637420697320616c72656160408201526d191e481a5b9a5d1a585b1a5e995960921b606082015260800190565b600082821015614d0057614d00614c21565b500390565b6020808252601e908201527f4865646765644c503a2053484f52545f50524943455f4d49534d415443480000604082015260600190565b6020808252601f908201527f5265656e7472616e637947756172643a207265656e7472616e742063616c6c00604082015260600190565b9283526020830191909152604082015260600190565b600060208284031215614d9b57600080fd5b5051919050565b60008219821115614db557614db5614c21565b500190565b6001600160a01b03929092168252602082015260400190565b600181815b80851115614e0e578160001904821115614df457614df4614c21565b80851615614e0157918102915b93841c9390800290614dd8565b509250929050565b600082614e2557506001610a7c565b81614e3257506000610a7c565b8160018114614e485760028114614e5257614e6e565b6001915050610a7c565b60ff841115614e6357614e63614c21565b50506001821b610a7c565b5060208310610133831016604e8410600b8410161715614e91575081810a610a7c565b614e9b8383614dd3565b8060001904821115614eaf57614eaf614c21565b029392505050565b60006121f560ff841683614e16565b6001600160a01b039384168152919092166020820152604081019190915260600190565b600060208284031215614efc57600080fd5b81516121f581614ac7565b600080600060608486031215614f1c57600080fd5b8351614f2781614ac7565b602085015160408601519194509250614f3f81614ac7565b809150509250925092565b80516001600160701b038116811461472557600080fd5b600080600060608486031215614f7657600080fd5b614f7f84614f4a565b9250614f8d60208501614f4a565b9150604084015163ffffffff81168114614f3f57600080fd5b634e487b7160e01b600052603260045260246000fd5b6001600160a01b038381168252604060208084018290528451918401829052600092858201929091906060860190855b8181101561500a578551851683529483019491830191600101614fec565b509098975050505050505050565b6020808252825182820181905260009190848201906040850190845b818110156150595783516001600160a01b031683529284019291840191600101615034565b50909695505050505050565b6000602080838503121561507857600080fd5b82516001600160401b038082111561508f57600080fd5b818501915085601f8301126150a357600080fd5b8151818111156150b5576150b561485a565b8060051b91506150c6848301614899565b81815291830184019184810190888411156150e057600080fd5b938501935b838510156150fe578451825293850193908501906150e5565b98975050505050505050565b6020808252602b908201527f496e697469616c697a61626c653a20636f6e7472616374206973206e6f74206960408201526a6e697469616c697a696e6760a81b606082015260800190565b6000806040838503121561516857600080fd5b505080516020909101519092909150565b6000825161518b818460208701614681565b919091019291505056fea2646970667358221220f6397d1dc85cce70b828edc72b113fc6e8b2782f674db5792da86f49b213b0f764736f6c634300080a0033",
  "libraries": {
    "UniUtils": "0x92dBEa6fa85A1cd839b604D1F2852ABfb7Fa2897"
  },
  "devdoc": {
    "kind": "dev",
    "methods": {
      "owner()": {
        "details": "Returns the address of the current owner."
      },
      "renounceOwnership()": {
        "details": "Leaves the contract without owner. It will not be possible to call `onlyOwner` functions anymore. Can only be called by the current owner. NOTE: Renouncing ownership will leave the contract without an owner, thereby removing any functionality that is only available to the owner."
      },
      "transferOwnership(address)": {
        "details": "Transfers ownership of the contract to a new account (`newOwner`). Can only be called by the current owner."
      }
    },
    "version": 1
  },
  "userdoc": {
    "kind": "user",
    "methods": {
      "getPricePerShare()": {
        "notice": "Returns the share price of the strategy in `want` units, multiplied  by 1e18"
      }
    },
    "version": 1
  },
  "storageLayout": {
    "storage": [
      {
        "astId": 132,
        "contract": "src/strategies/impl/USDCftmSPIRITscream.sol:USDCftmSPIRITscream",
        "label": "_initialized",
        "offset": 0,
        "slot": "0",
        "type": "t_bool"
      },
      {
        "astId": 135,
        "contract": "src/strategies/impl/USDCftmSPIRITscream.sol:USDCftmSPIRITscream",
        "label": "_initializing",
        "offset": 1,
        "slot": "0",
        "type": "t_bool"
      },
      {
        "astId": 1454,
        "contract": "src/strategies/impl/USDCftmSPIRITscream.sol:USDCftmSPIRITscream",
        "label": "__gap",
        "offset": 0,
        "slot": "1",
        "type": "t_array(t_uint256)50_storage"
      },
      {
        "astId": 10,
        "contract": "src/strategies/impl/USDCftmSPIRITscream.sol:USDCftmSPIRITscream",
        "label": "_owner",
        "offset": 0,
        "slot": "51",
        "type": "t_address"
      },
      {
        "astId": 124,
        "contract": "src/strategies/impl/USDCftmSPIRITscream.sol:USDCftmSPIRITscream",
        "label": "__gap",
        "offset": 0,
        "slot": "52",
        "type": "t_array(t_uint256)49_storage"
      },
      {
        "astId": 213,
        "contract": "src/strategies/impl/USDCftmSPIRITscream.sol:USDCftmSPIRITscream",
        "label": "_status",
        "offset": 0,
        "slot": "101",
        "type": "t_uint256"
      },
      {
        "astId": 256,
        "contract": "src/strategies/impl/USDCftmSPIRITscream.sol:USDCftmSPIRITscream",
        "label": "__gap",
        "offset": 0,
        "slot": "102",
        "type": "t_array(t_uint256)49_storage"
      },
      {
        "astId": 15273,
        "contract": "src/strategies/impl/USDCftmSPIRITscream.sol:USDCftmSPIRITscream",
        "label": "lastHarvest",
        "offset": 0,
        "slot": "151",
        "type": "t_uint256"
      },
      {
        "astId": 15275,
        "contract": "src/strategies/impl/USDCftmSPIRITscream.sol:USDCftmSPIRITscream",
        "label": "_vault",
        "offset": 0,
        "slot": "152",
        "type": "t_address"
      },
      {
        "astId": 15277,
        "contract": "src/strategies/impl/USDCftmSPIRITscream.sol:USDCftmSPIRITscream",
        "label": "_shares",
        "offset": 0,
        "slot": "153",
        "type": "t_uint256"
      },
      {
        "astId": 15279,
        "contract": "src/strategies/impl/USDCftmSPIRITscream.sol:USDCftmSPIRITscream",
        "label": "name",
        "offset": 0,
        "slot": "154",
        "type": "t_string_storage"
      },
      {
        "astId": 15281,
        "contract": "src/strategies/impl/USDCftmSPIRITscream.sol:USDCftmSPIRITscream",
        "label": "symbol",
        "offset": 0,
        "slot": "155",
        "type": "t_string_storage"
      },
      {
        "astId": 15285,
        "contract": "src/strategies/impl/USDCftmSPIRITscream.sol:USDCftmSPIRITscream",
        "label": "_managers",
        "offset": 0,
        "slot": "156",
        "type": "t_mapping(t_address,t_bool)"
      },
      {
        "astId": 15287,
        "contract": "src/strategies/impl/USDCftmSPIRITscream.sol:USDCftmSPIRITscream",
        "label": "BASE_UNIT",
        "offset": 0,
        "slot": "157",
        "type": "t_uint256"
      },
      {
        "astId": 15565,
        "contract": "src/strategies/impl/USDCftmSPIRITscream.sol:USDCftmSPIRITscream",
        "label": "_gap",
        "offset": 0,
        "slot": "158",
        "type": "t_array(t_uint256)49_storage"
      },
      {
        "astId": 15598,
        "contract": "src/strategies/impl/USDCftmSPIRITscream.sol:USDCftmSPIRITscream",
        "label": "_maxPriceMismatch",
        "offset": 0,
        "slot": "207",
        "type": "t_uint256"
      },
      {
        "astId": 15655,
        "contract": "src/strategies/impl/USDCftmSPIRITscream.sol:USDCftmSPIRITscream",
        "label": "_underlying",
        "offset": 0,
        "slot": "208",
        "type": "t_contract(IERC20)3568"
      },
      {
        "astId": 15658,
        "contract": "src/strategies/impl/USDCftmSPIRITscream.sol:USDCftmSPIRITscream",
        "label": "_short",
        "offset": 0,
        "slot": "209",
        "type": "t_contract(IERC20)3568"
      },
      {
        "astId": 15660,
        "contract": "src/strategies/impl/USDCftmSPIRITscream.sol:USDCftmSPIRITscream",
        "label": "_minLendHarvest",
        "offset": 0,
        "slot": "210",
        "type": "t_uint256"
      },
      {
        "astId": 15662,
        "contract": "src/strategies/impl/USDCftmSPIRITscream.sol:USDCftmSPIRITscream",
        "label": "rebalanceThreshold",
        "offset": 0,
        "slot": "211",
        "type": "t_uint16"
      },
      {
        "astId": 16923,
        "contract": "src/strategies/impl/USDCftmSPIRITscream.sol:USDCftmSPIRITscream",
        "label": "_gap",
        "offset": 0,
        "slot": "212",
        "type": "t_array(t_uint256)50_storage"
      },
      {
        "astId": 17803,
        "contract": "src/strategies/impl/USDCftmSPIRITscream.sol:USDCftmSPIRITscream",
        "label": "_cTokenLend",
        "offset": 0,
        "slot": "262",
        "type": "t_contract(ICTokenErc20)12715"
      },
      {
        "astId": 17806,
        "contract": "src/strategies/impl/USDCftmSPIRITscream.sol:USDCftmSPIRITscream",
        "label": "_cTokenBorrow",
        "offset": 0,
        "slot": "263",
        "type": "t_contract(ICTokenErc20)12715"
      },
      {
        "astId": 17809,
        "contract": "src/strategies/impl/USDCftmSPIRITscream.sol:USDCftmSPIRITscream",
        "label": "_comptroller",
        "offset": 0,
        "slot": "264",
        "type": "t_contract(IComptroller)12957"
      },
      {
        "astId": 17812,
        "contract": "src/strategies/impl/USDCftmSPIRITscream.sol:USDCftmSPIRITscream",
        "label": "_oracle",
        "offset": 0,
        "slot": "265",
        "type": "t_contract(ICompPriceOracle)12738"
      },
      {
        "astId": 17814,
        "contract": "src/strategies/impl/USDCftmSPIRITscream.sol:USDCftmSPIRITscream",
        "label": "_safeCollateralRatio",
        "offset": 0,
        "slot": "266",
        "type": "t_uint256"
      },
      {
        "astId": 17950,
        "contract": "src/strategies/impl/USDCftmSPIRITscream.sol:USDCftmSPIRITscream",
        "label": "_gap",
        "offset": 0,
        "slot": "267",
        "type": "t_array(t_uint256)50_storage"
      },
      {
        "astId": 17970,
        "contract": "src/strategies/impl/USDCftmSPIRITscream.sol:USDCftmSPIRITscream",
        "label": "_harvestTo",
        "offset": 0,
        "slot": "317",
        "type": "t_address"
      },
      {
        "astId": 17973,
        "contract": "src/strategies/impl/USDCftmSPIRITscream.sol:USDCftmSPIRITscream",
        "label": "_farmToken",
        "offset": 0,
        "slot": "318",
        "type": "t_contract(IERC20)3568"
      },
      {
        "astId": 17976,
        "contract": "src/strategies/impl/USDCftmSPIRITscream.sol:USDCftmSPIRITscream",
        "label": "_farmPair",
        "offset": 0,
        "slot": "319",
        "type": "t_contract(IUniswapV2Pair)13541"
      },
      {
        "astId": 18116,
        "contract": "src/strategies/impl/USDCftmSPIRITscream.sol:USDCftmSPIRITscream",
        "label": "_gap",
        "offset": 0,
        "slot": "320",
        "type": "t_array(t_uint256)50_storage"
      },
      {
        "astId": 18143,
        "contract": "src/strategies/impl/USDCftmSPIRITscream.sol:USDCftmSPIRITscream",
        "label": "_farm",
        "offset": 0,
        "slot": "370",
        "type": "t_contract(IMasterChef)13221"
      },
      {
        "astId": 18146,
        "contract": "src/strategies/impl/USDCftmSPIRITscream.sol:USDCftmSPIRITscream",
        "label": "_farmPair",
        "offset": 0,
        "slot": "371",
        "type": "t_contract(IUniswapV2Pair)13541"
      },
      {
        "astId": 18149,
        "contract": "src/strategies/impl/USDCftmSPIRITscream.sol:USDCftmSPIRITscream",
        "label": "_farmToken",
        "offset": 0,
        "slot": "372",
        "type": "t_contract(IERC20)3568"
      },
      {
        "astId": 18152,
        "contract": "src/strategies/impl/USDCftmSPIRITscream.sol:USDCftmSPIRITscream",
        "label": "_pair",
        "offset": 0,
        "slot": "373",
        "type": "t_contract(IUniswapV2Pair)13541"
      },
      {
        "astId": 18154,
        "contract": "src/strategies/impl/USDCftmSPIRITscream.sol:USDCftmSPIRITscream",
        "label": "_farmId",
        "offset": 0,
        "slot": "374",
        "type": "t_uint256"
      },
      {
        "astId": 18156,
        "contract": "src/strategies/impl/USDCftmSPIRITscream.sol:USDCftmSPIRITscream",
        "label": "_harvestTo",
        "offset": 0,
        "slot": "375",
        "type": "t_address"
      },
      {
        "astId": 18394,
        "contract": "src/strategies/impl/USDCftmSPIRITscream.sol:USDCftmSPIRITscream",
        "label": "_gap",
        "offset": 0,
        "slot": "376",
        "type": "t_array(t_uint256)49_storage"
      },
      {
        "astId": 17241,
        "contract": "src/strategies/impl/USDCftmSPIRITscream.sol:USDCftmSPIRITscream",
        "label": "_gap",
        "offset": 0,
        "slot": "425",
        "type": "t_array(t_uint256)200_storage"
      },
      {
        "astId": 17366,
        "contract": "src/strategies/impl/USDCftmSPIRITscream.sol:USDCftmSPIRITscream",
        "label": "version",
        "offset": 0,
        "slot": "625",
        "type": "t_uint256"
      }
    ],
    "types": {
      "t_address": {
        "encoding": "inplace",
        "label": "address",
        "numberOfBytes": "20"
      },
      "t_array(t_uint256)200_storage": {
        "base": "t_uint256",
        "encoding": "inplace",
        "label": "uint256[200]",
        "numberOfBytes": "6400"
      },
      "t_array(t_uint256)49_storage": {
        "base": "t_uint256",
        "encoding": "inplace",
        "label": "uint256[49]",
        "numberOfBytes": "1568"
      },
      "t_array(t_uint256)50_storage": {
        "base": "t_uint256",
        "encoding": "inplace",
        "label": "uint256[50]",
        "numberOfBytes": "1600"
      },
      "t_bool": {
        "encoding": "inplace",
        "label": "bool",
        "numberOfBytes": "1"
      },
      "t_contract(ICTokenErc20)12715": {
        "encoding": "inplace",
        "label": "contract ICTokenErc20",
        "numberOfBytes": "20"
      },
      "t_contract(ICompPriceOracle)12738": {
        "encoding": "inplace",
        "label": "contract ICompPriceOracle",
        "numberOfBytes": "20"
      },
      "t_contract(IComptroller)12957": {
        "encoding": "inplace",
        "label": "contract IComptroller",
        "numberOfBytes": "20"
      },
      "t_contract(IERC20)3568": {
        "encoding": "inplace",
        "label": "contract IERC20",
        "numberOfBytes": "20"
      },
      "t_contract(IMasterChef)13221": {
        "encoding": "inplace",
        "label": "contract IMasterChef",
        "numberOfBytes": "20"
      },
      "t_contract(IUniswapV2Pair)13541": {
        "encoding": "inplace",
        "label": "contract IUniswapV2Pair",
        "numberOfBytes": "20"
      },
      "t_mapping(t_address,t_bool)": {
        "encoding": "mapping",
        "key": "t_address",
        "label": "mapping(address => bool)",
        "numberOfBytes": "32",
        "value": "t_bool"
      },
      "t_string_storage": {
        "encoding": "bytes",
        "label": "string",
        "numberOfBytes": "32"
      },
      "t_uint16": {
        "encoding": "inplace",
        "label": "uint16",
        "numberOfBytes": "2"
      },
      "t_uint256": {
        "encoding": "inplace",
        "label": "uint256",
        "numberOfBytes": "32"
      }
    }
  }
}