{
  "address": "0xE79928db3a1884A825d002AF9afe713E9dA8A774",
  "abi": [
    {
      "inputs": [
        {
          "components": [
            {
              "internalType": "address",
              "name": "underlying",
              "type": "address"
            },
            {
              "internalType": "address",
              "name": "short",
              "type": "address"
            },
            {
              "internalType": "address",
              "name": "cTokenLend",
              "type": "address"
            },
            {
              "internalType": "address",
              "name": "cTokenBorrow",
              "type": "address"
            },
            {
              "internalType": "address",
              "name": "uniPair",
              "type": "address"
            },
            {
              "internalType": "address",
              "name": "uniFarm",
              "type": "address"
            },
            {
              "internalType": "address",
              "name": "farmToken",
              "type": "address"
            },
            {
              "internalType": "uint256",
              "name": "farmId",
              "type": "uint256"
            },
            {
              "internalType": "address",
              "name": "farmRouter",
              "type": "address"
            },
            {
              "internalType": "address",
              "name": "comptroller",
              "type": "address"
            },
            {
              "internalType": "address",
              "name": "lendRewardRouter",
              "type": "address"
            },
            {
              "internalType": "address",
              "name": "lendRewardToken",
              "type": "address"
            },
            {
              "internalType": "uint256",
              "name": "safeCollateralRatio",
              "type": "uint256"
            },
            {
              "internalType": "address",
              "name": "vault",
              "type": "address"
            },
            {
              "internalType": "string",
              "name": "symbol",
              "type": "string"
            },
            {
              "internalType": "string",
              "name": "name",
              "type": "string"
            },
            {
              "internalType": "uint256",
              "name": "maxTvl",
              "type": "uint256"
            }
          ],
          "internalType": "struct Config",
          "name": "config",
          "type": "tuple"
        }
      ],
      "stateMutability": "nonpayable",
      "type": "constructor"
    },
    {
      "anonymous": false,
      "inputs": [
        {
          "indexed": false,
          "internalType": "address",
          "name": "sender",
          "type": "address"
        },
        {
          "indexed": false,
          "internalType": "uint256",
          "name": "amount",
          "type": "uint256"
        }
      ],
      "name": "Deposit",
      "type": "event"
    },
    {
      "anonymous": false,
      "inputs": [
        {
          "indexed": true,
          "internalType": "address",
          "name": "recipient",
          "type": "address"
        },
        {
          "indexed": false,
          "internalType": "contract IERC20[]",
          "name": "tokens",
          "type": "address[]"
        }
      ],
      "name": "EmergencyWithdraw",
      "type": "event"
    },
    {
      "anonymous": false,
      "inputs": [
        {
          "indexed": false,
          "internalType": "uint256",
          "name": "harvested",
          "type": "uint256"
        }
      ],
      "name": "Harvest",
      "type": "event"
    },
    {
      "anonymous": false,
      "inputs": [
        {
          "indexed": true,
          "internalType": "address",
          "name": "token",
          "type": "address"
        },
        {
          "indexed": false,
          "internalType": "uint256",
          "name": "amount",
          "type": "uint256"
        }
      ],
      "name": "HarvestedToken",
      "type": "event"
    },
    {
      "anonymous": false,
      "inputs": [
        {
          "indexed": true,
          "internalType": "address",
          "name": "account",
          "type": "address"
        },
        {
          "indexed": false,
          "internalType": "bool",
          "name": "isManager",
          "type": "bool"
        }
      ],
      "name": "ManagerUpdate",
      "type": "event"
    },
    {
      "anonymous": false,
      "inputs": [
        {
          "indexed": true,
          "internalType": "address",
          "name": "previousOwner",
          "type": "address"
        },
        {
          "indexed": true,
          "internalType": "address",
          "name": "newOwner",
          "type": "address"
        }
      ],
      "name": "OwnershipTransferred",
      "type": "event"
    },
    {
      "anonymous": false,
      "inputs": [
        {
          "indexed": false,
          "internalType": "uint256",
          "name": "shortPrice",
          "type": "uint256"
        },
        {
          "indexed": false,
          "internalType": "uint256",
          "name": "tvlBeforeRebalance",
          "type": "uint256"
        },
        {
          "indexed": false,
          "internalType": "uint256",
          "name": "positionOffset",
          "type": "uint256"
        }
      ],
      "name": "Rebalance",
      "type": "event"
    },
    {
      "anonymous": false,
      "inputs": [
        {
          "indexed": true,
          "internalType": "address",
          "name": "sender",
          "type": "address"
        },
        {
          "indexed": false,
          "internalType": "uint256",
          "name": "startLoanHealth",
          "type": "uint256"
        },
        {
          "indexed": false,
          "internalType": "uint256",
          "name": "updatedLoanHealth",
          "type": "uint256"
        }
      ],
      "name": "RebalanceLoan",
      "type": "event"
    },
    {
      "anonymous": false,
      "inputs": [
        {
          "indexed": false,
          "internalType": "uint256",
          "name": "loanHealth",
          "type": "uint256"
        }
      ],
      "name": "SetMaxPriceMismatch",
      "type": "event"
    },
    {
      "anonymous": false,
      "inputs": [
        {
          "indexed": false,
          "internalType": "uint256",
          "name": "loanHealth",
          "type": "uint256"
        }
      ],
      "name": "SetMaxTvl",
      "type": "event"
    },
    {
      "anonymous": false,
      "inputs": [
        {
          "indexed": false,
          "internalType": "uint256",
          "name": "loanHealth",
          "type": "uint256"
        }
      ],
      "name": "SetRebalanceThreshold",
      "type": "event"
    },
    {
      "anonymous": false,
      "inputs": [
        {
          "indexed": true,
          "internalType": "address",
          "name": "vault",
          "type": "address"
        }
      ],
      "name": "VaultUpdate",
      "type": "event"
    },
    {
      "anonymous": false,
      "inputs": [
        {
          "indexed": false,
          "internalType": "address",
          "name": "sender",
          "type": "address"
        },
        {
          "indexed": false,
          "internalType": "uint256",
          "name": "amount",
          "type": "uint256"
        }
      ],
      "name": "Withdraw",
      "type": "event"
    },
    {
      "anonymous": false,
      "inputs": [
        {
          "indexed": false,
          "internalType": "uint256",
          "name": "loanHealth",
          "type": "uint256"
        }
      ],
      "name": "setMinLoanHealth",
      "type": "event"
    },
    {
      "inputs": [],
      "name": "BASE_UNIT",
      "outputs": [
        {
          "internalType": "uint256",
          "name": "",
          "type": "uint256"
        }
      ],
      "stateMutability": "view",
      "type": "function"
    },
    {
      "inputs": [
        {
          "internalType": "address",
          "name": "",
          "type": "address"
        }
      ],
      "name": "balanceOfUnderlying",
      "outputs": [
        {
          "internalType": "uint256",
          "name": "",
          "type": "uint256"
        }
      ],
      "stateMutability": "view",
      "type": "function"
    },
    {
      "inputs": [],
      "name": "balanceOfUnderlying",
      "outputs": [
        {
          "internalType": "uint256",
          "name": "",
          "type": "uint256"
        }
      ],
      "stateMutability": "view",
      "type": "function"
    },
    {
      "inputs": [],
      "name": "cTokenBorrow",
      "outputs": [
        {
          "internalType": "contract ICTokenErc20",
          "name": "",
          "type": "address"
        }
      ],
      "stateMutability": "view",
      "type": "function"
    },
    {
      "inputs": [],
      "name": "cTokenLend",
      "outputs": [
        {
          "internalType": "contract ICTokenErc20",
          "name": "",
          "type": "address"
        }
      ],
      "stateMutability": "view",
      "type": "function"
    },
    {
      "inputs": [],
      "name": "closePosition",
      "outputs": [],
      "stateMutability": "nonpayable",
      "type": "function"
    },
    {
      "inputs": [],
      "name": "comptroller",
      "outputs": [
        {
          "internalType": "contract IComptroller",
          "name": "",
          "type": "address"
        }
      ],
      "stateMutability": "view",
      "type": "function"
    },
    {
      "inputs": [],
      "name": "decimals",
      "outputs": [
        {
          "internalType": "uint8",
          "name": "",
          "type": "uint8"
        }
      ],
      "stateMutability": "view",
      "type": "function"
    },
    {
      "inputs": [
        {
          "internalType": "address",
          "name": "recipient",
          "type": "address"
        },
        {
          "internalType": "contract IERC20[]",
          "name": "tokens",
          "type": "address[]"
        }
      ],
      "name": "emergencyWithdraw",
      "outputs": [],
      "stateMutability": "nonpayable",
      "type": "function"
    },
    {
      "inputs": [],
      "name": "farmRouter",
      "outputs": [
        {
          "internalType": "contract IUniswapV2Router01",
          "name": "",
          "type": "address"
        }
      ],
      "stateMutability": "view",
      "type": "function"
    },
    {
      "inputs": [],
      "name": "getCollateralRatio",
      "outputs": [
        {
          "internalType": "uint256",
          "name": "",
          "type": "uint256"
        }
      ],
      "stateMutability": "view",
      "type": "function"
    },
    {
      "inputs": [],
      "name": "getMaxTvl",
      "outputs": [
        {
          "internalType": "uint256",
          "name": "",
          "type": "uint256"
        }
      ],
      "stateMutability": "view",
      "type": "function"
    },
    {
      "inputs": [],
      "name": "getPositionOffset",
      "outputs": [
        {
          "internalType": "uint256",
          "name": "positionOffset",
          "type": "uint256"
        }
      ],
      "stateMutability": "view",
      "type": "function"
    },
    {
      "inputs": [],
      "name": "getPricePerShare",
      "outputs": [
        {
          "internalType": "uint256",
          "name": "",
          "type": "uint256"
        }
      ],
      "stateMutability": "view",
      "type": "function"
    },
    {
      "inputs": [],
      "name": "getTVL",
      "outputs": [
        {
          "internalType": "uint256",
          "name": "tvl",
          "type": "uint256"
        },
        {
          "internalType": "uint256",
          "name": "collateralBalance",
          "type": "uint256"
        },
        {
          "internalType": "uint256",
          "name": "borrowPosition",
          "type": "uint256"
        },
        {
          "internalType": "uint256",
          "name": "borrowBalance",
          "type": "uint256"
        },
        {
          "internalType": "uint256",
          "name": "lpBalance",
          "type": "uint256"
        },
        {
          "internalType": "uint256",
          "name": "underlyingBalance",
          "type": "uint256"
        }
      ],
      "stateMutability": "view",
      "type": "function"
    },
    {
      "inputs": [],
      "name": "getTotalTVL",
      "outputs": [
        {
          "internalType": "uint256",
          "name": "tvl",
          "type": "uint256"
        }
      ],
      "stateMutability": "view",
      "type": "function"
    },
    {
      "inputs": [],
      "name": "getUnderlyingShortReserves",
      "outputs": [
        {
          "internalType": "uint256",
          "name": "reserveA",
          "type": "uint256"
        },
        {
          "internalType": "uint256",
          "name": "reserveB",
          "type": "uint256"
        }
      ],
      "stateMutability": "view",
      "type": "function"
    },
    {
      "inputs": [
        {
          "components": [
            {
              "internalType": "address[]",
              "name": "path",
              "type": "address[]"
            },
            {
              "internalType": "uint256",
              "name": "min",
              "type": "uint256"
            },
            {
              "internalType": "uint256",
              "name": "deadline",
              "type": "uint256"
            }
          ],
          "internalType": "struct HarvestSwapParms[]",
          "name": "uniParams",
          "type": "tuple[]"
        },
        {
          "components": [
            {
              "internalType": "address[]",
              "name": "path",
              "type": "address[]"
            },
            {
              "internalType": "uint256",
              "name": "min",
              "type": "uint256"
            },
            {
              "internalType": "uint256",
              "name": "deadline",
              "type": "uint256"
            }
          ],
          "internalType": "struct HarvestSwapParms[]",
          "name": "lendingParams",
          "type": "tuple[]"
        }
      ],
      "name": "harvest",
      "outputs": [
        {
          "internalType": "uint256[]",
          "name": "farmHarvest",
          "type": "uint256[]"
        },
        {
          "internalType": "uint256[]",
          "name": "lendHarvest",
          "type": "uint256[]"
        }
      ],
      "stateMutability": "nonpayable",
      "type": "function"
    },
    {
      "inputs": [],
      "name": "isCEther",
      "outputs": [
        {
          "internalType": "bool",
          "name": "",
          "type": "bool"
        }
      ],
      "stateMutability": "pure",
      "type": "function"
    },
    {
      "inputs": [],
      "name": "isIntialized",
      "outputs": [
        {
          "internalType": "bool",
          "name": "",
          "type": "bool"
        }
      ],
      "stateMutability": "view",
      "type": "function"
    },
    {
      "inputs": [
        {
          "internalType": "address",
          "name": "user",
          "type": "address"
        }
      ],
      "name": "isManager",
      "outputs": [
        {
          "internalType": "bool",
          "name": "",
          "type": "bool"
        }
      ],
      "stateMutability": "view",
      "type": "function"
    },
    {
      "inputs": [],
      "name": "lastHarvest",
      "outputs": [
        {
          "internalType": "uint256",
          "name": "",
          "type": "uint256"
        }
      ],
      "stateMutability": "view",
      "type": "function"
    },
    {
      "inputs": [],
      "name": "lendFarmRouter",
      "outputs": [
        {
          "internalType": "contract IUniswapV2Router01",
          "name": "",
          "type": "address"
        }
      ],
      "stateMutability": "view",
      "type": "function"
    },
    {
      "inputs": [],
      "name": "loanHealth",
      "outputs": [
        {
          "internalType": "uint256",
          "name": "",
          "type": "uint256"
        }
      ],
      "stateMutability": "view",
      "type": "function"
    },
    {
      "inputs": [],
      "name": "minLoanHealth",
      "outputs": [
        {
          "internalType": "uint256",
          "name": "",
          "type": "uint256"
        }
      ],
      "stateMutability": "view",
      "type": "function"
    },
    {
      "inputs": [
        {
          "internalType": "uint256",
          "name": "amount",
          "type": "uint256"
        }
      ],
      "name": "mint",
      "outputs": [
        {
          "internalType": "uint256",
          "name": "errCode",
          "type": "uint256"
        }
      ],
      "stateMutability": "nonpayable",
      "type": "function"
    },
    {
      "inputs": [],
      "name": "name",
      "outputs": [
        {
          "internalType": "string",
          "name": "",
          "type": "string"
        }
      ],
      "stateMutability": "view",
      "type": "function"
    },
    {
      "inputs": [],
      "name": "oracle",
      "outputs": [
        {
          "internalType": "contract ICompPriceOracle",
          "name": "",
          "type": "address"
        }
      ],
      "stateMutability": "view",
      "type": "function"
    },
    {
      "inputs": [],
      "name": "owner",
      "outputs": [
        {
          "internalType": "address",
          "name": "",
          "type": "address"
        }
      ],
      "stateMutability": "view",
      "type": "function"
    },
    {
      "inputs": [],
      "name": "pair",
      "outputs": [
        {
          "internalType": "contract IUniswapV2Pair",
          "name": "",
          "type": "address"
        }
      ],
      "stateMutability": "view",
      "type": "function"
    },
    {
      "inputs": [],
      "name": "rebalance",
      "outputs": [],
      "stateMutability": "nonpayable",
      "type": "function"
    },
    {
      "inputs": [],
      "name": "rebalanceLoan",
      "outputs": [],
      "stateMutability": "nonpayable",
      "type": "function"
    },
    {
      "inputs": [],
      "name": "rebalanceThreshold",
      "outputs": [
        {
          "internalType": "uint16",
          "name": "",
          "type": "uint16"
        }
      ],
      "stateMutability": "view",
      "type": "function"
    },
    {
      "inputs": [
        {
          "internalType": "uint256",
          "name": "amount",
          "type": "uint256"
        }
      ],
      "name": "redeemUnderlying",
      "outputs": [
        {
          "internalType": "uint256",
          "name": "errCode",
          "type": "uint256"
        }
      ],
      "stateMutability": "nonpayable",
      "type": "function"
    },
    {
      "inputs": [],
      "name": "renounceOwnership",
      "outputs": [],
      "stateMutability": "nonpayable",
      "type": "function"
    },
    {
      "inputs": [],
      "name": "safeCollateralRatio",
      "outputs": [
        {
          "internalType": "uint256",
          "name": "",
          "type": "uint256"
        }
      ],
      "stateMutability": "view",
      "type": "function"
    },
    {
      "inputs": [
        {
          "internalType": "address",
          "name": "user",
          "type": "address"
        },
        {
          "internalType": "bool",
          "name": "_isManager",
          "type": "bool"
        }
      ],
      "name": "setManager",
      "outputs": [],
      "stateMutability": "nonpayable",
      "type": "function"
    },
    {
      "inputs": [
        {
          "internalType": "uint256",
          "name": "maxPriceMismatch_",
          "type": "uint256"
        }
      ],
      "name": "setMaxPriceMismatch",
      "outputs": [],
      "stateMutability": "nonpayable",
      "type": "function"
    },
    {
      "inputs": [
        {
          "internalType": "uint256",
          "name": "maxTvl_",
          "type": "uint256"
        }
      ],
      "name": "setMaxTvl",
      "outputs": [],
      "stateMutability": "nonpayable",
      "type": "function"
    },
    {
      "inputs": [
        {
          "internalType": "uint256",
          "name": "minLoanHealth_",
          "type": "uint256"
        }
      ],
      "name": "setMinLoanHeath",
      "outputs": [],
      "stateMutability": "nonpayable",
      "type": "function"
    },
    {
      "inputs": [
        {
          "internalType": "uint16",
          "name": "rebalanceThreshold_",
          "type": "uint16"
        }
      ],
      "name": "setRebalanceThreshold",
      "outputs": [],
      "stateMutability": "nonpayable",
      "type": "function"
    },
    {
      "inputs": [
        {
          "internalType": "address",
          "name": "vault_",
          "type": "address"
        }
      ],
      "name": "setVault",
      "outputs": [],
      "stateMutability": "nonpayable",
      "type": "function"
    },
    {
      "inputs": [],
      "name": "short",
      "outputs": [
        {
          "internalType": "contract IERC20",
          "name": "",
          "type": "address"
        }
      ],
      "stateMutability": "view",
      "type": "function"
    },
    {
      "inputs": [],
      "name": "symbol",
      "outputs": [
        {
          "internalType": "string",
          "name": "",
          "type": "string"
        }
      ],
      "stateMutability": "view",
      "type": "function"
    },
    {
      "inputs": [],
      "name": "totalSupply",
      "outputs": [
        {
          "internalType": "uint256",
          "name": "",
          "type": "uint256"
        }
      ],
      "stateMutability": "view",
      "type": "function"
    },
    {
      "inputs": [
        {
          "internalType": "address",
          "name": "newOwner",
          "type": "address"
        }
      ],
      "name": "transferOwnership",
      "outputs": [],
      "stateMutability": "nonpayable",
      "type": "function"
    },
    {
      "inputs": [],
      "name": "underlying",
      "outputs": [
        {
          "internalType": "contract IERC20",
          "name": "",
          "type": "address"
        }
      ],
      "stateMutability": "view",
      "type": "function"
    },
    {
      "inputs": [],
      "name": "vault",
      "outputs": [
        {
          "internalType": "address",
          "name": "",
          "type": "address"
        }
      ],
      "stateMutability": "view",
      "type": "function"
    },
    {
      "inputs": [],
      "name": "version",
      "outputs": [
        {
          "internalType": "uint16",
          "name": "",
          "type": "uint16"
        }
      ],
      "stateMutability": "view",
      "type": "function"
    },
    {
      "stateMutability": "payable",
      "type": "receive"
    }
  ],
  "transactionHash": "0xdaccb03e3c8ed55b9509a8c33b37585862e6407a797b36148712de8afc6d2f26",
  "args": [
    [
      "0x04068da6c83afcfa0e13ba15a6696662335d5b75",
      "0x21be370d5312f44cb42ce377bc9b8a0cef1a4c83",
      "0xE45Ac34E528907d0A0239ab5Db507688070B20bf",
      "0x5AA53f03197E08C4851CAD8C92c7922DA5857E5d",
      "0xe7e90f5a767406eff87fdad7eb07ef407922ec1d",
      "0x9083ea3756bde6ee6f27a6e996806fbd37f6f093",
      "0x5Cc61A78F164885776AA610fb0FE1257df78E59B",
      4,
      "0x16327E3FbDaCA3bcF7E38F5Af2599D2DDc33aE52",
      "0x260E596DAbE3AFc463e75B6CC05d8c46aCAcFB09",
      "0xF491e7B69E4244ad4002BC14e878a34207E38c29",
      "0xe0654C8e6fd4D733349ac7E09f6f23DA256bF475",
      "9000",
      "0x3938411fd77A5458721aF6B080b51008394568ef",
      "USDCftmSPIRITscream",
      "USDC FTM SpiritSwap Scream",
      "115792089237316195423570985008687907853269984665640564039457584007913129639935"
    ]
  ],
  "numDeployments": 2,
  "solcInputHash": "dd1a76d8e988f1ae93f69636de95d55f",
  "bytecode": "0x60806040526046600a55670e92596fd6290000600b55600d805463ffffffff60a01b191661201960a41b1790553480156200003957600080fd5b5060405162005f8038038062005f808339810160408190526200005c9162000ddc565b6101a08101516101c08201516101e083015162000079336200014f565b60018055600480546001600160a01b0319166001600160a01b0385161790558151620000ad90600790602085019062000c01565b508051620000c390600690602084019062000c01565b505050608082015160a083015161010084015160c085015160e0860151620000ec95506200019f565b62000112816101200151826040015183606001518461018001516200022460201b60201c565b6200012e816101400151826101600151620002f660201b60201c565b80516020820151610200830151620001489291906200036b565b5062001314565b600080546001600160a01b038381166001600160a01b0319831681178455604051919092169283917f8be0079c531659141344cd1fd0a4f28419497f9722a3daafe3b4186f6b6457e09190a35050565b60025460ff1615620001ce5760405162461bcd60e51b8152600401620001c59062000f89565b60405180910390fd5b601780546001600160a01b03199081166001600160a01b03968716179091556018805482169486169490941790935560198054841692851692909217909155601a80549092169390921692909217909155601b55565b601080546001600160a01b038086166001600160a01b03199283161790925560118054858416908316179055601280549287169290911682179055604080516307dc0d1d60e41b81529051637dc0d1d0916004808201926020929091908290030181865afa1580156200029b573d6000803e3d6000fd5b505050506040513d601f19601f82011682018060405250810190620002c1919062000fae565b601380546001600160a01b0319166001600160a01b03929092169190911790556014819055620002f0620004e3565b50505050565b60025460ff16156200031c5760405162461bcd60e51b8152600401620001c59062000f89565b601680546001600160a01b03199081166001600160a01b03848116918217909355601580549092169285169283179091556200036791600019620005df602090811b620018ed17901c565b5050565b60025460ff1615620003915760405162461bcd60e51b8152600401620001c59062000f89565b600c80546001600160a01b038086166001600160a01b03199283168117909355600d805491861691909216179055620003dd9030600019620018ed620005df602090811b91909117901c565b620003e76200072f565b620003f490600a620010e1565b6009556200040281620007a5565b7f5ceaf8b7b0d35f85ef4df565057cd318e70d9f8681f89425a2d5e09c1c70a7f9600b546040516200043691815260200190565b60405180910390a17f3e87fa3180c1babd204ce79375729d7a6694a2d2f0fb3e250f9138488ed066bb600a546040516200047291815260200190565b60405180910390a1600d54604051600160a01b90910461ffff1681527f36c98a54ec4f90fe58a67bf25cfc1691dbd53639eee3513536d83e8d34fb0a9b9060200160405180910390a1620004c56200084d565b620004cf620008bb565b50506002805461ff00191661010017905550565b6040805160028082526060820183526000926020830190803683375050601054919250506001600160a01b031681600081518110620005265762000526620010f2565b6001600160a01b0392831660209182029290920101526011541681600181518110620005565762000556620010f2565b6001600160a01b039283166020918202929092010152601254604051631853304760e31b815291169063c2998238906200059590849060040162001108565b6000604051808303816000875af1158015620005b5573d6000803e3d6000fd5b505050506040513d6000823e601f3d908101601f1916820160405262000367919081019062001157565b8015806200065e5750604051636eb1769f60e11b81526001600160a01b0384169063dd62ed3e9062000618903090869060040162001207565b602060405180830381865afa15801562000636573d6000803e3d6000fd5b505050506040513d601f19601f820116820180604052508101906200065c919062001221565b155b620006d25760405162461bcd60e51b815260206004820152603660248201527f5361666545524332303a20617070726f76652066726f6d206e6f6e2d7a65726f60448201527f20746f206e6f6e2d7a65726f20616c6c6f77616e6365000000000000000000006064820152608401620001c5565b604080516001600160a01b038416602482015260448082018490528251808303909101815260649091019091526020810180516001600160e01b0390811663095ea7b360e01b179091526200072a9185916200099716565b505050565b600c546040805163313ce56760e01b815290516000926001600160a01b03169163313ce5679160048083019260209291908290030181865afa1580156200077a573d6000803e3d6000fd5b505050506040513d601f19601f82011682018060405250810190620007a091906200123b565b905090565b6000546001600160a01b0316331480620007d357503360009081526008602052604090205460ff1615156001145b620008125760405162461bcd60e51b815260206004820152600e60248201526d0a6e8e4c2e874409c9ebe82aaa8960931b6044820152606401620001c5565b600e8190556040518181527f13d3e08a22782064d3062f92ff1101a623b60e3bf91f236b5d1e9fdddfc12a129060200160405180910390a150565b60105462000892906001600160a01b031660001962000874600c546001600160a01b031690565b6001600160a01b0316620005df60201b620018ed179092919060201c565b601154620008b9906001600160a01b031660001962000874600d546001600160a01b031690565b565b601754601a54620008e8916001600160a01b039182169116600019620005df602090811b620018ed17901c565b601954601854604051636eb1769f60e11b81526001600160a01b039283169263dd62ed3e92620009219230929091169060040162001207565b602060405180830381865afa1580156200093f573d6000803e3d6000fd5b505050506040513d601f19601f8201168201806040525081019062000965919062001221565b620008b957601854601954620008b9916001600160a01b039182169116600019620005df602090811b620018ed17901c565b6000620009f3826040518060400160405280602081526020017f5361666545524332303a206c6f772d6c6576656c2063616c6c206661696c6564815250856001600160a01b031662000a7560201b62001a2d179092919060201c565b8051909150156200072a578080602001905181019062000a14919062001260565b6200072a5760405162461bcd60e51b815260206004820152602a60248201527f5361666545524332303a204552433230206f7065726174696f6e20646964206e6044820152691bdd081cdd58d8d9595960b21b6064820152608401620001c5565b606062000a86848460008562000a90565b90505b9392505050565b60608247101562000af35760405162461bcd60e51b815260206004820152602660248201527f416464726573733a20696e73756666696369656e742062616c616e636520666f6044820152651c8818d85b1b60d21b6064820152608401620001c5565b843b62000b435760405162461bcd60e51b815260206004820152601d60248201527f416464726573733a2063616c6c20746f206e6f6e2d636f6e74726163740000006044820152606401620001c5565b600080866001600160a01b0316858760405162000b61919062001284565b60006040518083038185875af1925050503d806000811462000ba0576040519150601f19603f3d011682016040523d82523d6000602084013e62000ba5565b606091505b50909250905062000bb882828662000bc3565b979650505050505050565b6060831562000bd457508162000a89565b82511562000be55782518084602001fd5b8160405162461bcd60e51b8152600401620001c59190620012a2565b82805462000c0f90620012d7565b90600052602060002090601f01602090048101928262000c33576000855562000c7e565b82601f1062000c4e57805160ff191683800117855562000c7e565b8280016001018555821562000c7e579182015b8281111562000c7e57825182559160200191906001019062000c61565b5062000c8c92915062000c90565b5090565b5b8082111562000c8c576000815560010162000c91565b634e487b7160e01b600052604160045260246000fd5b60405161022081016001600160401b038111828210171562000ce35762000ce362000ca7565b60405290565b604051601f8201601f191681016001600160401b038111828210171562000d145762000d1462000ca7565b604052919050565b80516001600160a01b038116811462000d3457600080fd5b919050565b60005b8381101562000d5657818101518382015260200162000d3c565b83811115620002f05750506000910152565b600082601f83011262000d7a57600080fd5b81516001600160401b0381111562000d965762000d9662000ca7565b62000dab601f8201601f191660200162000ce9565b81815284602083860101111562000dc157600080fd5b62000dd482602083016020870162000d39565b949350505050565b60006020828403121562000def57600080fd5b81516001600160401b038082111562000e0757600080fd5b90830190610220828603121562000e1d57600080fd5b62000e2762000cbd565b62000e328362000d1c565b815262000e426020840162000d1c565b602082015262000e556040840162000d1c565b604082015262000e686060840162000d1c565b606082015262000e7b6080840162000d1c565b608082015262000e8e60a0840162000d1c565b60a082015262000ea160c0840162000d1c565b60c082015260e083015160e082015261010062000ec081850162000d1c565b9082015261012062000ed484820162000d1c565b9082015261014062000ee884820162000d1c565b9082015261016062000efc84820162000d1c565b9082015261018083810151908201526101a062000f1b81850162000d1c565b908201526101c0838101518381111562000f3457600080fd5b62000f428882870162000d68565b8284015250506101e0808401518381111562000f5d57600080fd5b62000f6b8882870162000d68565b91830191909152506102009283015192810192909252509392505050565b6020808252600b908201526a125392551250531256915160aa1b604082015260600190565b60006020828403121562000fc157600080fd5b62000a898262000d1c565b634e487b7160e01b600052601160045260246000fd5b600181815b808511156200102357816000190482111562001007576200100762000fcc565b808516156200101557918102915b93841c939080029062000fe7565b509250929050565b6000826200103c57506001620010db565b816200104b57506000620010db565b81600181146200106457600281146200106f576200108f565b6001915050620010db565b60ff84111562001083576200108362000fcc565b50506001821b620010db565b5060208310610133831016604e8410600b8410161715620010b4575081810a620010db565b620010c0838362000fe2565b8060001904821115620010d757620010d762000fcc565b0290505b92915050565b600062000a8960ff8416836200102b565b634e487b7160e01b600052603260045260246000fd5b6020808252825182820181905260009190848201906040850190845b818110156200114b5783516001600160a01b03168352928401929184019160010162001124565b50909695505050505050565b600060208083850312156200116b57600080fd5b82516001600160401b03808211156200118357600080fd5b818501915085601f8301126200119857600080fd5b815181811115620011ad57620011ad62000ca7565b8060051b9150620011c084830162000ce9565b8181529183018401918481019088841115620011db57600080fd5b938501935b83851015620011fb57845182529385019390850190620011e0565b98975050505050505050565b6001600160a01b0392831681529116602082015260400190565b6000602082840312156200123457600080fd5b5051919050565b6000602082840312156200124e57600080fd5b815160ff8116811462000a8957600080fd5b6000602082840312156200127357600080fd5b8151801515811462000a8957600080fd5b600082516200129881846020870162000d39565b9190910192915050565b6020815260008251806020840152620012c381604085016020870162000d39565b601f01601f19169190910160400192915050565b600181811c90821680620012ec57607f821691505b602082108114156200130e57634e487b7160e01b600052602260045260246000fd5b50919050565b614c5c80620013246000396000f3fe6080604052600436106102325760003560e01c806306fdde031461023e5780630c021ae5146102695780630d55046c1461028c5780630e962f00146102b35780631585e0b6146102c957806318160ddd146102eb578063313ce56714610300578063358d6a041461032757806338bea4cb1461033c5780633af9e669146103515780633bf295cc146103715780633d68175c146103865780633dcf13421461039b5780633dfe9f6a146103bb5780634880f951146103f057806354fd4d50146104055780635fe3b567146104275780636817031b1461043c5780636f307dc31461045c578063711326ce14610471578063715018a6146104915780637d7c2a1c146104a65780637da64483146104bb5780637dc0d1d0146104e55780637ffe28e3146104fa578063852a12e31461050f57806386aceac71461052f5780638da5cb5b1461054557806395d89b411461055a57806397b3fcaa1461056f578063a0712d68146105b1578063a52602b9146105d1578063a5e90eee146105e6578063a8aa1b3114610606578063ac784ddc1461061b578063b580a1281461062f578063c393d0e314610644578063cb50087f14610659578063cd377c5314610679578063d539fe4b1461068e578063de747e5a146106a3578063f1a392da146106c3578063f20aea0f146106d9578063f2fde38b14610707578063f3ae241514610727578063f9e40ac414610760578063fbfa77cf14610783578063fd6bac7014610798578063fec18b3a146107ad57600080fd5b3661023957005b600080fd5b34801561024a57600080fd5b506102536107cb565b60405161026091906143ed565b60405180910390f35b34801561027557600080fd5b5061027e610859565b604051908152602001610260565b34801561029857600080fd5b506018546001600160a01b03165b6040516102609190614400565b3480156102bf57600080fd5b5061027e60095481565b3480156102d557600080fd5b506102e96102e4366004614414565b61086e565b005b3480156102f757600080fd5b5060055461027e565b34801561030c57600080fd5b506103156108e8565b60405160ff9091168152602001610260565b34801561033357600080fd5b5061027e61095b565b34801561034857600080fd5b506102a6610980565b34801561035d57600080fd5b5061027e61036c366004614442565b61098f565b34801561037d57600080fd5b5061027e6109a0565b34801561039257600080fd5b5061027e610a09565b3480156103a757600080fd5b506102e96103b63660046144a3565b610a4a565b3480156103c757600080fd5b50600d546103dd90600160a01b900461ffff1681565b60405161ffff9091168152602001610260565b3480156103fc57600080fd5b50600f5461027e565b34801561041157600080fd5b50600d546103dd90600160b01b900461ffff1681565b34801561043357600080fd5b506102a6610bb1565b34801561044857600080fd5b506102e9610457366004614442565b610bc0565b34801561046857600080fd5b506102a6610c39565b34801561047d57600080fd5b506102e961048c366004614414565b610c48565b34801561049d57600080fd5b506102e9610cac565b3480156104b257600080fd5b506102e9610ce7565b3480156104c757600080fd5b506002546104d59060ff1681565b6040519015158152602001610260565b3480156104f157600080fd5b506102a6610eea565b34801561050657600080fd5b506102e9610ef9565b34801561051b57600080fd5b5061027e61052a366004614414565b61101d565b34801561053b57600080fd5b5061027e600b5481565b34801561055157600080fd5b506102a6611084565b34801561056657600080fd5b50610253611093565b34801561057b57600080fd5b506105846110a0565b604080519687526020870195909552938501929092526060840152608083015260a082015260c001610260565b3480156105bd57600080fd5b5061027e6105cc366004614414565b611229565b3480156105dd57600080fd5b506102a6611282565b3480156105f257600080fd5b506102e9610601366004614505565b611291565b34801561061257600080fd5b506102a661131f565b34801561062757600080fd5b5060006104d5565b34801561063b57600080fd5b5061027e61132e565b34801561065057600080fd5b506102e9611431565b34801561066557600080fd5b506102e9610674366004614414565b61151b565b34801561068557600080fd5b5061027e6115a7565b34801561069a57600080fd5b5060145461027e565b3480156106af57600080fd5b506102e96106be36600461453e565b6115d7565b3480156106cf57600080fd5b5061027e60035481565b3480156106e557600080fd5b506106f96106f4366004614562565b611656565b604051610260929190614608565b34801561071357600080fd5b506102e9610722366004614442565b6117f8565b34801561073357600080fd5b506104d5610742366004614442565b6001600160a01b031660009081526008602052604090205460ff1690565b34801561076c57600080fd5b50610775611898565b604051610260929190614636565b34801561078f57600080fd5b506102a66118cf565b3480156107a457600080fd5b506102a66118de565b3480156107b957600080fd5b506015546001600160a01b03166102a6565b600680546107d890614644565b80601f016020809104026020016040519081016040528092919081815260200182805461080490614644565b80156108515780601f1061082657610100808354040283529160200191610851565b820191906000526020600020905b81548152906001019060200180831161083457829003601f168201915b505050505081565b60006108636110a0565b509395945050505050565b33610877611084565b6001600160a01b0316146108a65760405162461bcd60e51b815260040161089d90614679565b60405180910390fd5b600b8190556040518181527f5ceaf8b7b0d35f85ef4df565057cd318e70d9f8681f89425a2d5e09c1c70a7f9906020015b60405180910390a150565b60055490565b600c546040805163313ce56760e01b815290516000926001600160a01b03169163313ce5679160048083019260209291908290030181865afa158015610932573d6000803e3d6000fd5b505050506040513d601f19601f8201168201806040525081019061095691906146ae565b905090565b6000610956600e5461097b610976610971611a46565b611ab1565b611bbd565b611beb565b600d546001600160a01b031690565b600061099a600f5490565b92915050565b6000806109ae610971611c01565b905060006109ba611c53565b905060006109c6611d48565b6109d884670de0b6b3a76400006146e7565b6109e29190614706565b9050806109f783670de0b6b3a76400006146e7565b610a019190614706565b935050505090565b600080610a15600f5490565b905060055460001415610a2a57505060095490565b600554600954610a3a90836146e7565b610a449190614706565b91505090565b610a526118cf565b6001600160a01b0316336001600160a01b031614610a825760405162461bcd60e51b815260040161089d90614728565b60005b81811015610b58576000838383818110610aa157610aa1614753565b9050602002016020810190610ab69190614442565b90506000816001600160a01b03166370a08231306040518263ffffffff1660e01b8152600401610ae69190614400565b602060405180830381865afa158015610b03573d6000803e3d6000fd5b505050506040513d601f19601f82011682018060405250810190610b279190614769565b90508015610b4357610b436001600160a01b0383168783611dce565b50508080610b5090614782565b915050610a85565b504715610b6957610b693347611ded565b826001600160a01b03167f2b06144d62a3a5785ec284ed392b3d106610ae2ce7af270417c4ca38277571048383604051610ba492919061479d565b60405180910390a2505050565b6012546001600160a01b031690565b33610bc9611084565b6001600160a01b031614610bef5760405162461bcd60e51b815260040161089d90614679565b600480546001600160a01b0319166001600160a01b0383169081179091556040517fdabed91cf547ed2ee836d5787bae42fc3bca488166c65791051105490fbcf7ca90600090a250565b600c546001600160a01b031690565b33610c51611084565b6001600160a01b031614610c775760405162461bcd60e51b815260040161089d90614679565b600a8190556040518181527f3e87fa3180c1babd204ce79375729d7a6694a2d2f0fb3e250f9138488ed066bb906020016108d7565b33610cb5611084565b6001600160a01b031614610cdb5760405162461bcd60e51b815260040161089d90614679565b610ce56000611e3e565b565b610cef611084565b6001600160a01b0316336001600160a01b03161480610d2257503360009081526008602052604090205460ff1615156001145b610d3e5760405162461bcd60e51b815260040161089d906147eb565b6000610d51670de0b6b3a7640000611e8e565b90506000610d66670de0b6b3a7640000611ab1565b9050818111610d76578082610d79565b81815b600a54919350915081612710610d8f8583614813565b610d9991906146e7565b610da39190614706565b10610dc05760405162461bcd60e51b815260040161089d9061482a565b60026001541415610de35760405162461bcd60e51b815260040161089d90614857565b60026001556000610df2611ec1565b90506000610dfe61132e565b600d54909150600160a01b900461ffff168111610e4f5760405162461bcd60e51b815260206004820152600f60248201526e09098a07440a48a845aa890a48aa69608b1b604482015260640161089d565b81610e5b575050610ecf565b6000610e66836120ae565b9050610e7b81610e768186614813565b6120d1565b7fe0b4077da7dfa5015ff10fab6a214f37acc1b23d745f30336942d17e07848c6b610ead670de0b6b3a7640000611e8e565b6040805191825260208201859052810185905260600160405180910390a15050505b60018055610edb6110a0565b505050600f9290925550505050565b6013546001600160a01b031690565b60026001541415610f1c5760405162461bcd60e51b815260040161089d90614857565b60026001556000610f2b6109a0565b9050600b54811115610f6b5760405162461bcd60e51b8152602060048201526009602482015268484c503a205341464560b81b604482015260640161089d565b6000610f756121fc565b5090506000600b54612710838561251c610f8f91906146e7565b610f9991906146e7565b610fa39190614706565b610fad9190614706565b9050600080610fbb836122bd565b91509150610fc8816123cb565b610fd182612447565b337fdacd0a02d11128b25d6c3de23e91f71aa9dd5620c6f5c69f35a18d15e116846886610ffc6109a0565b60405161100a929190614636565b60405180910390a2505060018055505050565b60006110276118cf565b6001600160a01b0316336001600160a01b0316146110575760405162461bcd60e51b815260040161089d90614728565b60006110628361247c565b905080600560008282546110769190614813565b909155506000949350505050565b6000546001600160a01b031690565b600780546107d890614644565b6000806000806000806110b1611c53565b94506110bb611c01565b93506110c684611e8e565b600d546040516370a0823160e01b81529194506000916001600160a01b03909116906370a08231906110fc903090600401614400565b602060405180830381865afa158015611119573d6000803e3d6000fd5b505050506040513d601f19601f8201168201806040525081019061113d9190614769565b9050600081156111555761115082611ab1565b611158565b60005b90506000806111656121fc565b9150915061117281611e8e565b61117c908361488e565b600c546040516370a0823160e01b81529197506001600160a01b0316906370a08231906111ad903090600401614400565b602060405180830381865afa1580156111ca573d6000803e3d6000fd5b505050506040513d601f19601f820116820180604052508101906111ee9190614769565b94508285886111fd898d61488e565b6112079190614813565b611211919061488e565b61121b919061488e565b995050505050909192939495565b60006112336118cf565b6001600160a01b0316336001600160a01b0316146112635760405162461bcd60e51b815260040161089d90614728565b600061126e83612703565b90508060056000828254611076919061488e565b6010546001600160a01b031690565b3361129a611084565b6001600160a01b0316146112c05760405162461bcd60e51b815260040161089d90614679565b6001600160a01b038216600081815260086020908152604091829020805460ff191685151590811790915591519182527f2458f684567d238b66deaa0126265bf3becabda0caaab7ebdda6b1794614a2d3910160405180910390a25050565b601a546001600160a01b031690565b6000806113396121fc565b9150506000611346611c01565b600d546040516370a0823160e01b81529192506000916001600160a01b03909116906370a082319061137c903090600401614400565b602060405180830381865afa158015611399573d6000803e3d6000fd5b505050506040513d601f19601f820116820180604052508101906113bd9190614769565b6113c7908461488e565b9050818114156113db576000935050505090565b816113eb57612710935050505090565b81811161141957816127106114008383614813565b61140a91906146e7565b6114149190614706565b610a01565b816127106114278284614813565b6109f791906146e7565b611439611084565b6001600160a01b0316336001600160a01b0316148061146c57503360009081526008602052604090205460ff1615156001145b6114885760405162461bcd60e51b815260040161089d906147eb565b600061149b670de0b6b3a7640000611e8e565b905060006114b0670de0b6b3a7640000611ab1565b90508181116114c05780826114c3565b81815b600a549193509150816127106114d98583614813565b6114e391906146e7565b6114ed9190614706565b1061150a5760405162461bcd60e51b815260040161089d9061482a565b611512612919565b50610edb6110a0565b611523611084565b6001600160a01b0316336001600160a01b0316148061155657503360009081526008602052604090205460ff1615156001145b6115725760405162461bcd60e51b815260040161089d906147eb565b600e8190556040518181527f13d3e08a22782064d3062f92ff1101a623b60e3bf91f236b5d1e9fdddfc12a12906020016108d7565b6000670de0b6b3a76400006115bb60145490565b6115c3611d48565b6115cd91906146e7565b6109569190614706565b336115e0611084565b6001600160a01b0316146116065760405162461bcd60e51b815260040161089d90614679565b600d805461ffff60a01b1916600160a01b61ffff8416908102919091179091556040519081527f36c98a54ec4f90fe58a67bf25cfc1691dbd53639eee3513536d83e8d34fb0a9b906020016108d7565b606080611661611084565b6001600160a01b0316336001600160a01b0316148061169457503360009081526008602052604090205460ff1615156001145b6116b05760405162461bcd60e51b815260040161089d906147eb565b60006116c3670de0b6b3a7640000611e8e565b905060006116d8670de0b6b3a7640000611ab1565b90508181116116e85780826116eb565b81815b600a549193509150816127106117018583614813565b61170b91906146e7565b6117159190614706565b106117325760405162461bcd60e51b815260040161089d9061482a565b600260015414156117555760405162461bcd60e51b815260040161089d90614857565b600260015560006117646110a0565b50939450508a1592506117819150505761177e8989612b32565b94505b8515611794576117918787612d3f565b93505b61179f600019612fec565b6040518181527f80f97f878e16410266694f134ddf012f2be424f54f8b5cafa107eccc51d00d589060200160405180910390a150600180556117df6110a0565b505050600f929092555093989297509195505050505050565b33611801611084565b6001600160a01b0316146118275760405162461bcd60e51b815260040161089d90614679565b6001600160a01b03811661188c5760405162461bcd60e51b815260206004820152602660248201527f4f776e61626c653a206e6577206f776e657220697320746865207a65726f206160448201526564647265737360d01b606482015260840161089d565b61189581611e3e565b50565b6000806118c66118a6610c39565b6118ae610980565b6118b661131f565b6001600160a01b031691906131ed565b90939092509050565b6004546001600160a01b031690565b6011546001600160a01b031690565b8015806119675750604051636eb1769f60e11b81523060048201526001600160a01b03838116602483015284169063dd62ed3e90604401602060405180830381865afa158015611941573d6000803e3d6000fd5b505050506040513d601f19601f820116820180604052508101906119659190614769565b155b6119d25760405162461bcd60e51b815260206004820152603660248201527f5361666545524332303a20617070726f76652066726f6d206e6f6e2d7a65726f60448201527520746f206e6f6e2d7a65726f20616c6c6f77616e636560501b606482015260840161089d565b611a288363095ea7b360e01b84846040516024016119f19291906148a6565b60408051601f198184030181529190526020810180516001600160e01b03166001600160e01b0319909316929092179091526132ad565b505050565b6060611a3c848460008561337f565b90505b9392505050565b6000611a506118de565b6001600160a01b0316633b1d21a26040518163ffffffff1660e01b8152600401602060405180830381865afa158015611a8d573d6000803e3d6000fd5b505050506040513d601f19601f820116820180604052508101906109569190614769565b6000611abb610eea565b6001600160a01b031663fc57d4df611ad1611282565b6040518263ffffffff1660e01b8152600401611aed9190614400565b602060405180830381865afa158015611b0a573d6000803e3d6000fd5b505050506040513d601f19601f82011682018060405250810190611b2e9190614769565b611b36610eea565b6001600160a01b031663fc57d4df611b4c6118de565b6040518263ffffffff1660e01b8152600401611b689190614400565b602060405180830381865afa158015611b85573d6000803e3d6000fd5b505050506040513d601f19601f82011682018060405250810190611ba99190614769565b611bb390846146e7565b61099a9190614706565b600080611bc86115a7565b905080611bd78161271061488e565b611be190856146e7565b611a3f9190614706565b6000818310611bfa5781611a3f565b5090919050565b6000611c0b6118de565b6001600160a01b03166395dd9193306040518263ffffffff1660e01b8152600401611c369190614400565b602060405180830381865afa158015611a8d573d6000803e3d6000fd5b600080611c5e611282565b6001600160a01b03166370a08231306040518263ffffffff1660e01b8152600401611c899190614400565b602060405180830381865afa158015611ca6573d6000803e3d6000fd5b505050506040513d601f19601f82011682018060405250810190611cca9190614769565b9050670de0b6b3a7640000611cdd611282565b6001600160a01b031663182df0f56040518163ffffffff1660e01b8152600401602060405180830381865afa158015611d1a573d6000803e3d6000fd5b505050506040513d601f19601f82011682018060405250810190611d3e9190614769565b610a3a90836146e7565b600080611d53610bb1565b6001600160a01b0316638e8f294b611d69611282565b6040518263ffffffff1660e01b8152600401611d859190614400565b606060405180830381865afa158015611da2573d6000803e3d6000fd5b505050506040513d601f19601f82011682018060405250810190611dc691906148bf565b509392505050565b611a288363a9059cbb60e01b84846040516024016119f19291906148a6565b600080600080600085875af1905080611a285760405162461bcd60e51b815260206004820152601360248201527211551217d514905394d1915497d19052531151606a1b604482015260640161089d565b600080546001600160a01b038381166001600160a01b0319831681178455604051919092169283917f8be0079c531659141344cd1fd0a4f28419497f9722a3daafe3b4186f6b6457e09190a35050565b60008115611eb957600d54600c54611eb49184916001600160a01b0391821691166134a7565b61099a565b600092915050565b600080611ecc6134df565b90506000611ed8613533565b90506000611ee582611ab1565b600d546040516370a0823160e01b81529192506000916001600160a01b03909116906370a0823190611f1b903090600401614400565b602060405180830381865afa158015611f38573d6000803e3d6000fd5b505050506040513d601f19601f82011682018060405250810190611f5c9190614769565b905060008115611fe357600d546040516370a0823160e01b8152611fde916001600160a01b0316906370a0823190611f98903090600401614400565b602060405180830381865afa158015611fb5573d6000803e3d6000fd5b505050506040513d601f19601f82011682018060405250810190611fd99190614769565b611e8e565b611fe6565b60005b90506000611ff26121fc565b50600c546040516370a0823160e01b81529192506000916001600160a01b03909116906370a0823190612029903090600401614400565b602060405180830381865afa158015612046573d6000803e3d6000fd5b505050506040513d601f19601f8201168201806040525081019061206a9190614769565b905082818661207a8560026146e7565b612084908b61488e565b61208e9190614813565b612098919061488e565b6120a2919061488e565b97505050505050505090565b6000806120b96115a7565b90506120c78161271061488e565b611be182856146e7565b60006120dc83613568565b905060006120e8611c01565b9050808211156121395761211460006121018686613603565b1161210c57846122bd565b60005b6122bd565b505061211f83613677565b50612134905061212f8284614813565b6136d9565b6121ed565b808210156121ed5761214b60006122bd565b5050600d546040516370a0823160e01b81526000916121cf916001600160a01b03909116906370a0823190612184903090600401614400565b602060405180830381865afa1580156121a1573d6000803e3d6000fd5b505050506040513d601f19601f820116820180604052508101906121c59190614769565b61097b8585614813565b905080156121e0576121e0816123cb565b6121e984613677565b5050505b6121f682612fec565b50505050565b6000806000612209613716565b9050600080612216611898565b91509150600061222461131f565b6001600160a01b03166318160ddd6040518163ffffffff1660e01b8152600401602060405180830381865afa158015612261573d6000803e3d6000fd5b505050506040513d601f19601f820116820180604052508101906122859190614769565b90508061229285856146e7565b61229c9190614706565b9550806122a985846146e7565b6122b39190614706565b9450505050509091565b60008060006122ca6121fc565b5090508084106122e05750600093849350915050565b60006122ea613716565b90506000826122f987846146e7565b6123039190614706565b905060006123118284614813565b9050600061231d61131f565b6001600160a01b03166370a08231306040518263ffffffff1660e01b81526004016123489190614400565b602060405180830381865afa158015612365573d6000803e3d6000fd5b505050506040513d601f19601f820116820180604052508101906123899190614769565b9050808211156123a5576123a56123a08284614813565b6137ab565b81156123b9576123b482613813565b6123bd565b6000805b965096505050505050915091565b6123d36118de565b6001600160a01b0316630e752702826040518263ffffffff1660e01b815260040161240091815260200190565b6020604051808303816000875af115801561241f573d6000803e3d6000fd5b505050506040513d601f19601f820116820180604052508101906124439190614769565b5050565b61244f611282565b6001600160a01b031663a0712d68826040518263ffffffff1660e01b815260040161240091815260200190565b600080612490670de0b6b3a7640000611e8e565b905060006124a5670de0b6b3a7640000611ab1565b90508181116124b55780826124b8565b81815b600a549193509150816127106124ce8583614813565b6124d891906146e7565b6124e29190614706565b106124ff5760405162461bcd60e51b815260040161089d9061482a565b600260015414156125225760405162461bcd60e51b815260040161089d90614857565b60026001558361253557600092506126e4565b600061253f611ec1565b9050806125505760009350506126e4565b600c546040516370a0823160e01b81526000916001600160a01b0316906370a0823190612581903090600401614400565b602060405180830381865afa15801561259e573d6000803e3d6000fd5b505050506040513d601f19601f820116820180604052508101906125c29190614769565b90508581101561263f57600060001987146125f9576125f4836103e86125ea8a6103ed6146e7565b61097b9190614706565b6125fb565b825b90508281101561262757816126186126138284614813565b613909565b612622919061488e565b61262f565b61262f612919565b905061263b8188611beb565b9650505b6126476110a0565b50939550612686935085925061265f91506108e29050565b61266a89600161488e565b61267491906146e7565b61267e9190614706565b600554611beb565b94506126a8306126946118cf565b600c546001600160a01b0316919089613999565b7f884edad9ce6fa2440d8a54cc123490eb96d2768479d49ff9c7366125a942436433876040516126d99291906148a6565b60405180910390a150505b600180556126f06110a0565b505050600f929092555092949350505050565b600080612717670de0b6b3a7640000611e8e565b9050600061272c670de0b6b3a7640000611ab1565b905081811161273c57808261273f565b81815b600a549193509150816127106127558583614813565b61275f91906146e7565b6127699190614706565b106127865760405162461bcd60e51b815260040161089d9061482a565b600260015414156127a95760405162461bcd60e51b815260040161089d90614857565b6002600155836127bc57600092506126e4565b60006127c6611ec1565b90506127d061095b565b6127da828761488e565b111561281c5760405162461bcd60e51b81526020600482015260116024820152701213140e8813d5915497d3505617d51593607a1b604482015260640161089d565b6005541561284857808561282f60055490565b61283991906146e7565b6128439190614706565b61284a565b845b600c549094506001600160a01b03166323b872dd6128666118cf565b30886040518463ffffffff1660e01b815260040161288693929190614902565b6020604051808303816000875af11580156128a5573d6000803e3d6000fd5b505050506040513d601f19601f820116820180604052508101906128c99190614926565b506128d3856139ba565b7fe1fffcc4923d04b559f4d29a8bfc6cda04eb5b0d3c460751c2402c5c5cc9109c33866040516129049291906148a6565b60405180910390a150600180556126f06110a0565b600061292560006122bd565b50506000612931613533565b600d546040516370a0823160e01b81529192506000916001600160a01b03909116906370a0823190612967903090600401614400565b602060405180830381865afa158015612984573d6000803e3d6000fd5b505050506040513d601f19601f820116820180604052508101906129a89190614769565b9050808211156129f1576129eb6129bf8284614813565b600c54600d546001600160a01b0391821691166129da61131f565b6001600160a01b0316929190613a13565b50612a34565b81811115612a3457612a32612a068383614813565b600d54600c546001600160a01b039182169116612a2161131f565b6001600160a01b0316929190613af2565b505b600d546040516370a0823160e01b8152612aac916001600160a01b0316906370a0823190612a66903090600401614400565b602060405180830381865afa158015612a83573d6000803e3d6000fd5b505050506040513d601f19601f82011682018060405250810190612aa79190614769565b6123cb565b6000612ab66134df565b9050612ac181613b53565b600c546040516370a0823160e01b81526001600160a01b03909116906370a0823190612af1903090600401614400565b602060405180830381865afa158015612b0e573d6000803e3d6000fd5b505050506040513d601f19601f82011682018060405250810190610a019190614769565b601754601b54604051631c57762b60e31b81526060926001600160a01b03169163e2bbb15891612b689190600090600401614636565b600060405180830381600087803b158015612b8257600080fd5b505af1158015612b96573d6000803e3d6000fd5b5060019250612ba3915050565b604051908082528060200260200182016040528015612bcc578160200160208202803683370190505b506019546040516370a0823160e01b81529192506001600160a01b0316906370a0823190612bfe903090600401614400565b602060405180830381865afa158015612c1b573d6000803e3d6000fd5b505050506040513d601f19601f82011682018060405250810190612c3f9190614769565b81600081518110612c5257612c52614753565b60200260200101818152505080600081518110612c7157612c71614753565b602002602001015160001415612c865761099a565b601854612ce8906001600160a01b03168484600081612ca757612ca7614753565b9050602002810190612cb99190614959565b60195484516001600160a01b03909116908590600090612cdb57612cdb614753565b6020026020010151613bcd565b60195481516001600160a01b0390911690600080516020614c07833981519152908390600090612d1a57612d1a614753565b6020026020010151604051612d3191815260200190565b60405180910390a292915050565b60408051600280825260608083018452926000929190602083019080368337019050509050612d6c611282565b81600081518110612d7f57612d7f614753565b60200260200101906001600160a01b031690816001600160a01b031681525050612da76118de565b81600181518110612dba57612dba614753565b60200260200101906001600160a01b031690816001600160a01b031681525050612de2610bb1565b6001600160a01b0316631c3db2e030836040518363ffffffff1660e01b8152600401612e0f929190614979565b600060405180830381600087803b158015612e2957600080fd5b505af1158015612e3d573d6000803e3d6000fd5b5060019250612e4a915050565b604051908082528060200260200182016040528015612e73578160200160208202803683370190505b506016546040516370a0823160e01b81529193506001600160a01b0316906370a0823190612ea5903090600401614400565b602060405180830381865afa158015612ec2573d6000803e3d6000fd5b505050506040513d601f19601f82011682018060405250810190612ee69190614769565b82600081518110612ef957612ef9614753565b60200260200101818152505081600081518110612f1857612f18614753565b602002602001015160001415612f2e575061099a565b6015546001600160a01b031615612f9457601554612f94906001600160a01b03168585600081612f6057612f60614753565b9050602002810190612f729190614959565b60165485516001600160a01b03909116908690600090612cdb57612cdb614753565b60165482516001600160a01b0390911690600080516020614c07833981519152908490600090612fc657612fc6614753565b6020026020010151604051612fdd91815260200190565b60405180910390a25092915050565b600c546040516370a0823160e01b81526000916001600160a01b0316906370a082319061301d903090600401614400565b602060405180830381865afa15801561303a573d6000803e3d6000fd5b505050506040513d601f19601f8201168201806040525081019061305e9190614769565b600d546040516370a0823160e01b81529192506000916001600160a01b03909116906370a0823190613094903090600401614400565b602060405180830381865afa1580156130b1573d6000803e3d6000fd5b505050506040513d601f19601f820116820180604052508101906130d59190614769565b905060006130e16121fc565b915050808410156130f25750505050565b6000613120600261310286613d72565b61310c908661488e565b6131169190614706565b61097b8488614813565b9050600061312d82611e8e565b9050848110156131735761315f6131448287614813565b600c54600d546001600160a01b039182169116612a2161131f565b613169908561488e565b9350809450613198565b8184111561319857613188612a068386614813565b613192908661488e565b94508193505b8360006131a482611e8e565b9050808710156131bc5750856131b981613d72565b91505b806131cb575050505050505050565b60006131d78284613d98565b90506131e281613e38565b505050505050505050565b60008060006131fc8585613e6b565b509050600080876001600160a01b0316630902f1ac6040518163ffffffff1660e01b8152600401606060405180830381865afa158015613240573d6000803e3d6000fd5b505050506040513d601f19601f8201168201806040525081019061326491906149f1565b506001600160701b031691506001600160701b03169150826001600160a01b0316876001600160a01b03161461329b57808261329e565b81815b90999098509650505050505050565b6000613302826040518060400160405280602081526020017f5361666545524332303a206c6f772d6c6576656c2063616c6c206661696c6564815250856001600160a01b0316611a2d9092919063ffffffff16565b805190915015611a2857808060200190518101906133209190614926565b611a285760405162461bcd60e51b815260206004820152602a60248201527f5361666545524332303a204552433230206f7065726174696f6e20646964206e6044820152691bdd081cdd58d8d9595960b21b606482015260840161089d565b6060824710156133e05760405162461bcd60e51b815260206004820152602660248201527f416464726573733a20696e73756666696369656e742062616c616e636520666f6044820152651c8818d85b1b60d21b606482015260840161089d565b843b61342e5760405162461bcd60e51b815260206004820152601d60248201527f416464726573733a2063616c6c20746f206e6f6e2d636f6e7472616374000000604482015260640161089d565b600080866001600160a01b0316858760405161344a9190614a36565b60006040518083038185875af1925050503d8060008114613487576040519150601f19603f3d011682016040523d82523d6000602084013e61348c565b606091505b509150915061349c828286613f4e565b979650505050505050565b6000836134b657506000611a3f565b6000806134c685856118b661131f565b915091506134d5868383613f87565b9695505050505050565b60006134e9611282565b6001600160a01b0316633af9e669306040518263ffffffff1660e01b81526004016135149190614400565b6020604051808303816000875af1158015611a8d573d6000803e3d6000fd5b600061353d6118de565b6001600160a01b03166317bfdfbc306040518263ffffffff1660e01b81526004016135149190614400565b6000613572610eea565b6001600160a01b031663fc57d4df6135886118de565b6040518263ffffffff1660e01b81526004016135a49190614400565b602060405180830381865afa1580156135c1573d6000803e3d6000fd5b505050506040513d601f19601f820116820180604052508101906135e59190614769565b6135ed610eea565b6001600160a01b031663fc57d4df611b4c611282565b60008061360e611c53565b90508083101561362257600091505061099a565b600061362c6121fc565b509050600081861161363f576000613649565b6136498287614813565b905060006136578487614813565b905080821061366d57600094505050505061099a565b61349c8282614813565b6000806000613684611c53565b90508381141561369a5750600093849350915050565b8381116136ba576136b36136ae8286614813565b614049565b60006136ce565b60006136ce6136c98684614813565b6140e8565b909590945092505050565b6136e16118de565b6001600160a01b031663c5ebeaec826040518263ffffffff1660e01b815260040161240091815260200190565b505050505050565b600080613721614115565b601a546040516370a0823160e01b81529192506000916001600160a01b03909116906370a0823190613757903090600401614400565b602060405180830381865afa158015613774573d6000803e3d6000fd5b505050506040513d601f19601f820116820180604052508101906137989190614769565b90506137a4818361488e565b9250505090565b601754601b54604051630441a3e760e41b81526001600160a01b039092169163441a3e70916137de918590600401614636565b600060405180830381600087803b1580156137f857600080fd5b505af115801561380c573d6000803e3d6000fd5b5050505050565b60008061383a61382161131f565b8461382a61131f565b6001600160a01b03169190611dce565b6000613854613847610c39565b61384f610980565b613e6b565b50905060008061386261131f565b6001600160a01b03166389afcb44306040518263ffffffff1660e01b815260040161388d9190614400565b60408051808303816000875af11580156138ab573d6000803e3d6000fd5b505050506040513d601f19601f820116820180604052508101906138cf9190614a48565b915091506138db610c39565b6001600160a01b0316836001600160a01b0316146138fa5780826138fd565b81815b94509450505050915091565b600080613915836120ae565b905060006139216121fc565b509050600061392e611c01565b9050600061393b84613d72565b9050828410158061394c5750818110155b15613959576134d5612919565b60008061396961210f8787614813565b91509150613976816123cb565b6139836136c9838a614813565b61398d908361488e565b98975050505050505050565b6121f6846323b872dd60e01b8585856040516024016119f193929190614902565b6103e88110156139c75750565b60006139d2826120ae565b905060006139df82613d72565b90506139f36139ee8385614813565b612447565b6139fc816136d9565b6000613a088383613d98565b90506121f681613e38565b600080613a2286868686614197565b90506000613a308486613e6b565b509050600080826001600160a01b0316876001600160a01b031614613a5757876000613a5b565b6000885b9092509050613a746001600160a01b0388168a86611dce565b6040805160008152602081019182905263022c0d9f60e01b9091526001600160a01b038a169063022c0d9f90613ab39085908590309060248101614a6c565b600060405180830381600087803b158015613acd57600080fd5b505af1158015613ae1573d6000803e3d6000fd5b50959b9a5050505050505050505050565b600080613b018686868661425d565b90506000613b0f8486613e6b565b509050600080826001600160a01b0316876001600160a01b031614613b3657836000613b3a565b6000845b9092509050613a746001600160a01b0388168a8a611dce565b6000613b5d611282565b6001600160a01b031663852a12e3836040518263ffffffff1660e01b8152600401613b8a91815260200190565b6020604051808303816000875af1158015613ba9573d6000803e3d6000fd5b505050506040513d601f19601f82011682018060405250810190611a289190614769565b6000613bd98480614a99565b6001613be58780614a99565b613bf0929150614813565b818110613bff57613bff614753565b9050602002016020810190613c149190614442565b90506001600160a01b038316613c2a8580614a99565b6000818110613c3b57613c3b614753565b9050602002016020810190613c509190614442565b6001600160a01b0316148015613c7e5750613c69610980565b6001600160a01b0316816001600160a01b0316145b80613ca15750613c8c610c39565b6001600160a01b0316816001600160a01b0316145b613ce55760405162461bcd60e51b81526020600482015260156024820152740928cc2e4dac2c4d8ca7440aea49e9c8ebea082a89605b1b604482015260640161089d565b6001600160a01b0385166338ed1739836020870135613d048880614a99565b308a604001356040518763ffffffff1660e01b8152600401613d2b96959493929190614ae2565b6000604051808303816000875af1158015613d4a573d6000803e3d6000fd5b505050506040513d6000823e601f3d908101601f1916820160405261370e9190810190614b55565b60008115611eb957600c54600d54611eb49184916001600160a01b0391821691166134a7565b6000613dae613da561131f565b8461382a610c39565b613dc2613db961131f565b8361382a610980565b613dca61131f565b6001600160a01b0316636a627842306040518263ffffffff1660e01b8152600401613df59190614400565b6020604051808303816000875af1158015613e14573d6000803e3d6000fd5b505050506040513d601f19601f82011682018060405250810190611a3f9190614769565b601754601b54604051631c57762b60e31b81526001600160a01b039092169163e2bbb158916137de918590600401614636565b600080826001600160a01b0316846001600160a01b03161415613ed05760405162461bcd60e51b815260206004820152601d60248201527f556e695574696c733a204944454e544943414c5f414444524553534553000000604482015260640161089d565b826001600160a01b0316846001600160a01b031610613ef0578284613ef3565b83835b90925090506001600160a01b038216613f475760405162461bcd60e51b8152602060048201526016602482015275556e695574696c733a205a45524f5f4144445245535360501b604482015260640161089d565b9250929050565b60608315613f5d575081611a3f565b825115613f6d5782518084602001fd5b8160405162461bcd60e51b815260040161089d91906143ed565b6000808411613fd85760405162461bcd60e51b815260206004820152601d60248201527f556e695574696c733a20494e53554646494349454e545f414d4f554e54000000604482015260640161089d565b600083118015613fe85750600082115b6140345760405162461bcd60e51b815260206004820181905260248201527f556e695574696c733a20494e53554646494349454e545f4c4951554944495459604482015260640161089d565b8261403f83866146e7565b611a3c9190614706565b600080614054610c39565b6001600160a01b03166370a08231306040518263ffffffff1660e01b815260040161407f9190614400565b602060405180830381865afa15801561409c573d6000803e3d6000fd5b505050506040513d601f19601f820116820180604052508101906140c09190614769565b90508281116140cf57806140d1565b825b915081156140e2576140e282612447565b50919050565b6000806140f361431e565b90508281116141025780614104565b825b915081156140e2576140e282613b53565b601754601b546040516393f1a40b60e01b8152600481019190915230602482015260009182916001600160a01b03909116906393f1a40b906044016040805180830381865afa15801561416c573d6000803e3d6000fd5b505050506040513d601f19601f820116820180604052508101906141909190614a48565b5092915050565b60008084116141f45760405162461bcd60e51b8152602060048201526024808201527f556e695574696c733a20494e53554646494349454e545f4f55545055545f414d60448201526313d5539560e21b606482015260840161089d565b6000806142028786866131ed565b9092509050600061421387846146e7565b61421f906103e86146e7565b9050600061422d8884614813565b614239906103e56146e7565b90506142458183614706565b61425090600161488e565b9998505050505050505050565b60008084116142ba5760405162461bcd60e51b815260206004820152602360248201527f556e695574696c733a20494e53554646494349454e545f494e5055545f414d4f60448201526215539560ea1b606482015260840161089d565b6000806142c88786866131ed565b909250905060006142db876103e56146e7565b905060006142e983836146e7565b90506000826142fa866103e86146e7565b614304919061488e565b90506143108183614706565b9a9950505050505050505050565b600080614329611c53565b90506000614338610971611c01565b90506000605f614346611d48565b61435884670de0b6b3a76400006146e7565b6143639060646146e7565b61436d9190614706565b6143779190614706565b90508281111561438b576000935050505090565b610a018184614813565b60005b838110156143b0578181015183820152602001614398565b838111156121f65750506000910152565b600081518084526143d9816020860160208601614395565b601f01601f19169290920160200192915050565b602081526000611a3f60208301846143c1565b6001600160a01b0391909116815260200190565b60006020828403121561442657600080fd5b5035919050565b6001600160a01b038116811461189557600080fd5b60006020828403121561445457600080fd5b8135611a3f8161442d565b60008083601f84011261447157600080fd5b5081356001600160401b0381111561448857600080fd5b6020830191508360208260051b8501011115613f4757600080fd5b6000806000604084860312156144b857600080fd5b83356144c38161442d565b925060208401356001600160401b038111156144de57600080fd5b6144ea8682870161445f565b9497909650939450505050565b801515811461189557600080fd5b6000806040838503121561451857600080fd5b82356145238161442d565b91506020830135614533816144f7565b809150509250929050565b60006020828403121561455057600080fd5b813561ffff81168114611a3f57600080fd5b6000806000806040858703121561457857600080fd5b84356001600160401b038082111561458f57600080fd5b61459b8883890161445f565b909650945060208701359150808211156145b457600080fd5b506145c18782880161445f565b95989497509550505050565b600081518084526020808501945080840160005b838110156145fd578151875295820195908201906001016145e1565b509495945050505050565b60408152600061461b60408301856145cd565b828103602084015261462d81856145cd565b95945050505050565b918252602082015260400190565b600181811c9082168061465857607f821691505b602082108114156140e257634e487b7160e01b600052602260045260246000fd5b6020808252818101527f4f776e61626c653a2063616c6c6572206973206e6f7420746865206f776e6572604082015260600190565b6000602082840312156146c057600080fd5b815160ff81168114611a3f57600080fd5b634e487b7160e01b600052601160045260246000fd5b6000816000190483118215151615614701576147016146d1565b500290565b60008261472357634e487b7160e01b600052601260045260246000fd5b500490565b60208082526011908201527014dd1c985d0e8813d3931657d590555315607a1b604082015260600190565b634e487b7160e01b600052603260045260246000fd5b60006020828403121561477b57600080fd5b5051919050565b6000600019821415614796576147966146d1565b5060010190565b60208082528181018390526000908460408401835b868110156147e05782356147c58161442d565b6001600160a01b0316825291830191908301906001016147b2565b509695505050505050565b6020808252600e908201526d0a6e8e4c2e874409c9ebe82aaa8960931b604082015260600190565b600082821015614825576148256146d1565b500390565b60208082526013908201527209098a07440a0a492868abe9a92a69a82a8869606b1b604082015260600190565b6020808252601f908201527f5265656e7472616e637947756172643a207265656e7472616e742063616c6c00604082015260600190565b600082198211156148a1576148a16146d1565b500190565b6001600160a01b03929092168252602082015260400190565b6000806000606084860312156148d457600080fd5b83516148df816144f7565b6020850151604086015191945092506148f7816144f7565b809150509250925092565b6001600160a01b039384168152919092166020820152604081019190915260600190565b60006020828403121561493857600080fd5b8151611a3f816144f7565b634e487b7160e01b600052604160045260246000fd5b60008235605e1983360301811261496f57600080fd5b9190910192915050565b6001600160a01b038381168252604060208084018290528451918401829052600092858201929091906060860190855b818110156149c75785518516835294830194918301916001016149a9565b509098975050505050505050565b80516001600160701b03811681146149ec57600080fd5b919050565b600080600060608486031215614a0657600080fd5b614a0f846149d5565b9250614a1d602085016149d5565b9150604084015163ffffffff811681146148f757600080fd5b6000825161496f818460208701614395565b60008060408385031215614a5b57600080fd5b505080516020909101519092909150565b84815283602082015260018060a01b03831660408201526080606082015260006134d560808301846143c1565b6000808335601e19843603018112614ab057600080fd5b8301803591506001600160401b03821115614aca57600080fd5b6020019150600581901b3603821315613f4757600080fd5b868152602080820187905260a0604083018190528201859052600090869060c08401835b88811015614b34578335614b198161442d565b6001600160a01b031682529282019290820190600101614b06565b506001600160a01b0396909616606085015250505060800152949350505050565b60006020808385031215614b6857600080fd5b82516001600160401b0380821115614b7f57600080fd5b818501915085601f830112614b9357600080fd5b815181811115614ba557614ba5614943565b8060051b604051601f19603f83011681018181108582111715614bca57614bca614943565b604052918252848201925083810185019188831115614be857600080fd5b938501935b8285101561398d57845184529385019392850192614bed56fe3efad319b6afe1e0317f51df66abdc4d7a7c8b1cfda31f03440b4ad255af7245a264697066735822122069d7d3fe2318ff64927ca91855b15500381900f1fd2d0a3d3509dafb8e1ba61d64736f6c634300080a0033",
  "libraries": {
    "UniUtils": "0x5C6079193fA38868f51eac367E622DAda53cf17D"
  },
  "devdoc": {
    "kind": "dev",
    "methods": {
      "getMaxTvl()": {
        "returns": {
          "_0": "MaxTvl"
        }
      },
      "isCEther()": {
        "details": "Only present in Fuse cTokens, not Compound cTokens.",
        "returns": {
          "_0": "True if the strategy accepts ETH, false otherwise."
        }
      },
      "owner()": {
        "details": "Returns the address of the current owner."
      },
      "redeemUnderlying(uint256)": {
        "params": {
          "amount": "The amount of underlying tokens to withdraw."
        },
        "returns": {
          "errCode": "An error code, or 0 if the withdrawal was successful."
        }
      },
      "renounceOwnership()": {
        "details": "Leaves the contract without owner. It will not be possible to call `onlyOwner` functions anymore. Can only be called by the current owner. NOTE: Renouncing ownership will leave the contract without an owner, thereby removing any functionality that is only available to the owner."
      },
      "transferOwnership(address)": {
        "details": "Transfers ownership of the contract to a new account (`newOwner`). Can only be called by the current owner."
      }
    },
    "version": 1
  },
  "userdoc": {
    "kind": "user",
    "methods": {
      "emergencyWithdraw(address,address[])": {
        "notice": "Withdraws any ERC20 tokens back to recipient."
      },
      "getMaxTvl()": {
        "notice": "Returns max deposits a strategy can take."
      },
      "getPricePerShare()": {
        "notice": "Returns the share price of the strategy in `underlying` units, multiplied  by 1e18"
      },
      "isCEther()": {
        "notice": "Returns whether the strategy accepts ETH or an ERC20."
      },
      "redeemUnderlying(uint256)": {
        "notice": "Withdraws a specific amount of underlying tokens from the strategy."
      }
    },
    "version": 1
  },
  "storageLayout": {
    "storage": [
      {
        "astId": 2661,
        "contract": "src/strategies/implementations/USDCftmSPIRITscream.sol:USDCftmSPIRITscream",
        "label": "_owner",
        "offset": 0,
        "slot": "0",
        "type": "t_address"
      },
      {
        "astId": 4116,
        "contract": "src/strategies/implementations/USDCftmSPIRITscream.sol:USDCftmSPIRITscream",
        "label": "_status",
        "offset": 0,
        "slot": "1",
        "type": "t_uint256"
      },
      {
        "astId": 18263,
        "contract": "src/strategies/implementations/USDCftmSPIRITscream.sol:USDCftmSPIRITscream",
        "label": "isIntialized",
        "offset": 0,
        "slot": "2",
        "type": "t_bool"
      },
      {
        "astId": 19459,
        "contract": "src/strategies/implementations/USDCftmSPIRITscream.sol:USDCftmSPIRITscream",
        "label": "isInitialized",
        "offset": 1,
        "slot": "2",
        "type": "t_bool"
      },
      {
        "astId": 19464,
        "contract": "src/strategies/implementations/USDCftmSPIRITscream.sol:USDCftmSPIRITscream",
        "label": "lastHarvest",
        "offset": 0,
        "slot": "3",
        "type": "t_uint256"
      },
      {
        "astId": 19466,
        "contract": "src/strategies/implementations/USDCftmSPIRITscream.sol:USDCftmSPIRITscream",
        "label": "_vault",
        "offset": 0,
        "slot": "4",
        "type": "t_address"
      },
      {
        "astId": 19468,
        "contract": "src/strategies/implementations/USDCftmSPIRITscream.sol:USDCftmSPIRITscream",
        "label": "_shares",
        "offset": 0,
        "slot": "5",
        "type": "t_uint256"
      },
      {
        "astId": 19470,
        "contract": "src/strategies/implementations/USDCftmSPIRITscream.sol:USDCftmSPIRITscream",
        "label": "name",
        "offset": 0,
        "slot": "6",
        "type": "t_string_storage"
      },
      {
        "astId": 19472,
        "contract": "src/strategies/implementations/USDCftmSPIRITscream.sol:USDCftmSPIRITscream",
        "label": "symbol",
        "offset": 0,
        "slot": "7",
        "type": "t_string_storage"
      },
      {
        "astId": 19476,
        "contract": "src/strategies/implementations/USDCftmSPIRITscream.sol:USDCftmSPIRITscream",
        "label": "_managers",
        "offset": 0,
        "slot": "8",
        "type": "t_mapping(t_address,t_bool)"
      },
      {
        "astId": 19478,
        "contract": "src/strategies/implementations/USDCftmSPIRITscream.sol:USDCftmSPIRITscream",
        "label": "BASE_UNIT",
        "offset": 0,
        "slot": "9",
        "type": "t_uint256"
      },
      {
        "astId": 19868,
        "contract": "src/strategies/implementations/USDCftmSPIRITscream.sol:USDCftmSPIRITscream",
        "label": "_maxPriceMismatch",
        "offset": 0,
        "slot": "10",
        "type": "t_uint256"
      },
      {
        "astId": 19871,
        "contract": "src/strategies/implementations/USDCftmSPIRITscream.sol:USDCftmSPIRITscream",
        "label": "minLoanHealth",
        "offset": 0,
        "slot": "11",
        "type": "t_uint256"
      },
      {
        "astId": 19874,
        "contract": "src/strategies/implementations/USDCftmSPIRITscream.sol:USDCftmSPIRITscream",
        "label": "_underlying",
        "offset": 0,
        "slot": "12",
        "type": "t_contract(IERC20)4769"
      },
      {
        "astId": 19877,
        "contract": "src/strategies/implementations/USDCftmSPIRITscream.sol:USDCftmSPIRITscream",
        "label": "_short",
        "offset": 0,
        "slot": "13",
        "type": "t_contract(IERC20)4769"
      },
      {
        "astId": 19880,
        "contract": "src/strategies/implementations/USDCftmSPIRITscream.sol:USDCftmSPIRITscream",
        "label": "rebalanceThreshold",
        "offset": 20,
        "slot": "13",
        "type": "t_uint16"
      },
      {
        "astId": 19883,
        "contract": "src/strategies/implementations/USDCftmSPIRITscream.sol:USDCftmSPIRITscream",
        "label": "version",
        "offset": 22,
        "slot": "13",
        "type": "t_uint16"
      },
      {
        "astId": 19885,
        "contract": "src/strategies/implementations/USDCftmSPIRITscream.sol:USDCftmSPIRITscream",
        "label": "_maxTvl",
        "offset": 0,
        "slot": "14",
        "type": "t_uint256"
      },
      {
        "astId": 19887,
        "contract": "src/strategies/implementations/USDCftmSPIRITscream.sol:USDCftmSPIRITscream",
        "label": "_cachedBalanceOfUnderlying",
        "offset": 0,
        "slot": "15",
        "type": "t_uint256"
      },
      {
        "astId": 21602,
        "contract": "src/strategies/implementations/USDCftmSPIRITscream.sol:USDCftmSPIRITscream",
        "label": "_cTokenLend",
        "offset": 0,
        "slot": "16",
        "type": "t_contract(ICTokenErc20)16319"
      },
      {
        "astId": 21605,
        "contract": "src/strategies/implementations/USDCftmSPIRITscream.sol:USDCftmSPIRITscream",
        "label": "_cTokenBorrow",
        "offset": 0,
        "slot": "17",
        "type": "t_contract(ICTokenErc20)16319"
      },
      {
        "astId": 21608,
        "contract": "src/strategies/implementations/USDCftmSPIRITscream.sol:USDCftmSPIRITscream",
        "label": "_comptroller",
        "offset": 0,
        "slot": "18",
        "type": "t_contract(IComptroller)16561"
      },
      {
        "astId": 21611,
        "contract": "src/strategies/implementations/USDCftmSPIRITscream.sol:USDCftmSPIRITscream",
        "label": "_oracle",
        "offset": 0,
        "slot": "19",
        "type": "t_contract(ICompPriceOracle)16342"
      },
      {
        "astId": 21613,
        "contract": "src/strategies/implementations/USDCftmSPIRITscream.sol:USDCftmSPIRITscream",
        "label": "_safeCollateralRatio",
        "offset": 0,
        "slot": "20",
        "type": "t_uint256"
      },
      {
        "astId": 21761,
        "contract": "src/strategies/implementations/USDCftmSPIRITscream.sol:USDCftmSPIRITscream",
        "label": "_router",
        "offset": 0,
        "slot": "21",
        "type": "t_contract(IUniswapV2Router01)17509"
      },
      {
        "astId": 21764,
        "contract": "src/strategies/implementations/USDCftmSPIRITscream.sol:USDCftmSPIRITscream",
        "label": "_farmToken",
        "offset": 0,
        "slot": "22",
        "type": "t_contract(IERC20)4769"
      },
      {
        "astId": 21940,
        "contract": "src/strategies/implementations/USDCftmSPIRITscream.sol:USDCftmSPIRITscream",
        "label": "_farm",
        "offset": 0,
        "slot": "23",
        "type": "t_contract(IMasterChef)16818"
      },
      {
        "astId": 21943,
        "contract": "src/strategies/implementations/USDCftmSPIRITscream.sol:USDCftmSPIRITscream",
        "label": "_router",
        "offset": 0,
        "slot": "24",
        "type": "t_contract(IUniswapV2Router01)17509"
      },
      {
        "astId": 21946,
        "contract": "src/strategies/implementations/USDCftmSPIRITscream.sol:USDCftmSPIRITscream",
        "label": "_farmToken",
        "offset": 0,
        "slot": "25",
        "type": "t_contract(IERC20)4769"
      },
      {
        "astId": 21949,
        "contract": "src/strategies/implementations/USDCftmSPIRITscream.sol:USDCftmSPIRITscream",
        "label": "_pair",
        "offset": 0,
        "slot": "26",
        "type": "t_contract(IUniswapV2Pair)17201"
      },
      {
        "astId": 21951,
        "contract": "src/strategies/implementations/USDCftmSPIRITscream.sol:USDCftmSPIRITscream",
        "label": "_farmId",
        "offset": 0,
        "slot": "27",
        "type": "t_uint256"
      }
    ],
    "types": {
      "t_address": {
        "encoding": "inplace",
        "label": "address",
        "numberOfBytes": "20"
      },
      "t_bool": {
        "encoding": "inplace",
        "label": "bool",
        "numberOfBytes": "1"
      },
      "t_contract(ICTokenErc20)16319": {
        "encoding": "inplace",
        "label": "contract ICTokenErc20",
        "numberOfBytes": "20"
      },
      "t_contract(ICompPriceOracle)16342": {
        "encoding": "inplace",
        "label": "contract ICompPriceOracle",
        "numberOfBytes": "20"
      },
      "t_contract(IComptroller)16561": {
        "encoding": "inplace",
        "label": "contract IComptroller",
        "numberOfBytes": "20"
      },
      "t_contract(IERC20)4769": {
        "encoding": "inplace",
        "label": "contract IERC20",
        "numberOfBytes": "20"
      },
      "t_contract(IMasterChef)16818": {
        "encoding": "inplace",
        "label": "contract IMasterChef",
        "numberOfBytes": "20"
      },
      "t_contract(IUniswapV2Pair)17201": {
        "encoding": "inplace",
        "label": "contract IUniswapV2Pair",
        "numberOfBytes": "20"
      },
      "t_contract(IUniswapV2Router01)17509": {
        "encoding": "inplace",
        "label": "contract IUniswapV2Router01",
        "numberOfBytes": "20"
      },
      "t_mapping(t_address,t_bool)": {
        "encoding": "mapping",
        "key": "t_address",
        "label": "mapping(address => bool)",
        "numberOfBytes": "32",
        "value": "t_bool"
      },
      "t_string_storage": {
        "encoding": "bytes",
        "label": "string",
        "numberOfBytes": "32"
      },
      "t_uint16": {
        "encoding": "inplace",
        "label": "uint16",
        "numberOfBytes": "2"
      },
      "t_uint256": {
        "encoding": "inplace",
        "label": "uint256",
        "numberOfBytes": "32"
      }
    }
  }
}