{
  "address": "0x4151c90E205a721E16A774A411c18fEC2bEfdec5",
  "abi": [
    {
      "inputs": [
        {
          "components": [
            {
              "internalType": "address",
              "name": "underlying",
              "type": "address"
            },
            {
              "internalType": "address",
              "name": "short",
              "type": "address"
            },
            {
              "internalType": "address",
              "name": "cTokenLend",
              "type": "address"
            },
            {
              "internalType": "address",
              "name": "cTokenBorrow",
              "type": "address"
            },
            {
              "internalType": "address",
              "name": "uniPair",
              "type": "address"
            },
            {
              "internalType": "address",
              "name": "uniFarm",
              "type": "address"
            },
            {
              "internalType": "address",
              "name": "farmToken",
              "type": "address"
            },
            {
              "internalType": "uint256",
              "name": "farmId",
              "type": "uint256"
            },
            {
              "internalType": "address",
              "name": "farmRouter",
              "type": "address"
            },
            {
              "internalType": "address",
              "name": "comptroller",
              "type": "address"
            },
            {
              "internalType": "address",
              "name": "lendRewardRouter",
              "type": "address"
            },
            {
              "internalType": "address",
              "name": "lendRewardToken",
              "type": "address"
            },
            {
              "internalType": "address",
              "name": "vault",
              "type": "address"
            },
            {
              "internalType": "string",
              "name": "symbol",
              "type": "string"
            },
            {
              "internalType": "string",
              "name": "name",
              "type": "string"
            },
            {
              "internalType": "uint256",
              "name": "maxTvl",
              "type": "uint256"
            }
          ],
          "internalType": "struct Config",
          "name": "config",
          "type": "tuple"
        }
      ],
      "stateMutability": "nonpayable",
      "type": "constructor"
    },
    {
      "anonymous": false,
      "inputs": [
        {
          "indexed": false,
          "internalType": "address",
          "name": "sender",
          "type": "address"
        },
        {
          "indexed": false,
          "internalType": "uint256",
          "name": "amount",
          "type": "uint256"
        }
      ],
      "name": "Deposit",
      "type": "event"
    },
    {
      "anonymous": false,
      "inputs": [
        {
          "indexed": true,
          "internalType": "address",
          "name": "recipient",
          "type": "address"
        },
        {
          "indexed": false,
          "internalType": "contract IERC20[]",
          "name": "tokens",
          "type": "address[]"
        }
      ],
      "name": "EmergencyWithdraw",
      "type": "event"
    },
    {
      "anonymous": false,
      "inputs": [
        {
          "indexed": false,
          "internalType": "uint256",
          "name": "harvested",
          "type": "uint256"
        }
      ],
      "name": "Harvest",
      "type": "event"
    },
    {
      "anonymous": false,
      "inputs": [
        {
          "indexed": true,
          "internalType": "address",
          "name": "token",
          "type": "address"
        },
        {
          "indexed": false,
          "internalType": "uint256",
          "name": "amount",
          "type": "uint256"
        }
      ],
      "name": "HarvestedToken",
      "type": "event"
    },
    {
      "anonymous": false,
      "inputs": [
        {
          "indexed": true,
          "internalType": "address",
          "name": "account",
          "type": "address"
        },
        {
          "indexed": false,
          "internalType": "bool",
          "name": "isManager",
          "type": "bool"
        }
      ],
      "name": "ManagerUpdate",
      "type": "event"
    },
    {
      "anonymous": false,
      "inputs": [
        {
          "indexed": true,
          "internalType": "address",
          "name": "previousOwner",
          "type": "address"
        },
        {
          "indexed": true,
          "internalType": "address",
          "name": "newOwner",
          "type": "address"
        }
      ],
      "name": "OwnershipTransferred",
      "type": "event"
    },
    {
      "anonymous": false,
      "inputs": [
        {
          "indexed": false,
          "internalType": "uint256",
          "name": "shortPrice",
          "type": "uint256"
        },
        {
          "indexed": false,
          "internalType": "uint256",
          "name": "tvlBeforeRebalance",
          "type": "uint256"
        },
        {
          "indexed": false,
          "internalType": "uint256",
          "name": "positionOffset",
          "type": "uint256"
        }
      ],
      "name": "Rebalance",
      "type": "event"
    },
    {
      "anonymous": false,
      "inputs": [
        {
          "indexed": true,
          "internalType": "address",
          "name": "sender",
          "type": "address"
        },
        {
          "indexed": false,
          "internalType": "uint256",
          "name": "startLoanHealth",
          "type": "uint256"
        },
        {
          "indexed": false,
          "internalType": "uint256",
          "name": "updatedLoanHealth",
          "type": "uint256"
        }
      ],
      "name": "RebalanceLoan",
      "type": "event"
    },
    {
      "anonymous": false,
      "inputs": [
        {
          "indexed": false,
          "internalType": "uint256",
          "name": "loanHealth",
          "type": "uint256"
        }
      ],
      "name": "SetMaxPriceMismatch",
      "type": "event"
    },
    {
      "anonymous": false,
      "inputs": [
        {
          "indexed": false,
          "internalType": "uint256",
          "name": "loanHealth",
          "type": "uint256"
        }
      ],
      "name": "SetMaxTvl",
      "type": "event"
    },
    {
      "anonymous": false,
      "inputs": [
        {
          "indexed": false,
          "internalType": "uint256",
          "name": "loanHealth",
          "type": "uint256"
        }
      ],
      "name": "SetRebalanceThreshold",
      "type": "event"
    },
    {
      "anonymous": false,
      "inputs": [
        {
          "indexed": false,
          "internalType": "uint256",
          "name": "collateralRatio",
          "type": "uint256"
        }
      ],
      "name": "SetSafeCollateralRaio",
      "type": "event"
    },
    {
      "anonymous": false,
      "inputs": [
        {
          "indexed": true,
          "internalType": "address",
          "name": "vault",
          "type": "address"
        }
      ],
      "name": "VaultUpdate",
      "type": "event"
    },
    {
      "anonymous": false,
      "inputs": [
        {
          "indexed": false,
          "internalType": "address",
          "name": "sender",
          "type": "address"
        },
        {
          "indexed": false,
          "internalType": "uint256",
          "name": "amount",
          "type": "uint256"
        }
      ],
      "name": "Withdraw",
      "type": "event"
    },
    {
      "anonymous": false,
      "inputs": [
        {
          "indexed": false,
          "internalType": "uint256",
          "name": "loanHealth",
          "type": "uint256"
        }
      ],
      "name": "setMinLoanHealth",
      "type": "event"
    },
    {
      "inputs": [],
      "name": "BASE_UNIT",
      "outputs": [
        {
          "internalType": "uint256",
          "name": "",
          "type": "uint256"
        }
      ],
      "stateMutability": "view",
      "type": "function"
    },
    {
      "inputs": [
        {
          "internalType": "address",
          "name": "",
          "type": "address"
        }
      ],
      "name": "balanceOfUnderlying",
      "outputs": [
        {
          "internalType": "uint256",
          "name": "",
          "type": "uint256"
        }
      ],
      "stateMutability": "view",
      "type": "function"
    },
    {
      "inputs": [],
      "name": "balanceOfUnderlying",
      "outputs": [
        {
          "internalType": "uint256",
          "name": "",
          "type": "uint256"
        }
      ],
      "stateMutability": "view",
      "type": "function"
    },
    {
      "inputs": [],
      "name": "cTokenBorrow",
      "outputs": [
        {
          "internalType": "contract ICTokenErc20",
          "name": "",
          "type": "address"
        }
      ],
      "stateMutability": "view",
      "type": "function"
    },
    {
      "inputs": [],
      "name": "cTokenLend",
      "outputs": [
        {
          "internalType": "contract ICTokenErc20",
          "name": "",
          "type": "address"
        }
      ],
      "stateMutability": "view",
      "type": "function"
    },
    {
      "inputs": [
        {
          "internalType": "uint256",
          "name": "maxSlippage",
          "type": "uint256"
        }
      ],
      "name": "closePosition",
      "outputs": [],
      "stateMutability": "nonpayable",
      "type": "function"
    },
    {
      "inputs": [],
      "name": "comptroller",
      "outputs": [
        {
          "internalType": "contract IComptroller",
          "name": "",
          "type": "address"
        }
      ],
      "stateMutability": "view",
      "type": "function"
    },
    {
      "inputs": [],
      "name": "decimals",
      "outputs": [
        {
          "internalType": "uint8",
          "name": "",
          "type": "uint8"
        }
      ],
      "stateMutability": "view",
      "type": "function"
    },
    {
      "inputs": [
        {
          "internalType": "address",
          "name": "recipient",
          "type": "address"
        },
        {
          "internalType": "contract IERC20[]",
          "name": "tokens",
          "type": "address[]"
        }
      ],
      "name": "emergencyWithdraw",
      "outputs": [],
      "stateMutability": "nonpayable",
      "type": "function"
    },
    {
      "inputs": [],
      "name": "farmRouter",
      "outputs": [
        {
          "internalType": "contract IUniswapV2Router01",
          "name": "",
          "type": "address"
        }
      ],
      "stateMutability": "view",
      "type": "function"
    },
    {
      "inputs": [],
      "name": "getCollateralRatio",
      "outputs": [
        {
          "internalType": "uint256",
          "name": "",
          "type": "uint256"
        }
      ],
      "stateMutability": "view",
      "type": "function"
    },
    {
      "inputs": [],
      "name": "getMaxTvl",
      "outputs": [
        {
          "internalType": "uint256",
          "name": "",
          "type": "uint256"
        }
      ],
      "stateMutability": "view",
      "type": "function"
    },
    {
      "inputs": [],
      "name": "getPositionOffset",
      "outputs": [
        {
          "internalType": "uint256",
          "name": "positionOffset",
          "type": "uint256"
        }
      ],
      "stateMutability": "view",
      "type": "function"
    },
    {
      "inputs": [],
      "name": "getPriceOffset",
      "outputs": [
        {
          "internalType": "uint256",
          "name": "offset",
          "type": "uint256"
        }
      ],
      "stateMutability": "view",
      "type": "function"
    },
    {
      "inputs": [],
      "name": "getPricePerShare",
      "outputs": [
        {
          "internalType": "uint256",
          "name": "",
          "type": "uint256"
        }
      ],
      "stateMutability": "view",
      "type": "function"
    },
    {
      "inputs": [],
      "name": "getTVL",
      "outputs": [
        {
          "internalType": "uint256",
          "name": "tvl",
          "type": "uint256"
        },
        {
          "internalType": "uint256",
          "name": "collateralBalance",
          "type": "uint256"
        },
        {
          "internalType": "uint256",
          "name": "borrowPosition",
          "type": "uint256"
        },
        {
          "internalType": "uint256",
          "name": "borrowBalance",
          "type": "uint256"
        },
        {
          "internalType": "uint256",
          "name": "lpBalance",
          "type": "uint256"
        },
        {
          "internalType": "uint256",
          "name": "underlyingBalance",
          "type": "uint256"
        }
      ],
      "stateMutability": "view",
      "type": "function"
    },
    {
      "inputs": [],
      "name": "getTotalTVL",
      "outputs": [
        {
          "internalType": "uint256",
          "name": "tvl",
          "type": "uint256"
        }
      ],
      "stateMutability": "view",
      "type": "function"
    },
    {
      "inputs": [],
      "name": "getUnderlyingShortReserves",
      "outputs": [
        {
          "internalType": "uint256",
          "name": "reserveA",
          "type": "uint256"
        },
        {
          "internalType": "uint256",
          "name": "reserveB",
          "type": "uint256"
        }
      ],
      "stateMutability": "view",
      "type": "function"
    },
    {
      "inputs": [
        {
          "components": [
            {
              "internalType": "address[]",
              "name": "path",
              "type": "address[]"
            },
            {
              "internalType": "uint256",
              "name": "min",
              "type": "uint256"
            },
            {
              "internalType": "uint256",
              "name": "deadline",
              "type": "uint256"
            }
          ],
          "internalType": "struct HarvestSwapParms[]",
          "name": "uniParams",
          "type": "tuple[]"
        },
        {
          "components": [
            {
              "internalType": "address[]",
              "name": "path",
              "type": "address[]"
            },
            {
              "internalType": "uint256",
              "name": "min",
              "type": "uint256"
            },
            {
              "internalType": "uint256",
              "name": "deadline",
              "type": "uint256"
            }
          ],
          "internalType": "struct HarvestSwapParms[]",
          "name": "lendingParams",
          "type": "tuple[]"
        }
      ],
      "name": "harvest",
      "outputs": [
        {
          "internalType": "uint256[]",
          "name": "farmHarvest",
          "type": "uint256[]"
        },
        {
          "internalType": "uint256[]",
          "name": "lendHarvest",
          "type": "uint256[]"
        }
      ],
      "stateMutability": "nonpayable",
      "type": "function"
    },
    {
      "inputs": [],
      "name": "isCEther",
      "outputs": [
        {
          "internalType": "bool",
          "name": "",
          "type": "bool"
        }
      ],
      "stateMutability": "pure",
      "type": "function"
    },
    {
      "inputs": [],
      "name": "isIntialized",
      "outputs": [
        {
          "internalType": "bool",
          "name": "",
          "type": "bool"
        }
      ],
      "stateMutability": "view",
      "type": "function"
    },
    {
      "inputs": [
        {
          "internalType": "address",
          "name": "user",
          "type": "address"
        }
      ],
      "name": "isManager",
      "outputs": [
        {
          "internalType": "bool",
          "name": "",
          "type": "bool"
        }
      ],
      "stateMutability": "view",
      "type": "function"
    },
    {
      "inputs": [],
      "name": "lastHarvest",
      "outputs": [
        {
          "internalType": "uint256",
          "name": "",
          "type": "uint256"
        }
      ],
      "stateMutability": "view",
      "type": "function"
    },
    {
      "inputs": [],
      "name": "lendFarmRouter",
      "outputs": [
        {
          "internalType": "contract IUniswapV2Router01",
          "name": "",
          "type": "address"
        }
      ],
      "stateMutability": "view",
      "type": "function"
    },
    {
      "inputs": [],
      "name": "loanHealth",
      "outputs": [
        {
          "internalType": "uint256",
          "name": "",
          "type": "uint256"
        }
      ],
      "stateMutability": "view",
      "type": "function"
    },
    {
      "inputs": [],
      "name": "maxPriceMismatch",
      "outputs": [
        {
          "internalType": "uint256",
          "name": "",
          "type": "uint256"
        }
      ],
      "stateMutability": "view",
      "type": "function"
    },
    {
      "inputs": [],
      "name": "minLoanHealth",
      "outputs": [
        {
          "internalType": "uint256",
          "name": "",
          "type": "uint256"
        }
      ],
      "stateMutability": "view",
      "type": "function"
    },
    {
      "inputs": [
        {
          "internalType": "uint256",
          "name": "amount",
          "type": "uint256"
        }
      ],
      "name": "mint",
      "outputs": [
        {
          "internalType": "uint256",
          "name": "errCode",
          "type": "uint256"
        }
      ],
      "stateMutability": "nonpayable",
      "type": "function"
    },
    {
      "inputs": [],
      "name": "name",
      "outputs": [
        {
          "internalType": "string",
          "name": "",
          "type": "string"
        }
      ],
      "stateMutability": "view",
      "type": "function"
    },
    {
      "inputs": [],
      "name": "oracle",
      "outputs": [
        {
          "internalType": "contract ICompPriceOracle",
          "name": "",
          "type": "address"
        }
      ],
      "stateMutability": "view",
      "type": "function"
    },
    {
      "inputs": [],
      "name": "owner",
      "outputs": [
        {
          "internalType": "address",
          "name": "",
          "type": "address"
        }
      ],
      "stateMutability": "view",
      "type": "function"
    },
    {
      "inputs": [],
      "name": "pair",
      "outputs": [
        {
          "internalType": "contract IUniswapV2Pair",
          "name": "",
          "type": "address"
        }
      ],
      "stateMutability": "view",
      "type": "function"
    },
    {
      "inputs": [],
      "name": "rebalance",
      "outputs": [],
      "stateMutability": "pure",
      "type": "function"
    },
    {
      "inputs": [
        {
          "internalType": "uint256",
          "name": "maxSlippage",
          "type": "uint256"
        }
      ],
      "name": "rebalance",
      "outputs": [],
      "stateMutability": "nonpayable",
      "type": "function"
    },
    {
      "inputs": [],
      "name": "rebalanceLoan",
      "outputs": [],
      "stateMutability": "nonpayable",
      "type": "function"
    },
    {
      "inputs": [],
      "name": "rebalanceThreshold",
      "outputs": [
        {
          "internalType": "uint16",
          "name": "",
          "type": "uint16"
        }
      ],
      "stateMutability": "view",
      "type": "function"
    },
    {
      "inputs": [
        {
          "internalType": "uint256",
          "name": "amount",
          "type": "uint256"
        }
      ],
      "name": "redeemUnderlying",
      "outputs": [
        {
          "internalType": "uint256",
          "name": "errCode",
          "type": "uint256"
        }
      ],
      "stateMutability": "nonpayable",
      "type": "function"
    },
    {
      "inputs": [],
      "name": "renounceOwnership",
      "outputs": [],
      "stateMutability": "nonpayable",
      "type": "function"
    },
    {
      "inputs": [],
      "name": "safeCollateralRatio",
      "outputs": [
        {
          "internalType": "uint256",
          "name": "",
          "type": "uint256"
        }
      ],
      "stateMutability": "view",
      "type": "function"
    },
    {
      "inputs": [
        {
          "internalType": "address",
          "name": "user",
          "type": "address"
        },
        {
          "internalType": "bool",
          "name": "_isManager",
          "type": "bool"
        }
      ],
      "name": "setManager",
      "outputs": [],
      "stateMutability": "nonpayable",
      "type": "function"
    },
    {
      "inputs": [
        {
          "internalType": "uint256",
          "name": "maxPriceMismatch_",
          "type": "uint256"
        }
      ],
      "name": "setMaxPriceMismatch",
      "outputs": [],
      "stateMutability": "nonpayable",
      "type": "function"
    },
    {
      "inputs": [
        {
          "internalType": "uint256",
          "name": "maxTvl_",
          "type": "uint256"
        }
      ],
      "name": "setMaxTvl",
      "outputs": [],
      "stateMutability": "nonpayable",
      "type": "function"
    },
    {
      "inputs": [
        {
          "internalType": "uint256",
          "name": "minLoanHealth_",
          "type": "uint256"
        }
      ],
      "name": "setMinLoanHeath",
      "outputs": [],
      "stateMutability": "nonpayable",
      "type": "function"
    },
    {
      "inputs": [
        {
          "internalType": "uint16",
          "name": "rebalanceThreshold_",
          "type": "uint16"
        }
      ],
      "name": "setRebalanceThreshold",
      "outputs": [],
      "stateMutability": "nonpayable",
      "type": "function"
    },
    {
      "inputs": [
        {
          "internalType": "uint256",
          "name": "safeCollateralRatio_",
          "type": "uint256"
        }
      ],
      "name": "setSafeCollateralRatio",
      "outputs": [],
      "stateMutability": "nonpayable",
      "type": "function"
    },
    {
      "inputs": [
        {
          "internalType": "address",
          "name": "vault_",
          "type": "address"
        }
      ],
      "name": "setVault",
      "outputs": [],
      "stateMutability": "nonpayable",
      "type": "function"
    },
    {
      "inputs": [],
      "name": "short",
      "outputs": [
        {
          "internalType": "contract IERC20",
          "name": "",
          "type": "address"
        }
      ],
      "stateMutability": "view",
      "type": "function"
    },
    {
      "inputs": [],
      "name": "symbol",
      "outputs": [
        {
          "internalType": "string",
          "name": "",
          "type": "string"
        }
      ],
      "stateMutability": "view",
      "type": "function"
    },
    {
      "inputs": [],
      "name": "totalSupply",
      "outputs": [
        {
          "internalType": "uint256",
          "name": "",
          "type": "uint256"
        }
      ],
      "stateMutability": "view",
      "type": "function"
    },
    {
      "inputs": [
        {
          "internalType": "address",
          "name": "newOwner",
          "type": "address"
        }
      ],
      "name": "transferOwnership",
      "outputs": [],
      "stateMutability": "nonpayable",
      "type": "function"
    },
    {
      "inputs": [],
      "name": "underlying",
      "outputs": [
        {
          "internalType": "contract IERC20",
          "name": "",
          "type": "address"
        }
      ],
      "stateMutability": "view",
      "type": "function"
    },
    {
      "inputs": [],
      "name": "vault",
      "outputs": [
        {
          "internalType": "address",
          "name": "",
          "type": "address"
        }
      ],
      "stateMutability": "view",
      "type": "function"
    },
    {
      "inputs": [],
      "name": "version",
      "outputs": [
        {
          "internalType": "uint256",
          "name": "",
          "type": "uint256"
        }
      ],
      "stateMutability": "view",
      "type": "function"
    },
    {
      "stateMutability": "payable",
      "type": "receive"
    }
  ],
  "transactionHash": "0xf3a93ad1adf851838e1d6a77bf72dfba3186715b22197ffc53026507ae2859d3",
  "args": [
    [
      "0x04068da6c83afcfa0e13ba15a6696662335d5b75",
      "0x21be370d5312f44cb42ce377bc9b8a0cef1a4c83",
      "0xE45Ac34E528907d0A0239ab5Db507688070B20bf",
      "0x5AA53f03197E08C4851CAD8C92c7922DA5857E5d",
      "0xe7e90f5a767406eff87fdad7eb07ef407922ec1d",
      "0x9083ea3756bde6ee6f27a6e996806fbd37f6f093",
      "0x5Cc61A78F164885776AA610fb0FE1257df78E59B",
      4,
      "0x16327E3FbDaCA3bcF7E38F5Af2599D2DDc33aE52",
      "0x260E596DAbE3AFc463e75B6CC05d8c46aCAcFB09",
      "0xF491e7B69E4244ad4002BC14e878a34207E38c29",
      "0xe0654C8e6fd4D733349ac7E09f6f23DA256bF475",
      "0x3938411fd77A5458721aF6B080b51008394568ef",
      "USDCftmSPIRITscream",
      "USDC FTM SpiritSwap Scream",
      "115792089237316195423570985008687907853269984665640564039457584007913129639935"
    ]
  ],
  "numDeployments": 7,
  "solcInputHash": "ef63dcd7995e9b8ec0e0ce146a6c6700",
  "bytecode": "0x60806040526064600c55670e6ed27d66680000600d55600e805461ffff191661019017905561206c6010553480156200003757600080fd5b5060405162005fa238038062005fa28339810160408190526200005a9162000e03565b6101808101516101a08201516101c0830151620000773362000147565b60018055600480546001600160a01b0319166001600160a01b0385161790558151620000ab90600790602085019062000c24565b508051620000c190600690602084019062000c24565b505050608082015160a083015161010084015160c085015160e0860151620000ea955062000197565b6200010a816101200151826040015183606001516200021c60201b60201c565b62000126816101400151826101600151620002e860201b60201c565b805160208201516101e0830151620001409291906200035d565b5062001330565b600080546001600160a01b038381166001600160a01b0319831681178455604051919092169283917f8be0079c531659141344cd1fd0a4f28419497f9722a3daafe3b4186f6b6457e09190a35050565b60025460ff1615620001c65760405162461bcd60e51b8152600401620001bd9062000fa5565b60405180910390fd5b601880546001600160a01b03199081166001600160a01b039687161790915560198054821694861694909417909355601a8054841692851692909217909155601b80549092169390921692909217909155601c55565b601280546001600160a01b038085166001600160a01b03199283161790925560138054848416908316179055601480549286169290911682179055604080516307dc0d1d60e41b81529051637dc0d1d0916004808201926020929091908290030181865afa15801562000293573d6000803e3d6000fd5b505050506040513d601f19601f82011682018060405250810190620002b9919062000fca565b601580546001600160a01b0319166001600160a01b0392909216919091179055620002e36200050b565b505050565b60025460ff16156200030e5760405162461bcd60e51b8152600401620001bd9062000fa5565b601780546001600160a01b03199081166001600160a01b0384811691821790935560168054909216928516928317909155620003599160001962000607602090811b62001a2d17901c565b5050565b60025460ff1615620003835760405162461bcd60e51b8152600401620001bd9062000fa5565b600a80546001600160a01b038086166001600160a01b03199283168117909355600b805491861691909216179055620003cf903060001962001a2d62000607602090811b91909117901c565b620003d962000752565b620003e690600a620010fd565b600955620003f481620007c8565b7f5ceaf8b7b0d35f85ef4df565057cd318e70d9f8681f89425a2d5e09c1c70a7f9600d546040516200042891815260200190565b60405180910390a17f3e87fa3180c1babd204ce79375729d7a6694a2d2f0fb3e250f9138488ed066bb600c546040516200046491815260200190565b60405180910390a1600e5460405161ffff90911681527f36c98a54ec4f90fe58a67bf25cfc1691dbd53639eee3513536d83e8d34fb0a9b9060200160405180910390a17f4812bd1abd1ad4ea905335e3af941ec67d6d51ecb36ab58f23af0af081aac57b601054604051620004db91815260200190565b60405180910390a1620004ed62000870565b620004f7620008de565b50506002805461ff00191661010017905550565b6040805160028082526060820183526000926020830190803683375050601254919250506001600160a01b0316816000815181106200054e576200054e6200110e565b6001600160a01b03928316602091820292909201015260135416816001815181106200057e576200057e6200110e565b6001600160a01b039283166020918202929092010152601454604051631853304760e31b815291169063c299823890620005bd90849060040162001124565b6000604051808303816000875af1158015620005dd573d6000803e3d6000fd5b505050506040513d6000823e601f3d908101601f1916820160405262000359919081019062001173565b801580620006865750604051636eb1769f60e11b81526001600160a01b0384169063dd62ed3e9062000640903090869060040162001223565b602060405180830381865afa1580156200065e573d6000803e3d6000fd5b505050506040513d601f19601f820116820180604052508101906200068491906200123d565b155b620006fa5760405162461bcd60e51b815260206004820152603660248201527f5361666545524332303a20617070726f76652066726f6d206e6f6e2d7a65726f60448201527f20746f206e6f6e2d7a65726f20616c6c6f77616e6365000000000000000000006064820152608401620001bd565b604080516001600160a01b038416602482015260448082018490528251808303909101815260649091019091526020810180516001600160e01b0390811663095ea7b360e01b17909152620002e3918591620009ba16565b600a546040805163313ce56760e01b815290516000926001600160a01b03169163313ce5679160048083019260209291908290030181865afa1580156200079d573d6000803e3d6000fd5b505050506040513d601f19601f82011682018060405250810190620007c3919062001257565b905090565b6000546001600160a01b0316331480620007f657503360009081526008602052604090205460ff1615156001145b620008355760405162461bcd60e51b815260206004820152600e60248201526d0a6e8e4c2e874409c9ebe82aaa8960931b6044820152606401620001bd565b600f8190556040518181527f13d3e08a22782064d3062f92ff1101a623b60e3bf91f236b5d1e9fdddfc12a129060200160405180910390a150565b601254620008b5906001600160a01b031660001962000897600a546001600160a01b031690565b6001600160a01b03166200060760201b62001a2d179092919060201c565b601354620008dc906001600160a01b031660001962000897600b546001600160a01b031690565b565b601854601b546200090b916001600160a01b03918216911660001962000607602090811b62001a2d17901c565b601a54601954604051636eb1769f60e11b81526001600160a01b039283169263dd62ed3e92620009449230929091169060040162001223565b602060405180830381865afa15801562000962573d6000803e3d6000fd5b505050506040513d601f19601f820116820180604052508101906200098891906200123d565b620008dc57601954601a54620008dc916001600160a01b03918216911660001962000607602090811b62001a2d17901c565b600062000a16826040518060400160405280602081526020017f5361666545524332303a206c6f772d6c6576656c2063616c6c206661696c6564815250856001600160a01b031662000a9860201b62001b6d179092919060201c565b805190915015620002e3578080602001905181019062000a3791906200127c565b620002e35760405162461bcd60e51b815260206004820152602a60248201527f5361666545524332303a204552433230206f7065726174696f6e20646964206e6044820152691bdd081cdd58d8d9595960b21b6064820152608401620001bd565b606062000aa9848460008562000ab3565b90505b9392505050565b60608247101562000b165760405162461bcd60e51b815260206004820152602660248201527f416464726573733a20696e73756666696369656e742062616c616e636520666f6044820152651c8818d85b1b60d21b6064820152608401620001bd565b843b62000b665760405162461bcd60e51b815260206004820152601d60248201527f416464726573733a2063616c6c20746f206e6f6e2d636f6e74726163740000006044820152606401620001bd565b600080866001600160a01b0316858760405162000b849190620012a0565b60006040518083038185875af1925050503d806000811462000bc3576040519150601f19603f3d011682016040523d82523d6000602084013e62000bc8565b606091505b50909250905062000bdb82828662000be6565b979650505050505050565b6060831562000bf757508162000aac565b82511562000c085782518084602001fd5b8160405162461bcd60e51b8152600401620001bd9190620012be565b82805462000c3290620012f3565b90600052602060002090601f01602090048101928262000c56576000855562000ca1565b82601f1062000c7157805160ff191683800117855562000ca1565b8280016001018555821562000ca1579182015b8281111562000ca157825182559160200191906001019062000c84565b5062000caf92915062000cb3565b5090565b5b8082111562000caf576000815560010162000cb4565b634e487b7160e01b600052604160045260246000fd5b60405161020081016001600160401b038111828210171562000d065762000d0662000cca565b60405290565b604051601f8201601f191681016001600160401b038111828210171562000d375762000d3762000cca565b604052919050565b80516001600160a01b038116811462000d5757600080fd5b919050565b60005b8381101562000d7957818101518382015260200162000d5f565b8381111562000d89576000848401525b50505050565b600082601f83011262000da157600080fd5b81516001600160401b0381111562000dbd5762000dbd62000cca565b62000dd2601f8201601f191660200162000d0c565b81815284602083860101111562000de857600080fd5b62000dfb82602083016020870162000d5c565b949350505050565b60006020828403121562000e1657600080fd5b81516001600160401b038082111562000e2e57600080fd5b90830190610200828603121562000e4457600080fd5b62000e4e62000ce0565b62000e598362000d3f565b815262000e696020840162000d3f565b602082015262000e7c6040840162000d3f565b604082015262000e8f6060840162000d3f565b606082015262000ea26080840162000d3f565b608082015262000eb560a0840162000d3f565b60a082015262000ec860c0840162000d3f565b60c082015260e083015160e082015261010062000ee781850162000d3f565b9082015261012062000efb84820162000d3f565b9082015261014062000f0f84820162000d3f565b9082015261016062000f2384820162000d3f565b9082015261018062000f3784820162000d3f565b908201526101a0838101518381111562000f5057600080fd5b62000f5e8882870162000d8f565b8284015250506101c0808401518381111562000f7957600080fd5b62000f878882870162000d8f565b91830191909152506101e09283015192810192909252509392505050565b6020808252600b908201526a125392551250531256915160aa1b604082015260600190565b60006020828403121562000fdd57600080fd5b62000aac8262000d3f565b634e487b7160e01b600052601160045260246000fd5b600181815b808511156200103f57816000190482111562001023576200102362000fe8565b808516156200103157918102915b93841c939080029062001003565b509250929050565b6000826200105857506001620010f7565b816200106757506000620010f7565b81600181146200108057600281146200108b57620010ab565b6001915050620010f7565b60ff8411156200109f576200109f62000fe8565b50506001821b620010f7565b5060208310610133831016604e8410600b8410161715620010d0575081810a620010f7565b620010dc838362000ffe565b8060001904821115620010f357620010f362000fe8565b0290505b92915050565b600062000aac60ff84168362001047565b634e487b7160e01b600052603260045260246000fd5b6020808252825182820181905260009190848201906040850190845b81811015620011675783516001600160a01b03168352928401929184019160010162001140565b50909695505050505050565b600060208083850312156200118757600080fd5b82516001600160401b03808211156200119f57600080fd5b818501915085601f830112620011b457600080fd5b815181811115620011c957620011c962000cca565b8060051b9150620011dc84830162000d0c565b8181529183018401918481019088841115620011f757600080fd5b938501935b838510156200121757845182529385019390850190620011fc565b98975050505050505050565b6001600160a01b0392831681529116602082015260400190565b6000602082840312156200125057600080fd5b5051919050565b6000602082840312156200126a57600080fd5b815160ff8116811462000aac57600080fd5b6000602082840312156200128f57600080fd5b8151801515811462000aac57600080fd5b60008251620012b481846020870162000d5c565b9190910192915050565b6020815260008251806020840152620012df81604085016020870162000d5c565b601f01601f19169190910160400192915050565b600181811c908216806200130857607f821691505b602082108114156200132a57634e487b7160e01b600052602260045260246000fd5b50919050565b614c6280620013406000396000f3fe60806040526004361061025e5760003560e01c806306fdde031461026a5780630c021ae5146102955780630d55046c146102b85780630e962f00146102df57806314b0750b146102f55780631585e0b61461031757806318160ddd14610337578063313ce5671461034c578063358d6a041461037357806338bea4cb146103885780633af9e6691461039d5780633bf295cc146103bd5780633d68175c146103d25780633dcf1342146103e75780633dfe9f6a146104075780634880f9511461043557806354fd4d501461044a5780635fe3b5671461045f57806366be952d146104745780636817031b1461048a5780636f307dc3146104aa578063711326ce146104bf578063715018a6146104df5780637d7c2a1c146104f45780637da64483146105095780637dc0d1d0146105335780637ffe28e314610548578063852a12e31461055d57806386aceac71461057d5780638da5cb5b1461059357806395d89b41146105a857806397b3fcaa146105bd578063a0712d68146105ff578063a126d6011461061f578063a52602b91461063f578063a5e90eee14610654578063a8aa1b3114610674578063ac784ddc14610689578063b580a1281461069d578063c2946e24146106b2578063cb50087f146106c7578063cd377c53146106e7578063d539fe4b146106fc578063de747e5a14610711578063f1a392da14610731578063f20aea0f14610747578063f2fde38b14610775578063f3ae241514610795578063f4993018146107ce578063f9e40ac4146107ee578063fbfa77cf14610811578063fd6bac7014610826578063fec18b3a1461083b57600080fd5b3661026557005b600080fd5b34801561027657600080fd5b5061027f610859565b60405161028c91906143f3565b60405180910390f35b3480156102a157600080fd5b506102aa6108e7565b60405190815260200161028c565b3480156102c457600080fd5b506019546001600160a01b03165b60405161028c9190614406565b3480156102eb57600080fd5b506102aa60095481565b34801561030157600080fd5b5061031561031036600461441a565b6108fc565b005b34801561032357600080fd5b5061031561033236600461441a565b610970565b34801561034357600080fd5b506005546102aa565b34801561035857600080fd5b506103616109da565b60405160ff909116815260200161028c565b34801561037f57600080fd5b506102aa610a4d565b34801561039457600080fd5b506102d2610a72565b3480156103a957600080fd5b506102aa6103b8366004614448565b610a81565b3480156103c957600080fd5b506102aa610a92565b3480156103de57600080fd5b506102aa610b09565b3480156103f357600080fd5b506103156104023660046144a9565b610b4a565b34801561041357600080fd5b50600e546104229061ffff1681565b60405161ffff909116815260200161028c565b34801561044157600080fd5b506011546102aa565b34801561045657600080fd5b506102aa600181565b34801561046b57600080fd5b506102d2610cb1565b34801561048057600080fd5b506102aa600c5481565b34801561049657600080fd5b506103156104a5366004614448565b610cc0565b3480156104b657600080fd5b506102d2610d39565b3480156104cb57600080fd5b506103156104da36600461441a565b610d48565b3480156104eb57600080fd5b50610315610e3a565b34801561050057600080fd5b50610315610e75565b34801561051557600080fd5b506002546105239060ff1681565b604051901515815260200161028c565b34801561053f57600080fd5b506102d2610eb1565b34801561055457600080fd5b50610315610ec0565b34801561056957600080fd5b506102aa61057836600461441a565b610fe4565b34801561058957600080fd5b506102aa600d5481565b34801561059f57600080fd5b506102d261104b565b3480156105b457600080fd5b5061027f61105a565b3480156105c957600080fd5b506105d2611067565b604080519687526020870195909552938501929092526060840152608083015260a082015260c00161028c565b34801561060b57600080fd5b506102aa61061a36600461441a565b6111f0565b34801561062b57600080fd5b5061031561063a36600461441a565b611249565b34801561064b57600080fd5b506102d26112f2565b34801561066057600080fd5b5061031561066f36600461450b565b611301565b34801561068057600080fd5b506102d261138f565b34801561069557600080fd5b506000610523565b3480156106a957600080fd5b506102aa61139e565b3480156106be57600080fd5b506102aa6114a1565b3480156106d357600080fd5b506103156106e236600461441a565b61150b565b3480156106f357600080fd5b506102aa611597565b34801561070857600080fd5b506010546102aa565b34801561071d57600080fd5b5061031561072c366004614544565b6115c7565b34801561073d57600080fd5b506102aa60035481565b34801561075357600080fd5b50610767610762366004614568565b61163a565b60405161028c92919061460e565b34801561078157600080fd5b50610315610790366004614448565b611783565b3480156107a157600080fd5b506105236107b0366004614448565b6001600160a01b031660009081526008602052604090205460ff1690565b3480156107da57600080fd5b506103156107e936600461441a565b611823565b3480156107fa57600080fd5b506108036119d8565b60405161028c92919061463c565b34801561081d57600080fd5b506102d2611a0f565b34801561083257600080fd5b506102d2611a1e565b34801561084757600080fd5b506016546001600160a01b03166102d2565b600680546108669061464a565b80601f01602080910402602001604051908101604052809291908181526020018280546108929061464a565b80156108df5780601f106108b4576101008083540402835291602001916108df565b820191906000526020600020905b8154815290600101906020018083116108c257829003601f168201915b505050505081565b60006108f1611067565b509395945050505050565b3361090561104b565b6001600160a01b0316146109345760405162461bcd60e51b815260040161092b9061467f565b60405180910390fd5b60108190556040518181527f4812bd1abd1ad4ea905335e3af941ec67d6d51ecb36ab58f23af0af081aac57b906020015b60405180910390a150565b3361097961104b565b6001600160a01b03161461099f5760405162461bcd60e51b815260040161092b9061467f565b600d8190556040518181527f5ceaf8b7b0d35f85ef4df565057cd318e70d9f8681f89425a2d5e09c1c70a7f990602001610965565b60055490565b600a546040805163313ce56760e01b815290516000926001600160a01b03169163313ce5679160048083019260209291908290030181865afa158015610a24573d6000803e3d6000fd5b505050506040513d601f19601f82011682018060405250810190610a4891906146b4565b905090565b6000610a48600f54610a6d610a68610a63611b86565b611bf1565b611cfd565b611d2b565b600b546001600160a01b031690565b6000610a8c60115490565b92915050565b600080610aa0610a63611d41565b905080610ab05761271091505090565b6000610aba611d93565b90506000610ac6611e88565b610ad884670de0b6b3a76400006146ed565b610ae2919061470c565b905080610af783670de0b6b3a76400006146ed565b610b01919061470c565b935050505090565b600080610b1560115490565b905060055460001415610b2a57505060095490565b600554600954610b3a90836146ed565b610b44919061470c565b91505090565b610b52611a0f565b6001600160a01b0316336001600160a01b031614610b825760405162461bcd60e51b815260040161092b9061472e565b60005b81811015610c58576000838383818110610ba157610ba1614759565b9050602002016020810190610bb69190614448565b90506000816001600160a01b03166370a08231306040518263ffffffff1660e01b8152600401610be69190614406565b602060405180830381865afa158015610c03573d6000803e3d6000fd5b505050506040513d601f19601f82011682018060405250810190610c27919061476f565b90508015610c4357610c436001600160a01b0383168783611f0e565b50508080610c5090614788565b915050610b85565b504715610c6957610c693347611f2d565b826001600160a01b03167f2b06144d62a3a5785ec284ed392b3d106610ae2ce7af270417c4ca38277571048383604051610ca49291906147a3565b60405180910390a2505050565b6014546001600160a01b031690565b33610cc961104b565b6001600160a01b031614610cef5760405162461bcd60e51b815260040161092b9061467f565b600480546001600160a01b0319166001600160a01b0383169081179091556040517fdabed91cf547ed2ee836d5787bae42fc3bca488166c65791051105490fbcf7ca90600090a250565b600a546001600160a01b031690565b610d5061104b565b6001600160a01b0316336001600160a01b03161480610d8357503360009081526008602052604090205460ff1615156001145b610d9f5760405162461bcd60e51b815260040161092b906147f1565b610da761104b565b6001600160a01b0316336001600160a01b03161480610dc857508061012c10155b610e055760405162461bcd60e51b815260206004820152600e60248201526d484c503a20544f4f204c4152474560901b604482015260640161092b565b600c8190556040518181527f3e87fa3180c1babd204ce79375729d7a6694a2d2f0fb3e250f9138488ed066bb90602001610965565b33610e4361104b565b6001600160a01b031614610e695760405162461bcd60e51b815260040161092b9061467f565b610e736000611f7e565b565b60405162461bcd60e51b81526020600482015260116024820152704d5553545f5553455f534c49505041474560781b604482015260640161092b565b6015546001600160a01b031690565b60026001541415610ee35760405162461bcd60e51b815260040161092b90614819565b60026001556000610ef2610a92565b9050600d54811115610f325760405162461bcd60e51b8152602060048201526009602482015268484c503a205341464560b81b604482015260640161092b565b6000610f3c611fce565b5090506000600d54612710838561251c610f5691906146ed565b610f6091906146ed565b610f6a919061470c565b610f74919061470c565b9050600080610f828361208f565b91509150610f8f8161219d565b610f9882612219565b337fdacd0a02d11128b25d6c3de23e91f71aa9dd5620c6f5c69f35a18d15e116846886610fc3610a92565b604051610fd192919061463c565b60405180910390a2505060018055505050565b6000610fee611a0f565b6001600160a01b0316336001600160a01b03161461101e5760405162461bcd60e51b815260040161092b9061472e565b60006110298361224e565b9050806005600082825461103d9190614850565b909155506000949350505050565b6000546001600160a01b031690565b600780546108669061464a565b600080600080600080611078611d93565b9450611082611d41565b935061108d8461247d565b600b546040516370a0823160e01b81529194506000916001600160a01b03909116906370a08231906110c3903090600401614406565b602060405180830381865afa1580156110e0573d6000803e3d6000fd5b505050506040513d601f19601f82011682018060405250810190611104919061476f565b90506000811561111c576111178261247d565b61111f565b60005b905060008061112c611fce565b915091506111398161247d565b6111439083614867565b600a546040516370a0823160e01b81529197506001600160a01b0316906370a0823190611174903090600401614406565b602060405180830381865afa158015611191573d6000803e3d6000fd5b505050506040513d601f19601f820116820180604052508101906111b5919061476f565b94508285886111c4898d614867565b6111ce9190614850565b6111d89190614867565b6111e29190614867565b995050505050909192939495565b60006111fa611a0f565b6001600160a01b0316336001600160a01b03161461122a5760405162461bcd60e51b815260040161092b9061472e565b6000611235836124b0565b9050806005600082825461103d9190614867565b80806112545750600c545b8061125d6114a1565b111561127b5760405162461bcd60e51b815260040161092b9061487f565b61128361104b565b6001600160a01b0316336001600160a01b031614806112b657503360009081526008602052604090205460ff1615156001145b6112d25760405162461bcd60e51b815260040161092b906147f1565b6112da61266f565b506112e3611067565b50505060119290925550505050565b6012546001600160a01b031690565b3361130a61104b565b6001600160a01b0316146113305760405162461bcd60e51b815260040161092b9061467f565b6001600160a01b038216600081815260086020908152604091829020805460ff191685151590811790915591519182527f2458f684567d238b66deaa0126265bf3becabda0caaab7ebdda6b1794614a2d3910160405180910390a25050565b601b546001600160a01b031690565b6000806113a9611fce565b91505060006113b6611d41565b600b546040516370a0823160e01b81529192506000916001600160a01b03909116906370a08231906113ec903090600401614406565b602060405180830381865afa158015611409573d6000803e3d6000fd5b505050506040513d601f19601f8201168201806040525081019061142d919061476f565b6114379084614867565b90508181141561144b576000935050505090565b8161145b57612710935050505090565b81811161148957816127106114708383614850565b61147a91906146ed565b611484919061470c565b610b01565b816127106114978284614850565b610af791906146ed565b6000806114b5670de0b6b3a764000061247d565b905060006114ca670de0b6b3a7640000611bf1565b90508181116114da5780826114dd565b81815b9092509050806127106114f08483614850565b6114fa91906146ed565b611504919061470c565b9250505090565b61151361104b565b6001600160a01b0316336001600160a01b0316148061154657503360009081526008602052604090205460ff1615156001145b6115625760405162461bcd60e51b815260040161092b906147f1565b600f8190556040518181527f13d3e08a22782064d3062f92ff1101a623b60e3bf91f236b5d1e9fdddfc12a1290602001610965565b6000670de0b6b3a76400006115ab60105490565b6115b3611e88565b6115bd91906146ed565b610a48919061470c565b336115d061104b565b6001600160a01b0316146115f65760405162461bcd60e51b815260040161092b9061467f565b600e805461ffff191661ffff83169081179091556040519081527f36c98a54ec4f90fe58a67bf25cfc1691dbd53639eee3513536d83e8d34fb0a9b90602001610965565b60608061164561104b565b6001600160a01b0316336001600160a01b0316148061167857503360009081526008602052604090205460ff1615156001145b6116945760405162461bcd60e51b815260040161092b906147f1565b600c54806116a06114a1565b11156116be5760405162461bcd60e51b815260040161092b9061487f565b600260015414156116e15760405162461bcd60e51b815260040161092b90614819565b600260015560006116f0611067565b50939450508915925061170d9150505761170a8888612888565b93505b84156117205761171d8686612b31565b92505b61172b600019612dcf565b6040518181527f80f97f878e16410266694f134ddf012f2be424f54f8b5cafa107eccc51d00d589060200160405180910390a1506001805561176b611067565b50505060119290925550929791965090945050505050565b3361178c61104b565b6001600160a01b0316146117b25760405162461bcd60e51b815260040161092b9061467f565b6001600160a01b0381166118175760405162461bcd60e51b815260206004820152602660248201527f4f776e61626c653a206e6577206f776e657220697320746865207a65726f206160448201526564647265737360d01b606482015260840161092b565b61182081611f7e565b50565b61182b61104b565b6001600160a01b0316336001600160a01b0316148061185e57503360009081526008602052604090205460ff1615156001145b61187a5760405162461bcd60e51b815260040161092b906147f1565b80806118855750600c545b8061188e6114a1565b11156118ac5760405162461bcd60e51b815260040161092b9061487f565b600260015414156118cf5760405162461bcd60e51b815260040161092b90614819565b600260015560006118de612fd0565b905060006118ea61139e565b600e5490915061ffff1681116119345760405162461bcd60e51b815260206004820152600f60248201526e09098a07440a48a845aa890a48aa69608b1b604482015260640161092b565b816119405750506119cc565b600061194b8361314e565b90506119786103e861195f836103e76146ed565b611969919061470c565b6119738386614850565b613171565b7fe0b4077da7dfa5015ff10fab6a214f37acc1b23d745f30336942d17e07848c6b6119aa670de0b6b3a764000061247d565b6040805191825260208201859052810185905260600160405180910390a15050505b600180556112e3611067565b600080611a066119e6610d39565b6119ee610a72565b6119f661138f565b6001600160a01b0316919061329c565b90939092509050565b6004546001600160a01b031690565b6013546001600160a01b031690565b801580611aa75750604051636eb1769f60e11b81523060048201526001600160a01b03838116602483015284169063dd62ed3e90604401602060405180830381865afa158015611a81573d6000803e3d6000fd5b505050506040513d601f19601f82011682018060405250810190611aa5919061476f565b155b611b125760405162461bcd60e51b815260206004820152603660248201527f5361666545524332303a20617070726f76652066726f6d206e6f6e2d7a65726f60448201527520746f206e6f6e2d7a65726f20616c6c6f77616e636560501b606482015260840161092b565b611b688363095ea7b360e01b8484604051602401611b319291906148ac565b60408051601f198184030181529190526020810180516001600160e01b03166001600160e01b03199093169290921790915261335c565b505050565b6060611b7c848460008561342e565b90505b9392505050565b6000611b90611a1e565b6001600160a01b0316633b1d21a26040518163ffffffff1660e01b8152600401602060405180830381865afa158015611bcd573d6000803e3d6000fd5b505050506040513d601f19601f82011682018060405250810190610a48919061476f565b6000611bfb610eb1565b6001600160a01b031663fc57d4df611c116112f2565b6040518263ffffffff1660e01b8152600401611c2d9190614406565b602060405180830381865afa158015611c4a573d6000803e3d6000fd5b505050506040513d601f19601f82011682018060405250810190611c6e919061476f565b611c76610eb1565b6001600160a01b031663fc57d4df611c8c611a1e565b6040518263ffffffff1660e01b8152600401611ca89190614406565b602060405180830381865afa158015611cc5573d6000803e3d6000fd5b505050506040513d601f19601f82011682018060405250810190611ce9919061476f565b611cf390846146ed565b610a8c919061470c565b600080611d08611597565b905080611d1781612710614867565b611d2190856146ed565b611b7f919061470c565b6000818310611d3a5781611b7f565b5090919050565b6000611d4b611a1e565b6001600160a01b03166395dd9193306040518263ffffffff1660e01b8152600401611d769190614406565b602060405180830381865afa158015611bcd573d6000803e3d6000fd5b600080611d9e6112f2565b6001600160a01b03166370a08231306040518263ffffffff1660e01b8152600401611dc99190614406565b602060405180830381865afa158015611de6573d6000803e3d6000fd5b505050506040513d601f19601f82011682018060405250810190611e0a919061476f565b9050670de0b6b3a7640000611e1d6112f2565b6001600160a01b031663182df0f56040518163ffffffff1660e01b8152600401602060405180830381865afa158015611e5a573d6000803e3d6000fd5b505050506040513d601f19601f82011682018060405250810190611e7e919061476f565b610b3a90836146ed565b600080611e93610cb1565b6001600160a01b0316638e8f294b611ea96112f2565b6040518263ffffffff1660e01b8152600401611ec59190614406565b606060405180830381865afa158015611ee2573d6000803e3d6000fd5b505050506040513d601f19601f82011682018060405250810190611f0691906148c5565b509392505050565b611b688363a9059cbb60e01b8484604051602401611b319291906148ac565b600080600080600085875af1905080611b685760405162461bcd60e51b815260206004820152601360248201527211551217d514905394d1915497d19052531151606a1b604482015260640161092b565b600080546001600160a01b038381166001600160a01b0319831681178455604051919092169283917f8be0079c531659141344cd1fd0a4f28419497f9722a3daafe3b4186f6b6457e09190a35050565b6000806000611fdb613556565b9050600080611fe86119d8565b915091506000611ff661138f565b6001600160a01b03166318160ddd6040518163ffffffff1660e01b8152600401602060405180830381865afa158015612033573d6000803e3d6000fd5b505050506040513d601f19601f82011682018060405250810190612057919061476f565b90508061206485856146ed565b61206e919061470c565b95508061207b85846146ed565b612085919061470c565b9450505050509091565b600080600061209c611fce565b5090508084106120b25750600093849350915050565b60006120bc613556565b90506000826120cb87846146ed565b6120d5919061470c565b905060006120e38284614850565b905060006120ef61138f565b6001600160a01b03166370a08231306040518263ffffffff1660e01b815260040161211a9190614406565b602060405180830381865afa158015612137573d6000803e3d6000fd5b505050506040513d601f19601f8201168201806040525081019061215b919061476f565b905080821115612177576121776121728284614850565b6135e4565b811561218b576121868261364c565b61218f565b6000805b965096505050505050915091565b6121a5611a1e565b6001600160a01b0316630e752702826040518263ffffffff1660e01b81526004016121d291815260200190565b6020604051808303816000875af11580156121f1573d6000803e3d6000fd5b505050506040513d601f19601f82011682018060405250810190612215919061476f565b5050565b6122216112f2565b6001600160a01b031663a0712d68826040518263ffffffff1660e01b81526004016121d291815260200190565b6000600c548061225c6114a1565b111561227a5760405162461bcd60e51b815260040161092b9061487f565b6002600154141561229d5760405162461bcd60e51b815260040161092b90614819565b6002600155826122b0576000915061245f565b60006122ba612fd0565b9050806122cb57600092505061245f565b600a546040516370a0823160e01b81526000916001600160a01b0316906370a08231906122fc903090600401614406565b602060405180830381865afa158015612319573d6000803e3d6000fd5b505050506040513d601f19601f8201168201806040525081019061233d919061476f565b9050848110156123ba57600060001986146123745761236f836103e8612365896103ed6146ed565b610a6d919061470c565b612376565b825b9050828110156123a2578161239361238e8284614850565b61374a565b61239d9190614867565b6123aa565b6123aa61266f565b90506123b68187611d2b565b9550505b6123c2611067565b5093955061240193508592506123da91506109d49050565b6123e5886001614867565b6123ef91906146ed565b6123f9919061470c565b600554611d2b565b93506124233061240f611a0f565b600a546001600160a01b03169190886137e9565b7f884edad9ce6fa2440d8a54cc123490eb96d2768479d49ff9c7366125a942436433866040516124549291906148ac565b60405180910390a150505b6001805561246b611067565b50505060119290925550919392505050565b600081156124a857600b54600a546124a39184916001600160a01b03918216911661380a565b610a8c565b600092915050565b6000600c54806124be6114a1565b11156124dc5760405162461bcd60e51b815260040161092b9061487f565b600260015414156124ff5760405162461bcd60e51b815260040161092b90614819565b600260015582612512576000915061245f565b600061251c612fd0565b9050612526610a4d565b6125308286614867565b11156125725760405162461bcd60e51b81526020600482015260116024820152701213140e8813d5915497d3505617d51593607a1b604482015260640161092b565b6005541561259e57808461258560055490565b61258f91906146ed565b612599919061470c565b6125a0565b835b600a549093506001600160a01b03166323b872dd6125bc611a0f565b30876040518463ffffffff1660e01b81526004016125dc93929190614908565b6020604051808303816000875af11580156125fb573d6000803e3d6000fd5b505050506040513d601f19601f8201168201806040525081019061261f919061492c565b5061262984613838565b7fe1fffcc4923d04b559f4d29a8bfc6cda04eb5b0d3c460751c2402c5c5cc9109c338560405161265a9291906148ac565b60405180910390a1506001805561246b611067565b600061267b600061208f565b50506000612687613891565b600b546040516370a0823160e01b81529192506000916001600160a01b03909116906370a08231906126bd903090600401614406565b602060405180830381865afa1580156126da573d6000803e3d6000fd5b505050506040513d601f19601f820116820180604052508101906126fe919061476f565b905080821115612747576127416127158284614850565b600a54600b546001600160a01b03918216911661273061138f565b6001600160a01b03169291906138e5565b5061278a565b8181111561278a5761278861275c8383614850565b600b54600a546001600160a01b03918216911661277761138f565b6001600160a01b03169291906139c4565b505b600b546040516370a0823160e01b8152612802916001600160a01b0316906370a08231906127bc903090600401614406565b602060405180830381865afa1580156127d9573d6000803e3d6000fd5b505050506040513d601f19601f820116820180604052508101906127fd919061476f565b61219d565b600061280c613a25565b905061281781613a5a565b600a546040516370a0823160e01b81526001600160a01b03909116906370a0823190612847903090600401614406565b602060405180830381865afa158015612864573d6000803e3d6000fd5b505050506040513d601f19601f82011682018060405250810190610b01919061476f565b601854601c54604051631c57762b60e31b81526060926001600160a01b03169163e2bbb158916128be919060009060040161463c565b600060405180830381600087803b1580156128d857600080fd5b505af11580156128ec573d6000803e3d6000fd5b50600192506128f9915050565b604051908082528060200260200182016040528015612922578160200160208202803683370190505b50601a546040516370a0823160e01b81529192506001600160a01b0316906370a0823190612954903090600401614406565b602060405180830381865afa158015612971573d6000803e3d6000fd5b505050506040513d601f19601f82011682018060405250810190612995919061476f565b816000815181106129a8576129a8614759565b602002602001018181525050806000815181106129c7576129c7614759565b6020026020010151600014156129dc57610a8c565b601954612a3e906001600160a01b031684846000816129fd576129fd614759565b9050602002810190612a0f919061495f565b601a5484516001600160a01b03909116908590600090612a3157612a31614759565b6020026020010151613ad4565b601a5481516001600160a01b0390911690600080516020614c0d833981519152908390600090612a7057612a70614759565b6020026020010151604051612a8791815260200190565b60405180910390a2478015612b2a57612a9e610a72565b6001600160a01b031663d0e30db0826040518263ffffffff1660e01b81526004016000604051808303818588803b158015612ad857600080fd5b505af1158015612aec573d6000803e3d6000fd5b5050505050612af9610a72565b6001600160a01b0316600080516020614c0d83398151915282604051612b2191815260200190565b60405180910390a25b5092915050565b60408051600280825260608083018452926000929190602083019080368337019050509050612b5e6112f2565b81600081518110612b7157612b71614759565b60200260200101906001600160a01b031690816001600160a01b031681525050612b99611a1e565b81600181518110612bac57612bac614759565b60200260200101906001600160a01b031690816001600160a01b031681525050612bd4610cb1565b6001600160a01b0316631c3db2e030836040518363ffffffff1660e01b8152600401612c0192919061497f565b600060405180830381600087803b158015612c1b57600080fd5b505af1158015612c2f573d6000803e3d6000fd5b5060019250612c3c915050565b604051908082528060200260200182016040528015612c65578160200160208202803683370190505b506017546040516370a0823160e01b81529193506001600160a01b0316906370a0823190612c97903090600401614406565b602060405180830381865afa158015612cb4573d6000803e3d6000fd5b505050506040513d601f19601f82011682018060405250810190612cd8919061476f565b82600081518110612ceb57612ceb614759565b60200260200101818152505081600081518110612d0a57612d0a614759565b602002602001015160001415612d205750610a8c565b6016546001600160a01b031615612d8657601654612d86906001600160a01b03168585600081612d5257612d52614759565b9050602002810190612d64919061495f565b60175485516001600160a01b03909116908690600090612a3157612a31614759565b60175482516001600160a01b0390911690600080516020614c0d833981519152908490600090612db857612db8614759565b6020026020010151604051612b2191815260200190565b600a546040516370a0823160e01b81526000916001600160a01b0316906370a0823190612e00903090600401614406565b602060405180830381865afa158015612e1d573d6000803e3d6000fd5b505050506040513d601f19601f82011682018060405250810190612e41919061476f565b600b546040516370a0823160e01b81529192506000916001600160a01b03909116906370a0823190612e77903090600401614406565b602060405180830381865afa158015612e94573d6000803e3d6000fd5b505050506040513d601f19601f82011682018060405250810190612eb8919061476f565b90506000612ec4611fce565b91505080841015612ed55750505050565b6000612f036002612ee586613c79565b612eef9086614867565b612ef9919061470c565b610a6d8488614850565b90506000612f108261247d565b905084811015612f5657612f42612f278287614850565b600a54600b546001600160a01b03918216911661277761138f565b612f4c9085614867565b9350809450612f7b565b81841115612f7b57612f6b61275c8386614850565b612f759086614867565b94508193505b836000612f878261247d565b905080871015612f9f575085612f9c81613c79565b91505b80612fae575050505050505050565b6000612fba8284613c9f565b9050612fc581613d3f565b505050505050505050565b600080612fdb613a25565b90506000612fe7613891565b90506000612ff48261247d565b600b546040516370a0823160e01b81529192506000916001600160a01b03909116906370a082319061302a903090600401614406565b602060405180830381865afa158015613047573d6000803e3d6000fd5b505050506040513d601f19601f8201168201806040525081019061306b919061476f565b9050600081156130835761307e8261247d565b613086565b60005b90506000613092611fce565b50600a546040516370a0823160e01b81529192506000916001600160a01b03909116906370a08231906130c9903090600401614406565b602060405180830381865afa1580156130e6573d6000803e3d6000fd5b505050506040513d601f19601f8201168201806040525081019061310a919061476f565b905082818661311a8560026146ed565b613124908b614867565b61312e9190614850565b6131389190614867565b6131429190614867565b97505050505050505090565b600080613159611597565b905061316781612710614867565b611d2182856146ed565b600061317c83613c79565b90506000613188611d41565b9050808211156131d9576131b460006131a18686613d72565b116131ac578461208f565b60005b61208f565b50506131bf83613de6565b506131d490506131cf8284614850565b613e43565b61328d565b8082101561328d576131eb600061208f565b5050600b546040516370a0823160e01b815260009161326f916001600160a01b03909116906370a0823190613224903090600401614406565b602060405180830381865afa158015613241573d6000803e3d6000fd5b505050506040513d601f19601f82011682018060405250810190613265919061476f565b610a6d8585614850565b90508015613280576132808161219d565b61328984613de6565b5050505b61329682612dcf565b50505050565b60008060006132ab8585613e78565b509050600080876001600160a01b0316630902f1ac6040518163ffffffff1660e01b8152600401606060405180830381865afa1580156132ef573d6000803e3d6000fd5b505050506040513d601f19601f8201168201806040525081019061331391906149f7565b506001600160701b031691506001600160701b03169150826001600160a01b0316876001600160a01b03161461334a57808261334d565b81815b90999098509650505050505050565b60006133b1826040518060400160405280602081526020017f5361666545524332303a206c6f772d6c6576656c2063616c6c206661696c6564815250856001600160a01b0316611b6d9092919063ffffffff16565b805190915015611b6857808060200190518101906133cf919061492c565b611b685760405162461bcd60e51b815260206004820152602a60248201527f5361666545524332303a204552433230206f7065726174696f6e20646964206e6044820152691bdd081cdd58d8d9595960b21b606482015260840161092b565b60608247101561348f5760405162461bcd60e51b815260206004820152602660248201527f416464726573733a20696e73756666696369656e742062616c616e636520666f6044820152651c8818d85b1b60d21b606482015260840161092b565b843b6134dd5760405162461bcd60e51b815260206004820152601d60248201527f416464726573733a2063616c6c20746f206e6f6e2d636f6e7472616374000000604482015260640161092b565b600080866001600160a01b031685876040516134f99190614a3c565b60006040518083038185875af1925050503d8060008114613536576040519150601f19603f3d011682016040523d82523d6000602084013e61353b565b606091505b509150915061354b828286613f5b565b979650505050505050565b600080613561613f94565b601b546040516370a0823160e01b81529192506000916001600160a01b03909116906370a0823190613597903090600401614406565b602060405180830381865afa1580156135b4573d6000803e3d6000fd5b505050506040513d601f19601f820116820180604052508101906135d8919061476f565b90506115048183614867565b601854601c54604051630441a3e760e41b81526001600160a01b039092169163441a3e709161361791859060040161463c565b600060405180830381600087803b15801561363157600080fd5b505af1158015613645573d6000803e3d6000fd5b5050505050565b60008061367361365a61138f565b8461366361138f565b6001600160a01b03169190611f0e565b600061368d613680610d39565b613688610a72565b613e78565b50905060008061369b61138f565b6001600160a01b03166389afcb44306040518263ffffffff1660e01b81526004016136c69190614406565b60408051808303816000875af11580156136e4573d6000803e3d6000fd5b505050506040513d601f19601f820116820180604052508101906137089190614a4e565b91509150613714610d39565b6001600160a01b0316836001600160a01b031614613733578082613736565b81815b94509450505050915091565b505050505050565b6000806137568361314e565b90506000613762611fce565b509050600061376f611d41565b9050600061377c84613c79565b9050828410158061378d5750818110155b156137a45761379a61266f565b9695505050505050565b6000806137b46131af8787614850565b915091506137c18161219d565b6137d36137ce838a614850565b61400f565b6137dd9083614867565b98975050505050505050565b613296846323b872dd60e01b858585604051602401611b3193929190614908565b60008361381957506000611b7f565b60008061382985856119f661138f565b9150915061379a868383614042565b6103e88110156138455750565b60006138508261314e565b9050600061385d82613c79565b905061387161386c8385614850565b612219565b61387a81613e43565b60006138868383613c9f565b905061329681613d3f565b600061389b611a1e565b6001600160a01b03166317bfdfbc306040518263ffffffff1660e01b81526004016138c69190614406565b6020604051808303816000875af1158015611bcd573d6000803e3d6000fd5b6000806138f486868686614104565b905060006139028486613e78565b509050600080826001600160a01b0316876001600160a01b0316146139295787600061392d565b6000885b90925090506139466001600160a01b0388168a86611f0e565b6040805160008152602081019182905263022c0d9f60e01b9091526001600160a01b038a169063022c0d9f906139859085908590309060248101614a72565b600060405180830381600087803b15801561399f57600080fd5b505af11580156139b3573d6000803e3d6000fd5b50959b9a5050505050505050505050565b6000806139d3868686866141ca565b905060006139e18486613e78565b509050600080826001600160a01b0316876001600160a01b031614613a0857836000613a0c565b6000845b90925090506139466001600160a01b0388168a8a611f0e565b6000613a2f6112f2565b6001600160a01b0316633af9e669306040518263ffffffff1660e01b81526004016138c69190614406565b6000613a646112f2565b6001600160a01b031663852a12e3836040518263ffffffff1660e01b8152600401613a9191815260200190565b6020604051808303816000875af1158015613ab0573d6000803e3d6000fd5b505050506040513d601f19601f82011682018060405250810190611b68919061476f565b6000613ae08480614a9f565b6001613aec8780614a9f565b613af7929150614850565b818110613b0657613b06614759565b9050602002016020810190613b1b9190614448565b90506001600160a01b038316613b318580614a9f565b6000818110613b4257613b42614759565b9050602002016020810190613b579190614448565b6001600160a01b0316148015613b855750613b70610a72565b6001600160a01b0316816001600160a01b0316145b80613ba85750613b93610d39565b6001600160a01b0316816001600160a01b0316145b613bec5760405162461bcd60e51b81526020600482015260156024820152740928cc2e4dac2c4d8ca7440aea49e9c8ebea082a89605b1b604482015260640161092b565b6001600160a01b0385166338ed1739836020870135613c0b8880614a9f565b308a604001356040518763ffffffff1660e01b8152600401613c3296959493929190614ae8565b6000604051808303816000875af1158015613c51573d6000803e3d6000fd5b505050506040513d6000823e601f3d908101601f191682016040526137429190810190614b5b565b600081156124a857600a54600b546124a39184916001600160a01b03918216911661380a565b6000613cb5613cac61138f565b84613663610d39565b613cc9613cc061138f565b83613663610a72565b613cd161138f565b6001600160a01b0316636a627842306040518263ffffffff1660e01b8152600401613cfc9190614406565b6020604051808303816000875af1158015613d1b573d6000803e3d6000fd5b505050506040513d601f19601f82011682018060405250810190611b7f919061476f565b601854601c54604051631c57762b60e31b81526001600160a01b039092169163e2bbb1589161361791859060040161463c565b600080613d7d611d93565b905080831015613d91576000915050610a8c565b6000613d9b611fce565b5090506000818611613dae576000613db8565b613db88287614850565b90506000613dc68487614850565b9050808210613ddc576000945050505050610a8c565b61354b8282614850565b6000806000613df3611d93565b905083811415613e095750600093849350915050565b838111613e2957613e22613e1d8286614850565b61428b565b6000613e38565b6000613e386137ce8684614850565b909590945092505050565b613e4b611a1e565b6001600160a01b031663c5ebeaec826040518263ffffffff1660e01b81526004016121d291815260200190565b600080826001600160a01b0316846001600160a01b03161415613edd5760405162461bcd60e51b815260206004820152601d60248201527f556e695574696c733a204944454e544943414c5f414444524553534553000000604482015260640161092b565b826001600160a01b0316846001600160a01b031610613efd578284613f00565b83835b90925090506001600160a01b038216613f545760405162461bcd60e51b8152602060048201526016602482015275556e695574696c733a205a45524f5f4144445245535360501b604482015260640161092b565b9250929050565b60608315613f6a575081611b7f565b825115613f7a5782518084602001fd5b8160405162461bcd60e51b815260040161092b91906143f3565b601854601c546040516393f1a40b60e01b8152600481019190915230602482015260009182916001600160a01b03909116906393f1a40b906044016040805180830381865afa158015613feb573d6000803e3d6000fd5b505050506040513d601f19601f82011682018060405250810190612b2a9190614a4e565b60008061401a614324565b9050828111614029578061402b565b825b9150811561403c5761403c82613a5a565b50919050565b60008084116140935760405162461bcd60e51b815260206004820152601d60248201527f556e695574696c733a20494e53554646494349454e545f414d4f554e54000000604482015260640161092b565b6000831180156140a35750600082115b6140ef5760405162461bcd60e51b815260206004820181905260248201527f556e695574696c733a20494e53554646494349454e545f4c4951554944495459604482015260640161092b565b826140fa83866146ed565b611b7c919061470c565b60008084116141615760405162461bcd60e51b8152602060048201526024808201527f556e695574696c733a20494e53554646494349454e545f4f55545055545f414d60448201526313d5539560e21b606482015260840161092b565b60008061416f87868661329c565b9092509050600061418087846146ed565b61418c906103e86146ed565b9050600061419a8884614850565b6141a6906103e56146ed565b90506141b2818361470c565b6141bd906001614867565b9998505050505050505050565b60008084116142275760405162461bcd60e51b815260206004820152602360248201527f556e695574696c733a20494e53554646494349454e545f494e5055545f414d4f60448201526215539560ea1b606482015260840161092b565b60008061423587868661329c565b90925090506000614248876103e56146ed565b9050600061425683836146ed565b9050600082614267866103e86146ed565b6142719190614867565b905061427d818361470c565b9a9950505050505050505050565b600080614296610d39565b6001600160a01b03166370a08231306040518263ffffffff1660e01b81526004016142c19190614406565b602060405180830381865afa1580156142de573d6000803e3d6000fd5b505050506040513d601f19601f82011682018060405250810190614302919061476f565b90508281116143115780614313565b825b9150811561403c5761403c82612219565b60008061432f611d93565b9050600061433e610a63611d41565b90506000606361434c611e88565b61435e84670de0b6b3a76400006146ed565b6143699060646146ed565b614373919061470c565b61437d919061470c565b905082811115614391576000935050505090565b610b018184614850565b60005b838110156143b657818101518382015260200161439e565b838111156132965750506000910152565b600081518084526143df81602086016020860161439b565b601f01601f19169290920160200192915050565b602081526000611b7f60208301846143c7565b6001600160a01b0391909116815260200190565b60006020828403121561442c57600080fd5b5035919050565b6001600160a01b038116811461182057600080fd5b60006020828403121561445a57600080fd5b8135611b7f81614433565b60008083601f84011261447757600080fd5b5081356001600160401b0381111561448e57600080fd5b6020830191508360208260051b8501011115613f5457600080fd5b6000806000604084860312156144be57600080fd5b83356144c981614433565b925060208401356001600160401b038111156144e457600080fd5b6144f086828701614465565b9497909650939450505050565b801515811461182057600080fd5b6000806040838503121561451e57600080fd5b823561452981614433565b91506020830135614539816144fd565b809150509250929050565b60006020828403121561455657600080fd5b813561ffff81168114611b7f57600080fd5b6000806000806040858703121561457e57600080fd5b84356001600160401b038082111561459557600080fd5b6145a188838901614465565b909650945060208701359150808211156145ba57600080fd5b506145c787828801614465565b95989497509550505050565b600081518084526020808501945080840160005b83811015614603578151875295820195908201906001016145e7565b509495945050505050565b60408152600061462160408301856145d3565b828103602084015261463381856145d3565b95945050505050565b918252602082015260400190565b600181811c9082168061465e57607f821691505b6020821081141561403c57634e487b7160e01b600052602260045260246000fd5b6020808252818101527f4f776e61626c653a2063616c6c6572206973206e6f7420746865206f776e6572604082015260600190565b6000602082840312156146c657600080fd5b815160ff81168114611b7f57600080fd5b634e487b7160e01b600052601160045260246000fd5b6000816000190483118215151615614707576147076146d7565b500290565b60008261472957634e487b7160e01b600052601260045260246000fd5b500490565b60208082526011908201527014dd1c985d0e8813d3931657d590555315607a1b604082015260600190565b634e487b7160e01b600052603260045260246000fd5b60006020828403121561478157600080fd5b5051919050565b600060001982141561479c5761479c6146d7565b5060010190565b60208082528181018390526000908460408401835b868110156147e65782356147cb81614433565b6001600160a01b0316825291830191908301906001016147b8565b509695505050505050565b6020808252600e908201526d0a6e8e4c2e874409c9ebe82aaa8960931b604082015260600190565b6020808252601f908201527f5265656e7472616e637947756172643a207265656e7472616e742063616c6c00604082015260600190565b600082821015614862576148626146d7565b500390565b6000821982111561487a5761487a6146d7565b500190565b60208082526013908201527209098a07440a0a492868abe9a92a69a82a8869606b1b604082015260600190565b6001600160a01b03929092168252602082015260400190565b6000806000606084860312156148da57600080fd5b83516148e5816144fd565b6020850151604086015191945092506148fd816144fd565b809150509250925092565b6001600160a01b039384168152919092166020820152604081019190915260600190565b60006020828403121561493e57600080fd5b8151611b7f816144fd565b634e487b7160e01b600052604160045260246000fd5b60008235605e1983360301811261497557600080fd5b9190910192915050565b6001600160a01b038381168252604060208084018290528451918401829052600092858201929091906060860190855b818110156149cd5785518516835294830194918301916001016149af565b509098975050505050505050565b80516001600160701b03811681146149f257600080fd5b919050565b600080600060608486031215614a0c57600080fd5b614a15846149db565b9250614a23602085016149db565b9150604084015163ffffffff811681146148fd57600080fd5b6000825161497581846020870161439b565b60008060408385031215614a6157600080fd5b505080516020909101519092909150565b84815283602082015260018060a01b038316604082015260806060820152600061379a60808301846143c7565b6000808335601e19843603018112614ab657600080fd5b8301803591506001600160401b03821115614ad057600080fd5b6020019150600581901b3603821315613f5457600080fd5b868152602080820187905260a0604083018190528201859052600090869060c08401835b88811015614b3a578335614b1f81614433565b6001600160a01b031682529282019290820190600101614b0c565b506001600160a01b0396909616606085015250505060800152949350505050565b60006020808385031215614b6e57600080fd5b82516001600160401b0380821115614b8557600080fd5b818501915085601f830112614b9957600080fd5b815181811115614bab57614bab614949565b8060051b604051601f19603f83011681018181108582111715614bd057614bd0614949565b604052918252848201925083810185019188831115614bee57600080fd5b938501935b828510156137dd57845184529385019392850192614bf356fe3efad319b6afe1e0317f51df66abdc4d7a7c8b1cfda31f03440b4ad255af7245a2646970667358221220aafdaf9c30c52c4fe3a798baefec94bdb483f159a3a9635570b9e657ee42324664736f6c634300080a0033",
  "libraries": {
    "UniUtils": "0x5C6079193fA38868f51eac367E622DAda53cf17D"
  },
  "devdoc": {
    "kind": "dev",
    "methods": {
      "getMaxTvl()": {
        "returns": {
          "_0": "MaxTvl"
        }
      },
      "isCEther()": {
        "details": "Only present in Fuse cTokens, not Compound cTokens.",
        "returns": {
          "_0": "True if the strategy accepts ETH, false otherwise."
        }
      },
      "owner()": {
        "details": "Returns the address of the current owner."
      },
      "redeemUnderlying(uint256)": {
        "params": {
          "amount": "The amount of underlying tokens to withdraw."
        },
        "returns": {
          "errCode": "An error code, or 0 if the withdrawal was successful."
        }
      },
      "renounceOwnership()": {
        "details": "Leaves the contract without owner. It will not be possible to call `onlyOwner` functions anymore. Can only be called by the current owner. NOTE: Renouncing ownership will leave the contract without an owner, thereby removing any functionality that is only available to the owner."
      },
      "transferOwnership(address)": {
        "details": "Transfers ownership of the contract to a new account (`newOwner`). Can only be called by the current owner."
      }
    },
    "version": 1
  },
  "userdoc": {
    "kind": "user",
    "methods": {
      "emergencyWithdraw(address,address[])": {
        "notice": "Withdraws any ERC20 tokens back to recipient."
      },
      "getMaxTvl()": {
        "notice": "Returns max deposits a strategy can take."
      },
      "getPricePerShare()": {
        "notice": "Returns the share price of the strategy in `underlying` units, multiplied  by 1e18"
      },
      "isCEther()": {
        "notice": "Returns whether the strategy accepts ETH or an ERC20."
      },
      "redeemUnderlying(uint256)": {
        "notice": "Withdraws a specific amount of underlying tokens from the strategy."
      }
    },
    "version": 1
  },
  "storageLayout": {
    "storage": [
      {
        "astId": 2661,
        "contract": "src/strategies/implementations/USDCftmSPIRITscream.sol:USDCftmSPIRITscream",
        "label": "_owner",
        "offset": 0,
        "slot": "0",
        "type": "t_address"
      },
      {
        "astId": 3337,
        "contract": "src/strategies/implementations/USDCftmSPIRITscream.sol:USDCftmSPIRITscream",
        "label": "_status",
        "offset": 0,
        "slot": "1",
        "type": "t_uint256"
      },
      {
        "astId": 18262,
        "contract": "src/strategies/implementations/USDCftmSPIRITscream.sol:USDCftmSPIRITscream",
        "label": "isIntialized",
        "offset": 0,
        "slot": "2",
        "type": "t_bool"
      },
      {
        "astId": 19464,
        "contract": "src/strategies/implementations/USDCftmSPIRITscream.sol:USDCftmSPIRITscream",
        "label": "isInitialized",
        "offset": 1,
        "slot": "2",
        "type": "t_bool"
      },
      {
        "astId": 19469,
        "contract": "src/strategies/implementations/USDCftmSPIRITscream.sol:USDCftmSPIRITscream",
        "label": "lastHarvest",
        "offset": 0,
        "slot": "3",
        "type": "t_uint256"
      },
      {
        "astId": 19471,
        "contract": "src/strategies/implementations/USDCftmSPIRITscream.sol:USDCftmSPIRITscream",
        "label": "_vault",
        "offset": 0,
        "slot": "4",
        "type": "t_address"
      },
      {
        "astId": 19473,
        "contract": "src/strategies/implementations/USDCftmSPIRITscream.sol:USDCftmSPIRITscream",
        "label": "_shares",
        "offset": 0,
        "slot": "5",
        "type": "t_uint256"
      },
      {
        "astId": 19475,
        "contract": "src/strategies/implementations/USDCftmSPIRITscream.sol:USDCftmSPIRITscream",
        "label": "name",
        "offset": 0,
        "slot": "6",
        "type": "t_string_storage"
      },
      {
        "astId": 19477,
        "contract": "src/strategies/implementations/USDCftmSPIRITscream.sol:USDCftmSPIRITscream",
        "label": "symbol",
        "offset": 0,
        "slot": "7",
        "type": "t_string_storage"
      },
      {
        "astId": 19481,
        "contract": "src/strategies/implementations/USDCftmSPIRITscream.sol:USDCftmSPIRITscream",
        "label": "_managers",
        "offset": 0,
        "slot": "8",
        "type": "t_mapping(t_address,t_bool)"
      },
      {
        "astId": 19483,
        "contract": "src/strategies/implementations/USDCftmSPIRITscream.sol:USDCftmSPIRITscream",
        "label": "BASE_UNIT",
        "offset": 0,
        "slot": "9",
        "type": "t_uint256"
      },
      {
        "astId": 19876,
        "contract": "src/strategies/implementations/USDCftmSPIRITscream.sol:USDCftmSPIRITscream",
        "label": "_underlying",
        "offset": 0,
        "slot": "10",
        "type": "t_contract(IERC20)3990"
      },
      {
        "astId": 19879,
        "contract": "src/strategies/implementations/USDCftmSPIRITscream.sol:USDCftmSPIRITscream",
        "label": "_short",
        "offset": 0,
        "slot": "11",
        "type": "t_contract(IERC20)3990"
      },
      {
        "astId": 19882,
        "contract": "src/strategies/implementations/USDCftmSPIRITscream.sol:USDCftmSPIRITscream",
        "label": "maxPriceMismatch",
        "offset": 0,
        "slot": "12",
        "type": "t_uint256"
      },
      {
        "astId": 19888,
        "contract": "src/strategies/implementations/USDCftmSPIRITscream.sol:USDCftmSPIRITscream",
        "label": "minLoanHealth",
        "offset": 0,
        "slot": "13",
        "type": "t_uint256"
      },
      {
        "astId": 19891,
        "contract": "src/strategies/implementations/USDCftmSPIRITscream.sol:USDCftmSPIRITscream",
        "label": "rebalanceThreshold",
        "offset": 0,
        "slot": "14",
        "type": "t_uint16"
      },
      {
        "astId": 19893,
        "contract": "src/strategies/implementations/USDCftmSPIRITscream.sol:USDCftmSPIRITscream",
        "label": "_maxTvl",
        "offset": 0,
        "slot": "15",
        "type": "t_uint256"
      },
      {
        "astId": 19896,
        "contract": "src/strategies/implementations/USDCftmSPIRITscream.sol:USDCftmSPIRITscream",
        "label": "_safeCollateralRatio",
        "offset": 0,
        "slot": "16",
        "type": "t_uint256"
      },
      {
        "astId": 19898,
        "contract": "src/strategies/implementations/USDCftmSPIRITscream.sol:USDCftmSPIRITscream",
        "label": "_cachedBalanceOfUnderlying",
        "offset": 0,
        "slot": "17",
        "type": "t_uint256"
      },
      {
        "astId": 21705,
        "contract": "src/strategies/implementations/USDCftmSPIRITscream.sol:USDCftmSPIRITscream",
        "label": "_cTokenLend",
        "offset": 0,
        "slot": "18",
        "type": "t_contract(ICTokenErc20)16320"
      },
      {
        "astId": 21708,
        "contract": "src/strategies/implementations/USDCftmSPIRITscream.sol:USDCftmSPIRITscream",
        "label": "_cTokenBorrow",
        "offset": 0,
        "slot": "19",
        "type": "t_contract(ICTokenErc20)16320"
      },
      {
        "astId": 21711,
        "contract": "src/strategies/implementations/USDCftmSPIRITscream.sol:USDCftmSPIRITscream",
        "label": "_comptroller",
        "offset": 0,
        "slot": "20",
        "type": "t_contract(IComptroller)16562"
      },
      {
        "astId": 21714,
        "contract": "src/strategies/implementations/USDCftmSPIRITscream.sol:USDCftmSPIRITscream",
        "label": "_oracle",
        "offset": 0,
        "slot": "21",
        "type": "t_contract(ICompPriceOracle)16343"
      },
      {
        "astId": 21846,
        "contract": "src/strategies/implementations/USDCftmSPIRITscream.sol:USDCftmSPIRITscream",
        "label": "_router",
        "offset": 0,
        "slot": "22",
        "type": "t_contract(IUniswapV2Router01)17510"
      },
      {
        "astId": 21849,
        "contract": "src/strategies/implementations/USDCftmSPIRITscream.sol:USDCftmSPIRITscream",
        "label": "_farmToken",
        "offset": 0,
        "slot": "23",
        "type": "t_contract(IERC20)3990"
      },
      {
        "astId": 22026,
        "contract": "src/strategies/implementations/USDCftmSPIRITscream.sol:USDCftmSPIRITscream",
        "label": "_farm",
        "offset": 0,
        "slot": "24",
        "type": "t_contract(IMasterChef)16819"
      },
      {
        "astId": 22029,
        "contract": "src/strategies/implementations/USDCftmSPIRITscream.sol:USDCftmSPIRITscream",
        "label": "_router",
        "offset": 0,
        "slot": "25",
        "type": "t_contract(IUniswapV2Router01)17510"
      },
      {
        "astId": 22032,
        "contract": "src/strategies/implementations/USDCftmSPIRITscream.sol:USDCftmSPIRITscream",
        "label": "_farmToken",
        "offset": 0,
        "slot": "26",
        "type": "t_contract(IERC20)3990"
      },
      {
        "astId": 22035,
        "contract": "src/strategies/implementations/USDCftmSPIRITscream.sol:USDCftmSPIRITscream",
        "label": "_pair",
        "offset": 0,
        "slot": "27",
        "type": "t_contract(IUniswapV2Pair)17202"
      },
      {
        "astId": 22037,
        "contract": "src/strategies/implementations/USDCftmSPIRITscream.sol:USDCftmSPIRITscream",
        "label": "_farmId",
        "offset": 0,
        "slot": "28",
        "type": "t_uint256"
      }
    ],
    "types": {
      "t_address": {
        "encoding": "inplace",
        "label": "address",
        "numberOfBytes": "20"
      },
      "t_bool": {
        "encoding": "inplace",
        "label": "bool",
        "numberOfBytes": "1"
      },
      "t_contract(ICTokenErc20)16320": {
        "encoding": "inplace",
        "label": "contract ICTokenErc20",
        "numberOfBytes": "20"
      },
      "t_contract(ICompPriceOracle)16343": {
        "encoding": "inplace",
        "label": "contract ICompPriceOracle",
        "numberOfBytes": "20"
      },
      "t_contract(IComptroller)16562": {
        "encoding": "inplace",
        "label": "contract IComptroller",
        "numberOfBytes": "20"
      },
      "t_contract(IERC20)3990": {
        "encoding": "inplace",
        "label": "contract IERC20",
        "numberOfBytes": "20"
      },
      "t_contract(IMasterChef)16819": {
        "encoding": "inplace",
        "label": "contract IMasterChef",
        "numberOfBytes": "20"
      },
      "t_contract(IUniswapV2Pair)17202": {
        "encoding": "inplace",
        "label": "contract IUniswapV2Pair",
        "numberOfBytes": "20"
      },
      "t_contract(IUniswapV2Router01)17510": {
        "encoding": "inplace",
        "label": "contract IUniswapV2Router01",
        "numberOfBytes": "20"
      },
      "t_mapping(t_address,t_bool)": {
        "encoding": "mapping",
        "key": "t_address",
        "label": "mapping(address => bool)",
        "numberOfBytes": "32",
        "value": "t_bool"
      },
      "t_string_storage": {
        "encoding": "bytes",
        "label": "string",
        "numberOfBytes": "32"
      },
      "t_uint16": {
        "encoding": "inplace",
        "label": "uint16",
        "numberOfBytes": "2"
      },
      "t_uint256": {
        "encoding": "inplace",
        "label": "uint256",
        "numberOfBytes": "32"
      }
    }
  }
}