{
  "address": "0x43F935fA199Ed2cA94F4217c169b098e08A7CC47",
  "abi": [
    {
      "inputs": [],
      "stateMutability": "nonpayable",
      "type": "constructor"
    },
    {
      "anonymous": false,
      "inputs": [
        {
          "indexed": false,
          "internalType": "address",
          "name": "sender",
          "type": "address"
        },
        {
          "indexed": false,
          "internalType": "uint256",
          "name": "amount",
          "type": "uint256"
        }
      ],
      "name": "Deposit",
      "type": "event"
    },
    {
      "anonymous": false,
      "inputs": [
        {
          "indexed": false,
          "internalType": "uint256",
          "name": "harvested",
          "type": "uint256"
        }
      ],
      "name": "Harvest",
      "type": "event"
    },
    {
      "anonymous": false,
      "inputs": [
        {
          "indexed": false,
          "internalType": "uint256",
          "name": "harvest0",
          "type": "uint256"
        },
        {
          "indexed": false,
          "internalType": "uint256",
          "name": "harvest1",
          "type": "uint256"
        },
        {
          "indexed": false,
          "internalType": "uint256",
          "name": "harvest2",
          "type": "uint256"
        }
      ],
      "name": "LendHarvest",
      "type": "event"
    },
    {
      "anonymous": false,
      "inputs": [
        {
          "indexed": false,
          "internalType": "uint256",
          "name": "harvest",
          "type": "uint256"
        }
      ],
      "name": "LpHarvest",
      "type": "event"
    },
    {
      "anonymous": false,
      "inputs": [
        {
          "indexed": true,
          "internalType": "address",
          "name": "account",
          "type": "address"
        },
        {
          "indexed": false,
          "internalType": "bool",
          "name": "isManager",
          "type": "bool"
        }
      ],
      "name": "ManagerUpdate",
      "type": "event"
    },
    {
      "anonymous": false,
      "inputs": [
        {
          "indexed": true,
          "internalType": "address",
          "name": "previousOwner",
          "type": "address"
        },
        {
          "indexed": true,
          "internalType": "address",
          "name": "newOwner",
          "type": "address"
        }
      ],
      "name": "OwnershipTransferred",
      "type": "event"
    },
    {
      "anonymous": false,
      "inputs": [
        {
          "indexed": false,
          "internalType": "uint256",
          "name": "shortPrice",
          "type": "uint256"
        },
        {
          "indexed": false,
          "internalType": "uint256",
          "name": "tvlBeforeRebalance",
          "type": "uint256"
        },
        {
          "indexed": false,
          "internalType": "uint256",
          "name": "positionOffset",
          "type": "uint256"
        }
      ],
      "name": "Rebalance",
      "type": "event"
    },
    {
      "anonymous": false,
      "inputs": [],
      "name": "Upgrade",
      "type": "event"
    },
    {
      "anonymous": false,
      "inputs": [
        {
          "indexed": false,
          "internalType": "address",
          "name": "sender",
          "type": "address"
        },
        {
          "indexed": false,
          "internalType": "uint256",
          "name": "amount",
          "type": "uint256"
        }
      ],
      "name": "Withdraw",
      "type": "event"
    },
    {
      "inputs": [],
      "name": "BASE_UNIT",
      "outputs": [
        {
          "internalType": "uint256",
          "name": "",
          "type": "uint256"
        }
      ],
      "stateMutability": "view",
      "type": "function"
    },
    {
      "inputs": [
        {
          "internalType": "contract IUniswapV2Pair",
          "name": "pair",
          "type": "address"
        },
        {
          "internalType": "uint256",
          "name": "amountIn",
          "type": "uint256"
        },
        {
          "internalType": "address",
          "name": "inToken",
          "type": "address"
        },
        {
          "internalType": "address",
          "name": "outToken",
          "type": "address"
        }
      ],
      "name": "_swapExactTokensForTokens",
      "outputs": [
        {
          "internalType": "uint256",
          "name": "",
          "type": "uint256"
        }
      ],
      "stateMutability": "nonpayable",
      "type": "function"
    },
    {
      "inputs": [
        {
          "internalType": "contract IUniswapV2Pair",
          "name": "pair",
          "type": "address"
        },
        {
          "internalType": "uint256",
          "name": "amountOut",
          "type": "uint256"
        },
        {
          "internalType": "address",
          "name": "inToken",
          "type": "address"
        },
        {
          "internalType": "address",
          "name": "outToken",
          "type": "address"
        }
      ],
      "name": "_swapTokensForExactTokens",
      "outputs": [
        {
          "internalType": "uint256",
          "name": "",
          "type": "uint256"
        }
      ],
      "stateMutability": "nonpayable",
      "type": "function"
    },
    {
      "inputs": [
        {
          "internalType": "address",
          "name": "",
          "type": "address"
        }
      ],
      "name": "balanceOfUnderlying",
      "outputs": [
        {
          "internalType": "uint256",
          "name": "",
          "type": "uint256"
        }
      ],
      "stateMutability": "view",
      "type": "function"
    },
    {
      "inputs": [],
      "name": "balanceOfUnderlying",
      "outputs": [
        {
          "internalType": "uint256",
          "name": "assets",
          "type": "uint256"
        }
      ],
      "stateMutability": "view",
      "type": "function"
    },
    {
      "inputs": [],
      "name": "cTokenBorrow",
      "outputs": [
        {
          "internalType": "contract ICTokenErc20",
          "name": "",
          "type": "address"
        }
      ],
      "stateMutability": "view",
      "type": "function"
    },
    {
      "inputs": [],
      "name": "cTokenLend",
      "outputs": [
        {
          "internalType": "contract ICTokenErc20",
          "name": "",
          "type": "address"
        }
      ],
      "stateMutability": "view",
      "type": "function"
    },
    {
      "inputs": [],
      "name": "closePosition",
      "outputs": [],
      "stateMutability": "nonpayable",
      "type": "function"
    },
    {
      "inputs": [],
      "name": "comptroller",
      "outputs": [
        {
          "internalType": "contract IComptroller",
          "name": "",
          "type": "address"
        }
      ],
      "stateMutability": "view",
      "type": "function"
    },
    {
      "inputs": [],
      "name": "decimals",
      "outputs": [
        {
          "internalType": "uint8",
          "name": "",
          "type": "uint8"
        }
      ],
      "stateMutability": "view",
      "type": "function"
    },
    {
      "inputs": [],
      "name": "getCollateralRatio",
      "outputs": [
        {
          "internalType": "uint256",
          "name": "",
          "type": "uint256"
        }
      ],
      "stateMutability": "view",
      "type": "function"
    },
    {
      "inputs": [],
      "name": "getPricePerShare",
      "outputs": [
        {
          "internalType": "uint256",
          "name": "",
          "type": "uint256"
        }
      ],
      "stateMutability": "view",
      "type": "function"
    },
    {
      "inputs": [],
      "name": "getTVL",
      "outputs": [
        {
          "internalType": "uint256",
          "name": "tvl",
          "type": "uint256"
        },
        {
          "internalType": "uint256",
          "name": "collateralBalance",
          "type": "uint256"
        },
        {
          "internalType": "uint256",
          "name": "shortPosition",
          "type": "uint256"
        },
        {
          "internalType": "uint256",
          "name": "shortBalance",
          "type": "uint256"
        },
        {
          "internalType": "uint256",
          "name": "lpBalance",
          "type": "uint256"
        },
        {
          "internalType": "uint256",
          "name": "underlyingBalance",
          "type": "uint256"
        }
      ],
      "stateMutability": "view",
      "type": "function"
    },
    {
      "inputs": [],
      "name": "getUnderlyingShortReserves",
      "outputs": [
        {
          "internalType": "uint256",
          "name": "reserveA",
          "type": "uint256"
        },
        {
          "internalType": "uint256",
          "name": "reserveB",
          "type": "uint256"
        }
      ],
      "stateMutability": "view",
      "type": "function"
    },
    {
      "inputs": [],
      "name": "harvest",
      "outputs": [],
      "stateMutability": "nonpayable",
      "type": "function"
    },
    {
      "inputs": [
        {
          "components": [
            {
              "internalType": "address",
              "name": "underlying",
              "type": "address"
            },
            {
              "internalType": "address",
              "name": "short",
              "type": "address"
            },
            {
              "internalType": "address",
              "name": "cTokenLend",
              "type": "address"
            },
            {
              "internalType": "address",
              "name": "cTokenBorrow",
              "type": "address"
            },
            {
              "internalType": "address",
              "name": "uniPair",
              "type": "address"
            },
            {
              "internalType": "address",
              "name": "uniFarm",
              "type": "address"
            },
            {
              "internalType": "address",
              "name": "farmLp",
              "type": "address"
            },
            {
              "internalType": "address",
              "name": "farmToken",
              "type": "address"
            },
            {
              "internalType": "uint256",
              "name": "farmId",
              "type": "uint256"
            },
            {
              "internalType": "address",
              "name": "router",
              "type": "address"
            },
            {
              "internalType": "address",
              "name": "comptroller",
              "type": "address"
            },
            {
              "internalType": "address",
              "name": "benqiPair",
              "type": "address"
            },
            {
              "internalType": "address",
              "name": "benqiToken",
              "type": "address"
            },
            {
              "internalType": "uint256",
              "name": "safeCollateralRatio",
              "type": "uint256"
            },
            {
              "internalType": "address",
              "name": "vault",
              "type": "address"
            },
            {
              "internalType": "string",
              "name": "symbol",
              "type": "string"
            },
            {
              "internalType": "string",
              "name": "name",
              "type": "string"
            }
          ],
          "internalType": "struct USDCavaxJOEqi.Config",
          "name": "config",
          "type": "tuple"
        }
      ],
      "name": "initialize",
      "outputs": [],
      "stateMutability": "nonpayable",
      "type": "function"
    },
    {
      "inputs": [],
      "name": "isCEther",
      "outputs": [
        {
          "internalType": "bool",
          "name": "",
          "type": "bool"
        }
      ],
      "stateMutability": "pure",
      "type": "function"
    },
    {
      "inputs": [
        {
          "internalType": "address",
          "name": "user",
          "type": "address"
        }
      ],
      "name": "isManager",
      "outputs": [
        {
          "internalType": "bool",
          "name": "",
          "type": "bool"
        }
      ],
      "stateMutability": "view",
      "type": "function"
    },
    {
      "inputs": [],
      "name": "lastHarvest",
      "outputs": [
        {
          "internalType": "uint256",
          "name": "",
          "type": "uint256"
        }
      ],
      "stateMutability": "view",
      "type": "function"
    },
    {
      "inputs": [
        {
          "internalType": "uint256",
          "name": "amount",
          "type": "uint256"
        }
      ],
      "name": "mint",
      "outputs": [
        {
          "internalType": "uint256",
          "name": "errCode",
          "type": "uint256"
        }
      ],
      "stateMutability": "nonpayable",
      "type": "function"
    },
    {
      "inputs": [],
      "name": "name",
      "outputs": [
        {
          "internalType": "string",
          "name": "",
          "type": "string"
        }
      ],
      "stateMutability": "view",
      "type": "function"
    },
    {
      "inputs": [
        {
          "internalType": "string",
          "name": "_symbol",
          "type": "string"
        },
        {
          "internalType": "string",
          "name": "_name",
          "type": "string"
        }
      ],
      "name": "onUpgrade",
      "outputs": [],
      "stateMutability": "nonpayable",
      "type": "function"
    },
    {
      "inputs": [],
      "name": "onUpgradeFarm",
      "outputs": [],
      "stateMutability": "nonpayable",
      "type": "function"
    },
    {
      "inputs": [],
      "name": "onUpgradeLend",
      "outputs": [],
      "stateMutability": "nonpayable",
      "type": "function"
    },
    {
      "inputs": [],
      "name": "oracle",
      "outputs": [
        {
          "internalType": "contract ICompPriceOracle",
          "name": "",
          "type": "address"
        }
      ],
      "stateMutability": "view",
      "type": "function"
    },
    {
      "inputs": [],
      "name": "owner",
      "outputs": [
        {
          "internalType": "address",
          "name": "",
          "type": "address"
        }
      ],
      "stateMutability": "view",
      "type": "function"
    },
    {
      "inputs": [],
      "name": "pair",
      "outputs": [
        {
          "internalType": "contract IUniswapV2Pair",
          "name": "",
          "type": "address"
        }
      ],
      "stateMutability": "view",
      "type": "function"
    },
    {
      "inputs": [],
      "name": "rebalance",
      "outputs": [],
      "stateMutability": "nonpayable",
      "type": "function"
    },
    {
      "inputs": [],
      "name": "rebalanceThreshold",
      "outputs": [
        {
          "internalType": "uint16",
          "name": "",
          "type": "uint16"
        }
      ],
      "stateMutability": "view",
      "type": "function"
    },
    {
      "inputs": [
        {
          "internalType": "uint256",
          "name": "amount",
          "type": "uint256"
        }
      ],
      "name": "redeemUnderlying",
      "outputs": [
        {
          "internalType": "uint256",
          "name": "errCode",
          "type": "uint256"
        }
      ],
      "stateMutability": "nonpayable",
      "type": "function"
    },
    {
      "inputs": [],
      "name": "renounceOwnership",
      "outputs": [],
      "stateMutability": "nonpayable",
      "type": "function"
    },
    {
      "inputs": [],
      "name": "safeCollateralRatio",
      "outputs": [
        {
          "internalType": "uint256",
          "name": "",
          "type": "uint256"
        }
      ],
      "stateMutability": "view",
      "type": "function"
    },
    {
      "inputs": [
        {
          "internalType": "address",
          "name": "user",
          "type": "address"
        },
        {
          "internalType": "bool",
          "name": "_isManager",
          "type": "bool"
        }
      ],
      "name": "setManager",
      "outputs": [],
      "stateMutability": "nonpayable",
      "type": "function"
    },
    {
      "inputs": [
        {
          "internalType": "uint256",
          "name": "maxPriceMismatch_",
          "type": "uint256"
        }
      ],
      "name": "setMaxPriceMismatch",
      "outputs": [],
      "stateMutability": "nonpayable",
      "type": "function"
    },
    {
      "inputs": [
        {
          "internalType": "uint256",
          "name": "minLendHarvest_",
          "type": "uint256"
        }
      ],
      "name": "setMinLendHarvest",
      "outputs": [],
      "stateMutability": "nonpayable",
      "type": "function"
    },
    {
      "inputs": [
        {
          "internalType": "uint16",
          "name": "rebalanceThreshold_",
          "type": "uint16"
        }
      ],
      "name": "setRebalanceThreshold",
      "outputs": [],
      "stateMutability": "nonpayable",
      "type": "function"
    },
    {
      "inputs": [
        {
          "internalType": "address",
          "name": "vault_",
          "type": "address"
        }
      ],
      "name": "setVault",
      "outputs": [],
      "stateMutability": "nonpayable",
      "type": "function"
    },
    {
      "inputs": [],
      "name": "short",
      "outputs": [
        {
          "internalType": "contract IERC20",
          "name": "",
          "type": "address"
        }
      ],
      "stateMutability": "view",
      "type": "function"
    },
    {
      "inputs": [],
      "name": "symbol",
      "outputs": [
        {
          "internalType": "string",
          "name": "",
          "type": "string"
        }
      ],
      "stateMutability": "view",
      "type": "function"
    },
    {
      "inputs": [],
      "name": "totalSupply",
      "outputs": [
        {
          "internalType": "uint256",
          "name": "",
          "type": "uint256"
        }
      ],
      "stateMutability": "view",
      "type": "function"
    },
    {
      "inputs": [
        {
          "internalType": "address",
          "name": "newOwner",
          "type": "address"
        }
      ],
      "name": "transferOwnership",
      "outputs": [],
      "stateMutability": "nonpayable",
      "type": "function"
    },
    {
      "inputs": [],
      "name": "underlying",
      "outputs": [
        {
          "internalType": "contract IERC20",
          "name": "",
          "type": "address"
        }
      ],
      "stateMutability": "view",
      "type": "function"
    },
    {
      "inputs": [],
      "name": "vault",
      "outputs": [
        {
          "internalType": "address",
          "name": "",
          "type": "address"
        }
      ],
      "stateMutability": "view",
      "type": "function"
    },
    {
      "inputs": [],
      "name": "version",
      "outputs": [
        {
          "internalType": "uint256",
          "name": "",
          "type": "uint256"
        }
      ],
      "stateMutability": "view",
      "type": "function"
    },
    {
      "stateMutability": "payable",
      "type": "receive"
    }
  ],
  "transactionHash": "0x73e97e48cf2dbf3fba9eca86c5eb58420ea893bfdd6ed9559f47399688117455",
  "args": [],
  "numDeployments": 3,
  "solcInputHash": "b94a9bfe6ec3898123a86570253bf917",
  "bytecode": "0x60806040523480156200001157600080fd5b50600054610100900460ff166200002f5760005460ff161562000039565b62000039620000de565b620000a15760405162461bcd60e51b815260206004820152602e60248201527f496e697469616c697a61626c653a20636f6e747261637420697320616c72656160448201526d191e481a5b9a5d1a585b1a5e995960921b606482015260840160405180910390fd5b600054610100900460ff16158015620000c4576000805461ffff19166101011790555b8015620000d7576000805461ff00191690555b5062000102565b6000620000f630620000fc60201b620015831760201c565b15905090565b3b151590565b6152ea80620001126000396000f3fe6080604052600436106101fb5760003560e01c806302df632f1461020757806306fdde031461021e5780630e962f001461024957806318160ddd1461026d5780632125001e1461028257806330741fa4146102a2578063313ce567146102c257806338bea4cb146102e95780633af9e6691461030b5780633d68175c1461032b5780633dfe9f6a146103405780634641257d1461036e5780634654e3f3146103835780634880f951146103a35780634f1342d4146103b85780635439c4ad146103d857806354fd4d50146103f85780635fe3b5671461040f5780636817031b146104245780636f307dc314610461578063711326ce14610476578063715018a6146104965780637d7c2a1c146104ab5780637dc0d1d0146104c0578063852a12e3146104d55780638da5cb5b146104f557806395d89b411461050a57806397b3fcaa1461051f578063a0712d6814610561578063a52602b914610581578063a5e90eee14610596578063a8aa1b31146105b6578063ac784ddc146105cb578063c393d0e3146105eb578063cd377c5314610600578063d539fe4b14610615578063d56974cf1461062b578063de747e5a14610640578063f1a392da14610660578063f2fde38b14610676578063f3ae241514610696578063f9e40ac4146106cf578063fbfa77cf146106f2578063fd6bac701461070757600080fd5b3661020257005b600080fd5b34801561021357600080fd5b5061021c61071c565b005b34801561022a57600080fd5b50610233610846565b6040516102409190614838565b60405180910390f35b34801561025557600080fd5b5061025f609d5481565b604051908152602001610240565b34801561027957600080fd5b5060995461025f565b34801561028e57600080fd5b5061021c61029d36600461484b565b6108d4565b3480156102ae57600080fd5b5061025f6102bd366004614889565b610911565b3480156102ce57600080fd5b506102d76109f0565b60405160ff9091168152602001610240565b3480156102f557600080fd5b506102fe610a63565b60405161024091906148dc565b34801561031757600080fd5b5061025f6103263660046148f0565b610a72565b34801561033757600080fd5b5061025f610a82565b34801561034c57600080fd5b5060d35461035b9061ffff1681565b60405161ffff9091168152602001610240565b34801561037a57600080fd5b5061021c610ac2565b34801561038f57600080fd5b5061021c61039e36600461494e565b610b61565b3480156103af57600080fd5b5061025f610bd9565b3480156103c457600080fd5b5061021c6103d3366004614a97565b610bee565b3480156103e457600080fd5b5061025f6103f3366004614889565b610cf1565b34801561040457600080fd5b5061025f6102715481565b34801561041b57600080fd5b506102fe610d52565b34801561043057600080fd5b5061021c61043f3660046148f0565b609880546001600160a01b0319166001600160a01b0392909216919091179055565b34801561046d57600080fd5b506102fe610d62565b34801561048257600080fd5b5061021c61049136600461484b565b610d71565b3480156104a257600080fd5b5061021c610da5565b3480156104b757600080fd5b5061021c610de0565b3480156104cc57600080fd5b506102fe61101e565b3480156104e157600080fd5b5061025f6104f036600461484b565b61102e565b34801561050157600080fd5b506102fe611095565b34801561051657600080fd5b506102336110a4565b34801561052b57600080fd5b506105346110b1565b604080519687526020870195909552938501929092526060840152608083015260a082015260c001610240565b34801561056d57600080fd5b5061025f61057c36600461484b565b611190565b34801561058d57600080fd5b506102fe6111e9565b3480156105a257600080fd5b5061021c6105b1366004614c34565b6111f9565b3480156105c257600080fd5b506102fe611287565b3480156105d757600080fd5b5060005b6040519015158152602001610240565b3480156105f757600080fd5b5061021c611297565b34801561060c57600080fd5b5061025f6112f6565b34801561062157600080fd5b5061010a5461025f565b34801561063757600080fd5b5061021c611327565b34801561064c57600080fd5b5061021c61065b366004614c6d565b611451565b34801561066c57600080fd5b5061025f60975481565b34801561068257600080fd5b5061021c6106913660046148f0565b611498565b3480156106a257600080fd5b506105db6106b13660046148f0565b6001600160a01b03166000908152609c602052604090205460ff1690565b3480156106db57600080fd5b506106e4611538565b604051610240929190614c91565b3480156106fe57600080fd5b506102fe611564565b34801561071357600080fd5b506102fe611573565b6101735460408051630dfe168160e01b815290516000926001600160a01b031691630dfe16819160048083019260209291908290030181865afa158015610767573d6000803e3d6000fd5b505050506040513d601f19601f8201168201806040525081019061078b9190614c9f565b610174549091506001600160a01b038083169116146107aa5780610822565b61017360009054906101000a90046001600160a01b03166001600160a01b031663d21220a76040518163ffffffff1660e01b8152600401602060405180830381865afa1580156107fe573d6000803e3d6000fd5b505050506040513d601f19601f820116820180604052508101906108229190614c9f565b61017780546001600160a01b0319166001600160a01b039290921691909117905550565b609a805461085390614cbc565b80601f016020809104026020016040519081016040528092919081815260200182805461087f90614cbc565b80156108cc5780601f106108a1576101008083540402835291602001916108cc565b820191906000526020600020905b8154815290600101906020018083116108af57829003601f168201915b505050505081565b336108dd611095565b6001600160a01b03161461090c5760405162461bcd60e51b815260040161090390614cf1565b60405180910390fd5b60d255565b60008061092086868686611589565b9050600061092e848661164a565b509050600080826001600160a01b0316876001600160a01b03161461095557836000610959565b6000845b90925090506109726001600160a01b0388168a8a61172d565b6040805160008152602081019182905263022c0d9f60e01b9091526001600160a01b038a169063022c0d9f906109b19085908590309060248101614d26565b600060405180830381600087803b1580156109cb57600080fd5b505af11580156109df573d6000803e3d6000fd5b50959b9a5050505050505050505050565b60d0546040805163313ce56760e01b815290516000926001600160a01b03169163313ce5679160048083019260209291908290030181865afa158015610a3a573d6000803e3d6000fd5b505050506040513d601f19601f82011682018060405250810190610a5e9190614d5d565b905090565b60d1546001600160a01b031690565b6000610a7c610bd9565b92915050565b600080610a8d610bd9565b905060995460001415610aa2575050609d5490565b609954609d54610ab29083614d96565b610abc9190614db5565b91505090565b610aca611095565b6001600160a01b0316336001600160a01b03161480610afd5750336000908152609c602052604090205460ff1615156001145b610b195760405162461bcd60e51b815260040161090390614dd7565b6000610b23611788565b90507f80f97f878e16410266694f134ddf012f2be424f54f8b5cafa107eccc51d00d5881604051610b5691815260200190565b60405180910390a150565b33610b6a611095565b6001600160a01b031614610b905760405162461bcd60e51b815260040161090390614cf1565b610b9c609a83836146d3565b50610ba9609b85856146d3565b506040517f6f2d71ced264587bd808aaf888d1c083d1ef532ab6eafb10b4fbd18b60eda3e690600090a150505050565b6000610be36110b1565b509395945050505050565b600054610100900460ff16610c095760005460ff1615610c0d565b303b155b610c295760405162461bcd60e51b815260040161090390614dff565b600054610100900460ff16158015610c4b576000805461ffff19166101011790555b610c6d82608001518360a001518460c001518560e001518661010001516119a3565b610c8b82610140015183604001518460600151856101a00151611b8d565b610c9f826101600151836101800151611ccf565b610cb9826101c00151836101e00151846102000151611e8f565b610ccb82600001518360200151611f57565b610cd3612036565b610cdb61207e565b8015610ced576000805461ff00191690555b5050565b600080610d008686868661209f565b90506000610d0e848661164a565b509050600080826001600160a01b0316876001600160a01b031614610d3557876000610d39565b6000885b90925090506109726001600160a01b0388168a8661172d565b610108546001600160a01b031690565b60d0546001600160a01b031690565b33610d7a611095565b6001600160a01b031614610da05760405162461bcd60e51b815260040161090390614cf1565b60cf55565b33610dae611095565b6001600160a01b031614610dd45760405162461bcd60e51b815260040161090390614cf1565b610dde6000612165565b565b610de8611095565b6001600160a01b0316336001600160a01b03161480610e1b5750336000908152609c602052604090205460ff1615156001145b610e375760405162461bcd60e51b815260040161090390614dd7565b60d15460d054600091610e6091670de0b6b3a7640000916001600160a01b0390811691166121b7565b90506000610e75670de0b6b3a76400006121f6565b9050818111610e85578082610e88565b81815b60cf54919350915081612710610e9e8583614e4d565b610ea89190614d96565b610eb29190614db5565b10610ecf5760405162461bcd60e51b815260040161090390614e64565b60026065541415610ef25760405162461bcd60e51b815260040161090390614e9b565b60026065556000610f01612302565b5090506000610f0e6123c3565b90506000610f1b826124a2565b90506000806000610f2c84876124cf565b92509250925082610f965760405162461bcd60e51b815260206004820152602e60248201527f4865646765644c503a2068617665206e6f74207265616368656420726562616c60448201526d185b98d9481d1a1c995cda1bdb1960921b6064820152608401610903565b6000610fa28587614e4d565b90508215610fb957610fb485826125f8565b610fc3565b610fc38582612825565b7fe0b4077da7dfa5015ff10fab6a214f37acc1b23d745f30336942d17e07848c6b610ff5670de0b6b3a7640000612a6c565b838860405161100693929190614ed2565b60405180910390a15050600160655550505050505050565b610109546001600160a01b031690565b6000611038611564565b6001600160a01b0316336001600160a01b0316146110685760405162461bcd60e51b815260040161090390614dd7565b600061107383612a99565b905080609960008282546110879190614e4d565b909155506000949350505050565b6033546001600160a01b031690565b609b805461085390614cbc565b6000806000806000806110c2612d76565b94506110cc612e6b565b93506110d784612a6c565b925060006110e3612302565b5090506110f1816002614d96565b60d0546040516370a0823160e01b81529194506001600160a01b0316906370a08231906111229030906004016148dc565b602060405180830381865afa15801561113f573d6000803e3d6000fd5b505050506040513d601f19601f820116820180604052508101906111639190614ee8565b915081846111718589614f01565b61117b9190614e4d565b6111859190614f01565b965050909192939495565b600061119a611564565b6001600160a01b0316336001600160a01b0316146111ca5760405162461bcd60e51b815260040161090390614dd7565b60006111d583612ee1565b905080609960008282546110879190614f01565b610106546001600160a01b031690565b33611202611095565b6001600160a01b0316146112285760405162461bcd60e51b815260040161090390614cf1565b6001600160a01b0382166000818152609c6020908152604091829020805460ff191685151590811790915591519182527f2458f684567d238b66deaa0126265bf3becabda0caaab7ebdda6b1794614a2d3910160405180910390a25050565b610175546001600160a01b031690565b61129f611095565b6001600160a01b0316336001600160a01b031614806112d25750336000908152609c602052604090205460ff1615156001145b6112ee5760405162461bcd60e51b815260040161090390614dd7565b610dde6130b2565b6000670de0b6b3a764000061130b61010a5490565b61131361324e565b61131d9190614d96565b610a5e9190614db5565b61013f5460408051630dfe168160e01b815290516000926001600160a01b031691630dfe16819160048083019260209291908290030181865afa158015611372573d6000803e3d6000fd5b505050506040513d601f19601f820116820180604052508101906113969190614c9f565b61013e549091506001600160a01b038083169116146113b5578061142d565b61013f60009054906101000a90046001600160a01b03166001600160a01b031663d21220a76040518163ffffffff1660e01b8152600401602060405180830381865afa158015611409573d6000803e3d6000fd5b505050506040513d601f19601f8201168201806040525081019061142d9190614c9f565b61013d80546001600160a01b0319166001600160a01b039290921691909117905550565b3361145a611095565b6001600160a01b0316146114805760405162461bcd60e51b815260040161090390614cf1565b60d3805461ffff191661ffff92909216919091179055565b336114a1611095565b6001600160a01b0316146114c75760405162461bcd60e51b815260040161090390614cf1565b6001600160a01b03811661152c5760405162461bcd60e51b815260206004820152602660248201527f4f776e61626c653a206e6577206f776e657220697320746865207a65726f206160448201526564647265737360d01b6064820152608401610903565b61153581612165565b50565b60008061155b611546611287565b61154e610d62565b611556610a63565b6132d4565b90939092509050565b6098546001600160a01b031690565b610107546001600160a01b031690565b3b151590565b60008084116115e65760405162461bcd60e51b815260206004820152602360248201527f556e695574696c733a20494e53554646494349454e545f494e5055545f414d4f60448201526215539560ea1b6064820152608401610903565b6000806115f48786866132d4565b90925090506000611607876103e5614d96565b905060006116158383614d96565b9050600082611626866103e8614d96565b6116309190614f01565b905061163c8183614db5565b9a9950505050505050505050565b600080826001600160a01b0316846001600160a01b031614156116af5760405162461bcd60e51b815260206004820152601d60248201527f556e695574696c733a204944454e544943414c5f4144445245535345530000006044820152606401610903565b826001600160a01b0316846001600160a01b0316106116cf5782846116d2565b83835b90925090506001600160a01b0382166117265760405162461bcd60e51b8152602060048201526016602482015275556e695574696c733a205a45524f5f4144445245535360501b6044820152606401610903565b9250929050565b6117838363a9059cbb60e01b848460405160240161174c929190614f19565b60408051601f198184030181529190526020810180516001600160e01b03166001600160e01b031990931692909217909152613394565b505050565b60d15460d05460009182916117b391670de0b6b3a7640000916001600160a01b0391821691166121b7565b905060006117c8670de0b6b3a76400006121f6565b90508181116117d85780826117db565b81815b60cf549193509150816127106117f18583614e4d565b6117fb9190614d96565b6118059190614db5565b106118225760405162461bcd60e51b815260040161090390614e64565b600260655414156118455760405162461bcd60e51b815260040161090390614e9b565b600260655560006118546123c3565b905061186160d254613466565b61186961362b565b60d0546040516370a0823160e01b81526000916001600160a01b0316906370a082319061189a9030906004016148dc565b602060405180830381865afa1580156118b7573d6000803e3d6000fd5b505050506040513d601f19601f820116820180604052508101906118db9190614ee8565b905080156118ec576118ec8161376d565b60d1546040516370a0823160e01b81526000916001600160a01b0316906370a082319061191d9030906004016148dc565b602060405180830381865afa15801561193a573d6000803e3d6000fd5b505050506040513d601f19601f8201168201806040525081019061195e9190614ee8565b9050801561196f5761196f816137e5565b6000611979610bd9565b9050838111611989576000611993565b6119938482614e4d565b9650505050505050600160655590565b600054610100900460ff166119be5760005460ff16156119c2565b303b155b6119de5760405162461bcd60e51b815260040161090390614dff565b600054610100900460ff16158015611a00576000805461ffff19166101011790555b61017280546001600160a01b038088166001600160a01b0319928316179092556101738054878416908316811790915561017480548785169084161790556101758054938a169390921692909217905561017683905560408051630dfe168160e01b8152905160009291630dfe16819160048083019260209291908290030181865afa158015611a94573d6000803e3d6000fd5b505050506040513d601f19601f82011682018060405250810190611ab89190614c9f565b9050836001600160a01b0316816001600160a01b031614611ad95780611b51565b61017360009054906101000a90046001600160a01b03166001600160a01b031663d21220a76040518163ffffffff1660e01b8152600401602060405180830381865afa158015611b2d573d6000803e3d6000fd5b505050506040513d601f19601f82011682018060405250810190611b519190614c9f565b61017780546001600160a01b0319166001600160a01b0392909216919091179055508015611b85576000805461ff00191690555b505050505050565b600054610100900460ff16611ba85760005460ff1615611bac565b303b155b611bc85760405162461bcd60e51b815260040161090390614dff565b600054610100900460ff16158015611bea576000805461ffff19166101011790555b61010680546001600160a01b038087166001600160a01b031992831617909255610107805486841690831617905561010880549288169290911682179055604080516307dc0d1d60e41b81529051637dc0d1d0916004808201926020929091908290030181865afa158015611c63573d6000803e3d6000fd5b505050506040513d601f19601f82011682018060405250810190611c879190614c9f565b61010980546001600160a01b0319166001600160a01b039290921691909117905561010a829055611cb6613899565b8015611cc8576000805461ff00191690555b5050505050565b600054610100900460ff16611cea5760005460ff1615611cee565b303b155b611d0a5760405162461bcd60e51b815260040161090390614dff565b600054610100900460ff16158015611d2c576000805461ffff19166101011790555b61013f80546001600160a01b038086166001600160a01b0319928316811790935561013e80549186169190921617905560408051630dfe168160e01b8152905160009291630dfe16819160048083019260209291908290030181865afa158015611d9a573d6000803e3d6000fd5b505050506040513d601f19601f82011682018060405250810190611dbe9190614c9f565b9050826001600160a01b0316816001600160a01b031614611ddf5780611e57565b61013f60009054906101000a90046001600160a01b03166001600160a01b031663d21220a76040518163ffffffff1660e01b8152600401602060405180830381865afa158015611e33573d6000803e3d6000fd5b505050506040513d601f19601f82011682018060405250810190611e579190614c9f565b61013d80546001600160a01b0319166001600160a01b0392909216919091179055508015611783576000805461ff0019169055505050565b600054610100900460ff16611eaa5760005460ff1615611eae565b303b155b611eca5760405162461bcd60e51b815260040161090390614dff565b600054610100900460ff16158015611eec576000805461ffff19166101011790555b611ef46139aa565b611efc6139d9565b609880546001600160a01b0319166001600160a01b0386161790558251611f2a90609b906020860190614757565b508151611f3e90609a906020850190614757565b508015611f51576000805461ff00191690555b50505050565b600054610100900460ff16611f725760005460ff1615611f76565b303b155b611f925760405162461bcd60e51b815260040161090390614dff565b600054610100900460ff16158015611fb4576000805461ffff19166101011790555b60d080546001600160a01b038086166001600160a01b0319928316811790935560d1805491861691909216179055611fef9030600019613a10565b603c60cf5560d3805461ffff1916610190179055623d090060d2556120126109f0565b61201d90600a615016565b609d558015611783576000805461ff0019169055505050565b61010654612062906001600160a01b0316600019612052610d62565b6001600160a01b03169190613a10565b61010754610dde906001600160a01b0316600019612052610a63565b6101725461017554610dde916001600160a01b039182169116600019613a10565b60008084116120fc5760405162461bcd60e51b8152602060048201526024808201527f556e695574696c733a20494e53554646494349454e545f4f55545055545f414d60448201526313d5539560e21b6064820152608401610903565b60008061210a8786866132d4565b9092509050600061211b8784614d96565b612127906103e8614d96565b905060006121358884614e4d565b612141906103e5614d96565b905061214d8183614db5565b612158906001614f01565b9998505050505050505050565b603380546001600160a01b038381166001600160a01b0319831681179093556040519116919082907f8be0079c531659141344cd1fd0a4f28419497f9722a3daafe3b4186f6b6457e090600090a35050565b6000836121c6575060006121ef565b6000806121db6121d4611287565b86866132d4565b915091506121ea868383613b14565b925050505b9392505050565b600061220061101e565b6001600160a01b031663fc57d4df6122166111e9565b6040518263ffffffff1660e01b815260040161223291906148dc565b602060405180830381865afa15801561224f573d6000803e3d6000fd5b505050506040513d601f19601f820116820180604052508101906122739190614ee8565b61227b61101e565b6001600160a01b031663fc57d4df612291611573565b6040518263ffffffff1660e01b81526004016122ad91906148dc565b602060405180830381865afa1580156122ca573d6000803e3d6000fd5b505050506040513d601f19601f820116820180604052508101906122ee9190614ee8565b6122f89084614d96565b610a7c9190614db5565b600080600061230f613bde565b905060008061231c611538565b91509150600061232a611287565b6001600160a01b03166318160ddd6040518163ffffffff1660e01b8152600401602060405180830381865afa158015612367573d6000803e3d6000fd5b505050506040513d601f19601f8201168201806040525081019061238b9190614ee8565b9050806123988585614d96565b6123a29190614db5565b9550806123af8584614d96565b6123b99190614db5565b9450505050509091565b6000806123ce613c74565b905060006123da613cc8565b905060006123e782612a6c565b905060006123f3612302565b5060d0546040516370a0823160e01b81529192506000916001600160a01b03909116906370a082319061242a9030906004016148dc565b602060405180830381865afa158015612447573d6000803e3d6000fd5b505050506040513d601f19601f8201168201806040525081019061246b9190614ee8565b9050808361247a846002614d96565b6124849088614f01565b61248e9190614e4d565b6124989190614f01565b9550505050505090565b6000806124ad6112f6565b90506124bb81612710614f01565b6124c58285614d96565b6121ef9190614db5565b60008060008385116124e25760006124e5565b60015b91508315806124f2575084155b15612502578484141592506125f1565b600061250c612e6b565b90508261253a57856127106125218288614e4d565b61252b9190614d96565b6125359190614db5565b61255c565b846127106125488289614e4d565b6125529190614d96565b61255c9190614db5565b60d35490925061ffff168211806125e4575060d0546040516370a0823160e01b815262989680916001600160a01b0316906370a08231906125a19030906004016148dc565b602060405180830381865afa1580156125be573d6000803e3d6000fd5b505050506040513d601f19601f820116820180604052508101906125e29190614ee8565b115b806125ed575080155b9350505b9250925092565b61260181613cfd565b5050600061260e83613d5f565b9050600061261a612e6b565b905061262e6126298284614e4d565b613d8c565b6000612638612302565b5060d0546040516370a0823160e01b815291925060009183916001600160a01b0316906370a082319061266f9030906004016148dc565b602060405180830381865afa15801561268c573d6000803e3d6000fd5b505050506040513d601f19601f820116820180604052508101906126b09190614ee8565b6126ba9190614f01565b6126c49087614e4d565b905080156126f3576126f16126d7611287565b60d15460d05484916001600160a01b039081169116610cf1565b505b60d1546040516370a0823160e01b81526000916001600160a01b0316906370a08231906127249030906004016148dc565b602060405180830381865afa158015612741573d6000803e3d6000fd5b505050506040513d601f19601f820116820180604052508101906127659190614ee8565b9050600061277282612a6c565b60d0546040516370a0823160e01b81529192506000916001600160a01b03909116906370a08231906127a89030906004016148dc565b602060405180830381865afa1580156127c5573d6000803e3d6000fd5b505050506040513d601f19601f820116820180604052508101906127e99190614ee8565b905081811015612802578091506127ff82613d5f565b92505b600061280e8385613e6a565b905061281981613f1a565b50505050505050505050565b8161283257610ced6130b2565b61283b82613f7d565b505060d1546040516370a0823160e01b81526000916001600160a01b0316906370a082319061286e9030906004016148dc565b602060405180830381865afa15801561288b573d6000803e3d6000fd5b505050506040513d601f19601f820116820180604052508101906128af9190614ee8565b90506128ba816137e5565b60006128c583613cfd565b91505060006128d2613cc8565b905060006128df86613d5f565b6128e99083614e4d565b9050806128f857505050505050565b600061291f612905611287565b60d05460d15485916001600160a01b03908116911661209f565b60d0546040516370a0823160e01b81529192506000916001600160a01b03909116906370a08231906129559030906004016148dc565b602060405180830381865afa158015612972573d6000803e3d6000fd5b505050506040513d601f19601f820116820180604052508101906129969190614ee8565b905060008183106129a757816129a9565b825b90506129d06129b6611287565b60d05460d15484916001600160a01b039081169116610911565b5060d1546040516370a0823160e01b81526001600160a01b03909116906370a0823190612a019030906004016148dc565b602060405180830381865afa158015612a1e573d6000803e3d6000fd5b505050506040513d601f19601f82011682018060405250810190612a429190614ee8565b9650612a4d876137e5565b85881115612a6157612a5e88613cfd565b50505b505050505050505050565b600081612a7b57506000919050565b60d15460d054610a7c9184916001600160a01b0391821691166121b7565b6000612aa3611564565b6001600160a01b0316336001600160a01b031614612ad35760405162461bcd60e51b815260040161090390614dd7565b60d15460d054600091612afc91670de0b6b3a7640000916001600160a01b0390811691166121b7565b90506000612b11670de0b6b3a76400006121f6565b9050818111612b21578082612b24565b81815b60cf54919350915081612710612b3a8583614e4d565b612b449190614d96565b612b4e9190614db5565b10612b6b5760405162461bcd60e51b815260040161090390614e64565b60026065541415612b8e5760405162461bcd60e51b815260040161090390614e9b565b60026065556000612b9d6123c3565b60d0546040516370a0823160e01b81529192506000916001600160a01b03909116906370a0823190612bd39030906004016148dc565b602060405180830381865afa158015612bf0573d6000803e3d6000fd5b505050506040513d601f19601f82011682018060405250810190612c149190614ee8565b905085811015612cee5760006064612c2d886065614d96565b612c379190614db5565b9050828110612cc057612c486130b2565b60d0546040516370a0823160e01b81526001600160a01b03909116906370a0823190612c789030906004016148dc565b602060405180830381865afa158015612c95573d6000803e3d6000fd5b505050506040513d601f19601f82011682018060405250810190612cb99190614ee8565b9050612ce0565b81612cd3612cce8284614e4d565b613fdf565b612cdd9190614f01565b90505b612cea818861408a565b9650505b81612cf860995490565b612d029088614d96565b612d0c9190614db5565b9450612d2e30612d1a611564565b60d0546001600160a01b03169190896140a0565b7f884edad9ce6fa2440d8a54cc123490eb96d2768479d49ff9c7366125a94243643387604051612d5f929190614f19565b60405180910390a150506001606555509092915050565b600080612d816111e9565b6001600160a01b03166370a08231306040518263ffffffff1660e01b8152600401612dac91906148dc565b602060405180830381865afa158015612dc9573d6000803e3d6000fd5b505050506040513d601f19601f82011682018060405250810190612ded9190614ee8565b9050670de0b6b3a7640000612e006111e9565b6001600160a01b031663182df0f56040518163ffffffff1660e01b8152600401602060405180830381865afa158015612e3d573d6000803e3d6000fd5b505050506040513d601f19601f82011682018060405250810190612e619190614ee8565b610ab29083614d96565b6000612e75611573565b6001600160a01b03166395dd9193306040518263ffffffff1660e01b8152600401612ea091906148dc565b602060405180830381865afa158015612ebd573d6000803e3d6000fd5b505050506040513d601f19601f82011682018060405250810190610a5e9190614ee8565b60d15460d0546000918291612f0c91670de0b6b3a7640000916001600160a01b0391821691166121b7565b90506000612f21670de0b6b3a76400006121f6565b9050818111612f31578082612f34565b81815b60cf54919350915081612710612f4a8583614e4d565b612f549190614d96565b612f5e9190614db5565b10612f7b5760405162461bcd60e51b815260040161090390614e64565b60026065541415612f9e5760405162461bcd60e51b815260040161090390614e9b565b60026065556000612fad6123c3565b9050612fb860995490565b15612fe1578085612fc860995490565b612fd29190614d96565b612fdc9190614db5565b612fe3565b845b60d0549094506001600160a01b03166323b872dd612fff611564565b30886040518463ffffffff1660e01b815260040161301f93929190615025565b6020604051808303816000875af115801561303e573d6000803e3d6000fd5b505050506040513d601f19601f820116820180604052508101906130629190615049565b5061306c856140c1565b7fe1fffcc4923d04b559f4d29a8bfc6cda04eb5b0d3c460751c2402c5c5cc9109c338660405161309d929190614f19565b60405180910390a15050600160655550919050565b6130bc6000613f7d565b505060006130c8613cc8565b60d1546040516370a0823160e01b81529192506000916001600160a01b03909116906370a08231906130fe9030906004016148dc565b602060405180830381865afa15801561311b573d6000803e3d6000fd5b505050506040513d601f19601f8201168201806040525081019061313f9190614ee8565b9050808211156131835760006131558284614e4d565b905061317c613162611287565b60d05460d15484916001600160a01b039081169116610cf1565b50506131c1565b818111156131c15760006131978383614e4d565b90506131be6131a4611287565b60d15460d05484916001600160a01b039081169116610911565b50505b60d1546040516370a0823160e01b8152613239916001600160a01b0316906370a08231906131f39030906004016148dc565b602060405180830381865afa158015613210573d6000803e3d6000fd5b505050506040513d601f19601f820116820180604052508101906132349190614ee8565b6137e5565b6000613243613c74565b905061178381614124565b600080613259610d52565b6001600160a01b0316638e8f294b61326f6111e9565b6040518263ffffffff1660e01b815260040161328b91906148dc565b606060405180830381865afa1580156132a8573d6000803e3d6000fd5b505050506040513d601f19601f820116820180604052508101906132cc9190615066565b509392505050565b60008060006132e3858561164a565b509050600080876001600160a01b0316630902f1ac6040518163ffffffff1660e01b8152600401606060405180830381865afa158015613327573d6000803e3d6000fd5b505050506040513d601f19601f8201168201806040525081019061334b91906150c0565b506001600160701b031691506001600160701b03169150826001600160a01b0316876001600160a01b031614613382578082613385565b81815b90999098509650505050505050565b60006133e9826040518060400160405280602081526020017f5361666545524332303a206c6f772d6c6576656c2063616c6c206661696c6564815250856001600160a01b031661419e9092919063ffffffff16565b80519091501561178357808060200190518101906134079190615049565b6117835760405162461bcd60e51b815260206004820152602a60248201527f5361666545524332303a204552433230206f7065726174696f6e20646964206e6044820152691bdd081cdd58d8d9595960b21b6064820152608401610903565b61346e610d52565b6001600160a01b0316630952c5636000306040518363ffffffff1660e01b815260040161349c929190615105565b600060405180830381600087803b1580156134b657600080fd5b505af11580156134ca573d6000803e3d6000fd5b505061013e546040516370a0823160e01b8152600093506001600160a01b0390911691506370a08231906135029030906004016148dc565b602060405180830381865afa15801561351f573d6000803e3d6000fd5b505050506040513d601f19601f820116820180604052508101906135439190614ee8565b905080156135755761013f5461013e5461013d54613573926001600160a01b039081169285929082169116610911565b505b61357d610d52565b6001600160a01b0316630952c5636001306040518363ffffffff1660e01b81526004016135ab929190615105565b600060405180830381600087803b1580156135c557600080fd5b505af11580156135d9573d6000803e3d6000fd5b50506040514792507fb7828c606ac1d345dde5ddccf4f72a887cac5c2627ffabb0ed53c2346497e01091506136149084908490600090614ed2565b60405180910390a1801561178357611783816141ad565b6101725461017654604051631c57762b60e31b81526001600160a01b039092169163e2bbb1589161366191600090600401614c91565b600060405180830381600087803b15801561367b57600080fd5b505af115801561368f573d6000803e3d6000fd5b5050610174546040516370a0823160e01b8152600093506001600160a01b0390911691506370a08231906136c79030906004016148dc565b602060405180830381865afa1580156136e4573d6000803e3d6000fd5b505050506040513d601f19601f820116820180604052508101906137089190614ee8565b9050806137125750565b61017354610174546101775461373a926001600160a01b039081169285929082169116610911565b90507f32a12275d11ded9e7f36c2998c56e68328a566370e94f5a57d62df0bb39c690581604051610b5691815260200190565b6137756111e9565b6001600160a01b031663a0712d68826040518263ffffffff1660e01b81526004016137a291815260200190565b6020604051808303816000875af11580156137c1573d6000803e3d6000fd5b505050506040513d601f19601f82011682018060405250810190610ced9190614ee8565b6137ef60016141ef565b15613864576137fc610a63565b6001600160a01b0316632e1a7d4d826040518263ffffffff1660e01b815260040161382991815260200190565b600060405180830381600087803b15801561384357600080fd5b505af1158015613857573d6000803e3d6000fd5b50505050611535816141ad565b61386c611573565b6001600160a01b0316630e752702826040518263ffffffff1660e01b81526004016137a291815260200190565b6040805160028082526060820183526000926020830190803683370190505090506138c26111e9565b816000815181106138d5576138d5615121565b60200260200101906001600160a01b031690816001600160a01b0316815250506138fd611573565b8160018151811061391057613910615121565b60200260200101906001600160a01b031690816001600160a01b031681525050613938610d52565b6001600160a01b031663c2998238826040518263ffffffff1660e01b81526004016139639190615137565b6000604051808303816000875af1158015613982573d6000803e3d6000fd5b505050506040513d6000823e601f3d908101601f19168201604052610ced9190810190615184565b600054610100900460ff166139d15760405162461bcd60e51b815260040161090390615229565b610dde61420b565b600054610100900460ff16613a005760405162461bcd60e51b815260040161090390615229565b613a08614239565b610dde614260565b801580613a8a5750604051636eb1769f60e11b81523060048201526001600160a01b03838116602483015284169063dd62ed3e90604401602060405180830381865afa158015613a64573d6000803e3d6000fd5b505050506040513d601f19601f82011682018060405250810190613a889190614ee8565b155b613af55760405162461bcd60e51b815260206004820152603660248201527f5361666545524332303a20617070726f76652066726f6d206e6f6e2d7a65726f60448201527520746f206e6f6e2d7a65726f20616c6c6f77616e636560501b6064820152608401610903565b6117838363095ea7b360e01b848460405160240161174c929190614f19565b6000808411613b655760405162461bcd60e51b815260206004820152601d60248201527f556e695574696c733a20494e53554646494349454e545f414d4f554e540000006044820152606401610903565b600083118015613b755750600082115b613bc15760405162461bcd60e51b815260206004820181905260248201527f556e695574696c733a20494e53554646494349454e545f4c49515549444954596044820152606401610903565b82613bcc8386614d96565b613bd69190614db5565b949350505050565b600080613be9614290565b610175546040516370a0823160e01b81529192506000916001600160a01b03909116906370a0823190613c209030906004016148dc565b602060405180830381865afa158015613c3d573d6000803e3d6000fd5b505050506040513d601f19601f82011682018060405250810190613c619190614ee8565b9050613c6d8183614f01565b9250505090565b6000613c7e6111e9565b6001600160a01b0316633af9e669306040518263ffffffff1660e01b8152600401613ca991906148dc565b6020604051808303816000875af1158015612ebd573d6000803e3d6000fd5b6000613cd2611573565b6001600160a01b03166317bfdfbc306040518263ffffffff1660e01b8152600401613ca991906148dc565b6000806000613d0a612d76565b905083811415613d205750600093849350915050565b838111613d4057613d39613d348286614e4d565b614314565b6000613d54565b6000613d54613d4f8684614e4d565b6143b3565b909590945092505050565b600081613d6e57506000919050565b60d05460d154610a7c9184916001600160a01b0391821691166121b7565b613d94611573565b6001600160a01b031663c5ebeaec826040518263ffffffff1660e01b8152600401613dc191815260200190565b6020604051808303816000875af1158015613de0573d6000803e3d6000fd5b505050506040513d601f19601f82011682018060405250810190613e049190614ee8565b50613e0f60016141ef565b1561153557613e1c610a63565b6001600160a01b031663d0e30db0826040518263ffffffff1660e01b81526004016000604051808303818588803b158015613e5657600080fd5b505af1158015611b85573d6000803e3d6000fd5b6000613e90613e77611287565b84613e80610d62565b6001600160a01b0316919061172d565b613ea4613e9b611287565b83613e80610a63565b613eac611287565b6001600160a01b0316636a627842306040518263ffffffff1660e01b8152600401613ed791906148dc565b6020604051808303816000875af1158015613ef6573d6000803e3d6000fd5b505050506040513d601f19601f820116820180604052508101906121ef9190614ee8565b6101725461017654604051631c57762b60e31b81526001600160a01b039092169163e2bbb15891613f4f918590600401614c91565b600060405180830381600087803b158015613f6957600080fd5b505af1158015611cc8573d6000803e3d6000fd5b6000806000613f8a612302565b5090506000613f97613bde565b9050600082613fa68784614d96565b613fb09190614db5565b90506000613fbe8284614e4d565b9050613fc981614457565b613fd28161448c565b9550955050505050915091565b600080613feb836124a2565b90506000613ff7612302565b5090506000614004612e6b565b905060008061401b6140168686614e4d565b613f7d565b9092509050808084101561406657614056614034611287565b61403e8685614e4d565b60d15460d0546001600160a01b039182169116610911565b6140609084614f01565b92508390505b61406f816137e5565b600061407e613d4f858b614e4d565b90506121588185614f01565b600081831061409957816121ef565b5090919050565b611f51846323b872dd60e01b85858560405160240161174c93929190615025565b60006140cc826124a2565b60d05460d1549192506000916140f09184916001600160a01b0391821691166121b7565b90506141046140ff8385614e4d565b61376d565b61410d81613d8c565b60006141198383613e6a565b9050611f5181613f1a565b600061412e6111e9565b6001600160a01b031663852a12e3836040518263ffffffff1660e01b815260040161415b91815260200190565b6020604051808303816000875af115801561417a573d6000803e3d6000fd5b505050506040513d601f19601f820116820180604052508101906117839190614ee8565b6060613bd68484600085614572565b6141b5611573565b6001600160a01b0316634e4d9fea826040518263ffffffff1660e01b81526004016000604051808303818588803b158015613e5657600080fd5b60008160ff16600114614203576000610a7c565b600192915050565b600054610100900460ff166142325760405162461bcd60e51b815260040161090390615229565b6001606555565b600054610100900460ff16610dde5760405162461bcd60e51b815260040161090390615229565b600054610100900460ff166142875760405162461bcd60e51b815260040161090390615229565b610dde33612165565b61017254610176546040516393f1a40b60e01b8152600481019190915230602482015260009182916001600160a01b03909116906393f1a40b906044016040805180830381865afa1580156142e9573d6000803e3d6000fd5b505050506040513d601f19601f8201168201806040525081019061430d9190615274565b5092915050565b60008061431f610d62565b6001600160a01b03166370a08231306040518263ffffffff1660e01b815260040161434a91906148dc565b602060405180830381865afa158015614367573d6000803e3d6000fd5b505050506040513d601f19601f8201168201806040525081019061438b9190614ee8565b905082811161439a578061439c565b825b915081156143ad576143ad8261376d565b50919050565b6000806143c66143c1612e6b565b6121f6565b905060006143d2612d76565b90506000605f6143e061324e565b6143f285670de0b6b3a7640000614d96565b6143fd906064614d96565b6144079190614db5565b6144119190614db5565b90508181111561442657506000949350505050565b60006144328284614e4d565b90508581116144415780614443565b855b945061444e85614124565b50505050919050565b6101725461017654604051630441a3e760e41b81526001600160a01b039092169163441a3e7091613f4f918590600401614c91565b6000806144a361449a611287565b84613e80611287565b60006144bd6144b0610d62565b6144b8610a63565b61164a565b5090506000806144cb611287565b6001600160a01b03166389afcb44306040518263ffffffff1660e01b81526004016144f691906148dc565b60408051808303816000875af1158015614514573d6000803e3d6000fd5b505050506040513d601f19601f820116820180604052508101906145389190615274565b91509150614544610d62565b6001600160a01b0316836001600160a01b031614614563578082614566565b81815b94509450505050915091565b6060824710156145d35760405162461bcd60e51b815260206004820152602660248201527f416464726573733a20696e73756666696369656e742062616c616e636520666f6044820152651c8818d85b1b60d21b6064820152608401610903565b843b6146215760405162461bcd60e51b815260206004820152601d60248201527f416464726573733a2063616c6c20746f206e6f6e2d636f6e74726163740000006044820152606401610903565b600080866001600160a01b0316858760405161463d9190615298565b60006040518083038185875af1925050503d806000811461467a576040519150601f19603f3d011682016040523d82523d6000602084013e61467f565b606091505b509150915061468f82828661469a565b979650505050505050565b606083156146a95750816121ef565b8251156146b95782518084602001fd5b8160405162461bcd60e51b81526004016109039190614838565b8280546146df90614cbc565b90600052602060002090601f0160209004810192826147015760008555614747565b82601f1061471a5782800160ff19823516178555614747565b82800160010185558215614747579182015b8281111561474757823582559160200191906001019061472c565b506147539291506147cb565b5090565b82805461476390614cbc565b90600052602060002090601f0160209004810192826147855760008555614747565b82601f1061479e57805160ff1916838001178555614747565b82800160010185558215614747579182015b828111156147475782518255916020019190600101906147b0565b5b8082111561475357600081556001016147cc565b60005b838110156147fb5781810151838201526020016147e3565b83811115611f515750506000910152565b600081518084526148248160208601602086016147e0565b601f01601f19169290920160200192915050565b6020815260006121ef602083018461480c565b60006020828403121561485d57600080fd5b5035919050565b6001600160a01b038116811461153557600080fd5b803561488481614864565b919050565b6000806000806080858703121561489f57600080fd5b84356148aa81614864565b93506020850135925060408501356148c181614864565b915060608501356148d181614864565b939692955090935050565b6001600160a01b0391909116815260200190565b60006020828403121561490257600080fd5b81356121ef81614864565b60008083601f84011261491f57600080fd5b5081356001600160401b0381111561493657600080fd5b60208301915083602082850101111561172657600080fd5b6000806000806040858703121561496457600080fd5b84356001600160401b038082111561497b57600080fd5b6149878883890161490d565b909650945060208701359150808211156149a057600080fd5b506149ad8782880161490d565b95989497509550505050565b634e487b7160e01b600052604160045260246000fd5b60405161022081016001600160401b03811182821017156149f2576149f26149b9565b60405290565b604051601f8201601f191681016001600160401b0381118282101715614a2057614a206149b9565b604052919050565b600082601f830112614a3957600080fd5b81356001600160401b03811115614a5257614a526149b9565b614a65601f8201601f19166020016149f8565b818152846020838601011115614a7a57600080fd5b816020850160208301376000918101602001919091529392505050565b600060208284031215614aa957600080fd5b81356001600160401b0380821115614ac057600080fd5b908301906102208286031215614ad557600080fd5b614add6149cf565b614ae683614879565b8152614af460208401614879565b6020820152614b0560408401614879565b6040820152614b1660608401614879565b6060820152614b2760808401614879565b6080820152614b3860a08401614879565b60a0820152614b4960c08401614879565b60c0820152614b5a60e08401614879565b60e08201526101008381013590820152610120614b78818501614879565b90820152610140614b8a848201614879565b90820152610160614b9c848201614879565b90820152610180614bae848201614879565b908201526101a083810135908201526101c0614bcb818501614879565b908201526101e08381013583811115614be357600080fd5b614bef88828701614a28565b8284015250506102008084013583811115614c0957600080fd5b614c1588828701614a28565b918301919091525095945050505050565b801515811461153557600080fd5b60008060408385031215614c4757600080fd5b8235614c5281614864565b91506020830135614c6281614c26565b809150509250929050565b600060208284031215614c7f57600080fd5b813561ffff811681146121ef57600080fd5b918252602082015260400190565b600060208284031215614cb157600080fd5b81516121ef81614864565b600181811c90821680614cd057607f821691505b602082108114156143ad57634e487b7160e01b600052602260045260246000fd5b6020808252818101527f4f776e61626c653a2063616c6c6572206973206e6f7420746865206f776e6572604082015260600190565b84815283602082015260018060a01b0383166040820152608060608201526000614d53608083018461480c565b9695505050505050565b600060208284031215614d6f57600080fd5b815160ff811681146121ef57600080fd5b634e487b7160e01b600052601160045260246000fd5b6000816000190483118215151615614db057614db0614d80565b500290565b600082614dd257634e487b7160e01b600052601260045260246000fd5b500490565b6020808252600e908201526d0a6e8e4c2e874409c9ebe82aaa8960931b604082015260600190565b6020808252602e908201527f496e697469616c697a61626c653a20636f6e747261637420697320616c72656160408201526d191e481a5b9a5d1a585b1a5e995960921b606082015260800190565b600082821015614e5f57614e5f614d80565b500390565b6020808252601e908201527f4865646765644c503a2053484f52545f50524943455f4d49534d415443480000604082015260600190565b6020808252601f908201527f5265656e7472616e637947756172643a207265656e7472616e742063616c6c00604082015260600190565b9283526020830191909152604082015260600190565b600060208284031215614efa57600080fd5b5051919050565b60008219821115614f1457614f14614d80565b500190565b6001600160a01b03929092168252602082015260400190565b600181815b80851115614f6d578160001904821115614f5357614f53614d80565b80851615614f6057918102915b93841c9390800290614f37565b509250929050565b600082614f8457506001610a7c565b81614f9157506000610a7c565b8160018114614fa75760028114614fb157614fcd565b6001915050610a7c565b60ff841115614fc257614fc2614d80565b50506001821b610a7c565b5060208310610133831016604e8410600b8410161715614ff0575081810a610a7c565b614ffa8383614f32565b806000190482111561500e5761500e614d80565b029392505050565b60006121ef60ff841683614f75565b6001600160a01b039384168152919092166020820152604081019190915260600190565b60006020828403121561505b57600080fd5b81516121ef81614c26565b60008060006060848603121561507b57600080fd5b835161508681614c26565b60208501516040860151919450925061509e81614c26565b809150509250925092565b80516001600160701b038116811461488457600080fd5b6000806000606084860312156150d557600080fd5b6150de846150a9565b92506150ec602085016150a9565b9150604084015163ffffffff8116811461509e57600080fd5b60ff9290921682526001600160a01b0316602082015260400190565b634e487b7160e01b600052603260045260246000fd5b6020808252825182820181905260009190848201906040850190845b818110156151785783516001600160a01b031683529284019291840191600101615153565b50909695505050505050565b6000602080838503121561519757600080fd5b82516001600160401b03808211156151ae57600080fd5b818501915085601f8301126151c257600080fd5b8151818111156151d4576151d46149b9565b8060051b91506151e58483016149f8565b81815291830184019184810190888411156151ff57600080fd5b938501935b8385101561521d57845182529385019390850190615204565b98975050505050505050565b6020808252602b908201527f496e697469616c697a61626c653a20636f6e7472616374206973206e6f74206960408201526a6e697469616c697a696e6760a81b606082015260800190565b6000806040838503121561528757600080fd5b505080516020909101519092909150565b600082516152aa8184602087016147e0565b919091019291505056fea2646970667358221220876085b494a57cd43010fe0a36535e1e8a31c2ea7774d390d91a8d6f43f1dd4d64736f6c634300080a0033",
  "libraries": {
    "UniUtils": "0x0517Ca29c3948779cD61849A51DCA85449fe3128"
  },
  "devdoc": {
    "kind": "dev",
    "methods": {
      "owner()": {
        "details": "Returns the address of the current owner."
      },
      "renounceOwnership()": {
        "details": "Leaves the contract without owner. It will not be possible to call `onlyOwner` functions anymore. Can only be called by the current owner. NOTE: Renouncing ownership will leave the contract without an owner, thereby removing any functionality that is only available to the owner."
      },
      "transferOwnership(address)": {
        "details": "Transfers ownership of the contract to a new account (`newOwner`). Can only be called by the current owner."
      }
    },
    "version": 1
  },
  "userdoc": {
    "kind": "user",
    "methods": {
      "getPricePerShare()": {
        "notice": "Returns the share price of the strategy in `want` units, multiplied  by 1e18"
      }
    },
    "version": 1
  },
  "storageLayout": {
    "storage": [
      {
        "astId": 132,
        "contract": "src/strategies/impl/USDCavaxJOEqi.sol:USDCavaxJOEqi",
        "label": "_initialized",
        "offset": 0,
        "slot": "0",
        "type": "t_bool"
      },
      {
        "astId": 135,
        "contract": "src/strategies/impl/USDCavaxJOEqi.sol:USDCavaxJOEqi",
        "label": "_initializing",
        "offset": 1,
        "slot": "0",
        "type": "t_bool"
      },
      {
        "astId": 1454,
        "contract": "src/strategies/impl/USDCavaxJOEqi.sol:USDCavaxJOEqi",
        "label": "__gap",
        "offset": 0,
        "slot": "1",
        "type": "t_array(t_uint256)50_storage"
      },
      {
        "astId": 10,
        "contract": "src/strategies/impl/USDCavaxJOEqi.sol:USDCavaxJOEqi",
        "label": "_owner",
        "offset": 0,
        "slot": "51",
        "type": "t_address"
      },
      {
        "astId": 124,
        "contract": "src/strategies/impl/USDCavaxJOEqi.sol:USDCavaxJOEqi",
        "label": "__gap",
        "offset": 0,
        "slot": "52",
        "type": "t_array(t_uint256)49_storage"
      },
      {
        "astId": 213,
        "contract": "src/strategies/impl/USDCavaxJOEqi.sol:USDCavaxJOEqi",
        "label": "_status",
        "offset": 0,
        "slot": "101",
        "type": "t_uint256"
      },
      {
        "astId": 256,
        "contract": "src/strategies/impl/USDCavaxJOEqi.sol:USDCavaxJOEqi",
        "label": "__gap",
        "offset": 0,
        "slot": "102",
        "type": "t_array(t_uint256)49_storage"
      },
      {
        "astId": 15273,
        "contract": "src/strategies/impl/USDCavaxJOEqi.sol:USDCavaxJOEqi",
        "label": "lastHarvest",
        "offset": 0,
        "slot": "151",
        "type": "t_uint256"
      },
      {
        "astId": 15275,
        "contract": "src/strategies/impl/USDCavaxJOEqi.sol:USDCavaxJOEqi",
        "label": "_vault",
        "offset": 0,
        "slot": "152",
        "type": "t_address"
      },
      {
        "astId": 15277,
        "contract": "src/strategies/impl/USDCavaxJOEqi.sol:USDCavaxJOEqi",
        "label": "_shares",
        "offset": 0,
        "slot": "153",
        "type": "t_uint256"
      },
      {
        "astId": 15279,
        "contract": "src/strategies/impl/USDCavaxJOEqi.sol:USDCavaxJOEqi",
        "label": "name",
        "offset": 0,
        "slot": "154",
        "type": "t_string_storage"
      },
      {
        "astId": 15281,
        "contract": "src/strategies/impl/USDCavaxJOEqi.sol:USDCavaxJOEqi",
        "label": "symbol",
        "offset": 0,
        "slot": "155",
        "type": "t_string_storage"
      },
      {
        "astId": 15285,
        "contract": "src/strategies/impl/USDCavaxJOEqi.sol:USDCavaxJOEqi",
        "label": "_managers",
        "offset": 0,
        "slot": "156",
        "type": "t_mapping(t_address,t_bool)"
      },
      {
        "astId": 15287,
        "contract": "src/strategies/impl/USDCavaxJOEqi.sol:USDCavaxJOEqi",
        "label": "BASE_UNIT",
        "offset": 0,
        "slot": "157",
        "type": "t_uint256"
      },
      {
        "astId": 15565,
        "contract": "src/strategies/impl/USDCavaxJOEqi.sol:USDCavaxJOEqi",
        "label": "_gap",
        "offset": 0,
        "slot": "158",
        "type": "t_array(t_uint256)49_storage"
      },
      {
        "astId": 15598,
        "contract": "src/strategies/impl/USDCavaxJOEqi.sol:USDCavaxJOEqi",
        "label": "_maxPriceMismatch",
        "offset": 0,
        "slot": "207",
        "type": "t_uint256"
      },
      {
        "astId": 15655,
        "contract": "src/strategies/impl/USDCavaxJOEqi.sol:USDCavaxJOEqi",
        "label": "_underlying",
        "offset": 0,
        "slot": "208",
        "type": "t_contract(IERC20)3568"
      },
      {
        "astId": 15658,
        "contract": "src/strategies/impl/USDCavaxJOEqi.sol:USDCavaxJOEqi",
        "label": "_short",
        "offset": 0,
        "slot": "209",
        "type": "t_contract(IERC20)3568"
      },
      {
        "astId": 15660,
        "contract": "src/strategies/impl/USDCavaxJOEqi.sol:USDCavaxJOEqi",
        "label": "_minLendHarvest",
        "offset": 0,
        "slot": "210",
        "type": "t_uint256"
      },
      {
        "astId": 15662,
        "contract": "src/strategies/impl/USDCavaxJOEqi.sol:USDCavaxJOEqi",
        "label": "rebalanceThreshold",
        "offset": 0,
        "slot": "211",
        "type": "t_uint16"
      },
      {
        "astId": 16923,
        "contract": "src/strategies/impl/USDCavaxJOEqi.sol:USDCavaxJOEqi",
        "label": "_gap",
        "offset": 0,
        "slot": "212",
        "type": "t_array(t_uint256)50_storage"
      },
      {
        "astId": 17803,
        "contract": "src/strategies/impl/USDCavaxJOEqi.sol:USDCavaxJOEqi",
        "label": "_cTokenLend",
        "offset": 0,
        "slot": "262",
        "type": "t_contract(ICTokenErc20)12715"
      },
      {
        "astId": 17806,
        "contract": "src/strategies/impl/USDCavaxJOEqi.sol:USDCavaxJOEqi",
        "label": "_cTokenBorrow",
        "offset": 0,
        "slot": "263",
        "type": "t_contract(ICTokenErc20)12715"
      },
      {
        "astId": 17809,
        "contract": "src/strategies/impl/USDCavaxJOEqi.sol:USDCavaxJOEqi",
        "label": "_comptroller",
        "offset": 0,
        "slot": "264",
        "type": "t_contract(IComptroller)12957"
      },
      {
        "astId": 17812,
        "contract": "src/strategies/impl/USDCavaxJOEqi.sol:USDCavaxJOEqi",
        "label": "_oracle",
        "offset": 0,
        "slot": "265",
        "type": "t_contract(ICompPriceOracle)12738"
      },
      {
        "astId": 17814,
        "contract": "src/strategies/impl/USDCavaxJOEqi.sol:USDCavaxJOEqi",
        "label": "_safeCollateralRatio",
        "offset": 0,
        "slot": "266",
        "type": "t_uint256"
      },
      {
        "astId": 17950,
        "contract": "src/strategies/impl/USDCavaxJOEqi.sol:USDCavaxJOEqi",
        "label": "_gap",
        "offset": 0,
        "slot": "267",
        "type": "t_array(t_uint256)50_storage"
      },
      {
        "astId": 17534,
        "contract": "src/strategies/impl/USDCavaxJOEqi.sol:USDCavaxJOEqi",
        "label": "_harvestTo",
        "offset": 0,
        "slot": "317",
        "type": "t_address"
      },
      {
        "astId": 17537,
        "contract": "src/strategies/impl/USDCavaxJOEqi.sol:USDCavaxJOEqi",
        "label": "_farmToken",
        "offset": 0,
        "slot": "318",
        "type": "t_contract(IERC20)3568"
      },
      {
        "astId": 17540,
        "contract": "src/strategies/impl/USDCavaxJOEqi.sol:USDCavaxJOEqi",
        "label": "_farmPair",
        "offset": 0,
        "slot": "319",
        "type": "t_contract(IUniswapV2Pair)13541"
      },
      {
        "astId": 17782,
        "contract": "src/strategies/impl/USDCavaxJOEqi.sol:USDCavaxJOEqi",
        "label": "_gap",
        "offset": 0,
        "slot": "320",
        "type": "t_array(t_uint256)50_storage"
      },
      {
        "astId": 18143,
        "contract": "src/strategies/impl/USDCavaxJOEqi.sol:USDCavaxJOEqi",
        "label": "_farm",
        "offset": 0,
        "slot": "370",
        "type": "t_contract(IMasterChef)13221"
      },
      {
        "astId": 18146,
        "contract": "src/strategies/impl/USDCavaxJOEqi.sol:USDCavaxJOEqi",
        "label": "_farmPair",
        "offset": 0,
        "slot": "371",
        "type": "t_contract(IUniswapV2Pair)13541"
      },
      {
        "astId": 18149,
        "contract": "src/strategies/impl/USDCavaxJOEqi.sol:USDCavaxJOEqi",
        "label": "_farmToken",
        "offset": 0,
        "slot": "372",
        "type": "t_contract(IERC20)3568"
      },
      {
        "astId": 18152,
        "contract": "src/strategies/impl/USDCavaxJOEqi.sol:USDCavaxJOEqi",
        "label": "_pair",
        "offset": 0,
        "slot": "373",
        "type": "t_contract(IUniswapV2Pair)13541"
      },
      {
        "astId": 18154,
        "contract": "src/strategies/impl/USDCavaxJOEqi.sol:USDCavaxJOEqi",
        "label": "_farmId",
        "offset": 0,
        "slot": "374",
        "type": "t_uint256"
      },
      {
        "astId": 18156,
        "contract": "src/strategies/impl/USDCavaxJOEqi.sol:USDCavaxJOEqi",
        "label": "_harvestTo",
        "offset": 0,
        "slot": "375",
        "type": "t_address"
      },
      {
        "astId": 18394,
        "contract": "src/strategies/impl/USDCavaxJOEqi.sol:USDCavaxJOEqi",
        "label": "_gap",
        "offset": 0,
        "slot": "376",
        "type": "t_array(t_uint256)49_storage"
      },
      {
        "astId": 16945,
        "contract": "src/strategies/impl/USDCavaxJOEqi.sol:USDCavaxJOEqi",
        "label": "_gap",
        "offset": 0,
        "slot": "425",
        "type": "t_array(t_uint256)200_storage"
      },
      {
        "astId": 17071,
        "contract": "src/strategies/impl/USDCavaxJOEqi.sol:USDCavaxJOEqi",
        "label": "version",
        "offset": 0,
        "slot": "625",
        "type": "t_uint256"
      }
    ],
    "types": {
      "t_address": {
        "encoding": "inplace",
        "label": "address",
        "numberOfBytes": "20"
      },
      "t_array(t_uint256)200_storage": {
        "base": "t_uint256",
        "encoding": "inplace",
        "label": "uint256[200]",
        "numberOfBytes": "6400"
      },
      "t_array(t_uint256)49_storage": {
        "base": "t_uint256",
        "encoding": "inplace",
        "label": "uint256[49]",
        "numberOfBytes": "1568"
      },
      "t_array(t_uint256)50_storage": {
        "base": "t_uint256",
        "encoding": "inplace",
        "label": "uint256[50]",
        "numberOfBytes": "1600"
      },
      "t_bool": {
        "encoding": "inplace",
        "label": "bool",
        "numberOfBytes": "1"
      },
      "t_contract(ICTokenErc20)12715": {
        "encoding": "inplace",
        "label": "contract ICTokenErc20",
        "numberOfBytes": "20"
      },
      "t_contract(ICompPriceOracle)12738": {
        "encoding": "inplace",
        "label": "contract ICompPriceOracle",
        "numberOfBytes": "20"
      },
      "t_contract(IComptroller)12957": {
        "encoding": "inplace",
        "label": "contract IComptroller",
        "numberOfBytes": "20"
      },
      "t_contract(IERC20)3568": {
        "encoding": "inplace",
        "label": "contract IERC20",
        "numberOfBytes": "20"
      },
      "t_contract(IMasterChef)13221": {
        "encoding": "inplace",
        "label": "contract IMasterChef",
        "numberOfBytes": "20"
      },
      "t_contract(IUniswapV2Pair)13541": {
        "encoding": "inplace",
        "label": "contract IUniswapV2Pair",
        "numberOfBytes": "20"
      },
      "t_mapping(t_address,t_bool)": {
        "encoding": "mapping",
        "key": "t_address",
        "label": "mapping(address => bool)",
        "numberOfBytes": "32",
        "value": "t_bool"
      },
      "t_string_storage": {
        "encoding": "bytes",
        "label": "string",
        "numberOfBytes": "32"
      },
      "t_uint16": {
        "encoding": "inplace",
        "label": "uint16",
        "numberOfBytes": "2"
      },
      "t_uint256": {
        "encoding": "inplace",
        "label": "uint256",
        "numberOfBytes": "32"
      }
    }
  }
}