{
  "address": "0xEB3A119247D7C29C3be4aA28bdEa8af6f9AB8f80",
  "abi": [
    {
      "inputs": [
        {
          "components": [
            {
              "internalType": "address",
              "name": "underlying",
              "type": "address"
            },
            {
              "internalType": "address",
              "name": "short",
              "type": "address"
            },
            {
              "internalType": "address",
              "name": "cTokenLend",
              "type": "address"
            },
            {
              "internalType": "address",
              "name": "cTokenBorrow",
              "type": "address"
            },
            {
              "internalType": "address",
              "name": "uniPair",
              "type": "address"
            },
            {
              "internalType": "address",
              "name": "uniFarm",
              "type": "address"
            },
            {
              "internalType": "address",
              "name": "farmToken",
              "type": "address"
            },
            {
              "internalType": "uint256",
              "name": "farmId",
              "type": "uint256"
            },
            {
              "internalType": "address",
              "name": "farmRouter",
              "type": "address"
            },
            {
              "internalType": "address",
              "name": "comptroller",
              "type": "address"
            },
            {
              "internalType": "address",
              "name": "lendRewardRouter",
              "type": "address"
            },
            {
              "internalType": "address",
              "name": "lendRewardToken",
              "type": "address"
            },
            {
              "internalType": "address",
              "name": "vault",
              "type": "address"
            },
            {
              "internalType": "string",
              "name": "symbol",
              "type": "string"
            },
            {
              "internalType": "string",
              "name": "name",
              "type": "string"
            },
            {
              "internalType": "uint256",
              "name": "maxTvl",
              "type": "uint256"
            }
          ],
          "internalType": "struct Config",
          "name": "config",
          "type": "tuple"
        }
      ],
      "stateMutability": "nonpayable",
      "type": "constructor"
    },
    {
      "anonymous": false,
      "inputs": [
        {
          "indexed": false,
          "internalType": "address",
          "name": "sender",
          "type": "address"
        },
        {
          "indexed": false,
          "internalType": "uint256",
          "name": "amount",
          "type": "uint256"
        }
      ],
      "name": "Deposit",
      "type": "event"
    },
    {
      "anonymous": false,
      "inputs": [
        {
          "indexed": true,
          "internalType": "address",
          "name": "recipient",
          "type": "address"
        },
        {
          "indexed": false,
          "internalType": "contract IERC20[]",
          "name": "tokens",
          "type": "address[]"
        }
      ],
      "name": "EmergencyWithdraw",
      "type": "event"
    },
    {
      "anonymous": false,
      "inputs": [
        {
          "indexed": false,
          "internalType": "uint256",
          "name": "harvested",
          "type": "uint256"
        }
      ],
      "name": "Harvest",
      "type": "event"
    },
    {
      "anonymous": false,
      "inputs": [
        {
          "indexed": true,
          "internalType": "address",
          "name": "token",
          "type": "address"
        },
        {
          "indexed": false,
          "internalType": "uint256",
          "name": "amount",
          "type": "uint256"
        }
      ],
      "name": "HarvestedToken",
      "type": "event"
    },
    {
      "anonymous": false,
      "inputs": [
        {
          "indexed": true,
          "internalType": "address",
          "name": "account",
          "type": "address"
        },
        {
          "indexed": false,
          "internalType": "bool",
          "name": "isManager",
          "type": "bool"
        }
      ],
      "name": "ManagerUpdate",
      "type": "event"
    },
    {
      "anonymous": false,
      "inputs": [
        {
          "indexed": true,
          "internalType": "address",
          "name": "previousOwner",
          "type": "address"
        },
        {
          "indexed": true,
          "internalType": "address",
          "name": "newOwner",
          "type": "address"
        }
      ],
      "name": "OwnershipTransferred",
      "type": "event"
    },
    {
      "anonymous": false,
      "inputs": [
        {
          "indexed": false,
          "internalType": "uint256",
          "name": "shortPrice",
          "type": "uint256"
        },
        {
          "indexed": false,
          "internalType": "uint256",
          "name": "tvlBeforeRebalance",
          "type": "uint256"
        },
        {
          "indexed": false,
          "internalType": "uint256",
          "name": "positionOffset",
          "type": "uint256"
        }
      ],
      "name": "Rebalance",
      "type": "event"
    },
    {
      "anonymous": false,
      "inputs": [
        {
          "indexed": true,
          "internalType": "address",
          "name": "sender",
          "type": "address"
        },
        {
          "indexed": false,
          "internalType": "uint256",
          "name": "startLoanHealth",
          "type": "uint256"
        },
        {
          "indexed": false,
          "internalType": "uint256",
          "name": "updatedLoanHealth",
          "type": "uint256"
        }
      ],
      "name": "RebalanceLoan",
      "type": "event"
    },
    {
      "anonymous": false,
      "inputs": [
        {
          "indexed": false,
          "internalType": "uint256",
          "name": "loanHealth",
          "type": "uint256"
        }
      ],
      "name": "SetMaxPriceMismatch",
      "type": "event"
    },
    {
      "anonymous": false,
      "inputs": [
        {
          "indexed": false,
          "internalType": "uint256",
          "name": "loanHealth",
          "type": "uint256"
        }
      ],
      "name": "SetMaxTvl",
      "type": "event"
    },
    {
      "anonymous": false,
      "inputs": [
        {
          "indexed": false,
          "internalType": "uint256",
          "name": "loanHealth",
          "type": "uint256"
        }
      ],
      "name": "SetRebalanceThreshold",
      "type": "event"
    },
    {
      "anonymous": false,
      "inputs": [
        {
          "indexed": false,
          "internalType": "uint256",
          "name": "collateralRatio",
          "type": "uint256"
        }
      ],
      "name": "SetSafeCollateralRaio",
      "type": "event"
    },
    {
      "anonymous": false,
      "inputs": [
        {
          "indexed": true,
          "internalType": "address",
          "name": "vault",
          "type": "address"
        }
      ],
      "name": "VaultUpdate",
      "type": "event"
    },
    {
      "anonymous": false,
      "inputs": [
        {
          "indexed": false,
          "internalType": "address",
          "name": "sender",
          "type": "address"
        },
        {
          "indexed": false,
          "internalType": "uint256",
          "name": "amount",
          "type": "uint256"
        }
      ],
      "name": "Withdraw",
      "type": "event"
    },
    {
      "anonymous": false,
      "inputs": [
        {
          "indexed": false,
          "internalType": "uint256",
          "name": "loanHealth",
          "type": "uint256"
        }
      ],
      "name": "setMinLoanHealth",
      "type": "event"
    },
    {
      "inputs": [],
      "name": "BASE_UNIT",
      "outputs": [
        {
          "internalType": "uint256",
          "name": "",
          "type": "uint256"
        }
      ],
      "stateMutability": "view",
      "type": "function"
    },
    {
      "inputs": [
        {
          "internalType": "address",
          "name": "",
          "type": "address"
        }
      ],
      "name": "balanceOfUnderlying",
      "outputs": [
        {
          "internalType": "uint256",
          "name": "",
          "type": "uint256"
        }
      ],
      "stateMutability": "view",
      "type": "function"
    },
    {
      "inputs": [],
      "name": "balanceOfUnderlying",
      "outputs": [
        {
          "internalType": "uint256",
          "name": "",
          "type": "uint256"
        }
      ],
      "stateMutability": "view",
      "type": "function"
    },
    {
      "inputs": [],
      "name": "cTokenBorrow",
      "outputs": [
        {
          "internalType": "contract ICTokenErc20",
          "name": "",
          "type": "address"
        }
      ],
      "stateMutability": "view",
      "type": "function"
    },
    {
      "inputs": [],
      "name": "cTokenLend",
      "outputs": [
        {
          "internalType": "contract ICTokenErc20",
          "name": "",
          "type": "address"
        }
      ],
      "stateMutability": "view",
      "type": "function"
    },
    {
      "inputs": [],
      "name": "closePosition",
      "outputs": [],
      "stateMutability": "nonpayable",
      "type": "function"
    },
    {
      "inputs": [],
      "name": "comptroller",
      "outputs": [
        {
          "internalType": "contract IComptroller",
          "name": "",
          "type": "address"
        }
      ],
      "stateMutability": "view",
      "type": "function"
    },
    {
      "inputs": [],
      "name": "decimals",
      "outputs": [
        {
          "internalType": "uint8",
          "name": "",
          "type": "uint8"
        }
      ],
      "stateMutability": "view",
      "type": "function"
    },
    {
      "inputs": [
        {
          "internalType": "address",
          "name": "recipient",
          "type": "address"
        },
        {
          "internalType": "contract IERC20[]",
          "name": "tokens",
          "type": "address[]"
        }
      ],
      "name": "emergencyWithdraw",
      "outputs": [],
      "stateMutability": "nonpayable",
      "type": "function"
    },
    {
      "inputs": [],
      "name": "farmRouter",
      "outputs": [
        {
          "internalType": "contract IUniswapV2Router01",
          "name": "",
          "type": "address"
        }
      ],
      "stateMutability": "view",
      "type": "function"
    },
    {
      "inputs": [],
      "name": "getCollateralRatio",
      "outputs": [
        {
          "internalType": "uint256",
          "name": "",
          "type": "uint256"
        }
      ],
      "stateMutability": "view",
      "type": "function"
    },
    {
      "inputs": [],
      "name": "getMaxTvl",
      "outputs": [
        {
          "internalType": "uint256",
          "name": "",
          "type": "uint256"
        }
      ],
      "stateMutability": "view",
      "type": "function"
    },
    {
      "inputs": [],
      "name": "getPositionOffset",
      "outputs": [
        {
          "internalType": "uint256",
          "name": "positionOffset",
          "type": "uint256"
        }
      ],
      "stateMutability": "view",
      "type": "function"
    },
    {
      "inputs": [],
      "name": "getPricePerShare",
      "outputs": [
        {
          "internalType": "uint256",
          "name": "",
          "type": "uint256"
        }
      ],
      "stateMutability": "view",
      "type": "function"
    },
    {
      "inputs": [],
      "name": "getTVL",
      "outputs": [
        {
          "internalType": "uint256",
          "name": "tvl",
          "type": "uint256"
        },
        {
          "internalType": "uint256",
          "name": "collateralBalance",
          "type": "uint256"
        },
        {
          "internalType": "uint256",
          "name": "borrowPosition",
          "type": "uint256"
        },
        {
          "internalType": "uint256",
          "name": "borrowBalance",
          "type": "uint256"
        },
        {
          "internalType": "uint256",
          "name": "lpBalance",
          "type": "uint256"
        },
        {
          "internalType": "uint256",
          "name": "underlyingBalance",
          "type": "uint256"
        }
      ],
      "stateMutability": "view",
      "type": "function"
    },
    {
      "inputs": [],
      "name": "getTotalTVL",
      "outputs": [
        {
          "internalType": "uint256",
          "name": "tvl",
          "type": "uint256"
        }
      ],
      "stateMutability": "view",
      "type": "function"
    },
    {
      "inputs": [],
      "name": "getUnderlyingShortReserves",
      "outputs": [
        {
          "internalType": "uint256",
          "name": "reserveA",
          "type": "uint256"
        },
        {
          "internalType": "uint256",
          "name": "reserveB",
          "type": "uint256"
        }
      ],
      "stateMutability": "view",
      "type": "function"
    },
    {
      "inputs": [
        {
          "components": [
            {
              "internalType": "address[]",
              "name": "path",
              "type": "address[]"
            },
            {
              "internalType": "uint256",
              "name": "min",
              "type": "uint256"
            },
            {
              "internalType": "uint256",
              "name": "deadline",
              "type": "uint256"
            }
          ],
          "internalType": "struct HarvestSwapParms[]",
          "name": "uniParams",
          "type": "tuple[]"
        },
        {
          "components": [
            {
              "internalType": "address[]",
              "name": "path",
              "type": "address[]"
            },
            {
              "internalType": "uint256",
              "name": "min",
              "type": "uint256"
            },
            {
              "internalType": "uint256",
              "name": "deadline",
              "type": "uint256"
            }
          ],
          "internalType": "struct HarvestSwapParms[]",
          "name": "lendingParams",
          "type": "tuple[]"
        }
      ],
      "name": "harvest",
      "outputs": [
        {
          "internalType": "uint256[]",
          "name": "farmHarvest",
          "type": "uint256[]"
        },
        {
          "internalType": "uint256[]",
          "name": "lendHarvest",
          "type": "uint256[]"
        }
      ],
      "stateMutability": "nonpayable",
      "type": "function"
    },
    {
      "inputs": [],
      "name": "isCEther",
      "outputs": [
        {
          "internalType": "bool",
          "name": "",
          "type": "bool"
        }
      ],
      "stateMutability": "pure",
      "type": "function"
    },
    {
      "inputs": [],
      "name": "isIntialized",
      "outputs": [
        {
          "internalType": "bool",
          "name": "",
          "type": "bool"
        }
      ],
      "stateMutability": "view",
      "type": "function"
    },
    {
      "inputs": [
        {
          "internalType": "address",
          "name": "user",
          "type": "address"
        }
      ],
      "name": "isManager",
      "outputs": [
        {
          "internalType": "bool",
          "name": "",
          "type": "bool"
        }
      ],
      "stateMutability": "view",
      "type": "function"
    },
    {
      "inputs": [],
      "name": "lastHarvest",
      "outputs": [
        {
          "internalType": "uint256",
          "name": "",
          "type": "uint256"
        }
      ],
      "stateMutability": "view",
      "type": "function"
    },
    {
      "inputs": [],
      "name": "lendFarmRouter",
      "outputs": [
        {
          "internalType": "contract IUniswapV2Router01",
          "name": "",
          "type": "address"
        }
      ],
      "stateMutability": "view",
      "type": "function"
    },
    {
      "inputs": [],
      "name": "loanHealth",
      "outputs": [
        {
          "internalType": "uint256",
          "name": "",
          "type": "uint256"
        }
      ],
      "stateMutability": "view",
      "type": "function"
    },
    {
      "inputs": [],
      "name": "maxPriceMismatch",
      "outputs": [
        {
          "internalType": "uint256",
          "name": "",
          "type": "uint256"
        }
      ],
      "stateMutability": "view",
      "type": "function"
    },
    {
      "inputs": [],
      "name": "minLoanHealth",
      "outputs": [
        {
          "internalType": "uint256",
          "name": "",
          "type": "uint256"
        }
      ],
      "stateMutability": "view",
      "type": "function"
    },
    {
      "inputs": [
        {
          "internalType": "uint256",
          "name": "amount",
          "type": "uint256"
        }
      ],
      "name": "mint",
      "outputs": [
        {
          "internalType": "uint256",
          "name": "errCode",
          "type": "uint256"
        }
      ],
      "stateMutability": "nonpayable",
      "type": "function"
    },
    {
      "inputs": [],
      "name": "name",
      "outputs": [
        {
          "internalType": "string",
          "name": "",
          "type": "string"
        }
      ],
      "stateMutability": "view",
      "type": "function"
    },
    {
      "inputs": [],
      "name": "oracle",
      "outputs": [
        {
          "internalType": "contract ICompPriceOracle",
          "name": "",
          "type": "address"
        }
      ],
      "stateMutability": "view",
      "type": "function"
    },
    {
      "inputs": [],
      "name": "owner",
      "outputs": [
        {
          "internalType": "address",
          "name": "",
          "type": "address"
        }
      ],
      "stateMutability": "view",
      "type": "function"
    },
    {
      "inputs": [],
      "name": "pair",
      "outputs": [
        {
          "internalType": "contract IUniswapV2Pair",
          "name": "",
          "type": "address"
        }
      ],
      "stateMutability": "view",
      "type": "function"
    },
    {
      "inputs": [],
      "name": "rebalance",
      "outputs": [],
      "stateMutability": "nonpayable",
      "type": "function"
    },
    {
      "inputs": [],
      "name": "rebalanceLoan",
      "outputs": [],
      "stateMutability": "nonpayable",
      "type": "function"
    },
    {
      "inputs": [],
      "name": "rebalanceThreshold",
      "outputs": [
        {
          "internalType": "uint16",
          "name": "",
          "type": "uint16"
        }
      ],
      "stateMutability": "view",
      "type": "function"
    },
    {
      "inputs": [
        {
          "internalType": "uint256",
          "name": "amount",
          "type": "uint256"
        }
      ],
      "name": "redeemUnderlying",
      "outputs": [
        {
          "internalType": "uint256",
          "name": "errCode",
          "type": "uint256"
        }
      ],
      "stateMutability": "nonpayable",
      "type": "function"
    },
    {
      "inputs": [],
      "name": "renounceOwnership",
      "outputs": [],
      "stateMutability": "nonpayable",
      "type": "function"
    },
    {
      "inputs": [],
      "name": "safeCollateralRatio",
      "outputs": [
        {
          "internalType": "uint256",
          "name": "",
          "type": "uint256"
        }
      ],
      "stateMutability": "view",
      "type": "function"
    },
    {
      "inputs": [
        {
          "internalType": "address",
          "name": "user",
          "type": "address"
        },
        {
          "internalType": "bool",
          "name": "_isManager",
          "type": "bool"
        }
      ],
      "name": "setManager",
      "outputs": [],
      "stateMutability": "nonpayable",
      "type": "function"
    },
    {
      "inputs": [
        {
          "internalType": "uint256",
          "name": "maxPriceMismatch_",
          "type": "uint256"
        }
      ],
      "name": "setMaxPriceMismatch",
      "outputs": [],
      "stateMutability": "nonpayable",
      "type": "function"
    },
    {
      "inputs": [
        {
          "internalType": "uint256",
          "name": "maxTvl_",
          "type": "uint256"
        }
      ],
      "name": "setMaxTvl",
      "outputs": [],
      "stateMutability": "nonpayable",
      "type": "function"
    },
    {
      "inputs": [
        {
          "internalType": "uint256",
          "name": "minLoanHealth_",
          "type": "uint256"
        }
      ],
      "name": "setMinLoanHeath",
      "outputs": [],
      "stateMutability": "nonpayable",
      "type": "function"
    },
    {
      "inputs": [
        {
          "internalType": "uint16",
          "name": "rebalanceThreshold_",
          "type": "uint16"
        }
      ],
      "name": "setRebalanceThreshold",
      "outputs": [],
      "stateMutability": "nonpayable",
      "type": "function"
    },
    {
      "inputs": [
        {
          "internalType": "uint256",
          "name": "safeCollateralRatio_",
          "type": "uint256"
        }
      ],
      "name": "setSafeCollateralRatio",
      "outputs": [],
      "stateMutability": "nonpayable",
      "type": "function"
    },
    {
      "inputs": [
        {
          "internalType": "address",
          "name": "vault_",
          "type": "address"
        }
      ],
      "name": "setVault",
      "outputs": [],
      "stateMutability": "nonpayable",
      "type": "function"
    },
    {
      "inputs": [],
      "name": "short",
      "outputs": [
        {
          "internalType": "contract IERC20",
          "name": "",
          "type": "address"
        }
      ],
      "stateMutability": "view",
      "type": "function"
    },
    {
      "inputs": [],
      "name": "symbol",
      "outputs": [
        {
          "internalType": "string",
          "name": "",
          "type": "string"
        }
      ],
      "stateMutability": "view",
      "type": "function"
    },
    {
      "inputs": [],
      "name": "totalSupply",
      "outputs": [
        {
          "internalType": "uint256",
          "name": "",
          "type": "uint256"
        }
      ],
      "stateMutability": "view",
      "type": "function"
    },
    {
      "inputs": [
        {
          "internalType": "address",
          "name": "newOwner",
          "type": "address"
        }
      ],
      "name": "transferOwnership",
      "outputs": [],
      "stateMutability": "nonpayable",
      "type": "function"
    },
    {
      "inputs": [],
      "name": "underlying",
      "outputs": [
        {
          "internalType": "contract IERC20",
          "name": "",
          "type": "address"
        }
      ],
      "stateMutability": "view",
      "type": "function"
    },
    {
      "inputs": [],
      "name": "vault",
      "outputs": [
        {
          "internalType": "address",
          "name": "",
          "type": "address"
        }
      ],
      "stateMutability": "view",
      "type": "function"
    },
    {
      "stateMutability": "payable",
      "type": "receive"
    }
  ],
  "transactionHash": "0x9963c3e02cff06667a811ab6c762d3305f2abf6fa318b7bb67c71a67cd0f500d",
  "args": [
    [
      "0xA7D7079b0FEaD91F3e65f86E8915Cb59c1a4C664",
      "0xB31f66AA3C1e785363F0875A1B74E27b85FD66c7",
      "0xBEb5d47A3f720Ec0a390d04b4d41ED7d9688bC7F",
      "0x5C0401e81Bc07Ca70fAD469b451682c0d747Ef1c",
      "0xbd918Ed441767fe7924e99F6a0E0B568ac1970D9",
      "0x1f806f7C8dED893fd3caE279191ad7Aa3798E928",
      "0x60781C2586D68229fde47564546784ab3fACA982",
      9,
      "0xE54Ca86531e17Ef3616d22Ca28b0D458b6C89106",
      "0x486Af39519B4Dc9a7fCcd318217352830E8AD9b4",
      "0xE54Ca86531e17Ef3616d22Ca28b0D458b6C89106",
      "0x8729438EB15e2C8B576fCc6AeCdA6A148776C0F5",
      "0x9A17EB664a80175c389Cb11F93ce4D7A007f884b",
      "USDCavaxPNGqi",
      "USDC AVAX Pangolin BenQi",
      "115792089237316195423570985008687907853269984665640564039457584007913129639935"
    ]
  ],
  "numDeployments": 9,
  "solcInputHash": "dce09552465092227e48508c8d78c016",
  "bytecode": "0x60806040526096600c55670e27c49886e60000600d55600e805461ffff19166101901790556120d06010553480156200003757600080fd5b50604051620061c0380380620061c08339810160408190526200005a9162000d80565b6101808101516101a08201516101c0830151620000773362000147565b60018055600480546001600160a01b0319166001600160a01b0385161790558151620000ab90600790602085019062000ba1565b508051620000c190600690602084019062000ba1565b505050608082015160a083015161010084015160c085015160e0860151620000ea955062000197565b6200010a816101200151826040015183606001516200021c60201b60201c565b62000126816101400151826101600151620002e860201b60201c565b805160208201516101e0830151620001409291906200035d565b5062001293565b600080546001600160a01b038381166001600160a01b0319831681178455604051919092169283917f8be0079c531659141344cd1fd0a4f28419497f9722a3daafe3b4186f6b6457e09190a35050565b60025460ff1615620001c65760405162461bcd60e51b8152600401620001bd9062000f22565b60405180910390fd5b601880546001600160a01b03199081166001600160a01b039687161790915560198054821694861694909417909355601a8054841692851692909217909155601b80549092169390921692909217909155601c55565b601280546001600160a01b038085166001600160a01b03199283161790925560138054848416908316179055601480549286169290911682179055604080516307dc0d1d60e41b81529051637dc0d1d0916004808201926020929091908290030181865afa15801562000293573d6000803e3d6000fd5b505050506040513d601f19601f82011682018060405250810190620002b9919062000f47565b601580546001600160a01b0319166001600160a01b0392909216919091179055620002e36200050b565b505050565b60025460ff16156200030e5760405162461bcd60e51b8152600401620001bd9062000f22565b601780546001600160a01b03199081166001600160a01b0384811691821790935560168054909216928516928317909155620003599160001962000607602090811b620019f317901c565b5050565b60025460ff1615620003835760405162461bcd60e51b8152600401620001bd9062000f22565b600a80546001600160a01b038086166001600160a01b03199283168117909355600b805491861691909216179055620003cf9030600019620019f362000607602090811b91909117901c565b620003d962000751565b620003e690600a6200107a565b600955620003f481620007c7565b7f5ceaf8b7b0d35f85ef4df565057cd318e70d9f8681f89425a2d5e09c1c70a7f9600d546040516200042891815260200190565b60405180910390a17f3e87fa3180c1babd204ce79375729d7a6694a2d2f0fb3e250f9138488ed066bb600c546040516200046491815260200190565b60405180910390a1600e5460405161ffff90911681527f36c98a54ec4f90fe58a67bf25cfc1691dbd53639eee3513536d83e8d34fb0a9b9060200160405180910390a17f4812bd1abd1ad4ea905335e3af941ec67d6d51ecb36ab58f23af0af081aac57b601054604051620004db91815260200190565b60405180910390a1620004ed6200086f565b620004f7620008dd565b50506002805461ff00191661010017905550565b6040805160028082526060820183526000926020830190803683375050601254919250506001600160a01b0316816000815181106200054e576200054e6200108b565b6001600160a01b03928316602091820292909201015260135416816001815181106200057e576200057e6200108b565b6001600160a01b039283166020918202929092010152601454604051631853304760e31b815291169063c299823890620005bd908490600401620010a1565b6000604051808303816000875af1158015620005dd573d6000803e3d6000fd5b505050506040513d6000823e601f3d908101601f19168201604052620003599190810190620010f0565b801580620006855750604051636eb1769f60e11b81523060048201526001600160a01b03838116602483015284169063dd62ed3e90604401602060405180830381865afa1580156200065d573d6000803e3d6000fd5b505050506040513d601f19601f82011682018060405250810190620006839190620011a0565b155b620006f95760405162461bcd60e51b815260206004820152603660248201527f5361666545524332303a20617070726f76652066726f6d206e6f6e2d7a65726f60448201527f20746f206e6f6e2d7a65726f20616c6c6f77616e6365000000000000000000006064820152608401620001bd565b604080516001600160a01b038416602482015260448082018490528251808303909101815260649091019091526020810180516001600160e01b0390811663095ea7b360e01b17909152620002e39185916200093716565b600a546040805163313ce56760e01b815290516000926001600160a01b03169163313ce5679160048083019260209291908290030181865afa1580156200079c573d6000803e3d6000fd5b505050506040513d601f19601f82011682018060405250810190620007c29190620011ba565b905090565b6000546001600160a01b0316331480620007f557503360009081526008602052604090205460ff1615156001145b620008345760405162461bcd60e51b815260206004820152600e60248201526d0a6e8e4c2e874409c9ebe82aaa8960931b6044820152606401620001bd565b600f8190556040518181527f13d3e08a22782064d3062f92ff1101a623b60e3bf91f236b5d1e9fdddfc12a129060200160405180910390a150565b601254620008b4906001600160a01b031660001962000896600a546001600160a01b031690565b6001600160a01b03166200060760201b620019f3179092919060201c565b601354620008db906001600160a01b031660001962000896600b546001600160a01b031690565b565b601854601b546200090a916001600160a01b03918216911660001962000607602090811b620019f317901c565b601954601a54620008db916001600160a01b03918216911660001962000607602090811b620019f317901c565b600062000993826040518060400160405280602081526020017f5361666545524332303a206c6f772d6c6576656c2063616c6c206661696c6564815250856001600160a01b031662000a1560201b62001b33179092919060201c565b805190915015620002e35780806020019051810190620009b49190620011df565b620002e35760405162461bcd60e51b815260206004820152602a60248201527f5361666545524332303a204552433230206f7065726174696f6e20646964206e6044820152691bdd081cdd58d8d9595960b21b6064820152608401620001bd565b606062000a26848460008562000a30565b90505b9392505050565b60608247101562000a935760405162461bcd60e51b815260206004820152602660248201527f416464726573733a20696e73756666696369656e742062616c616e636520666f6044820152651c8818d85b1b60d21b6064820152608401620001bd565b843b62000ae35760405162461bcd60e51b815260206004820152601d60248201527f416464726573733a2063616c6c20746f206e6f6e2d636f6e74726163740000006044820152606401620001bd565b600080866001600160a01b0316858760405162000b01919062001203565b60006040518083038185875af1925050503d806000811462000b40576040519150601f19603f3d011682016040523d82523d6000602084013e62000b45565b606091505b50909250905062000b5882828662000b63565b979650505050505050565b6060831562000b7457508162000a29565b82511562000b855782518084602001fd5b8160405162461bcd60e51b8152600401620001bd919062001221565b82805462000baf9062001256565b90600052602060002090601f01602090048101928262000bd3576000855562000c1e565b82601f1062000bee57805160ff191683800117855562000c1e565b8280016001018555821562000c1e579182015b8281111562000c1e57825182559160200191906001019062000c01565b5062000c2c92915062000c30565b5090565b5b8082111562000c2c576000815560010162000c31565b634e487b7160e01b600052604160045260246000fd5b60405161020081016001600160401b038111828210171562000c835762000c8362000c47565b60405290565b604051601f8201601f191681016001600160401b038111828210171562000cb45762000cb462000c47565b604052919050565b80516001600160a01b038116811462000cd457600080fd5b919050565b60005b8381101562000cf657818101518382015260200162000cdc565b8381111562000d06576000848401525b50505050565b600082601f83011262000d1e57600080fd5b81516001600160401b0381111562000d3a5762000d3a62000c47565b62000d4f601f8201601f191660200162000c89565b81815284602083860101111562000d6557600080fd5b62000d7882602083016020870162000cd9565b949350505050565b60006020828403121562000d9357600080fd5b81516001600160401b038082111562000dab57600080fd5b90830190610200828603121562000dc157600080fd5b62000dcb62000c5d565b62000dd68362000cbc565b815262000de66020840162000cbc565b602082015262000df96040840162000cbc565b604082015262000e0c6060840162000cbc565b606082015262000e1f6080840162000cbc565b608082015262000e3260a0840162000cbc565b60a082015262000e4560c0840162000cbc565b60c082015260e083015160e082015261010062000e6481850162000cbc565b9082015261012062000e7884820162000cbc565b9082015261014062000e8c84820162000cbc565b9082015261016062000ea084820162000cbc565b9082015261018062000eb484820162000cbc565b908201526101a0838101518381111562000ecd57600080fd5b62000edb8882870162000d0c565b8284015250506101c0808401518381111562000ef657600080fd5b62000f048882870162000d0c565b91830191909152506101e09283015192810192909252509392505050565b6020808252600b908201526a125392551250531256915160aa1b604082015260600190565b60006020828403121562000f5a57600080fd5b62000a298262000cbc565b634e487b7160e01b600052601160045260246000fd5b600181815b8085111562000fbc57816000190482111562000fa05762000fa062000f65565b8085161562000fae57918102915b93841c939080029062000f80565b509250929050565b60008262000fd55750600162001074565b8162000fe45750600062001074565b816001811462000ffd5760028114620010085762001028565b600191505062001074565b60ff8411156200101c576200101c62000f65565b50506001821b62001074565b5060208310610133831016604e8410600b84101617156200104d575081810a62001074565b62001059838362000f7b565b806000190482111562001070576200107062000f65565b0290505b92915050565b600062000a2960ff84168362000fc4565b634e487b7160e01b600052603260045260246000fd5b6020808252825182820181905260009190848201906040850190845b81811015620010e45783516001600160a01b031683529284019291840191600101620010bd565b50909695505050505050565b600060208083850312156200110457600080fd5b82516001600160401b03808211156200111c57600080fd5b818501915085601f8301126200113157600080fd5b81518181111562001146576200114662000c47565b8060051b91506200115984830162000c89565b81815291830184019184810190888411156200117457600080fd5b938501935b83851015620011945784518252938501939085019062001179565b98975050505050505050565b600060208284031215620011b357600080fd5b5051919050565b600060208284031215620011cd57600080fd5b815160ff8116811462000a2957600080fd5b600060208284031215620011f257600080fd5b8151801515811462000a2957600080fd5b600082516200121781846020870162000cd9565b9190910192915050565b60208152600082518060208401526200124281604085016020870162000cd9565b601f01601f19169190910160400192915050565b600181811c908216806200126b57607f821691505b602082108114156200128d57634e487b7160e01b600052602260045260246000fd5b50919050565b614f1d80620012a36000396000f3fe60806040526004361061023d5760003560e01c806306fdde03146102495780630c021ae5146102745780630d55046c146102975780630e962f00146102be57806314b0750b146102d45780631585e0b6146102f657806318160ddd14610316578063313ce5671461032b578063358d6a041461035257806338bea4cb146103675780633af9e6691461037c5780633bf295cc1461039c5780633d68175c146103b15780633dcf1342146103c65780633dfe9f6a146103e65780634880f951146104145780635fe3b5671461042957806366be952d1461043e5780636817031b146104545780636f307dc314610474578063711326ce14610489578063715018a6146104a95780637d7c2a1c146104be5780637da64483146104d35780637dc0d1d0146104fd5780637ffe28e314610512578063852a12e31461052757806386aceac7146105475780638da5cb5b1461055d57806395d89b411461057257806397b3fcaa14610587578063a0712d68146105c9578063a52602b9146105e9578063a5e90eee146105fe578063a8aa1b311461061e578063ac784ddc14610633578063b580a12814610647578063c393d0e31461065c578063cb50087f14610671578063cd377c5314610691578063d539fe4b146106a6578063de747e5a146106bb578063f1a392da146106db578063f20aea0f146106f1578063f2fde38b1461071f578063f3ae24151461073f578063f9e40ac414610778578063fbfa77cf146107a2578063fd6bac70146107b7578063fec18b3a146107cc57600080fd5b3661024457005b600080fd5b34801561025557600080fd5b5061025e6107e1565b60405161026b91906146c6565b60405180910390f35b34801561028057600080fd5b5061028961086f565b60405190815260200161026b565b3480156102a357600080fd5b506019546001600160a01b03165b60405161026b91906146d9565b3480156102ca57600080fd5b5061028960095481565b3480156102e057600080fd5b506102f46102ef3660046146ed565b610884565b005b34801561030257600080fd5b506102f46103113660046146ed565b6108f8565b34801561032257600080fd5b50600554610289565b34801561033757600080fd5b50610340610962565b60405160ff909116815260200161026b565b34801561035e57600080fd5b506102896109d5565b34801561037357600080fd5b506102b16109fa565b34801561038857600080fd5b5061028961039736600461471b565b610a09565b3480156103a857600080fd5b50610289610a1a565b3480156103bd57600080fd5b50610289610a83565b3480156103d257600080fd5b506102f46103e136600461477c565b610ac4565b3480156103f257600080fd5b50600e546104019061ffff1681565b60405161ffff909116815260200161026b565b34801561042057600080fd5b50601154610289565b34801561043557600080fd5b506102b1610c2b565b34801561044a57600080fd5b50610289600c5481565b34801561046057600080fd5b506102f461046f36600461471b565b610c3a565b34801561048057600080fd5b506102b1610cb3565b34801561049557600080fd5b506102f46104a43660046146ed565b610cc2565b3480156104b557600080fd5b506102f4610db4565b3480156104ca57600080fd5b506102f4610def565b3480156104df57600080fd5b506002546104ed9060ff1681565b604051901515815260200161026b565b34801561050957600080fd5b506102b1610feb565b34801561051e57600080fd5b506102f4610ffa565b34801561053357600080fd5b506102896105423660046146ed565b611120565b34801561055357600080fd5b50610289600d5481565b34801561056957600080fd5b506102b1611187565b34801561057e57600080fd5b5061025e611196565b34801561059357600080fd5b5061059c6111a3565b604080519687526020870195909552938501929092526060840152608083015260a082015260c00161026b565b3480156105d557600080fd5b506102896105e43660046146ed565b61132c565b3480156105f557600080fd5b506102b1611385565b34801561060a57600080fd5b506102f46106193660046147de565b611394565b34801561062a57600080fd5b506102b1611422565b34801561063f57600080fd5b5060006104ed565b34801561065357600080fd5b50610289611431565b34801561066857600080fd5b506102f4611534565b34801561067d57600080fd5b506102f461068c3660046146ed565b61161e565b34801561069d57600080fd5b506102896116aa565b3480156106b257600080fd5b50601054610289565b3480156106c757600080fd5b506102f46106d6366004614817565b6116da565b3480156106e757600080fd5b5061028960035481565b3480156106fd57600080fd5b5061071161070c36600461483b565b61174d565b60405161026b9291906148e1565b34801561072b57600080fd5b506102f461073a36600461471b565b6118ef565b34801561074b57600080fd5b506104ed61075a36600461471b565b6001600160a01b031660009081526008602052604090205460ff1690565b34801561078457600080fd5b5061078d61198f565b6040805192835260208301919091520161026b565b3480156107ae57600080fd5b506102b16119c6565b3480156107c357600080fd5b506102b16119d5565b3480156107d857600080fd5b506102b16119e4565b600680546107ee9061490f565b80601f016020809104026020016040519081016040528092919081815260200182805461081a9061490f565b80156108675780601f1061083c57610100808354040283529160200191610867565b820191906000526020600020905b81548152906001019060200180831161084a57829003601f168201915b505050505081565b60006108796111a3565b509395945050505050565b3361088d611187565b6001600160a01b0316146108bc5760405162461bcd60e51b81526004016108b390614944565b60405180910390fd5b60108190556040518181527f4812bd1abd1ad4ea905335e3af941ec67d6d51ecb36ab58f23af0af081aac57b906020015b60405180910390a150565b33610901611187565b6001600160a01b0316146109275760405162461bcd60e51b81526004016108b390614944565b600d8190556040518181527f5ceaf8b7b0d35f85ef4df565057cd318e70d9f8681f89425a2d5e09c1c70a7f9906020016108ed565b60055490565b600a546040805163313ce56760e01b815290516000926001600160a01b03169163313ce5679160048083019260209291908290030181865afa1580156109ac573d6000803e3d6000fd5b505050506040513d601f19601f820116820180604052508101906109d09190614979565b905090565b60006109d0600f546109f56109f06109eb611b4c565b611bb7565b611cc3565b611cf1565b600b546001600160a01b031690565b6000610a1460115490565b92915050565b600080610a286109eb611d07565b90506000610a34611d59565b90506000610a40611e4e565b610a5284670de0b6b3a76400006149b2565b610a5c91906149d1565b905080610a7183670de0b6b3a76400006149b2565b610a7b91906149d1565b935050505090565b600080610a8f60115490565b905060055460001415610aa457505060095490565b600554600954610ab490836149b2565b610abe91906149d1565b91505090565b610acc6119c6565b6001600160a01b0316336001600160a01b031614610afc5760405162461bcd60e51b81526004016108b3906149f3565b60005b81811015610bd2576000838383818110610b1b57610b1b614a1e565b9050602002016020810190610b30919061471b565b90506000816001600160a01b03166370a08231306040518263ffffffff1660e01b8152600401610b6091906146d9565b602060405180830381865afa158015610b7d573d6000803e3d6000fd5b505050506040513d601f19601f82011682018060405250810190610ba19190614a34565b90508015610bbd57610bbd6001600160a01b0383168783611ed4565b50508080610bca90614a4d565b915050610aff565b504715610be357610be33347611ef3565b826001600160a01b03167f2b06144d62a3a5785ec284ed392b3d106610ae2ce7af270417c4ca38277571048383604051610c1e929190614a68565b60405180910390a2505050565b6014546001600160a01b031690565b33610c43611187565b6001600160a01b031614610c695760405162461bcd60e51b81526004016108b390614944565b600480546001600160a01b0319166001600160a01b0383169081179091556040517fdabed91cf547ed2ee836d5787bae42fc3bca488166c65791051105490fbcf7ca90600090a250565b600a546001600160a01b031690565b610cca611187565b6001600160a01b0316336001600160a01b03161480610cfd57503360009081526008602052604090205460ff1615156001145b610d195760405162461bcd60e51b81526004016108b390614ab6565b610d21611187565b6001600160a01b0316336001600160a01b03161480610d4257508061012c10155b610d7f5760405162461bcd60e51b815260206004820152600e60248201526d484c503a20544f4f204c4152474560901b60448201526064016108b3565b600c8190556040518181527f3e87fa3180c1babd204ce79375729d7a6694a2d2f0fb3e250f9138488ed066bb906020016108ed565b33610dbd611187565b6001600160a01b031614610de35760405162461bcd60e51b81526004016108b390614944565b610ded6000611f44565b565b610df7611187565b6001600160a01b0316336001600160a01b03161480610e2a57503360009081526008602052604090205460ff1615156001145b610e465760405162461bcd60e51b81526004016108b390614ab6565b6000610e59670de0b6b3a7640000611f94565b90506000610e6e670de0b6b3a7640000611bb7565b9050818111610e7e578082610e81565b81815b600c54919350915081612710610e978583614ade565b610ea191906149b2565b610eab91906149d1565b10610ec85760405162461bcd60e51b81526004016108b390614af5565b60026001541415610eeb5760405162461bcd60e51b81526004016108b390614b22565b60026001556000610efa611fc7565b90506000610f06611431565b600e5490915061ffff168111610f505760405162461bcd60e51b815260206004820152600f60248201526e09098a07440a48a845aa890a48aa69608b1b60448201526064016108b3565b81610f5c575050610fd0565b6000610f67836121b4565b9050610f7c81610f778186614ade565b6121d7565b7fe0b4077da7dfa5015ff10fab6a214f37acc1b23d745f30336942d17e07848c6b610fae670de0b6b3a7640000611f94565b6040805191825260208201859052810185905260600160405180910390a15050505b60018055610fdc6111a3565b50505060119290925550505050565b6015546001600160a01b031690565b6002600154141561101d5760405162461bcd60e51b81526004016108b390614b22565b6002600155600061102c610a1a565b9050600d5481111561106c5760405162461bcd60e51b8152602060048201526009602482015268484c503a205341464560b81b60448201526064016108b3565b6000611076612302565b5090506000600d54612710838561251c61109091906149b2565b61109a91906149b2565b6110a491906149d1565b6110ae91906149d1565b90506000806110bc836123c3565b915091506110c9816124d1565b6110d2826125cc565b337fdacd0a02d11128b25d6c3de23e91f71aa9dd5620c6f5c69f35a18d15e1168468866110fd610a1a565b6040805192835260208301919091520160405180910390a2505060018055505050565b600061112a6119c6565b6001600160a01b0316336001600160a01b03161461115a5760405162461bcd60e51b81526004016108b3906149f3565b600061116583612601565b905080600560008282546111799190614ade565b909155506000949350505050565b6000546001600160a01b031690565b600780546107ee9061490f565b6000806000806000806111b4611d59565b94506111be611d07565b93506111c984611f94565b600b546040516370a0823160e01b81529194506000916001600160a01b03909116906370a08231906111ff9030906004016146d9565b602060405180830381865afa15801561121c573d6000803e3d6000fd5b505050506040513d601f19601f820116820180604052508101906112409190614a34565b9050600081156112585761125382611bb7565b61125b565b60005b9050600080611268612302565b9150915061127581611f94565b61127f9083614b59565b600a546040516370a0823160e01b81529197506001600160a01b0316906370a08231906112b09030906004016146d9565b602060405180830381865afa1580156112cd573d6000803e3d6000fd5b505050506040513d601f19601f820116820180604052508101906112f19190614a34565b9450828588611300898d614b59565b61130a9190614ade565b6113149190614b59565b61131e9190614b59565b995050505050909192939495565b60006113366119c6565b6001600160a01b0316336001600160a01b0316146113665760405162461bcd60e51b81526004016108b3906149f3565b600061137183612888565b905080600560008282546111799190614b59565b6012546001600160a01b031690565b3361139d611187565b6001600160a01b0316146113c35760405162461bcd60e51b81526004016108b390614944565b6001600160a01b038216600081815260086020908152604091829020805460ff191685151590811790915591519182527f2458f684567d238b66deaa0126265bf3becabda0caaab7ebdda6b1794614a2d3910160405180910390a25050565b601b546001600160a01b031690565b60008061143c612302565b9150506000611449611d07565b600b546040516370a0823160e01b81529192506000916001600160a01b03909116906370a082319061147f9030906004016146d9565b602060405180830381865afa15801561149c573d6000803e3d6000fd5b505050506040513d601f19601f820116820180604052508101906114c09190614a34565b6114ca9084614b59565b9050818114156114de576000935050505090565b816114ee57612710935050505090565b81811161151c57816127106115038383614ade565b61150d91906149b2565b61151791906149d1565b610a7b565b8161271061152a8284614ade565b610a7191906149b2565b61153c611187565b6001600160a01b0316336001600160a01b0316148061156f57503360009081526008602052604090205460ff1615156001145b61158b5760405162461bcd60e51b81526004016108b390614ab6565b600061159e670de0b6b3a7640000611f94565b905060006115b3670de0b6b3a7640000611bb7565b90508181116115c35780826115c6565b81815b600c549193509150816127106115dc8583614ade565b6115e691906149b2565b6115f091906149d1565b1061160d5760405162461bcd60e51b81526004016108b390614af5565b611615612a9e565b50610fdc6111a3565b611626611187565b6001600160a01b0316336001600160a01b0316148061165957503360009081526008602052604090205460ff1615156001145b6116755760405162461bcd60e51b81526004016108b390614ab6565b600f8190556040518181527f13d3e08a22782064d3062f92ff1101a623b60e3bf91f236b5d1e9fdddfc12a12906020016108ed565b6000670de0b6b3a76400006116be60105490565b6116c6611e4e565b6116d091906149b2565b6109d091906149d1565b336116e3611187565b6001600160a01b0316146117095760405162461bcd60e51b81526004016108b390614944565b600e805461ffff191661ffff83169081179091556040519081527f36c98a54ec4f90fe58a67bf25cfc1691dbd53639eee3513536d83e8d34fb0a9b906020016108ed565b606080611758611187565b6001600160a01b0316336001600160a01b0316148061178b57503360009081526008602052604090205460ff1615156001145b6117a75760405162461bcd60e51b81526004016108b390614ab6565b60006117ba670de0b6b3a7640000611f94565b905060006117cf670de0b6b3a7640000611bb7565b90508181116117df5780826117e2565b81815b600c549193509150816127106117f88583614ade565b61180291906149b2565b61180c91906149d1565b106118295760405162461bcd60e51b81526004016108b390614af5565b6002600154141561184c5760405162461bcd60e51b81526004016108b390614b22565b6002600155600061185b6111a3565b50939450508a159250611878915050576118758989612cb7565b94505b851561188b576118888787612ec3565b93505b6118966000196131c4565b6040518181527f80f97f878e16410266694f134ddf012f2be424f54f8b5cafa107eccc51d00d589060200160405180910390a150600180556118d66111a3565b5050506011929092555093989297509195505050505050565b336118f8611187565b6001600160a01b03161461191e5760405162461bcd60e51b81526004016108b390614944565b6001600160a01b0381166119835760405162461bcd60e51b815260206004820152602660248201527f4f776e61626c653a206e6577206f776e657220697320746865207a65726f206160448201526564647265737360d01b60648201526084016108b3565b61198c81611f44565b50565b6000806119bd61199d610cb3565b6119a56109fa565b6119ad611422565b6001600160a01b031691906133c5565b90939092509050565b6004546001600160a01b031690565b6013546001600160a01b031690565b6016546001600160a01b031690565b801580611a6d5750604051636eb1769f60e11b81523060048201526001600160a01b03838116602483015284169063dd62ed3e90604401602060405180830381865afa158015611a47573d6000803e3d6000fd5b505050506040513d601f19601f82011682018060405250810190611a6b9190614a34565b155b611ad85760405162461bcd60e51b815260206004820152603660248201527f5361666545524332303a20617070726f76652066726f6d206e6f6e2d7a65726f60448201527520746f206e6f6e2d7a65726f20616c6c6f77616e636560501b60648201526084016108b3565b611b2e8363095ea7b360e01b8484604051602401611af7929190614b71565b60408051601f198184030181529190526020810180516001600160e01b03166001600160e01b031990931692909217909152613485565b505050565b6060611b428484600085613557565b90505b9392505050565b6000611b566119d5565b6001600160a01b0316633b1d21a26040518163ffffffff1660e01b8152600401602060405180830381865afa158015611b93573d6000803e3d6000fd5b505050506040513d601f19601f820116820180604052508101906109d09190614a34565b6000611bc1610feb565b6001600160a01b031663fc57d4df611bd7611385565b6040518263ffffffff1660e01b8152600401611bf391906146d9565b602060405180830381865afa158015611c10573d6000803e3d6000fd5b505050506040513d601f19601f82011682018060405250810190611c349190614a34565b611c3c610feb565b6001600160a01b031663fc57d4df611c526119d5565b6040518263ffffffff1660e01b8152600401611c6e91906146d9565b602060405180830381865afa158015611c8b573d6000803e3d6000fd5b505050506040513d601f19601f82011682018060405250810190611caf9190614a34565b611cb990846149b2565b610a1491906149d1565b600080611cce6116aa565b905080611cdd81612710614b59565b611ce790856149b2565b611b4591906149d1565b6000818310611d005781611b45565b5090919050565b6000611d116119d5565b6001600160a01b03166395dd9193306040518263ffffffff1660e01b8152600401611d3c91906146d9565b602060405180830381865afa158015611b93573d6000803e3d6000fd5b600080611d64611385565b6001600160a01b03166370a08231306040518263ffffffff1660e01b8152600401611d8f91906146d9565b602060405180830381865afa158015611dac573d6000803e3d6000fd5b505050506040513d601f19601f82011682018060405250810190611dd09190614a34565b9050670de0b6b3a7640000611de3611385565b6001600160a01b031663182df0f56040518163ffffffff1660e01b8152600401602060405180830381865afa158015611e20573d6000803e3d6000fd5b505050506040513d601f19601f82011682018060405250810190611e449190614a34565b610ab490836149b2565b600080611e59610c2b565b6001600160a01b0316638e8f294b611e6f611385565b6040518263ffffffff1660e01b8152600401611e8b91906146d9565b606060405180830381865afa158015611ea8573d6000803e3d6000fd5b505050506040513d601f19601f82011682018060405250810190611ecc9190614b8a565b509392505050565b611b2e8363a9059cbb60e01b8484604051602401611af7929190614b71565b600080600080600085875af1905080611b2e5760405162461bcd60e51b815260206004820152601360248201527211551217d514905394d1915497d19052531151606a1b60448201526064016108b3565b600080546001600160a01b038381166001600160a01b0319831681178455604051919092169283917f8be0079c531659141344cd1fd0a4f28419497f9722a3daafe3b4186f6b6457e09190a35050565b60008115611fbf57600b54600a54611fba9184916001600160a01b03918216911661367f565b610a14565b600092915050565b600080611fd26136b7565b90506000611fde61370b565b90506000611feb82611bb7565b600b546040516370a0823160e01b81529192506000916001600160a01b03909116906370a08231906120219030906004016146d9565b602060405180830381865afa15801561203e573d6000803e3d6000fd5b505050506040513d601f19601f820116820180604052508101906120629190614a34565b9050600081156120e957600b546040516370a0823160e01b81526120e4916001600160a01b0316906370a082319061209e9030906004016146d9565b602060405180830381865afa1580156120bb573d6000803e3d6000fd5b505050506040513d601f19601f820116820180604052508101906120df9190614a34565b611f94565b6120ec565b60005b905060006120f8612302565b50600a546040516370a0823160e01b81529192506000916001600160a01b03909116906370a082319061212f9030906004016146d9565b602060405180830381865afa15801561214c573d6000803e3d6000fd5b505050506040513d601f19601f820116820180604052508101906121709190614a34565b90508281866121808560026149b2565b61218a908b614b59565b6121949190614ade565b61219e9190614b59565b6121a89190614b59565b97505050505050505090565b6000806121bf6116aa565b90506121cd81612710614b59565b611ce782856149b2565b60006121e283613740565b905060006121ee611d07565b90508082111561223f5761221a600061220786866137db565b1161221257846123c3565b60005b6123c3565b50506122258361384f565b5061223a90506122358284614ade565b6138b1565b6122f3565b808210156122f35761225160006123c3565b5050600b546040516370a0823160e01b81526000916122d5916001600160a01b03909116906370a082319061228a9030906004016146d9565b602060405180830381865afa1580156122a7573d6000803e3d6000fd5b505050506040513d601f19601f820116820180604052508101906122cb9190614a34565b6109f58585614ade565b905080156122e6576122e6816124d1565b6122ef8461384f565b5050505b6122fc826131c4565b50505050565b600080600061230f613997565b905060008061231c61198f565b91509150600061232a611422565b6001600160a01b03166318160ddd6040518163ffffffff1660e01b8152600401602060405180830381865afa158015612367573d6000803e3d6000fd5b505050506040513d601f19601f8201168201806040525081019061238b9190614a34565b90508061239885856149b2565b6123a291906149d1565b9550806123af85846149b2565b6123b991906149d1565b9450505050509091565b60008060006123d0612302565b5090508084106123e65750600093849350915050565b60006123f0613997565b90506000826123ff87846149b2565b61240991906149d1565b905060006124178284614ade565b90506000612423611422565b6001600160a01b03166370a08231306040518263ffffffff1660e01b815260040161244e91906146d9565b602060405180830381865afa15801561246b573d6000803e3d6000fd5b505050506040513d601f19601f8201168201806040525081019061248f9190614a34565b9050808211156124ab576124ab6124a68284614ade565b613a2c565b81156124bf576124ba82613a96565b6124c3565b6000805b965096505050505050915091565b6124db6001613b8c565b15612550576124e86109fa565b6001600160a01b0316632e1a7d4d826040518263ffffffff1660e01b815260040161251591815260200190565b600060405180830381600087803b15801561252f57600080fd5b505af1158015612543573d6000803e3d6000fd5b5050505061198c81613ba8565b6125586119d5565b6001600160a01b0316630e752702826040518263ffffffff1660e01b815260040161258591815260200190565b6020604051808303816000875af11580156125a4573d6000803e3d6000fd5b505050506040513d601f19601f820116820180604052508101906125c89190614a34565b5050565b6125d4611385565b6001600160a01b031663a0712d68826040518263ffffffff1660e01b815260040161258591815260200190565b600080612615670de0b6b3a7640000611f94565b9050600061262a670de0b6b3a7640000611bb7565b905081811161263a57808261263d565b81815b600c549193509150816127106126538583614ade565b61265d91906149b2565b61266791906149d1565b106126845760405162461bcd60e51b81526004016108b390614af5565b600260015414156126a75760405162461bcd60e51b81526004016108b390614b22565b6002600155836126ba5760009250612869565b60006126c4611fc7565b9050806126d5576000935050612869565b600a546040516370a0823160e01b81526000916001600160a01b0316906370a08231906127069030906004016146d9565b602060405180830381865afa158015612723573d6000803e3d6000fd5b505050506040513d601f19601f820116820180604052508101906127479190614a34565b9050858110156127c4576000600019871461277e57612779836103e861276f8a6103ed6149b2565b6109f591906149d1565b612780565b825b9050828110156127ac578161279d6127988284614ade565b613bea565b6127a79190614b59565b6127b4565b6127b4612a9e565b90506127c08188611cf1565b9650505b6127cc6111a3565b5093955061280b93508592506127e4915061095c9050565b6127ef896001614b59565b6127f991906149b2565b61280391906149d1565b600554611cf1565b945061282d306128196119c6565b600a546001600160a01b0316919089613c7a565b7f884edad9ce6fa2440d8a54cc123490eb96d2768479d49ff9c7366125a9424364338760405161285e929190614b71565b60405180910390a150505b600180556128756111a3565b5050506011929092555092949350505050565b60008061289c670de0b6b3a7640000611f94565b905060006128b1670de0b6b3a7640000611bb7565b90508181116128c15780826128c4565b81815b600c549193509150816127106128da8583614ade565b6128e491906149b2565b6128ee91906149d1565b1061290b5760405162461bcd60e51b81526004016108b390614af5565b6002600154141561292e5760405162461bcd60e51b81526004016108b390614b22565b6002600155836129415760009250612869565b600061294b611fc7565b90506129556109d5565b61295f8287614b59565b11156129a15760405162461bcd60e51b81526020600482015260116024820152701213140e8813d5915497d3505617d51593607a1b60448201526064016108b3565b600554156129cd5780856129b460055490565b6129be91906149b2565b6129c891906149d1565b6129cf565b845b600a549094506001600160a01b03166323b872dd6129eb6119c6565b30886040518463ffffffff1660e01b8152600401612a0b93929190614bcd565b6020604051808303816000875af1158015612a2a573d6000803e3d6000fd5b505050506040513d601f19601f82011682018060405250810190612a4e9190614bf1565b50612a5885613c9b565b7fe1fffcc4923d04b559f4d29a8bfc6cda04eb5b0d3c460751c2402c5c5cc9109c3386604051612a89929190614b71565b60405180910390a150600180556128756111a3565b6000612aaa60006123c3565b50506000612ab661370b565b600b546040516370a0823160e01b81529192506000916001600160a01b03909116906370a0823190612aec9030906004016146d9565b602060405180830381865afa158015612b09573d6000803e3d6000fd5b505050506040513d601f19601f82011682018060405250810190612b2d9190614a34565b905080821115612b7657612b70612b448284614ade565b600a54600b546001600160a01b039182169116612b5f611422565b6001600160a01b0316929190613cf4565b50612bb9565b81811115612bb957612bb7612b8b8383614ade565b600b54600a546001600160a01b039182169116612ba6611422565b6001600160a01b0316929190613dd3565b505b600b546040516370a0823160e01b8152612c31916001600160a01b0316906370a0823190612beb9030906004016146d9565b602060405180830381865afa158015612c08573d6000803e3d6000fd5b505050506040513d601f19601f82011682018060405250810190612c2c9190614a34565b6124d1565b6000612c3b6136b7565b9050612c4681613e34565b600a546040516370a0823160e01b81526001600160a01b03909116906370a0823190612c769030906004016146d9565b602060405180830381865afa158015612c93573d6000803e3d6000fd5b505050506040513d601f19601f82011682018060405250810190610a7b9190614a34565b601854601c54604051630c7e663b60e11b81526060926001600160a01b0316916318fccc7691612cec91903090600401614c0e565b600060405180830381600087803b158015612d0657600080fd5b505af1158015612d1a573d6000803e3d6000fd5b5060019250612d27915050565b604051908082528060200260200182016040528015612d50578160200160208202803683370190505b50601a546040516370a0823160e01b81529192506001600160a01b0316906370a0823190612d829030906004016146d9565b602060405180830381865afa158015612d9f573d6000803e3d6000fd5b505050506040513d601f19601f82011682018060405250810190612dc39190614a34565b81600081518110612dd657612dd6614a1e565b60200260200101818152505080600081518110612df557612df5614a1e565b602002602001015160001415612e0a57610a14565b601954612e6c906001600160a01b03168484600081612e2b57612e2b614a1e565b9050602002810190612e3d9190614c3b565b601a5484516001600160a01b03909116908590600090612e5f57612e5f614a1e565b6020026020010151613eae565b601a5481516001600160a01b0390911690600080516020614ec8833981519152908390600090612e9e57612e9e614a1e565b6020026020010151604051612eb591815260200190565b60405180910390a292915050565b6060612ecd610c2b565b6001600160a01b0316630952c5636000306040518363ffffffff1660e01b8152600401612efb929190614c5b565b600060405180830381600087803b158015612f1557600080fd5b505af1158015612f29573d6000803e3d6000fd5b5060019250612f36915050565b604051908082528060200260200182016040528015612f5f578160200160208202803683370190505b506017546040516370a0823160e01b81529192506001600160a01b0316906370a0823190612f919030906004016146d9565b602060405180830381865afa158015612fae573d6000803e3d6000fd5b505050506040513d601f19601f82011682018060405250810190612fd29190614a34565b81600081518110612fe557612fe5614a1e565b60200260200101818152505060008160008151811061300657613006614a1e565b602002602001015111156130b85761306661301f6119e4565b8484600081811061303257613032614a1e565b90506020028101906130449190614c3b565b60175484516001600160a01b03909116908590600090612e5f57612e5f614a1e565b60175481516001600160a01b0390911690600080516020614ec883398151915290839060009061309857613098614a1e565b60200260200101516040516130af91815260200190565b60405180910390a25b6130c0610c2b565b6001600160a01b0316630952c5636001306040518363ffffffff1660e01b81526004016130ee929190614c5b565b600060405180830381600087803b15801561310857600080fd5b505af115801561311c573d6000803e3d6000fd5b5047925050811590506131bd576131316109fa565b6001600160a01b031663d0e30db0826040518263ffffffff1660e01b81526004016000604051808303818588803b15801561316b57600080fd5b505af115801561317f573d6000803e3d6000fd5b505050505061318c6109fa565b6001600160a01b0316600080516020614ec8833981519152826040516131b491815260200190565b60405180910390a25b5092915050565b600a546040516370a0823160e01b81526000916001600160a01b0316906370a08231906131f59030906004016146d9565b602060405180830381865afa158015613212573d6000803e3d6000fd5b505050506040513d601f19601f820116820180604052508101906132369190614a34565b600b546040516370a0823160e01b81529192506000916001600160a01b03909116906370a082319061326c9030906004016146d9565b602060405180830381865afa158015613289573d6000803e3d6000fd5b505050506040513d601f19601f820116820180604052508101906132ad9190614a34565b905060006132b9612302565b915050808410156132ca5750505050565b60006132f860026132da86614053565b6132e49086614b59565b6132ee91906149d1565b6109f58488614ade565b9050600061330582611f94565b90508481101561334b5761333761331c8287614ade565b600a54600b546001600160a01b039182169116612ba6611422565b6133419085614b59565b9350809450613370565b8184111561337057613360612b8b8386614ade565b61336a9086614b59565b94508193505b83600061337c82611f94565b90508087101561339457508561339181614053565b91505b806133a3575050505050505050565b60006133af8284614079565b90506133ba81614119565b505050505050505050565b60008060006133d4858561414e565b509050600080876001600160a01b0316630902f1ac6040518163ffffffff1660e01b8152600401606060405180830381865afa158015613418573d6000803e3d6000fd5b505050506040513d601f19601f8201168201806040525081019061343c9190614c93565b506001600160701b031691506001600160701b03169150826001600160a01b0316876001600160a01b031614613473578082613476565b81815b90999098509650505050505050565b60006134da826040518060400160405280602081526020017f5361666545524332303a206c6f772d6c6576656c2063616c6c206661696c6564815250856001600160a01b0316611b339092919063ffffffff16565b805190915015611b2e57808060200190518101906134f89190614bf1565b611b2e5760405162461bcd60e51b815260206004820152602a60248201527f5361666545524332303a204552433230206f7065726174696f6e20646964206e6044820152691bdd081cdd58d8d9595960b21b60648201526084016108b3565b6060824710156135b85760405162461bcd60e51b815260206004820152602660248201527f416464726573733a20696e73756666696369656e742062616c616e636520666f6044820152651c8818d85b1b60d21b60648201526084016108b3565b843b6136065760405162461bcd60e51b815260206004820152601d60248201527f416464726573733a2063616c6c20746f206e6f6e2d636f6e747261637400000060448201526064016108b3565b600080866001600160a01b031685876040516136229190614cd8565b60006040518083038185875af1925050503d806000811461365f576040519150601f19603f3d011682016040523d82523d6000602084013e613664565b606091505b5091509150613674828286614231565b979650505050505050565b60008361368e57506000611b45565b60008061369e85856119ad611422565b915091506136ad86838361426a565b9695505050505050565b60006136c1611385565b6001600160a01b0316633af9e669306040518263ffffffff1660e01b81526004016136ec91906146d9565b6020604051808303816000875af1158015611b93573d6000803e3d6000fd5b60006137156119d5565b6001600160a01b03166317bfdfbc306040518263ffffffff1660e01b81526004016136ec91906146d9565b600061374a610feb565b6001600160a01b031663fc57d4df6137606119d5565b6040518263ffffffff1660e01b815260040161377c91906146d9565b602060405180830381865afa158015613799573d6000803e3d6000fd5b505050506040513d601f19601f820116820180604052508101906137bd9190614a34565b6137c5610feb565b6001600160a01b031663fc57d4df611c52611385565b6000806137e6611d59565b9050808310156137fa576000915050610a14565b6000613804612302565b5090506000818611613817576000613821565b6138218287614ade565b9050600061382f8487614ade565b9050808210613845576000945050505050610a14565b6136748282614ade565b600080600061385c611d59565b9050838114156138725750600093849350915050565b8381116138925761388b6138868286614ade565b61432c565b60006138a6565b60006138a66138a18684614ade565b6143cb565b909590945092505050565b6138b96119d5565b6001600160a01b031663c5ebeaec826040518263ffffffff1660e01b81526004016138e691815260200190565b6020604051808303816000875af1158015613905573d6000803e3d6000fd5b505050506040513d601f19601f820116820180604052508101906139299190614a34565b506139346001613b8c565b1561198c576139416109fa565b6001600160a01b031663d0e30db0826040518263ffffffff1660e01b81526004016000604051808303818588803b15801561397b57600080fd5b505af115801561398f573d6000803e3d6000fd5b505050505050565b6000806139a26143f8565b601b546040516370a0823160e01b81529192506000916001600160a01b03909116906370a08231906139d89030906004016146d9565b602060405180830381865afa1580156139f5573d6000803e3d6000fd5b505050506040513d601f19601f82011682018060405250810190613a199190614a34565b9050613a258183614b59565b9250505090565b601854601c54604051630ad58d2f60e01b81526001600160a01b0390921691630ad58d2f91613a619185903090600401614cea565b600060405180830381600087803b158015613a7b57600080fd5b505af1158015613a8f573d6000803e3d6000fd5b5050505050565b600080613abd613aa4611422565b84613aad611422565b6001600160a01b03169190611ed4565b6000613ad7613aca610cb3565b613ad26109fa565b61414e565b509050600080613ae5611422565b6001600160a01b03166389afcb44306040518263ffffffff1660e01b8152600401613b1091906146d9565b60408051808303816000875af1158015613b2e573d6000803e3d6000fd5b505050506040513d601f19601f82011682018060405250810190613b529190614d09565b91509150613b5e610cb3565b6001600160a01b0316836001600160a01b031614613b7d578082613b80565b81815b94509450505050915091565b60008160ff16600114613ba0576000610a14565b600192915050565b613bb06119d5565b6001600160a01b0316634e4d9fea826040518263ffffffff1660e01b81526004016000604051808303818588803b15801561397b57600080fd5b600080613bf6836121b4565b90506000613c02612302565b5090506000613c0f611d07565b90506000613c1c84614053565b90508284101580613c2d5750818110155b15613c3a576136ad612a9e565b600080613c4a6122158787614ade565b91509150613c57816124d1565b613c646138a1838a614ade565b613c6e9083614b59565b98975050505050505050565b6122fc846323b872dd60e01b858585604051602401611af793929190614bcd565b6103e8811015613ca85750565b6000613cb3826121b4565b90506000613cc082614053565b9050613cd4613ccf8385614ade565b6125cc565b613cdd816138b1565b6000613ce98383614079565b90506122fc81614119565b600080613d0386868686614470565b90506000613d11848661414e565b509050600080826001600160a01b0316876001600160a01b031614613d3857876000613d3c565b6000885b9092509050613d556001600160a01b0388168a86611ed4565b6040805160008152602081019182905263022c0d9f60e01b9091526001600160a01b038a169063022c0d9f90613d949085908590309060248101614d2d565b600060405180830381600087803b158015613dae57600080fd5b505af1158015613dc2573d6000803e3d6000fd5b50959b9a5050505050505050505050565b600080613de286868686614536565b90506000613df0848661414e565b509050600080826001600160a01b0316876001600160a01b031614613e1757836000613e1b565b6000845b9092509050613d556001600160a01b0388168a8a611ed4565b6000613e3e611385565b6001600160a01b031663852a12e3836040518263ffffffff1660e01b8152600401613e6b91815260200190565b6020604051808303816000875af1158015613e8a573d6000803e3d6000fd5b505050506040513d601f19601f82011682018060405250810190611b2e9190614a34565b6000613eba8480614d5a565b6001613ec68780614d5a565b613ed1929150614ade565b818110613ee057613ee0614a1e565b9050602002016020810190613ef5919061471b565b90506001600160a01b038316613f0b8580614d5a565b6000818110613f1c57613f1c614a1e565b9050602002016020810190613f31919061471b565b6001600160a01b0316148015613f5f5750613f4a6109fa565b6001600160a01b0316816001600160a01b0316145b80613f825750613f6d610cb3565b6001600160a01b0316816001600160a01b0316145b613fc65760405162461bcd60e51b81526020600482015260156024820152740928cc2e4dac2c4d8ca7440aea49e9c8ebea082a89605b1b60448201526064016108b3565b6001600160a01b0385166338ed1739836020870135613fe58880614d5a565b308a604001356040518763ffffffff1660e01b815260040161400c96959493929190614da3565b6000604051808303816000875af115801561402b573d6000803e3d6000fd5b505050506040513d6000823e601f3d908101601f1916820160405261398f9190810190614e16565b60008115611fbf57600a54600b54611fba9184916001600160a01b03918216911661367f565b600061408f614086611422565b84613aad610cb3565b6140a361409a611422565b83613aad6109fa565b6140ab611422565b6001600160a01b0316636a627842306040518263ffffffff1660e01b81526004016140d691906146d9565b6020604051808303816000875af11580156140f5573d6000803e3d6000fd5b505050506040513d601f19601f82011682018060405250810190611b459190614a34565b601854601c54604051638dbdbe6d60e01b81526001600160a01b0390921691638dbdbe6d91613a619185903090600401614cea565b600080826001600160a01b0316846001600160a01b031614156141b35760405162461bcd60e51b815260206004820152601d60248201527f556e695574696c733a204944454e544943414c5f41444452455353455300000060448201526064016108b3565b826001600160a01b0316846001600160a01b0316106141d35782846141d6565b83835b90925090506001600160a01b03821661422a5760405162461bcd60e51b8152602060048201526016602482015275556e695574696c733a205a45524f5f4144445245535360501b60448201526064016108b3565b9250929050565b60608315614240575081611b45565b8251156142505782518084602001fd5b8160405162461bcd60e51b81526004016108b391906146c6565b60008084116142bb5760405162461bcd60e51b815260206004820152601d60248201527f556e695574696c733a20494e53554646494349454e545f414d4f554e5400000060448201526064016108b3565b6000831180156142cb5750600082115b6143175760405162461bcd60e51b815260206004820181905260248201527f556e695574696c733a20494e53554646494349454e545f4c495155494449545960448201526064016108b3565b8261432283866149b2565b611b4291906149d1565b600080614337610cb3565b6001600160a01b03166370a08231306040518263ffffffff1660e01b815260040161436291906146d9565b602060405180830381865afa15801561437f573d6000803e3d6000fd5b505050506040513d601f19601f820116820180604052508101906143a39190614a34565b90508281116143b257806143b4565b825b915081156143c5576143c5826125cc565b50919050565b6000806143d66145f7565b90508281116143e557806143e7565b825b915081156143c5576143c582613e34565b601854601c546040516393f1a40b60e01b815260009283926001600160a01b03909116916393f1a40b91614430913090600401614c0e565b6040805180830381865afa15801561444c573d6000803e3d6000fd5b505050506040513d601f19601f820116820180604052508101906131bd9190614d09565b60008084116144cd5760405162461bcd60e51b8152602060048201526024808201527f556e695574696c733a20494e53554646494349454e545f4f55545055545f414d60448201526313d5539560e21b60648201526084016108b3565b6000806144db8786866133c5565b909250905060006144ec87846149b2565b6144f8906103e86149b2565b905060006145068884614ade565b614512906103e56149b2565b905061451e81836149d1565b614529906001614b59565b9998505050505050505050565b60008084116145935760405162461bcd60e51b815260206004820152602360248201527f556e695574696c733a20494e53554646494349454e545f494e5055545f414d4f60448201526215539560ea1b60648201526084016108b3565b6000806145a18786866133c5565b909250905060006145b4876103e56149b2565b905060006145c283836149b2565b90506000826145d3866103e86149b2565b6145dd9190614b59565b90506145e981836149d1565b9a9950505050505050505050565b600080614602611d59565b905060006146116109eb611d07565b90506000606361461f611e4e565b61463184670de0b6b3a76400006149b2565b61463c9060646149b2565b61464691906149d1565b61465091906149d1565b905082811115614664576000935050505090565b610a7b8184614ade565b60005b83811015614689578181015183820152602001614671565b838111156122fc5750506000910152565b600081518084526146b281602086016020860161466e565b601f01601f19169290920160200192915050565b602081526000611b45602083018461469a565b6001600160a01b0391909116815260200190565b6000602082840312156146ff57600080fd5b5035919050565b6001600160a01b038116811461198c57600080fd5b60006020828403121561472d57600080fd5b8135611b4581614706565b60008083601f84011261474a57600080fd5b5081356001600160401b0381111561476157600080fd5b6020830191508360208260051b850101111561422a57600080fd5b60008060006040848603121561479157600080fd5b833561479c81614706565b925060208401356001600160401b038111156147b757600080fd5b6147c386828701614738565b9497909650939450505050565b801515811461198c57600080fd5b600080604083850312156147f157600080fd5b82356147fc81614706565b9150602083013561480c816147d0565b809150509250929050565b60006020828403121561482957600080fd5b813561ffff81168114611b4557600080fd5b6000806000806040858703121561485157600080fd5b84356001600160401b038082111561486857600080fd5b61487488838901614738565b9096509450602087013591508082111561488d57600080fd5b5061489a87828801614738565b95989497509550505050565b600081518084526020808501945080840160005b838110156148d6578151875295820195908201906001016148ba565b509495945050505050565b6040815260006148f460408301856148a6565b828103602084015261490681856148a6565b95945050505050565b600181811c9082168061492357607f821691505b602082108114156143c557634e487b7160e01b600052602260045260246000fd5b6020808252818101527f4f776e61626c653a2063616c6c6572206973206e6f7420746865206f776e6572604082015260600190565b60006020828403121561498b57600080fd5b815160ff81168114611b4557600080fd5b634e487b7160e01b600052601160045260246000fd5b60008160001904831182151516156149cc576149cc61499c565b500290565b6000826149ee57634e487b7160e01b600052601260045260246000fd5b500490565b60208082526011908201527014dd1c985d0e8813d3931657d590555315607a1b604082015260600190565b634e487b7160e01b600052603260045260246000fd5b600060208284031215614a4657600080fd5b5051919050565b6000600019821415614a6157614a6161499c565b5060010190565b60208082528181018390526000908460408401835b86811015614aab578235614a9081614706565b6001600160a01b031682529183019190830190600101614a7d565b509695505050505050565b6020808252600e908201526d0a6e8e4c2e874409c9ebe82aaa8960931b604082015260600190565b600082821015614af057614af061499c565b500390565b60208082526013908201527209098a07440a0a492868abe9a92a69a82a8869606b1b604082015260600190565b6020808252601f908201527f5265656e7472616e637947756172643a207265656e7472616e742063616c6c00604082015260600190565b60008219821115614b6c57614b6c61499c565b500190565b6001600160a01b03929092168252602082015260400190565b600080600060608486031215614b9f57600080fd5b8351614baa816147d0565b602085015160408601519194509250614bc2816147d0565b809150509250925092565b6001600160a01b039384168152919092166020820152604081019190915260600190565b600060208284031215614c0357600080fd5b8151611b45816147d0565b9182526001600160a01b0316602082015260400190565b634e487b7160e01b600052604160045260246000fd5b60008235605e19833603018112614c5157600080fd5b9190910192915050565b60ff9290921682526001600160a01b0316602082015260400190565b80516001600160701b0381168114614c8e57600080fd5b919050565b600080600060608486031215614ca857600080fd5b614cb184614c77565b9250614cbf60208501614c77565b9150604084015163ffffffff81168114614bc257600080fd5b60008251614c5181846020870161466e565b92835260208301919091526001600160a01b0316604082015260600190565b60008060408385031215614d1c57600080fd5b505080516020909101519092909150565b84815283602082015260018060a01b03831660408201526080606082015260006136ad608083018461469a565b6000808335601e19843603018112614d7157600080fd5b8301803591506001600160401b03821115614d8b57600080fd5b6020019150600581901b360382131561422a57600080fd5b868152602080820187905260a0604083018190528201859052600090869060c08401835b88811015614df5578335614dda81614706565b6001600160a01b031682529282019290820190600101614dc7565b506001600160a01b0396909616606085015250505060800152949350505050565b60006020808385031215614e2957600080fd5b82516001600160401b0380821115614e4057600080fd5b818501915085601f830112614e5457600080fd5b815181811115614e6657614e66614c25565b8060051b604051601f19603f83011681018181108582111715614e8b57614e8b614c25565b604052918252848201925083810185019188831115614ea957600080fd5b938501935b82851015613c6e57845184529385019392850192614eae56fe3efad319b6afe1e0317f51df66abdc4d7a7c8b1cfda31f03440b4ad255af7245a2646970667358221220715f2ca7c94da56277b03fdf528005e6d18a48509dd45c0826cf6caba0cd14f764736f6c634300080a0033",
  "libraries": {
    "UniUtils": "0xd7df1eee437bc25edeffd5e54fc83f7e7fdb8a52"
  },
  "devdoc": {
    "kind": "dev",
    "methods": {
      "getMaxTvl()": {
        "returns": {
          "_0": "MaxTvl"
        }
      },
      "isCEther()": {
        "details": "Only present in Fuse cTokens, not Compound cTokens.",
        "returns": {
          "_0": "True if the strategy accepts ETH, false otherwise."
        }
      },
      "owner()": {
        "details": "Returns the address of the current owner."
      },
      "redeemUnderlying(uint256)": {
        "params": {
          "amount": "The amount of underlying tokens to withdraw."
        },
        "returns": {
          "errCode": "An error code, or 0 if the withdrawal was successful."
        }
      },
      "renounceOwnership()": {
        "details": "Leaves the contract without owner. It will not be possible to call `onlyOwner` functions anymore. Can only be called by the current owner. NOTE: Renouncing ownership will leave the contract without an owner, thereby removing any functionality that is only available to the owner."
      },
      "transferOwnership(address)": {
        "details": "Transfers ownership of the contract to a new account (`newOwner`). Can only be called by the current owner."
      }
    },
    "version": 1
  },
  "userdoc": {
    "kind": "user",
    "methods": {
      "emergencyWithdraw(address,address[])": {
        "notice": "Withdraws any ERC20 tokens back to recipient."
      },
      "getMaxTvl()": {
        "notice": "Returns max deposits a strategy can take."
      },
      "getPricePerShare()": {
        "notice": "Returns the share price of the strategy in `underlying` units, multiplied  by 1e18"
      },
      "isCEther()": {
        "notice": "Returns whether the strategy accepts ETH or an ERC20."
      },
      "redeemUnderlying(uint256)": {
        "notice": "Withdraws a specific amount of underlying tokens from the strategy."
      }
    },
    "version": 1
  },
  "storageLayout": {
    "storage": [
      {
        "astId": 2661,
        "contract": "src/strategies/implementations/USDCavaxPNGqi.sol:USDCavaxPNGqi",
        "label": "_owner",
        "offset": 0,
        "slot": "0",
        "type": "t_address"
      },
      {
        "astId": 3337,
        "contract": "src/strategies/implementations/USDCavaxPNGqi.sol:USDCavaxPNGqi",
        "label": "_status",
        "offset": 0,
        "slot": "1",
        "type": "t_uint256"
      },
      {
        "astId": 18262,
        "contract": "src/strategies/implementations/USDCavaxPNGqi.sol:USDCavaxPNGqi",
        "label": "isIntialized",
        "offset": 0,
        "slot": "2",
        "type": "t_bool"
      },
      {
        "astId": 19458,
        "contract": "src/strategies/implementations/USDCavaxPNGqi.sol:USDCavaxPNGqi",
        "label": "isInitialized",
        "offset": 1,
        "slot": "2",
        "type": "t_bool"
      },
      {
        "astId": 19463,
        "contract": "src/strategies/implementations/USDCavaxPNGqi.sol:USDCavaxPNGqi",
        "label": "lastHarvest",
        "offset": 0,
        "slot": "3",
        "type": "t_uint256"
      },
      {
        "astId": 19465,
        "contract": "src/strategies/implementations/USDCavaxPNGqi.sol:USDCavaxPNGqi",
        "label": "_vault",
        "offset": 0,
        "slot": "4",
        "type": "t_address"
      },
      {
        "astId": 19467,
        "contract": "src/strategies/implementations/USDCavaxPNGqi.sol:USDCavaxPNGqi",
        "label": "_shares",
        "offset": 0,
        "slot": "5",
        "type": "t_uint256"
      },
      {
        "astId": 19469,
        "contract": "src/strategies/implementations/USDCavaxPNGqi.sol:USDCavaxPNGqi",
        "label": "name",
        "offset": 0,
        "slot": "6",
        "type": "t_string_storage"
      },
      {
        "astId": 19471,
        "contract": "src/strategies/implementations/USDCavaxPNGqi.sol:USDCavaxPNGqi",
        "label": "symbol",
        "offset": 0,
        "slot": "7",
        "type": "t_string_storage"
      },
      {
        "astId": 19475,
        "contract": "src/strategies/implementations/USDCavaxPNGqi.sol:USDCavaxPNGqi",
        "label": "_managers",
        "offset": 0,
        "slot": "8",
        "type": "t_mapping(t_address,t_bool)"
      },
      {
        "astId": 19477,
        "contract": "src/strategies/implementations/USDCavaxPNGqi.sol:USDCavaxPNGqi",
        "label": "BASE_UNIT",
        "offset": 0,
        "slot": "9",
        "type": "t_uint256"
      },
      {
        "astId": 19870,
        "contract": "src/strategies/implementations/USDCavaxPNGqi.sol:USDCavaxPNGqi",
        "label": "_underlying",
        "offset": 0,
        "slot": "10",
        "type": "t_contract(IERC20)3990"
      },
      {
        "astId": 19873,
        "contract": "src/strategies/implementations/USDCavaxPNGqi.sol:USDCavaxPNGqi",
        "label": "_short",
        "offset": 0,
        "slot": "11",
        "type": "t_contract(IERC20)3990"
      },
      {
        "astId": 19876,
        "contract": "src/strategies/implementations/USDCavaxPNGqi.sol:USDCavaxPNGqi",
        "label": "maxPriceMismatch",
        "offset": 0,
        "slot": "12",
        "type": "t_uint256"
      },
      {
        "astId": 19882,
        "contract": "src/strategies/implementations/USDCavaxPNGqi.sol:USDCavaxPNGqi",
        "label": "minLoanHealth",
        "offset": 0,
        "slot": "13",
        "type": "t_uint256"
      },
      {
        "astId": 19885,
        "contract": "src/strategies/implementations/USDCavaxPNGqi.sol:USDCavaxPNGqi",
        "label": "rebalanceThreshold",
        "offset": 0,
        "slot": "14",
        "type": "t_uint16"
      },
      {
        "astId": 19887,
        "contract": "src/strategies/implementations/USDCavaxPNGqi.sol:USDCavaxPNGqi",
        "label": "_maxTvl",
        "offset": 0,
        "slot": "15",
        "type": "t_uint256"
      },
      {
        "astId": 19890,
        "contract": "src/strategies/implementations/USDCavaxPNGqi.sol:USDCavaxPNGqi",
        "label": "_safeCollateralRatio",
        "offset": 0,
        "slot": "16",
        "type": "t_uint256"
      },
      {
        "astId": 19892,
        "contract": "src/strategies/implementations/USDCavaxPNGqi.sol:USDCavaxPNGqi",
        "label": "_cachedBalanceOfUnderlying",
        "offset": 0,
        "slot": "17",
        "type": "t_uint256"
      },
      {
        "astId": 21658,
        "contract": "src/strategies/implementations/USDCavaxPNGqi.sol:USDCavaxPNGqi",
        "label": "_cTokenLend",
        "offset": 0,
        "slot": "18",
        "type": "t_contract(ICTokenErc20)16320"
      },
      {
        "astId": 21661,
        "contract": "src/strategies/implementations/USDCavaxPNGqi.sol:USDCavaxPNGqi",
        "label": "_cTokenBorrow",
        "offset": 0,
        "slot": "19",
        "type": "t_contract(ICTokenErc20)16320"
      },
      {
        "astId": 21664,
        "contract": "src/strategies/implementations/USDCavaxPNGqi.sol:USDCavaxPNGqi",
        "label": "_comptroller",
        "offset": 0,
        "slot": "20",
        "type": "t_contract(IComptroller)16562"
      },
      {
        "astId": 21667,
        "contract": "src/strategies/implementations/USDCavaxPNGqi.sol:USDCavaxPNGqi",
        "label": "_oracle",
        "offset": 0,
        "slot": "21",
        "type": "t_contract(ICompPriceOracle)16343"
      },
      {
        "astId": 21799,
        "contract": "src/strategies/implementations/USDCavaxPNGqi.sol:USDCavaxPNGqi",
        "label": "_router",
        "offset": 0,
        "slot": "22",
        "type": "t_contract(IUniswapV2Router01)17510"
      },
      {
        "astId": 21802,
        "contract": "src/strategies/implementations/USDCavaxPNGqi.sol:USDCavaxPNGqi",
        "label": "_farmToken",
        "offset": 0,
        "slot": "23",
        "type": "t_contract(IERC20)3990"
      },
      {
        "astId": 22308,
        "contract": "src/strategies/implementations/USDCavaxPNGqi.sol:USDCavaxPNGqi",
        "label": "_farm",
        "offset": 0,
        "slot": "24",
        "type": "t_contract(IMiniChefV2)16897"
      },
      {
        "astId": 22311,
        "contract": "src/strategies/implementations/USDCavaxPNGqi.sol:USDCavaxPNGqi",
        "label": "_router",
        "offset": 0,
        "slot": "25",
        "type": "t_contract(IUniswapV2Router01)17510"
      },
      {
        "astId": 22314,
        "contract": "src/strategies/implementations/USDCavaxPNGqi.sol:USDCavaxPNGqi",
        "label": "_farmToken",
        "offset": 0,
        "slot": "26",
        "type": "t_contract(IERC20)3990"
      },
      {
        "astId": 22317,
        "contract": "src/strategies/implementations/USDCavaxPNGqi.sol:USDCavaxPNGqi",
        "label": "_pair",
        "offset": 0,
        "slot": "27",
        "type": "t_contract(IUniswapV2Pair)17202"
      },
      {
        "astId": 22319,
        "contract": "src/strategies/implementations/USDCavaxPNGqi.sol:USDCavaxPNGqi",
        "label": "_farmId",
        "offset": 0,
        "slot": "28",
        "type": "t_uint256"
      }
    ],
    "types": {
      "t_address": {
        "encoding": "inplace",
        "label": "address",
        "numberOfBytes": "20"
      },
      "t_bool": {
        "encoding": "inplace",
        "label": "bool",
        "numberOfBytes": "1"
      },
      "t_contract(ICTokenErc20)16320": {
        "encoding": "inplace",
        "label": "contract ICTokenErc20",
        "numberOfBytes": "20"
      },
      "t_contract(ICompPriceOracle)16343": {
        "encoding": "inplace",
        "label": "contract ICompPriceOracle",
        "numberOfBytes": "20"
      },
      "t_contract(IComptroller)16562": {
        "encoding": "inplace",
        "label": "contract IComptroller",
        "numberOfBytes": "20"
      },
      "t_contract(IERC20)3990": {
        "encoding": "inplace",
        "label": "contract IERC20",
        "numberOfBytes": "20"
      },
      "t_contract(IMiniChefV2)16897": {
        "encoding": "inplace",
        "label": "contract IMiniChefV2",
        "numberOfBytes": "20"
      },
      "t_contract(IUniswapV2Pair)17202": {
        "encoding": "inplace",
        "label": "contract IUniswapV2Pair",
        "numberOfBytes": "20"
      },
      "t_contract(IUniswapV2Router01)17510": {
        "encoding": "inplace",
        "label": "contract IUniswapV2Router01",
        "numberOfBytes": "20"
      },
      "t_mapping(t_address,t_bool)": {
        "encoding": "mapping",
        "key": "t_address",
        "label": "mapping(address => bool)",
        "numberOfBytes": "32",
        "value": "t_bool"
      },
      "t_string_storage": {
        "encoding": "bytes",
        "label": "string",
        "numberOfBytes": "32"
      },
      "t_uint16": {
        "encoding": "inplace",
        "label": "uint16",
        "numberOfBytes": "2"
      },
      "t_uint256": {
        "encoding": "inplace",
        "label": "uint256",
        "numberOfBytes": "32"
      }
    }
  }
}