{
  "address": "0xEA06bd4032D3D520A4Ac36992939640F74c52CE6",
  "abi": [
    {
      "inputs": [
        {
          "components": [
            {
              "internalType": "address",
              "name": "underlying",
              "type": "address"
            },
            {
              "internalType": "address",
              "name": "short",
              "type": "address"
            },
            {
              "internalType": "address",
              "name": "cTokenLend",
              "type": "address"
            },
            {
              "internalType": "address",
              "name": "cTokenBorrow",
              "type": "address"
            },
            {
              "internalType": "address",
              "name": "uniPair",
              "type": "address"
            },
            {
              "internalType": "address",
              "name": "uniFarm",
              "type": "address"
            },
            {
              "internalType": "address",
              "name": "farmToken",
              "type": "address"
            },
            {
              "internalType": "uint256",
              "name": "farmId",
              "type": "uint256"
            },
            {
              "internalType": "address",
              "name": "farmRouter",
              "type": "address"
            },
            {
              "internalType": "address",
              "name": "comptroller",
              "type": "address"
            },
            {
              "internalType": "address",
              "name": "lendRewardRouter",
              "type": "address"
            },
            {
              "internalType": "address",
              "name": "lendRewardToken",
              "type": "address"
            },
            {
              "internalType": "uint256",
              "name": "safeCollateralRatio",
              "type": "uint256"
            },
            {
              "internalType": "address",
              "name": "vault",
              "type": "address"
            },
            {
              "internalType": "string",
              "name": "symbol",
              "type": "string"
            },
            {
              "internalType": "string",
              "name": "name",
              "type": "string"
            },
            {
              "internalType": "uint256",
              "name": "maxTvl",
              "type": "uint256"
            }
          ],
          "internalType": "struct Config",
          "name": "config",
          "type": "tuple"
        }
      ],
      "stateMutability": "nonpayable",
      "type": "constructor"
    },
    {
      "anonymous": false,
      "inputs": [
        {
          "indexed": false,
          "internalType": "address",
          "name": "sender",
          "type": "address"
        },
        {
          "indexed": false,
          "internalType": "uint256",
          "name": "amount",
          "type": "uint256"
        }
      ],
      "name": "Deposit",
      "type": "event"
    },
    {
      "anonymous": false,
      "inputs": [
        {
          "indexed": true,
          "internalType": "address",
          "name": "recipient",
          "type": "address"
        },
        {
          "indexed": false,
          "internalType": "contract IERC20[]",
          "name": "tokens",
          "type": "address[]"
        }
      ],
      "name": "EmergencyWithdraw",
      "type": "event"
    },
    {
      "anonymous": false,
      "inputs": [
        {
          "indexed": false,
          "internalType": "uint256",
          "name": "harvested",
          "type": "uint256"
        }
      ],
      "name": "Harvest",
      "type": "event"
    },
    {
      "anonymous": false,
      "inputs": [
        {
          "indexed": true,
          "internalType": "address",
          "name": "token",
          "type": "address"
        },
        {
          "indexed": false,
          "internalType": "uint256",
          "name": "amount",
          "type": "uint256"
        }
      ],
      "name": "HarvestedToken",
      "type": "event"
    },
    {
      "anonymous": false,
      "inputs": [
        {
          "indexed": true,
          "internalType": "address",
          "name": "account",
          "type": "address"
        },
        {
          "indexed": false,
          "internalType": "bool",
          "name": "isManager",
          "type": "bool"
        }
      ],
      "name": "ManagerUpdate",
      "type": "event"
    },
    {
      "anonymous": false,
      "inputs": [
        {
          "indexed": true,
          "internalType": "address",
          "name": "previousOwner",
          "type": "address"
        },
        {
          "indexed": true,
          "internalType": "address",
          "name": "newOwner",
          "type": "address"
        }
      ],
      "name": "OwnershipTransferred",
      "type": "event"
    },
    {
      "anonymous": false,
      "inputs": [
        {
          "indexed": false,
          "internalType": "uint256",
          "name": "shortPrice",
          "type": "uint256"
        },
        {
          "indexed": false,
          "internalType": "uint256",
          "name": "tvlBeforeRebalance",
          "type": "uint256"
        },
        {
          "indexed": false,
          "internalType": "uint256",
          "name": "positionOffset",
          "type": "uint256"
        }
      ],
      "name": "Rebalance",
      "type": "event"
    },
    {
      "anonymous": false,
      "inputs": [
        {
          "indexed": true,
          "internalType": "address",
          "name": "sender",
          "type": "address"
        },
        {
          "indexed": false,
          "internalType": "uint256",
          "name": "startLoanHealth",
          "type": "uint256"
        },
        {
          "indexed": false,
          "internalType": "uint256",
          "name": "updatedLoanHealth",
          "type": "uint256"
        }
      ],
      "name": "RebalanceLoan",
      "type": "event"
    },
    {
      "anonymous": false,
      "inputs": [
        {
          "indexed": false,
          "internalType": "uint256",
          "name": "loanHealth",
          "type": "uint256"
        }
      ],
      "name": "SetMaxPriceMismatch",
      "type": "event"
    },
    {
      "anonymous": false,
      "inputs": [
        {
          "indexed": false,
          "internalType": "uint256",
          "name": "loanHealth",
          "type": "uint256"
        }
      ],
      "name": "SetMaxTvl",
      "type": "event"
    },
    {
      "anonymous": false,
      "inputs": [
        {
          "indexed": false,
          "internalType": "uint256",
          "name": "loanHealth",
          "type": "uint256"
        }
      ],
      "name": "SetRebalanceThreshold",
      "type": "event"
    },
    {
      "anonymous": false,
      "inputs": [
        {
          "indexed": true,
          "internalType": "address",
          "name": "vault",
          "type": "address"
        }
      ],
      "name": "VaultUpdate",
      "type": "event"
    },
    {
      "anonymous": false,
      "inputs": [
        {
          "indexed": false,
          "internalType": "address",
          "name": "sender",
          "type": "address"
        },
        {
          "indexed": false,
          "internalType": "uint256",
          "name": "amount",
          "type": "uint256"
        }
      ],
      "name": "Withdraw",
      "type": "event"
    },
    {
      "anonymous": false,
      "inputs": [
        {
          "indexed": false,
          "internalType": "uint256",
          "name": "loanHealth",
          "type": "uint256"
        }
      ],
      "name": "setMinLoanHealth",
      "type": "event"
    },
    {
      "inputs": [],
      "name": "BASE_UNIT",
      "outputs": [
        {
          "internalType": "uint256",
          "name": "",
          "type": "uint256"
        }
      ],
      "stateMutability": "view",
      "type": "function"
    },
    {
      "inputs": [
        {
          "internalType": "address",
          "name": "",
          "type": "address"
        }
      ],
      "name": "balanceOfUnderlying",
      "outputs": [
        {
          "internalType": "uint256",
          "name": "",
          "type": "uint256"
        }
      ],
      "stateMutability": "view",
      "type": "function"
    },
    {
      "inputs": [],
      "name": "balanceOfUnderlying",
      "outputs": [
        {
          "internalType": "uint256",
          "name": "",
          "type": "uint256"
        }
      ],
      "stateMutability": "view",
      "type": "function"
    },
    {
      "inputs": [],
      "name": "cTokenBorrow",
      "outputs": [
        {
          "internalType": "contract ICTokenErc20",
          "name": "",
          "type": "address"
        }
      ],
      "stateMutability": "view",
      "type": "function"
    },
    {
      "inputs": [],
      "name": "cTokenLend",
      "outputs": [
        {
          "internalType": "contract ICTokenErc20",
          "name": "",
          "type": "address"
        }
      ],
      "stateMutability": "view",
      "type": "function"
    },
    {
      "inputs": [],
      "name": "closePosition",
      "outputs": [],
      "stateMutability": "nonpayable",
      "type": "function"
    },
    {
      "inputs": [],
      "name": "comptroller",
      "outputs": [
        {
          "internalType": "contract IComptroller",
          "name": "",
          "type": "address"
        }
      ],
      "stateMutability": "view",
      "type": "function"
    },
    {
      "inputs": [],
      "name": "decimals",
      "outputs": [
        {
          "internalType": "uint8",
          "name": "",
          "type": "uint8"
        }
      ],
      "stateMutability": "view",
      "type": "function"
    },
    {
      "inputs": [
        {
          "internalType": "address",
          "name": "recipient",
          "type": "address"
        },
        {
          "internalType": "contract IERC20[]",
          "name": "tokens",
          "type": "address[]"
        }
      ],
      "name": "emergencyWithdraw",
      "outputs": [],
      "stateMutability": "nonpayable",
      "type": "function"
    },
    {
      "inputs": [],
      "name": "farmRouter",
      "outputs": [
        {
          "internalType": "contract IUniswapV2Router01",
          "name": "",
          "type": "address"
        }
      ],
      "stateMutability": "view",
      "type": "function"
    },
    {
      "inputs": [],
      "name": "getCollateralRatio",
      "outputs": [
        {
          "internalType": "uint256",
          "name": "",
          "type": "uint256"
        }
      ],
      "stateMutability": "view",
      "type": "function"
    },
    {
      "inputs": [],
      "name": "getMaxTvl",
      "outputs": [
        {
          "internalType": "uint256",
          "name": "",
          "type": "uint256"
        }
      ],
      "stateMutability": "view",
      "type": "function"
    },
    {
      "inputs": [],
      "name": "getPositionOffset",
      "outputs": [
        {
          "internalType": "uint256",
          "name": "positionOffset",
          "type": "uint256"
        }
      ],
      "stateMutability": "view",
      "type": "function"
    },
    {
      "inputs": [],
      "name": "getPricePerShare",
      "outputs": [
        {
          "internalType": "uint256",
          "name": "",
          "type": "uint256"
        }
      ],
      "stateMutability": "view",
      "type": "function"
    },
    {
      "inputs": [],
      "name": "getTVL",
      "outputs": [
        {
          "internalType": "uint256",
          "name": "tvl",
          "type": "uint256"
        },
        {
          "internalType": "uint256",
          "name": "collateralBalance",
          "type": "uint256"
        },
        {
          "internalType": "uint256",
          "name": "borrowPosition",
          "type": "uint256"
        },
        {
          "internalType": "uint256",
          "name": "borrowBalance",
          "type": "uint256"
        },
        {
          "internalType": "uint256",
          "name": "lpBalance",
          "type": "uint256"
        },
        {
          "internalType": "uint256",
          "name": "underlyingBalance",
          "type": "uint256"
        }
      ],
      "stateMutability": "view",
      "type": "function"
    },
    {
      "inputs": [],
      "name": "getTotalTVL",
      "outputs": [
        {
          "internalType": "uint256",
          "name": "tvl",
          "type": "uint256"
        }
      ],
      "stateMutability": "view",
      "type": "function"
    },
    {
      "inputs": [],
      "name": "getUnderlyingShortReserves",
      "outputs": [
        {
          "internalType": "uint256",
          "name": "reserveA",
          "type": "uint256"
        },
        {
          "internalType": "uint256",
          "name": "reserveB",
          "type": "uint256"
        }
      ],
      "stateMutability": "view",
      "type": "function"
    },
    {
      "inputs": [
        {
          "components": [
            {
              "internalType": "address[]",
              "name": "path",
              "type": "address[]"
            },
            {
              "internalType": "uint256",
              "name": "min",
              "type": "uint256"
            },
            {
              "internalType": "uint256",
              "name": "deadline",
              "type": "uint256"
            }
          ],
          "internalType": "struct HarvestSwapParms[]",
          "name": "uniParams",
          "type": "tuple[]"
        },
        {
          "components": [
            {
              "internalType": "address[]",
              "name": "path",
              "type": "address[]"
            },
            {
              "internalType": "uint256",
              "name": "min",
              "type": "uint256"
            },
            {
              "internalType": "uint256",
              "name": "deadline",
              "type": "uint256"
            }
          ],
          "internalType": "struct HarvestSwapParms[]",
          "name": "lendingParams",
          "type": "tuple[]"
        }
      ],
      "name": "harvest",
      "outputs": [
        {
          "internalType": "uint256[]",
          "name": "farmHarvest",
          "type": "uint256[]"
        },
        {
          "internalType": "uint256[]",
          "name": "lendHarvest",
          "type": "uint256[]"
        }
      ],
      "stateMutability": "nonpayable",
      "type": "function"
    },
    {
      "inputs": [],
      "name": "isCEther",
      "outputs": [
        {
          "internalType": "bool",
          "name": "",
          "type": "bool"
        }
      ],
      "stateMutability": "pure",
      "type": "function"
    },
    {
      "inputs": [],
      "name": "isIntialized",
      "outputs": [
        {
          "internalType": "bool",
          "name": "",
          "type": "bool"
        }
      ],
      "stateMutability": "view",
      "type": "function"
    },
    {
      "inputs": [
        {
          "internalType": "address",
          "name": "user",
          "type": "address"
        }
      ],
      "name": "isManager",
      "outputs": [
        {
          "internalType": "bool",
          "name": "",
          "type": "bool"
        }
      ],
      "stateMutability": "view",
      "type": "function"
    },
    {
      "inputs": [],
      "name": "lastHarvest",
      "outputs": [
        {
          "internalType": "uint256",
          "name": "",
          "type": "uint256"
        }
      ],
      "stateMutability": "view",
      "type": "function"
    },
    {
      "inputs": [],
      "name": "lendFarmRouter",
      "outputs": [
        {
          "internalType": "contract IUniswapV2Router01",
          "name": "",
          "type": "address"
        }
      ],
      "stateMutability": "view",
      "type": "function"
    },
    {
      "inputs": [],
      "name": "loanHealth",
      "outputs": [
        {
          "internalType": "uint256",
          "name": "",
          "type": "uint256"
        }
      ],
      "stateMutability": "view",
      "type": "function"
    },
    {
      "inputs": [],
      "name": "minLoanHealth",
      "outputs": [
        {
          "internalType": "uint256",
          "name": "",
          "type": "uint256"
        }
      ],
      "stateMutability": "view",
      "type": "function"
    },
    {
      "inputs": [
        {
          "internalType": "uint256",
          "name": "amount",
          "type": "uint256"
        }
      ],
      "name": "mint",
      "outputs": [
        {
          "internalType": "uint256",
          "name": "errCode",
          "type": "uint256"
        }
      ],
      "stateMutability": "nonpayable",
      "type": "function"
    },
    {
      "inputs": [],
      "name": "name",
      "outputs": [
        {
          "internalType": "string",
          "name": "",
          "type": "string"
        }
      ],
      "stateMutability": "view",
      "type": "function"
    },
    {
      "inputs": [],
      "name": "oracle",
      "outputs": [
        {
          "internalType": "contract ICompPriceOracle",
          "name": "",
          "type": "address"
        }
      ],
      "stateMutability": "view",
      "type": "function"
    },
    {
      "inputs": [],
      "name": "owner",
      "outputs": [
        {
          "internalType": "address",
          "name": "",
          "type": "address"
        }
      ],
      "stateMutability": "view",
      "type": "function"
    },
    {
      "inputs": [],
      "name": "pair",
      "outputs": [
        {
          "internalType": "contract IUniswapV2Pair",
          "name": "",
          "type": "address"
        }
      ],
      "stateMutability": "view",
      "type": "function"
    },
    {
      "inputs": [],
      "name": "rebalance",
      "outputs": [],
      "stateMutability": "nonpayable",
      "type": "function"
    },
    {
      "inputs": [],
      "name": "rebalanceLoan",
      "outputs": [],
      "stateMutability": "nonpayable",
      "type": "function"
    },
    {
      "inputs": [],
      "name": "rebalanceThreshold",
      "outputs": [
        {
          "internalType": "uint16",
          "name": "",
          "type": "uint16"
        }
      ],
      "stateMutability": "view",
      "type": "function"
    },
    {
      "inputs": [
        {
          "internalType": "uint256",
          "name": "amount",
          "type": "uint256"
        }
      ],
      "name": "redeemUnderlying",
      "outputs": [
        {
          "internalType": "uint256",
          "name": "errCode",
          "type": "uint256"
        }
      ],
      "stateMutability": "nonpayable",
      "type": "function"
    },
    {
      "inputs": [],
      "name": "renounceOwnership",
      "outputs": [],
      "stateMutability": "nonpayable",
      "type": "function"
    },
    {
      "inputs": [],
      "name": "safeCollateralRatio",
      "outputs": [
        {
          "internalType": "uint256",
          "name": "",
          "type": "uint256"
        }
      ],
      "stateMutability": "view",
      "type": "function"
    },
    {
      "inputs": [
        {
          "internalType": "address",
          "name": "user",
          "type": "address"
        },
        {
          "internalType": "bool",
          "name": "_isManager",
          "type": "bool"
        }
      ],
      "name": "setManager",
      "outputs": [],
      "stateMutability": "nonpayable",
      "type": "function"
    },
    {
      "inputs": [
        {
          "internalType": "uint256",
          "name": "maxPriceMismatch_",
          "type": "uint256"
        }
      ],
      "name": "setMaxPriceMismatch",
      "outputs": [],
      "stateMutability": "nonpayable",
      "type": "function"
    },
    {
      "inputs": [
        {
          "internalType": "uint256",
          "name": "maxTvl_",
          "type": "uint256"
        }
      ],
      "name": "setMaxTvl",
      "outputs": [],
      "stateMutability": "nonpayable",
      "type": "function"
    },
    {
      "inputs": [
        {
          "internalType": "uint256",
          "name": "minLoanHealth_",
          "type": "uint256"
        }
      ],
      "name": "setMinLoanHeath",
      "outputs": [],
      "stateMutability": "nonpayable",
      "type": "function"
    },
    {
      "inputs": [
        {
          "internalType": "uint16",
          "name": "rebalanceThreshold_",
          "type": "uint16"
        }
      ],
      "name": "setRebalanceThreshold",
      "outputs": [],
      "stateMutability": "nonpayable",
      "type": "function"
    },
    {
      "inputs": [
        {
          "internalType": "address",
          "name": "vault_",
          "type": "address"
        }
      ],
      "name": "setVault",
      "outputs": [],
      "stateMutability": "nonpayable",
      "type": "function"
    },
    {
      "inputs": [],
      "name": "short",
      "outputs": [
        {
          "internalType": "contract IERC20",
          "name": "",
          "type": "address"
        }
      ],
      "stateMutability": "view",
      "type": "function"
    },
    {
      "inputs": [],
      "name": "symbol",
      "outputs": [
        {
          "internalType": "string",
          "name": "",
          "type": "string"
        }
      ],
      "stateMutability": "view",
      "type": "function"
    },
    {
      "inputs": [],
      "name": "totalSupply",
      "outputs": [
        {
          "internalType": "uint256",
          "name": "",
          "type": "uint256"
        }
      ],
      "stateMutability": "view",
      "type": "function"
    },
    {
      "inputs": [
        {
          "internalType": "address",
          "name": "newOwner",
          "type": "address"
        }
      ],
      "name": "transferOwnership",
      "outputs": [],
      "stateMutability": "nonpayable",
      "type": "function"
    },
    {
      "inputs": [],
      "name": "underlying",
      "outputs": [
        {
          "internalType": "contract IERC20",
          "name": "",
          "type": "address"
        }
      ],
      "stateMutability": "view",
      "type": "function"
    },
    {
      "inputs": [],
      "name": "vault",
      "outputs": [
        {
          "internalType": "address",
          "name": "",
          "type": "address"
        }
      ],
      "stateMutability": "view",
      "type": "function"
    },
    {
      "inputs": [],
      "name": "version",
      "outputs": [
        {
          "internalType": "uint16",
          "name": "",
          "type": "uint16"
        }
      ],
      "stateMutability": "view",
      "type": "function"
    },
    {
      "stateMutability": "payable",
      "type": "receive"
    }
  ],
  "transactionHash": "0x829e259fcef384092ef0c2c24a7d10424d093af075c2a7bf53600f3f286429b1",
  "args": [
    [
      "0xA7D7079b0FEaD91F3e65f86E8915Cb59c1a4C664",
      "0xB31f66AA3C1e785363F0875A1B74E27b85FD66c7",
      "0xBEb5d47A3f720Ec0a390d04b4d41ED7d9688bC7F",
      "0x5C0401e81Bc07Ca70fAD469b451682c0d747Ef1c",
      "0xbd918Ed441767fe7924e99F6a0E0B568ac1970D9",
      "0x1f806f7C8dED893fd3caE279191ad7Aa3798E928",
      "0x60781C2586D68229fde47564546784ab3fACA982",
      9,
      "0xE54Ca86531e17Ef3616d22Ca28b0D458b6C89106",
      "0x486Af39519B4Dc9a7fCcd318217352830E8AD9b4",
      "0xE54Ca86531e17Ef3616d22Ca28b0D458b6C89106",
      "0x8729438EB15e2C8B576fCc6AeCdA6A148776C0F5",
      "9000",
      "0x9A17EB664a80175c389Cb11F93ce4D7A007f884b",
      "USDCavaxPNGqi",
      "USDC AVAX Pangolin BenQi",
      "115792089237316195423570985008687907853269984665640564039457584007913129639935"
    ]
  ],
  "numDeployments": 2,
  "solcInputHash": "dd1a76d8e988f1ae93f69636de95d55f",
  "bytecode": "0x60806040526046600a55670e92596fd6290000600b55600d805463ffffffff60a01b191661201960a41b1790553480156200003957600080fd5b5060405162006061380380620060618339810160408190526200005c9162000d59565b6101a08101516101c08201516101e083015162000079336200014f565b60018055600480546001600160a01b0319166001600160a01b0385161790558151620000ad90600790602085019062000b7e565b508051620000c390600690602084019062000b7e565b505050608082015160a083015161010084015160c085015160e0860151620000ec95506200019f565b62000112816101200151826040015183606001518461018001516200022460201b60201c565b6200012e816101400151826101600151620002f660201b60201c565b80516020820151610200830151620001489291906200036b565b5062001277565b600080546001600160a01b038381166001600160a01b0319831681178455604051919092169283917f8be0079c531659141344cd1fd0a4f28419497f9722a3daafe3b4186f6b6457e09190a35050565b60025460ff1615620001ce5760405162461bcd60e51b8152600401620001c59062000f06565b60405180910390fd5b601780546001600160a01b03199081166001600160a01b03968716179091556018805482169486169490941790935560198054841692851692909217909155601a80549092169390921692909217909155601b55565b601080546001600160a01b038086166001600160a01b03199283161790925560118054858416908316179055601280549287169290911682179055604080516307dc0d1d60e41b81529051637dc0d1d0916004808201926020929091908290030181865afa1580156200029b573d6000803e3d6000fd5b505050506040513d601f19601f82011682018060405250810190620002c1919062000f2b565b601380546001600160a01b0319166001600160a01b03929092169190911790556014819055620002f0620004e3565b50505050565b60025460ff16156200031c5760405162461bcd60e51b8152600401620001c59062000f06565b601680546001600160a01b03199081166001600160a01b03848116918217909355601580549092169285169283179091556200036791600019620005df602090811b620018fc17901c565b5050565b60025460ff1615620003915760405162461bcd60e51b8152600401620001c59062000f06565b600c80546001600160a01b038086166001600160a01b03199283168117909355600d805491861691909216179055620003dd9030600019620018fc620005df602090811b91909117901c565b620003e76200072e565b620003f490600a6200105e565b6009556200040281620007a4565b7f5ceaf8b7b0d35f85ef4df565057cd318e70d9f8681f89425a2d5e09c1c70a7f9600b546040516200043691815260200190565b60405180910390a17f3e87fa3180c1babd204ce79375729d7a6694a2d2f0fb3e250f9138488ed066bb600a546040516200047291815260200190565b60405180910390a1600d54604051600160a01b90910461ffff1681527f36c98a54ec4f90fe58a67bf25cfc1691dbd53639eee3513536d83e8d34fb0a9b9060200160405180910390a1620004c56200084c565b620004cf620008ba565b50506002805461ff00191661010017905550565b6040805160028082526060820183526000926020830190803683375050601054919250506001600160a01b0316816000815181106200052657620005266200106f565b6001600160a01b03928316602091820292909201015260115416816001815181106200055657620005566200106f565b6001600160a01b039283166020918202929092010152601254604051631853304760e31b815291169063c2998238906200059590849060040162001085565b6000604051808303816000875af1158015620005b5573d6000803e3d6000fd5b505050506040513d6000823e601f3d908101601f19168201604052620003679190810190620010d4565b8015806200065d5750604051636eb1769f60e11b81523060048201526001600160a01b03838116602483015284169063dd62ed3e90604401602060405180830381865afa15801562000635573d6000803e3d6000fd5b505050506040513d601f19601f820116820180604052508101906200065b919062001184565b155b620006d15760405162461bcd60e51b815260206004820152603660248201527f5361666545524332303a20617070726f76652066726f6d206e6f6e2d7a65726f60448201527f20746f206e6f6e2d7a65726f20616c6c6f77616e6365000000000000000000006064820152608401620001c5565b604080516001600160a01b038416602482015260448082018490528251808303909101815260649091019091526020810180516001600160e01b0390811663095ea7b360e01b17909152620007299185916200091416565b505050565b600c546040805163313ce56760e01b815290516000926001600160a01b03169163313ce5679160048083019260209291908290030181865afa15801562000779573d6000803e3d6000fd5b505050506040513d601f19601f820116820180604052508101906200079f91906200119e565b905090565b6000546001600160a01b0316331480620007d257503360009081526008602052604090205460ff1615156001145b620008115760405162461bcd60e51b815260206004820152600e60248201526d0a6e8e4c2e874409c9ebe82aaa8960931b6044820152606401620001c5565b600e8190556040518181527f13d3e08a22782064d3062f92ff1101a623b60e3bf91f236b5d1e9fdddfc12a129060200160405180910390a150565b60105462000891906001600160a01b031660001962000873600c546001600160a01b031690565b6001600160a01b0316620005df60201b620018fc179092919060201c565b601154620008b8906001600160a01b031660001962000873600d546001600160a01b031690565b565b601754601a54620008e7916001600160a01b039182169116600019620005df602090811b620018fc17901c565b601854601954620008b8916001600160a01b039182169116600019620005df602090811b620018fc17901c565b600062000970826040518060400160405280602081526020017f5361666545524332303a206c6f772d6c6576656c2063616c6c206661696c6564815250856001600160a01b0316620009f260201b62001a3c179092919060201c565b805190915015620007295780806020019051810190620009919190620011c3565b620007295760405162461bcd60e51b815260206004820152602a60248201527f5361666545524332303a204552433230206f7065726174696f6e20646964206e6044820152691bdd081cdd58d8d9595960b21b6064820152608401620001c5565b606062000a03848460008562000a0d565b90505b9392505050565b60608247101562000a705760405162461bcd60e51b815260206004820152602660248201527f416464726573733a20696e73756666696369656e742062616c616e636520666f6044820152651c8818d85b1b60d21b6064820152608401620001c5565b843b62000ac05760405162461bcd60e51b815260206004820152601d60248201527f416464726573733a2063616c6c20746f206e6f6e2d636f6e74726163740000006044820152606401620001c5565b600080866001600160a01b0316858760405162000ade9190620011e7565b60006040518083038185875af1925050503d806000811462000b1d576040519150601f19603f3d011682016040523d82523d6000602084013e62000b22565b606091505b50909250905062000b3582828662000b40565b979650505050505050565b6060831562000b5157508162000a06565b82511562000b625782518084602001fd5b8160405162461bcd60e51b8152600401620001c5919062001205565b82805462000b8c906200123a565b90600052602060002090601f01602090048101928262000bb0576000855562000bfb565b82601f1062000bcb57805160ff191683800117855562000bfb565b8280016001018555821562000bfb579182015b8281111562000bfb57825182559160200191906001019062000bde565b5062000c0992915062000c0d565b5090565b5b8082111562000c09576000815560010162000c0e565b634e487b7160e01b600052604160045260246000fd5b60405161022081016001600160401b038111828210171562000c605762000c6062000c24565b60405290565b604051601f8201601f191681016001600160401b038111828210171562000c915762000c9162000c24565b604052919050565b80516001600160a01b038116811462000cb157600080fd5b919050565b60005b8381101562000cd357818101518382015260200162000cb9565b83811115620002f05750506000910152565b600082601f83011262000cf757600080fd5b81516001600160401b0381111562000d135762000d1362000c24565b62000d28601f8201601f191660200162000c66565b81815284602083860101111562000d3e57600080fd5b62000d5182602083016020870162000cb6565b949350505050565b60006020828403121562000d6c57600080fd5b81516001600160401b038082111562000d8457600080fd5b90830190610220828603121562000d9a57600080fd5b62000da462000c3a565b62000daf8362000c99565b815262000dbf6020840162000c99565b602082015262000dd26040840162000c99565b604082015262000de56060840162000c99565b606082015262000df86080840162000c99565b608082015262000e0b60a0840162000c99565b60a082015262000e1e60c0840162000c99565b60c082015260e083015160e082015261010062000e3d81850162000c99565b9082015261012062000e5184820162000c99565b9082015261014062000e6584820162000c99565b9082015261016062000e7984820162000c99565b9082015261018083810151908201526101a062000e9881850162000c99565b908201526101c0838101518381111562000eb157600080fd5b62000ebf8882870162000ce5565b8284015250506101e0808401518381111562000eda57600080fd5b62000ee88882870162000ce5565b91830191909152506102009283015192810192909252509392505050565b6020808252600b908201526a125392551250531256915160aa1b604082015260600190565b60006020828403121562000f3e57600080fd5b62000a068262000c99565b634e487b7160e01b600052601160045260246000fd5b600181815b8085111562000fa057816000190482111562000f845762000f8462000f49565b8085161562000f9257918102915b93841c939080029062000f64565b509250929050565b60008262000fb95750600162001058565b8162000fc85750600062001058565b816001811462000fe1576002811462000fec576200100c565b600191505062001058565b60ff84111562001000576200100062000f49565b50506001821b62001058565b5060208310610133831016604e8410600b841016171562001031575081810a62001058565b6200103d838362000f5f565b806000190482111562001054576200105462000f49565b0290505b92915050565b600062000a0660ff84168362000fa8565b634e487b7160e01b600052603260045260246000fd5b6020808252825182820181905260009190848201906040850190845b81811015620010c85783516001600160a01b031683529284019291840191600101620010a1565b50909695505050505050565b60006020808385031215620010e857600080fd5b82516001600160401b03808211156200110057600080fd5b818501915085601f8301126200111557600080fd5b8151818111156200112a576200112a62000c24565b8060051b91506200113d84830162000c66565b81815291830184019184810190888411156200115857600080fd5b938501935b8385101562001178578451825293850193908501906200115d565b98975050505050505050565b6000602082840312156200119757600080fd5b5051919050565b600060208284031215620011b157600080fd5b815160ff8116811462000a0657600080fd5b600060208284031215620011d657600080fd5b8151801515811462000a0657600080fd5b60008251620011fb81846020870162000cb6565b9190910192915050565b60208152600082518060208401526200122681604085016020870162000cb6565b601f01601f19169190910160400192915050565b600181811c908216806200124f57607f821691505b602082108114156200127157634e487b7160e01b600052602260045260246000fd5b50919050565b614dda80620012876000396000f3fe6080604052600436106102325760003560e01c806306fdde031461023e5780630c021ae5146102695780630d55046c1461028c5780630e962f00146102b35780631585e0b6146102c957806318160ddd146102eb578063313ce56714610300578063358d6a041461032757806338bea4cb1461033c5780633af9e669146103515780633bf295cc146103715780633d68175c146103865780633dcf13421461039b5780633dfe9f6a146103bb5780634880f951146103f057806354fd4d50146104055780635fe3b567146104275780636817031b1461043c5780636f307dc31461045c578063711326ce14610471578063715018a6146104915780637d7c2a1c146104a65780637da64483146104bb5780637dc0d1d0146104e55780637ffe28e3146104fa578063852a12e31461050f57806386aceac71461052f5780638da5cb5b1461054557806395d89b411461055a57806397b3fcaa1461056f578063a0712d68146105b1578063a52602b9146105d1578063a5e90eee146105e6578063a8aa1b3114610606578063ac784ddc1461061b578063b580a1281461062f578063c393d0e314610644578063cb50087f14610659578063cd377c5314610679578063d539fe4b1461068e578063de747e5a146106a3578063f1a392da146106c3578063f20aea0f146106d9578063f2fde38b14610707578063f3ae241514610727578063f9e40ac414610760578063fbfa77cf1461078a578063fd6bac701461079f578063fec18b3a146107b457600080fd5b3661023957005b600080fd5b34801561024a57600080fd5b506102536107c9565b6040516102609190614583565b60405180910390f35b34801561027557600080fd5b5061027e610857565b604051908152602001610260565b34801561029857600080fd5b506018546001600160a01b03165b6040516102609190614596565b3480156102bf57600080fd5b5061027e60095481565b3480156102d557600080fd5b506102e96102e43660046145aa565b61086c565b005b3480156102f757600080fd5b5060055461027e565b34801561030c57600080fd5b506103156108e6565b60405160ff9091168152602001610260565b34801561033357600080fd5b5061027e610959565b34801561034857600080fd5b506102a661097e565b34801561035d57600080fd5b5061027e61036c3660046145d8565b61098d565b34801561037d57600080fd5b5061027e61099e565b34801561039257600080fd5b5061027e610a07565b3480156103a757600080fd5b506102e96103b6366004614639565b610a48565b3480156103c757600080fd5b50600d546103dd90600160a01b900461ffff1681565b60405161ffff9091168152602001610260565b3480156103fc57600080fd5b50600f5461027e565b34801561041157600080fd5b50600d546103dd90600160b01b900461ffff1681565b34801561043357600080fd5b506102a6610baf565b34801561044857600080fd5b506102e96104573660046145d8565b610bbe565b34801561046857600080fd5b506102a6610c37565b34801561047d57600080fd5b506102e961048c3660046145aa565b610c46565b34801561049d57600080fd5b506102e9610caa565b3480156104b257600080fd5b506102e9610ce5565b3480156104c757600080fd5b506002546104d59060ff1681565b6040519015158152602001610260565b3480156104f157600080fd5b506102a6610ee8565b34801561050657600080fd5b506102e9610ef7565b34801561051b57600080fd5b5061027e61052a3660046145aa565b61101d565b34801561053b57600080fd5b5061027e600b5481565b34801561055157600080fd5b506102a6611084565b34801561056657600080fd5b50610253611093565b34801561057b57600080fd5b506105846110a0565b604080519687526020870195909552938501929092526060840152608083015260a082015260c001610260565b3480156105bd57600080fd5b5061027e6105cc3660046145aa565b611229565b3480156105dd57600080fd5b506102a6611282565b3480156105f257600080fd5b506102e961060136600461469b565b611291565b34801561061257600080fd5b506102a661131f565b34801561062757600080fd5b5060006104d5565b34801561063b57600080fd5b5061027e61132e565b34801561065057600080fd5b506102e9611431565b34801561066557600080fd5b506102e96106743660046145aa565b61151b565b34801561068557600080fd5b5061027e6115a7565b34801561069a57600080fd5b5060145461027e565b3480156106af57600080fd5b506102e96106be3660046146d4565b6115d7565b3480156106cf57600080fd5b5061027e60035481565b3480156106e557600080fd5b506106f96106f43660046146f8565b611656565b60405161026092919061479e565b34801561071357600080fd5b506102e96107223660046145d8565b6117f8565b34801561073357600080fd5b506104d56107423660046145d8565b6001600160a01b031660009081526008602052604090205460ff1690565b34801561076c57600080fd5b50610775611898565b60408051928352602083019190915201610260565b34801561079657600080fd5b506102a66118cf565b3480156107ab57600080fd5b506102a66118de565b3480156107c057600080fd5b506102a66118ed565b600680546107d6906147cc565b80601f0160208091040260200160405190810160405280929190818152602001828054610802906147cc565b801561084f5780601f106108245761010080835404028352916020019161084f565b820191906000526020600020905b81548152906001019060200180831161083257829003601f168201915b505050505081565b60006108616110a0565b509395945050505050565b33610875611084565b6001600160a01b0316146108a45760405162461bcd60e51b815260040161089b90614801565b60405180910390fd5b600b8190556040518181527f5ceaf8b7b0d35f85ef4df565057cd318e70d9f8681f89425a2d5e09c1c70a7f9906020015b60405180910390a150565b60055490565b600c546040805163313ce56760e01b815290516000926001600160a01b03169163313ce5679160048083019260209291908290030181865afa158015610930573d6000803e3d6000fd5b505050506040513d601f19601f820116820180604052508101906109549190614836565b905090565b6000610954600e5461097961097461096f611a55565b611ac0565b611bcc565b611bfa565b600d546001600160a01b031690565b6000610998600f5490565b92915050565b6000806109ac61096f611c10565b905060006109b8611c62565b905060006109c4611d57565b6109d684670de0b6b3a764000061486f565b6109e0919061488e565b9050806109f583670de0b6b3a764000061486f565b6109ff919061488e565b935050505090565b600080610a13600f5490565b905060055460001415610a2857505060095490565b600554600954610a38908361486f565b610a42919061488e565b91505090565b610a506118cf565b6001600160a01b0316336001600160a01b031614610a805760405162461bcd60e51b815260040161089b906148b0565b60005b81811015610b56576000838383818110610a9f57610a9f6148db565b9050602002016020810190610ab491906145d8565b90506000816001600160a01b03166370a08231306040518263ffffffff1660e01b8152600401610ae49190614596565b602060405180830381865afa158015610b01573d6000803e3d6000fd5b505050506040513d601f19601f82011682018060405250810190610b2591906148f1565b90508015610b4157610b416001600160a01b0383168783611ddd565b50508080610b4e9061490a565b915050610a83565b504715610b6757610b673347611dfc565b826001600160a01b03167f2b06144d62a3a5785ec284ed392b3d106610ae2ce7af270417c4ca38277571048383604051610ba2929190614925565b60405180910390a2505050565b6012546001600160a01b031690565b33610bc7611084565b6001600160a01b031614610bed5760405162461bcd60e51b815260040161089b90614801565b600480546001600160a01b0319166001600160a01b0383169081179091556040517fdabed91cf547ed2ee836d5787bae42fc3bca488166c65791051105490fbcf7ca90600090a250565b600c546001600160a01b031690565b33610c4f611084565b6001600160a01b031614610c755760405162461bcd60e51b815260040161089b90614801565b600a8190556040518181527f3e87fa3180c1babd204ce79375729d7a6694a2d2f0fb3e250f9138488ed066bb906020016108d5565b33610cb3611084565b6001600160a01b031614610cd95760405162461bcd60e51b815260040161089b90614801565b610ce36000611e4d565b565b610ced611084565b6001600160a01b0316336001600160a01b03161480610d2057503360009081526008602052604090205460ff1615156001145b610d3c5760405162461bcd60e51b815260040161089b90614973565b6000610d4f670de0b6b3a7640000611e9d565b90506000610d64670de0b6b3a7640000611ac0565b9050818111610d74578082610d77565b81815b600a54919350915081612710610d8d858361499b565b610d97919061486f565b610da1919061488e565b10610dbe5760405162461bcd60e51b815260040161089b906149b2565b60026001541415610de15760405162461bcd60e51b815260040161089b906149df565b60026001556000610df0611ed0565b90506000610dfc61132e565b600d54909150600160a01b900461ffff168111610e4d5760405162461bcd60e51b815260206004820152600f60248201526e09098a07440a48a845aa890a48aa69608b1b604482015260640161089b565b81610e59575050610ecd565b6000610e64836120bd565b9050610e7981610e74818661499b565b6120e0565b7fe0b4077da7dfa5015ff10fab6a214f37acc1b23d745f30336942d17e07848c6b610eab670de0b6b3a7640000611e9d565b6040805191825260208201859052810185905260600160405180910390a15050505b60018055610ed96110a0565b505050600f9290925550505050565b6013546001600160a01b031690565b60026001541415610f1a5760405162461bcd60e51b815260040161089b906149df565b60026001556000610f2961099e565b9050600b54811115610f695760405162461bcd60e51b8152602060048201526009602482015268484c503a205341464560b81b604482015260640161089b565b6000610f7361220b565b5090506000600b54612710838561251c610f8d919061486f565b610f97919061486f565b610fa1919061488e565b610fab919061488e565b9050600080610fb9836122cc565b91509150610fc6816123da565b610fcf826124d5565b337fdacd0a02d11128b25d6c3de23e91f71aa9dd5620c6f5c69f35a18d15e116846886610ffa61099e565b6040805192835260208301919091520160405180910390a2505060018055505050565b60006110276118cf565b6001600160a01b0316336001600160a01b0316146110575760405162461bcd60e51b815260040161089b906148b0565b60006110628361250a565b90508060056000828254611076919061499b565b909155506000949350505050565b6000546001600160a01b031690565b600780546107d6906147cc565b6000806000806000806110b1611c62565b94506110bb611c10565b93506110c684611e9d565b600d546040516370a0823160e01b81529194506000916001600160a01b03909116906370a08231906110fc903090600401614596565b602060405180830381865afa158015611119573d6000803e3d6000fd5b505050506040513d601f19601f8201168201806040525081019061113d91906148f1565b9050600081156111555761115082611ac0565b611158565b60005b905060008061116561220b565b9150915061117281611e9d565b61117c9083614a16565b600c546040516370a0823160e01b81529197506001600160a01b0316906370a08231906111ad903090600401614596565b602060405180830381865afa1580156111ca573d6000803e3d6000fd5b505050506040513d601f19601f820116820180604052508101906111ee91906148f1565b94508285886111fd898d614a16565b611207919061499b565b6112119190614a16565b61121b9190614a16565b995050505050909192939495565b60006112336118cf565b6001600160a01b0316336001600160a01b0316146112635760405162461bcd60e51b815260040161089b906148b0565b600061126e83612791565b905080600560008282546110769190614a16565b6010546001600160a01b031690565b3361129a611084565b6001600160a01b0316146112c05760405162461bcd60e51b815260040161089b90614801565b6001600160a01b038216600081815260086020908152604091829020805460ff191685151590811790915591519182527f2458f684567d238b66deaa0126265bf3becabda0caaab7ebdda6b1794614a2d3910160405180910390a25050565b601a546001600160a01b031690565b60008061133961220b565b9150506000611346611c10565b600d546040516370a0823160e01b81529192506000916001600160a01b03909116906370a082319061137c903090600401614596565b602060405180830381865afa158015611399573d6000803e3d6000fd5b505050506040513d601f19601f820116820180604052508101906113bd91906148f1565b6113c79084614a16565b9050818114156113db576000935050505090565b816113eb57612710935050505090565b8181116114195781612710611400838361499b565b61140a919061486f565b611414919061488e565b6109ff565b81612710611427828461499b565b6109f5919061486f565b611439611084565b6001600160a01b0316336001600160a01b0316148061146c57503360009081526008602052604090205460ff1615156001145b6114885760405162461bcd60e51b815260040161089b90614973565b600061149b670de0b6b3a7640000611e9d565b905060006114b0670de0b6b3a7640000611ac0565b90508181116114c05780826114c3565b81815b600a549193509150816127106114d9858361499b565b6114e3919061486f565b6114ed919061488e565b1061150a5760405162461bcd60e51b815260040161089b906149b2565b6115126129a7565b50610ed96110a0565b611523611084565b6001600160a01b0316336001600160a01b0316148061155657503360009081526008602052604090205460ff1615156001145b6115725760405162461bcd60e51b815260040161089b90614973565b600e8190556040518181527f13d3e08a22782064d3062f92ff1101a623b60e3bf91f236b5d1e9fdddfc12a12906020016108d5565b6000670de0b6b3a76400006115bb60145490565b6115c3611d57565b6115cd919061486f565b610954919061488e565b336115e0611084565b6001600160a01b0316146116065760405162461bcd60e51b815260040161089b90614801565b600d805461ffff60a01b1916600160a01b61ffff8416908102919091179091556040519081527f36c98a54ec4f90fe58a67bf25cfc1691dbd53639eee3513536d83e8d34fb0a9b906020016108d5565b606080611661611084565b6001600160a01b0316336001600160a01b0316148061169457503360009081526008602052604090205460ff1615156001145b6116b05760405162461bcd60e51b815260040161089b90614973565b60006116c3670de0b6b3a7640000611e9d565b905060006116d8670de0b6b3a7640000611ac0565b90508181116116e85780826116eb565b81815b600a54919350915081612710611701858361499b565b61170b919061486f565b611715919061488e565b106117325760405162461bcd60e51b815260040161089b906149b2565b600260015414156117555760405162461bcd60e51b815260040161089b906149df565b600260015560006117646110a0565b50939450508a1592506117819150505761177e8989612bc0565b94505b8515611794576117918787612dcc565b93505b61179f60001961307a565b6040518181527f80f97f878e16410266694f134ddf012f2be424f54f8b5cafa107eccc51d00d589060200160405180910390a150600180556117df6110a0565b505050600f929092555093989297509195505050505050565b33611801611084565b6001600160a01b0316146118275760405162461bcd60e51b815260040161089b90614801565b6001600160a01b03811661188c5760405162461bcd60e51b815260206004820152602660248201527f4f776e61626c653a206e6577206f776e657220697320746865207a65726f206160448201526564647265737360d01b606482015260840161089b565b61189581611e4d565b50565b6000806118c66118a6610c37565b6118ae61097e565b6118b661131f565b6001600160a01b0316919061327b565b90939092509050565b6004546001600160a01b031690565b6011546001600160a01b031690565b6015546001600160a01b031690565b8015806119765750604051636eb1769f60e11b81523060048201526001600160a01b03838116602483015284169063dd62ed3e90604401602060405180830381865afa158015611950573d6000803e3d6000fd5b505050506040513d601f19601f8201168201806040525081019061197491906148f1565b155b6119e15760405162461bcd60e51b815260206004820152603660248201527f5361666545524332303a20617070726f76652066726f6d206e6f6e2d7a65726f60448201527520746f206e6f6e2d7a65726f20616c6c6f77616e636560501b606482015260840161089b565b611a378363095ea7b360e01b8484604051602401611a00929190614a2e565b60408051601f198184030181529190526020810180516001600160e01b03166001600160e01b03199093169290921790915261333b565b505050565b6060611a4b848460008561340d565b90505b9392505050565b6000611a5f6118de565b6001600160a01b0316633b1d21a26040518163ffffffff1660e01b8152600401602060405180830381865afa158015611a9c573d6000803e3d6000fd5b505050506040513d601f19601f8201168201806040525081019061095491906148f1565b6000611aca610ee8565b6001600160a01b031663fc57d4df611ae0611282565b6040518263ffffffff1660e01b8152600401611afc9190614596565b602060405180830381865afa158015611b19573d6000803e3d6000fd5b505050506040513d601f19601f82011682018060405250810190611b3d91906148f1565b611b45610ee8565b6001600160a01b031663fc57d4df611b5b6118de565b6040518263ffffffff1660e01b8152600401611b779190614596565b602060405180830381865afa158015611b94573d6000803e3d6000fd5b505050506040513d601f19601f82011682018060405250810190611bb891906148f1565b611bc2908461486f565b610998919061488e565b600080611bd76115a7565b905080611be681612710614a16565b611bf0908561486f565b611a4e919061488e565b6000818310611c095781611a4e565b5090919050565b6000611c1a6118de565b6001600160a01b03166395dd9193306040518263ffffffff1660e01b8152600401611c459190614596565b602060405180830381865afa158015611a9c573d6000803e3d6000fd5b600080611c6d611282565b6001600160a01b03166370a08231306040518263ffffffff1660e01b8152600401611c989190614596565b602060405180830381865afa158015611cb5573d6000803e3d6000fd5b505050506040513d601f19601f82011682018060405250810190611cd991906148f1565b9050670de0b6b3a7640000611cec611282565b6001600160a01b031663182df0f56040518163ffffffff1660e01b8152600401602060405180830381865afa158015611d29573d6000803e3d6000fd5b505050506040513d601f19601f82011682018060405250810190611d4d91906148f1565b610a38908361486f565b600080611d62610baf565b6001600160a01b0316638e8f294b611d78611282565b6040518263ffffffff1660e01b8152600401611d949190614596565b606060405180830381865afa158015611db1573d6000803e3d6000fd5b505050506040513d601f19601f82011682018060405250810190611dd59190614a47565b509392505050565b611a378363a9059cbb60e01b8484604051602401611a00929190614a2e565b600080600080600085875af1905080611a375760405162461bcd60e51b815260206004820152601360248201527211551217d514905394d1915497d19052531151606a1b604482015260640161089b565b600080546001600160a01b038381166001600160a01b0319831681178455604051919092169283917f8be0079c531659141344cd1fd0a4f28419497f9722a3daafe3b4186f6b6457e09190a35050565b60008115611ec857600d54600c54611ec39184916001600160a01b039182169116613535565b610998565b600092915050565b600080611edb61356d565b90506000611ee76135c1565b90506000611ef482611ac0565b600d546040516370a0823160e01b81529192506000916001600160a01b03909116906370a0823190611f2a903090600401614596565b602060405180830381865afa158015611f47573d6000803e3d6000fd5b505050506040513d601f19601f82011682018060405250810190611f6b91906148f1565b905060008115611ff257600d546040516370a0823160e01b8152611fed916001600160a01b0316906370a0823190611fa7903090600401614596565b602060405180830381865afa158015611fc4573d6000803e3d6000fd5b505050506040513d601f19601f82011682018060405250810190611fe891906148f1565b611e9d565b611ff5565b60005b9050600061200161220b565b50600c546040516370a0823160e01b81529192506000916001600160a01b03909116906370a0823190612038903090600401614596565b602060405180830381865afa158015612055573d6000803e3d6000fd5b505050506040513d601f19601f8201168201806040525081019061207991906148f1565b905082818661208985600261486f565b612093908b614a16565b61209d919061499b565b6120a79190614a16565b6120b19190614a16565b97505050505050505090565b6000806120c86115a7565b90506120d681612710614a16565b611bf0828561486f565b60006120eb836135f6565b905060006120f7611c10565b9050808211156121485761212360006121108686613691565b1161211b57846122cc565b60005b6122cc565b505061212e83613705565b50612143905061213e828461499b565b613767565b6121fc565b808210156121fc5761215a60006122cc565b5050600d546040516370a0823160e01b81526000916121de916001600160a01b03909116906370a0823190612193903090600401614596565b602060405180830381865afa1580156121b0573d6000803e3d6000fd5b505050506040513d601f19601f820116820180604052508101906121d491906148f1565b610979858561499b565b905080156121ef576121ef816123da565b6121f884613705565b5050505b6122058261307a565b50505050565b600080600061221861384d565b9050600080612225611898565b91509150600061223361131f565b6001600160a01b03166318160ddd6040518163ffffffff1660e01b8152600401602060405180830381865afa158015612270573d6000803e3d6000fd5b505050506040513d601f19601f8201168201806040525081019061229491906148f1565b9050806122a1858561486f565b6122ab919061488e565b9550806122b8858461486f565b6122c2919061488e565b9450505050509091565b60008060006122d961220b565b5090508084106122ef5750600093849350915050565b60006122f961384d565b9050600082612308878461486f565b612312919061488e565b90506000612320828461499b565b9050600061232c61131f565b6001600160a01b03166370a08231306040518263ffffffff1660e01b81526004016123579190614596565b602060405180830381865afa158015612374573d6000803e3d6000fd5b505050506040513d601f19601f8201168201806040525081019061239891906148f1565b9050808211156123b4576123b46123af828461499b565b6138e2565b81156123c8576123c38261394c565b6123cc565b6000805b965096505050505050915091565b6123e46001613a42565b15612459576123f161097e565b6001600160a01b0316632e1a7d4d826040518263ffffffff1660e01b815260040161241e91815260200190565b600060405180830381600087803b15801561243857600080fd5b505af115801561244c573d6000803e3d6000fd5b5050505061189581613a5e565b6124616118de565b6001600160a01b0316630e752702826040518263ffffffff1660e01b815260040161248e91815260200190565b6020604051808303816000875af11580156124ad573d6000803e3d6000fd5b505050506040513d601f19601f820116820180604052508101906124d191906148f1565b5050565b6124dd611282565b6001600160a01b031663a0712d68826040518263ffffffff1660e01b815260040161248e91815260200190565b60008061251e670de0b6b3a7640000611e9d565b90506000612533670de0b6b3a7640000611ac0565b9050818111612543578082612546565b81815b600a5491935091508161271061255c858361499b565b612566919061486f565b612570919061488e565b1061258d5760405162461bcd60e51b815260040161089b906149b2565b600260015414156125b05760405162461bcd60e51b815260040161089b906149df565b6002600155836125c35760009250612772565b60006125cd611ed0565b9050806125de576000935050612772565b600c546040516370a0823160e01b81526000916001600160a01b0316906370a082319061260f903090600401614596565b602060405180830381865afa15801561262c573d6000803e3d6000fd5b505050506040513d601f19601f8201168201806040525081019061265091906148f1565b9050858110156126cd576000600019871461268757612682836103e86126788a6103ed61486f565b610979919061488e565b612689565b825b9050828110156126b557816126a66126a1828461499b565b613aa0565b6126b09190614a16565b6126bd565b6126bd6129a7565b90506126c98188611bfa565b9650505b6126d56110a0565b5093955061271493508592506126ed91506108e09050565b6126f8896001614a16565b612702919061486f565b61270c919061488e565b600554611bfa565b9450612736306127226118cf565b600c546001600160a01b0316919089613b30565b7f884edad9ce6fa2440d8a54cc123490eb96d2768479d49ff9c7366125a94243643387604051612767929190614a2e565b60405180910390a150505b6001805561277e6110a0565b505050600f929092555092949350505050565b6000806127a5670de0b6b3a7640000611e9d565b905060006127ba670de0b6b3a7640000611ac0565b90508181116127ca5780826127cd565b81815b600a549193509150816127106127e3858361499b565b6127ed919061486f565b6127f7919061488e565b106128145760405162461bcd60e51b815260040161089b906149b2565b600260015414156128375760405162461bcd60e51b815260040161089b906149df565b60026001558361284a5760009250612772565b6000612854611ed0565b905061285e610959565b6128688287614a16565b11156128aa5760405162461bcd60e51b81526020600482015260116024820152701213140e8813d5915497d3505617d51593607a1b604482015260640161089b565b600554156128d65780856128bd60055490565b6128c7919061486f565b6128d1919061488e565b6128d8565b845b600c549094506001600160a01b03166323b872dd6128f46118cf565b30886040518463ffffffff1660e01b815260040161291493929190614a8a565b6020604051808303816000875af1158015612933573d6000803e3d6000fd5b505050506040513d601f19601f820116820180604052508101906129579190614aae565b5061296185613b51565b7fe1fffcc4923d04b559f4d29a8bfc6cda04eb5b0d3c460751c2402c5c5cc9109c3386604051612992929190614a2e565b60405180910390a1506001805561277e6110a0565b60006129b360006122cc565b505060006129bf6135c1565b600d546040516370a0823160e01b81529192506000916001600160a01b03909116906370a08231906129f5903090600401614596565b602060405180830381865afa158015612a12573d6000803e3d6000fd5b505050506040513d601f19601f82011682018060405250810190612a3691906148f1565b905080821115612a7f57612a79612a4d828461499b565b600c54600d546001600160a01b039182169116612a6861131f565b6001600160a01b0316929190613baa565b50612ac2565b81811115612ac257612ac0612a94838361499b565b600d54600c546001600160a01b039182169116612aaf61131f565b6001600160a01b0316929190613c89565b505b600d546040516370a0823160e01b8152612b3a916001600160a01b0316906370a0823190612af4903090600401614596565b602060405180830381865afa158015612b11573d6000803e3d6000fd5b505050506040513d601f19601f82011682018060405250810190612b3591906148f1565b6123da565b6000612b4461356d565b9050612b4f81613cea565b600c546040516370a0823160e01b81526001600160a01b03909116906370a0823190612b7f903090600401614596565b602060405180830381865afa158015612b9c573d6000803e3d6000fd5b505050506040513d601f19601f820116820180604052508101906109ff91906148f1565b601754601b54604051630c7e663b60e11b81526060926001600160a01b0316916318fccc7691612bf591903090600401614acb565b600060405180830381600087803b158015612c0f57600080fd5b505af1158015612c23573d6000803e3d6000fd5b5060019250612c30915050565b604051908082528060200260200182016040528015612c59578160200160208202803683370190505b506019546040516370a0823160e01b81529192506001600160a01b0316906370a0823190612c8b903090600401614596565b602060405180830381865afa158015612ca8573d6000803e3d6000fd5b505050506040513d601f19601f82011682018060405250810190612ccc91906148f1565b81600081518110612cdf57612cdf6148db565b60200260200101818152505080600081518110612cfe57612cfe6148db565b602002602001015160001415612d1357610998565b601854612d75906001600160a01b03168484600081612d3457612d346148db565b9050602002810190612d469190614af8565b60195484516001600160a01b03909116908590600090612d6857612d686148db565b6020026020010151613d64565b60195481516001600160a01b0390911690600080516020614d85833981519152908390600090612da757612da76148db565b6020026020010151604051612dbe91815260200190565b60405180910390a292915050565b6060612dd6610baf565b6001600160a01b0316630952c5636000306040518363ffffffff1660e01b8152600401612e04929190614b18565b600060405180830381600087803b158015612e1e57600080fd5b505af1158015612e32573d6000803e3d6000fd5b5060019250612e3f915050565b604051908082528060200260200182016040528015612e68578160200160208202803683370190505b506016546040516370a0823160e01b81529192506001600160a01b0316906370a0823190612e9a903090600401614596565b602060405180830381865afa158015612eb7573d6000803e3d6000fd5b505050506040513d601f19601f82011682018060405250810190612edb91906148f1565b81600081518110612eee57612eee6148db565b602002602001018181525050600081600081518110612f0f57612f0f6148db565b60200260200101511115612fc157612f6f612f286118ed565b84846000818110612f3b57612f3b6148db565b9050602002810190612f4d9190614af8565b60165484516001600160a01b03909116908590600090612d6857612d686148db565b60165481516001600160a01b0390911690600080516020614d85833981519152908390600090612fa157612fa16148db565b6020026020010151604051612fb891815260200190565b60405180910390a25b612fc9610baf565b6001600160a01b0316630952c5636001306040518363ffffffff1660e01b8152600401612ff7929190614b18565b600060405180830381600087803b15801561301157600080fd5b505af1158015613025573d6000803e3d6000fd5b50479250508115905061303b5761303b81613a5e565b61304361097e565b6001600160a01b0316600080516020614d858339815191528260405161306b91815260200190565b60405180910390a25092915050565b600c546040516370a0823160e01b81526000916001600160a01b0316906370a08231906130ab903090600401614596565b602060405180830381865afa1580156130c8573d6000803e3d6000fd5b505050506040513d601f19601f820116820180604052508101906130ec91906148f1565b600d546040516370a0823160e01b81529192506000916001600160a01b03909116906370a0823190613122903090600401614596565b602060405180830381865afa15801561313f573d6000803e3d6000fd5b505050506040513d601f19601f8201168201806040525081019061316391906148f1565b9050600061316f61220b565b915050808410156131805750505050565b60006131ae600261319086613f09565b61319a9086614a16565b6131a4919061488e565b610979848861499b565b905060006131bb82611e9d565b905084811015613201576131ed6131d2828761499b565b600c54600d546001600160a01b039182169116612aaf61131f565b6131f79085614a16565b9350809450613226565b8184111561322657613216612a94838661499b565b6132209086614a16565b94508193505b83600061323282611e9d565b90508087101561324a57508561324781613f09565b91505b80613259575050505050505050565b60006132658284613f2f565b905061327081613fcf565b505050505050505050565b600080600061328a8585614004565b509050600080876001600160a01b0316630902f1ac6040518163ffffffff1660e01b8152600401606060405180830381865afa1580156132ce573d6000803e3d6000fd5b505050506040513d601f19601f820116820180604052508101906132f29190614b50565b506001600160701b031691506001600160701b03169150826001600160a01b0316876001600160a01b03161461332957808261332c565b81815b90999098509650505050505050565b6000613390826040518060400160405280602081526020017f5361666545524332303a206c6f772d6c6576656c2063616c6c206661696c6564815250856001600160a01b0316611a3c9092919063ffffffff16565b805190915015611a3757808060200190518101906133ae9190614aae565b611a375760405162461bcd60e51b815260206004820152602a60248201527f5361666545524332303a204552433230206f7065726174696f6e20646964206e6044820152691bdd081cdd58d8d9595960b21b606482015260840161089b565b60608247101561346e5760405162461bcd60e51b815260206004820152602660248201527f416464726573733a20696e73756666696369656e742062616c616e636520666f6044820152651c8818d85b1b60d21b606482015260840161089b565b843b6134bc5760405162461bcd60e51b815260206004820152601d60248201527f416464726573733a2063616c6c20746f206e6f6e2d636f6e7472616374000000604482015260640161089b565b600080866001600160a01b031685876040516134d89190614b95565b60006040518083038185875af1925050503d8060008114613515576040519150601f19603f3d011682016040523d82523d6000602084013e61351a565b606091505b509150915061352a8282866140e7565b979650505050505050565b60008361354457506000611a4e565b60008061355485856118b661131f565b91509150613563868383614120565b9695505050505050565b6000613577611282565b6001600160a01b0316633af9e669306040518263ffffffff1660e01b81526004016135a29190614596565b6020604051808303816000875af1158015611a9c573d6000803e3d6000fd5b60006135cb6118de565b6001600160a01b03166317bfdfbc306040518263ffffffff1660e01b81526004016135a29190614596565b6000613600610ee8565b6001600160a01b031663fc57d4df6136166118de565b6040518263ffffffff1660e01b81526004016136329190614596565b602060405180830381865afa15801561364f573d6000803e3d6000fd5b505050506040513d601f19601f8201168201806040525081019061367391906148f1565b61367b610ee8565b6001600160a01b031663fc57d4df611b5b611282565b60008061369c611c62565b9050808310156136b0576000915050610998565b60006136ba61220b565b50905060008186116136cd5760006136d7565b6136d7828761499b565b905060006136e5848761499b565b90508082106136fb576000945050505050610998565b61352a828261499b565b6000806000613712611c62565b9050838114156137285750600093849350915050565b8381116137485761374161373c828661499b565b6141e2565b600061375c565b600061375c613757868461499b565b614281565b909590945092505050565b61376f6118de565b6001600160a01b031663c5ebeaec826040518263ffffffff1660e01b815260040161379c91815260200190565b6020604051808303816000875af11580156137bb573d6000803e3d6000fd5b505050506040513d601f19601f820116820180604052508101906137df91906148f1565b506137ea6001613a42565b15611895576137f761097e565b6001600160a01b031663d0e30db0826040518263ffffffff1660e01b81526004016000604051808303818588803b15801561383157600080fd5b505af1158015613845573d6000803e3d6000fd5b505050505050565b6000806138586142ae565b601a546040516370a0823160e01b81529192506000916001600160a01b03909116906370a082319061388e903090600401614596565b602060405180830381865afa1580156138ab573d6000803e3d6000fd5b505050506040513d601f19601f820116820180604052508101906138cf91906148f1565b90506138db8183614a16565b9250505090565b601754601b54604051630ad58d2f60e01b81526001600160a01b0390921691630ad58d2f916139179185903090600401614ba7565b600060405180830381600087803b15801561393157600080fd5b505af1158015613945573d6000803e3d6000fd5b5050505050565b60008061397361395a61131f565b8461396361131f565b6001600160a01b03169190611ddd565b600061398d613980610c37565b61398861097e565b614004565b50905060008061399b61131f565b6001600160a01b03166389afcb44306040518263ffffffff1660e01b81526004016139c69190614596565b60408051808303816000875af11580156139e4573d6000803e3d6000fd5b505050506040513d601f19601f82011682018060405250810190613a089190614bc6565b91509150613a14610c37565b6001600160a01b0316836001600160a01b031614613a33578082613a36565b81815b94509450505050915091565b60008160ff16600114613a56576000610998565b600192915050565b613a666118de565b6001600160a01b0316634e4d9fea826040518263ffffffff1660e01b81526004016000604051808303818588803b15801561383157600080fd5b600080613aac836120bd565b90506000613ab861220b565b5090506000613ac5611c10565b90506000613ad284613f09565b90508284101580613ae35750818110155b15613af0576135636129a7565b600080613b0061211e878761499b565b91509150613b0d816123da565b613b1a613757838a61499b565b613b249083614a16565b98975050505050505050565b612205846323b872dd60e01b858585604051602401611a0093929190614a8a565b6103e8811015613b5e5750565b6000613b69826120bd565b90506000613b7682613f09565b9050613b8a613b85838561499b565b6124d5565b613b9381613767565b6000613b9f8383613f2f565b905061220581613fcf565b600080613bb98686868661432d565b90506000613bc78486614004565b509050600080826001600160a01b0316876001600160a01b031614613bee57876000613bf2565b6000885b9092509050613c0b6001600160a01b0388168a86611ddd565b6040805160008152602081019182905263022c0d9f60e01b9091526001600160a01b038a169063022c0d9f90613c4a9085908590309060248101614bea565b600060405180830381600087803b158015613c6457600080fd5b505af1158015613c78573d6000803e3d6000fd5b50959b9a5050505050505050505050565b600080613c98868686866143f3565b90506000613ca68486614004565b509050600080826001600160a01b0316876001600160a01b031614613ccd57836000613cd1565b6000845b9092509050613c0b6001600160a01b0388168a8a611ddd565b6000613cf4611282565b6001600160a01b031663852a12e3836040518263ffffffff1660e01b8152600401613d2191815260200190565b6020604051808303816000875af1158015613d40573d6000803e3d6000fd5b505050506040513d601f19601f82011682018060405250810190611a3791906148f1565b6000613d708480614c17565b6001613d7c8780614c17565b613d8792915061499b565b818110613d9657613d966148db565b9050602002016020810190613dab91906145d8565b90506001600160a01b038316613dc18580614c17565b6000818110613dd257613dd26148db565b9050602002016020810190613de791906145d8565b6001600160a01b0316148015613e155750613e0061097e565b6001600160a01b0316816001600160a01b0316145b80613e385750613e23610c37565b6001600160a01b0316816001600160a01b0316145b613e7c5760405162461bcd60e51b81526020600482015260156024820152740928cc2e4dac2c4d8ca7440aea49e9c8ebea082a89605b1b604482015260640161089b565b6001600160a01b0385166338ed1739836020870135613e9b8880614c17565b308a604001356040518763ffffffff1660e01b8152600401613ec296959493929190614c60565b6000604051808303816000875af1158015613ee1573d6000803e3d6000fd5b505050506040513d6000823e601f3d908101601f191682016040526138459190810190614cd3565b60008115611ec857600c54600d54611ec39184916001600160a01b039182169116613535565b6000613f45613f3c61131f565b84613963610c37565b613f59613f5061131f565b8361396361097e565b613f6161131f565b6001600160a01b0316636a627842306040518263ffffffff1660e01b8152600401613f8c9190614596565b6020604051808303816000875af1158015613fab573d6000803e3d6000fd5b505050506040513d601f19601f82011682018060405250810190611a4e91906148f1565b601754601b54604051638dbdbe6d60e01b81526001600160a01b0390921691638dbdbe6d916139179185903090600401614ba7565b600080826001600160a01b0316846001600160a01b031614156140695760405162461bcd60e51b815260206004820152601d60248201527f556e695574696c733a204944454e544943414c5f414444524553534553000000604482015260640161089b565b826001600160a01b0316846001600160a01b03161061408957828461408c565b83835b90925090506001600160a01b0382166140e05760405162461bcd60e51b8152602060048201526016602482015275556e695574696c733a205a45524f5f4144445245535360501b604482015260640161089b565b9250929050565b606083156140f6575081611a4e565b8251156141065782518084602001fd5b8160405162461bcd60e51b815260040161089b9190614583565b60008084116141715760405162461bcd60e51b815260206004820152601d60248201527f556e695574696c733a20494e53554646494349454e545f414d4f554e54000000604482015260640161089b565b6000831180156141815750600082115b6141cd5760405162461bcd60e51b815260206004820181905260248201527f556e695574696c733a20494e53554646494349454e545f4c4951554944495459604482015260640161089b565b826141d8838661486f565b611a4b919061488e565b6000806141ed610c37565b6001600160a01b03166370a08231306040518263ffffffff1660e01b81526004016142189190614596565b602060405180830381865afa158015614235573d6000803e3d6000fd5b505050506040513d601f19601f8201168201806040525081019061425991906148f1565b9050828111614268578061426a565b825b9150811561427b5761427b826124d5565b50919050565b60008061428c6144b4565b905082811161429b578061429d565b825b9150811561427b5761427b82613cea565b601754601b546040516393f1a40b60e01b815260009283926001600160a01b03909116916393f1a40b916142e6913090600401614acb565b6040805180830381865afa158015614302573d6000803e3d6000fd5b505050506040513d601f19601f820116820180604052508101906143269190614bc6565b5092915050565b600080841161438a5760405162461bcd60e51b8152602060048201526024808201527f556e695574696c733a20494e53554646494349454e545f4f55545055545f414d60448201526313d5539560e21b606482015260840161089b565b60008061439887868661327b565b909250905060006143a9878461486f565b6143b5906103e861486f565b905060006143c3888461499b565b6143cf906103e561486f565b90506143db818361488e565b6143e6906001614a16565b9998505050505050505050565b60008084116144505760405162461bcd60e51b815260206004820152602360248201527f556e695574696c733a20494e53554646494349454e545f494e5055545f414d4f60448201526215539560ea1b606482015260840161089b565b60008061445e87868661327b565b90925090506000614471876103e561486f565b9050600061447f838361486f565b9050600082614490866103e861486f565b61449a9190614a16565b90506144a6818361488e565b9a9950505050505050505050565b6000806144bf611c62565b905060006144ce61096f611c10565b90506000605f6144dc611d57565b6144ee84670de0b6b3a764000061486f565b6144f990606461486f565b614503919061488e565b61450d919061488e565b905082811115614521576000935050505090565b6109ff818461499b565b60005b8381101561454657818101518382015260200161452e565b838111156122055750506000910152565b6000815180845261456f81602086016020860161452b565b601f01601f19169290920160200192915050565b602081526000611a4e6020830184614557565b6001600160a01b0391909116815260200190565b6000602082840312156145bc57600080fd5b5035919050565b6001600160a01b038116811461189557600080fd5b6000602082840312156145ea57600080fd5b8135611a4e816145c3565b60008083601f84011261460757600080fd5b5081356001600160401b0381111561461e57600080fd5b6020830191508360208260051b85010111156140e057600080fd5b60008060006040848603121561464e57600080fd5b8335614659816145c3565b925060208401356001600160401b0381111561467457600080fd5b614680868287016145f5565b9497909650939450505050565b801515811461189557600080fd5b600080604083850312156146ae57600080fd5b82356146b9816145c3565b915060208301356146c98161468d565b809150509250929050565b6000602082840312156146e657600080fd5b813561ffff81168114611a4e57600080fd5b6000806000806040858703121561470e57600080fd5b84356001600160401b038082111561472557600080fd5b614731888389016145f5565b9096509450602087013591508082111561474a57600080fd5b50614757878288016145f5565b95989497509550505050565b600081518084526020808501945080840160005b8381101561479357815187529582019590820190600101614777565b509495945050505050565b6040815260006147b16040830185614763565b82810360208401526147c38185614763565b95945050505050565b600181811c908216806147e057607f821691505b6020821081141561427b57634e487b7160e01b600052602260045260246000fd5b6020808252818101527f4f776e61626c653a2063616c6c6572206973206e6f7420746865206f776e6572604082015260600190565b60006020828403121561484857600080fd5b815160ff81168114611a4e57600080fd5b634e487b7160e01b600052601160045260246000fd5b600081600019048311821515161561488957614889614859565b500290565b6000826148ab57634e487b7160e01b600052601260045260246000fd5b500490565b60208082526011908201527014dd1c985d0e8813d3931657d590555315607a1b604082015260600190565b634e487b7160e01b600052603260045260246000fd5b60006020828403121561490357600080fd5b5051919050565b600060001982141561491e5761491e614859565b5060010190565b60208082528181018390526000908460408401835b8681101561496857823561494d816145c3565b6001600160a01b03168252918301919083019060010161493a565b509695505050505050565b6020808252600e908201526d0a6e8e4c2e874409c9ebe82aaa8960931b604082015260600190565b6000828210156149ad576149ad614859565b500390565b60208082526013908201527209098a07440a0a492868abe9a92a69a82a8869606b1b604082015260600190565b6020808252601f908201527f5265656e7472616e637947756172643a207265656e7472616e742063616c6c00604082015260600190565b60008219821115614a2957614a29614859565b500190565b6001600160a01b03929092168252602082015260400190565b600080600060608486031215614a5c57600080fd5b8351614a678161468d565b602085015160408601519194509250614a7f8161468d565b809150509250925092565b6001600160a01b039384168152919092166020820152604081019190915260600190565b600060208284031215614ac057600080fd5b8151611a4e8161468d565b9182526001600160a01b0316602082015260400190565b634e487b7160e01b600052604160045260246000fd5b60008235605e19833603018112614b0e57600080fd5b9190910192915050565b60ff9290921682526001600160a01b0316602082015260400190565b80516001600160701b0381168114614b4b57600080fd5b919050565b600080600060608486031215614b6557600080fd5b614b6e84614b34565b9250614b7c60208501614b34565b9150604084015163ffffffff81168114614a7f57600080fd5b60008251614b0e81846020870161452b565b92835260208301919091526001600160a01b0316604082015260600190565b60008060408385031215614bd957600080fd5b505080516020909101519092909150565b84815283602082015260018060a01b03831660408201526080606082015260006135636080830184614557565b6000808335601e19843603018112614c2e57600080fd5b8301803591506001600160401b03821115614c4857600080fd5b6020019150600581901b36038213156140e057600080fd5b868152602080820187905260a0604083018190528201859052600090869060c08401835b88811015614cb2578335614c97816145c3565b6001600160a01b031682529282019290820190600101614c84565b506001600160a01b0396909616606085015250505060800152949350505050565b60006020808385031215614ce657600080fd5b82516001600160401b0380821115614cfd57600080fd5b818501915085601f830112614d1157600080fd5b815181811115614d2357614d23614ae2565b8060051b604051601f19603f83011681018181108582111715614d4857614d48614ae2565b604052918252848201925083810185019188831115614d6657600080fd5b938501935b82851015613b2457845184529385019392850192614d6b56fe3efad319b6afe1e0317f51df66abdc4d7a7c8b1cfda31f03440b4ad255af7245a264697066735822122059b375b63339e4721a02d7fc62b2d37f4a310f356bdc7aa5dfeb5db94ba952b364736f6c634300080a0033",
  "libraries": {
    "UniUtils": "0xd7df1eee437bc25edeffd5e54fc83f7e7fdb8a52"
  },
  "devdoc": {
    "kind": "dev",
    "methods": {
      "getMaxTvl()": {
        "returns": {
          "_0": "MaxTvl"
        }
      },
      "isCEther()": {
        "details": "Only present in Fuse cTokens, not Compound cTokens.",
        "returns": {
          "_0": "True if the strategy accepts ETH, false otherwise."
        }
      },
      "owner()": {
        "details": "Returns the address of the current owner."
      },
      "redeemUnderlying(uint256)": {
        "params": {
          "amount": "The amount of underlying tokens to withdraw."
        },
        "returns": {
          "errCode": "An error code, or 0 if the withdrawal was successful."
        }
      },
      "renounceOwnership()": {
        "details": "Leaves the contract without owner. It will not be possible to call `onlyOwner` functions anymore. Can only be called by the current owner. NOTE: Renouncing ownership will leave the contract without an owner, thereby removing any functionality that is only available to the owner."
      },
      "transferOwnership(address)": {
        "details": "Transfers ownership of the contract to a new account (`newOwner`). Can only be called by the current owner."
      }
    },
    "version": 1
  },
  "userdoc": {
    "kind": "user",
    "methods": {
      "emergencyWithdraw(address,address[])": {
        "notice": "Withdraws any ERC20 tokens back to recipient."
      },
      "getMaxTvl()": {
        "notice": "Returns max deposits a strategy can take."
      },
      "getPricePerShare()": {
        "notice": "Returns the share price of the strategy in `underlying` units, multiplied  by 1e18"
      },
      "isCEther()": {
        "notice": "Returns whether the strategy accepts ETH or an ERC20."
      },
      "redeemUnderlying(uint256)": {
        "notice": "Withdraws a specific amount of underlying tokens from the strategy."
      }
    },
    "version": 1
  },
  "storageLayout": {
    "storage": [
      {
        "astId": 2661,
        "contract": "src/strategies/implementations/USDCavaxPNGqi.sol:USDCavaxPNGqi",
        "label": "_owner",
        "offset": 0,
        "slot": "0",
        "type": "t_address"
      },
      {
        "astId": 4116,
        "contract": "src/strategies/implementations/USDCavaxPNGqi.sol:USDCavaxPNGqi",
        "label": "_status",
        "offset": 0,
        "slot": "1",
        "type": "t_uint256"
      },
      {
        "astId": 18263,
        "contract": "src/strategies/implementations/USDCavaxPNGqi.sol:USDCavaxPNGqi",
        "label": "isIntialized",
        "offset": 0,
        "slot": "2",
        "type": "t_bool"
      },
      {
        "astId": 19459,
        "contract": "src/strategies/implementations/USDCavaxPNGqi.sol:USDCavaxPNGqi",
        "label": "isInitialized",
        "offset": 1,
        "slot": "2",
        "type": "t_bool"
      },
      {
        "astId": 19464,
        "contract": "src/strategies/implementations/USDCavaxPNGqi.sol:USDCavaxPNGqi",
        "label": "lastHarvest",
        "offset": 0,
        "slot": "3",
        "type": "t_uint256"
      },
      {
        "astId": 19466,
        "contract": "src/strategies/implementations/USDCavaxPNGqi.sol:USDCavaxPNGqi",
        "label": "_vault",
        "offset": 0,
        "slot": "4",
        "type": "t_address"
      },
      {
        "astId": 19468,
        "contract": "src/strategies/implementations/USDCavaxPNGqi.sol:USDCavaxPNGqi",
        "label": "_shares",
        "offset": 0,
        "slot": "5",
        "type": "t_uint256"
      },
      {
        "astId": 19470,
        "contract": "src/strategies/implementations/USDCavaxPNGqi.sol:USDCavaxPNGqi",
        "label": "name",
        "offset": 0,
        "slot": "6",
        "type": "t_string_storage"
      },
      {
        "astId": 19472,
        "contract": "src/strategies/implementations/USDCavaxPNGqi.sol:USDCavaxPNGqi",
        "label": "symbol",
        "offset": 0,
        "slot": "7",
        "type": "t_string_storage"
      },
      {
        "astId": 19476,
        "contract": "src/strategies/implementations/USDCavaxPNGqi.sol:USDCavaxPNGqi",
        "label": "_managers",
        "offset": 0,
        "slot": "8",
        "type": "t_mapping(t_address,t_bool)"
      },
      {
        "astId": 19478,
        "contract": "src/strategies/implementations/USDCavaxPNGqi.sol:USDCavaxPNGqi",
        "label": "BASE_UNIT",
        "offset": 0,
        "slot": "9",
        "type": "t_uint256"
      },
      {
        "astId": 19868,
        "contract": "src/strategies/implementations/USDCavaxPNGqi.sol:USDCavaxPNGqi",
        "label": "_maxPriceMismatch",
        "offset": 0,
        "slot": "10",
        "type": "t_uint256"
      },
      {
        "astId": 19871,
        "contract": "src/strategies/implementations/USDCavaxPNGqi.sol:USDCavaxPNGqi",
        "label": "minLoanHealth",
        "offset": 0,
        "slot": "11",
        "type": "t_uint256"
      },
      {
        "astId": 19874,
        "contract": "src/strategies/implementations/USDCavaxPNGqi.sol:USDCavaxPNGqi",
        "label": "_underlying",
        "offset": 0,
        "slot": "12",
        "type": "t_contract(IERC20)4769"
      },
      {
        "astId": 19877,
        "contract": "src/strategies/implementations/USDCavaxPNGqi.sol:USDCavaxPNGqi",
        "label": "_short",
        "offset": 0,
        "slot": "13",
        "type": "t_contract(IERC20)4769"
      },
      {
        "astId": 19880,
        "contract": "src/strategies/implementations/USDCavaxPNGqi.sol:USDCavaxPNGqi",
        "label": "rebalanceThreshold",
        "offset": 20,
        "slot": "13",
        "type": "t_uint16"
      },
      {
        "astId": 19883,
        "contract": "src/strategies/implementations/USDCavaxPNGqi.sol:USDCavaxPNGqi",
        "label": "version",
        "offset": 22,
        "slot": "13",
        "type": "t_uint16"
      },
      {
        "astId": 19885,
        "contract": "src/strategies/implementations/USDCavaxPNGqi.sol:USDCavaxPNGqi",
        "label": "_maxTvl",
        "offset": 0,
        "slot": "14",
        "type": "t_uint256"
      },
      {
        "astId": 19887,
        "contract": "src/strategies/implementations/USDCavaxPNGqi.sol:USDCavaxPNGqi",
        "label": "_cachedBalanceOfUnderlying",
        "offset": 0,
        "slot": "15",
        "type": "t_uint256"
      },
      {
        "astId": 21602,
        "contract": "src/strategies/implementations/USDCavaxPNGqi.sol:USDCavaxPNGqi",
        "label": "_cTokenLend",
        "offset": 0,
        "slot": "16",
        "type": "t_contract(ICTokenErc20)16319"
      },
      {
        "astId": 21605,
        "contract": "src/strategies/implementations/USDCavaxPNGqi.sol:USDCavaxPNGqi",
        "label": "_cTokenBorrow",
        "offset": 0,
        "slot": "17",
        "type": "t_contract(ICTokenErc20)16319"
      },
      {
        "astId": 21608,
        "contract": "src/strategies/implementations/USDCavaxPNGqi.sol:USDCavaxPNGqi",
        "label": "_comptroller",
        "offset": 0,
        "slot": "18",
        "type": "t_contract(IComptroller)16561"
      },
      {
        "astId": 21611,
        "contract": "src/strategies/implementations/USDCavaxPNGqi.sol:USDCavaxPNGqi",
        "label": "_oracle",
        "offset": 0,
        "slot": "19",
        "type": "t_contract(ICompPriceOracle)16342"
      },
      {
        "astId": 21613,
        "contract": "src/strategies/implementations/USDCavaxPNGqi.sol:USDCavaxPNGqi",
        "label": "_safeCollateralRatio",
        "offset": 0,
        "slot": "20",
        "type": "t_uint256"
      },
      {
        "astId": 21761,
        "contract": "src/strategies/implementations/USDCavaxPNGqi.sol:USDCavaxPNGqi",
        "label": "_router",
        "offset": 0,
        "slot": "21",
        "type": "t_contract(IUniswapV2Router01)17509"
      },
      {
        "astId": 21764,
        "contract": "src/strategies/implementations/USDCavaxPNGqi.sol:USDCavaxPNGqi",
        "label": "_farmToken",
        "offset": 0,
        "slot": "22",
        "type": "t_contract(IERC20)4769"
      },
      {
        "astId": 22235,
        "contract": "src/strategies/implementations/USDCavaxPNGqi.sol:USDCavaxPNGqi",
        "label": "_farm",
        "offset": 0,
        "slot": "23",
        "type": "t_contract(IMiniChefV2)16896"
      },
      {
        "astId": 22238,
        "contract": "src/strategies/implementations/USDCavaxPNGqi.sol:USDCavaxPNGqi",
        "label": "_router",
        "offset": 0,
        "slot": "24",
        "type": "t_contract(IUniswapV2Router01)17509"
      },
      {
        "astId": 22241,
        "contract": "src/strategies/implementations/USDCavaxPNGqi.sol:USDCavaxPNGqi",
        "label": "_farmToken",
        "offset": 0,
        "slot": "25",
        "type": "t_contract(IERC20)4769"
      },
      {
        "astId": 22244,
        "contract": "src/strategies/implementations/USDCavaxPNGqi.sol:USDCavaxPNGqi",
        "label": "_pair",
        "offset": 0,
        "slot": "26",
        "type": "t_contract(IUniswapV2Pair)17201"
      },
      {
        "astId": 22246,
        "contract": "src/strategies/implementations/USDCavaxPNGqi.sol:USDCavaxPNGqi",
        "label": "_farmId",
        "offset": 0,
        "slot": "27",
        "type": "t_uint256"
      }
    ],
    "types": {
      "t_address": {
        "encoding": "inplace",
        "label": "address",
        "numberOfBytes": "20"
      },
      "t_bool": {
        "encoding": "inplace",
        "label": "bool",
        "numberOfBytes": "1"
      },
      "t_contract(ICTokenErc20)16319": {
        "encoding": "inplace",
        "label": "contract ICTokenErc20",
        "numberOfBytes": "20"
      },
      "t_contract(ICompPriceOracle)16342": {
        "encoding": "inplace",
        "label": "contract ICompPriceOracle",
        "numberOfBytes": "20"
      },
      "t_contract(IComptroller)16561": {
        "encoding": "inplace",
        "label": "contract IComptroller",
        "numberOfBytes": "20"
      },
      "t_contract(IERC20)4769": {
        "encoding": "inplace",
        "label": "contract IERC20",
        "numberOfBytes": "20"
      },
      "t_contract(IMiniChefV2)16896": {
        "encoding": "inplace",
        "label": "contract IMiniChefV2",
        "numberOfBytes": "20"
      },
      "t_contract(IUniswapV2Pair)17201": {
        "encoding": "inplace",
        "label": "contract IUniswapV2Pair",
        "numberOfBytes": "20"
      },
      "t_contract(IUniswapV2Router01)17509": {
        "encoding": "inplace",
        "label": "contract IUniswapV2Router01",
        "numberOfBytes": "20"
      },
      "t_mapping(t_address,t_bool)": {
        "encoding": "mapping",
        "key": "t_address",
        "label": "mapping(address => bool)",
        "numberOfBytes": "32",
        "value": "t_bool"
      },
      "t_string_storage": {
        "encoding": "bytes",
        "label": "string",
        "numberOfBytes": "32"
      },
      "t_uint16": {
        "encoding": "inplace",
        "label": "uint16",
        "numberOfBytes": "2"
      },
      "t_uint256": {
        "encoding": "inplace",
        "label": "uint256",
        "numberOfBytes": "32"
      }
    }
  }
}