{
  "address": "0xb90e1aa0808537b1b9755ec347a54a0ada55f63f",
  "abi": [
    {
      "inputs": [
        {
          "internalType": "contract VaultConfigurationModule",
          "name": "_configModule",
          "type": "address"
        },
        {
          "internalType": "address",
          "name": "_owner",
          "type": "address"
        },
        {
          "internalType": "contract Authority",
          "name": "_authority",
          "type": "address"
        }
      ],
      "stateMutability": "nonpayable",
      "type": "constructor"
    },
    {
      "anonymous": false,
      "inputs": [
        {
          "indexed": true,
          "internalType": "contract Authority",
          "name": "authority",
          "type": "address"
        }
      ],
      "name": "AuthorityUpdated",
      "type": "event"
    },
    {
      "anonymous": false,
      "inputs": [
        {
          "indexed": false,
          "internalType": "contract VaultConfigurationModule",
          "name": "newConfigModule",
          "type": "address"
        }
      ],
      "name": "ConfigModuleUpdated",
      "type": "event"
    },
    {
      "anonymous": false,
      "inputs": [
        {
          "indexed": true,
          "internalType": "address",
          "name": "owner",
          "type": "address"
        }
      ],
      "name": "OwnerUpdated",
      "type": "event"
    },
    {
      "inputs": [],
      "name": "authority",
      "outputs": [
        {
          "internalType": "contract Authority",
          "name": "",
          "type": "address"
        }
      ],
      "stateMutability": "view",
      "type": "function"
    },
    {
      "inputs": [],
      "name": "configModule",
      "outputs": [
        {
          "internalType": "contract VaultConfigurationModule",
          "name": "",
          "type": "address"
        }
      ],
      "stateMutability": "view",
      "type": "function"
    },
    {
      "inputs": [
        {
          "internalType": "contract Vault",
          "name": "vault",
          "type": "address"
        }
      ],
      "name": "initializeVault",
      "outputs": [],
      "stateMutability": "nonpayable",
      "type": "function"
    },
    {
      "inputs": [],
      "name": "owner",
      "outputs": [
        {
          "internalType": "address",
          "name": "",
          "type": "address"
        }
      ],
      "stateMutability": "view",
      "type": "function"
    },
    {
      "inputs": [
        {
          "internalType": "contract Authority",
          "name": "newAuthority",
          "type": "address"
        }
      ],
      "name": "setAuthority",
      "outputs": [],
      "stateMutability": "nonpayable",
      "type": "function"
    },
    {
      "inputs": [
        {
          "internalType": "contract VaultConfigurationModule",
          "name": "newConfigModule",
          "type": "address"
        }
      ],
      "name": "setConfigModule",
      "outputs": [],
      "stateMutability": "nonpayable",
      "type": "function"
    },
    {
      "inputs": [
        {
          "internalType": "address",
          "name": "newOwner",
          "type": "address"
        }
      ],
      "name": "setOwner",
      "outputs": [],
      "stateMutability": "nonpayable",
      "type": "function"
    }
  ],
  "transactionHash": "0xf1428f098c4716e11acbb31a862f1ef18edb1369d82fab80c45dfe67214a68b4",
  "args": [
    "0x5672E5aCbBbb467Feaf91327C847824Dd1C4f4B9",
    "0xf09c27934A92c56c7C0dD6cBAc858C35fBd5170f",
    "0xE669f5f83616639D3442b03108233E0054afbef8"
  ],
  "solcInputHash": "9dd7be47a0ead41cf23f6aa7653a5c36",
  "bytecode": "0x608060405234801561001057600080fd5b5060405161076138038061076183398101604081905261002f91610100565b600080546001600160a01b03199081166001600160a01b038581169182178455600180549093169085161790915560405184928492917f4ffd725fc4a22075e9ec71c59edf9c38cdeb588a91b24fc5b61388c5be41282b9190a26040516001600160a01b038216907f2f658b440c35314f52658ea8a740e05b284cdc84dc9ae01e891f21b8933e7cad90600090a25050600280546001600160a01b0319166001600160a01b0394909416939093179092555061014d9050565b6001600160a01b03811681146100fd57600080fd5b50565b60008060006060848603121561011557600080fd5b8351610120816100e8565b6020850151909350610131816100e8565b6040850151909250610142816100e8565b809150509250925092565b6106058061015c6000396000f3fe608060405234801561001057600080fd5b506004361061006d5760003560e01c806313af40351461007257806368f1e99a146100875780637a9e5e4b146100b05780638da5cb5b146100c3578063ad9ab820146100d6578063bf7e214f146100e9578063ccb6a270146100fc575b600080fd5b61008561008036600461054f565b61010f565b005b60025461009a906001600160a01b031681565b6040516100a79190610573565b60405180910390f35b6100856100be36600461054f565b610192565b60005461009a906001600160a01b031681565b6100856100e436600461054f565b61020e565b60015461009a906001600160a01b031681565b61008561010a36600461054f565b610296565b610125336000356001600160e01b031916610474565b61014a5760405162461bcd60e51b815260040161014190610587565b60405180910390fd5b600080546001600160a01b0319166001600160a01b038316908117825560405190917f4ffd725fc4a22075e9ec71c59edf9c38cdeb588a91b24fc5b61388c5be41282b91a250565b6101a8336000356001600160e01b031916610474565b6101c45760405162461bcd60e51b815260040161014190610587565b600180546001600160a01b0319166001600160a01b0383169081179091556040517f2f658b440c35314f52658ea8a740e05b284cdc84dc9ae01e891f21b8933e7cad90600090a250565b610224336000356001600160e01b031916610474565b6102405760405162461bcd60e51b815260040161014190610587565b600280546001600160a01b0319166001600160a01b0383161790556040517fcc0bfba2fd41fad8e74708649f00db8723ef3361e1e43460f586cf04378035cd9061028b908390610573565b60405180910390a150565b6002546040516316f8725960e31b81526001600160a01b039091169063b7c392c8906102c6908490600401610573565b600060405180830381600087803b1580156102e057600080fd5b505af11580156102f4573d6000803e3d6000fd5b5050600254604051635607702f60e01b81526001600160a01b039091169250635607702f9150610328908490600401610573565b600060405180830381600087803b15801561034257600080fd5b505af1158015610356573d6000803e3d6000fd5b505060025460405163e7d9934b60e01b81526001600160a01b03909116925063e7d9934b915061038a908490600401610573565b600060405180830381600087803b1580156103a457600080fd5b505af11580156103b8573d6000803e3d6000fd5b505060025460405163ac345d0360e01b81526001600160a01b03909116925063ac345d0391506103ec908490600401610573565b600060405180830381600087803b15801561040657600080fd5b505af115801561041a573d6000803e3d6000fd5b50505050806001600160a01b0316638129fc1c6040518163ffffffff1660e01b8152600401600060405180830381600087803b15801561045957600080fd5b505af115801561046d573d6000803e3d6000fd5b5050505050565b6001546000906001600160a01b0316801561051d5760405163b700961360e01b81526001600160a01b0385811660048301523060248301526001600160e01b03198516604483015282169063b700961390606401602060405180830381865afa925050508015610501575060408051601f3d908101601f191682019092526104fe918101906105ad565b60015b61050a5761051d565b801561051b57600192505050610531565b505b50506000546001600160a01b038381169116145b92915050565b6001600160a01b038116811461054c57600080fd5b50565b60006020828403121561056157600080fd5b813561056c81610537565b9392505050565b6001600160a01b0391909116815260200190565b6020808252600c908201526b15539055551213d49256915160a21b604082015260600190565b6000602082840312156105bf57600080fd5b8151801515811461056c57600080fdfea2646970667358221220647c106a387a49a519d20abcd6826c782300a80220c4ac1a1294bbcc31417e4064736f6c634300080a0033",
  "devdoc": {
    "author": "Transmissions11 and JetJadeja",
    "events": {
      "ConfigModuleUpdated(address)": {
        "params": {
          "newConfigModule": "The new configuration module."
        }
      }
    },
    "kind": "dev",
    "methods": {
      "constructor": {
        "params": {
          "_authority": "The Authority of the module.",
          "_configModule": "The Vault configuration module the module will use to configure Vaults before initialization.",
          "_owner": "The owner of the module."
        }
      },
      "initializeVault(address)": {
        "details": "This will revert if the Vault has already been initialized.",
        "params": {
          "vault": "The Vault to configure and initialize."
        }
      },
      "setConfigModule(address)": {
        "params": {
          "newConfigModule": "The Vault configuration module to set."
        }
      }
    },
    "title": "Rari Vault Initialization Module",
    "version": 1
  },
  "userdoc": {
    "events": {
      "ConfigModuleUpdated(address)": {
        "notice": "Emitted when the config module is updated."
      }
    },
    "kind": "user",
    "methods": {
      "configModule()": {
        "notice": "Vault configuration module used to configure Vaults before initialization."
      },
      "constructor": {
        "notice": "Creates a Vault initialization module."
      },
      "initializeVault(address)": {
        "notice": "Properly configures and initializes a newly deployed Vault."
      },
      "setConfigModule(address)": {
        "notice": "Sets a new Vault configuration module."
      }
    },
    "notice": "Module for initializing newly created Vaults.",
    "version": 1
  },
  "storageLayout": {
    "storage": [
      {
        "astId": 9760,
        "contract": "src/vault/modules/VaultInitializationModule.sol:VaultInitializationModule",
        "label": "owner",
        "offset": 0,
        "slot": "0",
        "type": "t_address"
      },
      {
        "astId": 9763,
        "contract": "src/vault/modules/VaultInitializationModule.sol:VaultInitializationModule",
        "label": "authority",
        "offset": 0,
        "slot": "1",
        "type": "t_contract(Authority)9748"
      },
      {
        "astId": 18650,
        "contract": "src/vault/modules/VaultInitializationModule.sol:VaultInitializationModule",
        "label": "configModule",
        "offset": 0,
        "slot": "2",
        "type": "t_contract(VaultConfigurationModule)18630"
      }
    ],
    "types": {
      "t_address": {
        "encoding": "inplace",
        "label": "address",
        "numberOfBytes": "20"
      },
      "t_contract(Authority)9748": {
        "encoding": "inplace",
        "label": "contract Authority",
        "numberOfBytes": "20"
      },
      "t_contract(VaultConfigurationModule)18630": {
        "encoding": "inplace",
        "label": "contract VaultConfigurationModule",
        "numberOfBytes": "20"
      }
    }
  }
}