{
  "address": "0xADEeD68898ee71113fF9eB780198C8ACD2Fa1785",
  "abi": [
    {
      "inputs": [
        {
          "internalType": "address",
          "name": "_owner",
          "type": "address"
        },
        {
          "internalType": "contract Authority",
          "name": "_authority",
          "type": "address"
        }
      ],
      "stateMutability": "nonpayable",
      "type": "constructor"
    },
    {
      "anonymous": false,
      "inputs": [
        {
          "indexed": true,
          "internalType": "contract Authority",
          "name": "authority",
          "type": "address"
        }
      ],
      "name": "AuthorityUpdated",
      "type": "event"
    },
    {
      "anonymous": false,
      "inputs": [
        {
          "indexed": true,
          "internalType": "address",
          "name": "owner",
          "type": "address"
        }
      ],
      "name": "OwnerUpdated",
      "type": "event"
    },
    {
      "anonymous": false,
      "inputs": [
        {
          "indexed": false,
          "internalType": "contract Vault",
          "name": "vault",
          "type": "address"
        },
        {
          "indexed": false,
          "internalType": "contract ERC20",
          "name": "underlying",
          "type": "address"
        }
      ],
      "name": "VaultDeployed",
      "type": "event"
    },
    {
      "inputs": [],
      "name": "authority",
      "outputs": [
        {
          "internalType": "contract Authority",
          "name": "",
          "type": "address"
        }
      ],
      "stateMutability": "view",
      "type": "function"
    },
    {
      "inputs": [
        {
          "internalType": "contract ERC20",
          "name": "underlying",
          "type": "address"
        },
        {
          "internalType": "uint256",
          "name": "id",
          "type": "uint256"
        }
      ],
      "name": "deployVault",
      "outputs": [
        {
          "internalType": "contract Vault",
          "name": "vault",
          "type": "address"
        }
      ],
      "stateMutability": "nonpayable",
      "type": "function"
    },
    {
      "inputs": [
        {
          "internalType": "contract ERC20",
          "name": "underlying",
          "type": "address"
        },
        {
          "internalType": "uint256",
          "name": "id",
          "type": "uint256"
        }
      ],
      "name": "getVaultFromUnderlying",
      "outputs": [
        {
          "internalType": "contract Vault",
          "name": "",
          "type": "address"
        }
      ],
      "stateMutability": "view",
      "type": "function"
    },
    {
      "inputs": [
        {
          "internalType": "contract Vault",
          "name": "vault",
          "type": "address"
        }
      ],
      "name": "isVaultDeployed",
      "outputs": [
        {
          "internalType": "bool",
          "name": "",
          "type": "bool"
        }
      ],
      "stateMutability": "view",
      "type": "function"
    },
    {
      "inputs": [],
      "name": "owner",
      "outputs": [
        {
          "internalType": "address",
          "name": "",
          "type": "address"
        }
      ],
      "stateMutability": "view",
      "type": "function"
    },
    {
      "inputs": [
        {
          "internalType": "contract Authority",
          "name": "newAuthority",
          "type": "address"
        }
      ],
      "name": "setAuthority",
      "outputs": [],
      "stateMutability": "nonpayable",
      "type": "function"
    },
    {
      "inputs": [
        {
          "internalType": "address",
          "name": "newOwner",
          "type": "address"
        }
      ],
      "name": "setOwner",
      "outputs": [],
      "stateMutability": "nonpayable",
      "type": "function"
    }
  ],
  "transactionHash": "0x26b12852e1f68d81a69cc8f7c152387f42abd6085252a530f537d4bfd84efbc6",
  "args": [
    "0xf09c27934A92c56c7C0dD6cBAc858C35fBd5170f",
    "0xE669f5f83616639D3442b03108233E0054afbef8"
  ],
  "solcInputHash": "9dd7be47a0ead41cf23f6aa7653a5c36",
  "bytecode": "0x608060405234801561001057600080fd5b50604051614f24380380614f2483398101604081905261002f916100de565b600080546001600160a01b03199081166001600160a01b038581169182178455600180549093169085161790915560405184928492917f4ffd725fc4a22075e9ec71c59edf9c38cdeb588a91b24fc5b61388c5be41282b9190a26040516001600160a01b038216907f2f658b440c35314f52658ea8a740e05b284cdc84dc9ae01e891f21b8933e7cad90600090a250505050610118565b6001600160a01b03811681146100db57600080fd5b50565b600080604083850312156100f157600080fd5b82516100fc816100c6565b602084015190925061010d816100c6565b809150509250929050565b614dfd806101276000396000f3fe60806040523480156200001157600080fd5b5060043610620000765760003560e01c806313af4035146200007b5780637a9e5e4b14620000945780637d6020f414620000ab5780638da5cb5b14620000e0578063aa04f8ac1462000103578063bf7e214f146200011a578063e0185487146200012e575b600080fd5b620000926200008c366004620004e8565b62000145565b005b62000092620000a5366004620004e8565b620001cd565b620000cb620000bc366004620004e8565b6001600160a01b03163b151590565b60405190151581526020015b60405180910390f35b600054620000f4906001600160a01b031681565b604051620000d791906200050f565b620000f46200011436600462000523565b6200024e565b600154620000f4906001600160a01b031681565b620000f46200013f36600462000523565b62000346565b6200015d336000356001600160e01b031916620003e7565b620001855760405162461bcd60e51b81526004016200017c9062000552565b60405180910390fd5b600080546001600160a01b0319166001600160a01b038316908117825560405190917f4ffd725fc4a22075e9ec71c59edf9c38cdeb588a91b24fc5b61388c5be41282b91a250565b620001e5336000356001600160e01b031916620003e7565b620002045760405162461bcd60e51b81526004016200017c9062000552565b600180546001600160a01b0319166001600160a01b0383169081179091556040517f2f658b440c35314f52658ea8a740e05b284cdc84dc9ae01e891f21b8933e7cad90600090a250565b60006200033d6001600160f81b03193084620002736001600160a01b038816620004b1565b17604051806020016200028690620004c1565b601f1982820381018352601f909101166040819052620002ab9089906020016200050f565b60408051601f1981840301815290829052620002cb9291602001620005b6565b604051602081830303815290604052805190602001206040516020016200032494939291906001600160f81b031994909416845260609290921b6001600160601b03191660018401526015830152603582015260550190565b6040516020818303038152906040528051906020012090565b90505b92915050565b6000816200035d6001600160a01b038516620004b1565b17836040516200036d90620004c1565b6200037991906200050f565b8190604051809103906000f59050801580156200039a573d6000803e3d6000fd5b50604080516001600160a01b038084168252861660208201529192507f09d75e12e349f79020715b0ea7b2c707e8acf1889b6d6f1337fce7f4e1b9e5c7910160405180910390a192915050565b6001546000906001600160a01b03168015620004985760405163b700961360e01b81526001600160a01b0385811660048301523060248301526001600160e01b03198516604483015282169063b700961390606401602060405180830381865afa92505050801562000478575060408051601f3d908101601f191682019092526200047591810190620005d7565b60015b620004835762000498565b8015620004965760019250505062000340565b505b50506000546001600160a01b0383811691161492915050565b60601b6001600160601b03191690565b6147cc80620005fc83390190565b6001600160a01b0381168114620004e557600080fd5b50565b600060208284031215620004fb57600080fd5b81356200050881620004cf565b9392505050565b6001600160a01b0391909116815260200190565b600080604083850312156200053757600080fd5b82356200054481620004cf565b946020939093013593505050565b6020808252600c908201526b15539055551213d49256915160a21b604082015260600190565b6000815160005b818110156200059b57602081850181015186830152016200057f565b81811115620005ab576000828601525b509290920192915050565b6000620005cf620005c8838662000578565b8462000578565b949350505050565b600060208284031215620005ea57600080fd5b815180151581146200050857600080fdfe6101206040523480156200001257600080fd5b50604051620047cc380380620047cc8339810160408190526200003591620004ec565b336001600160a01b0316638da5cb5b6040518163ffffffff1660e01b8152600401602060405180830381865afa15801562000074573d6000803e3d6000fd5b505050506040513d601f19601f820116820180604052508101906200009a9190620004ec565b336001600160a01b031663bf7e214f6040518163ffffffff1660e01b8152600401602060405180830381865afa158015620000d9573d6000803e3d6000fd5b505050506040513d601f19601f82011682018060405250810190620000ff9190620004ec565b826001600160a01b03166306fdde036040518163ffffffff1660e01b8152600401600060405180830381865afa1580156200013e573d6000803e3d6000fd5b505050506040513d6000823e601f3d908101601f191682016040526200016891908101906200055c565b6040516020016200017a919062000614565b604051602081830303815290604052836001600160a01b03166395d89b416040518163ffffffff1660e01b8152600401600060405180830381865afa158015620001c8573d6000803e3d6000fd5b505050506040513d6000823e601f3d908101601f19168201604052620001f291908101906200055c565b60405160200162000204919062000657565b604051602081830303815290604052846001600160a01b031663313ce5676040518163ffffffff1660e01b8152600401602060405180830381865afa15801562000252573d6000803e3d6000fd5b505050506040513d601f19601f8201168201806040525081019062000278919062000682565b82516200028d9060009060208601906200042d565b508151620002a39060019060208501906200042d565b5060ff81166080524660a052620002b96200037c565b60c0525050600680546001600160a01b038086166001600160a01b0319928316811790935560078054918616919092161790556040519091507f4ffd725fc4a22075e9ec71c59edf9c38cdeb588a91b24fc5b61388c5be41282b90600090a26040516001600160a01b038216907f2f658b440c35314f52658ea8a740e05b284cdc84dc9ae01e891f21b8933e7cad90600090a250506001600160a01b03811660e0526080516200036b90600a620007bc565b6101005250600019600255620008ae565b60007f8b73c3c69bb8fe3d512ecc4cf759cc79239f7b179b0ffacaa9a75d522b39400f6000604051620003b091906200080a565b60408051918290038220828201825260018352603160f81b6020938401528151928301939093528101919091527fc89efdaa54c0f20c7adf612882df0950f5a951637e0307cdcb4c672f298b8bc660608201524660808201523060a082015260c00160405160208183030381529060405280519060200120905090565b8280546200043b90620007cd565b90600052602060002090601f0160209004810192826200045f5760008555620004aa565b82601f106200047a57805160ff1916838001178555620004aa565b82800160010185558215620004aa579182015b82811115620004aa5782518255916020019190600101906200048d565b50620004b8929150620004bc565b5090565b5b80821115620004b85760008155600101620004bd565b6001600160a01b0381168114620004e957600080fd5b50565b600060208284031215620004ff57600080fd5b81516200050c81620004d3565b9392505050565b634e487b7160e01b600052604160045260246000fd5b60005b83811015620005465781810151838201526020016200052c565b8381111562000556576000848401525b50505050565b6000602082840312156200056f57600080fd5b81516001600160401b03808211156200058757600080fd5b818401915084601f8301126200059c57600080fd5b815181811115620005b157620005b162000513565b604051601f8201601f19908116603f01168101908382118183101715620005dc57620005dc62000513565b81604052828152876020848701011115620005f657600080fd5b6200060983602083016020880162000529565b979650505050505050565b6802830b930b9b4ba32960bd1b8152600082516200063a81600985016020870162000529565b650815985d5b1d60d21b6009939091019283015250600f01919050565b600760fc1b8152600082516200067581600185016020870162000529565b9190910160010192915050565b6000602082840312156200069557600080fd5b815160ff811681146200050c57600080fd5b634e487b7160e01b600052601160045260246000fd5b600181815b80851115620006fe578160001904821115620006e257620006e2620006a7565b80851615620006f057918102915b93841c9390800290620006c2565b509250929050565b6000826200071757506001620007b6565b816200072657506000620007b6565b81600181146200073f57600281146200074a576200076a565b6001915050620007b6565b60ff8411156200075e576200075e620006a7565b50506001821b620007b6565b5060208310610133831016604e8410600b84101617156200078f575081810a620007b6565b6200079b8383620006bd565b8060001904821115620007b257620007b2620006a7565b0290505b92915050565b60006200050c60ff84168362000706565b600181811c90821680620007e257607f821691505b602082108114156200080457634e487b7160e01b600052602260045260246000fd5b50919050565b600080835481600182811c9150808316806200082757607f831692505b60208084108214156200084857634e487b7160e01b86526022600452602486fd5b8180156200085f57600181146200087157620008a0565b60ff19861689528489019650620008a0565b60008a81526020902060005b86811015620008985781548b8201529085019083016200087d565b505084890196505b509498975050505050505050565b60805160a05160c05160e05161010051613e776200095560003960008181610373015281816110500152818161126701528181611298015281816112c30152612ba10152600081816108c2015281816110dd015281816117b901528181611d5201528181611e3b015281816120b70152818161216301528181612cba0152818161302501526135700152600061121c015260006111e7015260006104e20152613e776000f3fe6080604052600436106102b65760003560e01c806306fdde03146102c257806307b35d1d146102ed578063095ea7b31461030f5780630e73ecef1461033f5780630e962f001461036157806313af4035146103a357806318160ddd146103c35780631c693478146103d957806320ea2cc3146103ef57806323b872dd1461040f5780632968676e1461042f5780632e1a7d4d1461048e57806330adf81f146104ae578063313ce567146104d057806332ff7732146105165780633644e51514610536578063392e53cd1461054b5780633af9e669146105655780633ba0b9a9146105855780633fd409251461059a578063448f56b9146105ba57806344b81396146105ee57806370a0823114610603578063797ba463146106305780637a9e5e4b146106575780637b72aeb9146106775780637ce3489b146106975780637ecebe00146106b75780637fd6f15c146106e45780638129fc1c146106fa57806383197ef01461070f578063841219e5146107245780638da5cb5b1461073957806395d89b41146107665780639bb5989d1461077b578063a210dbcc1461079b578063a9059cbb146107b0578063ac579b77146107d0578063ac68a748146107f0578063b53d095814610810578063b6b55f2514610830578063bd662f8814610850578063bdf06c8e14610870578063bf7e214f14610890578063c5d664c6146108b0578063c62e20c3146108e4578063c822adda14610904578063c866983b14610924578063c89d346014610944578063d00364be14610964578063d183ce1e14610998578063d505accf146109b8578063db006a75146109d8578063dd62ed3e146109f8578063e9ec2e9914610a30578063ec523afd14610a45578063ecad956514610a65578063eed74e6714610a7b578063f1a392da14610a9b578063f84d73f414610ac2578063f97d2ed714610adc57600080fd5b366102bd57005b600080fd5b3480156102ce57600080fd5b506102d7610afc565b6040516102e4919061366f565b60405180910390f35b3480156102f957600080fd5b5061030d6103083660046136c4565b610b8a565b005b34801561031b57600080fd5b5061032f61032a366004613702565b610c7a565b60405190151581526020016102e4565b34801561034b57600080fd5b50610354610cd5565b6040516102e4919061372e565b34801561036d57600080fd5b506103957f000000000000000000000000000000000000000000000000000000000000000081565b6040519081526020016102e4565b3480156103af57600080fd5b5061030d6103be36600461377b565b610d37565b3480156103cf57600080fd5b5061039560025481565b3480156103e557600080fd5b50610395600a5481565b3480156103fb57600080fd5b5061030d61040a36600461377b565b610db3565b34801561041b57600080fd5b5061032f61042a366004613798565b610f38565b34801561043b57600080fd5b5061046f61044a36600461377b565b600d6020526000908152604090205460ff81169061010090046001600160f81b031682565b6040805192151583526001600160f81b039091166020830152016102e4565b34801561049a57600080fd5b5061030d6104a93660046137d9565b611020565b3480156104ba57600080fd5b50610395600080516020613e0283398151915281565b3480156104dc57600080fd5b506105047f000000000000000000000000000000000000000000000000000000000000000081565b60405160ff90911681526020016102e4565b34801561052257600080fd5b5061030d610531366004613800565b6110a9565b34801561054257600080fd5b506103956111e3565b34801561055757600080fd5b5060105461032f9060ff1681565b34801561057157600080fd5b5061039561058036600461377b565b61123e565b34801561059157600080fd5b5061039561128b565b3480156105a657600080fd5b5061030d6105b536600461377b565b6112f7565b3480156105c657600080fd5b506009546105e190600160801b90046001600160401b031681565b6040516102e4919061381d565b3480156105fa57600080fd5b506103956113a4565b34801561060f57600080fd5b5061039561061e36600461377b565b60036020526000908152604090205481565b34801561063c57600080fd5b506009546105e190600160c01b90046001600160401b031681565b34801561066357600080fd5b5061030d61067236600461377b565b61140b565b34801561068357600080fd5b5061030d610692366004613831565b611487565b3480156106a357600080fd5b5061030d6106b23660046137d9565b611601565b3480156106c357600080fd5b506103956106d236600461377b565b60056020526000908152604090205481565b3480156106f057600080fd5b5061039560085481565b34801561070657600080fd5b5061030d6116b1565b34801561071b57600080fd5b5061030d61176a565b34801561073057600080fd5b5061039561179f565b34801561074557600080fd5b50600654610759906001600160a01b031681565b6040516102e4919061385a565b34801561077257600080fd5b506102d761182f565b34801561078757600080fd5b5061030d61079636600461386e565b61183c565b3480156107a757600080fd5b5061030d611918565b3480156107bc57600080fd5b5061032f6107cb366004613702565b6119e3565b3480156107dc57600080fd5b5061030d6107eb36600461389e565b611a49565b3480156107fc57600080fd5b5061030d61080b3660046137d9565b611acf565b34801561081c57600080fd5b5061030d61082b366004613702565b611b41565b34801561083c57600080fd5b5061030d61084b3660046137d9565b611dc8565b34801561085c57600080fd5b5061030d61086b3660046137d9565b611e63565b34801561087c57600080fd5b5061030d61088b366004613702565b611f18565b34801561089c57600080fd5b50600754610759906001600160a01b031681565b3480156108bc57600080fd5b506107597f000000000000000000000000000000000000000000000000000000000000000081565b3480156108f057600080fd5b5061030d6108ff3660046137d9565b612230565b34801561091057600080fd5b5061075961091f3660046137d9565b612387565b34801561093057600080fd5b5061030d61093f36600461377b565b6123b1565b34801561095057600080fd5b5061030d61095f36600461389e565b61242d565b34801561097057600080fd5b50600e5461098b90600160801b90046001600160801b031681565b6040516102e49190613912565b3480156109a457600080fd5b5061030d6109b3366004613926565b6127f0565b3480156109c457600080fd5b5061030d6109d3366004613957565b612942565b3480156109e457600080fd5b5061030d6109f33660046137d9565b612b73565b348015610a0457600080fd5b50610395610a133660046139c8565b600460209081526000928352604080842090915290825290205481565b348015610a3c57600080fd5b50610395612bfe565b348015610a5157600080fd5b5061030d610a6036600461377b565b612c20565b348015610a7157600080fd5b50610395600c5481565b348015610a8757600080fd5b50600e546105e1906001600160401b031681565b348015610aa757600080fd5b50600e546105e190600160401b90046001600160401b031681565b348015610ace57600080fd5b50600b5461032f9060ff1681565b348015610ae857600080fd5b5060095461098b906001600160801b031681565b60008054610b09906139f6565b80601f0160208091040260200160405190810160405280929190818152602001828054610b35906139f6565b8015610b825780601f10610b5757610100808354040283529160200191610b82565b820191906000526020600020905b815481529060010190602001808311610b6557829003601f168201915b505050505081565b610ba0336000356001600160e01b031916612de6565b610bc55760405162461bcd60e51b8152600401610bbc90613a31565b60405180910390fd5b600954600160801b90046001600160401b03166001600160801b0382161115610c225760405162461bcd60e51b815260206004820152600f60248201526e57494e444f575f544f4f5f4c4f4e4760881b6044820152606401610bbc565b600980546001600160801b0319166001600160801b03831617905560405133907ff61ebd3c01f656aba479c738a8744215d6f1ec2c19169500f3bff0a9d8374ce190610c6f908490613912565b60405180910390a250565b3360008181526004602090815260408083206001600160a01b03871680855292528083208590555191929091600080516020613e2283398151915290610cc39086815260200190565b60405180910390a35060015b92915050565b6060600f805480602002602001604051908101604052809291908181526020018280548015610d2d57602002820191906000526020600020905b81546001600160a01b03168152600190910190602001808311610d0f575b5050505050905090565b610d4d336000356001600160e01b031916612de6565b610d695760405162461bcd60e51b8152600401610bbc90613a31565b600680546001600160a01b0319166001600160a01b0383169081179091556040517f4ffd725fc4a22075e9ec71c59edf9c38cdeb588a91b24fc5b61388c5be41282b90600090a250565b610dc9336000356001600160e01b031916612de6565b610de55760405162461bcd60e51b8152600401610bbc90613a31565b6001600160a01b0381166000908152600d602052604090205460ff16610e1d5760405162461bcd60e51b8152600401610bbc90613a57565b6001600160a01b0381166000908152600d602052604090205461010090046001600160f81b0316610e4c612bfe565b811115610e6357600e80546001600160801b031690555b6001600160a01b0382166000818152600d6020526040808220805460ff169055600c805485900390555133917fe5211b194c7994bf5eba21ddab25713549e67c4c84028d2f28c1377195de0fb991a3610f3433836001600160a01b03166370a08231306040518263ffffffff1660e01b8152600401610ee2919061385a565b602060405180830381865afa158015610eff573d6000803e3d6000fd5b505050506040513d601f19601f82011682018060405250810190610f239190613a83565b6001600160a01b0385169190612ea8565b5050565b6001600160a01b038316600090815260046020908152604080832033845290915281205460001914610f9d576001600160a01b038416600090815260046020908152604080832033845290915281208054849290610f97908490613ab2565b90915550505b6001600160a01b03841660009081526003602052604081208054849290610fc5908490613ab2565b90915550506001600160a01b0380841660008181526003602052604090819020805486019055519091861690600080516020613de28339815191529061100e9086815260200190565b60405180910390a35060019392505050565b8061103d5760405162461bcd60e51b8152600401610bbc90613ac9565b6110793361107461104c61128b565b84907f0000000000000000000000000000000000000000000000000000000000000000612f27565b612f4a565b6040518181523390600080516020613d828339815191529060200160405180910390a26110a63382612fb4565b50565b6110bf336000356001600160e01b031916612de6565b6110db5760405162461bcd60e51b8152600401610bbc90613a31565b7f00000000000000000000000000000000000000000000000000000000000000006001600160a01b031663313ce5676040518163ffffffff1660e01b8152600401602060405180830381865afa158015611139573d6000803e3d6000fd5b505050506040513d601f19601f8201168201806040525081019061115d9190613af8565b60ff166012146111a05760405162461bcd60e51b815260206004820152600e60248201526d57524f4e475f444543494d414c5360901b6044820152606401610bbc565b600b805460ff191682151590811790915560405190815233907f6375b140d4463d47b864f1f47e5d2893cc3478e73aedcc268b054fab0230a84190602001610c6f565b60007f0000000000000000000000000000000000000000000000000000000000000000461461121957611214613051565b905090565b507f000000000000000000000000000000000000000000000000000000000000000090565b6000610ccf61124b61128b565b6001600160a01b038416600090815260036020526040902054907f0000000000000000000000000000000000000000000000000000000000000000613100565b600254600090806112bd577f000000000000000000000000000000000000000000000000000000000000000091505090565b6112f1817f00000000000000000000000000000000000000000000000000000000000000006112ea612bfe565b9190612f27565b91505090565b61130d336000356001600160e01b031916612de6565b6113295760405162461bcd60e51b8152600401610bbc90613a31565b600f805460018101825560009182527f8d1108e10bcb7c27dddfc02ed9d693a074039d026cf4ea4240b40f7d581ac8020180546001600160a01b0319166001600160a01b038416908117909155604051909133917fd3c85e764bd8fe5c02e811c9538a4d50d8ffff22143526e00197d3cd0d11178a9190a350565b600e546009546000916001600160401b03600160401b909104811691600160801b90041680820142106113da5760009250505090565b600e54600160801b90046001600160801b0316814284900382028161140157611401613b15565b0490039392505050565b611421336000356001600160e01b031916612de6565b61143d5760405162461bcd60e51b8152600401610bbc90613a31565b600780546001600160a01b0319166001600160a01b0383169081179091556040517f2f658b440c35314f52658ea8a740e05b284cdc84dc9ae01e891f21b8933e7cad90600090a250565b61149d336000356001600160e01b031916612de6565b6114b95760405162461bcd60e51b8152600401610bbc90613a31565b6001600160401b0381166115065760405162461bcd60e51b815260206004820152601460248201527344454c41595f43414e4e4f545f42455f5a45524f60601b6044820152606401610bbc565b6301e13380816001600160401b031611156115545760405162461bcd60e51b815260206004820152600e60248201526d44454c41595f544f4f5f4c4f4e4760901b6044820152606401610bbc565b600954600160801b90046001600160401b03166115af5760098054600160801b600160c01b031916600160801b6001600160401b038416021790556040513390600080516020613d6283398151915290610c6f90849061381d565b600980546001600160c01b0316600160c01b6001600160401b0384160217905560405133907f342b344c0ac2ffff8f84b1d82d8235a2401a0accf4666f1fec4a1c3cdf1d29e790610c6f90849061381d565b611617336000356001600160e01b031916612de6565b6116335760405162461bcd60e51b8152600401610bbc90613a31565b670de0b6b3a764000081111561167a5760405162461bcd60e51b815260206004820152600c60248201526b08c8a8abea89e9ebe90928e960a31b6044820152606401610bbc565b600881905560405181815233907fec370615cc81fb334e5566fbc80664d9082377bf59288d64a79f3fbecf4323a990602001610c6f565b6116c7336000356001600160e01b031916612de6565b6116e35760405162461bcd60e51b8152600401610bbc90613a31565b60105460ff161561172c5760405162461bcd60e51b81526020600482015260136024820152721053149150511657d253925512505312569151606a1b6044820152606401610bbc565b6010805460ff191660011790556000600281905560405133917f908408e307fc569b417f6cbec5d5a06f44a0a505ac0479b47d421a4b2fd6a1e691a2565b611780336000356001600160e01b031916612de6565b61179c5760405162461bcd60e51b8152600401610bbc90613a31565b33ff5b6040516370a0823160e01b81526000906001600160a01b037f000000000000000000000000000000000000000000000000000000000000000016906370a08231906117ee90309060040161385a565b602060405180830381865afa15801561180b573d6000803e3d6000fd5b505050506040513d601f19601f820116820180604052508101906112149190613a83565b60018054610b09906139f6565b611852336000356001600160e01b031916612de6565b61186e5760405162461bcd60e51b8152600401610bbc90613a31565b6000600f838154811061188357611883613b2b565b600091825260209091200154600f80546001600160a01b0390921692508391859081106118b2576118b2613b2b565b60009182526020918290200180546001600160a01b0319166001600160a01b039384161790556040518581528483169284169133917f4a0a125a0f77451ab4de43b53c0a93266c6e542ceaa7ae0067e4ba66b4ce3a2d91015b60405180910390a4505050565b61192e336000356001600160e01b031916612de6565b61194a5760405162461bcd60e51b8152600401610bbc90613a31565b600f80546000919061195e90600190613ab2565b8154811061196e5761196e613b2b565b600091825260209091200154600f80546001600160a01b039092169250908061199957611999613b41565b600082815260208120820160001990810180546001600160a01b03191690559091019091556040516001600160a01b038316913391600080516020613da28339815191529190a350565b33600090815260036020526040812080548391908390611a04908490613ab2565b90915550506001600160a01b03831660008181526003602052604090819020805485019055513390600080516020613de283398151915290610cc39086815260200190565b611a5f336000356001600160e01b031916612de6565b611a7b5760405162461bcd60e51b8152600401610bbc90613a31565b611a87600f8383613600565b50336001600160a01b03167f93fc2f83177365343f59862c6a290117bb3036bca4db453f92d1c6e9163f53848383604051611ac3929190613b57565b60405180910390a25050565b611ae5336000356001600160e01b031916612de6565b611b015760405162461bcd60e51b8152600401610bbc90613a31565b60405181815233907f9493e5bbe4e8e0ac67284469a2d677403d0378a85a59e341d3abc433d0d9a2099060200160405180910390a26110a6303383612ea8565b611b57336000356001600160e01b031916612de6565b611b735760405162461bcd60e51b8152600401610bbc90613a31565b6001600160a01b0382166000908152600d602052604090205460ff16611bab5760405162461bcd60e51b8152600401610bbc90613a57565b80611bc85760405162461bcd60e51b8152600401610bbc90613ac9565b611bd18161311b565b6001600160a01b0383166000908152600d602052604090208054600190611c0790849061010090046001600160f81b0316613ba5565b82546001600160f81b039182166101009390930a928302919092021990911617905550600c805482900390556040518181526001600160a01b038316903390600080516020613dc28339815191529060200160405180910390a360405163852a12e360e01b8152600481018290526001600160a01b0383169063852a12e3906024016020604051808303816000875af1158015611ca8573d6000803e3d6000fd5b505050506040513d601f19601f82011682018060405250810190611ccc9190613a83565b15611ce95760405162461bcd60e51b8152600401610bbc90613bcd565b816001600160a01b031663ac784ddc6040518163ffffffff1660e01b8152600401602060405180830381865afa158015611d27573d6000803e3d6000fd5b505050506040513d601f19601f82011682018060405250810190611d4b9190613bf4565b15610f34577f00000000000000000000000000000000000000000000000000000000000000006001600160a01b031663d0e30db0826040518263ffffffff1660e01b81526004016000604051808303818588803b158015611dab57600080fd5b505af1158015611dbf573d6000803e3d6000fd5b50505050505050565b80611de55760405162461bcd60e51b8152600401610bbc90613ac9565b611df933611df461104c61128b565b613135565b60405181815233907fe1fffcc4923d04b559f4d29a8bfc6cda04eb5b0d3c460751c2402c5c5cc9109c9060200160405180910390a26110a66001600160a01b037f000000000000000000000000000000000000000000000000000000000000000016333084613187565b611e79336000356001600160e01b031916612de6565b611e955760405162461bcd60e51b8152600401610bbc90613a31565b670de0b6b3a7640000600a541115611ee15760405162461bcd60e51b815260206004820152600f60248201526e0a882a48e8aa8bea89e9ebe90928e9608b1b6044820152606401610bbc565b600a81905560405181815233907f95bc4480b51f4860106d42850bcae222cf3303fb2b7d433e896205e0ebefe36990602001610c6f565b611f2e336000356001600160e01b031916612de6565b611f4a5760405162461bcd60e51b8152600401610bbc90613a31565b6001600160a01b0382166000908152600d602052604090205460ff16611f825760405162461bcd60e51b8152600401610bbc90613a57565b80611f9f5760405162461bcd60e51b8152600401610bbc90613ac9565b80600c6000828254611fb19190613c11565b90915550611fc090508161311b565b6001600160a01b0383166000818152600d60205260409081902080546001600160f81b0361010080830482169096011690940260ff90941693909317909255905133907f49e9138fe0dacf001ea634236e38aa8bd229efd55ec4d7975228d679db6ce8f9906120329085815260200190565b60405180910390a3816001600160a01b031663ac784ddc6040518163ffffffff1660e01b8152600401602060405180830381865afa158015612078573d6000803e3d6000fd5b505050506040513d601f19601f8201168201806040525081019061209c9190613bf4565b1561215657604051632e1a7d4d60e01b8152600481018290527f00000000000000000000000000000000000000000000000000000000000000006001600160a01b031690632e1a7d4d90602401600060405180830381600087803b15801561210357600080fd5b505af1158015612117573d6000803e3d6000fd5b50505050816001600160a01b0316631249c58b826040518263ffffffff1660e01b81526004016000604051808303818588803b158015611dab57600080fd5b61218a6001600160a01b037f000000000000000000000000000000000000000000000000000000000000000016838361321b565b60405163140e25ad60e31b8152600481018290526001600160a01b0383169063a0712d68906024016020604051808303816000875af11580156121d1573d6000803e3d6000fd5b505050506040513d601f19601f820116820180604052508101906121f59190613a83565b15610f345760405162461bcd60e51b815260206004820152600b60248201526a1352539517d1905253115160aa1b6044820152606401610bbc565b612246336000356001600160e01b031916612de6565b6122625760405162461bcd60e51b8152600401610bbc90613a31565b600f80546000919061227690600190613ab2565b8154811061228657612286613b2b565b6000918252602082200154600f80546001600160a01b03909216935090849081106122b3576122b3613b2b565b600091825260209091200154600f80546001600160a01b0390921692508391859081106122e2576122e2613b2b565b9060005260206000200160006101000a8154816001600160a01b0302191690836001600160a01b03160217905550600f80548061232157612321613b41565b600082815260209020810160001990810180546001600160a01b03191690550190556040516001600160a01b03838116919083169033907f53bddc0ebb11647d046bd37b2965cd6d82f69c263b0b100658daad9ae79f41d89061190b9088815260200190565b600f818154811061239757600080fd5b6000918252602090912001546001600160a01b0316905081565b6123c7336000356001600160e01b031916612de6565b6123e35760405162461bcd60e51b8152600401610bbc90613a31565b6001600160a01b0381166000818152600d6020526040808220805460ff191690555133917fff8fe190f3935e9e8681ce444b08be824a6be3e5184465ddbd710cc4f1a9f2f291a350565b612443336000356001600160e01b031916612de6565b61245f5760405162461bcd60e51b8152600401610bbc90613a31565b600954600e54612489916001600160401b03600160801b909104811691600160401b900416613c29565b6001600160401b031642106124b857600e80546001600160401b031916426001600160401b0316179055612525565b600954600e546124da916001600160801b0316906001600160401b0316613c54565b6001600160801b03164211156125255760405162461bcd60e51b815260206004820152601060248201526f4241445f484152564553545f54494d4560801b6044820152606401610bbc565b600c54600081815b848110156126aa57600086868381811061254957612549613b2b565b905060200201602081019061255e919061377b565b6001600160a01b0381166000908152600d602052604090205490915060ff166125995760405162461bcd60e51b8152600401610bbc90613a57565b6001600160a01b0381166000818152600d6020526040808220549051633af9e66960e01b81526101009091046001600160f81b03169290633af9e669906125e490309060040161385a565b6020604051808303816000875af1158015612603573d6000803e3d6000fd5b505050506040513d601f19601f820116820180604052508101906126279190613a83565b90506126328161311b565b6001600160a01b0384166000908152600d6020526040902080546001600160f81b03929092166101000260ff909216919091179055816126728287613c11565b61267c9190613ab2565b945081811161268c576000612690565b8181035b8601955050505080806126a290613c76565b91505061252d565b506008546000906126c5908490670de0b6b3a7640000613100565b90506126d630611df461104c61128b565b6126fc81846126e36113a4565b6126ed9190613c11565b6126f79190613ab2565b613293565b600e8054600c8590556001600160401b03428116600160401b02600160401b600160801b03196001600160801b0395909516600160801b029490941691161791909117905560405133907f69e9c71f6799744a94d9897e77c3ed426cc2f92ba0ef3300785368209b6f4b2d906127759089908990613b57565b60405180910390a2600954600160c01b90046001600160401b03168015611dbf57600980546001600160801b0316600160801b6001600160401b038416026001600160c01b03161790556040513390600080516020613d62833981519152906127df90849061381d565b60405180910390a250505050505050565b612806336000356001600160e01b031916612de6565b6128225760405162461bcd60e51b8152600401610bbc90613a31565b6000600f838154811061283757612837613b2b565b6000918252602082200154600f80546001600160a01b039092169350908490811061286457612864613b2b565b600091825260209091200154600f80546001600160a01b03909216925082918690811061289357612893613b2b565b9060005260206000200160006101000a8154816001600160a01b0302191690836001600160a01b0316021790555081600f84815481106128d5576128d5613b2b565b60009182526020918290200180546001600160a01b0319166001600160a01b03938416179055604080518781529182018690528483169284169133917f86d0d8ebf0f4d918d7d5ea876055270042ae67e3ba4af1023531eaf10045b6da910160405180910390a450505050565b4284101561298c5760405162461bcd60e51b815260206004820152601760248201527614115493525517d11150511312539157d1561412549151604a1b6044820152606401610bbc565b60006129966111e3565b6001600160a01b038981166000818152600560209081526040918290208054600181019091558251600080516020613e028339815191528184015280840194909452938c166060840152608083018b905260a083019390935260c08083018a90528151808403909101815260e08301909152805192019190912061190160f01b6101008301526101028201929092526101228101919091526101420160408051601f198184030181528282528051602091820120600080855291840180845281905260ff88169284019290925260608301869052608083018590529092509060019060a0016020604051602081039080840390855afa158015612a9d573d6000803e3d6000fd5b5050604051601f1901519150506001600160a01b03811615801590612ad35750886001600160a01b0316816001600160a01b0316145b612b1a5760405162461bcd60e51b8152602060048201526018602482015277494e56414c49445f5045524d49545f5349474e415455524560401b6044820152606401610bbc565b6001600160a01b0390811660009081526004602090815260408083208b8516808552908352928190208a905551898152919350918a1691600080516020613e22833981519152910160405180910390a350505050505050565b80612b905760405162461bcd60e51b8152600401610bbc90613ac9565b6000612bc5612b9d61128b565b83907f0000000000000000000000000000000000000000000000000000000000000000613100565b9050612bd13383612f4a565b6040518181523390600080516020613d828339815191529060200160405180910390a2610f343382612fb4565b6000612c086113a4565b600c54039050612c1661179f565b6112149082613c11565b612c36336000356001600160e01b031916612de6565b612c525760405162461bcd60e51b8152600401610bbc90613a31565b806001600160a01b031663ac784ddc6040518163ffffffff1660e01b8152600401602060405180830381865afa158015612c90573d6000803e3d6000fd5b505050506040513d601f19601f82011682018060405250810190612cb49190613bf4565b612d53577f00000000000000000000000000000000000000000000000000000000000000006001600160a01b0316816001600160a01b0316636f307dc36040518163ffffffff1660e01b8152600401602060405180830381865afa158015612d20573d6000803e3d6000fd5b505050506040513d601f19601f82011682018060405250810190612d449190613c91565b6001600160a01b031614612d5a565b600b5460ff165b612d995760405162461bcd60e51b815260206004820152601060248201526f57524f4e475f554e4445524c59494e4760801b6044820152606401610bbc565b6001600160a01b0381166000818152600d6020526040808220805460ff191660011790555133917f2fc1f5b589e399a463bf89605c1539bdd9878a9a3acd089abeca7a15e1fbe6ec91a350565b6007546000906001600160a01b03168015612e8f5760405163b700961360e01b81526001600160a01b0385811660048301523060248301526001600160e01b03198516604483015282169063b700961390606401602060405180830381865afa925050508015612e73575060408051601f3d908101601f19168201909252612e7091810190613bf4565b60015b612e7c57612e8f565b8015612e8d57600192505050610ccf565b505b50506006546001600160a01b0383811691161492915050565b600060405163a9059cbb60e01b81526001600160a01b03841660048201528260248201526000806044836000895af1915050612ee3816132a9565b612f215760405162461bcd60e51b815260206004820152600f60248201526e1514905394d1915497d19052531151608a1b6044820152606401610bbc565b50505050565b82810282158415858304841417151715612f4057600080fd5b9190910492915050565b6001600160a01b03821660009081526003602052604081208054839290612f72908490613ab2565b90915550506002805482900390556040518181526000906001600160a01b03841690600080516020613de2833981519152906020015b60405180910390a35050565b6000612fbe61179f565b905080821115613018576000612ff3600a54670de0b6b3a764000085612fe2612bfe565b612fec9190613ab2565b9190613100565b905060006130018385613ab2565b90506130156130108383613c11565b6132f0565b50505b61304c6001600160a01b037f0000000000000000000000000000000000000000000000000000000000000000168484612ea8565b505050565b60007f8b73c3c69bb8fe3d512ecc4cf759cc79239f7b179b0ffacaa9a75d522b39400f60006040516130839190613cae565b60408051918290038220828201825260018352603160f81b6020938401528151928301939093528101919091527fc89efdaa54c0f20c7adf612882df0950f5a951637e0307cdcb4c672f298b8bc660608201524660808201523060a082015260c00160405160208183030381529060405280519060200120905090565b828202831584820484141761311457600080fd5b0492915050565b60006001600160f81b0382111561313157600080fd5b5090565b80600260008282546131479190613c11565b90915550506001600160a01b038216600081815260036020908152604080832080548601905551848152600080516020613de28339815191529101612fa8565b60006040516323b872dd60e01b81526001600160a01b03851660048201526001600160a01b038416602482015282604482015260008060648360008a5af19150506131d1816132a9565b6132145760405162461bcd60e51b81526020600482015260146024820152731514905394d1915497d19493d357d1905253115160621b6044820152606401610bbc565b5050505050565b600060405163095ea7b360e01b81526001600160a01b03841660048201528260248201526000806044836000895af1915050613256816132a9565b612f215760405162461bcd60e51b815260206004820152600e60248201526d1054141493d59157d1905253115160921b6044820152606401610bbc565b60006001600160801b0382111561313157600080fd5b60003d826132bb57806000803e806000fd5b80602081146132d35780156132e457600092506132e9565b816000803e600051151592506132e9565b600192505b5050919050565b600f54819060009061330490600190613ab2565b90505b6000600f828154811061331c5761331c613b2b565b60009182526020808320909101546001600160a01b0316808352600d9091526040909120549091506001600160f81b036101008204169060ff161580613360575080155b156133c457600f80548061337657613376613b41565b600082815260208120820160001990810180546001600160a01b03191690559091019091556040516001600160a01b038416913391600080516020613da28339815191529190a3505061353c565b60006133d085836135e8565b90508082036133de8161311b565b6001600160a01b0385166000818152600d60205260409081902080546001600160f81b03949094166101000260ff90941693909317909255905196839003963390600080516020613dc28339815191529061343c9086815260200190565b60405180910390a360405163852a12e360e01b8152600481018390526001600160a01b0385169063852a12e3906024016020604051808303816000875af115801561348b573d6000803e3d6000fd5b505050506040513d601f19601f820116820180604052508101906134af9190613a83565b156134cc5760405162461bcd60e51b8152600401610bbc90613bcd565b8061352a57600f8054806134e2576134e2613b41565b600082815260208120820160001990810180546001600160a01b03191690559091019091556040516001600160a01b038616913391600080516020613da28339815191529190a35b50846135385750505061354e565b5050505b8061354681613d4a565b915050613307565b600c805484900390554780158015906135695750600b5460ff165b15612f21577f00000000000000000000000000000000000000000000000000000000000000006001600160a01b031663d0e30db0826040518263ffffffff1660e01b81526004016000604051808303818588803b1580156135c957600080fd5b505af11580156135dd573d6000803e3d6000fd5b505050505050505050565b60008183106135f757816135f9565b825b9392505050565b828054828255906000526020600020908101928215613653579160200282015b828111156136535781546001600160a01b0319166001600160a01b03843516178255602090920191600190910190613620565b506131319291505b80821115613131576000815560010161365b565b600060208083528351808285015260005b8181101561369c57858101830151858201604001528201613680565b818111156136ae576000604083870101525b50601f01601f1916929092016040019392505050565b6000602082840312156136d657600080fd5b81356001600160801b03811681146135f957600080fd5b6001600160a01b03811681146110a657600080fd5b6000806040838503121561371557600080fd5b8235613720816136ed565b946020939093013593505050565b6020808252825182820181905260009190848201906040850190845b8181101561376f5783516001600160a01b03168352928401929184019160010161374a565b50909695505050505050565b60006020828403121561378d57600080fd5b81356135f9816136ed565b6000806000606084860312156137ad57600080fd5b83356137b8816136ed565b925060208401356137c8816136ed565b929592945050506040919091013590565b6000602082840312156137eb57600080fd5b5035919050565b80151581146110a657600080fd5b60006020828403121561381257600080fd5b81356135f9816137f2565b6001600160401b0391909116815260200190565b60006020828403121561384357600080fd5b81356001600160401b03811681146135f957600080fd5b6001600160a01b0391909116815260200190565b6000806040838503121561388157600080fd5b823591506020830135613893816136ed565b809150509250929050565b600080602083850312156138b157600080fd5b82356001600160401b03808211156138c857600080fd5b818501915085601f8301126138dc57600080fd5b8135818111156138eb57600080fd5b8660208260051b850101111561390057600080fd5b60209290920196919550909350505050565b6001600160801b0391909116815260200190565b6000806040838503121561393957600080fd5b50508035926020909101359150565b60ff811681146110a657600080fd5b600080600080600080600060e0888a03121561397257600080fd5b873561397d816136ed565b9650602088013561398d816136ed565b9550604088013594506060880135935060808801356139ab81613948565b9699959850939692959460a0840135945060c09093013592915050565b600080604083850312156139db57600080fd5b82356139e6816136ed565b91506020830135613893816136ed565b600181811c90821680613a0a57607f821691505b60208210811415613a2b57634e487b7160e01b600052602260045260246000fd5b50919050565b6020808252600c908201526b15539055551213d49256915160a21b604082015260600190565b602080825260129082015271554e545255535445445f535452415445475960701b604082015260600190565b600060208284031215613a9557600080fd5b5051919050565b634e487b7160e01b600052601160045260246000fd5b600082821015613ac457613ac4613a9c565b500390565b602080825260159082015274414d4f554e545f43414e4e4f545f42455f5a45524f60581b604082015260600190565b600060208284031215613b0a57600080fd5b81516135f981613948565b634e487b7160e01b600052601260045260246000fd5b634e487b7160e01b600052603260045260246000fd5b634e487b7160e01b600052603160045260246000fd5b60208082528181018390526000908460408401835b86811015613b9a578235613b7f816136ed565b6001600160a01b031682529183019190830190600101613b6c565b509695505050505050565b60006001600160f81b0383811690831681811015613bc557613bc5613a9c565b039392505050565b6020808252600d908201526c14915111515357d19052531151609a1b604082015260600190565b600060208284031215613c0657600080fd5b81516135f9816137f2565b60008219821115613c2457613c24613a9c565b500190565b60006001600160401b03828116848216808303821115613c4b57613c4b613a9c565b01949350505050565b60006001600160801b03828116848216808303821115613c4b57613c4b613a9c565b6000600019821415613c8a57613c8a613a9c565b5060010190565b600060208284031215613ca357600080fd5b81516135f9816136ed565b600080835481600182811c915080831680613cca57607f831692505b6020808410821415613cea57634e487b7160e01b86526022600452602486fd5b818015613cfe5760018114613d0f57613d3c565b60ff19861689528489019650613d3c565b60008a81526020902060005b86811015613d345781548b820152908501908301613d1b565b505084890196505b509498975050505050505050565b600081613d5957613d59613a9c565b50600019019056fee893fa207c5a5094cad036347b877c23ebecd9df94ae0426f287040c13220b3f884edad9ce6fa2440d8a54cc123490eb96d2768479d49ff9c7366125a942436457075a8110ddb2863422424e354eb417b3b58b5ebce466afa64f3d894154507e8d851b682e239b1de720e92e5c5cffdb72d353104cc63dc6ed144d7080217fbeddf252ad1be2c89b69c2b068fc378daa952ba7f163c4a11628f55a4df523b3ef6e71edae12b1b97f4d1f60370fef10105fa2faae0126114a169c64845d6126c98c5be1e5ebec7d5bd14f71427d1e84f3dd0314c0f7b2291e5b200ac8c7c3b925a264697066735822122042a7deba28b061fb75eaa8f9caf203476a792d54db6b9b8eba96bdfd2898289a64736f6c634300080a0033a26469706673582212209c8b3619fdc07d423061df6325e2e13cfe852f20b07043ed5388c155583b092764736f6c634300080a0033",
  "devdoc": {
    "author": "Transmissions11 and JetJadeja",
    "events": {
      "VaultDeployed(address,address)": {
        "params": {
          "underlying": "The underlying token the new Vault accepts.",
          "vault": "The newly deployed Vault contract."
        }
      }
    },
    "kind": "dev",
    "methods": {
      "constructor": {
        "params": {
          "_authority": "The Authority of the factory.",
          "_owner": "The owner of the factory."
        }
      },
      "deployVault(address,uint256)": {
        "details": "This will revert if a Vault that accepts the same underlying token has already been deployed.",
        "params": {
          "id": "We may have different vaults w different credit ratings for the same asset",
          "underlying": "The ERC20 token that the Vault should accept."
        },
        "returns": {
          "vault": "The newly deployed Vault contract which accepts the provided underlying token."
        }
      },
      "getVaultFromUnderlying(address,uint256)": {
        "details": "The Vault returned may not be deployed yet. Use isVaultDeployed to check.",
        "params": {
          "id": "We may have different vaults w different credit ratings for the same asset",
          "underlying": "The ERC20 token that the Vault should accept."
        },
        "returns": {
          "_0": "The address of a Vault which accepts the provided underlying token."
        }
      },
      "isVaultDeployed(address)": {
        "details": "This function is useful to check the return values of getVaultFromUnderlying, as it does not check that the Vault addresses it computes have been deployed yet.",
        "params": {
          "vault": "The address of a Vault which may not have been deployed yet."
        },
        "returns": {
          "_0": "A boolean indicating whether the Vault has been deployed already."
        }
      }
    },
    "title": "Rari Vault Factory",
    "version": 1
  },
  "userdoc": {
    "events": {
      "VaultDeployed(address,address)": {
        "notice": "Emitted when a new Vault is deployed."
      }
    },
    "kind": "user",
    "methods": {
      "constructor": {
        "notice": "Creates a Vault factory."
      },
      "deployVault(address,uint256)": {
        "notice": "Deploys a new Vault which supports a specific underlying token."
      },
      "getVaultFromUnderlying(address,uint256)": {
        "notice": "Computes a Vault's address from its accepted underlying token."
      },
      "isVaultDeployed(address)": {
        "notice": "Returns if a Vault at an address has already been deployed."
      }
    },
    "notice": "Factory which enables deploying a Vault for any ERC20 token.",
    "version": 1
  },
  "storageLayout": {
    "storage": [
      {
        "astId": 9760,
        "contract": "src/vault/VaultFactory.sol:VaultFactory",
        "label": "owner",
        "offset": 0,
        "slot": "0",
        "type": "t_address"
      },
      {
        "astId": 9763,
        "contract": "src/vault/VaultFactory.sol:VaultFactory",
        "label": "authority",
        "offset": 0,
        "slot": "1",
        "type": "t_contract(Authority)9748"
      }
    ],
    "types": {
      "t_address": {
        "encoding": "inplace",
        "label": "address",
        "numberOfBytes": "20"
      },
      "t_contract(Authority)9748": {
        "encoding": "inplace",
        "label": "contract Authority",
        "numberOfBytes": "20"
      }
    }
  }
}