{
  "address": "0x96b6A3e2048Db602Ffd71E5A2c7351673A77e1f6",
  "abi": [
    {
      "inputs": [],
      "stateMutability": "nonpayable",
      "type": "constructor"
    },
    {
      "anonymous": false,
      "inputs": [
        {
          "indexed": true,
          "internalType": "address",
          "name": "account",
          "type": "address"
        },
        {
          "indexed": false,
          "internalType": "bool",
          "name": "isManager",
          "type": "bool"
        }
      ],
      "name": "AllowedUpdate",
      "type": "event"
    },
    {
      "anonymous": false,
      "inputs": [
        {
          "indexed": true,
          "internalType": "address",
          "name": "owner",
          "type": "address"
        },
        {
          "indexed": true,
          "internalType": "address",
          "name": "spender",
          "type": "address"
        },
        {
          "indexed": false,
          "internalType": "uint256",
          "name": "value",
          "type": "uint256"
        }
      ],
      "name": "Approval",
      "type": "event"
    },
    {
      "anonymous": false,
      "inputs": [
        {
          "indexed": true,
          "internalType": "address",
          "name": "user",
          "type": "address"
        },
        {
          "indexed": false,
          "internalType": "uint256",
          "name": "underlyingAmount",
          "type": "uint256"
        }
      ],
      "name": "Deposit",
      "type": "event"
    },
    {
      "anonymous": false,
      "inputs": [
        {
          "indexed": true,
          "internalType": "address",
          "name": "user",
          "type": "address"
        },
        {
          "indexed": false,
          "internalType": "uint256",
          "name": "newFeePercent",
          "type": "uint256"
        }
      ],
      "name": "FeePercentUpdated",
      "type": "event"
    },
    {
      "anonymous": false,
      "inputs": [
        {
          "indexed": true,
          "internalType": "address",
          "name": "user",
          "type": "address"
        },
        {
          "indexed": false,
          "internalType": "uint256",
          "name": "rvTokenAmount",
          "type": "uint256"
        }
      ],
      "name": "FeesClaimed",
      "type": "event"
    },
    {
      "anonymous": false,
      "inputs": [
        {
          "indexed": true,
          "internalType": "address",
          "name": "user",
          "type": "address"
        },
        {
          "indexed": false,
          "internalType": "contract Strategy[]",
          "name": "strategies",
          "type": "address[]"
        }
      ],
      "name": "Harvest",
      "type": "event"
    },
    {
      "anonymous": false,
      "inputs": [
        {
          "indexed": true,
          "internalType": "address",
          "name": "user",
          "type": "address"
        },
        {
          "indexed": false,
          "internalType": "uint64",
          "name": "newHarvestDelay",
          "type": "uint64"
        }
      ],
      "name": "HarvestDelayUpdateScheduled",
      "type": "event"
    },
    {
      "anonymous": false,
      "inputs": [
        {
          "indexed": true,
          "internalType": "address",
          "name": "user",
          "type": "address"
        },
        {
          "indexed": false,
          "internalType": "uint64",
          "name": "newHarvestDelay",
          "type": "uint64"
        }
      ],
      "name": "HarvestDelayUpdated",
      "type": "event"
    },
    {
      "anonymous": false,
      "inputs": [
        {
          "indexed": true,
          "internalType": "address",
          "name": "user",
          "type": "address"
        },
        {
          "indexed": false,
          "internalType": "uint128",
          "name": "newHarvestWindow",
          "type": "uint128"
        }
      ],
      "name": "HarvestWindowUpdated",
      "type": "event"
    },
    {
      "anonymous": false,
      "inputs": [
        {
          "indexed": true,
          "internalType": "address",
          "name": "user",
          "type": "address"
        }
      ],
      "name": "Initialized",
      "type": "event"
    },
    {
      "anonymous": false,
      "inputs": [
        {
          "indexed": true,
          "internalType": "address",
          "name": "account",
          "type": "address"
        },
        {
          "indexed": false,
          "internalType": "bool",
          "name": "isManager",
          "type": "bool"
        }
      ],
      "name": "ManagerUpdate",
      "type": "event"
    },
    {
      "anonymous": false,
      "inputs": [
        {
          "indexed": false,
          "internalType": "uint256",
          "name": "maxTvl",
          "type": "uint256"
        }
      ],
      "name": "MaxTvlUpdated",
      "type": "event"
    },
    {
      "anonymous": false,
      "inputs": [
        {
          "indexed": true,
          "internalType": "address",
          "name": "previousOwner",
          "type": "address"
        },
        {
          "indexed": true,
          "internalType": "address",
          "name": "newOwner",
          "type": "address"
        }
      ],
      "name": "OwnershipTransferred",
      "type": "event"
    },
    {
      "anonymous": false,
      "inputs": [
        {
          "indexed": false,
          "internalType": "bool",
          "name": "setPublic",
          "type": "bool"
        }
      ],
      "name": "SetPublic",
      "type": "event"
    },
    {
      "anonymous": false,
      "inputs": [
        {
          "indexed": true,
          "internalType": "address",
          "name": "user",
          "type": "address"
        },
        {
          "indexed": true,
          "internalType": "contract Strategy",
          "name": "strategy",
          "type": "address"
        },
        {
          "indexed": false,
          "internalType": "uint256",
          "name": "underlyingAmount",
          "type": "uint256"
        }
      ],
      "name": "StrategyDeposit",
      "type": "event"
    },
    {
      "anonymous": false,
      "inputs": [
        {
          "indexed": true,
          "internalType": "address",
          "name": "user",
          "type": "address"
        },
        {
          "indexed": true,
          "internalType": "contract Strategy",
          "name": "strategy",
          "type": "address"
        }
      ],
      "name": "StrategyDistrusted",
      "type": "event"
    },
    {
      "anonymous": false,
      "inputs": [
        {
          "indexed": true,
          "internalType": "address",
          "name": "user",
          "type": "address"
        },
        {
          "indexed": true,
          "internalType": "contract Strategy",
          "name": "strategy",
          "type": "address"
        }
      ],
      "name": "StrategySeized",
      "type": "event"
    },
    {
      "anonymous": false,
      "inputs": [
        {
          "indexed": true,
          "internalType": "address",
          "name": "user",
          "type": "address"
        },
        {
          "indexed": true,
          "internalType": "contract Strategy",
          "name": "strategy",
          "type": "address"
        }
      ],
      "name": "StrategyTrusted",
      "type": "event"
    },
    {
      "anonymous": false,
      "inputs": [
        {
          "indexed": true,
          "internalType": "address",
          "name": "user",
          "type": "address"
        },
        {
          "indexed": true,
          "internalType": "contract Strategy",
          "name": "strategy",
          "type": "address"
        },
        {
          "indexed": false,
          "internalType": "uint256",
          "name": "underlyingAmount",
          "type": "uint256"
        }
      ],
      "name": "StrategyWithdrawal",
      "type": "event"
    },
    {
      "anonymous": false,
      "inputs": [
        {
          "indexed": true,
          "internalType": "address",
          "name": "user",
          "type": "address"
        },
        {
          "indexed": false,
          "internalType": "uint256",
          "name": "newTargetFloatPercent",
          "type": "uint256"
        }
      ],
      "name": "TargetFloatPercentUpdated",
      "type": "event"
    },
    {
      "anonymous": false,
      "inputs": [
        {
          "indexed": true,
          "internalType": "address",
          "name": "from",
          "type": "address"
        },
        {
          "indexed": true,
          "internalType": "address",
          "name": "to",
          "type": "address"
        },
        {
          "indexed": false,
          "internalType": "uint256",
          "name": "value",
          "type": "uint256"
        }
      ],
      "name": "Transfer",
      "type": "event"
    },
    {
      "anonymous": false,
      "inputs": [
        {
          "indexed": true,
          "internalType": "address",
          "name": "user",
          "type": "address"
        },
        {
          "indexed": false,
          "internalType": "bool",
          "name": "newUnderlyingIsWETH",
          "type": "bool"
        }
      ],
      "name": "UnderlyingIsWETHUpdated",
      "type": "event"
    },
    {
      "anonymous": false,
      "inputs": [
        {
          "indexed": true,
          "internalType": "address",
          "name": "user",
          "type": "address"
        },
        {
          "indexed": false,
          "internalType": "uint256",
          "name": "underlyingAmount",
          "type": "uint256"
        }
      ],
      "name": "Withdraw",
      "type": "event"
    },
    {
      "anonymous": false,
      "inputs": [
        {
          "indexed": true,
          "internalType": "address",
          "name": "user",
          "type": "address"
        },
        {
          "indexed": false,
          "internalType": "uint256",
          "name": "index",
          "type": "uint256"
        },
        {
          "indexed": true,
          "internalType": "contract Strategy",
          "name": "replacedStrategy",
          "type": "address"
        },
        {
          "indexed": true,
          "internalType": "contract Strategy",
          "name": "replacementStrategy",
          "type": "address"
        }
      ],
      "name": "WithdrawalQueueIndexReplaced",
      "type": "event"
    },
    {
      "anonymous": false,
      "inputs": [
        {
          "indexed": true,
          "internalType": "address",
          "name": "user",
          "type": "address"
        },
        {
          "indexed": false,
          "internalType": "uint256",
          "name": "index",
          "type": "uint256"
        },
        {
          "indexed": true,
          "internalType": "contract Strategy",
          "name": "replacedStrategy",
          "type": "address"
        },
        {
          "indexed": true,
          "internalType": "contract Strategy",
          "name": "previousTipStrategy",
          "type": "address"
        }
      ],
      "name": "WithdrawalQueueIndexReplacedWithTip",
      "type": "event"
    },
    {
      "anonymous": false,
      "inputs": [
        {
          "indexed": true,
          "internalType": "address",
          "name": "user",
          "type": "address"
        },
        {
          "indexed": false,
          "internalType": "uint256",
          "name": "index1",
          "type": "uint256"
        },
        {
          "indexed": false,
          "internalType": "uint256",
          "name": "index2",
          "type": "uint256"
        },
        {
          "indexed": true,
          "internalType": "contract Strategy",
          "name": "newStrategy1",
          "type": "address"
        },
        {
          "indexed": true,
          "internalType": "contract Strategy",
          "name": "newStrategy2",
          "type": "address"
        }
      ],
      "name": "WithdrawalQueueIndexesSwapped",
      "type": "event"
    },
    {
      "anonymous": false,
      "inputs": [
        {
          "indexed": true,
          "internalType": "address",
          "name": "user",
          "type": "address"
        },
        {
          "indexed": true,
          "internalType": "contract Strategy",
          "name": "poppedStrategy",
          "type": "address"
        }
      ],
      "name": "WithdrawalQueuePopped",
      "type": "event"
    },
    {
      "anonymous": false,
      "inputs": [
        {
          "indexed": true,
          "internalType": "address",
          "name": "user",
          "type": "address"
        },
        {
          "indexed": true,
          "internalType": "contract Strategy",
          "name": "pushedStrategy",
          "type": "address"
        }
      ],
      "name": "WithdrawalQueuePushed",
      "type": "event"
    },
    {
      "anonymous": false,
      "inputs": [
        {
          "indexed": true,
          "internalType": "address",
          "name": "user",
          "type": "address"
        },
        {
          "indexed": false,
          "internalType": "contract Strategy[]",
          "name": "replacedWithdrawalQueue",
          "type": "address[]"
        }
      ],
      "name": "WithdrawalQueueSet",
      "type": "event"
    },
    {
      "inputs": [],
      "name": "BASE_UNIT",
      "outputs": [
        {
          "internalType": "uint256",
          "name": "",
          "type": "uint256"
        }
      ],
      "stateMutability": "view",
      "type": "function"
    },
    {
      "inputs": [],
      "name": "UNDERLYING",
      "outputs": [
        {
          "internalType": "contract IERC20",
          "name": "",
          "type": "address"
        }
      ],
      "stateMutability": "view",
      "type": "function"
    },
    {
      "inputs": [
        {
          "internalType": "contract Strategy",
          "name": "strategy",
          "type": "address"
        }
      ],
      "name": "addStrategy",
      "outputs": [],
      "stateMutability": "nonpayable",
      "type": "function"
    },
    {
      "inputs": [
        {
          "internalType": "address",
          "name": "owner",
          "type": "address"
        },
        {
          "internalType": "address",
          "name": "spender",
          "type": "address"
        }
      ],
      "name": "allowance",
      "outputs": [
        {
          "internalType": "uint256",
          "name": "",
          "type": "uint256"
        }
      ],
      "stateMutability": "view",
      "type": "function"
    },
    {
      "inputs": [
        {
          "internalType": "address",
          "name": "spender",
          "type": "address"
        },
        {
          "internalType": "uint256",
          "name": "amount",
          "type": "uint256"
        }
      ],
      "name": "approve",
      "outputs": [
        {
          "internalType": "bool",
          "name": "",
          "type": "bool"
        }
      ],
      "stateMutability": "nonpayable",
      "type": "function"
    },
    {
      "inputs": [
        {
          "internalType": "address",
          "name": "account",
          "type": "address"
        }
      ],
      "name": "balanceOf",
      "outputs": [
        {
          "internalType": "uint256",
          "name": "",
          "type": "uint256"
        }
      ],
      "stateMutability": "view",
      "type": "function"
    },
    {
      "inputs": [
        {
          "internalType": "address",
          "name": "user",
          "type": "address"
        }
      ],
      "name": "balanceOfUnderlying",
      "outputs": [
        {
          "internalType": "uint256",
          "name": "",
          "type": "uint256"
        }
      ],
      "stateMutability": "view",
      "type": "function"
    },
    {
      "inputs": [
        {
          "internalType": "address[]",
          "name": "users",
          "type": "address[]"
        }
      ],
      "name": "bulkAllow",
      "outputs": [],
      "stateMutability": "nonpayable",
      "type": "function"
    },
    {
      "inputs": [
        {
          "internalType": "uint256",
          "name": "rvTokenAmount",
          "type": "uint256"
        }
      ],
      "name": "claimFees",
      "outputs": [],
      "stateMutability": "nonpayable",
      "type": "function"
    },
    {
      "inputs": [],
      "name": "decimals",
      "outputs": [
        {
          "internalType": "uint8",
          "name": "",
          "type": "uint8"
        }
      ],
      "stateMutability": "view",
      "type": "function"
    },
    {
      "inputs": [
        {
          "internalType": "address",
          "name": "spender",
          "type": "address"
        },
        {
          "internalType": "uint256",
          "name": "subtractedValue",
          "type": "uint256"
        }
      ],
      "name": "decreaseAllowance",
      "outputs": [
        {
          "internalType": "bool",
          "name": "",
          "type": "bool"
        }
      ],
      "stateMutability": "nonpayable",
      "type": "function"
    },
    {
      "inputs": [
        {
          "internalType": "uint256",
          "name": "underlyingAmount",
          "type": "uint256"
        }
      ],
      "name": "deposit",
      "outputs": [],
      "stateMutability": "nonpayable",
      "type": "function"
    },
    {
      "inputs": [
        {
          "internalType": "contract Strategy",
          "name": "strategy",
          "type": "address"
        },
        {
          "internalType": "uint256",
          "name": "underlyingAmount",
          "type": "uint256"
        }
      ],
      "name": "depositIntoStrategy",
      "outputs": [],
      "stateMutability": "nonpayable",
      "type": "function"
    },
    {
      "inputs": [
        {
          "internalType": "contract Strategy",
          "name": "strategy",
          "type": "address"
        }
      ],
      "name": "distrustStrategy",
      "outputs": [],
      "stateMutability": "nonpayable",
      "type": "function"
    },
    {
      "inputs": [],
      "name": "exchangeRate",
      "outputs": [
        {
          "internalType": "uint256",
          "name": "",
          "type": "uint256"
        }
      ],
      "stateMutability": "view",
      "type": "function"
    },
    {
      "inputs": [],
      "name": "feePercent",
      "outputs": [
        {
          "internalType": "uint256",
          "name": "",
          "type": "uint256"
        }
      ],
      "stateMutability": "view",
      "type": "function"
    },
    {
      "inputs": [],
      "name": "getMaxTvl",
      "outputs": [
        {
          "internalType": "uint256",
          "name": "maxTvl",
          "type": "uint256"
        }
      ],
      "stateMutability": "view",
      "type": "function"
    },
    {
      "inputs": [
        {
          "internalType": "contract Strategy",
          "name": "",
          "type": "address"
        }
      ],
      "name": "getStrategyData",
      "outputs": [
        {
          "internalType": "bool",
          "name": "trusted",
          "type": "bool"
        },
        {
          "internalType": "uint248",
          "name": "balance",
          "type": "uint248"
        }
      ],
      "stateMutability": "view",
      "type": "function"
    },
    {
      "inputs": [],
      "name": "getWithdrawalQueue",
      "outputs": [
        {
          "internalType": "contract Strategy[]",
          "name": "",
          "type": "address[]"
        }
      ],
      "stateMutability": "view",
      "type": "function"
    },
    {
      "inputs": [
        {
          "internalType": "contract Strategy[]",
          "name": "strategies",
          "type": "address[]"
        }
      ],
      "name": "harvest",
      "outputs": [],
      "stateMutability": "nonpayable",
      "type": "function"
    },
    {
      "inputs": [],
      "name": "harvestDelay",
      "outputs": [
        {
          "internalType": "uint64",
          "name": "",
          "type": "uint64"
        }
      ],
      "stateMutability": "view",
      "type": "function"
    },
    {
      "inputs": [],
      "name": "harvestWindow",
      "outputs": [
        {
          "internalType": "uint128",
          "name": "",
          "type": "uint128"
        }
      ],
      "stateMutability": "view",
      "type": "function"
    },
    {
      "inputs": [
        {
          "internalType": "address",
          "name": "spender",
          "type": "address"
        },
        {
          "internalType": "uint256",
          "name": "addedValue",
          "type": "uint256"
        }
      ],
      "name": "increaseAllowance",
      "outputs": [
        {
          "internalType": "bool",
          "name": "",
          "type": "bool"
        }
      ],
      "stateMutability": "nonpayable",
      "type": "function"
    },
    {
      "inputs": [
        {
          "internalType": "contract IERC20",
          "name": "_UNDERLYING",
          "type": "address"
        },
        {
          "internalType": "address",
          "name": "_owner",
          "type": "address"
        },
        {
          "internalType": "address",
          "name": "_manager",
          "type": "address"
        },
        {
          "internalType": "uint256",
          "name": "_feePercent",
          "type": "uint256"
        },
        {
          "internalType": "uint64",
          "name": "_harvestDelay",
          "type": "uint64"
        },
        {
          "internalType": "uint128",
          "name": "_harvestWindow",
          "type": "uint128"
        }
      ],
      "name": "initialize",
      "outputs": [],
      "stateMutability": "nonpayable",
      "type": "function"
    },
    {
      "inputs": [
        {
          "internalType": "address",
          "name": "user",
          "type": "address"
        }
      ],
      "name": "isAllowed",
      "outputs": [
        {
          "internalType": "bool",
          "name": "",
          "type": "bool"
        }
      ],
      "stateMutability": "view",
      "type": "function"
    },
    {
      "inputs": [
        {
          "internalType": "address",
          "name": "user",
          "type": "address"
        }
      ],
      "name": "isManager",
      "outputs": [
        {
          "internalType": "bool",
          "name": "",
          "type": "bool"
        }
      ],
      "stateMutability": "view",
      "type": "function"
    },
    {
      "inputs": [],
      "name": "isPublic",
      "outputs": [
        {
          "internalType": "bool",
          "name": "",
          "type": "bool"
        }
      ],
      "stateMutability": "view",
      "type": "function"
    },
    {
      "inputs": [],
      "name": "lastHarvest",
      "outputs": [
        {
          "internalType": "uint64",
          "name": "",
          "type": "uint64"
        }
      ],
      "stateMutability": "view",
      "type": "function"
    },
    {
      "inputs": [],
      "name": "lastHarvestWindowStart",
      "outputs": [
        {
          "internalType": "uint64",
          "name": "",
          "type": "uint64"
        }
      ],
      "stateMutability": "view",
      "type": "function"
    },
    {
      "inputs": [],
      "name": "lockedProfit",
      "outputs": [
        {
          "internalType": "uint256",
          "name": "",
          "type": "uint256"
        }
      ],
      "stateMutability": "view",
      "type": "function"
    },
    {
      "inputs": [],
      "name": "maxLockedProfit",
      "outputs": [
        {
          "internalType": "uint128",
          "name": "",
          "type": "uint128"
        }
      ],
      "stateMutability": "view",
      "type": "function"
    },
    {
      "inputs": [
        {
          "internalType": "contract Strategy",
          "name": "prevStrategy",
          "type": "address"
        },
        {
          "internalType": "contract Strategy",
          "name": "newStrategy",
          "type": "address"
        },
        {
          "internalType": "uint256",
          "name": "queueIndex",
          "type": "uint256"
        }
      ],
      "name": "migrateStrategy",
      "outputs": [],
      "stateMutability": "nonpayable",
      "type": "function"
    },
    {
      "inputs": [],
      "name": "name",
      "outputs": [
        {
          "internalType": "string",
          "name": "",
          "type": "string"
        }
      ],
      "stateMutability": "view",
      "type": "function"
    },
    {
      "inputs": [],
      "name": "nextHarvestDelay",
      "outputs": [
        {
          "internalType": "uint64",
          "name": "",
          "type": "uint64"
        }
      ],
      "stateMutability": "view",
      "type": "function"
    },
    {
      "inputs": [],
      "name": "owner",
      "outputs": [
        {
          "internalType": "address",
          "name": "",
          "type": "address"
        }
      ],
      "stateMutability": "view",
      "type": "function"
    },
    {
      "inputs": [],
      "name": "popFromWithdrawalQueue",
      "outputs": [],
      "stateMutability": "nonpayable",
      "type": "function"
    },
    {
      "inputs": [
        {
          "internalType": "contract Strategy",
          "name": "strategy",
          "type": "address"
        }
      ],
      "name": "pushToWithdrawalQueue",
      "outputs": [],
      "stateMutability": "nonpayable",
      "type": "function"
    },
    {
      "inputs": [
        {
          "internalType": "uint256",
          "name": "rvTokenAmount",
          "type": "uint256"
        }
      ],
      "name": "redeem",
      "outputs": [],
      "stateMutability": "nonpayable",
      "type": "function"
    },
    {
      "inputs": [],
      "name": "renounceOwnership",
      "outputs": [],
      "stateMutability": "nonpayable",
      "type": "function"
    },
    {
      "inputs": [
        {
          "internalType": "uint256",
          "name": "index",
          "type": "uint256"
        },
        {
          "internalType": "contract Strategy",
          "name": "replacementStrategy",
          "type": "address"
        }
      ],
      "name": "replaceWithdrawalQueueIndex",
      "outputs": [],
      "stateMutability": "nonpayable",
      "type": "function"
    },
    {
      "inputs": [
        {
          "internalType": "uint256",
          "name": "index",
          "type": "uint256"
        }
      ],
      "name": "replaceWithdrawalQueueIndexWithTip",
      "outputs": [],
      "stateMutability": "nonpayable",
      "type": "function"
    },
    {
      "inputs": [
        {
          "internalType": "contract Strategy",
          "name": "strategy",
          "type": "address"
        },
        {
          "internalType": "contract IERC20[]",
          "name": "tokens",
          "type": "address[]"
        }
      ],
      "name": "seizeStrategy",
      "outputs": [],
      "stateMutability": "nonpayable",
      "type": "function"
    },
    {
      "inputs": [
        {
          "internalType": "address",
          "name": "user",
          "type": "address"
        },
        {
          "internalType": "bool",
          "name": "_isManager",
          "type": "bool"
        }
      ],
      "name": "setAllowed",
      "outputs": [],
      "stateMutability": "nonpayable",
      "type": "function"
    },
    {
      "inputs": [
        {
          "internalType": "uint256",
          "name": "newFeePercent",
          "type": "uint256"
        }
      ],
      "name": "setFeePercent",
      "outputs": [],
      "stateMutability": "nonpayable",
      "type": "function"
    },
    {
      "inputs": [
        {
          "internalType": "uint64",
          "name": "newHarvestDelay",
          "type": "uint64"
        }
      ],
      "name": "setHarvestDelay",
      "outputs": [],
      "stateMutability": "nonpayable",
      "type": "function"
    },
    {
      "inputs": [
        {
          "internalType": "uint128",
          "name": "newHarvestWindow",
          "type": "uint128"
        }
      ],
      "name": "setHarvestWindow",
      "outputs": [],
      "stateMutability": "nonpayable",
      "type": "function"
    },
    {
      "inputs": [
        {
          "internalType": "address",
          "name": "user",
          "type": "address"
        },
        {
          "internalType": "bool",
          "name": "_isManager",
          "type": "bool"
        }
      ],
      "name": "setManager",
      "outputs": [],
      "stateMutability": "nonpayable",
      "type": "function"
    },
    {
      "inputs": [
        {
          "internalType": "uint256",
          "name": "maxTvl_",
          "type": "uint256"
        }
      ],
      "name": "setMaxTvl",
      "outputs": [],
      "stateMutability": "nonpayable",
      "type": "function"
    },
    {
      "inputs": [
        {
          "internalType": "bool",
          "name": "isPublic_",
          "type": "bool"
        }
      ],
      "name": "setPublic",
      "outputs": [],
      "stateMutability": "nonpayable",
      "type": "function"
    },
    {
      "inputs": [
        {
          "internalType": "uint256",
          "name": "newTargetFloatPercent",
          "type": "uint256"
        }
      ],
      "name": "setTargetFloatPercent",
      "outputs": [],
      "stateMutability": "nonpayable",
      "type": "function"
    },
    {
      "inputs": [
        {
          "internalType": "bool",
          "name": "newUnderlyingIsWETH",
          "type": "bool"
        }
      ],
      "name": "setUnderlyingIsWETH",
      "outputs": [],
      "stateMutability": "nonpayable",
      "type": "function"
    },
    {
      "inputs": [
        {
          "internalType": "contract Strategy[]",
          "name": "newQueue",
          "type": "address[]"
        }
      ],
      "name": "setWithdrawalQueue",
      "outputs": [],
      "stateMutability": "nonpayable",
      "type": "function"
    },
    {
      "inputs": [
        {
          "internalType": "uint256",
          "name": "index1",
          "type": "uint256"
        },
        {
          "internalType": "uint256",
          "name": "index2",
          "type": "uint256"
        }
      ],
      "name": "swapWithdrawalQueueIndexes",
      "outputs": [],
      "stateMutability": "nonpayable",
      "type": "function"
    },
    {
      "inputs": [],
      "name": "symbol",
      "outputs": [
        {
          "internalType": "string",
          "name": "",
          "type": "string"
        }
      ],
      "stateMutability": "view",
      "type": "function"
    },
    {
      "inputs": [],
      "name": "targetFloatPercent",
      "outputs": [
        {
          "internalType": "uint256",
          "name": "",
          "type": "uint256"
        }
      ],
      "stateMutability": "view",
      "type": "function"
    },
    {
      "inputs": [],
      "name": "totalFloat",
      "outputs": [
        {
          "internalType": "uint256",
          "name": "",
          "type": "uint256"
        }
      ],
      "stateMutability": "view",
      "type": "function"
    },
    {
      "inputs": [],
      "name": "totalHoldings",
      "outputs": [
        {
          "internalType": "uint256",
          "name": "totalUnderlyingHeld",
          "type": "uint256"
        }
      ],
      "stateMutability": "view",
      "type": "function"
    },
    {
      "inputs": [],
      "name": "totalStrategyHoldings",
      "outputs": [
        {
          "internalType": "uint256",
          "name": "",
          "type": "uint256"
        }
      ],
      "stateMutability": "view",
      "type": "function"
    },
    {
      "inputs": [],
      "name": "totalSupply",
      "outputs": [
        {
          "internalType": "uint256",
          "name": "",
          "type": "uint256"
        }
      ],
      "stateMutability": "view",
      "type": "function"
    },
    {
      "inputs": [
        {
          "internalType": "address",
          "name": "recipient",
          "type": "address"
        },
        {
          "internalType": "uint256",
          "name": "amount",
          "type": "uint256"
        }
      ],
      "name": "transfer",
      "outputs": [
        {
          "internalType": "bool",
          "name": "",
          "type": "bool"
        }
      ],
      "stateMutability": "nonpayable",
      "type": "function"
    },
    {
      "inputs": [
        {
          "internalType": "address",
          "name": "sender",
          "type": "address"
        },
        {
          "internalType": "address",
          "name": "recipient",
          "type": "address"
        },
        {
          "internalType": "uint256",
          "name": "amount",
          "type": "uint256"
        }
      ],
      "name": "transferFrom",
      "outputs": [
        {
          "internalType": "bool",
          "name": "",
          "type": "bool"
        }
      ],
      "stateMutability": "nonpayable",
      "type": "function"
    },
    {
      "inputs": [
        {
          "internalType": "address",
          "name": "newOwner",
          "type": "address"
        }
      ],
      "name": "transferOwnership",
      "outputs": [],
      "stateMutability": "nonpayable",
      "type": "function"
    },
    {
      "inputs": [
        {
          "internalType": "contract Strategy",
          "name": "strategy",
          "type": "address"
        }
      ],
      "name": "trustStrategy",
      "outputs": [],
      "stateMutability": "nonpayable",
      "type": "function"
    },
    {
      "inputs": [],
      "name": "underlyingIsWETH",
      "outputs": [
        {
          "internalType": "bool",
          "name": "",
          "type": "bool"
        }
      ],
      "stateMutability": "view",
      "type": "function"
    },
    {
      "inputs": [],
      "name": "updateStratTvl",
      "outputs": [
        {
          "internalType": "uint256",
          "name": "maxTvl",
          "type": "uint256"
        }
      ],
      "stateMutability": "nonpayable",
      "type": "function"
    },
    {
      "inputs": [
        {
          "internalType": "uint256",
          "name": "underlyingAmount",
          "type": "uint256"
        }
      ],
      "name": "withdraw",
      "outputs": [],
      "stateMutability": "nonpayable",
      "type": "function"
    },
    {
      "inputs": [
        {
          "internalType": "contract Strategy",
          "name": "strategy",
          "type": "address"
        },
        {
          "internalType": "uint256",
          "name": "underlyingAmount",
          "type": "uint256"
        }
      ],
      "name": "withdrawFromStrategy",
      "outputs": [],
      "stateMutability": "nonpayable",
      "type": "function"
    },
    {
      "inputs": [
        {
          "internalType": "uint256",
          "name": "",
          "type": "uint256"
        }
      ],
      "name": "withdrawalQueue",
      "outputs": [
        {
          "internalType": "contract Strategy",
          "name": "",
          "type": "address"
        }
      ],
      "stateMutability": "view",
      "type": "function"
    },
    {
      "stateMutability": "payable",
      "type": "receive"
    }
  ],
  "transactionHash": "0xfc307f588a49f9f14fe8545add6508720763efca09861b923a2ed099fb6e71dd",
  "args": [],
  "numDeployments": 4,
  "solcInputHash": "5d46699fb2a32efdf5a9a6e0d19f8604",
  "bytecode": "0x60806040523480156200001157600080fd5b50600054610100900460ff166200002f5760005460ff161562000039565b62000039620000de565b620000a15760405162461bcd60e51b815260206004820152602e60248201527f496e697469616c697a61626c653a20636f6e747261637420697320616c72656160448201526d191e481a5b9a5d1a585b1a5e995960921b606482015260840160405180910390fd5b600054610100900460ff16158015620000c4576000805461ffff19166101011790555b8015620000d7576000805461ff00191690555b5062000102565b6000620000f630620000fc60201b620035ba1760201c565b15905090565b3b151590565b61521680620001126000396000f3fe6080604052600436106103035760003560e01c806306fdde031461030f57806307b35d1d1461033a578063095ea7b31461035c5780630e73ecef1461038c5780630e962f00146103ae57806317beaccf146103d257806318160ddd146103e75780631c693478146103fc578063223e54791461041257806322e4cbf81461043257806323b872dd146104525780632968676e146104725780632e1a7d4d146104d1578063313ce567146104f157806332ff773214610513578063358d6a041461053357806339509351146105485780633af9e669146105685780633ba0b9a9146105885780633fb647be1461059d5780633fd40925146105bd578063448f56b9146105dd57806344b81396146106115780634697f05d146106265780635cbcec4e1461064657806370a0823114610666578063715018a614610686578063797ba4631461069b5780637b72aeb9146106c25780637ce3489b146106e25780637fd6f15c14610702578063841219e5146107185780638da5cb5b1461072d57806395d89b411461074f5780639bb5989d14610764578063a210dbcc14610784578063a457c2d714610799578063a5e90eee146107b9578063a9059cbb146107d9578063ac579b77146107f9578063ac68a74814610819578063b53d095814610839578063b6b55f2514610859578063babcc53914610879578063bd662f8814610899578063bdf06c8e146108b9578063c5d664c6146108d9578063c62e20c3146108f9578063c822adda14610919578063c866983b14610939578063c89d346014610959578063cb50087f14610979578063d00364be14610999578063d183ce1e146109cd578063db006a75146109ed578063dc9a153514610a0d578063dd62ed3e14610a25578063ddb56b2614610a6b578063e15b47d114610a8b578063e9ec2e9914610aab578063ec523afd14610ac0578063ecad956514610ae0578063eed74e6714610af6578063f1a392da14610b16578063f2fde38b14610b3d578063f3ae241514610b5d578063f84d73f414610b7d578063f97d2ed714610b9757600080fd5b3661030a57005b600080fd5b34801561031b57600080fd5b50610324610bb7565b6040516103319190614587565b60405180910390f35b34801561034657600080fd5b5061035a6103553660046145d6565b610c49565b005b34801561036857600080fd5b5061037c610377366004614606565b610d36565b6040519015158152602001610331565b34801561039857600080fd5b506103a1610d4d565b6040516103319190614632565b3480156103ba57600080fd5b506103c460ca5481565b604051908152602001610331565b3480156103de57600080fd5b506103c4610dae565b3480156103f357600080fd5b506035546103c4565b34801561040857600080fd5b506103c460d05481565b34801561041e57600080fd5b5061035a61042d36600461467f565b610ef3565b34801561043e57600080fd5b5061035a61044d3660046146de565b610f40565b34801561045e57600080fd5b5061037c61046d366004614790565b611049565b34801561047e57600080fd5b506104b261048d36600461467f565b60d36020526000908152604090205460ff81169061010090046001600160f81b031682565b6040805192151583526001600160f81b03909116602083015201610331565b3480156104dd57600080fd5b5061035a6104ec3660046147d1565b6110f5565b3480156104fd57600080fd5b5060cb5460405160ff9091168152602001610331565b34801561051f57600080fd5b5061035a61052e3660046147f8565b611144565b34801561053f57600080fd5b506103c461127a565b34801561055457600080fd5b5061037c610563366004614606565b61128f565b34801561057457600080fd5b506103c461058336600461467f565b6112cb565b34801561059457600080fd5b506103c46112eb565b3480156105a957600080fd5b5061035a6105b8366004614860565b611322565b3480156105c957600080fd5b5061035a6105d836600461467f565b611598565b3480156105e957600080fd5b5060cf5461060490600160801b90046001600160401b031681565b60405161033191906148b4565b34801561061d57600080fd5b506103c4611699565b34801561063257600080fd5b5061035a6106413660046148c8565b611700565b34801561065257600080fd5b5061035a6106613660046147f8565b611799565b34801561067257600080fd5b506103c461068136600461467f565b61182d565b34801561069257600080fd5b5061035a611848565b3480156106a757600080fd5b5060cf5461060490600160c01b90046001600160401b031681565b3480156106ce57600080fd5b5061035a6106dd366004614918565b611883565b3480156106ee57600080fd5b5061035a6106fd3660046147d1565b6119fa565b34801561070e57600080fd5b506103c460ce5481565b34801561072457600080fd5b506103c4611aa7565b34801561073957600080fd5b50610742611b19565b6040516103319190614933565b34801561075b57600080fd5b50610324611b28565b34801561077057600080fd5b5061035a61077f366004614947565b611b37565b34801561079057600080fd5b5061035a611c28565b3480156107a557600080fd5b5061037c6107b4366004614606565b611d08565b3480156107c557600080fd5b5061035a6107d43660046148c8565b611da1565b3480156107e557600080fd5b5061037c6107f4366004614606565b611e28565b34801561080557600080fd5b5061035a61081436600461496c565b611e35565b34801561082557600080fd5b5061035a6108343660046147d1565b611f05565b34801561084557600080fd5b5061035a610854366004614606565b611f8c565b34801561086557600080fd5b5061035a6108743660046147d1565b61221d565b34801561088557600080fd5b5061037c61089436600461467f565b612331565b3480156108a557600080fd5b5061035a6108b43660046147d1565b612383565b3480156108c557600080fd5b5061035a6108d4366004614606565b612433565b3480156108e557600080fd5b5060c954610742906001600160a01b031681565b34801561090557600080fd5b5061035a6109143660046147d1565b612727565b34801561092557600080fd5b506107426109343660046147d1565b612893565b34801561094557600080fd5b5061035a61095436600461467f565b6128bd565b34801561096557600080fd5b5061035a61097436600461496c565b612936565b34801561098557600080fd5b5061035a6109943660046147d1565b612d0e565b3480156109a557600080fd5b5060d4546109c090600160801b90046001600160801b031681565b60405161033191906149ad565b3480156109d957600080fd5b5061035a6109e83660046149c1565b612d87565b3480156109f957600080fd5b5061035a610a083660046147d1565b612eee565b348015610a1957600080fd5b5060d85460ff1661037c565b348015610a3157600080fd5b506103c4610a403660046149e3565b6001600160a01b03918216600090815260346020908152604080832093909416825291909152205490565b348015610a7757600080fd5b5061035a610a86366004614790565b612f3f565b348015610a9757600080fd5b5061035a610aa6366004614a11565b61305e565b348015610ab757600080fd5b506103c4613336565b348015610acc57600080fd5b5061035a610adb36600461467f565b613358565b348015610aec57600080fd5b506103c460d25481565b348015610b0257600080fd5b5060d454610604906001600160401b031681565b348015610b2257600080fd5b5060d45461060490600160401b90046001600160401b031681565b348015610b4957600080fd5b5061035a610b5836600461467f565b6134ff565b348015610b6957600080fd5b5061037c610b7836600461467f565b61359c565b348015610b8957600080fd5b5060d15461037c9060ff1681565b348015610ba357600080fd5b5060cf546109c0906001600160801b031681565b606060368054610bc690614a84565b80601f0160208091040260200160405190810160405280929190818152602001828054610bf290614a84565b8015610c3f5780601f10610c1457610100808354040283529160200191610c3f565b820191906000526020600020905b815481529060010190602001808311610c2257829003601f168201915b5050505050905090565b33610c52611b19565b6001600160a01b031614610c815760405162461bcd60e51b8152600401610c7890614abf565b60405180910390fd5b60cf54600160801b90046001600160401b03166001600160801b0382161115610cde5760405162461bcd60e51b815260206004820152600f60248201526e57494e444f575f544f4f5f4c4f4e4760881b6044820152606401610c78565b60cf80546001600160801b0319166001600160801b03831617905560405133907ff61ebd3c01f656aba479c738a8744215d6f1ec2c19169500f3bff0a9d8374ce190610d2b9084906149ad565b60405180910390a250565b6000610d433384846135c0565b5060015b92915050565b606060d5805480602002602001604051908101604052809291908181526020018280548015610c3f57602002820191906000526020600020905b81546001600160a01b03168152600190910190602001808311610d87575050505050905090565b6000610db8611b19565b6001600160a01b0316336001600160a01b03161480610ddb5750610ddb3361359c565b610df75760405162461bcd60e51b8152600401610c7890614af4565b60005b60d554811015610ebc57600060d58281548110610e1957610e19614b1c565b600091825260208083209091015460408051630d635a8160e21b815290516001600160a01b039092169450849263358d6a0492600480840193829003018187875af1158015610e6c573d6000803e3d6000fd5b505050506040513d601f19601f82011682018060405250810190610e909190614b32565b90508084018411610ea357808401610ea5565b835b935050508080610eb490614b61565b915050610dfa565b5060d781905560d6546000805160206151c183398151915290610edf90836136e5565b60405190815260200160405180910390a190565b33610efc611b19565b6001600160a01b031614610f225760405162461bcd60e51b8152600401610c7890614abf565b610f2b81613358565b610f3481611598565b610f3c610dae565b5050565b610f48611b19565b6001600160a01b0316336001600160a01b03161480610f6b5750610f6b3361359c565b610f875760405162461bcd60e51b8152600401610c7890614af4565b60005b8151811015610f3c57600160cc6000848481518110610fab57610fab614b1c565b60200260200101516001600160a01b03166001600160a01b0316815260200190815260200160002060006101000a81548160ff021916908315150217905550818181518110610ffc57610ffc614b1c565b60200260200101516001600160a01b0316600080516020615101833981519152600160405161102f911515815260200190565b60405180910390a28061104181614b61565b915050610f8a565b60006110568484846136fb565b6001600160a01b0384166000908152603460209081526040808320338452909152902054828110156110db5760405162461bcd60e51b815260206004820152602860248201527f45524332303a207472616e7366657220616d6f756e74206578636565647320616044820152676c6c6f77616e636560c01b6064820152608401610c78565b6110e885338584036135c0565b60019150505b9392505050565b6111143361110f6111046112eb565b60ca548591906138b7565b6138d9565b60405181815233906000805160206151418339815191529060200160405180910390a26111413382613a12565b50565b3361114d611b19565b6001600160a01b0316146111735760405162461bcd60e51b8152600401610c7890614abf565b8015806111f9575060c960009054906101000a90046001600160a01b03166001600160a01b031663313ce5676040518163ffffffff1660e01b8152600401602060405180830381865afa1580156111ce573d6000803e3d6000fd5b505050506040513d601f19601f820116820180604052508101906111f29190614b7c565b60ff166012145b6112365760405162461bcd60e51b815260206004820152600e60248201526d57524f4e475f444543494d414c5360901b6044820152606401610c78565b60d1805460ff191682151517905560405133907f6375b140d4463d47b864f1f47e5d2893cc3478e73aedcc268b054fab0230a84190610d2b90841515815260200190565b600061128a60d65460d7546136e5565b905090565b3360008181526034602090815260408083206001600160a01b03871684529091528120549091610d439185906112c6908690614b9f565b6135c0565b6000610d476112d86112eb565b60ca546112e48561182d565b9190613a87565b6000806112f760355490565b90508061130657505060ca5490565b61131c8160ca54611315613336565b91906138b7565b91505090565b61132a611b19565b6001600160a01b0316336001600160a01b0316148061134d575061134d3361359c565b6113695760405162461bcd60e51b8152600401610c7890614af4565b6001600160a01b038316600090815260d3602052604090205461010090046001600160f81b031680156114bb5760405163852a12e360e01b815260001960048201526001600160a01b0385169063852a12e3906024016020604051808303816000875af19250505080156113fa575060408051601f3d908101601f191682019092526113f791810190614b32565b60015b6114b957611406614bb7565b806308c379a014156114ad575061141b614bd3565b8061142657506114af565b6040517209098a07440a0a492868abe9a92a69a82a8869606b1b6020820152603301604051602081830303815290604052805190602001208160405160200161146f9190614c5c565b60405160208183030381529060405280519060200120141581906114a65760405162461bcd60e51b8152600401610c789190614587565b50506114bb565b505b3d6000803e3d6000fd5b505b6114c3613336565b8111156114da5760d480546001600160801b031690555b6001600160a01b038416600081815260d36020526040808220805460ff16905560d2805485900390555133917fe5211b194c7994bf5eba21ddab25713549e67c4c84028d2f28c1377195de0fb991a3836001600160a01b0316633dcf1342611540611b19565b85856040518463ffffffff1660e01b815260040161156093929190614c78565b600060405180830381600087803b15801561157a57600080fd5b505af115801561158e573d6000803e3d6000fd5b5050505050505050565b6115a0611b19565b6001600160a01b0316336001600160a01b031614806115c357506115c33361359c565b6115df5760405162461bcd60e51b8152600401610c7890614af4565b60d55460201161161e5760405162461bcd60e51b815260206004820152600a60248201526914d51050d2d7d195531360b21b6044820152606401610c78565b60d5805460018101825560009182527f51858de9989bf7441865ebdadbf7382c8838edbf830f5d86a9a51ac773676dd60180546001600160a01b0319166001600160a01b038416908117909155604051909133917fd3c85e764bd8fe5c02e811c9538a4d50d8ffff22143526e00197d3cd0d11178a9190a350565b60d45460cf546000916001600160401b03600160401b909104811691600160801b90041680820142106116cf5760009250505090565b60d454600160801b90046001600160801b031681428490038202816116f6576116f6614cd4565b0490039392505050565b611708611b19565b6001600160a01b0316336001600160a01b0316148061172b575061172b3361359c565b6117475760405162461bcd60e51b8152600401610c7890614af4565b6001600160a01b038216600081815260cc602052604090819020805460ff1916841515179055516000805160206151018339815191529061178d90841515815260200190565b60405180910390a25050565b6117a1611b19565b6001600160a01b0316336001600160a01b031614806117c457506117c43361359c565b6117e05760405162461bcd60e51b8152600401610c7890614af4565b60d8805460ff19168215151790556040517f63411fc6652bfc12996632223ff22fb3e99f1a970420a8d57a44d2f5ab30a5a09061182290831515815260200190565b60405180910390a150565b6001600160a01b031660009081526033602052604090205490565b33611851611b19565b6001600160a01b0316146118775760405162461bcd60e51b8152600401610c7890614abf565b6118816000613aa2565b565b3361188c611b19565b6001600160a01b0316146118b25760405162461bcd60e51b8152600401610c7890614abf565b6001600160401b0381166118ff5760405162461bcd60e51b815260206004820152601460248201527344454c41595f43414e4e4f545f42455f5a45524f60601b6044820152606401610c78565b6301e13380816001600160401b0316111561194d5760405162461bcd60e51b815260206004820152600e60248201526d44454c41595f544f4f5f4c4f4e4760901b6044820152606401610c78565b60cf54600160801b90046001600160401b03166119a85760cf8054600160801b600160c01b031916600160801b6001600160401b03841602179055604051339060008051602061512183398151915290610d2b9084906148b4565b60cf80546001600160c01b0316600160c01b6001600160401b0384160217905560405133907f342b344c0ac2ffff8f84b1d82d8235a2401a0accf4666f1fec4a1c3cdf1d29e790610d2b9084906148b4565b33611a03611b19565b6001600160a01b031614611a295760405162461bcd60e51b8152600401610c7890614abf565b670de0b6b3a7640000811115611a705760405162461bcd60e51b815260206004820152600c60248201526b08c8a8abea89e9ebe90928e960a31b6044820152606401610c78565b60ce81905560405181815233907fec370615cc81fb334e5566fbc80664d9082377bf59288d64a79f3fbecf4323a990602001610d2b565b60c9546040516370a0823160e01b81526000916001600160a01b0316906370a0823190611ad8903090600401614933565b602060405180830381865afa158015611af5573d6000803e3d6000fd5b505050506040513d601f19601f8201168201806040525081019061128a9190614b32565b6065546001600160a01b031690565b606060378054610bc690614a84565b611b3f611b19565b6001600160a01b0316336001600160a01b03161480611b625750611b623361359c565b611b7e5760405162461bcd60e51b8152600401610c7890614af4565b600060d58381548110611b9357611b93614b1c565b60009182526020909120015460d580546001600160a01b039092169250839185908110611bc257611bc2614b1c565b60009182526020918290200180546001600160a01b0319166001600160a01b039384161790556040518581528483169284169133917f4a0a125a0f77451ab4de43b53c0a93266c6e542ceaa7ae0067e4ba66b4ce3a2d91015b60405180910390a4505050565b611c30611b19565b6001600160a01b0316336001600160a01b03161480611c535750611c533361359c565b611c6f5760405162461bcd60e51b8152600401610c7890614af4565b60d5805460009190611c8390600190614cea565b81548110611c9357611c93614b1c565b60009182526020909120015460d580546001600160a01b0390921692509080611cbe57611cbe614d01565b600082815260208120820160001990810180546001600160a01b03191690559091019091556040516001600160a01b0383169133916000805160206151618339815191529190a350565b3360009081526034602090815260408083206001600160a01b038616845290915281205482811015611d8a5760405162461bcd60e51b815260206004820152602560248201527f45524332303a2064656372656173656420616c6c6f77616e63652062656c6f77604482015264207a65726f60d81b6064820152608401610c78565b611d9733858584036135c0565b5060019392505050565b33611daa611b19565b6001600160a01b031614611dd05760405162461bcd60e51b8152600401610c7890614abf565b6001600160a01b038216600081815260cd602052604090819020805460ff1916841515179055517f2458f684567d238b66deaa0126265bf3becabda0caaab7ebdda6b1794614a2d39061178d90841515815260200190565b6000610d433384846136fb565b611e3d611b19565b6001600160a01b0316336001600160a01b03161480611e605750611e603361359c565b611e7c5760405162461bcd60e51b8152600401610c7890614af4565b6020811115611ebd5760405162461bcd60e51b815260206004820152600d60248201526c535441434b5f544f4f5f42494760981b6044820152606401610c78565b611ec960d58383614473565b50336001600160a01b03167f93fc2f83177365343f59862c6a290117bb3036bca4db453f92d1c6e9163f5384838360405161178d929190614d17565b611f0d611b19565b6001600160a01b0316336001600160a01b03161480611f305750611f303361359c565b611f4c5760405162461bcd60e51b8152600401610c7890614af4565b60405181815233907f9493e5bbe4e8e0ac67284469a2d677403d0378a85a59e341d3abc433d0d9a2099060200160405180910390a2611141303383613af4565b611f94611b19565b6001600160a01b0316336001600160a01b03161480611fb75750611fb73361359c565b611fd35760405162461bcd60e51b8152600401610c7890614af4565b6001600160a01b038216600090815260d3602052604090205460ff1661200b5760405162461bcd60e51b8152600401610c7890614d65565b806120285760405162461bcd60e51b8152600401610c7890614d91565b61203181613b4a565b6001600160a01b038316600090815260d360205260409020805460019061206790849061010090046001600160f81b0316614dc0565b82546001600160f81b039182166101009390930a92830291909202199091161790555060d2805482900390556040518181526001600160a01b0383169033906000805160206151818339815191529060200160405180910390a360405163852a12e360e01b8152600481018290526001600160a01b0383169063852a12e3906024016020604051808303816000875af1158015612108573d6000803e3d6000fd5b505050506040513d601f19601f8201168201806040525081019061212c9190614b32565b156121495760405162461bcd60e51b8152600401610c7890614de8565b816001600160a01b031663ac784ddc6040518163ffffffff1660e01b8152600401602060405180830381865afa158015612187573d6000803e3d6000fd5b505050506040513d601f19601f820116820180604052508101906121ab9190614e0f565b15610f3c5760c960009054906101000a90046001600160a01b03166001600160a01b031663d0e30db0826040518263ffffffff1660e01b81526004016000604051808303818588803b15801561220057600080fd5b505af1158015612214573d6000803e3d6000fd5b50505050505050565b60d85460ff1680612232575061223233612331565b6122795760405162461bcd60e51b815260206004820152601860248201527715985d5b1d0e881393d517d3d397d0531313d5d7d31254d560421b6044820152606401610c78565b61228161127a565b612289613336565b6122939083614b9f565b11156122d05760405162461bcd60e51b815260206004820152600c60248201526b13d5915497d3505617d5159360a21b6044820152606401610c78565b6122e4336122df6111046112eb565b613b64565b60405181815233907fe1fffcc4923d04b559f4d29a8bfc6cda04eb5b0d3c460751c2402c5c5cc9109c9060200160405180910390a260c954611141906001600160a01b0316333084613c31565b600061233b611b19565b6001600160a01b0316826001600160a01b0316148061235e575061235e8261359c565b80610d475750506001600160a01b0316600090815260cc602052604090205460ff1690565b3361238c611b19565b6001600160a01b0316146123b25760405162461bcd60e51b8152600401610c7890614abf565b670de0b6b3a76400008111156123fc5760405162461bcd60e51b815260206004820152600f60248201526e0a882a48e8aa8bea89e9ebe90928e9608b1b6044820152606401610c78565b60d081905560405181815233907f95bc4480b51f4860106d42850bcae222cf3303fb2b7d433e896205e0ebefe36990602001610d2b565b61243b611b19565b6001600160a01b0316336001600160a01b0316148061245e575061245e3361359c565b61247a5760405162461bcd60e51b8152600401610c7890614af4565b6001600160a01b038216600090815260d3602052604090205460ff166124b25760405162461bcd60e51b8152600401610c7890614d65565b806124cf5760405162461bcd60e51b8152600401610c7890614d91565b8060d260008282546124e19190614b9f565b909155506124f0905081613b4a565b6001600160a01b038316600081815260d360205260409081902080546001600160f81b0361010080830482169096011690940260ff90941693909317909255905133907f49e9138fe0dacf001ea634236e38aa8bd229efd55ec4d7975228d679db6ce8f9906125629085815260200190565b60405180910390a3816001600160a01b031663ac784ddc6040518163ffffffff1660e01b8152600401602060405180830381865afa1580156125a8573d6000803e3d6000fd5b505050506040513d601f19601f820116820180604052508101906125cc9190614e0f565b1561266a5760c954604051632e1a7d4d60e01b8152600481018390526001600160a01b0390911690632e1a7d4d90602401600060405180830381600087803b15801561261757600080fd5b505af115801561262b573d6000803e3d6000fd5b50505050816001600160a01b0316631249c58b826040518263ffffffff1660e01b81526004016000604051808303818588803b15801561220057600080fd5b60c954612681906001600160a01b03168383613c69565b60405163140e25ad60e31b8152600481018290526001600160a01b0383169063a0712d68906024016020604051808303816000875af11580156126c8573d6000803e3d6000fd5b505050506040513d601f19601f820116820180604052508101906126ec9190614b32565b15610f3c5760405162461bcd60e51b815260206004820152600b60248201526a1352539517d1905253115160aa1b6044820152606401610c78565b61272f611b19565b6001600160a01b0316336001600160a01b0316148061275257506127523361359c565b61276e5760405162461bcd60e51b8152600401610c7890614af4565b60d580546000919061278290600190614cea565b8154811061279257612792614b1c565b600091825260208220015460d580546001600160a01b03909216935090849081106127bf576127bf614b1c565b60009182526020909120015460d580546001600160a01b0390921692508391859081106127ee576127ee614b1c565b9060005260206000200160006101000a8154816001600160a01b0302191690836001600160a01b0316021790555060d580548061282d5761282d614d01565b600082815260209020810160001990810180546001600160a01b03191690550190556040516001600160a01b03838116919083169033907f53bddc0ebb11647d046bd37b2965cd6d82f69c263b0b100658daad9ae79f41d890611c1b9088815260200190565b60d581815481106128a357600080fd5b6000918252602090912001546001600160a01b0316905081565b336128c6611b19565b6001600160a01b0316146128ec5760405162461bcd60e51b8152600401610c7890614abf565b6001600160a01b038116600081815260d36020526040808220805460ff191690555133917fff8fe190f3935e9e8681ce444b08be824a6be3e5184465ddbd710cc4f1a9f2f291a350565b61293e611b19565b6001600160a01b0316336001600160a01b0316148061296157506129613361359c565b61297d5760405162461bcd60e51b8152600401610c7890614af4565b60cf5460d4546129a7916001600160401b03600160801b909104811691600160401b900416614e2c565b6001600160401b031642106129d65760d480546001600160401b031916426001600160401b0316179055612a43565b60cf5460d4546129f8916001600160801b0316906001600160401b0316614e57565b6001600160801b0316421115612a435760405162461bcd60e51b815260206004820152601060248201526f4241445f484152564553545f54494d4560801b6044820152606401610c78565b60d254600081815b84811015612bc8576000868683818110612a6757612a67614b1c565b9050602002016020810190612a7c919061467f565b6001600160a01b038116600090815260d3602052604090205490915060ff16612ab75760405162461bcd60e51b8152600401610c7890614d65565b6001600160a01b038116600081815260d36020526040808220549051633af9e66960e01b81526101009091046001600160f81b03169290633af9e66990612b02903090600401614933565b6020604051808303816000875af1158015612b21573d6000803e3d6000fd5b505050506040513d601f19601f82011682018060405250810190612b459190614b32565b9050612b5081613b4a565b6001600160a01b038416600090815260d36020526040902080546001600160f81b03929092166101000260ff90921691909117905581612b908287614b9f565b612b9a9190614cea565b9450818111612baa576000612bae565b8181035b860195505050508080612bc090614b61565b915050612a4b565b5060ce54600090612be3908490670de0b6b3a7640000613a87565b9050612bf4306122df6111046112eb565b612c1a8184612c01611699565b612c0b9190614b9f565b612c159190614cea565b613d6d565b60d4805460d28590556001600160401b03428116600160401b02600160401b600160801b03196001600160801b0395909516600160801b029490941691161791909117905560405133907f69e9c71f6799744a94d9897e77c3ed426cc2f92ba0ef3300785368209b6f4b2d90612c939089908990614d17565b60405180910390a260cf54600160c01b90046001600160401b031680156122145760cf80546001600160801b0316600160801b6001600160401b038416026001600160c01b0316179055604051339060008051602061512183398151915290612cfd9084906148b4565b60405180910390a250505050505050565b612d16611b19565b6001600160a01b0316336001600160a01b03161480612d395750612d393361359c565b612d555760405162461bcd60e51b8152600401610c7890614af4565b8060d6819055506000805160206151c1833981519152612d7960d65460d7546136e5565b604051908152602001611822565b612d8f611b19565b6001600160a01b0316336001600160a01b03161480612db25750612db23361359c565b612dce5760405162461bcd60e51b8152600401610c7890614af4565b600060d58381548110612de357612de3614b1c565b600091825260208220015460d580546001600160a01b0390921693509084908110612e1057612e10614b1c565b60009182526020909120015460d580546001600160a01b039092169250829186908110612e3f57612e3f614b1c565b9060005260206000200160006101000a8154816001600160a01b0302191690836001600160a01b031602179055508160d58481548110612e8157612e81614b1c565b60009182526020918290200180546001600160a01b0319166001600160a01b03938416179055604080518781529182018690528483169284169133917f86d0d8ebf0f4d918d7d5ea876055270042ae67e3ba4af1023531eaf10045b6da910160405180910390a450505050565b6000612f06612efb6112eb565b60ca54849190613a87565b9050612f1233836138d9565b60405181815233906000805160206151418339815191529060200160405180910390a2610f3c3382613a12565b33612f48611b19565b6001600160a01b031614612f6e5760405162461bcd60e51b8152600401610c7890614abf565b612f7782613358565b6001600160a01b038316600090815260d3602052604090205461010090046001600160f81b0316801561302d57612fae8482611f8c565b60c9546040516370a0823160e01b815261302d9185916108d4916001600160a01b0316906370a0823190612fe6903090600401614933565b602060405180830381865afa158015613003573d6000803e3d6000fd5b505050506040513d601f19601f820116820180604052508101906130279190614b32565b846136e5565b60d554821015613046576130418284611b37565b61304f565b61304f83611598565b613058846128bd565b50505050565b600054610100900460ff166130795760005460ff161561307d565b303b155b6130e05760405162461bcd60e51b815260206004820152602e60248201527f496e697469616c697a61626c653a20636f6e747261637420697320616c72656160448201526d191e481a5b9a5d1a585b1a5e995960921b6064820152608401610c78565b600054610100900460ff16158015613102576000805461ffff19166101011790555b613214876001600160a01b03166306fdde036040518163ffffffff1660e01b8152600401600060405180830381865afa158015613143573d6000803e3d6000fd5b505050506040513d6000823e601f3d908101601f1916820160405261316b9190810190614e79565b60405160200161317b9190614f10565b604051602081830303815290604052886001600160a01b03166395d89b416040518163ffffffff1660e01b8152600401600060405180830381865afa1580156131c8573d6000803e3d6000fd5b505050506040513d6000823e601f3d908101601f191682016040526131f09190810190614e79565b6040516020016132009190614f4e565b604051602081830303815290604052613d83565b61321c613dbc565b613224613deb565b866001600160a01b031663313ce5676040518163ffffffff1660e01b8152600401602060405180830381865afa158015613262573d6000803e3d6000fd5b505050506040513d601f19601f820116820180604052508101906132869190614b7c565b60ff1660cb81905560c980546001600160a01b0319166001600160a01b038a161790556132b490600a61505c565b60ca556132c2856001611da1565b6132cb846119fa565b6132d483611883565b6132dd82610c49565b60405133907f908408e307fc569b417f6cbec5d5a06f44a0a505ac0479b47d421a4b2fd6a1e690600090a261331186613aa2565b60001960d681905560d7558015612214576000805461ff001916905550505050505050565b6000613340611699565b60d25403905061334e611aa7565b61128a9082614b9f565b33613361611b19565b6001600160a01b0316146133875760405162461bcd60e51b8152600401610c7890614abf565b806001600160a01b031663ac784ddc6040518163ffffffff1660e01b8152600401602060405180830381865afa1580156133c5573d6000803e3d6000fd5b505050506040513d601f19601f820116820180604052508101906133e99190614e0f565b61346c5760c95460408051636f307dc360e01b815290516001600160a01b0392831692841691636f307dc39160048083019260209291908290030181865afa158015613439573d6000803e3d6000fd5b505050506040513d601f19601f8201168201806040525081019061345d9190615068565b6001600160a01b031614613473565b60d15460ff165b6134b25760405162461bcd60e51b815260206004820152601060248201526f57524f4e475f554e4445524c59494e4760801b6044820152606401610c78565b6001600160a01b038116600081815260d36020526040808220805460ff191660011790555133917f2fc1f5b589e399a463bf89605c1539bdd9878a9a3acd089abeca7a15e1fbe6ec91a350565b33613508611b19565b6001600160a01b03161461352e5760405162461bcd60e51b8152600401610c7890614abf565b6001600160a01b0381166135935760405162461bcd60e51b815260206004820152602660248201527f4f776e61626c653a206e6577206f776e657220697320746865207a65726f206160448201526564647265737360d01b6064820152608401610c78565b61114181613aa2565b6001600160a01b0316600090815260cd602052604090205460ff1690565b3b151590565b6001600160a01b0383166136225760405162461bcd60e51b8152602060048201526024808201527f45524332303a20617070726f76652066726f6d20746865207a65726f206164646044820152637265737360e01b6064820152608401610c78565b6001600160a01b0382166136835760405162461bcd60e51b815260206004820152602260248201527f45524332303a20617070726f766520746f20746865207a65726f206164647265604482015261737360f01b6064820152608401610c78565b6001600160a01b0383811660008181526034602090815260408083209487168084529482529182902085905590518481527f8c5be1e5ebec7d5bd14f71427d1e84f3dd0314c0f7b2291e5b200ac8c7c3b92591015b60405180910390a3505050565b60008183106136f457816110ee565b5090919050565b6001600160a01b03831661375f5760405162461bcd60e51b815260206004820152602560248201527f45524332303a207472616e736665722066726f6d20746865207a65726f206164604482015264647265737360d81b6064820152608401610c78565b6001600160a01b0382166137c15760405162461bcd60e51b815260206004820152602360248201527f45524332303a207472616e7366657220746f20746865207a65726f206164647260448201526265737360e81b6064820152608401610c78565b6001600160a01b038316600090815260336020526040902054818110156138395760405162461bcd60e51b815260206004820152602660248201527f45524332303a207472616e7366657220616d6f756e7420657863656564732062604482015265616c616e636560d01b6064820152608401610c78565b6001600160a01b03808516600090815260336020526040808220858503905591851681529081208054849290613870908490614b9f565b92505081905550826001600160a01b0316846001600160a01b03166000805160206151a1833981519152846040516138aa91815260200190565b60405180910390a3613058565b8281028215158415858304841417166138cf57600080fd5b9190910492915050565b6001600160a01b0382166139395760405162461bcd60e51b815260206004820152602160248201527f45524332303a206275726e2066726f6d20746865207a65726f206164647265736044820152607360f81b6064820152608401610c78565b6001600160a01b038216600090815260336020526040902054818110156139ad5760405162461bcd60e51b815260206004820152602260248201527f45524332303a206275726e20616d6f756e7420657863656564732062616c616e604482015261636560f01b6064820152608401610c78565b6001600160a01b03831660009081526033602052604081208383039055603580548492906139dc908490614cea565b90915550506040518281526000906001600160a01b038516906000805160206151a1833981519152906020016136d8565b505050565b6000613a1c611aa7565b905080821115613a70576000613a4a60d054670de0b6b3a764000085613a40613336565b6112e49190614cea565b90506000613a588385614cea565b9050613a6d613a678383614b9f565b84613e22565b50505b60c954613a0d906001600160a01b03168484613af4565b8282028315848204841417613a9b57600080fd5b0492915050565b606580546001600160a01b038381166001600160a01b0319831681179093556040519116919082907f8be0079c531659141344cd1fd0a4f28419497f9722a3daafe3b4186f6b6457e090600090a35050565b613a0d8363a9059cbb60e01b8484604051602401613b13929190615085565b60408051601f198184030181529190526020810180516001600160e01b03166001600160e01b031990931692909217909152614156565b60006001600160f81b03821115613b6057600080fd5b5090565b6001600160a01b038216613bba5760405162461bcd60e51b815260206004820152601f60248201527f45524332303a206d696e7420746f20746865207a65726f2061646472657373006044820152606401610c78565b8060356000828254613bcc9190614b9f565b90915550506001600160a01b03821660009081526033602052604081208054839290613bf9908490614b9f565b90915550506040518181526001600160a01b038316906000906000805160206151a18339815191529060200160405180910390a35050565b6040516001600160a01b03808516602483015283166044820152606481018290526130589085906323b872dd60e01b90608401613b13565b801580613ce35750604051636eb1769f60e11b81523060048201526001600160a01b03838116602483015284169063dd62ed3e90604401602060405180830381865afa158015613cbd573d6000803e3d6000fd5b505050506040513d601f19601f82011682018060405250810190613ce19190614b32565b155b613d4e5760405162461bcd60e51b815260206004820152603660248201527f5361666545524332303a20617070726f76652066726f6d206e6f6e2d7a65726f60448201527520746f206e6f6e2d7a65726f20616c6c6f77616e636560501b6064820152608401610c78565b613a0d8363095ea7b360e01b8484604051602401613b13929190615085565b60006001600160801b03821115613b6057600080fd5b600054610100900460ff16613daa5760405162461bcd60e51b8152600401610c789061509e565b613db2614228565b610f3c828261424f565b600054610100900460ff16613de35760405162461bcd60e51b8152600401610c789061509e565b61188161429d565b600054610100900460ff16613e125760405162461bcd60e51b8152600401610c789061509e565b613e1a614228565b6118816142cb565b60d5548290600090613e3690600190614cea565b90505b600060d58281548110613e4e57613e4e614b1c565b60009182526020808320909101546001600160a01b031680835260d39091526040909120549091506001600160f81b036101008204169060ff161580613e92575080155b15613ef65760d5805480613ea857613ea8614d01565b600082815260208120820160001990810180546001600160a01b03191690559091019091556040516001600160a01b0384169133916000805160206151618339815191529190a35050614134565b6000848211613f055781613f07565b845b9050826001600160a01b0316336001600160a01b031660008051602061518183398151915283604051613f3c91815260200190565b60405180910390a360405163852a12e360e01b8152600481018290526001600160a01b0384169063852a12e3906024016020604051808303816000875af1158015613f8b573d6000803e3d6000fd5b505050506040513d601f19601f82011682018060405250810190613faf9190614b32565b15613fcc5760405162461bcd60e51b8152600401610c7890614de8565b60d15460ff161561404a574780156140485760c960009054906101000a90046001600160a01b03166001600160a01b031663d0e30db0826040518263ffffffff1660e01b81526004016000604051808303818588803b15801561402e57600080fd5b505af1158015614042573d6000803e3d6000fd5b50505050505b505b6000614054611aa7565b968791508103600081851161406a57600061406e565b8185035b905061407981613b4a565b6001600160a01b038716600090815260d36020526040902080546001600160f81b03929092166101000260ff9092169190911790558188116140bc5760006140c0565b8188035b9750806141205760d58054806140d8576140d8614d01565b600082815260208120820160001990810180546001600160a01b03191690559091019091556040516001600160a01b0388169133916000805160206151618339815191529190a35b5050508461413057505050614146565b5050505b8061413e816150e9565b915050613e39565b505060d280549290920390915550565b60006141ab826040518060400160405280602081526020017f5361666545524332303a206c6f772d6c6576656c2063616c6c206661696c6564815250856001600160a01b03166142fb9092919063ffffffff16565b805190915015613a0d57808060200190518101906141c99190614e0f565b613a0d5760405162461bcd60e51b815260206004820152602a60248201527f5361666545524332303a204552433230206f7065726174696f6e20646964206e6044820152691bdd081cdd58d8d9595960b21b6064820152608401610c78565b600054610100900460ff166118815760405162461bcd60e51b8152600401610c789061509e565b600054610100900460ff166142765760405162461bcd60e51b8152600401610c789061509e565b81516142899060369060208501906144d2565b508051613a0d9060379060208401906144d2565b600054610100900460ff166142c45760405162461bcd60e51b8152600401610c789061509e565b6001609755565b600054610100900460ff166142f25760405162461bcd60e51b8152600401610c789061509e565b61188133613aa2565b606061430a8484600085614312565b949350505050565b6060824710156143735760405162461bcd60e51b815260206004820152602660248201527f416464726573733a20696e73756666696369656e742062616c616e636520666f6044820152651c8818d85b1b60d21b6064820152608401610c78565b843b6143c15760405162461bcd60e51b815260206004820152601d60248201527f416464726573733a2063616c6c20746f206e6f6e2d636f6e74726163740000006044820152606401610c78565b600080866001600160a01b031685876040516143dd9190614c5c565b60006040518083038185875af1925050503d806000811461441a576040519150601f19603f3d011682016040523d82523d6000602084013e61441f565b606091505b509150915061442f82828661443a565b979650505050505050565b606083156144495750816110ee565b8251156144595782518084602001fd5b8160405162461bcd60e51b8152600401610c789190614587565b8280548282559060005260206000209081019282156144c6579160200282015b828111156144c65781546001600160a01b0319166001600160a01b03843516178255602090920191600190910190614493565b50613b60929150614546565b8280546144de90614a84565b90600052602060002090601f01602090048101928261450057600085556144c6565b82601f1061451957805160ff19168380011785556144c6565b828001600101855582156144c6579182015b828111156144c657825182559160200191906001019061452b565b5b80821115613b605760008155600101614547565b60005b8381101561457657818101518382015260200161455e565b838111156130585750506000910152565b60208152600082518060208401526145a681604085016020870161455b565b601f01601f19169190910160400192915050565b80356001600160801b03811681146145d157600080fd5b919050565b6000602082840312156145e857600080fd5b6110ee826145ba565b6001600160a01b038116811461114157600080fd5b6000806040838503121561461957600080fd5b8235614624816145f1565b946020939093013593505050565b6020808252825182820181905260009190848201906040850190845b818110156146735783516001600160a01b03168352928401929184019160010161464e565b50909695505050505050565b60006020828403121561469157600080fd5b81356110ee816145f1565b634e487b7160e01b600052604160045260246000fd5b601f8201601f191681016001600160401b03811182821017156146d7576146d761469c565b6040525050565b600060208083850312156146f157600080fd5b82356001600160401b038082111561470857600080fd5b818501915085601f83011261471c57600080fd5b81358181111561472e5761472e61469c565b8060051b9150604051614743858401826146b2565b8181529183018401918481018884111561475c57600080fd5b938501935b838510156147845784359250614776836145f1565b828152938501938501614761565b50979650505050505050565b6000806000606084860312156147a557600080fd5b83356147b0816145f1565b925060208401356147c0816145f1565b929592945050506040919091013590565b6000602082840312156147e357600080fd5b5035919050565b801515811461114157600080fd5b60006020828403121561480a57600080fd5b81356110ee816147ea565b60008083601f84011261482757600080fd5b5081356001600160401b0381111561483e57600080fd5b6020830191508360208260051b850101111561485957600080fd5b9250929050565b60008060006040848603121561487557600080fd5b8335614880816145f1565b925060208401356001600160401b0381111561489b57600080fd5b6148a786828701614815565b9497909650939450505050565b6001600160401b0391909116815260200190565b600080604083850312156148db57600080fd5b82356148e6816145f1565b915060208301356148f6816147ea565b809150509250929050565b80356001600160401b03811681146145d157600080fd5b60006020828403121561492a57600080fd5b6110ee82614901565b6001600160a01b0391909116815260200190565b6000806040838503121561495a57600080fd5b8235915060208301356148f6816145f1565b6000806020838503121561497f57600080fd5b82356001600160401b0381111561499557600080fd5b6149a185828601614815565b90969095509350505050565b6001600160801b0391909116815260200190565b600080604083850312156149d457600080fd5b50508035926020909101359150565b600080604083850312156149f657600080fd5b8235614a01816145f1565b915060208301356148f6816145f1565b60008060008060008060c08789031215614a2a57600080fd5b8635614a35816145f1565b95506020870135614a45816145f1565b94506040870135614a55816145f1565b935060608701359250614a6a60808801614901565b9150614a7860a088016145ba565b90509295509295509295565b600181811c90821680614a9857607f821691505b60208210811415614ab957634e487b7160e01b600052602260045260246000fd5b50919050565b6020808252818101527f4f776e61626c653a2063616c6c6572206973206e6f7420746865206f776e6572604082015260600190565b6020808252600e908201526d0acc2ead8e874409c9ebe82aaa8960931b604082015260600190565b634e487b7160e01b600052603260045260246000fd5b600060208284031215614b4457600080fd5b5051919050565b634e487b7160e01b600052601160045260246000fd5b6000600019821415614b7557614b75614b4b565b5060010190565b600060208284031215614b8e57600080fd5b815160ff811681146110ee57600080fd5b60008219821115614bb257614bb2614b4b565b500190565b600060033d1115614bd05760046000803e5060005160e01c5b90565b600060443d1015614be15790565b6040516003193d81016004833e81513d6001600160401b038083116024840183101715614c1057505050505090565b8285019150815181811115614c285750505050505090565b843d8701016020828501011115614c425750505050505090565b614c51602082860101876146b2565b509095945050505050565b60008251614c6e81846020870161455b565b9190910192915050565b6001600160a01b03848116825260406020808401829052908301849052600091859160608501845b87811015614cc7578435614cb3816145f1565b841682529382019390820190600101614ca0565b5098975050505050505050565b634e487b7160e01b600052601260045260246000fd5b600082821015614cfc57614cfc614b4b565b500390565b634e487b7160e01b600052603160045260246000fd5b60208082528181018390526000908460408401835b86811015614d5a578235614d3f816145f1565b6001600160a01b031682529183019190830190600101614d2c565b509695505050505050565b602080825260129082015271554e545255535445445f535452415445475960701b604082015260600190565b602080825260159082015274414d4f554e545f43414e4e4f545f42455f5a45524f60581b604082015260600190565b60006001600160f81b0383811690831681811015614de057614de0614b4b565b039392505050565b6020808252600d908201526c14915111515357d19052531151609a1b604082015260600190565b600060208284031215614e2157600080fd5b81516110ee816147ea565b60006001600160401b03828116848216808303821115614e4e57614e4e614b4b565b01949350505050565b60006001600160801b03828116848216808303821115614e4e57614e4e614b4b565b600060208284031215614e8b57600080fd5b81516001600160401b0380821115614ea257600080fd5b818401915084601f830112614eb657600080fd5b815181811115614ec857614ec861469c565b6040519150614ee1601f8201601f1916602001836146b2565b808252856020828501011115614ef657600080fd5b614f0781602084016020860161455b565b50949350505050565b65029b1b4b7b7160d51b815260008251614f3181600685016020870161455b565b650815985d5b1d60d21b6006939091019283015250600c01919050565b61736360f01b815260008251614f6b81600285016020870161455b565b9190910160020192915050565b600181815b80851115614fb3578160001904821115614f9957614f99614b4b565b80851615614fa657918102915b93841c9390800290614f7d565b509250929050565b600082614fca57506001610d47565b81614fd757506000610d47565b8160018114614fed5760028114614ff757615013565b6001915050610d47565b60ff84111561500857615008614b4b565b50506001821b610d47565b5060208310610133831016604e8410600b8410161715615036575081810a610d47565b6150408383614f78565b806000190482111561505457615054614b4b565b029392505050565b60006110ee8383614fbb565b60006020828403121561507a57600080fd5b81516110ee816145f1565b6001600160a01b03929092168252602082015260400190565b6020808252602b908201527f496e697469616c697a61626c653a20636f6e7472616374206973206e6f74206960408201526a6e697469616c697a696e6760a81b606082015260800190565b6000816150f8576150f8614b4b565b50600019019056fe19048f3850ef1c105bc7786a6aba25c1644bec347aa37265ebb5cdacac6dfa91e893fa207c5a5094cad036347b877c23ebecd9df94ae0426f287040c13220b3f884edad9ce6fa2440d8a54cc123490eb96d2768479d49ff9c7366125a942436457075a8110ddb2863422424e354eb417b3b58b5ebce466afa64f3d894154507e8d851b682e239b1de720e92e5c5cffdb72d353104cc63dc6ed144d7080217fbeddf252ad1be2c89b69c2b068fc378daa952ba7f163c4a11628f55a4df523b3ef7f3922ae986170d8fafba84aef002be412156213e5390345e45b51ddb8ab7e15a26469706673582212203eb42211946877c99b5ea4dde765b643b22e9088f4193c832dd4a1f65bb7913f64736f6c634300080a0033",
  "devdoc": {
    "author": "Transmissions11 and JetJadeja",
    "events": {
      "Deposit(address,uint256)": {
        "params": {
          "underlyingAmount": "The amount of underlying tokens that were deposited.",
          "user": "The address that deposited into the Vault."
        }
      },
      "FeePercentUpdated(address,uint256)": {
        "params": {
          "newFeePercent": "The new fee percentage.",
          "user": "The authorized user who triggered the update."
        }
      },
      "FeesClaimed(address,uint256)": {
        "params": {
          "rvTokenAmount": "The amount of rvTokens that were claimed.",
          "user": "The authorized user who claimed the fees."
        }
      },
      "Harvest(address,address[])": {
        "params": {
          "strategies": "The trusted strategies that were harvested.",
          "user": "The authorized user who triggered the harvest."
        }
      },
      "HarvestDelayUpdateScheduled(address,uint64)": {
        "params": {
          "newHarvestDelay": "The scheduled updated harvest delay.",
          "user": "The authorized user who triggered the update."
        }
      },
      "HarvestDelayUpdated(address,uint64)": {
        "params": {
          "newHarvestDelay": "The new harvest delay.",
          "user": "The authorized user who triggered the update."
        }
      },
      "HarvestWindowUpdated(address,uint128)": {
        "params": {
          "newHarvestWindow": "The new harvest window.",
          "user": "The authorized user who triggered the update."
        }
      },
      "Initialized(address)": {
        "params": {
          "user": "The authorized user who triggered the initialization."
        }
      },
      "StrategyDeposit(address,address,uint256)": {
        "params": {
          "strategy": "The strategy that was deposited into.",
          "underlyingAmount": "The amount of underlying tokens that were deposited.",
          "user": "The authorized user who triggered the deposit."
        }
      },
      "StrategyDistrusted(address,address)": {
        "params": {
          "strategy": "The strategy that became untrusted.",
          "user": "The authorized user who untrusted the strategy."
        }
      },
      "StrategySeized(address,address)": {
        "params": {
          "strategy": "The strategy that was seized.",
          "user": "The authorized user who triggered the seize."
        }
      },
      "StrategyTrusted(address,address)": {
        "params": {
          "strategy": "The strategy that became trusted.",
          "user": "The authorized user who trusted the strategy."
        }
      },
      "StrategyWithdrawal(address,address,uint256)": {
        "params": {
          "strategy": "The strategy that was withdrawn from.",
          "underlyingAmount": "The amount of underlying tokens that were withdrawn.",
          "user": "The authorized user who triggered the withdrawal."
        }
      },
      "TargetFloatPercentUpdated(address,uint256)": {
        "params": {
          "newTargetFloatPercent": "The new target float percentage.",
          "user": "The authorized user who triggered the update."
        }
      },
      "UnderlyingIsWETHUpdated(address,bool)": {
        "params": {
          "newUnderlyingIsWETH": "Whether the Vault nows treats the underlying as WETH.",
          "user": "The authorized user who triggered the update."
        }
      },
      "Withdraw(address,uint256)": {
        "params": {
          "underlyingAmount": "The amount of underlying tokens that were withdrawn.",
          "user": "The address that withdrew from the Vault."
        }
      },
      "WithdrawalQueueIndexReplaced(address,uint256,address,address)": {
        "params": {
          "index": "The index of the replaced strategy in the withdrawal queue.",
          "replacedStrategy": "The strategy in the withdrawal queue that was replaced.",
          "replacementStrategy": "The strategy that overrode the replaced strategy at the index.",
          "user": "The authorized user who triggered the replacement."
        }
      },
      "WithdrawalQueueIndexReplacedWithTip(address,uint256,address,address)": {
        "params": {
          "index": "The index of the replaced strategy in the withdrawal queue.",
          "previousTipStrategy": "The previous tip of the queue that replaced the strategy.",
          "replacedStrategy": "The strategy in the withdrawal queue replaced by the tip.",
          "user": "The authorized user who triggered the replacement."
        }
      },
      "WithdrawalQueueIndexesSwapped(address,uint256,uint256,address,address)": {
        "params": {
          "index1": "One index involved in the swap",
          "index2": "The other index involved in the swap.",
          "newStrategy1": "The strategy (previously at index2) that replaced index1.",
          "newStrategy2": "The strategy (previously at index1) that replaced index2.",
          "user": "The authorized user who triggered the swap."
        }
      },
      "WithdrawalQueuePopped(address,address)": {
        "params": {
          "poppedStrategy": "The strategy popped from the withdrawal queue.",
          "user": "The authorized user who triggered the pop."
        }
      },
      "WithdrawalQueuePushed(address,address)": {
        "params": {
          "pushedStrategy": "The strategy pushed to the withdrawal queue.",
          "user": "The authorized user who triggered the push."
        }
      },
      "WithdrawalQueueSet(address,address[])": {
        "params": {
          "replacedWithdrawalQueue": "The new withdrawal queue.",
          "user": "The authorized user who triggered the set."
        }
      }
    },
    "kind": "dev",
    "methods": {
      "addStrategy(address)": {
        "params": {
          "strategy": "The strategy to add."
        }
      },
      "allowance(address,address)": {
        "details": "See {IERC20-allowance}."
      },
      "approve(address,uint256)": {
        "details": "See {IERC20-approve}. Requirements: - `spender` cannot be the zero address."
      },
      "balanceOf(address)": {
        "details": "See {IERC20-balanceOf}."
      },
      "balanceOfUnderlying(address)": {
        "params": {
          "user": "The user to get the underlying balance of."
        },
        "returns": {
          "_0": "The user's Vault balance in underlying tokens."
        }
      },
      "claimFees(uint256)": {
        "details": "Accrued fees are measured as rvTokens held by the Vault.",
        "params": {
          "rvTokenAmount": "The amount of rvTokens to claim."
        }
      },
      "constructor": {
        "custom:oz-upgrades-unsafe-allow": "constructor"
      },
      "decimals()": {
        "details": "Returns the number of decimals used to get its user representation. For example, if `decimals` equals `2`, a balance of `505` tokens should be displayed to a user as `5.05` (`505 / 10 ** 2`). Tokens usually opt for a value of 18, imitating the relationship between Ether and Wei. This is the value {ERC20} uses, unless this function is overridden; NOTE: This information is only used for _display_ purposes: it in no way affects any of the arithmetic of the contract, including {IERC20-balanceOf} and {IERC20-transfer}."
      },
      "decreaseAllowance(address,uint256)": {
        "details": "Atomically decreases the allowance granted to `spender` by the caller. This is an alternative to {approve} that can be used as a mitigation for problems described in {IERC20-approve}. Emits an {Approval} event indicating the updated allowance. Requirements: - `spender` cannot be the zero address. - `spender` must have allowance for the caller of at least `subtractedValue`."
      },
      "deposit(uint256)": {
        "params": {
          "underlyingAmount": "The amount of the underlying token to deposit."
        }
      },
      "depositIntoStrategy(address,uint256)": {
        "params": {
          "strategy": "The trusted strategy to deposit into.",
          "underlyingAmount": "The amount of underlying tokens in float to deposit."
        }
      },
      "distrustStrategy(address)": {
        "params": {
          "strategy": "The strategy to make untrusted."
        }
      },
      "exchangeRate()": {
        "returns": {
          "_0": "The amount of underlying tokens an rvToken can be redeemed for."
        }
      },
      "getWithdrawalQueue()": {
        "details": "This is provided because Solidity converts public arrays into index getters, but we need a way to allow external contracts and users to access the whole array.",
        "returns": {
          "_0": "An ordered array of strategies representing the withdrawal queue."
        }
      },
      "harvest(address[])": {
        "details": "Will always revert if called outside of an active harvest window or before the harvest delay has passed.",
        "params": {
          "strategies": "The trusted strategies to harvest."
        }
      },
      "increaseAllowance(address,uint256)": {
        "details": "Atomically increases the allowance granted to `spender` by the caller. This is an alternative to {approve} that can be used as a mitigation for problems described in {IERC20-approve}. Emits an {Approval} event indicating the updated allowance. Requirements: - `spender` cannot be the zero address."
      },
      "initialize(address,address,address,uint256,uint64,uint128)": {
        "params": {
          "_UNDERLYING": "The ERC20 compliant token the Vault should accept."
        }
      },
      "lockedProfit()": {
        "returns": {
          "_0": "The current amount of locked profit."
        }
      },
      "migrateStrategy(address,address,uint256)": {
        "params": {
          "newStrategy": "The strategy to add.",
          "prevStrategy": "The strategy to remove."
        }
      },
      "name()": {
        "details": "Returns the name of the token."
      },
      "owner()": {
        "details": "Returns the address of the current owner."
      },
      "popFromWithdrawalQueue()": {
        "details": "Be careful, another authorized user could push a different strategy than expected to the queue while a popFromWithdrawalQueue transaction is pending."
      },
      "pushToWithdrawalQueue(address)": {
        "details": "Strategies that are untrusted, duplicated, or have no balance are filtered out when encountered at withdrawal time, not validated upfront.",
        "params": {
          "strategy": "The strategy to be inserted at the front of the withdrawal queue."
        }
      },
      "redeem(uint256)": {
        "params": {
          "rvTokenAmount": "The amount of rvTokens to redeem for underlying tokens."
        }
      },
      "renounceOwnership()": {
        "details": "Leaves the contract without owner. It will not be possible to call `onlyOwner` functions anymore. Can only be called by the current owner. NOTE: Renouncing ownership will leave the contract without an owner, thereby removing any functionality that is only available to the owner."
      },
      "replaceWithdrawalQueueIndex(uint256,address)": {
        "details": "Strategies that are untrusted, duplicated, or have no balance are filtered out when encountered at withdrawal time, not validated upfront.",
        "params": {
          "index": "The index in the queue to replace.",
          "replacementStrategy": "The strategy to override the index with."
        }
      },
      "replaceWithdrawalQueueIndexWithTip(uint256)": {
        "params": {
          "index": "The index of the strategy in the withdrawal queue to replace with the tip."
        }
      },
      "seizeStrategy(address,address[])": {
        "details": "Intended for use in emergencies or other extraneous situations where the strategy requires interaction outside of the Vault's standard operating procedures.",
        "params": {
          "strategy": "The strategy to seize."
        }
      },
      "setFeePercent(uint256)": {
        "params": {
          "newFeePercent": "The new fee percentage."
        }
      },
      "setHarvestDelay(uint64)": {
        "details": "If the current harvest delay is 0, meaning it has not been set before, it will be updated immediately, otherwise it will be scheduled to take effect after the next harvest.",
        "params": {
          "newHarvestDelay": "The new harvest delay to set."
        }
      },
      "setHarvestWindow(uint128)": {
        "details": "The Vault's harvestDelay must already be set before calling.",
        "params": {
          "newHarvestWindow": "The new harvest window."
        }
      },
      "setTargetFloatPercent(uint256)": {
        "params": {
          "newTargetFloatPercent": "The new target float percentage."
        }
      },
      "setUnderlyingIsWETH(bool)": {
        "details": "The underlying token must have 18 decimals, to match Ether's decimal scheme.",
        "params": {
          "newUnderlyingIsWETH": "Whether the Vault should treat the underlying as WETH."
        }
      },
      "setWithdrawalQueue(address[])": {
        "details": "Strategies that are untrusted, duplicated, or have no balance are filtered out when encountered at withdrawal time, not validated upfront.",
        "params": {
          "newQueue": "The new withdrawal queue."
        }
      },
      "swapWithdrawalQueueIndexes(uint256,uint256)": {
        "params": {
          "index1": "One index involved in the swap",
          "index2": "The other index involved in the swap."
        }
      },
      "symbol()": {
        "details": "Returns the symbol of the token, usually a shorter version of the name."
      },
      "totalFloat()": {
        "returns": {
          "_0": "The amount of underlying tokens that sit idly in the Vault."
        }
      },
      "totalHoldings()": {
        "returns": {
          "totalUnderlyingHeld": "The total amount of underlying tokens the Vault holds."
        }
      },
      "totalSupply()": {
        "details": "See {IERC20-totalSupply}."
      },
      "transfer(address,uint256)": {
        "details": "See {IERC20-transfer}. Requirements: - `recipient` cannot be the zero address. - the caller must have a balance of at least `amount`."
      },
      "transferFrom(address,address,uint256)": {
        "details": "See {IERC20-transferFrom}. Emits an {Approval} event indicating the updated allowance. This is not required by the EIP. See the note at the beginning of {ERC20}. Requirements: - `sender` and `recipient` cannot be the zero address. - `sender` must have a balance of at least `amount`. - the caller must have allowance for ``sender``'s tokens of at least `amount`."
      },
      "transferOwnership(address)": {
        "details": "Transfers ownership of the contract to a new account (`newOwner`). Can only be called by the current owner."
      },
      "trustStrategy(address)": {
        "params": {
          "strategy": "The strategy to make trusted."
        }
      },
      "withdraw(uint256)": {
        "params": {
          "underlyingAmount": "The amount of underlying tokens to withdraw."
        }
      },
      "withdrawFromStrategy(address,uint256)": {
        "details": "Withdrawing from a strategy will not remove it from the withdrawal queue.",
        "params": {
          "strategy": "The strategy to withdraw from.",
          "underlyingAmount": "The amount of underlying tokens to withdraw."
        }
      }
    },
    "stateVariables": {
      "BASE_UNIT": {
        "details": "Equal to 10 ** decimals. Used for fixed point arithmetic."
      },
      "MAX_WITHDRAWAL_STACK_SIZE": {
        "details": "Needed to prevent denial of service attacks by queue operators."
      },
      "feePercent": {
        "details": "A fixed point number where 1e18 represents 100% and 0 represents 0%."
      },
      "harvestDelay": {
        "details": "Cannot be 0 as it opens harvests up to sandwich attacks."
      },
      "harvestWindow": {
        "details": "Long harvest windows open the Vault up to profit distribution slowdown attacks."
      },
      "lastHarvestWindowStart": {
        "details": "May be equal to lastHarvest if there was/has only been one harvest in the most last/current window."
      },
      "nextHarvestDelay": {
        "details": "In the case that the next delay is 0, no update will be applied."
      },
      "targetFloatPercent": {
        "details": "A fixed point number where 1e18 represents 100% and 0 represents 0%."
      },
      "totalStrategyHoldings": {
        "details": "Includes maxLockedProfit, must be correctly subtracted to compute available/free holdings."
      },
      "underlyingIsWETH": {
        "details": "If enabled the Vault will allow trusting strategies that accept Ether."
      },
      "withdrawalQueue": {
        "details": "The queue is processed in descending order, meaning the last index will be withdrawn from first.Strategies that are untrusted, duplicated, or have no balance are filtered out when encountered at withdrawal time, not validated upfront, meaning the queue may not reflect the \"true\" set used for withdrawals."
      }
    },
    "title": "Rari Vault (rvToken)",
    "version": 1
  },
  "userdoc": {
    "events": {
      "Deposit(address,uint256)": {
        "notice": "Emitted after a successful deposit."
      },
      "FeePercentUpdated(address,uint256)": {
        "notice": "Emitted when the fee percentage is updated."
      },
      "FeesClaimed(address,uint256)": {
        "notice": "Emitted after fees are claimed."
      },
      "Harvest(address,address[])": {
        "notice": "Emitted after a successful harvest."
      },
      "HarvestDelayUpdateScheduled(address,uint64)": {
        "notice": "Emitted when the harvest delay is scheduled to be updated next harvest."
      },
      "HarvestDelayUpdated(address,uint64)": {
        "notice": "Emitted when the harvest delay is updated."
      },
      "HarvestWindowUpdated(address,uint128)": {
        "notice": "Emitted when the harvest window is updated."
      },
      "Initialized(address)": {
        "notice": "Emitted when the Vault is initialized."
      },
      "StrategyDeposit(address,address,uint256)": {
        "notice": "Emitted after the Vault deposits into a strategy contract."
      },
      "StrategyDistrusted(address,address)": {
        "notice": "Emitted when a strategy is set to untrusted."
      },
      "StrategySeized(address,address)": {
        "notice": "Emitted after a strategy is seized."
      },
      "StrategyTrusted(address,address)": {
        "notice": "Emitted when a strategy is set to trusted."
      },
      "StrategyWithdrawal(address,address,uint256)": {
        "notice": "Emitted after the Vault withdraws funds from a strategy contract."
      },
      "TargetFloatPercentUpdated(address,uint256)": {
        "notice": "Emitted when the target float percentage is updated."
      },
      "UnderlyingIsWETHUpdated(address,bool)": {
        "notice": "Emitted when whether the Vault should treat the underlying as WETH is updated."
      },
      "Withdraw(address,uint256)": {
        "notice": "Emitted after a successful withdrawal."
      },
      "WithdrawalQueueIndexReplaced(address,uint256,address,address)": {
        "notice": "Emitted when an index in the withdrawal queue is replaced."
      },
      "WithdrawalQueueIndexReplacedWithTip(address,uint256,address,address)": {
        "notice": "Emitted when an index in the withdrawal queue is replaced with the tip."
      },
      "WithdrawalQueueIndexesSwapped(address,uint256,uint256,address,address)": {
        "notice": "Emitted when the strategies at two indexes are swapped."
      },
      "WithdrawalQueuePopped(address,address)": {
        "notice": "Emitted when a strategy is popped from the withdrawal queue."
      },
      "WithdrawalQueuePushed(address,address)": {
        "notice": "Emitted when a strategy is pushed to the withdrawal queue."
      },
      "WithdrawalQueueSet(address,address[])": {
        "notice": "Emitted when the withdrawal queue is updated."
      }
    },
    "kind": "user",
    "methods": {
      "BASE_UNIT()": {
        "notice": "The base unit of the underlying token and hence rvToken."
      },
      "UNDERLYING()": {
        "notice": "The underlying token the Vault accepts."
      },
      "addStrategy(address)": {
        "notice": "Helper method to add strategy and push it to the que in one tx."
      },
      "balanceOfUnderlying(address)": {
        "notice": "Returns a user's Vault balance in underlying tokens."
      },
      "claimFees(uint256)": {
        "notice": "Claims fees accrued from harvests."
      },
      "constructor": {
        "notice": "security: marks implementation contract as initialized"
      },
      "deposit(uint256)": {
        "notice": "Deposit a specific amount of underlying tokens."
      },
      "depositIntoStrategy(address,uint256)": {
        "notice": "Deposit a specific amount of float into a trusted strategy."
      },
      "distrustStrategy(address)": {
        "notice": "Stores a strategy as untrusted, disabling it from being harvested."
      },
      "exchangeRate()": {
        "notice": "Returns the amount of underlying tokens an rvToken can be redeemed for."
      },
      "feePercent()": {
        "notice": "The percentage of profit recognized each harvest to reserve as fees."
      },
      "getStrategyData(address)": {
        "notice": "Maps strategies to data the Vault holds on them."
      },
      "getWithdrawalQueue()": {
        "notice": "Gets the full withdrawal queue."
      },
      "harvest(address[])": {
        "notice": "Harvest a set of trusted strategies."
      },
      "harvestDelay()": {
        "notice": "The period in seconds over which locked profit is unlocked."
      },
      "harvestWindow()": {
        "notice": "The period in seconds during which multiple harvests can occur regardless if they are taking place before the harvest delay has elapsed."
      },
      "initialize(address,address,address,uint256,uint64,uint128)": {
        "notice": "Creates a new Vault that accepts a specific underlying token."
      },
      "lastHarvest()": {
        "notice": "A timestamp representing when the most recent harvest occurred."
      },
      "lastHarvestWindowStart()": {
        "notice": "A timestamp representing when the first harvest in the most recent harvest window occurred."
      },
      "lockedProfit()": {
        "notice": "Calculates the current amount of locked profit."
      },
      "maxLockedProfit()": {
        "notice": "The amount of locked profit at the end of the last harvest."
      },
      "migrateStrategy(address,address,uint256)": {
        "notice": "Helper method to migrate strategy to a new implementation."
      },
      "nextHarvestDelay()": {
        "notice": "The value that will replace harvestDelay next harvest."
      },
      "popFromWithdrawalQueue()": {
        "notice": "Removes the strategy at the tip of the withdrawal queue."
      },
      "pushToWithdrawalQueue(address)": {
        "notice": "Pushes a single strategy to front of the withdrawal queue."
      },
      "redeem(uint256)": {
        "notice": "Redeem a specific amount of rvTokens for underlying tokens."
      },
      "replaceWithdrawalQueueIndex(uint256,address)": {
        "notice": "Replaces an index in the withdrawal queue with another strategy."
      },
      "replaceWithdrawalQueueIndexWithTip(uint256)": {
        "notice": "Moves the strategy at the tip of the queue to the specified index and pop the tip off the queue."
      },
      "seizeStrategy(address,address[])": {
        "notice": "Seizes a strategy."
      },
      "setFeePercent(uint256)": {
        "notice": "Sets a new fee percentage."
      },
      "setHarvestDelay(uint64)": {
        "notice": "Sets a new harvest delay."
      },
      "setHarvestWindow(uint128)": {
        "notice": "Sets a new harvest window."
      },
      "setTargetFloatPercent(uint256)": {
        "notice": "Set a new target float percentage."
      },
      "setUnderlyingIsWETH(bool)": {
        "notice": "Sets whether the Vault treats the underlying as WETH."
      },
      "setWithdrawalQueue(address[])": {
        "notice": "Sets a new withdrawal queue."
      },
      "swapWithdrawalQueueIndexes(uint256,uint256)": {
        "notice": "Swaps two indexes in the withdrawal queue."
      },
      "targetFloatPercent()": {
        "notice": "The desired percentage of the Vault's holdings to keep as float."
      },
      "totalFloat()": {
        "notice": "Returns the amount of underlying tokens that idly sit in the Vault."
      },
      "totalHoldings()": {
        "notice": "Calculates the total amount of underlying tokens the Vault holds."
      },
      "totalStrategyHoldings()": {
        "notice": "The total amount of underlying tokens held in strategies at the time of the last harvest."
      },
      "trustStrategy(address)": {
        "notice": "Stores a strategy as trusted, enabling it to be harvested."
      },
      "underlyingIsWETH()": {
        "notice": "Whether the Vault should treat the underlying token as WETH compatible."
      },
      "withdraw(uint256)": {
        "notice": "Withdraw a specific amount of underlying tokens."
      },
      "withdrawFromStrategy(address,uint256)": {
        "notice": "Withdraw a specific amount of underlying tokens from a strategy."
      },
      "withdrawalQueue(uint256)": {
        "notice": "An ordered array of strategies representing the withdrawal queue."
      }
    },
    "notice": "Flexible, minimalist, and gas-optimized yield aggregator for earning interest on any ERC20 token.",
    "version": 1
  },
  "storageLayout": {
    "storage": [
      {
        "astId": 132,
        "contract": "src/vault/VaultUpgradable.sol:VaultUpgradable",
        "label": "_initialized",
        "offset": 0,
        "slot": "0",
        "type": "t_bool"
      },
      {
        "astId": 135,
        "contract": "src/vault/VaultUpgradable.sol:VaultUpgradable",
        "label": "_initializing",
        "offset": 1,
        "slot": "0",
        "type": "t_bool"
      },
      {
        "astId": 1454,
        "contract": "src/vault/VaultUpgradable.sol:VaultUpgradable",
        "label": "__gap",
        "offset": 0,
        "slot": "1",
        "type": "t_array(t_uint256)50_storage"
      },
      {
        "astId": 276,
        "contract": "src/vault/VaultUpgradable.sol:VaultUpgradable",
        "label": "_balances",
        "offset": 0,
        "slot": "51",
        "type": "t_mapping(t_address,t_uint256)"
      },
      {
        "astId": 282,
        "contract": "src/vault/VaultUpgradable.sol:VaultUpgradable",
        "label": "_allowances",
        "offset": 0,
        "slot": "52",
        "type": "t_mapping(t_address,t_mapping(t_address,t_uint256))"
      },
      {
        "astId": 284,
        "contract": "src/vault/VaultUpgradable.sol:VaultUpgradable",
        "label": "_totalSupply",
        "offset": 0,
        "slot": "53",
        "type": "t_uint256"
      },
      {
        "astId": 286,
        "contract": "src/vault/VaultUpgradable.sol:VaultUpgradable",
        "label": "_name",
        "offset": 0,
        "slot": "54",
        "type": "t_string_storage"
      },
      {
        "astId": 288,
        "contract": "src/vault/VaultUpgradable.sol:VaultUpgradable",
        "label": "_symbol",
        "offset": 0,
        "slot": "55",
        "type": "t_string_storage"
      },
      {
        "astId": 829,
        "contract": "src/vault/VaultUpgradable.sol:VaultUpgradable",
        "label": "__gap",
        "offset": 0,
        "slot": "56",
        "type": "t_array(t_uint256)45_storage"
      },
      {
        "astId": 10,
        "contract": "src/vault/VaultUpgradable.sol:VaultUpgradable",
        "label": "_owner",
        "offset": 0,
        "slot": "101",
        "type": "t_address"
      },
      {
        "astId": 124,
        "contract": "src/vault/VaultUpgradable.sol:VaultUpgradable",
        "label": "__gap",
        "offset": 0,
        "slot": "102",
        "type": "t_array(t_uint256)49_storage"
      },
      {
        "astId": 213,
        "contract": "src/vault/VaultUpgradable.sol:VaultUpgradable",
        "label": "_status",
        "offset": 0,
        "slot": "151",
        "type": "t_uint256"
      },
      {
        "astId": 256,
        "contract": "src/vault/VaultUpgradable.sol:VaultUpgradable",
        "label": "__gap",
        "offset": 0,
        "slot": "152",
        "type": "t_array(t_uint256)49_storage"
      },
      {
        "astId": 36403,
        "contract": "src/vault/VaultUpgradable.sol:VaultUpgradable",
        "label": "UNDERLYING",
        "offset": 0,
        "slot": "201",
        "type": "t_contract(IERC20)3990"
      },
      {
        "astId": 36406,
        "contract": "src/vault/VaultUpgradable.sol:VaultUpgradable",
        "label": "BASE_UNIT",
        "offset": 0,
        "slot": "202",
        "type": "t_uint256"
      },
      {
        "astId": 36408,
        "contract": "src/vault/VaultUpgradable.sol:VaultUpgradable",
        "label": "_decimals",
        "offset": 0,
        "slot": "203",
        "type": "t_uint256"
      },
      {
        "astId": 36590,
        "contract": "src/vault/VaultUpgradable.sol:VaultUpgradable",
        "label": "_allowed",
        "offset": 0,
        "slot": "204",
        "type": "t_mapping(t_address,t_bool)"
      },
      {
        "astId": 36686,
        "contract": "src/vault/VaultUpgradable.sol:VaultUpgradable",
        "label": "_managers",
        "offset": 0,
        "slot": "205",
        "type": "t_mapping(t_address,t_bool)"
      },
      {
        "astId": 36746,
        "contract": "src/vault/VaultUpgradable.sol:VaultUpgradable",
        "label": "feePercent",
        "offset": 0,
        "slot": "206",
        "type": "t_uint256"
      },
      {
        "astId": 36803,
        "contract": "src/vault/VaultUpgradable.sol:VaultUpgradable",
        "label": "harvestWindow",
        "offset": 0,
        "slot": "207",
        "type": "t_uint128"
      },
      {
        "astId": 36806,
        "contract": "src/vault/VaultUpgradable.sol:VaultUpgradable",
        "label": "harvestDelay",
        "offset": 16,
        "slot": "207",
        "type": "t_uint64"
      },
      {
        "astId": 36809,
        "contract": "src/vault/VaultUpgradable.sol:VaultUpgradable",
        "label": "nextHarvestDelay",
        "offset": 24,
        "slot": "207",
        "type": "t_uint64"
      },
      {
        "astId": 36887,
        "contract": "src/vault/VaultUpgradable.sol:VaultUpgradable",
        "label": "targetFloatPercent",
        "offset": 0,
        "slot": "208",
        "type": "t_uint256"
      },
      {
        "astId": 36923,
        "contract": "src/vault/VaultUpgradable.sol:VaultUpgradable",
        "label": "underlyingIsWETH",
        "offset": 0,
        "slot": "209",
        "type": "t_bool"
      },
      {
        "astId": 36969,
        "contract": "src/vault/VaultUpgradable.sol:VaultUpgradable",
        "label": "totalStrategyHoldings",
        "offset": 0,
        "slot": "210",
        "type": "t_uint256"
      },
      {
        "astId": 36981,
        "contract": "src/vault/VaultUpgradable.sol:VaultUpgradable",
        "label": "getStrategyData",
        "offset": 0,
        "slot": "211",
        "type": "t_mapping(t_contract(Strategy)15891,t_struct(StrategyData)36974_storage)"
      },
      {
        "astId": 36984,
        "contract": "src/vault/VaultUpgradable.sol:VaultUpgradable",
        "label": "lastHarvestWindowStart",
        "offset": 0,
        "slot": "212",
        "type": "t_uint64"
      },
      {
        "astId": 36987,
        "contract": "src/vault/VaultUpgradable.sol:VaultUpgradable",
        "label": "lastHarvest",
        "offset": 8,
        "slot": "212",
        "type": "t_uint64"
      },
      {
        "astId": 36990,
        "contract": "src/vault/VaultUpgradable.sol:VaultUpgradable",
        "label": "maxLockedProfit",
        "offset": 16,
        "slot": "212",
        "type": "t_uint128"
      },
      {
        "astId": 36995,
        "contract": "src/vault/VaultUpgradable.sol:VaultUpgradable",
        "label": "withdrawalQueue",
        "offset": 0,
        "slot": "213",
        "type": "t_array(t_contract(Strategy)15891)dyn_storage"
      },
      {
        "astId": 38604,
        "contract": "src/vault/VaultUpgradable.sol:VaultUpgradable",
        "label": "_maxTvl",
        "offset": 0,
        "slot": "214",
        "type": "t_uint256"
      },
      {
        "astId": 38606,
        "contract": "src/vault/VaultUpgradable.sol:VaultUpgradable",
        "label": "_stratMaxTvl",
        "offset": 0,
        "slot": "215",
        "type": "t_uint256"
      },
      {
        "astId": 38608,
        "contract": "src/vault/VaultUpgradable.sol:VaultUpgradable",
        "label": "_isPublic",
        "offset": 0,
        "slot": "216",
        "type": "t_bool"
      }
    ],
    "types": {
      "t_address": {
        "encoding": "inplace",
        "label": "address",
        "numberOfBytes": "20"
      },
      "t_array(t_contract(Strategy)15891)dyn_storage": {
        "base": "t_contract(Strategy)15891",
        "encoding": "dynamic_array",
        "label": "contract Strategy[]",
        "numberOfBytes": "32"
      },
      "t_array(t_uint256)45_storage": {
        "base": "t_uint256",
        "encoding": "inplace",
        "label": "uint256[45]",
        "numberOfBytes": "1440"
      },
      "t_array(t_uint256)49_storage": {
        "base": "t_uint256",
        "encoding": "inplace",
        "label": "uint256[49]",
        "numberOfBytes": "1568"
      },
      "t_array(t_uint256)50_storage": {
        "base": "t_uint256",
        "encoding": "inplace",
        "label": "uint256[50]",
        "numberOfBytes": "1600"
      },
      "t_bool": {
        "encoding": "inplace",
        "label": "bool",
        "numberOfBytes": "1"
      },
      "t_contract(IERC20)3990": {
        "encoding": "inplace",
        "label": "contract IERC20",
        "numberOfBytes": "20"
      },
      "t_contract(Strategy)15891": {
        "encoding": "inplace",
        "label": "contract Strategy",
        "numberOfBytes": "20"
      },
      "t_mapping(t_address,t_bool)": {
        "encoding": "mapping",
        "key": "t_address",
        "label": "mapping(address => bool)",
        "numberOfBytes": "32",
        "value": "t_bool"
      },
      "t_mapping(t_address,t_mapping(t_address,t_uint256))": {
        "encoding": "mapping",
        "key": "t_address",
        "label": "mapping(address => mapping(address => uint256))",
        "numberOfBytes": "32",
        "value": "t_mapping(t_address,t_uint256)"
      },
      "t_mapping(t_address,t_uint256)": {
        "encoding": "mapping",
        "key": "t_address",
        "label": "mapping(address => uint256)",
        "numberOfBytes": "32",
        "value": "t_uint256"
      },
      "t_mapping(t_contract(Strategy)15891,t_struct(StrategyData)36974_storage)": {
        "encoding": "mapping",
        "key": "t_contract(Strategy)15891",
        "label": "mapping(contract Strategy => struct VaultUpgradable.StrategyData)",
        "numberOfBytes": "32",
        "value": "t_struct(StrategyData)36974_storage"
      },
      "t_string_storage": {
        "encoding": "bytes",
        "label": "string",
        "numberOfBytes": "32"
      },
      "t_struct(StrategyData)36974_storage": {
        "encoding": "inplace",
        "label": "struct VaultUpgradable.StrategyData",
        "members": [
          {
            "astId": 36971,
            "contract": "src/vault/VaultUpgradable.sol:VaultUpgradable",
            "label": "trusted",
            "offset": 0,
            "slot": "0",
            "type": "t_bool"
          },
          {
            "astId": 36973,
            "contract": "src/vault/VaultUpgradable.sol:VaultUpgradable",
            "label": "balance",
            "offset": 1,
            "slot": "0",
            "type": "t_uint248"
          }
        ],
        "numberOfBytes": "32"
      },
      "t_uint128": {
        "encoding": "inplace",
        "label": "uint128",
        "numberOfBytes": "16"
      },
      "t_uint248": {
        "encoding": "inplace",
        "label": "uint248",
        "numberOfBytes": "31"
      },
      "t_uint256": {
        "encoding": "inplace",
        "label": "uint256",
        "numberOfBytes": "32"
      },
      "t_uint64": {
        "encoding": "inplace",
        "label": "uint64",
        "numberOfBytes": "8"
      }
    }
  }
}