{
  "address": "0x75079AcAEB581e28040A049cA780e543F722eBdf",
  "abi": [
    {
      "inputs": [
        {
          "internalType": "contract UpgradeableBeacon",
          "name": "beacon_",
          "type": "address"
        }
      ],
      "stateMutability": "nonpayable",
      "type": "constructor"
    },
    {
      "anonymous": false,
      "inputs": [
        {
          "indexed": true,
          "internalType": "address",
          "name": "previousOwner",
          "type": "address"
        },
        {
          "indexed": true,
          "internalType": "address",
          "name": "newOwner",
          "type": "address"
        }
      ],
      "name": "OwnershipTransferred",
      "type": "event"
    },
    {
      "anonymous": false,
      "inputs": [
        {
          "indexed": false,
          "internalType": "contract BeaconProxy",
          "name": "vault",
          "type": "address"
        },
        {
          "indexed": false,
          "internalType": "contract IERC20",
          "name": "underlying",
          "type": "address"
        }
      ],
      "name": "VaultDeployed",
      "type": "event"
    },
    {
      "inputs": [
        {
          "internalType": "contract IERC20",
          "name": "underlying",
          "type": "address"
        },
        {
          "internalType": "uint256",
          "name": "id",
          "type": "uint256"
        },
        {
          "internalType": "bytes",
          "name": "_callData",
          "type": "bytes"
        }
      ],
      "name": "deployVault",
      "outputs": [
        {
          "internalType": "contract BeaconProxy",
          "name": "vault",
          "type": "address"
        }
      ],
      "stateMutability": "nonpayable",
      "type": "function"
    },
    {
      "inputs": [
        {
          "internalType": "contract IERC20",
          "name": "underlying",
          "type": "address"
        },
        {
          "internalType": "uint256",
          "name": "id",
          "type": "uint256"
        }
      ],
      "name": "getVaultFromUnderlying",
      "outputs": [
        {
          "internalType": "contract BeaconProxy",
          "name": "",
          "type": "address"
        }
      ],
      "stateMutability": "view",
      "type": "function"
    },
    {
      "inputs": [],
      "name": "implementation",
      "outputs": [
        {
          "internalType": "address",
          "name": "",
          "type": "address"
        }
      ],
      "stateMutability": "view",
      "type": "function"
    },
    {
      "inputs": [
        {
          "internalType": "address",
          "name": "vault",
          "type": "address"
        }
      ],
      "name": "isVaultDeployed",
      "outputs": [
        {
          "internalType": "bool",
          "name": "",
          "type": "bool"
        }
      ],
      "stateMutability": "view",
      "type": "function"
    },
    {
      "inputs": [],
      "name": "owner",
      "outputs": [
        {
          "internalType": "address",
          "name": "",
          "type": "address"
        }
      ],
      "stateMutability": "view",
      "type": "function"
    },
    {
      "inputs": [],
      "name": "renounceOwnership",
      "outputs": [],
      "stateMutability": "nonpayable",
      "type": "function"
    },
    {
      "inputs": [
        {
          "internalType": "address",
          "name": "newOwner",
          "type": "address"
        }
      ],
      "name": "transferOwnership",
      "outputs": [],
      "stateMutability": "nonpayable",
      "type": "function"
    }
  ],
  "transactionHash": "0xd8bacdb137796b95bf8ac5e604e5f1b1d29f9beb5734ca8442c9255fb12da989",
  "args": [
    "0x96b6A3e2048Db602Ffd71E5A2c7351673A77e1f6"
  ],
  "numDeployments": 1,
  "solcInputHash": "840d0470c3757998b83f67edf2c60b6b",
  "bytecode": "0x60a060405234801561001057600080fd5b5060405161145138038061145183398101604081905261002f91610099565b61003833610049565b6001600160a01b03166080526100c9565b600080546001600160a01b038381166001600160a01b0319831681178455604051919092169283917f8be0079c531659141344cd1fd0a4f28419497f9722a3daafe3b4186f6b6457e09190a35050565b6000602082840312156100ab57600080fd5b81516001600160a01b03811681146100c257600080fd5b9392505050565b60805161135f6100f26000396000818161017c015281816102340152610370015261135f6000f3fe60806040523480156200001157600080fd5b5060043610620000765760003560e01c806307fd3150146200007b5780635c60da1b14620000af578063715018a614620000b95780637d6020f414620000c55780638da5cb5b14620000ed578063aa04f8ac14620000f7578063f2fde38b146200010e575b600080fd5b620000926200008c3660046200074b565b62000125565b6040516001600160a01b0390911681526020015b60405180910390f35b6200009262000230565b620000c3620002bc565b005b620000dc620000d636600462000823565b620002fe565b6040519015158152602001620000a6565b620000926200030d565b620000926200010836600462000843565b6200031c565b620000c36200011f36600462000823565b62000432565b600033620001326200030d565b6001600160a01b031614620001645760405162461bcd60e51b81526004016200015b9062000872565b60405180910390fd5b82620001796001600160a01b038616620004db565b177f0000000000000000000000000000000000000000000000000000000000000000604051620001a99062000711565b620001b59190620008a7565b8190604051809103906000f5905080158015620001d6573d6000803e3d6000fd5b509050620001e58183620004eb565b50604080516001600160a01b038084168252861660208201527f09d75e12e349f79020715b0ea7b2c707e8acf1889b6d6f1337fce7f4e1b9e5c7910160405180910390a19392505050565b60007f00000000000000000000000000000000000000000000000000000000000000006001600160a01b0316635c60da1b6040518163ffffffff1660e01b8152600401602060405180830381865afa15801562000291573d6000803e3d6000fd5b505050506040513d601f19601f82011682018060405250810190620002b79190620008ca565b905090565b33620002c76200030d565b6001600160a01b031614620002f05760405162461bcd60e51b81526004016200015b9062000872565b620002fc60006200052f565b565b6001600160a01b03163b151590565b6000546001600160a01b031690565b60006200042b6001600160f81b03193084620003416001600160a01b038816620004db565b1760405180602001620003549062000711565b601f1982820381018352601f90910116604081905262000399907f000000000000000000000000000000000000000000000000000000000000000090602001620008a7565b60408051601f1981840301815290829052620003b992916020016200091d565b604051602081830303815290604052805190602001206040516020016200041294939291906001600160f81b031994909416845260609290921b6001600160601b03191660018401526015830152603582015260550190565b6040516020818303038152906040528051906020012090565b9392505050565b336200043d6200030d565b6001600160a01b031614620004665760405162461bcd60e51b81526004016200015b9062000872565b6001600160a01b038116620004cd5760405162461bcd60e51b815260206004820152602660248201527f4f776e61626c653a206e6577206f776e657220697320746865207a65726f206160448201526564647265737360d01b60648201526084016200015b565b620004d8816200052f565b50565b60601b6001600160601b03191690565b60606200042b83836040518060400160405280601e81526020017f416464726573733a206c6f772d6c6576656c2063616c6c206661696c656400008152506200057f565b600080546001600160a01b038381166001600160a01b0319831681178455604051919092169283917f8be0079c531659141344cd1fd0a4f28419497f9722a3daafe3b4186f6b6457e09190a35050565b606062000590848460008562000598565b949350505050565b606082471015620005fb5760405162461bcd60e51b815260206004820152602660248201527f416464726573733a20696e73756666696369656e742062616c616e636520666f6044820152651c8818d85b1b60d21b60648201526084016200015b565b6200060685620002fe565b620006545760405162461bcd60e51b815260206004820152601d60248201527f416464726573733a2063616c6c20746f206e6f6e2d636f6e747261637400000060448201526064016200015b565b600080866001600160a01b0316858760405162000672919062000950565b60006040518083038185875af1925050503d8060008114620006b1576040519150601f19603f3d011682016040523d82523d6000602084013e620006b6565b606091505b5091509150620006c8828286620006d3565b979650505050505050565b60608315620006e45750816200042b565b825115620006f55782518084602001fd5b8160405162461bcd60e51b81526004016200015b91906200096e565b61098680620009a483390190565b6001600160a01b0381168114620004d857600080fd5b634e487b7160e01b600052604160045260246000fd5b6000806000606084860312156200076157600080fd5b83356200076e816200071f565b92506020840135915060408401356001600160401b03808211156200079257600080fd5b818601915086601f830112620007a757600080fd5b813581811115620007bc57620007bc62000735565b604051601f8201601f19908116603f01168101908382118183101715620007e757620007e762000735565b816040528281528960208487010111156200080157600080fd5b8260208601602083013760006020848301015280955050505050509250925092565b6000602082840312156200083657600080fd5b81356200042b816200071f565b600080604083850312156200085757600080fd5b823562000864816200071f565b946020939093013593505050565b6020808252818101527f4f776e61626c653a2063616c6c6572206973206e6f7420746865206f776e6572604082015260600190565b6001600160a01b0391909116815260406020820181905260009082015260600190565b600060208284031215620008dd57600080fd5b81516200042b816200071f565b60005b8381101562000907578181015183820152602001620008ed565b8381111562000917576000848401525b50505050565b6000835162000931818460208801620008ea565b83519083019062000947818360208801620008ea565b01949350505050565b6000825162000964818460208701620008ea565b9190910192915050565b60208152600082518060208401526200098f816040850160208701620008ea565b601f01601f1916919091016040019291505056fe608060405260405161098638038061098683398101604081905261002291610489565b61004d60017fa3f0ad74e5423aebfd80d3ef4346578335a9a72aeaee59ff6cb3582b35133d51610549565b60008051602061093f833981519152146100695761006961056e565b6100758282600061007c565b50506105ee565b61008583610147565b6040516001600160a01b038416907f1cf3b03a6cf19fa2baba4df148e9dcabedea7f8a5c07840e207e5c089be95d3e90600090a26000825111806100c65750805b1561014257610140836001600160a01b0316635c60da1b6040518163ffffffff1660e01b8152600401602060405180830381865afa15801561010c573d6000803e3d6000fd5b505050506040513d601f19601f820116820180604052508101906101309190610584565b836102d860201b6100291760201c565b505b505050565b61015a8161030460201b6100551760201c565b6101b95760405162461bcd60e51b815260206004820152602560248201527f455243313936373a206e657720626561636f6e206973206e6f74206120636f6e6044820152641d1c9858dd60da1b60648201526084015b60405180910390fd5b61022d816001600160a01b0316635c60da1b6040518163ffffffff1660e01b8152600401602060405180830381865afa1580156101fa573d6000803e3d6000fd5b505050506040513d601f19601f8201168201806040525081019061021e9190610584565b61030460201b6100551760201c565b6102925760405162461bcd60e51b815260206004820152603060248201527f455243313936373a20626561636f6e20696d706c656d656e746174696f6e206960448201526f1cc81b9bdd08184818dbdb9d1c9858dd60821b60648201526084016101b0565b806102b760008051602061093f83398151915260001b61031360201b6100641760201c565b80546001600160a01b0319166001600160a01b039290921691909117905550565b60606102fd838360405180606001604052806027815260200161095f60279139610316565b9392505050565b6001600160a01b03163b151590565b90565b606061032184610304565b61037c5760405162461bcd60e51b815260206004820152602660248201527f416464726573733a2064656c65676174652063616c6c20746f206e6f6e2d636f6044820152651b9d1c9858dd60d21b60648201526084016101b0565b600080856001600160a01b031685604051610397919061059f565b600060405180830381855af49150503d80600081146103d2576040519150601f19603f3d011682016040523d82523d6000602084013e6103d7565b606091505b5090925090506103e88282866103f2565b9695505050505050565b606083156104015750816102fd565b8251156104115782518084602001fd5b8160405162461bcd60e51b81526004016101b091906105bb565b80516001600160a01b038116811461044257600080fd5b919050565b634e487b7160e01b600052604160045260246000fd5b60005b83811015610478578181015183820152602001610460565b838111156101405750506000910152565b6000806040838503121561049c57600080fd5b6104a58361042b565b60208401519092506001600160401b03808211156104c257600080fd5b818501915085601f8301126104d657600080fd5b8151818111156104e8576104e8610447565b604051601f8201601f19908116603f0116810190838211818310171561051057610510610447565b8160405282815288602084870101111561052957600080fd5b61053a83602083016020880161045d565b80955050505050509250929050565b60008282101561056957634e487b7160e01b600052601160045260246000fd5b500390565b634e487b7160e01b600052600160045260246000fd5b60006020828403121561059657600080fd5b6102fd8261042b565b600082516105b181846020870161045d565b9190910192915050565b60208152600082518060208401526105da81604085016020870161045d565b601f01601f19169190910160400192915050565b610342806105fd6000396000f3fe60806040523661001357610011610017565b005b6100115b610027610022610067565b610100565b565b606061004e83836040518060600160405280602781526020016102e660279139610124565b9392505050565b6001600160a01b03163b151590565b90565b600061009a7fa3f0ad74e5423aebfd80d3ef4346578335a9a72aeaee59ff6cb3582b35133d50546001600160a01b031690565b6001600160a01b0316635c60da1b6040518163ffffffff1660e01b8152600401602060405180830381865afa1580156100d7573d6000803e3d6000fd5b505050506040513d601f19601f820116820180604052508101906100fb919061023d565b905090565b3660008037600080366000845af43d6000803e80801561011f573d6000f35b3d6000fd5b606061012f84610055565b61018f5760405162461bcd60e51b815260206004820152602660248201527f416464726573733a2064656c65676174652063616c6c20746f206e6f6e2d636f6044820152651b9d1c9858dd60d21b60648201526084015b60405180910390fd5b600080856001600160a01b0316856040516101aa9190610296565b600060405180830381855af49150503d80600081146101e5576040519150601f19603f3d011682016040523d82523d6000602084013e6101ea565b606091505b50915091506101fa828286610204565b9695505050505050565b6060831561021357508161004e565b8251156102235782518084602001fd5b8160405162461bcd60e51b815260040161018691906102b2565b60006020828403121561024f57600080fd5b81516001600160a01b038116811461004e57600080fd5b60005b83811015610281578181015183820152602001610269565b83811115610290576000848401525b50505050565b600082516102a8818460208701610266565b9190910192915050565b60208152600082518060208401526102d1816040850160208701610266565b601f01601f1916919091016040019291505056fe416464726573733a206c6f772d6c6576656c2064656c65676174652063616c6c206661696c6564a26469706673582212204e3bab3097b8963465449879b57c2dcaa708f1d544943691b7772517bc98921564736f6c634300080a0033a3f0ad74e5423aebfd80d3ef4346578335a9a72aeaee59ff6cb3582b35133d50416464726573733a206c6f772d6c6576656c2064656c65676174652063616c6c206661696c6564a2646970667358221220d7aedbb2aa5fdc1be5a0dc74779a5d9b9290022b9638db0191efca649ba014c964736f6c634300080a0033",
  "devdoc": {
    "author": "0x0scion (based on Rari Vault Factory)",
    "events": {
      "VaultDeployed(address,address)": {
        "params": {
          "underlying": "The underlying token the new Vault accepts.",
          "vault": "The newly deployed Vault contract."
        }
      }
    },
    "kind": "dev",
    "methods": {
      "deployVault(address,uint256,bytes)": {
        "details": "This will revert if a Vault that accepts the same underlying token has already been deployed.",
        "params": {
          "id": "We may have different vaults w different credit ratings for the same asset",
          "underlying": "The ERC20 token that the Vault should accept."
        },
        "returns": {
          "vault": "The newly deployed Vault contract which accepts the provided underlying token."
        }
      },
      "getVaultFromUnderlying(address,uint256)": {
        "details": "The Vault returned may not be deployed yet. Use isVaultDeployed to check.",
        "params": {
          "id": "We may have different vaults w different credit ratings for the same asset",
          "underlying": "The ERC20 token that the Vault should accept."
        },
        "returns": {
          "_0": "The address of a Vault which accepts the provided underlying token."
        }
      },
      "isVaultDeployed(address)": {
        "details": "This function is useful to check the return values of getVaultFromUnderlying, as it does not check that the Vault addresses it computes have been deployed yet.",
        "params": {
          "vault": "The address of a Vault which may not have been deployed yet."
        },
        "returns": {
          "_0": "A boolean indicating whether the Vault has been deployed already."
        }
      },
      "owner()": {
        "details": "Returns the address of the current owner."
      },
      "renounceOwnership()": {
        "details": "Leaves the contract without owner. It will not be possible to call `onlyOwner` functions anymore. Can only be called by the current owner. NOTE: Renouncing ownership will leave the contract without an owner, thereby removing any functionality that is only available to the owner."
      },
      "transferOwnership(address)": {
        "details": "Transfers ownership of the contract to a new account (`newOwner`). Can only be called by the current owner."
      }
    },
    "title": "Scion Vault Factory",
    "version": 1
  },
  "userdoc": {
    "events": {
      "VaultDeployed(address,address)": {
        "notice": "Emitted when a new Vault is deployed."
      }
    },
    "kind": "user",
    "methods": {
      "constructor": {
        "notice": "Creates a Vault factory."
      },
      "deployVault(address,uint256,bytes)": {
        "notice": "Deploys a new Vault which supports a specific underlying token."
      },
      "getVaultFromUnderlying(address,uint256)": {
        "notice": "Computes a Vault's address from its accepted underlying token."
      },
      "isVaultDeployed(address)": {
        "notice": "Returns if a Vault at an address has already been deployed."
      }
    },
    "notice": "Upgradable beacon factory which enables deploying a deterministic Vault for ERC20 token.",
    "version": 1
  },
  "storageLayout": {
    "storage": [
      {
        "astId": 1647,
        "contract": "src/vault/ScionVaultFactory.sol:ScionVaultFactory",
        "label": "_owner",
        "offset": 0,
        "slot": "0",
        "type": "t_address"
      }
    ],
    "types": {
      "t_address": {
        "encoding": "inplace",
        "label": "address",
        "numberOfBytes": "20"
      }
    }
  }
}