{
  "address": "0xAA40216ce9f6B9BAAB726FbC83a184944a993b2A",
  "abi": [
    {
      "inputs": [
        {
          "internalType": "address",
          "name": "_implementation",
          "type": "address"
        }
      ],
      "stateMutability": "nonpayable",
      "type": "constructor"
    },
    {
      "anonymous": false,
      "inputs": [
        {
          "indexed": true,
          "internalType": "address",
          "name": "previousOwner",
          "type": "address"
        },
        {
          "indexed": true,
          "internalType": "address",
          "name": "newOwner",
          "type": "address"
        }
      ],
      "name": "OwnershipTransferred",
      "type": "event"
    },
    {
      "anonymous": false,
      "inputs": [
        {
          "indexed": false,
          "internalType": "address",
          "name": "implementation",
          "type": "address"
        }
      ],
      "name": "Upgrade",
      "type": "event"
    },
    {
      "anonymous": false,
      "inputs": [
        {
          "indexed": false,
          "internalType": "contract BeaconProxy",
          "name": "vault",
          "type": "address"
        },
        {
          "indexed": false,
          "internalType": "contract IERC20",
          "name": "underlying",
          "type": "address"
        }
      ],
      "name": "VaultDeployed",
      "type": "event"
    },
    {
      "inputs": [
        {
          "internalType": "contract IERC20",
          "name": "underlying",
          "type": "address"
        },
        {
          "internalType": "uint256",
          "name": "id",
          "type": "uint256"
        },
        {
          "internalType": "bytes",
          "name": "_callData",
          "type": "bytes"
        }
      ],
      "name": "deployVault",
      "outputs": [
        {
          "internalType": "contract BeaconProxy",
          "name": "vault",
          "type": "address"
        }
      ],
      "stateMutability": "nonpayable",
      "type": "function"
    },
    {
      "inputs": [
        {
          "internalType": "contract IERC20",
          "name": "underlying",
          "type": "address"
        },
        {
          "internalType": "uint256",
          "name": "id",
          "type": "uint256"
        }
      ],
      "name": "getVaultFromUnderlying",
      "outputs": [
        {
          "internalType": "contract BeaconProxy",
          "name": "",
          "type": "address"
        }
      ],
      "stateMutability": "view",
      "type": "function"
    },
    {
      "inputs": [],
      "name": "implementation",
      "outputs": [
        {
          "internalType": "address",
          "name": "",
          "type": "address"
        }
      ],
      "stateMutability": "view",
      "type": "function"
    },
    {
      "inputs": [
        {
          "internalType": "address",
          "name": "vault",
          "type": "address"
        }
      ],
      "name": "isVaultDeployed",
      "outputs": [
        {
          "internalType": "bool",
          "name": "",
          "type": "bool"
        }
      ],
      "stateMutability": "view",
      "type": "function"
    },
    {
      "inputs": [],
      "name": "owner",
      "outputs": [
        {
          "internalType": "address",
          "name": "",
          "type": "address"
        }
      ],
      "stateMutability": "view",
      "type": "function"
    },
    {
      "inputs": [],
      "name": "renounceOwnership",
      "outputs": [],
      "stateMutability": "nonpayable",
      "type": "function"
    },
    {
      "inputs": [
        {
          "internalType": "address",
          "name": "newOwner",
          "type": "address"
        }
      ],
      "name": "transferOwnership",
      "outputs": [],
      "stateMutability": "nonpayable",
      "type": "function"
    },
    {
      "inputs": [
        {
          "internalType": "address",
          "name": "newImplementation",
          "type": "address"
        }
      ],
      "name": "upgradeTo",
      "outputs": [],
      "stateMutability": "nonpayable",
      "type": "function"
    }
  ],
  "transactionHash": "0x2f21b97f06361fc2c2dbe00d258767ac24a79768a884454d378882607a90364e",
  "args": [
    "0xCb2E195d92E9DA36ea1F186B8DF09AaDe31a5DdA"
  ],
  "numDeployments": 1,
  "solcInputHash": "64c479e2689a8830b12c966dff54df42",
  "bytecode": "0x60a060405234801561001057600080fd5b50604051611afe380380611afe83398101604081905261002f91610113565b610038336100b6565b8060405161004590610106565b61004f9190610143565b604051809103906000f08015801561006b573d6000803e3d6000fd5b506001600160a01b03166080526040517ff78721226efe9a1bb678189a16d1554928b9f2192e2cb93eeda83b79fa40007d906100a8908390610143565b60405180910390a150610157565b600080546001600160a01b038381166001600160a01b0319831681178455604051919092169283917f8be0079c531659141344cd1fd0a4f28419497f9722a3daafe3b4186f6b6457e09190a35050565b610523806115db83390190565b60006020828403121561012557600080fd5b81516001600160a01b038116811461013c57600080fd5b9392505050565b6001600160a01b0391909116815260200190565b608051611454610187600039600081816101a3015281816102a20152818161034d015261047a01526114546000f3fe60806040523480156200001157600080fd5b5060043610620000825760003560e01c806307fd315014620000875780633659cfe614620000b65780635c60da1b14620000cf578063715018a614620000d95780637d6020f414620000e35780638da5cb5b1462000114578063aa04f8ac146200011e578063f2fde38b1462000135575b600080fd5b6200009e620000983660046200084c565b6200014c565b604051620000ad919062000924565b60405180910390f35b620000cd620000c736600462000938565b62000257565b005b6200009e62000349565b620000cd620003d5565b62000103620000f436600462000938565b6001600160a01b03163b151590565b6040519015158152602001620000ad565b6200009e62000417565b6200009e6200012f36600462000958565b62000426565b620000cd6200014636600462000938565b6200053c565b6000336200015962000417565b6001600160a01b0316146200018b5760405162461bcd60e51b8152600401620001829062000987565b60405180910390fd5b82620001a06001600160a01b038616620005e5565b177f0000000000000000000000000000000000000000000000000000000000000000604051620001d09062000812565b620001dc9190620009bc565b8190604051809103906000f5905080158015620001fd573d6000803e3d6000fd5b5090506200020c8183620005f5565b50604080516001600160a01b038084168252861660208201527f09d75e12e349f79020715b0ea7b2c707e8acf1889b6d6f1337fce7f4e1b9e5c7910160405180910390a19392505050565b336200026262000417565b6001600160a01b0316146200028b5760405162461bcd60e51b8152600401620001829062000987565b604051631b2ce7f360e11b81526001600160a01b037f00000000000000000000000000000000000000000000000000000000000000001690633659cfe690620002d990849060040162000924565b600060405180830381600087803b158015620002f457600080fd5b505af115801562000309573d6000803e3d6000fd5b505050507ff78721226efe9a1bb678189a16d1554928b9f2192e2cb93eeda83b79fa40007d816040516200033e919062000924565b60405180910390a150565b60007f00000000000000000000000000000000000000000000000000000000000000006001600160a01b0316635c60da1b6040518163ffffffff1660e01b8152600401602060405180830381865afa158015620003aa573d6000803e3d6000fd5b505050506040513d601f19601f82011682018060405250810190620003d09190620009df565b905090565b33620003e062000417565b6001600160a01b031614620004095760405162461bcd60e51b8152600401620001829062000987565b62000415600062000639565b565b6000546001600160a01b031690565b6000620005356001600160f81b031930846200044b6001600160a01b038816620005e5565b17604051806020016200045e9062000812565b601f1982820381018352601f909101166040819052620004a3907f000000000000000000000000000000000000000000000000000000000000000090602001620009bc565b60408051601f1981840301815290829052620004c3929160200162000a32565b604051602081830303815290604052805190602001206040516020016200051c94939291906001600160f81b031994909416845260609290921b6001600160601b03191660018401526015830152603582015260550190565b6040516020818303038152906040528051906020012090565b9392505050565b336200054762000417565b6001600160a01b031614620005705760405162461bcd60e51b8152600401620001829062000987565b6001600160a01b038116620005d75760405162461bcd60e51b815260206004820152602660248201527f4f776e61626c653a206e6577206f776e657220697320746865207a65726f206160448201526564647265737360d01b606482015260840162000182565b620005e28162000639565b50565b60601b6001600160601b03191690565b60606200053583836040518060400160405280601e81526020017f416464726573733a206c6f772d6c6576656c2063616c6c206661696c6564000081525062000689565b600080546001600160a01b038381166001600160a01b0319831681178455604051919092169283917f8be0079c531659141344cd1fd0a4f28419497f9722a3daafe3b4186f6b6457e09190a35050565b60606200069a8484600085620006a2565b949350505050565b606082471015620007055760405162461bcd60e51b815260206004820152602660248201527f416464726573733a20696e73756666696369656e742062616c616e636520666f6044820152651c8818d85b1b60d21b606482015260840162000182565b843b620007555760405162461bcd60e51b815260206004820152601d60248201527f416464726573733a2063616c6c20746f206e6f6e2d636f6e7472616374000000604482015260640162000182565b600080866001600160a01b0316858760405162000773919062000a65565b60006040518083038185875af1925050503d8060008114620007b2576040519150601f19603f3d011682016040523d82523d6000602084013e620007b7565b606091505b5091509150620007c9828286620007d4565b979650505050505050565b60608315620007e557508162000535565b825115620007f65782518084602001fd5b8160405162461bcd60e51b815260040162000182919062000a83565b6109668062000ab983390190565b6001600160a01b0381168114620005e257600080fd5b634e487b7160e01b600052604160045260246000fd5b6000806000606084860312156200086257600080fd5b83356200086f8162000820565b92506020840135915060408401356001600160401b03808211156200089357600080fd5b818601915086601f830112620008a857600080fd5b813581811115620008bd57620008bd62000836565b604051601f8201601f19908116603f01168101908382118183101715620008e857620008e862000836565b816040528281528960208487010111156200090257600080fd5b8260208601602083013760006020848301015280955050505050509250925092565b6001600160a01b0391909116815260200190565b6000602082840312156200094b57600080fd5b8135620005358162000820565b600080604083850312156200096c57600080fd5b8235620009798162000820565b946020939093013593505050565b6020808252818101527f4f776e61626c653a2063616c6c6572206973206e6f7420746865206f776e6572604082015260600190565b6001600160a01b0391909116815260406020820181905260009082015260600190565b600060208284031215620009f257600080fd5b8151620005358162000820565b60005b8381101562000a1c57818101518382015260200162000a02565b8381111562000a2c576000848401525b50505050565b6000835162000a46818460208801620009ff565b83519083019062000a5c818360208801620009ff565b01949350505050565b6000825162000a79818460208701620009ff565b9190910192915050565b602081526000825180602084015262000aa4816040850160208701620009ff565b601f01601f1916919091016040019291505056fe608060405260405161096638038061096683398101604081905261002291610479565b61004d60017fa3f0ad74e5423aebfd80d3ef4346578335a9a72aeaee59ff6cb3582b35133d51610539565b60008051602061091f833981519152146100695761006961055e565b6100758282600061007c565b50506105de565b61008583610147565b6040516001600160a01b038416907f1cf3b03a6cf19fa2baba4df148e9dcabedea7f8a5c07840e207e5c089be95d3e90600090a26000825111806100c65750805b1561014257610140836001600160a01b0316635c60da1b6040518163ffffffff1660e01b8152600401602060405180830381865afa15801561010c573d6000803e3d6000fd5b505050506040513d601f19601f820116820180604052508101906101309190610574565b836102d860201b6100291760201c565b505b505050565b61015a8161030460201b6100551760201c565b6101b95760405162461bcd60e51b815260206004820152602560248201527f455243313936373a206e657720626561636f6e206973206e6f74206120636f6e6044820152641d1c9858dd60da1b60648201526084015b60405180910390fd5b61022d816001600160a01b0316635c60da1b6040518163ffffffff1660e01b8152600401602060405180830381865afa1580156101fa573d6000803e3d6000fd5b505050506040513d601f19601f8201168201806040525081019061021e9190610574565b61030460201b6100551760201c565b6102925760405162461bcd60e51b815260206004820152603060248201527f455243313936373a20626561636f6e20696d706c656d656e746174696f6e206960448201526f1cc81b9bdd08184818dbdb9d1c9858dd60821b60648201526084016101b0565b806102b760008051602061091f83398151915260001b61030a60201b61005b1760201c565b80546001600160a01b0319166001600160a01b039290921691909117905550565b60606102fd838360405180606001604052806027815260200161093f6027913961030d565b9392505050565b3b151590565b90565b6060833b61036c5760405162461bcd60e51b815260206004820152602660248201527f416464726573733a2064656c65676174652063616c6c20746f206e6f6e2d636f6044820152651b9d1c9858dd60d21b60648201526084016101b0565b600080856001600160a01b031685604051610387919061058f565b600060405180830381855af49150503d80600081146103c2576040519150601f19603f3d011682016040523d82523d6000602084013e6103c7565b606091505b5090925090506103d88282866103e2565b9695505050505050565b606083156103f15750816102fd565b8251156104015782518084602001fd5b8160405162461bcd60e51b81526004016101b091906105ab565b80516001600160a01b038116811461043257600080fd5b919050565b634e487b7160e01b600052604160045260246000fd5b60005b83811015610468578181015183820152602001610450565b838111156101405750506000910152565b6000806040838503121561048c57600080fd5b6104958361041b565b60208401519092506001600160401b03808211156104b257600080fd5b818501915085601f8301126104c657600080fd5b8151818111156104d8576104d8610437565b604051601f8201601f19908116603f0116810190838211818310171561050057610500610437565b8160405282815288602084870101111561051957600080fd5b61052a83602083016020880161044d565b80955050505050509250929050565b60008282101561055957634e487b7160e01b600052601160045260246000fd5b500390565b634e487b7160e01b600052600160045260246000fd5b60006020828403121561058657600080fd5b6102fd8261041b565b600082516105a181846020870161044d565b9190910192915050565b60208152600082518060208401526105ca81604085016020870161044d565b601f01601f19169190910160400192915050565b610332806105ed6000396000f3fe60806040523661001357610011610017565b005b6100115b61002761002261005e565b6100f7565b565b606061004e83836040518060600160405280602781526020016102d66027913961011b565b9392505050565b3b151590565b90565b60006100917fa3f0ad74e5423aebfd80d3ef4346578335a9a72aeaee59ff6cb3582b35133d50546001600160a01b031690565b6001600160a01b0316635c60da1b6040518163ffffffff1660e01b8152600401602060405180830381865afa1580156100ce573d6000803e3d6000fd5b505050506040513d601f19601f820116820180604052508101906100f2919061022d565b905090565b3660008037600080366000845af43d6000803e808015610116573d6000f35b3d6000fd5b6060833b61017f5760405162461bcd60e51b815260206004820152602660248201527f416464726573733a2064656c65676174652063616c6c20746f206e6f6e2d636f6044820152651b9d1c9858dd60d21b60648201526084015b60405180910390fd5b600080856001600160a01b03168560405161019a9190610286565b600060405180830381855af49150503d80600081146101d5576040519150601f19603f3d011682016040523d82523d6000602084013e6101da565b606091505b50915091506101ea8282866101f4565b9695505050505050565b6060831561020357508161004e565b8251156102135782518084602001fd5b8160405162461bcd60e51b815260040161017691906102a2565b60006020828403121561023f57600080fd5b81516001600160a01b038116811461004e57600080fd5b60005b83811015610271578181015183820152602001610259565b83811115610280576000848401525b50505050565b60008251610298818460208701610256565b9190910192915050565b60208152600082518060208401526102c1816040850160208701610256565b601f01601f1916919091016040019291505056fe416464726573733a206c6f772d6c6576656c2064656c65676174652063616c6c206661696c6564a26469706673582212208f92aa47d60bdd73284727d4e6078987e706360b70b9d2a70931c32f7cab3c8664736f6c634300080a0033a3f0ad74e5423aebfd80d3ef4346578335a9a72aeaee59ff6cb3582b35133d50416464726573733a206c6f772d6c6576656c2064656c65676174652063616c6c206661696c6564a2646970667358221220911c391fd3aec7200508372c341e91b40cb2fcd52ebe322e493a026dd53dc97764736f6c634300080a0033608060405234801561001057600080fd5b5060405161052338038061052383398101604081905261002f91610148565b61003833610047565b61004181610097565b50610178565b600080546001600160a01b038381166001600160a01b0319831681178455604051919092169283917f8be0079c531659141344cd1fd0a4f28419497f9722a3daafe3b4186f6b6457e09190a35050565b6100aa8161014260201b61021f1760201c565b6101205760405162461bcd60e51b815260206004820152603360248201527f5570677261646561626c65426561636f6e3a20696d706c656d656e746174696f60448201527f6e206973206e6f74206120636f6e747261637400000000000000000000000000606482015260840160405180910390fd5b600180546001600160a01b0319166001600160a01b0392909216919091179055565b3b151590565b60006020828403121561015a57600080fd5b81516001600160a01b038116811461017157600080fd5b9392505050565b61039c806101876000396000f3fe608060405234801561001057600080fd5b50600436106100575760003560e01c80633659cfe61461005c5780635c60da1b14610071578063715018a61461009a5780638da5cb5b146100a2578063f2fde38b146100aa575b600080fd5b61006f61006a366004610301565b6100bd565b005b6001546001600160a01b03165b6040516001600160a01b03909116815260200160405180910390f35b61006f610135565b61007e610170565b61006f6100b8366004610301565b61017f565b336100c6610170565b6001600160a01b0316146100f55760405162461bcd60e51b81526004016100ec90610331565b60405180910390fd5b6100fe81610225565b6040516001600160a01b038216907fbc7cd75a20ee27fd9adebab32041f755214dbc6bffa90cc0225b39da2e5c2d3b90600090a250565b3361013e610170565b6001600160a01b0316146101645760405162461bcd60e51b81526004016100ec90610331565b61016e60006102b1565b565b6000546001600160a01b031690565b33610188610170565b6001600160a01b0316146101ae5760405162461bcd60e51b81526004016100ec90610331565b6001600160a01b0381166102135760405162461bcd60e51b815260206004820152602660248201527f4f776e61626c653a206e6577206f776e657220697320746865207a65726f206160448201526564647265737360d01b60648201526084016100ec565b61021c816102b1565b50565b3b151590565b803b61028f5760405162461bcd60e51b815260206004820152603360248201527f5570677261646561626c65426561636f6e3a20696d706c656d656e746174696f6044820152721b881a5cc81b9bdd08184818dbdb9d1c9858dd606a1b60648201526084016100ec565b600180546001600160a01b0319166001600160a01b0392909216919091179055565b600080546001600160a01b038381166001600160a01b0319831681178455604051919092169283917f8be0079c531659141344cd1fd0a4f28419497f9722a3daafe3b4186f6b6457e09190a35050565b60006020828403121561031357600080fd5b81356001600160a01b038116811461032a57600080fd5b9392505050565b6020808252818101527f4f776e61626c653a2063616c6c6572206973206e6f7420746865206f776e657260408201526060019056fea2646970667358221220873fd1c19e65273cb38a985161f94535d0660d380b55050542732fe64a41d39264736f6c634300080a0033",
  "devdoc": {
    "author": "0x0scion (based on Rari Vault Factory)",
    "events": {
      "VaultDeployed(address,address)": {
        "params": {
          "underlying": "The underlying token the new Vault accepts.",
          "vault": "The newly deployed Vault contract."
        }
      }
    },
    "kind": "dev",
    "methods": {
      "deployVault(address,uint256,bytes)": {
        "details": "This will revert if a Vault that accepts the same underlying token has already been deployed.",
        "params": {
          "id": "We may have different vaults w different credit ratings for the same asset",
          "underlying": "The ERC20 token that the Vault should accept."
        },
        "returns": {
          "vault": "The newly deployed Vault contract which accepts the provided underlying token."
        }
      },
      "getVaultFromUnderlying(address,uint256)": {
        "details": "The Vault returned may not be deployed yet. Use isVaultDeployed to check.",
        "params": {
          "id": "We may have different vaults w different credit ratings for the same asset",
          "underlying": "The ERC20 token that the Vault should accept."
        },
        "returns": {
          "_0": "The address of a Vault which accepts the provided underlying token."
        }
      },
      "isVaultDeployed(address)": {
        "details": "This function is useful to check the return values of getVaultFromUnderlying, as it does not check that the Vault addresses it computes have been deployed yet.",
        "params": {
          "vault": "The address of a Vault which may not have been deployed yet."
        },
        "returns": {
          "_0": "A boolean indicating whether the Vault has been deployed already."
        }
      },
      "owner()": {
        "details": "Returns the address of the current owner."
      },
      "renounceOwnership()": {
        "details": "Leaves the contract without owner. It will not be possible to call `onlyOwner` functions anymore. Can only be called by the current owner. NOTE: Renouncing ownership will leave the contract without an owner, thereby removing any functionality that is only available to the owner."
      },
      "transferOwnership(address)": {
        "details": "Transfers ownership of the contract to a new account (`newOwner`). Can only be called by the current owner."
      }
    },
    "title": "Scion Vault Factory",
    "version": 1
  },
  "userdoc": {
    "events": {
      "VaultDeployed(address,address)": {
        "notice": "Emitted when a new Vault is deployed."
      }
    },
    "kind": "user",
    "methods": {
      "constructor": {
        "notice": "Creates a Vault factory."
      },
      "deployVault(address,uint256,bytes)": {
        "notice": "Deploys a new Vault which supports a specific underlying token."
      },
      "getVaultFromUnderlying(address,uint256)": {
        "notice": "Computes a Vault's address from its accepted underlying token."
      },
      "isVaultDeployed(address)": {
        "notice": "Returns if a Vault at an address has already been deployed."
      }
    },
    "notice": "Upgradable beacon factory which enables deploying a deterministtci Vault for ERC20 token.",
    "version": 1
  },
  "storageLayout": {
    "storage": [
      {
        "astId": 2279,
        "contract": "src/vault/ScionVaultFactory.sol:ScionVaultFactory",
        "label": "_owner",
        "offset": 0,
        "slot": "0",
        "type": "t_address"
      }
    ],
    "types": {
      "t_address": {
        "encoding": "inplace",
        "label": "address",
        "numberOfBytes": "20"
      }
    }
  }
}