{
  "address": "0x493b0cc1027d40e4Abc3a6a5aC9D60d62c053396",
  "abi": [
    {
      "inputs": [],
      "stateMutability": "nonpayable",
      "type": "constructor"
    },
    {
      "anonymous": false,
      "inputs": [
        {
          "indexed": true,
          "internalType": "address",
          "name": "account",
          "type": "address"
        },
        {
          "indexed": false,
          "internalType": "bool",
          "name": "isManager",
          "type": "bool"
        }
      ],
      "name": "AllowedUpdate",
      "type": "event"
    },
    {
      "anonymous": false,
      "inputs": [
        {
          "indexed": true,
          "internalType": "address",
          "name": "owner",
          "type": "address"
        },
        {
          "indexed": true,
          "internalType": "address",
          "name": "spender",
          "type": "address"
        },
        {
          "indexed": false,
          "internalType": "uint256",
          "name": "value",
          "type": "uint256"
        }
      ],
      "name": "Approval",
      "type": "event"
    },
    {
      "anonymous": false,
      "inputs": [
        {
          "indexed": true,
          "internalType": "address",
          "name": "user",
          "type": "address"
        },
        {
          "indexed": false,
          "internalType": "uint256",
          "name": "underlyingAmount",
          "type": "uint256"
        }
      ],
      "name": "Deposit",
      "type": "event"
    },
    {
      "anonymous": false,
      "inputs": [
        {
          "indexed": true,
          "internalType": "address",
          "name": "user",
          "type": "address"
        },
        {
          "indexed": false,
          "internalType": "uint256",
          "name": "newFeePercent",
          "type": "uint256"
        }
      ],
      "name": "FeePercentUpdated",
      "type": "event"
    },
    {
      "anonymous": false,
      "inputs": [
        {
          "indexed": true,
          "internalType": "address",
          "name": "user",
          "type": "address"
        },
        {
          "indexed": false,
          "internalType": "uint256",
          "name": "rvTokenAmount",
          "type": "uint256"
        }
      ],
      "name": "FeesClaimed",
      "type": "event"
    },
    {
      "anonymous": false,
      "inputs": [
        {
          "indexed": true,
          "internalType": "address",
          "name": "user",
          "type": "address"
        },
        {
          "indexed": false,
          "internalType": "contract Strategy[]",
          "name": "strategies",
          "type": "address[]"
        }
      ],
      "name": "Harvest",
      "type": "event"
    },
    {
      "anonymous": false,
      "inputs": [
        {
          "indexed": true,
          "internalType": "address",
          "name": "user",
          "type": "address"
        },
        {
          "indexed": false,
          "internalType": "uint64",
          "name": "newHarvestDelay",
          "type": "uint64"
        }
      ],
      "name": "HarvestDelayUpdateScheduled",
      "type": "event"
    },
    {
      "anonymous": false,
      "inputs": [
        {
          "indexed": true,
          "internalType": "address",
          "name": "user",
          "type": "address"
        },
        {
          "indexed": false,
          "internalType": "uint64",
          "name": "newHarvestDelay",
          "type": "uint64"
        }
      ],
      "name": "HarvestDelayUpdated",
      "type": "event"
    },
    {
      "anonymous": false,
      "inputs": [
        {
          "indexed": true,
          "internalType": "address",
          "name": "user",
          "type": "address"
        },
        {
          "indexed": false,
          "internalType": "uint128",
          "name": "newHarvestWindow",
          "type": "uint128"
        }
      ],
      "name": "HarvestWindowUpdated",
      "type": "event"
    },
    {
      "anonymous": false,
      "inputs": [
        {
          "indexed": true,
          "internalType": "address",
          "name": "user",
          "type": "address"
        }
      ],
      "name": "Initialized",
      "type": "event"
    },
    {
      "anonymous": false,
      "inputs": [
        {
          "indexed": true,
          "internalType": "address",
          "name": "account",
          "type": "address"
        },
        {
          "indexed": false,
          "internalType": "bool",
          "name": "isManager",
          "type": "bool"
        }
      ],
      "name": "ManagerUpdate",
      "type": "event"
    },
    {
      "anonymous": false,
      "inputs": [
        {
          "indexed": false,
          "internalType": "uint256",
          "name": "maxTvl",
          "type": "uint256"
        }
      ],
      "name": "MaxTvlUpdated",
      "type": "event"
    },
    {
      "anonymous": false,
      "inputs": [
        {
          "indexed": true,
          "internalType": "address",
          "name": "previousOwner",
          "type": "address"
        },
        {
          "indexed": true,
          "internalType": "address",
          "name": "newOwner",
          "type": "address"
        }
      ],
      "name": "OwnershipTransferred",
      "type": "event"
    },
    {
      "anonymous": false,
      "inputs": [
        {
          "indexed": false,
          "internalType": "bool",
          "name": "setPublic",
          "type": "bool"
        }
      ],
      "name": "SetPublic",
      "type": "event"
    },
    {
      "anonymous": false,
      "inputs": [
        {
          "indexed": true,
          "internalType": "address",
          "name": "user",
          "type": "address"
        },
        {
          "indexed": true,
          "internalType": "contract Strategy",
          "name": "strategy",
          "type": "address"
        },
        {
          "indexed": false,
          "internalType": "uint256",
          "name": "underlyingAmount",
          "type": "uint256"
        }
      ],
      "name": "StrategyDeposit",
      "type": "event"
    },
    {
      "anonymous": false,
      "inputs": [
        {
          "indexed": true,
          "internalType": "address",
          "name": "user",
          "type": "address"
        },
        {
          "indexed": true,
          "internalType": "contract Strategy",
          "name": "strategy",
          "type": "address"
        }
      ],
      "name": "StrategyDistrusted",
      "type": "event"
    },
    {
      "anonymous": false,
      "inputs": [
        {
          "indexed": true,
          "internalType": "address",
          "name": "user",
          "type": "address"
        },
        {
          "indexed": true,
          "internalType": "contract Strategy",
          "name": "strategy",
          "type": "address"
        }
      ],
      "name": "StrategySeized",
      "type": "event"
    },
    {
      "anonymous": false,
      "inputs": [
        {
          "indexed": true,
          "internalType": "address",
          "name": "user",
          "type": "address"
        },
        {
          "indexed": true,
          "internalType": "contract Strategy",
          "name": "strategy",
          "type": "address"
        }
      ],
      "name": "StrategyTrusted",
      "type": "event"
    },
    {
      "anonymous": false,
      "inputs": [
        {
          "indexed": true,
          "internalType": "address",
          "name": "user",
          "type": "address"
        },
        {
          "indexed": true,
          "internalType": "contract Strategy",
          "name": "strategy",
          "type": "address"
        },
        {
          "indexed": false,
          "internalType": "uint256",
          "name": "underlyingAmount",
          "type": "uint256"
        }
      ],
      "name": "StrategyWithdrawal",
      "type": "event"
    },
    {
      "anonymous": false,
      "inputs": [
        {
          "indexed": true,
          "internalType": "address",
          "name": "user",
          "type": "address"
        },
        {
          "indexed": false,
          "internalType": "uint256",
          "name": "newTargetFloatPercent",
          "type": "uint256"
        }
      ],
      "name": "TargetFloatPercentUpdated",
      "type": "event"
    },
    {
      "anonymous": false,
      "inputs": [
        {
          "indexed": true,
          "internalType": "address",
          "name": "from",
          "type": "address"
        },
        {
          "indexed": true,
          "internalType": "address",
          "name": "to",
          "type": "address"
        },
        {
          "indexed": false,
          "internalType": "uint256",
          "name": "value",
          "type": "uint256"
        }
      ],
      "name": "Transfer",
      "type": "event"
    },
    {
      "anonymous": false,
      "inputs": [
        {
          "indexed": true,
          "internalType": "address",
          "name": "user",
          "type": "address"
        },
        {
          "indexed": false,
          "internalType": "bool",
          "name": "newUnderlyingIsWETH",
          "type": "bool"
        }
      ],
      "name": "UnderlyingIsWETHUpdated",
      "type": "event"
    },
    {
      "anonymous": false,
      "inputs": [
        {
          "indexed": true,
          "internalType": "address",
          "name": "user",
          "type": "address"
        },
        {
          "indexed": false,
          "internalType": "uint256",
          "name": "underlyingAmount",
          "type": "uint256"
        }
      ],
      "name": "Withdraw",
      "type": "event"
    },
    {
      "anonymous": false,
      "inputs": [
        {
          "indexed": true,
          "internalType": "address",
          "name": "user",
          "type": "address"
        },
        {
          "indexed": false,
          "internalType": "uint256",
          "name": "index",
          "type": "uint256"
        },
        {
          "indexed": true,
          "internalType": "contract Strategy",
          "name": "replacedStrategy",
          "type": "address"
        },
        {
          "indexed": true,
          "internalType": "contract Strategy",
          "name": "replacementStrategy",
          "type": "address"
        }
      ],
      "name": "WithdrawalQueueIndexReplaced",
      "type": "event"
    },
    {
      "anonymous": false,
      "inputs": [
        {
          "indexed": true,
          "internalType": "address",
          "name": "user",
          "type": "address"
        },
        {
          "indexed": false,
          "internalType": "uint256",
          "name": "index",
          "type": "uint256"
        },
        {
          "indexed": true,
          "internalType": "contract Strategy",
          "name": "replacedStrategy",
          "type": "address"
        },
        {
          "indexed": true,
          "internalType": "contract Strategy",
          "name": "previousTipStrategy",
          "type": "address"
        }
      ],
      "name": "WithdrawalQueueIndexReplacedWithTip",
      "type": "event"
    },
    {
      "anonymous": false,
      "inputs": [
        {
          "indexed": true,
          "internalType": "address",
          "name": "user",
          "type": "address"
        },
        {
          "indexed": false,
          "internalType": "uint256",
          "name": "index1",
          "type": "uint256"
        },
        {
          "indexed": false,
          "internalType": "uint256",
          "name": "index2",
          "type": "uint256"
        },
        {
          "indexed": true,
          "internalType": "contract Strategy",
          "name": "newStrategy1",
          "type": "address"
        },
        {
          "indexed": true,
          "internalType": "contract Strategy",
          "name": "newStrategy2",
          "type": "address"
        }
      ],
      "name": "WithdrawalQueueIndexesSwapped",
      "type": "event"
    },
    {
      "anonymous": false,
      "inputs": [
        {
          "indexed": true,
          "internalType": "address",
          "name": "user",
          "type": "address"
        },
        {
          "indexed": true,
          "internalType": "contract Strategy",
          "name": "poppedStrategy",
          "type": "address"
        }
      ],
      "name": "WithdrawalQueuePopped",
      "type": "event"
    },
    {
      "anonymous": false,
      "inputs": [
        {
          "indexed": true,
          "internalType": "address",
          "name": "user",
          "type": "address"
        },
        {
          "indexed": true,
          "internalType": "contract Strategy",
          "name": "pushedStrategy",
          "type": "address"
        }
      ],
      "name": "WithdrawalQueuePushed",
      "type": "event"
    },
    {
      "anonymous": false,
      "inputs": [
        {
          "indexed": true,
          "internalType": "address",
          "name": "user",
          "type": "address"
        },
        {
          "indexed": false,
          "internalType": "contract Strategy[]",
          "name": "replacedWithdrawalQueue",
          "type": "address[]"
        }
      ],
      "name": "WithdrawalQueueSet",
      "type": "event"
    },
    {
      "inputs": [],
      "name": "BASE_UNIT",
      "outputs": [
        {
          "internalType": "uint256",
          "name": "",
          "type": "uint256"
        }
      ],
      "stateMutability": "view",
      "type": "function"
    },
    {
      "inputs": [],
      "name": "UNDERLYING",
      "outputs": [
        {
          "internalType": "contract IERC20",
          "name": "",
          "type": "address"
        }
      ],
      "stateMutability": "view",
      "type": "function"
    },
    {
      "inputs": [
        {
          "internalType": "contract Strategy",
          "name": "strategy",
          "type": "address"
        }
      ],
      "name": "addStrategy",
      "outputs": [],
      "stateMutability": "nonpayable",
      "type": "function"
    },
    {
      "inputs": [
        {
          "internalType": "address",
          "name": "owner",
          "type": "address"
        },
        {
          "internalType": "address",
          "name": "spender",
          "type": "address"
        }
      ],
      "name": "allowance",
      "outputs": [
        {
          "internalType": "uint256",
          "name": "",
          "type": "uint256"
        }
      ],
      "stateMutability": "view",
      "type": "function"
    },
    {
      "inputs": [
        {
          "internalType": "address",
          "name": "spender",
          "type": "address"
        },
        {
          "internalType": "uint256",
          "name": "amount",
          "type": "uint256"
        }
      ],
      "name": "approve",
      "outputs": [
        {
          "internalType": "bool",
          "name": "",
          "type": "bool"
        }
      ],
      "stateMutability": "nonpayable",
      "type": "function"
    },
    {
      "inputs": [
        {
          "internalType": "address",
          "name": "account",
          "type": "address"
        }
      ],
      "name": "balanceOf",
      "outputs": [
        {
          "internalType": "uint256",
          "name": "",
          "type": "uint256"
        }
      ],
      "stateMutability": "view",
      "type": "function"
    },
    {
      "inputs": [
        {
          "internalType": "address",
          "name": "user",
          "type": "address"
        }
      ],
      "name": "balanceOfUnderlying",
      "outputs": [
        {
          "internalType": "uint256",
          "name": "",
          "type": "uint256"
        }
      ],
      "stateMutability": "view",
      "type": "function"
    },
    {
      "inputs": [
        {
          "internalType": "address[]",
          "name": "users",
          "type": "address[]"
        }
      ],
      "name": "bulkAllow",
      "outputs": [],
      "stateMutability": "nonpayable",
      "type": "function"
    },
    {
      "inputs": [
        {
          "internalType": "uint256",
          "name": "rvTokenAmount",
          "type": "uint256"
        }
      ],
      "name": "claimFees",
      "outputs": [],
      "stateMutability": "nonpayable",
      "type": "function"
    },
    {
      "inputs": [],
      "name": "cleanWithdrawalQueue",
      "outputs": [],
      "stateMutability": "nonpayable",
      "type": "function"
    },
    {
      "inputs": [],
      "name": "decimals",
      "outputs": [
        {
          "internalType": "uint8",
          "name": "",
          "type": "uint8"
        }
      ],
      "stateMutability": "view",
      "type": "function"
    },
    {
      "inputs": [
        {
          "internalType": "address",
          "name": "spender",
          "type": "address"
        },
        {
          "internalType": "uint256",
          "name": "subtractedValue",
          "type": "uint256"
        }
      ],
      "name": "decreaseAllowance",
      "outputs": [
        {
          "internalType": "bool",
          "name": "",
          "type": "bool"
        }
      ],
      "stateMutability": "nonpayable",
      "type": "function"
    },
    {
      "inputs": [
        {
          "internalType": "uint256",
          "name": "underlyingAmount",
          "type": "uint256"
        }
      ],
      "name": "deposit",
      "outputs": [],
      "stateMutability": "nonpayable",
      "type": "function"
    },
    {
      "inputs": [
        {
          "internalType": "contract Strategy",
          "name": "strategy",
          "type": "address"
        },
        {
          "internalType": "uint256",
          "name": "underlyingAmount",
          "type": "uint256"
        }
      ],
      "name": "depositIntoStrategy",
      "outputs": [],
      "stateMutability": "nonpayable",
      "type": "function"
    },
    {
      "inputs": [
        {
          "internalType": "contract Strategy",
          "name": "strategy",
          "type": "address"
        }
      ],
      "name": "distrustStrategy",
      "outputs": [],
      "stateMutability": "nonpayable",
      "type": "function"
    },
    {
      "inputs": [],
      "name": "exchangeRate",
      "outputs": [
        {
          "internalType": "uint256",
          "name": "",
          "type": "uint256"
        }
      ],
      "stateMutability": "view",
      "type": "function"
    },
    {
      "inputs": [
        {
          "internalType": "enum VaultUpgradable.PnlLock",
          "name": "lock",
          "type": "uint8"
        }
      ],
      "name": "exchangeRateLock",
      "outputs": [
        {
          "internalType": "uint256",
          "name": "",
          "type": "uint256"
        }
      ],
      "stateMutability": "view",
      "type": "function"
    },
    {
      "inputs": [],
      "name": "feePercent",
      "outputs": [
        {
          "internalType": "uint256",
          "name": "",
          "type": "uint256"
        }
      ],
      "stateMutability": "view",
      "type": "function"
    },
    {
      "inputs": [],
      "name": "getMaxTvl",
      "outputs": [
        {
          "internalType": "uint256",
          "name": "maxTvl",
          "type": "uint256"
        }
      ],
      "stateMutability": "view",
      "type": "function"
    },
    {
      "inputs": [
        {
          "internalType": "contract Strategy",
          "name": "",
          "type": "address"
        }
      ],
      "name": "getStrategyData",
      "outputs": [
        {
          "internalType": "bool",
          "name": "trusted",
          "type": "bool"
        },
        {
          "internalType": "uint248",
          "name": "balance",
          "type": "uint248"
        }
      ],
      "stateMutability": "view",
      "type": "function"
    },
    {
      "inputs": [],
      "name": "getWithdrawalQueue",
      "outputs": [
        {
          "internalType": "contract Strategy[]",
          "name": "",
          "type": "address[]"
        }
      ],
      "stateMutability": "view",
      "type": "function"
    },
    {
      "inputs": [
        {
          "internalType": "contract Strategy[]",
          "name": "strategies",
          "type": "address[]"
        }
      ],
      "name": "harvest",
      "outputs": [],
      "stateMutability": "nonpayable",
      "type": "function"
    },
    {
      "inputs": [],
      "name": "harvestDelay",
      "outputs": [
        {
          "internalType": "uint64",
          "name": "",
          "type": "uint64"
        }
      ],
      "stateMutability": "view",
      "type": "function"
    },
    {
      "inputs": [],
      "name": "harvestWindow",
      "outputs": [
        {
          "internalType": "uint128",
          "name": "",
          "type": "uint128"
        }
      ],
      "stateMutability": "view",
      "type": "function"
    },
    {
      "inputs": [
        {
          "internalType": "address",
          "name": "spender",
          "type": "address"
        },
        {
          "internalType": "uint256",
          "name": "addedValue",
          "type": "uint256"
        }
      ],
      "name": "increaseAllowance",
      "outputs": [
        {
          "internalType": "bool",
          "name": "",
          "type": "bool"
        }
      ],
      "stateMutability": "nonpayable",
      "type": "function"
    },
    {
      "inputs": [
        {
          "internalType": "contract IERC20",
          "name": "_UNDERLYING",
          "type": "address"
        },
        {
          "internalType": "address",
          "name": "_owner",
          "type": "address"
        },
        {
          "internalType": "address",
          "name": "_manager",
          "type": "address"
        },
        {
          "internalType": "uint256",
          "name": "_feePercent",
          "type": "uint256"
        },
        {
          "internalType": "uint64",
          "name": "_harvestDelay",
          "type": "uint64"
        },
        {
          "internalType": "uint128",
          "name": "_harvestWindow",
          "type": "uint128"
        }
      ],
      "name": "initialize",
      "outputs": [],
      "stateMutability": "nonpayable",
      "type": "function"
    },
    {
      "inputs": [
        {
          "internalType": "address",
          "name": "user",
          "type": "address"
        }
      ],
      "name": "isAllowed",
      "outputs": [
        {
          "internalType": "bool",
          "name": "",
          "type": "bool"
        }
      ],
      "stateMutability": "view",
      "type": "function"
    },
    {
      "inputs": [
        {
          "internalType": "address",
          "name": "user",
          "type": "address"
        }
      ],
      "name": "isManager",
      "outputs": [
        {
          "internalType": "bool",
          "name": "",
          "type": "bool"
        }
      ],
      "stateMutability": "view",
      "type": "function"
    },
    {
      "inputs": [],
      "name": "isPublic",
      "outputs": [
        {
          "internalType": "bool",
          "name": "",
          "type": "bool"
        }
      ],
      "stateMutability": "view",
      "type": "function"
    },
    {
      "inputs": [],
      "name": "lastHarvest",
      "outputs": [
        {
          "internalType": "uint64",
          "name": "",
          "type": "uint64"
        }
      ],
      "stateMutability": "view",
      "type": "function"
    },
    {
      "inputs": [],
      "name": "lastHarvestWindowStart",
      "outputs": [
        {
          "internalType": "uint64",
          "name": "",
          "type": "uint64"
        }
      ],
      "stateMutability": "view",
      "type": "function"
    },
    {
      "inputs": [],
      "name": "lockedProfit",
      "outputs": [
        {
          "internalType": "uint256",
          "name": "",
          "type": "uint256"
        },
        {
          "internalType": "uint256",
          "name": "",
          "type": "uint256"
        }
      ],
      "stateMutability": "view",
      "type": "function"
    },
    {
      "inputs": [],
      "name": "maxLockedLoss",
      "outputs": [
        {
          "internalType": "uint128",
          "name": "",
          "type": "uint128"
        }
      ],
      "stateMutability": "view",
      "type": "function"
    },
    {
      "inputs": [],
      "name": "maxLockedProfit",
      "outputs": [
        {
          "internalType": "uint128",
          "name": "",
          "type": "uint128"
        }
      ],
      "stateMutability": "view",
      "type": "function"
    },
    {
      "inputs": [
        {
          "internalType": "contract Strategy",
          "name": "prevStrategy",
          "type": "address"
        },
        {
          "internalType": "contract Strategy",
          "name": "newStrategy",
          "type": "address"
        },
        {
          "internalType": "uint256",
          "name": "queueIndex",
          "type": "uint256"
        }
      ],
      "name": "migrateStrategy",
      "outputs": [],
      "stateMutability": "nonpayable",
      "type": "function"
    },
    {
      "inputs": [],
      "name": "name",
      "outputs": [
        {
          "internalType": "string",
          "name": "",
          "type": "string"
        }
      ],
      "stateMutability": "view",
      "type": "function"
    },
    {
      "inputs": [],
      "name": "nextHarvestDelay",
      "outputs": [
        {
          "internalType": "uint64",
          "name": "",
          "type": "uint64"
        }
      ],
      "stateMutability": "view",
      "type": "function"
    },
    {
      "inputs": [],
      "name": "owner",
      "outputs": [
        {
          "internalType": "address",
          "name": "",
          "type": "address"
        }
      ],
      "stateMutability": "view",
      "type": "function"
    },
    {
      "inputs": [],
      "name": "popFromWithdrawalQueue",
      "outputs": [],
      "stateMutability": "nonpayable",
      "type": "function"
    },
    {
      "inputs": [
        {
          "internalType": "contract Strategy",
          "name": "strategy",
          "type": "address"
        }
      ],
      "name": "pushToWithdrawalQueue",
      "outputs": [],
      "stateMutability": "nonpayable",
      "type": "function"
    },
    {
      "inputs": [
        {
          "internalType": "contract Strategy",
          "name": "strategy",
          "type": "address"
        }
      ],
      "name": "pushToWithdrawalQueueValidated",
      "outputs": [],
      "stateMutability": "nonpayable",
      "type": "function"
    },
    {
      "inputs": [
        {
          "internalType": "uint256",
          "name": "rvTokenAmount",
          "type": "uint256"
        }
      ],
      "name": "redeem",
      "outputs": [],
      "stateMutability": "nonpayable",
      "type": "function"
    },
    {
      "inputs": [],
      "name": "renounceOwnership",
      "outputs": [],
      "stateMutability": "nonpayable",
      "type": "function"
    },
    {
      "inputs": [
        {
          "internalType": "uint256",
          "name": "index",
          "type": "uint256"
        },
        {
          "internalType": "contract Strategy",
          "name": "replacementStrategy",
          "type": "address"
        }
      ],
      "name": "replaceWithdrawalQueueIndex",
      "outputs": [],
      "stateMutability": "nonpayable",
      "type": "function"
    },
    {
      "inputs": [
        {
          "internalType": "uint256",
          "name": "index",
          "type": "uint256"
        }
      ],
      "name": "replaceWithdrawalQueueIndexWithTip",
      "outputs": [],
      "stateMutability": "nonpayable",
      "type": "function"
    },
    {
      "inputs": [
        {
          "internalType": "contract Strategy",
          "name": "strategy",
          "type": "address"
        },
        {
          "internalType": "contract IERC20[]",
          "name": "tokens",
          "type": "address[]"
        }
      ],
      "name": "seizeStrategy",
      "outputs": [],
      "stateMutability": "nonpayable",
      "type": "function"
    },
    {
      "inputs": [
        {
          "internalType": "address",
          "name": "user",
          "type": "address"
        },
        {
          "internalType": "bool",
          "name": "_isManager",
          "type": "bool"
        }
      ],
      "name": "setAllowed",
      "outputs": [],
      "stateMutability": "nonpayable",
      "type": "function"
    },
    {
      "inputs": [
        {
          "internalType": "uint256",
          "name": "newFeePercent",
          "type": "uint256"
        }
      ],
      "name": "setFeePercent",
      "outputs": [],
      "stateMutability": "nonpayable",
      "type": "function"
    },
    {
      "inputs": [
        {
          "internalType": "uint64",
          "name": "newHarvestDelay",
          "type": "uint64"
        }
      ],
      "name": "setHarvestDelay",
      "outputs": [],
      "stateMutability": "nonpayable",
      "type": "function"
    },
    {
      "inputs": [
        {
          "internalType": "uint128",
          "name": "newHarvestWindow",
          "type": "uint128"
        }
      ],
      "name": "setHarvestWindow",
      "outputs": [],
      "stateMutability": "nonpayable",
      "type": "function"
    },
    {
      "inputs": [
        {
          "internalType": "address",
          "name": "user",
          "type": "address"
        },
        {
          "internalType": "bool",
          "name": "_isManager",
          "type": "bool"
        }
      ],
      "name": "setManager",
      "outputs": [],
      "stateMutability": "nonpayable",
      "type": "function"
    },
    {
      "inputs": [
        {
          "internalType": "uint256",
          "name": "maxTvl_",
          "type": "uint256"
        }
      ],
      "name": "setMaxTvl",
      "outputs": [],
      "stateMutability": "nonpayable",
      "type": "function"
    },
    {
      "inputs": [
        {
          "internalType": "bool",
          "name": "isPublic_",
          "type": "bool"
        }
      ],
      "name": "setPublic",
      "outputs": [],
      "stateMutability": "nonpayable",
      "type": "function"
    },
    {
      "inputs": [
        {
          "internalType": "uint256",
          "name": "newTargetFloatPercent",
          "type": "uint256"
        }
      ],
      "name": "setTargetFloatPercent",
      "outputs": [],
      "stateMutability": "nonpayable",
      "type": "function"
    },
    {
      "inputs": [
        {
          "internalType": "bool",
          "name": "newUnderlyingIsWETH",
          "type": "bool"
        }
      ],
      "name": "setUnderlyingIsWETH",
      "outputs": [],
      "stateMutability": "nonpayable",
      "type": "function"
    },
    {
      "inputs": [
        {
          "internalType": "contract Strategy[]",
          "name": "newQueue",
          "type": "address[]"
        }
      ],
      "name": "setWithdrawalQueue",
      "outputs": [],
      "stateMutability": "nonpayable",
      "type": "function"
    },
    {
      "inputs": [
        {
          "internalType": "uint256",
          "name": "index1",
          "type": "uint256"
        },
        {
          "internalType": "uint256",
          "name": "index2",
          "type": "uint256"
        }
      ],
      "name": "swapWithdrawalQueueIndexes",
      "outputs": [],
      "stateMutability": "nonpayable",
      "type": "function"
    },
    {
      "inputs": [],
      "name": "symbol",
      "outputs": [
        {
          "internalType": "string",
          "name": "",
          "type": "string"
        }
      ],
      "stateMutability": "view",
      "type": "function"
    },
    {
      "inputs": [],
      "name": "targetFloatPercent",
      "outputs": [
        {
          "internalType": "uint256",
          "name": "",
          "type": "uint256"
        }
      ],
      "stateMutability": "view",
      "type": "function"
    },
    {
      "inputs": [],
      "name": "totalFloat",
      "outputs": [
        {
          "internalType": "uint256",
          "name": "",
          "type": "uint256"
        }
      ],
      "stateMutability": "view",
      "type": "function"
    },
    {
      "inputs": [],
      "name": "totalHoldings",
      "outputs": [
        {
          "internalType": "uint256",
          "name": "",
          "type": "uint256"
        }
      ],
      "stateMutability": "view",
      "type": "function"
    },
    {
      "inputs": [
        {
          "internalType": "enum VaultUpgradable.PnlLock",
          "name": "lock",
          "type": "uint8"
        }
      ],
      "name": "totalHoldingsLock",
      "outputs": [
        {
          "internalType": "uint256",
          "name": "totalUnderlyingHeld",
          "type": "uint256"
        }
      ],
      "stateMutability": "view",
      "type": "function"
    },
    {
      "inputs": [],
      "name": "totalStrategyHoldings",
      "outputs": [
        {
          "internalType": "uint256",
          "name": "",
          "type": "uint256"
        }
      ],
      "stateMutability": "view",
      "type": "function"
    },
    {
      "inputs": [],
      "name": "totalSupply",
      "outputs": [
        {
          "internalType": "uint256",
          "name": "",
          "type": "uint256"
        }
      ],
      "stateMutability": "view",
      "type": "function"
    },
    {
      "inputs": [
        {
          "internalType": "address",
          "name": "to",
          "type": "address"
        },
        {
          "internalType": "uint256",
          "name": "amount",
          "type": "uint256"
        }
      ],
      "name": "transfer",
      "outputs": [
        {
          "internalType": "bool",
          "name": "",
          "type": "bool"
        }
      ],
      "stateMutability": "nonpayable",
      "type": "function"
    },
    {
      "inputs": [
        {
          "internalType": "address",
          "name": "from",
          "type": "address"
        },
        {
          "internalType": "address",
          "name": "to",
          "type": "address"
        },
        {
          "internalType": "uint256",
          "name": "amount",
          "type": "uint256"
        }
      ],
      "name": "transferFrom",
      "outputs": [
        {
          "internalType": "bool",
          "name": "",
          "type": "bool"
        }
      ],
      "stateMutability": "nonpayable",
      "type": "function"
    },
    {
      "inputs": [
        {
          "internalType": "address",
          "name": "newOwner",
          "type": "address"
        }
      ],
      "name": "transferOwnership",
      "outputs": [],
      "stateMutability": "nonpayable",
      "type": "function"
    },
    {
      "inputs": [
        {
          "internalType": "contract Strategy",
          "name": "strategy",
          "type": "address"
        }
      ],
      "name": "trustStrategy",
      "outputs": [],
      "stateMutability": "nonpayable",
      "type": "function"
    },
    {
      "inputs": [],
      "name": "underlyingIsWETH",
      "outputs": [
        {
          "internalType": "bool",
          "name": "",
          "type": "bool"
        }
      ],
      "stateMutability": "view",
      "type": "function"
    },
    {
      "inputs": [],
      "name": "updateStratTvl",
      "outputs": [
        {
          "internalType": "uint256",
          "name": "maxTvl",
          "type": "uint256"
        }
      ],
      "stateMutability": "nonpayable",
      "type": "function"
    },
    {
      "inputs": [],
      "name": "version",
      "outputs": [
        {
          "internalType": "uint256",
          "name": "",
          "type": "uint256"
        }
      ],
      "stateMutability": "view",
      "type": "function"
    },
    {
      "inputs": [
        {
          "internalType": "uint256",
          "name": "underlyingAmount",
          "type": "uint256"
        }
      ],
      "name": "withdraw",
      "outputs": [],
      "stateMutability": "nonpayable",
      "type": "function"
    },
    {
      "inputs": [
        {
          "internalType": "contract Strategy",
          "name": "strategy",
          "type": "address"
        },
        {
          "internalType": "uint256",
          "name": "underlyingAmount",
          "type": "uint256"
        }
      ],
      "name": "withdrawFromStrategy",
      "outputs": [],
      "stateMutability": "nonpayable",
      "type": "function"
    },
    {
      "inputs": [
        {
          "internalType": "uint256",
          "name": "",
          "type": "uint256"
        }
      ],
      "name": "withdrawalQueue",
      "outputs": [
        {
          "internalType": "contract Strategy",
          "name": "",
          "type": "address"
        }
      ],
      "stateMutability": "view",
      "type": "function"
    },
    {
      "stateMutability": "payable",
      "type": "receive"
    }
  ],
  "numDeployments": 1,
  "bytecode": "0x60806040523480156200001157600080fd5b50600054610100900460ff166200002f5760005460ff161562000039565b62000039620000de565b620000a15760405162461bcd60e51b815260206004820152602e60248201527f496e697469616c697a61626c653a20636f6e747261637420697320616c72656160448201526d191e481a5b9a5d1a585b1a5e995960921b606482015260840160405180910390fd5b600054610100900460ff16158015620000c4576000805461ffff19166101011790555b8015620000d7576000805461ff00191690555b506200010b565b6000620000f630620000fc60201b620039651760201c565b15905090565b6001600160a01b03163b151590565b61583f806200011b6000396000f3fe6080604052600436106103455760003560e01c806306fdde031461035157806307b35d1d1461037c578063095ea7b31461039e5780630e73ecef146103ce5780630e962f00146103f057806317beaccf1461041457806318160ddd146104295780631c27d0321461043e5780631c69347814610470578063223e54791461048657806322e4cbf8146104a657806323b872dd146104c65780632968676e146104e65780632e1a7d4d14610545578063313ce5671461056557806332ff773214610587578063358d6a04146105a757806339509351146105bc5780633af9e669146105dc5780633ba0b9a9146105fc5780633fb647be146106115780633fd4092514610631578063448f56b91461065157806344b81396146106855780634697f05d146106af57806354fd4d50146106cf5780635cbcec4e146106e55780637061d2de1461070557806370a0823114610725578063715018a614610745578063797ba4631461075a5780637b72aeb9146107815780637ce3489b146107a15780637fd6f15c146107c1578063841219e5146107d75780638da5cb5b146107ec57806395d89b411461080e5780639bb5989d14610823578063a210dbcc14610843578063a457c2d714610858578063a5e90eee14610878578063a8f795f114610898578063a9059cbb146108b8578063ac579b77146108d8578063ac68a748146108f8578063b53d095814610918578063b6b55f2514610938578063babcc53914610958578063bd662f8814610978578063bdf06c8e14610998578063c13c269f146109b8578063c5d664c6146109cd578063c62e20c3146109ed578063c822adda14610a0d578063c866983b14610a2d578063c89d346014610a4d578063cb50087f14610a6d578063d00364be14610a8d578063d183ce1e14610ab4578063db006a7514610ad4578063dc9a153514610af4578063dd62ed3e14610b0c578063ddb56b2614610b2c578063e15b47d114610b4c578063e9ec2e9914610b6c578063ec523afd14610b81578063ecad956514610ba1578063ecef594014610bb7578063eed74e6714610bd7578063f1a392da14610bf7578063f2fde38b14610c1e578063f3ae241514610c3e578063f84d73f414610c5e578063f97d2ed714610c7857600080fd5b3661034c57005b600080fd5b34801561035d57600080fd5b50610366610c98565b6040516103739190614b20565b60405180910390f35b34801561038857600080fd5b5061039c610397366004614b6f565b610d2a565b005b3480156103aa57600080fd5b506103be6103b9366004614b9f565b610e17565b6040519015158152602001610373565b3480156103da57600080fd5b506103e3610e31565b6040516103739190614bcb565b3480156103fc57600080fd5b5061040660ca5481565b604051908152602001610373565b34801561042057600080fd5b50610406610e92565b34801561043557600080fd5b50603554610406565b34801561044a57600080fd5b5060d8546104639061010090046001600160801b031681565b6040516103739190614c18565b34801561047c57600080fd5b5061040660d05481565b34801561049257600080fd5b5061039c6104a1366004614c2c565b610fd7565b3480156104b257600080fd5b5061039c6104c1366004614c8f565b611024565b3480156104d257600080fd5b506103be6104e1366004614d40565b61112d565b3480156104f257600080fd5b50610526610501366004614c2c565b60d36020526000908152604090205460ff81169061010090046001600160f81b031682565b6040805192151583526001600160f81b03909116602083015201610373565b34801561055157600080fd5b5061039c610560366004614d81565b611153565b34801561057157600080fd5b5060cb5460405160ff9091168152602001610373565b34801561059357600080fd5b5061039c6105a2366004614da8565b6111d4565b3480156105b357600080fd5b5061040661130a565b3480156105c857600080fd5b506103be6105d7366004614b9f565b61131f565b3480156105e857600080fd5b506104066105f7366004614c2c565b61135e565b34801561060857600080fd5b50610406611380565b34801561061d57600080fd5b5061039c61062c366004614e10565b61138c565b34801561063d57600080fd5b5061039c61064c366004614c2c565b61150c565b34801561065d57600080fd5b5060cf5461067890600160801b90046001600160401b031681565b6040516103739190614e64565b34801561069157600080fd5b5061069a6115cc565b60408051928352602083019190915201610373565b3480156106bb57600080fd5b5061039c6106ca366004614e78565b611661565b3480156106db57600080fd5b5061040660d95481565b3480156106f157600080fd5b5061039c610700366004614da8565b6116fa565b34801561071157600080fd5b5061039c610720366004614c2c565b61178e565b34801561073157600080fd5b50610406610740366004614c2c565b6118b3565b34801561075157600080fd5b5061039c6118ce565b34801561076657600080fd5b5060cf5461067890600160c01b90046001600160401b031681565b34801561078d57600080fd5b5061039c61079c366004614ec8565b611909565b3480156107ad57600080fd5b5061039c6107bc366004614d81565b611a83565b3480156107cd57600080fd5b5061040660ce5481565b3480156107e357600080fd5b50610406611b30565b3480156107f857600080fd5b50610801611ba2565b6040516103739190614ee3565b34801561081a57600080fd5b50610366611bb1565b34801561082f57600080fd5b5061039c61083e366004614ef7565b611bc0565b34801561084f57600080fd5b5061039c611cb1565b34801561086457600080fd5b506103be610873366004614b9f565b611d91565b34801561088457600080fd5b5061039c610893366004614e78565b611e2e565b3480156108a457600080fd5b506104066108b3366004614f1c565b611eb5565b3480156108c457600080fd5b506103be6108d3366004614b9f565b611f86565b3480156108e457600080fd5b5061039c6108f3366004614f3d565b611f94565b34801561090457600080fd5b5061039c610913366004614d81565b612052565b34801561092457600080fd5b5061039c610933366004614b9f565b6120d9565b34801561094457600080fd5b5061039c610953366004614d81565b612398565b34801561096457600080fd5b506103be610973366004614c2c565b6124ae565b34801561098457600080fd5b5061039c610993366004614d81565b612500565b3480156109a457600080fd5b5061039c6109b3366004614b9f565b6125b0565b3480156109c457600080fd5b5061039c6128bf565b3480156109d957600080fd5b5060c954610801906001600160a01b031681565b3480156109f957600080fd5b5061039c610a08366004614d81565b612a0d565b348015610a1957600080fd5b50610801610a28366004614d81565b612b79565b348015610a3957600080fd5b5061039c610a48366004614c2c565b612ba3565b348015610a5957600080fd5b5061039c610a68366004614f3d565b612c1c565b348015610a7957600080fd5b5061039c610a88366004614d81565b61303a565b348015610a9957600080fd5b5060d45461046390600160801b90046001600160801b031681565b348015610ac057600080fd5b5061039c610acf366004614f7e565b6130b3565b348015610ae057600080fd5b5061039c610aef366004614d81565b61321a565b348015610b0057600080fd5b5060d85460ff166103be565b348015610b1857600080fd5b50610406610b27366004614fa0565b613298565b348015610b3857600080fd5b5061039c610b47366004614d40565b6132c3565b348015610b5857600080fd5b5061039c610b67366004614fce565b6133e2565b348015610b7857600080fd5b506104066136c3565b348015610b8d57600080fd5b5061039c610b9c366004614c2c565b6136cf565b348015610bad57600080fd5b5061040660d25481565b348015610bc357600080fd5b50610406610bd2366004614f1c565b613876565b348015610be357600080fd5b5060d454610678906001600160401b031681565b348015610c0357600080fd5b5060d45461067890600160401b90046001600160401b031681565b348015610c2a57600080fd5b5061039c610c39366004614c2c565b6138aa565b348015610c4a57600080fd5b506103be610c59366004614c2c565b613947565b348015610c6a57600080fd5b5060d1546103be9060ff1681565b348015610c8457600080fd5b5060cf54610463906001600160801b031681565b606060368054610ca790615041565b80601f0160208091040260200160405190810160405280929190818152602001828054610cd390615041565b8015610d205780601f10610cf557610100808354040283529160200191610d20565b820191906000526020600020905b815481529060010190602001808311610d0357829003601f168201915b5050505050905090565b33610d33611ba2565b6001600160a01b031614610d625760405162461bcd60e51b8152600401610d599061507c565b60405180910390fd5b60cf54600160801b90046001600160401b03166001600160801b0382161115610dbf5760405162461bcd60e51b815260206004820152600f60248201526e57494e444f575f544f4f5f4c4f4e4760881b6044820152606401610d59565b60cf80546001600160801b0319166001600160801b03831617905560405133907ff61ebd3c01f656aba479c738a8744215d6f1ec2c19169500f3bff0a9d8374ce190610e0c908490614c18565b60405180910390a250565b600033610e25818585613974565b60019150505b92915050565b606060d5805480602002602001604051908101604052809291908181526020018280548015610d2057602002820191906000526020600020905b81546001600160a01b03168152600190910190602001808311610e6b575050505050905090565b6000610e9c611ba2565b6001600160a01b0316336001600160a01b03161480610ebf5750610ebf33613947565b610edb5760405162461bcd60e51b8152600401610d59906150b1565b60005b60d554811015610fa057600060d58281548110610efd57610efd6150d9565b600091825260208083209091015460408051630d635a8160e21b815290516001600160a01b039092169450849263358d6a0492600480840193829003018187875af1158015610f50573d6000803e3d6000fd5b505050506040513d601f19601f82011682018060405250810190610f7491906150ef565b90508084018411610f8757808401610f89565b835b935050508080610f989061511e565b915050610ede565b5060d781905560d6546000805160206157ca83398151915290610fc39083613a99565b60405190815260200160405180910390a190565b33610fe0611ba2565b6001600160a01b0316146110065760405162461bcd60e51b8152600401610d599061507c565b61100f816136cf565b6110188161150c565b611020610e92565b5050565b61102c611ba2565b6001600160a01b0316336001600160a01b0316148061104f575061104f33613947565b61106b5760405162461bcd60e51b8152600401610d59906150b1565b60005b815181101561102057600160cc600084848151811061108f5761108f6150d9565b60200260200101516001600160a01b03166001600160a01b0316815260200190815260200160002060006101000a81548160ff0219169083151502179055508181815181106110e0576110e06150d9565b60200260200101516001600160a01b03166000805160206156ea8339815191526001604051611113911515815260200190565b60405180910390a2806111258161511e565b91505061106e565b60003361113b858285613aaf565b611146858585613b23565b60019150505b9392505050565b600260975414156111765760405162461bcd60e51b8152600401610d5990615139565b600260978190555061119f3361119a61118f6002613876565b60ca54859190613cdf565b613d01565b604051818152339060008051602061572a8339815191529060200160405180910390a26111cc3382613e3a565b506001609755565b336111dd611ba2565b6001600160a01b0316146112035760405162461bcd60e51b8152600401610d599061507c565b801580611289575060c960009054906101000a90046001600160a01b03166001600160a01b031663313ce5676040518163ffffffff1660e01b8152600401602060405180830381865afa15801561125e573d6000803e3d6000fd5b505050506040513d601f19601f820116820180604052508101906112829190615170565b60ff166012145b6112c65760405162461bcd60e51b815260206004820152600e60248201526d57524f4e475f444543494d414c5360901b6044820152606401610d59565b60d1805460ff191682151517905560405133907f6375b140d4463d47b864f1f47e5d2893cc3478e73aedcc268b054fab0230a84190610e0c90841515815260200190565b600061131a60d65460d754613a99565b905090565b3360008181526034602090815260408083206001600160a01b0387168452909152812054909190610e259082908690611359908790615193565b613974565b6000610e2b61136d6002613876565b60ca54611379856118b3565b9190613eb1565b600061131a6000613876565b600260975414156113af5760405162461bcd60e51b8152600401610d5990615139565b60026097556113bc611ba2565b6001600160a01b0316336001600160a01b031614806113df57506113df33613947565b6113fb5760405162461bcd60e51b8152600401610d59906150b1565b6001600160a01b038316600081815260d3602052604090205461010090046001600160f81b031690633dcf1342611430611ba2565b85856040518463ffffffff1660e01b8152600401611450939291906151ab565b600060405180830381600087803b15801561146a57600080fd5b505af115801561147e573d6000803e3d6000fd5b5050506001600160a01b038516600090815260d360205260409020805460ff169055506114ab6002611eb5565b8111156114c25760d480546001600160801b031690555b60d2805482900390556040516001600160a01b0385169033907fe5211b194c7994bf5eba21ddab25713549e67c4c84028d2f28c1377195de0fb990600090a3505060016097555050565b611514611ba2565b6001600160a01b0316336001600160a01b03161480611537575061153733613947565b6115535760405162461bcd60e51b8152600401610d59906150b1565b60d5546020116115755760405162461bcd60e51b8152600401610d5990615207565b60d5805460018101825560009182526000805160206157ea8339815191520180546001600160a01b0319166001600160a01b038416908117909155604051909133916000805160206156ca8339815191529190a350565b60d45460cf5460009182916001600160401b03600160401b909204821691600160801b9091041680820142106116085750600093849350915050565b60d45460d8546001600160801b03600160801b90920482169161010090910416824285900383028161163c5761163c61522b565b048203838542038302816116525761165261522b565b04820395509550505050509091565b611669611ba2565b6001600160a01b0316336001600160a01b0316148061168c575061168c33613947565b6116a85760405162461bcd60e51b8152600401610d59906150b1565b6001600160a01b038216600081815260cc602052604090819020805460ff1916841515179055516000805160206156ea833981519152906116ee90841515815260200190565b60405180910390a25050565b611702611ba2565b6001600160a01b0316336001600160a01b03161480611725575061172533613947565b6117415760405162461bcd60e51b8152600401610d59906150b1565b60d8805460ff19168215151790556040517f63411fc6652bfc12996632223ff22fb3e99f1a970420a8d57a44d2f5ab30a5a09061178390831515815260200190565b60405180910390a150565b60d5546020116117b05760405162461bcd60e51b8152600401610d5990615207565b6001600160a01b038116600090815260d3602052604090205460ff166118065760405162461bcd60e51b815260206004820152600b60248201526a1393d517d5149554d5115160aa1b6044820152606401610d59565b60005b60d55481101561185b5760d58181548110611826576118266150d9565b6000918252602090912001546001600160a01b0383811691161415611849575050565b806118538161511e565b915050611809565b5060d5805460018101825560009182526000805160206157ea8339815191520180546001600160a01b0319166001600160a01b038416908117909155604051909133916000805160206156ca8339815191529190a350565b6001600160a01b031660009081526033602052604090205490565b336118d7611ba2565b6001600160a01b0316146118fd5760405162461bcd60e51b8152600401610d599061507c565b6119076000613ecc565b565b33611912611ba2565b6001600160a01b0316146119385760405162461bcd60e51b8152600401610d599061507c565b6001600160401b0381166119855760405162461bcd60e51b815260206004820152601460248201527344454c41595f43414e4e4f545f42455f5a45524f60601b6044820152606401610d59565b6301e13380816001600160401b031611156119d35760405162461bcd60e51b815260206004820152600e60248201526d44454c41595f544f4f5f4c4f4e4760901b6044820152606401610d59565b60cf54600160801b90046001600160401b0316611a2e5760cf8054600160801b600160c01b031916600160801b6001600160401b03841602179055604051339060008051602061570a83398151915290610e0c908490614e64565b60cf80546001600160c01b0316600160c01b6001600160401b0384160217905560405133907f342b344c0ac2ffff8f84b1d82d8235a2401a0accf4666f1fec4a1c3cdf1d29e790610e0c908490614e64565b50565b33611a8c611ba2565b6001600160a01b031614611ab25760405162461bcd60e51b8152600401610d599061507c565b670de0b6b3a7640000811115611af95760405162461bcd60e51b815260206004820152600c60248201526b08c8a8abea89e9ebe90928e960a31b6044820152606401610d59565b60ce81905560405181815233907fec370615cc81fb334e5566fbc80664d9082377bf59288d64a79f3fbecf4323a990602001610e0c565b60c9546040516370a0823160e01b81526000916001600160a01b0316906370a0823190611b61903090600401614ee3565b602060405180830381865afa158015611b7e573d6000803e3d6000fd5b505050506040513d601f19601f8201168201806040525081019061131a91906150ef565b6065546001600160a01b031690565b606060378054610ca790615041565b611bc8611ba2565b6001600160a01b0316336001600160a01b03161480611beb5750611beb33613947565b611c075760405162461bcd60e51b8152600401610d59906150b1565b600060d58381548110611c1c57611c1c6150d9565b60009182526020909120015460d580546001600160a01b039092169250839185908110611c4b57611c4b6150d9565b60009182526020918290200180546001600160a01b0319166001600160a01b039384161790556040518581528483169284169133917f4a0a125a0f77451ab4de43b53c0a93266c6e542ceaa7ae0067e4ba66b4ce3a2d91015b60405180910390a4505050565b611cb9611ba2565b6001600160a01b0316336001600160a01b03161480611cdc5750611cdc33613947565b611cf85760405162461bcd60e51b8152600401610d59906150b1565b60d5805460009190611d0c90600190615241565b81548110611d1c57611d1c6150d9565b60009182526020909120015460d580546001600160a01b0390921692509080611d4757611d47615258565b600082815260208120820160001990810180546001600160a01b03191690559091019091556040516001600160a01b03831691339160008051602061576a8339815191529190a350565b3360008181526034602090815260408083206001600160a01b038716845290915281205490919083811015611e165760405162461bcd60e51b815260206004820152602560248201527f45524332303a2064656372656173656420616c6c6f77616e63652062656c6f77604482015264207a65726f60d81b6064820152608401610d59565b611e238286868403613974565b506001949350505050565b33611e37611ba2565b6001600160a01b031614611e5d5760405162461bcd60e51b8152600401610d599061507c565b6001600160a01b038216600081815260cd602052604090819020805460ff1916841515179055517f2458f684567d238b66deaa0126265bf3becabda0caaab7ebdda6b1794614a2d3906116ee90841515815260200190565b600080826002811115611eca57611eca61526e565b1415611eeb57611ed8611b30565b611ee0613f1e565b60d254030192915050565b600080611ef66115cc565b90925090506002846002811115611f0f57611f0f61526e565b1415611f4f57611f1d611b30565b611f25613f1e565b8360d254611f339190615241565b611f3d9190615241565b611f479190615193565b949350505050565b6001846002811115611f6357611f6361526e565b1415611f7f57611f71611b30565b60d254909101019392505050565b5050919050565b600033610e25818585613b23565b611f9c611ba2565b6001600160a01b0316336001600160a01b03161480611fbf5750611fbf33613947565b611fdb5760405162461bcd60e51b8152600401610d59906150b1565b602081111561201c5760405162461bcd60e51b815260206004820152600d60248201526c535441434b5f544f4f5f42494760981b6044820152606401610d59565b61202860d583836149ee565b50336001600160a01b031660008051602061574a83398151915283836040516116ee929190615284565b61205a611ba2565b6001600160a01b0316336001600160a01b0316148061207d575061207d33613947565b6120995760405162461bcd60e51b8152600401610d59906150b1565b60405181815233907f9493e5bbe4e8e0ac67284469a2d677403d0378a85a59e341d3abc433d0d9a2099060200160405180910390a2611a8030338361408a565b6120e1611ba2565b6001600160a01b0316336001600160a01b03161480612104575061210433613947565b6121205760405162461bcd60e51b8152600401610d59906150b1565b600260975414156121435760405162461bcd60e51b8152600401610d5990615139565b60026097556001600160a01b038216600090815260d3602052604090205460ff166121805760405162461bcd60e51b8152600401610d59906152d2565b8061219d5760405162461bcd60e51b8152600401610d59906152fe565b6121a6816140e0565b6001600160a01b038316600090815260d36020526040902080546001906121dc90849061010090046001600160f81b031661532d565b82546001600160f81b039182166101009390930a92830291909202199091161790555060d2805482900390556040518181526001600160a01b03831690339060008051602061578a8339815191529060200160405180910390a360405163852a12e360e01b8152600481018290526001600160a01b0383169063852a12e3906024016020604051808303816000875af115801561227d573d6000803e3d6000fd5b505050506040513d601f19601f820116820180604052508101906122a191906150ef565b156122be5760405162461bcd60e51b8152600401610d5990615355565b816001600160a01b031663ac784ddc6040518163ffffffff1660e01b8152600401602060405180830381865afa1580156122fc573d6000803e3d6000fd5b505050506040513d601f19601f82011682018060405250810190612320919061537c565b1561238f5760c960009054906101000a90046001600160a01b03166001600160a01b031663d0e30db0826040518263ffffffff1660e01b81526004016000604051808303818588803b15801561237557600080fd5b505af1158015612389573d6000803e3d6000fd5b50505050505b50506001609755565b60d85460ff16806123ad57506123ad336124ae565b6123f45760405162461bcd60e51b815260206004820152601860248201527715985d5b1d0e881393d517d3d397d0531313d5d7d31254d560421b6044820152606401610d59565b6123fc61130a565b6124046136c3565b61240e9083615193565b111561244b5760405162461bcd60e51b815260206004820152600c60248201526b13d5915497d3505617d5159360a21b6044820152606401610d59565b6124613361245c61118f6001613876565b6140fa565b60405181815233907fe1fffcc4923d04b559f4d29a8bfc6cda04eb5b0d3c460751c2402c5c5cc9109c9060200160405180910390a260c954611a80906001600160a01b03163330846141c7565b60006124b8611ba2565b6001600160a01b0316826001600160a01b031614806124db57506124db82613947565b80610e2b5750506001600160a01b0316600090815260cc602052604090205460ff1690565b33612509611ba2565b6001600160a01b03161461252f5760405162461bcd60e51b8152600401610d599061507c565b670de0b6b3a76400008111156125795760405162461bcd60e51b815260206004820152600f60248201526e0a882a48e8aa8bea89e9ebe90928e9608b1b6044820152606401610d59565b60d081905560405181815233907f95bc4480b51f4860106d42850bcae222cf3303fb2b7d433e896205e0ebefe36990602001610e0c565b6125b8611ba2565b6001600160a01b0316336001600160a01b031614806125db57506125db33613947565b6125f75760405162461bcd60e51b8152600401610d59906150b1565b6001600160a01b038216600090815260d3602052604090205460ff1661262f5760405162461bcd60e51b8152600401610d59906152d2565b8061264c5760405162461bcd60e51b8152600401610d59906152fe565b6040518181526001600160a01b0383169033907f49e9138fe0dacf001ea634236e38aa8bd229efd55ec4d7975228d679db6ce8f99060200160405180910390a38060d2600082825461269e9190615193565b909155506126ad9050816140e0565b6001600160a01b038316600081815260d3602090815260409182902080546001600160f81b0361010080830482169097011690950260ff909516949094179093558051632b1e137760e21b81529051919263ac784ddc926004808401938290030181865afa158015612723573d6000803e3d6000fd5b505050506040513d601f19601f82011682018060405250810190612747919061537c565b156128025760c954604051632e1a7d4d60e01b8152600481018390526001600160a01b0390911690632e1a7d4d90602401600060405180830381600087803b15801561279257600080fd5b505af11580156127a6573d6000803e3d6000fd5b50505050816001600160a01b0316631249c58b826040518263ffffffff1660e01b81526004016000604051808303818588803b1580156127e557600080fd5b505af11580156127f9573d6000803e3d6000fd5b50505050505050565b60c954612819906001600160a01b031683836141ff565b60405163140e25ad60e31b8152600481018290526001600160a01b0383169063a0712d68906024016020604051808303816000875af1158015612860573d6000803e3d6000fd5b505050506040513d601f19601f8201168201806040525081019061288491906150ef565b156110205760405162461bcd60e51b815260206004820152600b60248201526a1352539517d1905253115160aa1b6044820152606401610d59565b600060d580548060200260200160405190810160405280929190818152602001828054801561291757602002820191906000526020600020905b81546001600160a01b031681526001909101906020018083116128f9575b5050505050905060d5600061292c9190614a4d565b60005b81518110156129e457600082828151811061294c5761294c6150d9565b6020908102919091018101516001600160a01b038116600090815260d390925260409091205490915060ff161580612988575061298881614303565b1561299357506129d2565b60d580546001810182556000919091526000805160206157ea8339815191520180546001600160a01b0319166001600160a01b03929092169190911790555b806129dc8161511e565b91505061292f565b50336001600160a01b031660008051602061574a83398151915260d5604051610e0c9190615399565b612a15611ba2565b6001600160a01b0316336001600160a01b03161480612a385750612a3833613947565b612a545760405162461bcd60e51b8152600401610d59906150b1565b60d5805460009190612a6890600190615241565b81548110612a7857612a786150d9565b600091825260208220015460d580546001600160a01b0390921693509084908110612aa557612aa56150d9565b60009182526020909120015460d580546001600160a01b039092169250839185908110612ad457612ad46150d9565b9060005260206000200160006101000a8154816001600160a01b0302191690836001600160a01b0316021790555060d5805480612b1357612b13615258565b600082815260209020810160001990810180546001600160a01b03191690550190556040516001600160a01b03838116919083169033907f53bddc0ebb11647d046bd37b2965cd6d82f69c263b0b100658daad9ae79f41d890611ca49088815260200190565b60d58181548110612b8957600080fd5b6000918252602090912001546001600160a01b0316905081565b33612bac611ba2565b6001600160a01b031614612bd25760405162461bcd60e51b8152600401610d599061507c565b6001600160a01b038116600081815260d36020526040808220805460ff191690555133917fff8fe190f3935e9e8681ce444b08be824a6be3e5184465ddbd710cc4f1a9f2f291a350565b612c24611ba2565b6001600160a01b0316336001600160a01b03161480612c475750612c4733613947565b612c635760405162461bcd60e51b8152600401610d59906150b1565b60cf5460d454612c8d916001600160401b03600160801b909104811691600160401b9004166153dd565b6001600160401b03164210612cbc5760d480546001600160401b031916426001600160401b0316179055612d29565b60cf5460d454612cde916001600160801b0316906001600160401b0316615408565b6001600160801b0316421115612d295760405162461bcd60e51b815260206004820152601060248201526f4241445f484152564553545f54494d4560801b6044820152606401610d59565b60d25460008082815b85811015612eb3576000878783818110612d4e57612d4e6150d9565b9050602002016020810190612d639190614c2c565b6001600160a01b038116600090815260d3602052604090205490915060ff16612d9e5760405162461bcd60e51b8152600401610d59906152d2565b6001600160a01b038116600081815260d36020526040808220549051633af9e66960e01b81526101009091046001600160f81b03169290633af9e66990612de9903090600401614ee3565b602060405180830381865afa158015612e06573d6000803e3d6000fd5b505050506040513d601f19601f82011682018060405250810190612e2a91906150ef565b9050612e35816140e0565b6001600160a01b038416600090815260d36020526040902080546001600160f81b03929092166101000260ff90921691909117905581612e758287615193565b612e7f9190615241565b945081811115612e955781810387019650612e9d565b808203860195505b5050508080612eab9061511e565b915050612d32565b5060ce54600090612ece908590670de0b6b3a7640000613eb1565b9050612edf3061245c61118f611380565b600080612eea6115cc565b9092509050612f0c83612efd8885615193565b612f079190615241565b614367565b60d480546001600160801b03928316600160801b029216919091179055612f36612f078683615193565b60d88054610100600160881b0319166101006001600160801b03939093169290920291909117905560d284905560d48054600160401b600160801b031916600160401b426001600160401b03160217905560405133907f69e9c71f6799744a94d9897e77c3ed426cc2f92ba0ef3300785368209b6f4b2d90612fbb908c908c90615284565b60405180910390a260cf54600160c01b90046001600160401b0316801561302e5760cf80546001600160801b0316600160801b6001600160401b038416026001600160c01b0316179055604051339060008051602061570a83398151915290613025908490614e64565b60405180910390a25b50505050505050505050565b613042611ba2565b6001600160a01b0316336001600160a01b03161480613065575061306533613947565b6130815760405162461bcd60e51b8152600401610d59906150b1565b8060d6819055506000805160206157ca8339815191526130a560d65460d754613a99565b604051908152602001611783565b6130bb611ba2565b6001600160a01b0316336001600160a01b031614806130de57506130de33613947565b6130fa5760405162461bcd60e51b8152600401610d59906150b1565b600060d5838154811061310f5761310f6150d9565b600091825260208220015460d580546001600160a01b039092169350908490811061313c5761313c6150d9565b60009182526020909120015460d580546001600160a01b03909216925082918690811061316b5761316b6150d9565b9060005260206000200160006101000a8154816001600160a01b0302191690836001600160a01b031602179055508160d584815481106131ad576131ad6150d9565b60009182526020918290200180546001600160a01b0319166001600160a01b03938416179055604080518781529182018690528483169284169133917f86d0d8ebf0f4d918d7d5ea876055270042ae67e3ba4af1023531eaf10045b6da910160405180910390a450505050565b6002609754141561323d5760405162461bcd60e51b8152600401610d5990615139565b6002609781905550600061325f6132546002613876565b60ca54849190613eb1565b905061326b3383613d01565b604051818152339060008051602061572a8339815191529060200160405180910390a261238f3382613e3a565b6001600160a01b03918216600090815260346020908152604080832093909416825291909152205490565b336132cc611ba2565b6001600160a01b0316146132f25760405162461bcd60e51b8152600401610d599061507c565b6132fb826136cf565b60d5548110156133145761330f8183611bc0565b61331d565b61331d8261150c565b6001600160a01b038316600090815260d3602052604090205461010090046001600160f81b031680156133d35761335484826120d9565b60c9546040516370a0823160e01b81526133d39185916109b3916001600160a01b0316906370a082319061338c903090600401614ee3565b602060405180830381865afa1580156133a9573d6000803e3d6000fd5b505050506040513d601f19601f820116820180604052508101906133cd91906150ef565b84613a99565b6133dc84612ba3565b50505050565b600054610100900460ff166133fd5760005460ff1615613405565b61340561437d565b6134685760405162461bcd60e51b815260206004820152602e60248201527f496e697469616c697a61626c653a20636f6e747261637420697320616c72656160448201526d191e481a5b9a5d1a585b1a5e995960921b6064820152608401610d59565b600054610100900460ff1615801561348a576000805461ffff19166101011790555b61359c876001600160a01b03166306fdde036040518163ffffffff1660e01b8152600401600060405180830381865afa1580156134cb573d6000803e3d6000fd5b505050506040513d6000823e601f3d908101601f191682016040526134f3919081019061542a565b60405160200161350391906154bd565b604051602081830303815290604052886001600160a01b03166395d89b416040518163ffffffff1660e01b8152600401600060405180830381865afa158015613550573d6000803e3d6000fd5b505050506040513d6000823e601f3d908101601f19168201604052613578919081019061542a565b60405160200161358891906154fb565b60405160208183030381529060405261438e565b6135a46143bf565b6135ac6143ee565b866001600160a01b031663313ce5676040518163ffffffff1660e01b8152600401602060405180830381865afa1580156135ea573d6000803e3d6000fd5b505050506040513d601f19601f8201168201806040525081019061360e9190615170565b60ff1660cb81905560c980546001600160a01b0319166001600160a01b038a1617905561363c90600a615609565b60ca5561364a856001611e2e565b61365384611a83565b61365c83611909565b61366582610d2a565b60405133907f908408e307fc569b417f6cbec5d5a06f44a0a505ac0479b47d421a4b2fd6a1e690600090a261369986613ecc565b60001960d681905560d755600260d95580156127f9576000805461ff001916905550505050505050565b600061131a6000611eb5565b336136d8611ba2565b6001600160a01b0316146136fe5760405162461bcd60e51b8152600401610d599061507c565b806001600160a01b031663ac784ddc6040518163ffffffff1660e01b8152600401602060405180830381865afa15801561373c573d6000803e3d6000fd5b505050506040513d601f19601f82011682018060405250810190613760919061537c565b6137e35760c95460408051636f307dc360e01b815290516001600160a01b0392831692841691636f307dc39160048083019260209291908290030181865afa1580156137b0573d6000803e3d6000fd5b505050506040513d601f19601f820116820180604052508101906137d49190615615565b6001600160a01b0316146137ea565b60d15460ff165b6138295760405162461bcd60e51b815260206004820152601060248201526f57524f4e475f554e4445524c59494e4760801b6044820152606401610d59565b6001600160a01b038116600081815260d36020526040808220805460ff191660011790555133917f2fc1f5b589e399a463bf89605c1539bdd9878a9a3acd089abeca7a15e1fbe6ec91a350565b60008061388260355490565b90508061389357505060ca54919050565b61114c8160ca546138a386611eb5565b9190613cdf565b336138b3611ba2565b6001600160a01b0316146138d95760405162461bcd60e51b8152600401610d599061507c565b6001600160a01b03811661393e5760405162461bcd60e51b815260206004820152602660248201527f4f776e61626c653a206e6577206f776e657220697320746865207a65726f206160448201526564647265737360d01b6064820152608401610d59565b611a8081613ecc565b6001600160a01b0316600090815260cd602052604090205460ff1690565b6001600160a01b03163b151590565b6001600160a01b0383166139d65760405162461bcd60e51b8152602060048201526024808201527f45524332303a20617070726f76652066726f6d20746865207a65726f206164646044820152637265737360e01b6064820152608401610d59565b6001600160a01b038216613a375760405162461bcd60e51b815260206004820152602260248201527f45524332303a20617070726f766520746f20746865207a65726f206164647265604482015261737360f01b6064820152608401610d59565b6001600160a01b0383811660008181526034602090815260408083209487168084529482529182902085905590518481527f8c5be1e5ebec7d5bd14f71427d1e84f3dd0314c0f7b2291e5b200ac8c7c3b92591015b60405180910390a3505050565b6000818310613aa8578161114c565b5090919050565b6000613abb8484613298565b905060001981146133dc5781811015613b165760405162461bcd60e51b815260206004820152601d60248201527f45524332303a20696e73756666696369656e7420616c6c6f77616e63650000006044820152606401610d59565b6133dc8484848403613974565b6001600160a01b038316613b875760405162461bcd60e51b815260206004820152602560248201527f45524332303a207472616e736665722066726f6d20746865207a65726f206164604482015264647265737360d81b6064820152608401610d59565b6001600160a01b038216613be95760405162461bcd60e51b815260206004820152602360248201527f45524332303a207472616e7366657220746f20746865207a65726f206164647260448201526265737360e81b6064820152608401610d59565b6001600160a01b03831660009081526033602052604090205481811015613c615760405162461bcd60e51b815260206004820152602660248201527f45524332303a207472616e7366657220616d6f756e7420657863656564732062604482015265616c616e636560d01b6064820152608401610d59565b6001600160a01b03808516600090815260336020526040808220858503905591851681529081208054849290613c98908490615193565b92505081905550826001600160a01b0316846001600160a01b03166000805160206157aa83398151915284604051613cd291815260200190565b60405180910390a36133dc565b828102821515841585830484141716613cf757600080fd5b9190910492915050565b6001600160a01b038216613d615760405162461bcd60e51b815260206004820152602160248201527f45524332303a206275726e2066726f6d20746865207a65726f206164647265736044820152607360f81b6064820152608401610d59565b6001600160a01b03821660009081526033602052604090205481811015613dd55760405162461bcd60e51b815260206004820152602260248201527f45524332303a206275726e20616d6f756e7420657863656564732062616c616e604482015261636560f01b6064820152608401610d59565b6001600160a01b0383166000908152603360205260408120838303905560358054849290613e04908490615241565b90915550506040518281526000906001600160a01b038516906000805160206157aa83398151915290602001613a8c565b505050565b6000613e44611b30565b905080821115613e9a576000613e7460d054670de0b6b3a764000085613e6a6002611eb5565b6113799190615241565b90506000613e828385615241565b9050613e97613e918383615193565b8461441d565b50505b60c954613e35906001600160a01b0316848461408a565b8282028315848204841417613ec557600080fd5b0492915050565b606580546001600160a01b038381166001600160a01b0319831681179093556040519116919082907f8be0079c531659141344cd1fd0a4f28419497f9722a3daafe3b4186f6b6457e090600090a35050565b60008080805b60d55481101561406a57600060d58281548110613f4357613f436150d9565b60009182526020808320909101546001600160a01b031680835260d390915260409091205490915060ff161580613f9e57506001600160a01b038116600090815260d3602052604090205461010090046001600160f81b0316155b15613fa95750614058565b6001600160a01b038116600090815260d36020526040902054613fda9061010090046001600160f81b031684615193565b604051633af9e66960e01b81529093506001600160a01b03821690633af9e66990614009903090600401614ee3565b602060405180830381865afa158015614026573d6000803e3d6000fd5b505050506040513d601f19601f8201168201806040525081019061404a91906150ef565b6140549085615193565b9350505b806140628161511e565b915050613f24565b50818111614079576000614083565b6140838282615241565b9250505090565b613e358363a9059cbb60e01b84846040516024016140a9929190615632565b60408051601f198184030181529190526020810180516001600160e01b03166001600160e01b03199093169290921790915261475e565b60006001600160f81b038211156140f657600080fd5b5090565b6001600160a01b0382166141505760405162461bcd60e51b815260206004820152601f60248201527f45524332303a206d696e7420746f20746865207a65726f2061646472657373006044820152606401610d59565b80603560008282546141629190615193565b90915550506001600160a01b0382166000908152603360205260408120805483929061418f908490615193565b90915550506040518181526001600160a01b038316906000906000805160206157aa8339815191529060200160405180910390a35050565b6040516001600160a01b03808516602483015283166044820152606481018290526133dc9085906323b872dd60e01b906084016140a9565b8015806142795750604051636eb1769f60e11b81523060048201526001600160a01b03838116602483015284169063dd62ed3e90604401602060405180830381865afa158015614253573d6000803e3d6000fd5b505050506040513d601f19601f8201168201806040525081019061427791906150ef565b155b6142e45760405162461bcd60e51b815260206004820152603660248201527f5361666545524332303a20617070726f76652066726f6d206e6f6e2d7a65726f60448201527520746f206e6f6e2d7a65726f20616c6c6f77616e636560501b6064820152608401610d59565b613e358363095ea7b360e01b84846040516024016140a9929190615632565b6000805b60d55481101561435e5760d58181548110614324576143246150d9565b6000918252602090912001546001600160a01b038481169116141561434c5750600192915050565b806143568161511e565b915050614307565b50600092915050565b60006001600160801b038211156140f657600080fd5b600061438830613965565b15905090565b600054610100900460ff166143b55760405162461bcd60e51b8152600401610d599061564b565b6110208282614830565b600054610100900460ff166143e65760405162461bcd60e51b8152600401610d599061564b565b61190761487e565b600054610100900460ff166144155760405162461bcd60e51b8152600401610d599061564b565b6119076148ac565b60d554829060009061443190600190615241565b90505b600060d58281548110614449576144496150d9565b60009182526020808320909101546001600160a01b031680835260d39091526040909120549091506001600160f81b036101008204169060ff16158061448d575080155b156144f15760d58054806144a3576144a3615258565b600082815260208120820160001990810180546001600160a01b03191690559091019091556040516001600160a01b03841691339160008051602061576a8339815191529190a3505061473c565b60008482116145005781614502565b845b9050826001600160a01b0316336001600160a01b031660008051602061578a8339815191528360405161453791815260200190565b60405180910390a360405163852a12e360e01b8152600481018290526001600160a01b0384169063852a12e3906024016020604051808303816000875af1158015614586573d6000803e3d6000fd5b505050506040513d601f19601f820116820180604052508101906145aa91906150ef565b156145c75760405162461bcd60e51b8152600401610d5990615355565b60d15460ff1615614645574780156146435760c960009054906101000a90046001600160a01b03166001600160a01b031663d0e30db0826040518263ffffffff1660e01b81526004016000604051808303818588803b15801561462957600080fd5b505af115801561463d573d6000803e3d6000fd5b50505050505b505b600061464f611b30565b9687915081036000818511614665576000614669565b8185035b9050614674816140e0565b6001600160a01b038716600090815260d36020526040902080546001600160f81b03929092166101000260ff9092169190911790558188116146b75760006146bb565b8188035b97508061471b5760d58054806146d3576146d3615258565b600082815260208120820160001990810180546001600160a01b03191690559091019091556040516001600160a01b03881691339160008051602061576a8339815191529190a35b505050846000148061472b575083155b156147385750505061474e565b5050505b8061474681615696565b915050614434565b505060d280549290920390915550565b60006147b3826040518060400160405280602081526020017f5361666545524332303a206c6f772d6c6576656c2063616c6c206661696c6564815250856001600160a01b03166148dc9092919063ffffffff16565b805190915015613e3557808060200190518101906147d1919061537c565b613e355760405162461bcd60e51b815260206004820152602a60248201527f5361666545524332303a204552433230206f7065726174696f6e20646964206e6044820152691bdd081cdd58d8d9595960b21b6064820152608401610d59565b600054610100900460ff166148575760405162461bcd60e51b8152600401610d599061564b565b815161486a906036906020850190614a6b565b508051613e35906037906020840190614a6b565b600054610100900460ff166148a55760405162461bcd60e51b8152600401610d599061564b565b6001609755565b600054610100900460ff166148d35760405162461bcd60e51b8152600401610d599061564b565b61190733613ecc565b6060611f478484600085856148f085613965565b61493c5760405162461bcd60e51b815260206004820152601d60248201527f416464726573733a2063616c6c20746f206e6f6e2d636f6e74726163740000006044820152606401610d59565b600080866001600160a01b0316858760405161495891906156ad565b60006040518083038185875af1925050503d8060008114614995576040519150601f19603f3d011682016040523d82523d6000602084013e61499a565b606091505b50915091506149aa8282866149b5565b979650505050505050565b606083156149c457508161114c565b8251156149d45782518084602001fd5b8160405162461bcd60e51b8152600401610d599190614b20565b828054828255906000526020600020908101928215614a41579160200282015b82811115614a415781546001600160a01b0319166001600160a01b03843516178255602090920191600190910190614a0e565b506140f6929150614adf565b5080546000825590600052602060002090810190611a809190614adf565b828054614a7790615041565b90600052602060002090601f016020900481019282614a995760008555614a41565b82601f10614ab257805160ff1916838001178555614a41565b82800160010185558215614a41579182015b82811115614a41578251825591602001919060010190614ac4565b5b808211156140f65760008155600101614ae0565b60005b83811015614b0f578181015183820152602001614af7565b838111156133dc5750506000910152565b6020815260008251806020840152614b3f816040850160208701614af4565b601f01601f19169190910160400192915050565b80356001600160801b0381168114614b6a57600080fd5b919050565b600060208284031215614b8157600080fd5b61114c82614b53565b6001600160a01b0381168114611a8057600080fd5b60008060408385031215614bb257600080fd5b8235614bbd81614b8a565b946020939093013593505050565b6020808252825182820181905260009190848201906040850190845b81811015614c0c5783516001600160a01b031683529284019291840191600101614be7565b50909695505050505050565b6001600160801b0391909116815260200190565b600060208284031215614c3e57600080fd5b813561114c81614b8a565b634e487b7160e01b600052604160045260246000fd5b604051601f8201601f191681016001600160401b0381118282101715614c8757614c87614c49565b604052919050565b60006020808385031215614ca257600080fd5b82356001600160401b0380821115614cb957600080fd5b818501915085601f830112614ccd57600080fd5b813581811115614cdf57614cdf614c49565b8060051b9150614cf0848301614c5f565b8181529183018401918481019088841115614d0a57600080fd5b938501935b83851015614d345784359250614d2483614b8a565b8282529385019390850190614d0f565b98975050505050505050565b600080600060608486031215614d5557600080fd5b8335614d6081614b8a565b92506020840135614d7081614b8a565b929592945050506040919091013590565b600060208284031215614d9357600080fd5b5035919050565b8015158114611a8057600080fd5b600060208284031215614dba57600080fd5b813561114c81614d9a565b60008083601f840112614dd757600080fd5b5081356001600160401b03811115614dee57600080fd5b6020830191508360208260051b8501011115614e0957600080fd5b9250929050565b600080600060408486031215614e2557600080fd5b8335614e3081614b8a565b925060208401356001600160401b03811115614e4b57600080fd5b614e5786828701614dc5565b9497909650939450505050565b6001600160401b0391909116815260200190565b60008060408385031215614e8b57600080fd5b8235614e9681614b8a565b91506020830135614ea681614d9a565b809150509250929050565b80356001600160401b0381168114614b6a57600080fd5b600060208284031215614eda57600080fd5b61114c82614eb1565b6001600160a01b0391909116815260200190565b60008060408385031215614f0a57600080fd5b823591506020830135614ea681614b8a565b600060208284031215614f2e57600080fd5b81356003811061114c57600080fd5b60008060208385031215614f5057600080fd5b82356001600160401b03811115614f6657600080fd5b614f7285828601614dc5565b90969095509350505050565b60008060408385031215614f9157600080fd5b50508035926020909101359150565b60008060408385031215614fb357600080fd5b8235614fbe81614b8a565b91506020830135614ea681614b8a565b60008060008060008060c08789031215614fe757600080fd5b8635614ff281614b8a565b9550602087013561500281614b8a565b9450604087013561501281614b8a565b93506060870135925061502760808801614eb1565b915061503560a08801614b53565b90509295509295509295565b600181811c9082168061505557607f821691505b6020821081141561507657634e487b7160e01b600052602260045260246000fd5b50919050565b6020808252818101527f4f776e61626c653a2063616c6c6572206973206e6f7420746865206f776e6572604082015260600190565b6020808252600e908201526d0acc2ead8e874409c9ebe82aaa8960931b604082015260600190565b634e487b7160e01b600052603260045260246000fd5b60006020828403121561510157600080fd5b5051919050565b634e487b7160e01b600052601160045260246000fd5b600060001982141561513257615132615108565b5060010190565b6020808252601f908201527f5265656e7472616e637947756172643a207265656e7472616e742063616c6c00604082015260600190565b60006020828403121561518257600080fd5b815160ff8116811461114c57600080fd5b600082198211156151a6576151a6615108565b500190565b6001600160a01b03848116825260406020808401829052908301849052600091859160608501845b878110156151fa5784356151e681614b8a565b8416825293820193908201906001016151d3565b5098975050505050505050565b6020808252600a908201526914d51050d2d7d195531360b21b604082015260600190565b634e487b7160e01b600052601260045260246000fd5b60008282101561525357615253615108565b500390565b634e487b7160e01b600052603160045260246000fd5b634e487b7160e01b600052602160045260246000fd5b60208082528181018390526000908460408401835b868110156152c75782356152ac81614b8a565b6001600160a01b031682529183019190830190600101615299565b509695505050505050565b602080825260129082015271554e545255535445445f535452415445475960701b604082015260600190565b602080825260159082015274414d4f554e545f43414e4e4f545f42455f5a45524f60581b604082015260600190565b60006001600160f81b038381169083168181101561534d5761534d615108565b039392505050565b6020808252600d908201526c14915111515357d19052531151609a1b604082015260600190565b60006020828403121561538e57600080fd5b815161114c81614d9a565b6020808252825482820181905260008481528281209092916040850190845b81811015614c0c5783546001600160a01b0316835260019384019392850192016153b8565b60006001600160401b038281168482168083038211156153ff576153ff615108565b01949350505050565b60006001600160801b038281168482168083038211156153ff576153ff615108565b60006020828403121561543c57600080fd5b81516001600160401b038082111561545357600080fd5b818401915084601f83011261546757600080fd5b81518181111561547957615479614c49565b61548c601f8201601f1916602001614c5f565b91508082528560208285010111156154a357600080fd5b6154b4816020840160208601614af4565b50949350505050565b65029b1b4b7b7160d51b8152600082516154de816006850160208701614af4565b650815985d5b1d60d21b6006939091019283015250600c01919050565b61736360f01b815260008251615518816002850160208701614af4565b9190910160020192915050565b600181815b8085111561556057816000190482111561554657615546615108565b8085161561555357918102915b93841c939080029061552a565b509250929050565b60008261557757506001610e2b565b8161558457506000610e2b565b816001811461559a57600281146155a4576155c0565b6001915050610e2b565b60ff8411156155b5576155b5615108565b50506001821b610e2b565b5060208310610133831016604e8410600b84101617156155e3575081810a610e2b565b6155ed8383615525565b806000190482111561560157615601615108565b029392505050565b600061114c8383615568565b60006020828403121561562757600080fd5b815161114c81614b8a565b6001600160a01b03929092168252602082015260400190565b6020808252602b908201527f496e697469616c697a61626c653a20636f6e7472616374206973206e6f74206960408201526a6e697469616c697a696e6760a81b606082015260800190565b6000816156a5576156a5615108565b506000190190565b600082516156bf818460208701614af4565b919091019291505056fed3c85e764bd8fe5c02e811c9538a4d50d8ffff22143526e00197d3cd0d11178a19048f3850ef1c105bc7786a6aba25c1644bec347aa37265ebb5cdacac6dfa91e893fa207c5a5094cad036347b877c23ebecd9df94ae0426f287040c13220b3f884edad9ce6fa2440d8a54cc123490eb96d2768479d49ff9c7366125a942436493fc2f83177365343f59862c6a290117bb3036bca4db453f92d1c6e9163f538457075a8110ddb2863422424e354eb417b3b58b5ebce466afa64f3d894154507e8d851b682e239b1de720e92e5c5cffdb72d353104cc63dc6ed144d7080217fbeddf252ad1be2c89b69c2b068fc378daa952ba7f163c4a11628f55a4df523b3ef7f3922ae986170d8fafba84aef002be412156213e5390345e45b51ddb8ab7e1551858de9989bf7441865ebdadbf7382c8838edbf830f5d86a9a51ac773676dd6a2646970667358221220f76cc0c12ce945184bf5e41d164326aed3ef896bb3f629c2c96b47d3bb69d58964736f6c634300080a0033"
}