{
  "address": "0xFFD86C66cBbB27671984932180988E2f1a93B8fE",
  "abi": [
    {
      "inputs": [
        {
          "components": [
            {
              "internalType": "address",
              "name": "underlying",
              "type": "address"
            },
            {
              "internalType": "address",
              "name": "short",
              "type": "address"
            },
            {
              "internalType": "address",
              "name": "cTokenLend",
              "type": "address"
            },
            {
              "internalType": "address",
              "name": "cTokenBorrow",
              "type": "address"
            },
            {
              "internalType": "address",
              "name": "uniPair",
              "type": "address"
            },
            {
              "internalType": "address",
              "name": "uniFarm",
              "type": "address"
            },
            {
              "internalType": "address",
              "name": "farmToken",
              "type": "address"
            },
            {
              "internalType": "uint256",
              "name": "farmId",
              "type": "uint256"
            },
            {
              "internalType": "address",
              "name": "farmRouter",
              "type": "address"
            },
            {
              "internalType": "address",
              "name": "comptroller",
              "type": "address"
            },
            {
              "internalType": "address",
              "name": "lendRewardRouter",
              "type": "address"
            },
            {
              "internalType": "address",
              "name": "lendRewardToken",
              "type": "address"
            },
            {
              "internalType": "address",
              "name": "vault",
              "type": "address"
            },
            {
              "internalType": "string",
              "name": "symbol",
              "type": "string"
            },
            {
              "internalType": "string",
              "name": "name",
              "type": "string"
            },
            {
              "internalType": "uint256",
              "name": "maxTvl",
              "type": "uint256"
            }
          ],
          "internalType": "struct Config",
          "name": "config",
          "type": "tuple"
        }
      ],
      "stateMutability": "nonpayable",
      "type": "constructor"
    },
    {
      "anonymous": false,
      "inputs": [
        {
          "indexed": false,
          "internalType": "address",
          "name": "sender",
          "type": "address"
        },
        {
          "indexed": false,
          "internalType": "uint256",
          "name": "amount",
          "type": "uint256"
        }
      ],
      "name": "Deposit",
      "type": "event"
    },
    {
      "anonymous": false,
      "inputs": [
        {
          "indexed": true,
          "internalType": "address",
          "name": "recipient",
          "type": "address"
        },
        {
          "indexed": false,
          "internalType": "contract IERC20[]",
          "name": "tokens",
          "type": "address[]"
        }
      ],
      "name": "EmergencyWithdraw",
      "type": "event"
    },
    {
      "anonymous": false,
      "inputs": [
        {
          "indexed": false,
          "internalType": "uint256",
          "name": "harvested",
          "type": "uint256"
        }
      ],
      "name": "Harvest",
      "type": "event"
    },
    {
      "anonymous": false,
      "inputs": [
        {
          "indexed": true,
          "internalType": "address",
          "name": "token",
          "type": "address"
        },
        {
          "indexed": false,
          "internalType": "uint256",
          "name": "amount",
          "type": "uint256"
        }
      ],
      "name": "HarvestedToken",
      "type": "event"
    },
    {
      "anonymous": false,
      "inputs": [
        {
          "indexed": true,
          "internalType": "address",
          "name": "account",
          "type": "address"
        },
        {
          "indexed": false,
          "internalType": "bool",
          "name": "isManager",
          "type": "bool"
        }
      ],
      "name": "ManagerUpdate",
      "type": "event"
    },
    {
      "anonymous": false,
      "inputs": [
        {
          "indexed": true,
          "internalType": "address",
          "name": "previousOwner",
          "type": "address"
        },
        {
          "indexed": true,
          "internalType": "address",
          "name": "newOwner",
          "type": "address"
        }
      ],
      "name": "OwnershipTransferred",
      "type": "event"
    },
    {
      "anonymous": false,
      "inputs": [
        {
          "indexed": false,
          "internalType": "uint256",
          "name": "shortPrice",
          "type": "uint256"
        },
        {
          "indexed": false,
          "internalType": "uint256",
          "name": "tvlBeforeRebalance",
          "type": "uint256"
        },
        {
          "indexed": false,
          "internalType": "uint256",
          "name": "positionOffset",
          "type": "uint256"
        }
      ],
      "name": "Rebalance",
      "type": "event"
    },
    {
      "anonymous": false,
      "inputs": [
        {
          "indexed": true,
          "internalType": "address",
          "name": "sender",
          "type": "address"
        },
        {
          "indexed": false,
          "internalType": "uint256",
          "name": "startLoanHealth",
          "type": "uint256"
        },
        {
          "indexed": false,
          "internalType": "uint256",
          "name": "updatedLoanHealth",
          "type": "uint256"
        }
      ],
      "name": "RebalanceLoan",
      "type": "event"
    },
    {
      "anonymous": false,
      "inputs": [
        {
          "indexed": false,
          "internalType": "uint256",
          "name": "loanHealth",
          "type": "uint256"
        }
      ],
      "name": "SetMaxPriceMismatch",
      "type": "event"
    },
    {
      "anonymous": false,
      "inputs": [
        {
          "indexed": false,
          "internalType": "uint256",
          "name": "loanHealth",
          "type": "uint256"
        }
      ],
      "name": "SetMaxTvl",
      "type": "event"
    },
    {
      "anonymous": false,
      "inputs": [
        {
          "indexed": false,
          "internalType": "uint256",
          "name": "loanHealth",
          "type": "uint256"
        }
      ],
      "name": "SetRebalanceThreshold",
      "type": "event"
    },
    {
      "anonymous": false,
      "inputs": [
        {
          "indexed": false,
          "internalType": "uint256",
          "name": "collateralRatio",
          "type": "uint256"
        }
      ],
      "name": "SetSafeCollateralRaio",
      "type": "event"
    },
    {
      "anonymous": false,
      "inputs": [
        {
          "indexed": true,
          "internalType": "address",
          "name": "vault",
          "type": "address"
        }
      ],
      "name": "VaultUpdate",
      "type": "event"
    },
    {
      "anonymous": false,
      "inputs": [
        {
          "indexed": false,
          "internalType": "address",
          "name": "sender",
          "type": "address"
        },
        {
          "indexed": false,
          "internalType": "uint256",
          "name": "amount",
          "type": "uint256"
        }
      ],
      "name": "Withdraw",
      "type": "event"
    },
    {
      "anonymous": false,
      "inputs": [
        {
          "indexed": false,
          "internalType": "uint256",
          "name": "loanHealth",
          "type": "uint256"
        }
      ],
      "name": "setMinLoanHealth",
      "type": "event"
    },
    {
      "inputs": [],
      "name": "BASE_UNIT",
      "outputs": [
        {
          "internalType": "uint256",
          "name": "",
          "type": "uint256"
        }
      ],
      "stateMutability": "view",
      "type": "function"
    },
    {
      "inputs": [
        {
          "internalType": "address",
          "name": "",
          "type": "address"
        }
      ],
      "name": "balanceOfUnderlying",
      "outputs": [
        {
          "internalType": "uint256",
          "name": "",
          "type": "uint256"
        }
      ],
      "stateMutability": "view",
      "type": "function"
    },
    {
      "inputs": [],
      "name": "balanceOfUnderlying",
      "outputs": [
        {
          "internalType": "uint256",
          "name": "assets",
          "type": "uint256"
        }
      ],
      "stateMutability": "view",
      "type": "function"
    },
    {
      "inputs": [],
      "name": "cTokenBorrow",
      "outputs": [
        {
          "internalType": "contract ICTokenErc20",
          "name": "",
          "type": "address"
        }
      ],
      "stateMutability": "view",
      "type": "function"
    },
    {
      "inputs": [],
      "name": "cTokenLend",
      "outputs": [
        {
          "internalType": "contract ICTokenErc20",
          "name": "",
          "type": "address"
        }
      ],
      "stateMutability": "view",
      "type": "function"
    },
    {
      "inputs": [
        {
          "internalType": "uint256",
          "name": "maxSlippage",
          "type": "uint256"
        }
      ],
      "name": "closePosition",
      "outputs": [],
      "stateMutability": "nonpayable",
      "type": "function"
    },
    {
      "inputs": [],
      "name": "comptroller",
      "outputs": [
        {
          "internalType": "contract IComptroller",
          "name": "",
          "type": "address"
        }
      ],
      "stateMutability": "view",
      "type": "function"
    },
    {
      "inputs": [],
      "name": "decimals",
      "outputs": [
        {
          "internalType": "uint8",
          "name": "",
          "type": "uint8"
        }
      ],
      "stateMutability": "view",
      "type": "function"
    },
    {
      "inputs": [
        {
          "internalType": "address",
          "name": "recipient",
          "type": "address"
        },
        {
          "internalType": "contract IERC20[]",
          "name": "tokens",
          "type": "address[]"
        }
      ],
      "name": "emergencyWithdraw",
      "outputs": [],
      "stateMutability": "nonpayable",
      "type": "function"
    },
    {
      "inputs": [],
      "name": "farmRouter",
      "outputs": [
        {
          "internalType": "contract IUniswapV2Router01",
          "name": "",
          "type": "address"
        }
      ],
      "stateMutability": "view",
      "type": "function"
    },
    {
      "inputs": [],
      "name": "getCollateralRatio",
      "outputs": [
        {
          "internalType": "uint256",
          "name": "",
          "type": "uint256"
        }
      ],
      "stateMutability": "view",
      "type": "function"
    },
    {
      "inputs": [],
      "name": "getMaxTvl",
      "outputs": [
        {
          "internalType": "uint256",
          "name": "",
          "type": "uint256"
        }
      ],
      "stateMutability": "view",
      "type": "function"
    },
    {
      "inputs": [],
      "name": "getPositionOffset",
      "outputs": [
        {
          "internalType": "uint256",
          "name": "positionOffset",
          "type": "uint256"
        }
      ],
      "stateMutability": "view",
      "type": "function"
    },
    {
      "inputs": [],
      "name": "getPriceOffset",
      "outputs": [
        {
          "internalType": "uint256",
          "name": "offset",
          "type": "uint256"
        }
      ],
      "stateMutability": "view",
      "type": "function"
    },
    {
      "inputs": [],
      "name": "getPricePerShare",
      "outputs": [
        {
          "internalType": "uint256",
          "name": "",
          "type": "uint256"
        }
      ],
      "stateMutability": "view",
      "type": "function"
    },
    {
      "inputs": [],
      "name": "getTVL",
      "outputs": [
        {
          "internalType": "uint256",
          "name": "tvl",
          "type": "uint256"
        },
        {
          "internalType": "uint256",
          "name": "collateralBalance",
          "type": "uint256"
        },
        {
          "internalType": "uint256",
          "name": "borrowPosition",
          "type": "uint256"
        },
        {
          "internalType": "uint256",
          "name": "borrowBalance",
          "type": "uint256"
        },
        {
          "internalType": "uint256",
          "name": "lpBalance",
          "type": "uint256"
        },
        {
          "internalType": "uint256",
          "name": "underlyingBalance",
          "type": "uint256"
        }
      ],
      "stateMutability": "view",
      "type": "function"
    },
    {
      "inputs": [],
      "name": "getTotalTVL",
      "outputs": [
        {
          "internalType": "uint256",
          "name": "tvl",
          "type": "uint256"
        }
      ],
      "stateMutability": "view",
      "type": "function"
    },
    {
      "inputs": [],
      "name": "getUnderlyingShortReserves",
      "outputs": [
        {
          "internalType": "uint256",
          "name": "reserveA",
          "type": "uint256"
        },
        {
          "internalType": "uint256",
          "name": "reserveB",
          "type": "uint256"
        }
      ],
      "stateMutability": "view",
      "type": "function"
    },
    {
      "inputs": [
        {
          "components": [
            {
              "internalType": "address[]",
              "name": "path",
              "type": "address[]"
            },
            {
              "internalType": "uint256",
              "name": "min",
              "type": "uint256"
            },
            {
              "internalType": "uint256",
              "name": "deadline",
              "type": "uint256"
            }
          ],
          "internalType": "struct HarvestSwapParms[]",
          "name": "uniParams",
          "type": "tuple[]"
        },
        {
          "components": [
            {
              "internalType": "address[]",
              "name": "path",
              "type": "address[]"
            },
            {
              "internalType": "uint256",
              "name": "min",
              "type": "uint256"
            },
            {
              "internalType": "uint256",
              "name": "deadline",
              "type": "uint256"
            }
          ],
          "internalType": "struct HarvestSwapParms[]",
          "name": "lendingParams",
          "type": "tuple[]"
        }
      ],
      "name": "harvest",
      "outputs": [
        {
          "internalType": "uint256[]",
          "name": "farmHarvest",
          "type": "uint256[]"
        },
        {
          "internalType": "uint256[]",
          "name": "lendHarvest",
          "type": "uint256[]"
        }
      ],
      "stateMutability": "nonpayable",
      "type": "function"
    },
    {
      "inputs": [],
      "name": "isCEther",
      "outputs": [
        {
          "internalType": "bool",
          "name": "",
          "type": "bool"
        }
      ],
      "stateMutability": "pure",
      "type": "function"
    },
    {
      "inputs": [],
      "name": "isInitialized",
      "outputs": [
        {
          "internalType": "bool",
          "name": "",
          "type": "bool"
        }
      ],
      "stateMutability": "view",
      "type": "function"
    },
    {
      "inputs": [
        {
          "internalType": "address",
          "name": "user",
          "type": "address"
        }
      ],
      "name": "isManager",
      "outputs": [
        {
          "internalType": "bool",
          "name": "",
          "type": "bool"
        }
      ],
      "stateMutability": "view",
      "type": "function"
    },
    {
      "inputs": [],
      "name": "lastHarvest",
      "outputs": [
        {
          "internalType": "uint256",
          "name": "",
          "type": "uint256"
        }
      ],
      "stateMutability": "view",
      "type": "function"
    },
    {
      "inputs": [],
      "name": "lendFarmRouter",
      "outputs": [
        {
          "internalType": "contract IUniswapV2Router01",
          "name": "",
          "type": "address"
        }
      ],
      "stateMutability": "view",
      "type": "function"
    },
    {
      "inputs": [],
      "name": "loanHealth",
      "outputs": [
        {
          "internalType": "uint256",
          "name": "",
          "type": "uint256"
        }
      ],
      "stateMutability": "view",
      "type": "function"
    },
    {
      "inputs": [],
      "name": "maxPriceMismatch",
      "outputs": [
        {
          "internalType": "uint256",
          "name": "",
          "type": "uint256"
        }
      ],
      "stateMutability": "view",
      "type": "function"
    },
    {
      "inputs": [],
      "name": "minLoanHealth",
      "outputs": [
        {
          "internalType": "uint256",
          "name": "",
          "type": "uint256"
        }
      ],
      "stateMutability": "view",
      "type": "function"
    },
    {
      "inputs": [
        {
          "internalType": "uint256",
          "name": "amount",
          "type": "uint256"
        }
      ],
      "name": "mint",
      "outputs": [
        {
          "internalType": "uint256",
          "name": "errCode",
          "type": "uint256"
        }
      ],
      "stateMutability": "nonpayable",
      "type": "function"
    },
    {
      "inputs": [],
      "name": "name",
      "outputs": [
        {
          "internalType": "string",
          "name": "",
          "type": "string"
        }
      ],
      "stateMutability": "view",
      "type": "function"
    },
    {
      "inputs": [],
      "name": "oracle",
      "outputs": [
        {
          "internalType": "contract ICompPriceOracle",
          "name": "",
          "type": "address"
        }
      ],
      "stateMutability": "view",
      "type": "function"
    },
    {
      "inputs": [],
      "name": "owner",
      "outputs": [
        {
          "internalType": "address",
          "name": "",
          "type": "address"
        }
      ],
      "stateMutability": "view",
      "type": "function"
    },
    {
      "inputs": [],
      "name": "pair",
      "outputs": [
        {
          "internalType": "contract IUniswapV2Pair",
          "name": "",
          "type": "address"
        }
      ],
      "stateMutability": "view",
      "type": "function"
    },
    {
      "inputs": [
        {
          "internalType": "uint256",
          "name": "maxSlippage",
          "type": "uint256"
        }
      ],
      "name": "rebalance",
      "outputs": [],
      "stateMutability": "nonpayable",
      "type": "function"
    },
    {
      "inputs": [],
      "name": "rebalanceLoan",
      "outputs": [],
      "stateMutability": "nonpayable",
      "type": "function"
    },
    {
      "inputs": [],
      "name": "rebalanceThreshold",
      "outputs": [
        {
          "internalType": "uint16",
          "name": "",
          "type": "uint16"
        }
      ],
      "stateMutability": "view",
      "type": "function"
    },
    {
      "inputs": [
        {
          "internalType": "uint256",
          "name": "repayAmnt",
          "type": "uint256"
        },
        {
          "internalType": "uint256",
          "name": "withdrawAmnt",
          "type": "uint256"
        }
      ],
      "name": "redeemCollateral",
      "outputs": [],
      "stateMutability": "nonpayable",
      "type": "function"
    },
    {
      "inputs": [
        {
          "internalType": "uint256",
          "name": "amount",
          "type": "uint256"
        }
      ],
      "name": "redeemUnderlying",
      "outputs": [
        {
          "internalType": "uint256",
          "name": "errCode",
          "type": "uint256"
        }
      ],
      "stateMutability": "nonpayable",
      "type": "function"
    },
    {
      "inputs": [
        {
          "internalType": "uint256",
          "name": "removeLp",
          "type": "uint256"
        }
      ],
      "name": "removeLiquidity",
      "outputs": [],
      "stateMutability": "nonpayable",
      "type": "function"
    },
    {
      "inputs": [],
      "name": "renounceOwnership",
      "outputs": [],
      "stateMutability": "nonpayable",
      "type": "function"
    },
    {
      "inputs": [],
      "name": "safeCollateralRatio",
      "outputs": [
        {
          "internalType": "uint256",
          "name": "",
          "type": "uint256"
        }
      ],
      "stateMutability": "view",
      "type": "function"
    },
    {
      "inputs": [
        {
          "internalType": "address",
          "name": "user",
          "type": "address"
        },
        {
          "internalType": "bool",
          "name": "_isManager",
          "type": "bool"
        }
      ],
      "name": "setManager",
      "outputs": [],
      "stateMutability": "nonpayable",
      "type": "function"
    },
    {
      "inputs": [
        {
          "internalType": "uint256",
          "name": "maxPriceMismatch_",
          "type": "uint256"
        }
      ],
      "name": "setMaxPriceMismatch",
      "outputs": [],
      "stateMutability": "nonpayable",
      "type": "function"
    },
    {
      "inputs": [
        {
          "internalType": "uint256",
          "name": "maxTvl_",
          "type": "uint256"
        }
      ],
      "name": "setMaxTvl",
      "outputs": [],
      "stateMutability": "nonpayable",
      "type": "function"
    },
    {
      "inputs": [
        {
          "internalType": "uint256",
          "name": "minLoanHealth_",
          "type": "uint256"
        }
      ],
      "name": "setMinLoanHeath",
      "outputs": [],
      "stateMutability": "nonpayable",
      "type": "function"
    },
    {
      "inputs": [
        {
          "internalType": "uint16",
          "name": "rebalanceThreshold_",
          "type": "uint16"
        }
      ],
      "name": "setRebalanceThreshold",
      "outputs": [],
      "stateMutability": "nonpayable",
      "type": "function"
    },
    {
      "inputs": [
        {
          "internalType": "uint256",
          "name": "safeCollateralRatio_",
          "type": "uint256"
        }
      ],
      "name": "setSafeCollateralRatio",
      "outputs": [],
      "stateMutability": "nonpayable",
      "type": "function"
    },
    {
      "inputs": [
        {
          "internalType": "address",
          "name": "vault_",
          "type": "address"
        }
      ],
      "name": "setVault",
      "outputs": [],
      "stateMutability": "nonpayable",
      "type": "function"
    },
    {
      "inputs": [],
      "name": "short",
      "outputs": [
        {
          "internalType": "contract IERC20",
          "name": "",
          "type": "address"
        }
      ],
      "stateMutability": "view",
      "type": "function"
    },
    {
      "inputs": [],
      "name": "symbol",
      "outputs": [
        {
          "internalType": "string",
          "name": "",
          "type": "string"
        }
      ],
      "stateMutability": "view",
      "type": "function"
    },
    {
      "inputs": [],
      "name": "totalSupply",
      "outputs": [
        {
          "internalType": "uint256",
          "name": "",
          "type": "uint256"
        }
      ],
      "stateMutability": "view",
      "type": "function"
    },
    {
      "inputs": [
        {
          "internalType": "address",
          "name": "newOwner",
          "type": "address"
        }
      ],
      "name": "transferOwnership",
      "outputs": [],
      "stateMutability": "nonpayable",
      "type": "function"
    },
    {
      "inputs": [],
      "name": "underlying",
      "outputs": [
        {
          "internalType": "contract IERC20",
          "name": "",
          "type": "address"
        }
      ],
      "stateMutability": "view",
      "type": "function"
    },
    {
      "inputs": [],
      "name": "vault",
      "outputs": [
        {
          "internalType": "address",
          "name": "",
          "type": "address"
        }
      ],
      "stateMutability": "view",
      "type": "function"
    },
    {
      "inputs": [],
      "name": "version",
      "outputs": [
        {
          "internalType": "uint256",
          "name": "",
          "type": "uint256"
        }
      ],
      "stateMutability": "view",
      "type": "function"
    },
    {
      "inputs": [],
      "name": "withdrawFromFarm",
      "outputs": [],
      "stateMutability": "nonpayable",
      "type": "function"
    },
    {
      "stateMutability": "payable",
      "type": "receive"
    }
  ],
  "transactionHash": "0x8895a8e43ee277991d4bbb2ce26c12b51947a91c49cfb1bbb6788da251090757",
  "args": [
    [
      "0x8f552a71EFE5eeFc207Bf75485b356A0b3f01eC9",
      "0xAcc15dC74880C9944775448304B263D191c6077F",
      "0x02e9081DfadD37A852F9a73C4d7d69e615E61334",
      "0x091608f4e4a15335145be0A279483C0f8E4c7955",
      "0x9bFcf685e641206115dadc0C9ab17181e1d4975c",
      "0xF3a5454496E26ac57da879bf3285Fa85DEBF0388",
      "0x0E358838ce72d5e61E0018a2ffaC4bEC5F4c88d2",
      12,
      "0x70085a09D30D6f8C4ecF6eE10120d1847383BB57",
      "0x8E00D5e02E65A19337Cdba98bbA9F84d4186a180",
      "0x70085a09D30D6f8C4ecF6eE10120d1847383BB57",
      "0x511aB53F793683763E5a8829738301368a2411E3",
      "0x493b0cc1027d40e4Abc3a6a5aC9D60d62c053396",
      "USDCglmrSTELLAwell",
      "USDC GLMR STELLA Moonwell",
      "115792089237316195423570985008687907853269984665640564039457584007913129639935"
    ]
  ],
  "numDeployments": 1,
  "solcInputHash": "840d0470c3757998b83f67edf2c60b6b",
  "bytecode": "0x60806040526064600c55670ff59ee833b30000600d55600e805461ffff1916610190179055611f406010553480156200003757600080fd5b50604051620062a9380380620062a98339810160408190526200005a9162000e0a565b6101808101516101a08201516101c0830151620000773362000147565b60018055600480546001600160a01b0319166001600160a01b0385161790558151620000ab90600790602085019062000c2b565b508051620000c190600690602084019062000c2b565b505050608082015160a083015161010084015160c085015160e0860151620000ea955062000197565b6200010a816101200151826040015183606001516200021c60201b60201c565b62000126816101400151826101600151620002e860201b60201c565b805160208201516101e0830151620001409291906200035d565b5062001337565b600080546001600160a01b038381166001600160a01b0319831681178455604051919092169283917f8be0079c531659141344cd1fd0a4f28419497f9722a3daafe3b4186f6b6457e09190a35050565b60025460ff1615620001c65760405162461bcd60e51b8152600401620001bd9062000fac565b60405180910390fd5b601780546001600160a01b03199081166001600160a01b03968716179091556018805482169486169490941790935560198054841692851692909217909155601a80549092169390921692909217909155601b55565b601180546001600160a01b038085166001600160a01b03199283161790925560128054848416908316179055601380549286169290911682179055604080516307dc0d1d60e41b81529051637dc0d1d0916004808201926020929091908290030181865afa15801562000293573d6000803e3d6000fd5b505050506040513d601f19601f82011682018060405250810190620002b9919062000fd1565b601480546001600160a01b0319166001600160a01b0392909216919091179055620002e362000509565b505050565b60025460ff16156200030e5760405162461bcd60e51b8152600401620001bd9062000fac565b601680546001600160a01b03199081166001600160a01b0384811691821790935560158054909216928516928317909155620003599160001962000605602090811b62001b2617901c565b5050565b60025460ff1615620003835760405162461bcd60e51b8152600401620001bd9062000fac565b600a80546001600160a01b038086166001600160a01b03199283168117909355600b805491861691909216179055620003cf903060001962001b2662000605602090811b91909117901c565b620003d962000750565b620003e690600a62001104565b600955620003f481620007c6565b7f5ceaf8b7b0d35f85ef4df565057cd318e70d9f8681f89425a2d5e09c1c70a7f9600d546040516200042891815260200190565b60405180910390a17f3e87fa3180c1babd204ce79375729d7a6694a2d2f0fb3e250f9138488ed066bb600c546040516200046491815260200190565b60405180910390a1600e5460405161ffff90911681527f36c98a54ec4f90fe58a67bf25cfc1691dbd53639eee3513536d83e8d34fb0a9b9060200160405180910390a17f4812bd1abd1ad4ea905335e3af941ec67d6d51ecb36ab58f23af0af081aac57b601054604051620004db91815260200190565b60405180910390a1620004ed6200086e565b620004f7620008dc565b50506002805460ff1916600117905550565b6040805160028082526060820183526000926020830190803683375050601154919250506001600160a01b0316816000815181106200054c576200054c62001115565b6001600160a01b03928316602091820292909201015260125416816001815181106200057c576200057c62001115565b6001600160a01b039283166020918202929092010152601354604051631853304760e31b815291169063c299823890620005bb9084906004016200112b565b6000604051808303816000875af1158015620005db573d6000803e3d6000fd5b505050506040513d6000823e601f3d908101601f191682016040526200035991908101906200117a565b801580620006845750604051636eb1769f60e11b81526001600160a01b0384169063dd62ed3e906200063e90309086906004016200122a565b602060405180830381865afa1580156200065c573d6000803e3d6000fd5b505050506040513d601f19601f8201168201806040525081019062000682919062001244565b155b620006f85760405162461bcd60e51b815260206004820152603660248201527f5361666545524332303a20617070726f76652066726f6d206e6f6e2d7a65726f60448201527f20746f206e6f6e2d7a65726f20616c6c6f77616e6365000000000000000000006064820152608401620001bd565b604080516001600160a01b038416602482015260448082018490528251808303909101815260649091019091526020810180516001600160e01b0390811663095ea7b360e01b17909152620002e3918591620009b816565b600a546040805163313ce56760e01b815290516000926001600160a01b03169163313ce5679160048083019260209291908290030181865afa1580156200079b573d6000803e3d6000fd5b505050506040513d601f19601f82011682018060405250810190620007c191906200125e565b905090565b6000546001600160a01b0316331480620007f457503360009081526008602052604090205460ff1615156001145b620008335760405162461bcd60e51b815260206004820152600e60248201526d0a6e8e4c2e874409c9ebe82aaa8960931b6044820152606401620001bd565b600f8190556040518181527f13d3e08a22782064d3062f92ff1101a623b60e3bf91f236b5d1e9fdddfc12a129060200160405180910390a150565b601154620008b3906001600160a01b031660001962000895600a546001600160a01b031690565b6001600160a01b03166200060560201b62001b26179092919060201c565b601254620008da906001600160a01b031660001962000895600b546001600160a01b031690565b565b601754601a5462000909916001600160a01b03918216911660001962000605602090811b62001b2617901c565b601954601854604051636eb1769f60e11b81526001600160a01b039283169263dd62ed3e9262000942923092909116906004016200122a565b602060405180830381865afa15801562000960573d6000803e3d6000fd5b505050506040513d601f19601f8201168201806040525081019062000986919062001244565b620008da57601854601954620008da916001600160a01b03918216911660001962000605602090811b62001b2617901c565b600062000a14826040518060400160405280602081526020017f5361666545524332303a206c6f772d6c6576656c2063616c6c206661696c6564815250856001600160a01b031662000a9660201b62001c61179092919060201c565b805190915015620002e3578080602001905181019062000a35919062001283565b620002e35760405162461bcd60e51b815260206004820152602a60248201527f5361666545524332303a204552433230206f7065726174696f6e20646964206e6044820152691bdd081cdd58d8d9595960b21b6064820152608401620001bd565b606062000aa7848460008562000ab1565b90505b9392505050565b60608247101562000b145760405162461bcd60e51b815260206004820152602660248201527f416464726573733a20696e73756666696369656e742062616c616e636520666f6044820152651c8818d85b1b60d21b6064820152608401620001bd565b6001600160a01b0385163b62000b6d5760405162461bcd60e51b815260206004820152601d60248201527f416464726573733a2063616c6c20746f206e6f6e2d636f6e74726163740000006044820152606401620001bd565b600080866001600160a01b0316858760405162000b8b9190620012a7565b60006040518083038185875af1925050503d806000811462000bca576040519150601f19603f3d011682016040523d82523d6000602084013e62000bcf565b606091505b50909250905062000be282828662000bed565b979650505050505050565b6060831562000bfe57508162000aaa565b82511562000c0f5782518084602001fd5b8160405162461bcd60e51b8152600401620001bd9190620012c5565b82805462000c3990620012fa565b90600052602060002090601f01602090048101928262000c5d576000855562000ca8565b82601f1062000c7857805160ff191683800117855562000ca8565b8280016001018555821562000ca8579182015b8281111562000ca857825182559160200191906001019062000c8b565b5062000cb692915062000cba565b5090565b5b8082111562000cb6576000815560010162000cbb565b634e487b7160e01b600052604160045260246000fd5b60405161020081016001600160401b038111828210171562000d0d5762000d0d62000cd1565b60405290565b604051601f8201601f191681016001600160401b038111828210171562000d3e5762000d3e62000cd1565b604052919050565b80516001600160a01b038116811462000d5e57600080fd5b919050565b60005b8381101562000d8057818101518382015260200162000d66565b8381111562000d90576000848401525b50505050565b600082601f83011262000da857600080fd5b81516001600160401b0381111562000dc45762000dc462000cd1565b62000dd9601f8201601f191660200162000d13565b81815284602083860101111562000def57600080fd5b62000e0282602083016020870162000d63565b949350505050565b60006020828403121562000e1d57600080fd5b81516001600160401b038082111562000e3557600080fd5b90830190610200828603121562000e4b57600080fd5b62000e5562000ce7565b62000e608362000d46565b815262000e706020840162000d46565b602082015262000e836040840162000d46565b604082015262000e966060840162000d46565b606082015262000ea96080840162000d46565b608082015262000ebc60a0840162000d46565b60a082015262000ecf60c0840162000d46565b60c082015260e083015160e082015261010062000eee81850162000d46565b9082015261012062000f0284820162000d46565b9082015261014062000f1684820162000d46565b9082015261016062000f2a84820162000d46565b9082015261018062000f3e84820162000d46565b908201526101a0838101518381111562000f5757600080fd5b62000f658882870162000d96565b8284015250506101c0808401518381111562000f8057600080fd5b62000f8e8882870162000d96565b91830191909152506101e09283015192810192909252509392505050565b6020808252600b908201526a125392551250531256915160aa1b604082015260600190565b60006020828403121562000fe457600080fd5b62000aaa8262000d46565b634e487b7160e01b600052601160045260246000fd5b600181815b80851115620010465781600019048211156200102a576200102a62000fef565b808516156200103857918102915b93841c93908002906200100a565b509250929050565b6000826200105f57506001620010fe565b816200106e57506000620010fe565b81600181146200108757600281146200109257620010b2565b6001915050620010fe565b60ff841115620010a657620010a662000fef565b50506001821b620010fe565b5060208310610133831016604e8410600b8410161715620010d7575081810a620010fe565b620010e3838362001005565b8060001904821115620010fa57620010fa62000fef565b0290505b92915050565b600062000aaa60ff8416836200104e565b634e487b7160e01b600052603260045260246000fd5b6020808252825182820181905260009190848201906040850190845b818110156200116e5783516001600160a01b03168352928401929184019160010162001147565b50909695505050505050565b600060208083850312156200118e57600080fd5b82516001600160401b0380821115620011a657600080fd5b818501915085601f830112620011bb57600080fd5b815181811115620011d057620011d062000cd1565b8060051b9150620011e384830162000d13565b8181529183018401918481019088841115620011fe57600080fd5b938501935b838510156200121e5784518252938501939085019062001203565b98975050505050505050565b6001600160a01b0392831681529116602082015260400190565b6000602082840312156200125757600080fd5b5051919050565b6000602082840312156200127157600080fd5b815160ff8116811462000aaa57600080fd5b6000602082840312156200129657600080fd5b8151801515811462000aaa57600080fd5b60008251620012bb81846020870162000d63565b9190910192915050565b6020815260008251806020840152620012e681604085016020870162000d63565b601f01601f19169190910160400192915050565b600181811c908216806200130f57607f821691505b602082108114156200133157634e487b7160e01b600052602260045260246000fd5b50919050565b614f6280620013476000396000f3fe6080604052600436106102745760003560e01c806304d45c4f1461028057806306fdde03146102a25780630c021ae5146102cd5780630d55046c146102f05780630e962f001461031757806314b0750b1461032d5780631585e0b61461034d57806318160ddd1461036d5780631f64066714610382578063313ce56714610397578063358d6a04146103be57806338bea4cb146103d3578063392e53cd146103e85780633af9e669146104125780633bf295cc146104325780633d68175c146104475780633dcf13421461045c5780633dfe9f6a1461047c5780634880f951146102cd57806354fd4d50146104aa5780635fe3b567146104bf57806366be952d146104d45780636817031b146104ea5780636f307dc31461050a578063711326ce1461051f578063715018a61461053f5780637dc0d1d0146105545780637ffe28e314610569578063852a12e31461057e57806386aceac71461059e5780638da5cb5b146105b457806395d89b41146105c957806397b3fcaa146105de5780639c8f9f2314610620578063a0712d6814610640578063a126d60114610660578063a52602b914610680578063a5e90eee14610695578063a8aa1b31146106b5578063ac784ddc146106ca578063b580a128146106de578063c2946e24146106f3578063cb50087f14610708578063cd377c5314610728578063d539fe4b1461073d578063de747e5a14610752578063f1a392da14610772578063f20aea0f14610788578063f2fde38b146107b6578063f3ae2415146107d6578063f49930181461080f578063f9e40ac41461082f578063fbfa77cf14610852578063fd6bac7014610867578063fec18b3a1461087c57600080fd5b3661027b57005b600080fd5b34801561028c57600080fd5b506102a061029b3660046146d1565b610891565b005b3480156102ae57600080fd5b506102b7610907565b6040516102c4919061474b565b60405180910390f35b3480156102d957600080fd5b506102e2610995565b6040519081526020016102c4565b3480156102fc57600080fd5b506018546001600160a01b03165b6040516102c4919061475e565b34801561032357600080fd5b506102e260095481565b34801561033957600080fd5b506102a0610348366004614772565b6109aa565b34801561035957600080fd5b506102a0610368366004614772565b610a15565b34801561037957600080fd5b506005546102e2565b34801561038e57600080fd5b506102a0610a7f565b3480156103a357600080fd5b506103ac610ae8565b60405160ff90911681526020016102c4565b3480156103ca57600080fd5b506102e2610b5b565b3480156103df57600080fd5b5061030a610b8a565b3480156103f457600080fd5b506002546104029060ff1681565b60405190151581526020016102c4565b34801561041e57600080fd5b506102e261042d3660046147a0565b610b99565b34801561043e57600080fd5b506102e2610ba9565b34801561045357600080fd5b506102e2610c27565b34801561046857600080fd5b506102a0610477366004614801565b610c67565b34801561048857600080fd5b50600e546104979061ffff1681565b60405161ffff90911681526020016102c4565b3480156104b657600080fd5b506102e2600181565b3480156104cb57600080fd5b5061030a610dd5565b3480156104e057600080fd5b506102e2600c5481565b3480156104f657600080fd5b506102a06105053660046147a0565b610de4565b34801561051657600080fd5b5061030a610e5d565b34801561052b57600080fd5b506102a061053a366004614772565b610e6c565b34801561054b57600080fd5b506102a0610f5e565b34801561056057600080fd5b5061030a610f97565b34801561057557600080fd5b506102a0610fa6565b34801561058a57600080fd5b506102e2610599366004614772565b611028565b3480156105aa57600080fd5b506102e2600d5481565b3480156105c057600080fd5b5061030a61108f565b3480156105d557600080fd5b506102b761109e565b3480156105ea57600080fd5b506105f36110ab565b604080519687526020870195909552938501929092526060840152608083015260a082015260c0016102c4565b34801561062c57600080fd5b506102a061063b366004614772565b611234565b34801561064c57600080fd5b506102e261065b366004614772565b611299565b34801561066c57600080fd5b506102a061067b366004614772565b6112f2565b34801561068c57600080fd5b5061030a611383565b3480156106a157600080fd5b506102a06106b0366004614863565b611392565b3480156106c157600080fd5b5061030a611420565b3480156106d657600080fd5b506000610402565b3480156106ea57600080fd5b506102e261142f565b3480156106ff57600080fd5b506102e2611532565b34801561071457600080fd5b506102a0610723366004614772565b61159c565b34801561073457600080fd5b506102e2611628565b34801561074957600080fd5b506010546102e2565b34801561075e57600080fd5b506102a061076d36600461489c565b611658565b34801561077e57600080fd5b506102e260035481565b34801561079457600080fd5b506107a86107a33660046148c0565b6116cb565b6040516102c4929190614966565b3480156107c257600080fd5b506102a06107d13660046147a0565b611871565b3480156107e257600080fd5b506104026107f13660046147a0565b6001600160a01b031660009081526008602052604090205460ff1690565b34801561081b57600080fd5b506102a061082a366004614772565b611911565b34801561083b57600080fd5b50610844611ac2565b6040516102c4929190614994565b34801561085e57600080fd5b5061030a611af9565b34801561087357600080fd5b5061030a611b08565b34801561088857600080fd5b5061030a611b17565b61089961108f565b6001600160a01b0316336001600160a01b031614806108cc57503360009081526008602052604090205460ff1615156001145b6108f15760405162461bcd60e51b81526004016108e8906149a2565b60405180910390fd5b6108fa82611c7a565b61090381611d2d565b5050565b60068054610914906149ca565b80601f0160208091040260200160405190810160405280929190818152602001828054610940906149ca565b801561098d5780601f106109625761010080835404028352916020019161098d565b820191906000526020600020905b81548152906001019060200180831161097057829003601f168201915b505050505081565b600061099f6110ab565b509395945050505050565b336109b361108f565b6001600160a01b0316146109d95760405162461bcd60e51b81526004016108e8906149ff565b60108190556040518181527f4812bd1abd1ad4ea905335e3af941ec67d6d51ecb36ab58f23af0af081aac57b906020015b60405180910390a150565b33610a1e61108f565b6001600160a01b031614610a445760405162461bcd60e51b81526004016108e8906149ff565b600d8190556040518181527f5ceaf8b7b0d35f85ef4df565057cd318e70d9f8681f89425a2d5e09c1c70a7f990602001610a0a565b60055490565b610a8761108f565b6001600160a01b0316336001600160a01b03161480610aba57503360009081526008602052604090205460ff1615156001145b610ad65760405162461bcd60e51b81526004016108e8906149a2565b610ae6610ae1611da7565b611e29565b565b600a546040805163313ce56760e01b815290516000926001600160a01b03169163313ce5679160048083019260209291908290030181865afa158015610b32573d6000803e3d6000fd5b505050506040513d601f19601f82011682018060405250810190610b569190614a34565b905090565b6000610b56600f54610b85610b6e611e91565b610b76611f07565b610b809190614a6d565b611f4e565b61205a565b600b546001600160a01b031690565b6000610ba3610995565b92915050565b600080610bb7610b80611e91565b905080610bce5768056bc75e2d6310000091505090565b6000610bd8612070565b90506000610be4612165565b610bf684670de0b6b3a7640000614a85565b610c009190614aa4565b905080610c1583670de0b6b3a7640000614a85565b610c1f9190614aa4565b935050505090565b600080610c32610995565b905060055460001415610c4757505060095490565b600554600954610c579083614a85565b610c619190614aa4565b91505090565b610c6f611af9565b6001600160a01b0316336001600160a01b031614610c9f5760405162461bcd60e51b81526004016108e890614ac6565b60005b81811015610d75576000838383818110610cbe57610cbe614af1565b9050602002016020810190610cd391906147a0565b90506000816001600160a01b03166370a08231306040518263ffffffff1660e01b8152600401610d03919061475e565b602060405180830381865afa158015610d20573d6000803e3d6000fd5b505050506040513d601f19601f82011682018060405250810190610d449190614b07565b90508015610d6057610d606001600160a01b03831687836121eb565b50508080610d6d90614b20565b915050610ca2565b504715610d8d57610d8d610d87611af9565b4761220a565b826001600160a01b03167f2b06144d62a3a5785ec284ed392b3d106610ae2ce7af270417c4ca38277571048383604051610dc8929190614b3b565b60405180910390a2505050565b6013546001600160a01b031690565b33610ded61108f565b6001600160a01b031614610e135760405162461bcd60e51b81526004016108e8906149ff565b600480546001600160a01b0319166001600160a01b0383169081179091556040517fdabed91cf547ed2ee836d5787bae42fc3bca488166c65791051105490fbcf7ca90600090a250565b600a546001600160a01b031690565b610e7461108f565b6001600160a01b0316336001600160a01b03161480610ea757503360009081526008602052604090205460ff1615156001145b610ec35760405162461bcd60e51b81526004016108e8906149a2565b610ecb61108f565b6001600160a01b0316336001600160a01b03161480610eec57508061012c10155b610f295760405162461bcd60e51b815260206004820152600e60248201526d484c503a20544f4f204c4152474560901b60448201526064016108e8565b600c8190556040518181527f3e87fa3180c1babd204ce79375729d7a6694a2d2f0fb3e250f9138488ed066bb90602001610a0a565b33610f6761108f565b6001600160a01b031614610f8d5760405162461bcd60e51b81526004016108e8906149ff565b610ae6600061225b565b6014546001600160a01b031690565b60026001541415610fc95760405162461bcd60e51b81526004016108e890614b89565b60026001556000610fd8610ba9565b9050600d548111156110185760405162461bcd60e51b8152602060048201526009602482015268484c503a205341464560b81b60448201526064016108e8565b611021816122ab565b5060018055565b6000611032611af9565b6001600160a01b0316336001600160a01b0316146110625760405162461bcd60e51b81526004016108e890614ac6565b600061106d836123cb565b905080600560008282546110819190614bc0565b909155506000949350505050565b6000546001600160a01b031690565b60078054610914906149ca565b6000806000806000806110bc612070565b94506110c6611e91565b93506110d184612596565b600b546040516370a0823160e01b81529194506000916001600160a01b03909116906370a082319061110790309060040161475e565b602060405180830381865afa158015611124573d6000803e3d6000fd5b505050506040513d601f19601f820116820180604052508101906111489190614b07565b9050600081156111605761115b82612596565b611163565b60005b90506000806111706125c9565b9150915061117d81612596565b6111879083614a6d565b600a546040516370a0823160e01b81529197506001600160a01b0316906370a08231906111b890309060040161475e565b602060405180830381865afa1580156111d5573d6000803e3d6000fd5b505050506040513d601f19601f820116820180604052508101906111f99190614b07565b9450828588611208898d614a6d565b6112129190614bc0565b61121c9190614a6d565b6112269190614a6d565b995050505050909192939495565b61123c61108f565b6001600160a01b0316336001600160a01b0316148061126f57503360009081526008602052604090205460ff1615156001145b61128b5760405162461bcd60e51b81526004016108e8906149a2565b6112948161268a565b505050565b60006112a3611af9565b6001600160a01b0316336001600160a01b0316146112d35760405162461bcd60e51b81526004016108e890614ac6565b60006112de83612780565b905080600560008282546110819190614a6d565b80806112fd5750600c545b80611306611532565b11156113245760405162461bcd60e51b81526004016108e890614bd7565b61132c61108f565b6001600160a01b0316336001600160a01b0316148061135f57503360009081526008602052604090205460ff1615156001145b61137b5760405162461bcd60e51b81526004016108e8906149a2565b6112946128de565b6011546001600160a01b031690565b3361139b61108f565b6001600160a01b0316146113c15760405162461bcd60e51b81526004016108e8906149ff565b6001600160a01b038216600081815260086020908152604091829020805460ff191685151590811790915591519182527f2458f684567d238b66deaa0126265bf3becabda0caaab7ebdda6b1794614a2d3910160405180910390a25050565b601a546001600160a01b031690565b60008061143a6125c9565b9150506000611447611e91565b600b546040516370a0823160e01b81529192506000916001600160a01b03909116906370a082319061147d90309060040161475e565b602060405180830381865afa15801561149a573d6000803e3d6000fd5b505050506040513d601f19601f820116820180604052508101906114be9190614b07565b6114c89084614a6d565b9050818114156114dc576000935050505090565b816114ec57612710935050505090565b81811161151a57816127106115018383614bc0565b61150b9190614a85565b6115159190614aa4565b610c1f565b816127106115288284614bc0565b610c159190614a85565b600080611546670de0b6b3a7640000612596565b9050600061155b670de0b6b3a7640000611f4e565b905081811161156b57808261156e565b81815b9092509050806127106115818483614bc0565b61158b9190614a85565b6115959190614aa4565b9250505090565b6115a461108f565b6001600160a01b0316336001600160a01b031614806115d757503360009081526008602052604090205460ff1615156001145b6115f35760405162461bcd60e51b81526004016108e8906149a2565b600f8190556040518181527f13d3e08a22782064d3062f92ff1101a623b60e3bf91f236b5d1e9fdddfc12a1290602001610a0a565b6000670de0b6b3a764000061163c60105490565b611644612165565b61164e9190614a85565b610b569190614aa4565b3361166161108f565b6001600160a01b0316146116875760405162461bcd60e51b81526004016108e8906149ff565b600e805461ffff191661ffff83169081179091556040519081527f36c98a54ec4f90fe58a67bf25cfc1691dbd53639eee3513536d83e8d34fb0a9b90602001610a0a565b6060806116d661108f565b6001600160a01b0316336001600160a01b0316148061170957503360009081526008602052604090205460ff1615156001145b6117255760405162461bcd60e51b81526004016108e8906149a2565b600c5480611731611532565b111561174f5760405162461bcd60e51b81526004016108e890614bd7565b600260015414156117725760405162461bcd60e51b81526004016108e890614b89565b600260015560006117816110ab565b50939450508915925061179e9150505761179b8888612af7565b93505b84156117b1576117ae8686612da9565b92505b61182d6117bc610e5d565b6001600160a01b03166370a08231306040518263ffffffff1660e01b81526004016117e7919061475e565b602060405180830381865afa158015611804573d6000803e3d6000fd5b505050506040513d601f19601f820116820180604052508101906118289190614b07565b6130a9565b6040518181527f80f97f878e16410266694f134ddf012f2be424f54f8b5cafa107eccc51d00d589060200160405180910390a1505060018055909590945092505050565b3361187a61108f565b6001600160a01b0316146118a05760405162461bcd60e51b81526004016108e8906149ff565b6001600160a01b0381166119055760405162461bcd60e51b815260206004820152602660248201527f4f776e61626c653a206e6577206f776e657220697320746865207a65726f206160448201526564647265737360d01b60648201526084016108e8565b61190e8161225b565b50565b61191961108f565b6001600160a01b0316336001600160a01b0316148061194c57503360009081526008602052604090205460ff1615156001145b6119685760405162461bcd60e51b81526004016108e8906149a2565b80806119735750600c545b8061197c611532565b111561199a5760405162461bcd60e51b81526004016108e890614bd7565b600260015414156119bd5760405162461bcd60e51b81526004016108e890614b89565b600260015560006119cc613108565b905060006119d861142f565b600e5490915061ffff168111611a225760405162461bcd60e51b815260206004820152600f60248201526e09098a07440a48a845aa890a48aa69608b1b60448201526064016108e8565b81611a2e575050611aba565b6000611a3983613286565b9050611a666103e8611a4d836103e7614a85565b611a579190614aa4565b611a618386614bc0565b6132b3565b7fe0b4077da7dfa5015ff10fab6a214f37acc1b23d745f30336942d17e07848c6b611a98670de0b6b3a7640000612596565b6040805191825260208201859052810185905260600160405180910390a15050505b505060018055565b600080611af0611ad0610e5d565b611ad8610b8a565b611ae0611420565b6001600160a01b031691906133d7565b90939092509050565b6004546001600160a01b031690565b6012546001600160a01b031690565b6015546001600160a01b031690565b801580611ba05750604051636eb1769f60e11b81523060048201526001600160a01b03838116602483015284169063dd62ed3e90604401602060405180830381865afa158015611b7a573d6000803e3d6000fd5b505050506040513d601f19601f82011682018060405250810190611b9e9190614b07565b155b611c0b5760405162461bcd60e51b815260206004820152603660248201527f5361666545524332303a20617070726f76652066726f6d206e6f6e2d7a65726f60448201527520746f206e6f6e2d7a65726f20616c6c6f77616e636560501b60648201526084016108e8565b6112948363095ea7b360e01b8484604051602401611c2a929190614c04565b60408051601f198184030181529190526020810180516001600160e01b03166001600160e01b031990931692909217909152613497565b6060611c708484600085613569565b90505b9392505050565b611c82610b8a565b6001600160a01b0316632e1a7d4d826040518263ffffffff1660e01b8152600401611caf91815260200190565b600060405180830381600087803b158015611cc957600080fd5b505af1158015611cdd573d6000803e3d6000fd5b5050505061190e8161369a565b6020604051808303816000875af1158015611d09573d6000803e3d6000fd5b505050506040513d601f19601f820116820180604052508101906109039190614b07565b6000611d37611383565b6001600160a01b031663852a12e3836040518263ffffffff1660e01b8152600401611d6491815260200190565b6020604051808303816000875af1158015611d83573d6000803e3d6000fd5b505050506040513d601f19601f820116820180604052508101906112949190614b07565b601754601b546040516393f1a40b60e01b8152600481019190915230602482015260009182916001600160a01b03909116906393f1a40b906044016040805180830381865afa158015611dfe573d6000803e3d6000fd5b505050506040513d601f19601f82011682018060405250810190611e229190614c1d565b5092915050565b601754601b54604051630441a3e760e41b81526001600160a01b039092169163441a3e7091611e5c918590600401614994565b600060405180830381600087803b158015611e7657600080fd5b505af1158015611e8a573d6000803e3d6000fd5b5050505050565b6000611e9b611b08565b6001600160a01b03166395dd9193306040518263ffffffff1660e01b8152600401611ec6919061475e565b602060405180830381865afa158015611ee3573d6000803e3d6000fd5b505050506040513d601f19601f82011682018060405250810190610b569190614b07565b6000611f11611b08565b6001600160a01b0316633b1d21a26040518163ffffffff1660e01b8152600401602060405180830381865afa158015611ee3573d6000803e3d6000fd5b6000611f58610f97565b6001600160a01b031663fc57d4df611f6e611383565b6040518263ffffffff1660e01b8152600401611f8a919061475e565b602060405180830381865afa158015611fa7573d6000803e3d6000fd5b505050506040513d601f19601f82011682018060405250810190611fcb9190614b07565b611fd3610f97565b6001600160a01b031663fc57d4df611fe9611b08565b6040518263ffffffff1660e01b8152600401612005919061475e565b602060405180830381865afa158015612022573d6000803e3d6000fd5b505050506040513d601f19601f820116820180604052508101906120469190614b07565b6120509084614a85565b610ba39190614aa4565b60008183106120695781611c73565b5090919050565b60008061207b611383565b6001600160a01b03166370a08231306040518263ffffffff1660e01b81526004016120a6919061475e565b602060405180830381865afa1580156120c3573d6000803e3d6000fd5b505050506040513d601f19601f820116820180604052508101906120e79190614b07565b9050670de0b6b3a76400006120fa611383565b6001600160a01b031663182df0f56040518163ffffffff1660e01b8152600401602060405180830381865afa158015612137573d6000803e3d6000fd5b505050506040513d601f19601f8201168201806040525081019061215b9190614b07565b610c579083614a85565b600080612170610dd5565b6001600160a01b0316638e8f294b612186611383565b6040518263ffffffff1660e01b81526004016121a2919061475e565b606060405180830381865afa1580156121bf573d6000803e3d6000fd5b505050506040513d601f19601f820116820180604052508101906121e39190614c41565b509392505050565b6112948363a9059cbb60e01b8484604051602401611c2a929190614c04565b600080600080600085875af19050806112945760405162461bcd60e51b815260206004820152601360248201527211551217d514905394d1915497d19052531151606a1b60448201526064016108e8565b600080546001600160a01b038381166001600160a01b0319831681178455604051919092169283917f8be0079c531659141344cd1fd0a4f28419497f9722a3daafe3b4186f6b6457e09190a35050565b60006122b56125c9565b50905060006122c2612070565b9050600060105469021e19e0c9bab24000006122de9190614aa4565b905060006122ea612165565b6122fc83670de0b6b3a7640000614a85565b6123069190614aa4565b61231890670de0b6b3a7640000614a6d565b83866123248583614a85565b61232e9190614aa4565b6123389190614bc0565b61234a90670de0b6b3a7640000614a85565b6123549190614aa4565b905060008061236b6123668488614bc0565b6136f8565b9150915061237881611c7a565b61238182613801565b337fdacd0a02d11128b25d6c3de23e91f71aa9dd5620c6f5c69f35a18d15e1168468886123ac610ba9565b6040516123ba929190614994565b60405180910390a250505050505050565b6000600c54806123d9611532565b11156123f75760405162461bcd60e51b81526004016108e890614bd7565b6002600154141561241a5760405162461bcd60e51b81526004016108e890614b89565b60026001558261242d576000915061258c565b6000612437613108565b90508061244857600092505061258c565b600a546040516370a0823160e01b81526000916001600160a01b0316906370a082319061247990309060040161475e565b602060405180830381865afa158015612496573d6000803e3d6000fd5b505050506040513d601f19601f820116820180604052508101906124ba9190614b07565b9050808511156124e7576124d86124d18287614bc0565b8284613836565b90506124e4818661205a565b94505b6124ef6110ab565b5093955061252e93508592506125079150610a799050565b612512886001614a6d565b61251c9190614a85565b6125269190614aa4565b60055461205a565b93506125503061253c611af9565b600a546001600160a01b0316919088613937565b7f884edad9ce6fa2440d8a54cc123490eb96d2768479d49ff9c7366125a94243643386604051612581929190614c04565b60405180910390a150505b5060018055919050565b600081156125c157600b54600a546125bc9184916001600160a01b03918216911661396f565b610ba3565b600092915050565b60008060006125d66139a7565b90506000806125e3611ac2565b9150915060006125f1611420565b6001600160a01b03166318160ddd6040518163ffffffff1660e01b8152600401602060405180830381865afa15801561262e573d6000803e3d6000fd5b505050506040513d601f19601f820116820180604052508101906126529190614b07565b90508061265f8585614a85565b6126699190614aa4565b9550806126768584614a85565b6126809190614aa4565b9450505050509091565b6000806126b1612698611420565b846126a1611420565b6001600160a01b031691906121eb565b60006126cb6126be610e5d565b6126c6610b8a565b613a35565b5090506000806126d9611420565b6001600160a01b03166389afcb44306040518263ffffffff1660e01b8152600401612704919061475e565b60408051808303816000875af1158015612722573d6000803e3d6000fd5b505050506040513d601f19601f820116820180604052508101906127469190614c1d565b91509150612752610e5d565b6001600160a01b0316836001600160a01b031614612771578082612774565b81815b94509450505050915091565b6000600c548061278e611532565b11156127ac5760405162461bcd60e51b81526004016108e890614bd7565b600260015414156127cf5760405162461bcd60e51b81526004016108e890614b89565b6002600155826127e2576000915061258c565b60006127ec613108565b90506127f6610b5b565b6128008286614a6d565b11156128425760405162461bcd60e51b81526020600482015260116024820152701213140e8813d5915497d3505617d51593607a1b60448201526064016108e8565b6005541561286e57808461285560055490565b61285f9190614a85565b6128699190614aa4565b612870565b835b925061289161287d611af9565b600a546001600160a01b0316903087613937565b61289a846130a9565b7fe1fffcc4923d04b559f4d29a8bfc6cda04eb5b0d3c460751c2402c5c5cc9109c33856040516128cb929190614c04565b60405180910390a1505060018055919050565b60006128ea60006136f8565b505060006128f6613b18565b600b546040516370a0823160e01b81529192506000916001600160a01b03909116906370a082319061292c90309060040161475e565b602060405180830381865afa158015612949573d6000803e3d6000fd5b505050506040513d601f19601f8201168201806040525081019061296d9190614b07565b9050808211156129b6576129b06129848284614bc0565b600a54600b546001600160a01b03918216911661299f611420565b6001600160a01b0316929190613b6c565b506129f9565b818111156129f9576129f76129cb8383614bc0565b600b54600a546001600160a01b0391821691166129e6611420565b6001600160a01b0316929190613c4b565b505b600b546040516370a0823160e01b8152612a71916001600160a01b0316906370a0823190612a2b90309060040161475e565b602060405180830381865afa158015612a48573d6000803e3d6000fd5b505050506040513d601f19601f82011682018060405250810190612a6c9190614b07565b611c7a565b6000612a7b613cac565b9050612a8681611d2d565b600a546040516370a0823160e01b81526001600160a01b03909116906370a0823190612ab690309060040161475e565b602060405180830381865afa158015612ad3573d6000803e3d6000fd5b505050506040513d601f19601f82011682018060405250810190610c1f9190614b07565b601754601b54604051631c57762b60e31b8152606092839283926001600160a01b039092169163e2bbb15891612b3291600090600401614994565b600060405180830381600087803b158015612b4c57600080fd5b505af1158015612b60573d6000803e3d6000fd5b5060019250612b6d915050565b604051908082528060200260200182016040528015612b96578160200160208202803683370190505b506019546040516370a0823160e01b81529194506001600160a01b0316906370a0823190612bc890309060040161475e565b602060405180830381865afa158015612be5573d6000803e3d6000fd5b505050506040513d601f19601f82011682018060405250810190612c099190614b07565b83600081518110612c1c57612c1c614af1565b60200260200101818152505082600081518110612c3b57612c3b614af1565b602002602001015160001415612c52575050610ba3565b601854612cb4906001600160a01b03168686600081612c7357612c73614af1565b9050602002810190612c859190614c9a565b60195486516001600160a01b03909116908790600090612ca757612ca7614af1565b6020026020010151613ce1565b60195483516001600160a01b0390911690600080516020614f0d833981519152908590600090612ce657612ce6614af1565b6020026020010151604051612cfd91815260200190565b60405180910390a2478015612da057612d14610b8a565b6001600160a01b031663d0e30db0826040518263ffffffff1660e01b81526004016000604051808303818588803b158015612d4e57600080fd5b505af1158015612d62573d6000803e3d6000fd5b5050505050612d6f610b8a565b6001600160a01b0316600080516020614f0d83398151915282604051612d9791815260200190565b60405180910390a25b50505092915050565b6060612db3610dd5565b6001600160a01b0316630952c5636000306040518363ffffffff1660e01b8152600401612de1929190614cba565b600060405180830381600087803b158015612dfb57600080fd5b505af1158015612e0f573d6000803e3d6000fd5b5060019250612e1c915050565b604051908082528060200260200182016040528015612e45578160200160208202803683370190505b506016546040516370a0823160e01b81529192506001600160a01b0316906370a0823190612e7790309060040161475e565b602060405180830381865afa158015612e94573d6000803e3d6000fd5b505050506040513d601f19601f82011682018060405250810190612eb89190614b07565b81600081518110612ecb57612ecb614af1565b602002602001018181525050600081600081518110612eec57612eec614af1565b60200260200101511115612f9e57612f4c612f05611b17565b84846000818110612f1857612f18614af1565b9050602002810190612f2a9190614c9a565b60165484516001600160a01b03909116908590600090612ca757612ca7614af1565b60165481516001600160a01b0390911690600080516020614f0d833981519152908390600090612f7e57612f7e614af1565b6020026020010151604051612f9591815260200190565b60405180910390a25b612fa6610dd5565b6001600160a01b0316630952c5636001306040518363ffffffff1660e01b8152600401612fd4929190614cba565b600060405180830381600087803b158015612fee57600080fd5b505af1158015613002573d6000803e3d6000fd5b504792505081159050611e2257613017610b8a565b6001600160a01b031663d0e30db0826040518263ffffffff1660e01b81526004016000604051808303818588803b15801561305157600080fd5b505af1158015613065573d6000803e3d6000fd5b5050505050613072610b8a565b6001600160a01b0316600080516020614f0d8339815191528260405161309a91815260200190565b60405180910390a25092915050565b6103e88110156130b65750565b60006130c182613286565b905060006130ce82613e86565b90506130e26130dd8385614bc0565b613801565b6130eb81613eac565b60006130f78383613f67565b905061310281614007565b50505050565b600080613113613cac565b9050600061311f613b18565b9050600061312c82612596565b600b546040516370a0823160e01b81529192506000916001600160a01b03909116906370a082319061316290309060040161475e565b602060405180830381865afa15801561317f573d6000803e3d6000fd5b505050506040513d601f19601f820116820180604052508101906131a39190614b07565b9050600081156131bb576131b682612596565b6131be565b60005b905060006131ca6125c9565b50600a546040516370a0823160e01b81529192506000916001600160a01b03909116906370a082319061320190309060040161475e565b602060405180830381865afa15801561321e573d6000803e3d6000fd5b505050506040513d601f19601f820116820180604052508101906132429190614b07565b9050828186613252856002614a85565b61325c908b614a6d565b6132669190614bc0565b6132709190614a6d565b61327a9190614a6d565b97505050505050505090565b600080613291611628565b905061329f81612710614a6d565b6132a98285614a85565b611c739190614aa4565b60006132be83613e86565b905060006132ca611e91565b90508082111561331a576132f560006132e3868661403a565b116132ee57846136f8565b60006136f8565b5050613300836140ae565b5061331590506133108284614bc0565b613eac565b6133ce565b808210156133ce5761332c60006136f8565b5050600b546040516370a0823160e01b81526000916133b0916001600160a01b03909116906370a082319061336590309060040161475e565b602060405180830381865afa158015613382573d6000803e3d6000fd5b505050506040513d601f19601f820116820180604052508101906133a69190614b07565b610b858585614bc0565b905080156133c1576133c181611c7a565b6133ca846140ae565b5050505b6131028261410b565b60008060006133e68585613a35565b509050600080876001600160a01b0316630902f1ac6040518163ffffffff1660e01b8152600401606060405180830381865afa15801561342a573d6000803e3d6000fd5b505050506040513d601f19601f8201168201806040525081019061344e9190614cf2565b506001600160701b031691506001600160701b03169150826001600160a01b0316876001600160a01b031614613485578082613488565b81815b90999098509650505050505050565b60006134ec826040518060400160405280602081526020017f5361666545524332303a206c6f772d6c6576656c2063616c6c206661696c6564815250856001600160a01b0316611c619092919063ffffffff16565b805190915015611294578080602001905181019061350a9190614d37565b6112945760405162461bcd60e51b815260206004820152602a60248201527f5361666545524332303a204552433230206f7065726174696f6e20646964206e6044820152691bdd081cdd58d8d9595960b21b60648201526084016108e8565b6060824710156135ca5760405162461bcd60e51b815260206004820152602660248201527f416464726573733a20696e73756666696369656e742062616c616e636520666f6044820152651c8818d85b1b60d21b60648201526084016108e8565b6001600160a01b0385163b6136215760405162461bcd60e51b815260206004820152601d60248201527f416464726573733a2063616c6c20746f206e6f6e2d636f6e747261637400000060448201526064016108e8565b600080866001600160a01b0316858760405161363d9190614d54565b60006040518083038185875af1925050503d806000811461367a576040519150601f19603f3d011682016040523d82523d6000602084013e61367f565b606091505b509150915061368f82828661430c565b979650505050505050565b6136a2611b08565b6001600160a01b0316634e4d9fea826040518263ffffffff1660e01b81526004016000604051808303818588803b1580156136dc57600080fd5b505af11580156136f0573d6000803e3d6000fd5b505050505050565b60008060006137056125c9565b50905080841061371b5750600093849350915050565b60006137256139a7565b90506000826137348784614a85565b61373e9190614aa4565b9050600061374c8284614bc0565b90506000613758611420565b6001600160a01b03166370a08231306040518263ffffffff1660e01b8152600401613783919061475e565b602060405180830381865afa1580156137a0573d6000803e3d6000fd5b505050506040513d601f19601f820116820180604052508101906137c49190614b07565b9050808211156137db576137db610ae18284614bc0565b81156137ef576137ea8261268a565b6137f3565b6000805b965096505050505050915091565b613809611383565b6001600160a01b031663a0712d68826040518263ffffffff1660e01b8152600401611cea91815260200190565b6000806103e8613848866103ed614a85565b6138529190614aa4565b9050600061385e6125c9565b50905060008461386e8385614a85565b6138789190614aa4565b90506000613884611e91565b9050600061389183613e86565b905083831015806138a25750818110155b156138bb576138af6128de565b95505050505050611c73565b6000806138cb6123668688614bc0565b915091506138d881611c7a565b818b11156138ff576138f26138ed838d614bc0565b614345565b6138fc9083614a6d565b91505b6000613909610ba9565b9050600d54811161391d5761391d816122ab565b6139278b84614a6d565b9c9b505050505050505050505050565b6040516001600160a01b03808516602483015283166044820152606481018290526131029085906323b872dd60e01b90608401611c2a565b60008361397e57506000611c73565b60008061398e8585611ae0611420565b9150915061399d868383614378565b9695505050505050565b6000806139b2611da7565b601a546040516370a0823160e01b81529192506000916001600160a01b03909116906370a08231906139e890309060040161475e565b602060405180830381865afa158015613a05573d6000803e3d6000fd5b505050506040513d601f19601f82011682018060405250810190613a299190614b07565b90506115958183614a6d565b600080826001600160a01b0316846001600160a01b03161415613a9a5760405162461bcd60e51b815260206004820152601d60248201527f556e695574696c733a204944454e544943414c5f41444452455353455300000060448201526064016108e8565b826001600160a01b0316846001600160a01b031610613aba578284613abd565b83835b90925090506001600160a01b038216613b115760405162461bcd60e51b8152602060048201526016602482015275556e695574696c733a205a45524f5f4144445245535360501b60448201526064016108e8565b9250929050565b6000613b22611b08565b6001600160a01b03166317bfdfbc306040518263ffffffff1660e01b8152600401613b4d919061475e565b6020604051808303816000875af1158015611ee3573d6000803e3d6000fd5b600080613b7b8686868661443a565b90506000613b898486613a35565b509050600080826001600160a01b0316876001600160a01b031614613bb057876000613bb4565b6000885b9092509050613bcd6001600160a01b0388168a866121eb565b6040805160008152602081019182905263022c0d9f60e01b9091526001600160a01b038a169063022c0d9f90613c0c9085908590309060248101614d66565b600060405180830381600087803b158015613c2657600080fd5b505af1158015613c3a573d6000803e3d6000fd5b50959b9a5050505050505050505050565b600080613c5a86868686614500565b90506000613c688486613a35565b509050600080826001600160a01b0316876001600160a01b031614613c8f57836000613c93565b6000845b9092509050613bcd6001600160a01b0388168a8a6121eb565b6000613cb6611383565b6001600160a01b0316633af9e669306040518263ffffffff1660e01b8152600401613b4d919061475e565b6000613ced8480614d93565b6001613cf98780614d93565b613d04929150614bc0565b818110613d1357613d13614af1565b9050602002016020810190613d2891906147a0565b90506001600160a01b038316613d3e8580614d93565b6000818110613d4f57613d4f614af1565b9050602002016020810190613d6491906147a0565b6001600160a01b0316148015613d925750613d7d610b8a565b6001600160a01b0316816001600160a01b0316145b80613db55750613da0610e5d565b6001600160a01b0316816001600160a01b0316145b613df95760405162461bcd60e51b81526020600482015260156024820152740928cc2e4dac2c4d8ca7440aea49e9c8ebea082a89605b1b60448201526064016108e8565b6001600160a01b0385166338ed1739836020870135613e188880614d93565b308a604001356040518763ffffffff1660e01b8152600401613e3f96959493929190614ddc565b6000604051808303816000875af1158015613e5e573d6000803e3d6000fd5b505050506040513d6000823e601f3d908101601f191682016040526136f09190810190614e4f565b600081156125c157600a54600b546125bc9184916001600160a01b03918216911661396f565b613eb4611b08565b6001600160a01b031663c5ebeaec826040518263ffffffff1660e01b8152600401613ee191815260200190565b6020604051808303816000875af1158015613f00573d6000803e3d6000fd5b505050506040513d601f19601f82011682018060405250810190613f249190614b07565b50613f2d610b8a565b6001600160a01b031663d0e30db0826040518263ffffffff1660e01b81526004016000604051808303818588803b1580156136dc57600080fd5b6000613f7d613f74611420565b846126a1610e5d565b613f91613f88611420565b836126a1610b8a565b613f99611420565b6001600160a01b0316636a627842306040518263ffffffff1660e01b8152600401613fc4919061475e565b6020604051808303816000875af1158015613fe3573d6000803e3d6000fd5b505050506040513d601f19601f82011682018060405250810190611c739190614b07565b601754601b54604051631c57762b60e31b81526001600160a01b039092169163e2bbb15891611e5c918590600401614994565b600080614045612070565b905080831015614059576000915050610ba3565b60006140636125c9565b5090506000818611614076576000614080565b6140808287614bc0565b9050600061408e8487614bc0565b90508082106140a4576000945050505050610ba3565b61368f8282614bc0565b60008060006140bb612070565b9050838114156140d15750600093849350915050565b8381116140f1576140ea6140e58286614bc0565b6145c1565b6000614100565b60006141006138ed8684614bc0565b909590945092505050565b600a546040516370a0823160e01b81526000916001600160a01b0316906370a082319061413c90309060040161475e565b602060405180830381865afa158015614159573d6000803e3d6000fd5b505050506040513d601f19601f8201168201806040525081019061417d9190614b07565b600b546040516370a0823160e01b81529192506000916001600160a01b03909116906370a08231906141b390309060040161475e565b602060405180830381865afa1580156141d0573d6000803e3d6000fd5b505050506040513d601f19601f820116820180604052508101906141f49190614b07565b905060006142006125c9565b915050808410156142115750505050565b600061423f600261422186613e86565b61422b9086614a6d565b6142359190614aa4565b610b858488614bc0565b9050600061424c82612596565b9050848110156142925761427e6142638287614bc0565b600a54600b546001600160a01b0391821691166129e6611420565b6142889085614a6d565b93508094506142b7565b818411156142b7576142a76129cb8386614bc0565b6142b19086614a6d565b94508193505b8360006142c382612596565b9050808710156142db5750856142d881613e86565b91505b806142ea575050505050505050565b60006142f68284613f67565b905061430181614007565b505050505050505050565b6060831561431b575081611c73565b82511561432b5782518084602001fd5b8160405162461bcd60e51b81526004016108e8919061474b565b60008061435061465a565b905082811161435f5780614361565b825b915081156143725761437282611d2d565b50919050565b60008084116143c95760405162461bcd60e51b815260206004820152601d60248201527f556e695574696c733a20494e53554646494349454e545f414d4f554e5400000060448201526064016108e8565b6000831180156143d95750600082115b6144255760405162461bcd60e51b815260206004820181905260248201527f556e695574696c733a20494e53554646494349454e545f4c495155494449545960448201526064016108e8565b826144308386614a85565b611c709190614aa4565b60008084116144975760405162461bcd60e51b8152602060048201526024808201527f556e695574696c733a20494e53554646494349454e545f4f55545055545f414d60448201526313d5539560e21b60648201526084016108e8565b6000806144a58786866133d7565b909250905060006144b68784614a85565b6144c2906103e8614a85565b905060006144d08884614bc0565b6144dc906103e5614a85565b90506144e88183614aa4565b6144f3906001614a6d565b9998505050505050505050565b600080841161455d5760405162461bcd60e51b815260206004820152602360248201527f556e695574696c733a20494e53554646494349454e545f494e5055545f414d4f60448201526215539560ea1b60648201526084016108e8565b60008061456b8786866133d7565b9092509050600061457e876103e5614a85565b9050600061458c8383614a85565b905060008261459d866103e8614a85565b6145a79190614a6d565b90506145b38183614aa4565b9a9950505050505050505050565b6000806145cc610e5d565b6001600160a01b03166370a08231306040518263ffffffff1660e01b81526004016145f7919061475e565b602060405180830381865afa158015614614573d6000803e3d6000fd5b505050506040513d601f19601f820116820180604052508101906146389190614b07565b90508281116146475780614649565b825b915081156143725761437282613801565b600080614665612070565b90506000614674610b80611e91565b905060006063614682612165565b61469484670de0b6b3a7640000614a85565b61469f906064614a85565b6146a99190614aa4565b6146b39190614aa4565b9050828111156146c7576000935050505090565b610c1f8184614bc0565b600080604083850312156146e457600080fd5b50508035926020909101359150565b60005b8381101561470e5781810151838201526020016146f6565b838111156131025750506000910152565b600081518084526147378160208601602086016146f3565b601f01601f19169290920160200192915050565b602081526000611c73602083018461471f565b6001600160a01b0391909116815260200190565b60006020828403121561478457600080fd5b5035919050565b6001600160a01b038116811461190e57600080fd5b6000602082840312156147b257600080fd5b8135611c738161478b565b60008083601f8401126147cf57600080fd5b5081356001600160401b038111156147e657600080fd5b6020830191508360208260051b8501011115613b1157600080fd5b60008060006040848603121561481657600080fd5b83356148218161478b565b925060208401356001600160401b0381111561483c57600080fd5b614848868287016147bd565b9497909650939450505050565b801515811461190e57600080fd5b6000806040838503121561487657600080fd5b82356148818161478b565b9150602083013561489181614855565b809150509250929050565b6000602082840312156148ae57600080fd5b813561ffff81168114611c7357600080fd5b600080600080604085870312156148d657600080fd5b84356001600160401b03808211156148ed57600080fd5b6148f9888389016147bd565b9096509450602087013591508082111561491257600080fd5b5061491f878288016147bd565b95989497509550505050565b600081518084526020808501945080840160005b8381101561495b5781518752958201959082019060010161493f565b509495945050505050565b604081526000614979604083018561492b565b828103602084015261498b818561492b565b95945050505050565b918252602082015260400190565b6020808252600e908201526d0a6e8e4c2e874409c9ebe82aaa8960931b604082015260600190565b600181811c908216806149de57607f821691505b6020821081141561437257634e487b7160e01b600052602260045260246000fd5b6020808252818101527f4f776e61626c653a2063616c6c6572206973206e6f7420746865206f776e6572604082015260600190565b600060208284031215614a4657600080fd5b815160ff81168114611c7357600080fd5b634e487b7160e01b600052601160045260246000fd5b60008219821115614a8057614a80614a57565b500190565b6000816000190483118215151615614a9f57614a9f614a57565b500290565b600082614ac157634e487b7160e01b600052601260045260246000fd5b500490565b60208082526011908201527014dd1c985d0e8813d3931657d590555315607a1b604082015260600190565b634e487b7160e01b600052603260045260246000fd5b600060208284031215614b1957600080fd5b5051919050565b6000600019821415614b3457614b34614a57565b5060010190565b60208082528181018390526000908460408401835b86811015614b7e578235614b638161478b565b6001600160a01b031682529183019190830190600101614b50565b509695505050505050565b6020808252601f908201527f5265656e7472616e637947756172643a207265656e7472616e742063616c6c00604082015260600190565b600082821015614bd257614bd2614a57565b500390565b60208082526013908201527209098a07440a0a492868abe9a92a69a82a8869606b1b604082015260600190565b6001600160a01b03929092168252602082015260400190565b60008060408385031215614c3057600080fd5b505080516020909101519092909150565b600080600060608486031215614c5657600080fd5b8351614c6181614855565b602085015160408601519194509250614c7981614855565b809150509250925092565b634e487b7160e01b600052604160045260246000fd5b60008235605e19833603018112614cb057600080fd5b9190910192915050565b60ff9290921682526001600160a01b0316602082015260400190565b80516001600160701b0381168114614ced57600080fd5b919050565b600080600060608486031215614d0757600080fd5b614d1084614cd6565b9250614d1e60208501614cd6565b9150604084015163ffffffff81168114614c7957600080fd5b600060208284031215614d4957600080fd5b8151611c7381614855565b60008251614cb08184602087016146f3565b84815283602082015260018060a01b038316604082015260806060820152600061399d608083018461471f565b6000808335601e19843603018112614daa57600080fd5b8301803591506001600160401b03821115614dc457600080fd5b6020019150600581901b3603821315613b1157600080fd5b868152602080820187905260a0604083018190528201859052600090869060c08401835b88811015614e2e578335614e138161478b565b6001600160a01b031682529282019290820190600101614e00565b506001600160a01b0396909616606085015250505060800152949350505050565b60006020808385031215614e6257600080fd5b82516001600160401b0380821115614e7957600080fd5b818501915085601f830112614e8d57600080fd5b815181811115614e9f57614e9f614c84565b8060051b604051601f19603f83011681018181108582111715614ec457614ec4614c84565b604052918252848201925083810185019188831115614ee257600080fd5b938501935b82851015614f0057845184529385019392850192614ee7565b9897505050505050505056fe3efad319b6afe1e0317f51df66abdc4d7a7c8b1cfda31f03440b4ad255af7245a2646970667358221220606f1090d90ae58064014eed97badf16b226c92201d931bf2a9eb875af9726e464736f6c634300080a0033",
  "libraries": {
    "UniUtils": "0x9f2Ef965ec5fF80ceFA14A9Ec2e7a10715dD5B34"
  },
  "devdoc": {
    "kind": "dev",
    "methods": {
      "getMaxTvl()": {
        "returns": {
          "_0": "MaxTvl"
        }
      },
      "isCEther()": {
        "details": "Only present in Fuse cTokens, not Compound cTokens.",
        "returns": {
          "_0": "True if the strategy accepts ETH, false otherwise."
        }
      },
      "owner()": {
        "details": "Returns the address of the current owner."
      },
      "redeemUnderlying(uint256)": {
        "params": {
          "amount": "The amount of underlying tokens to withdraw."
        },
        "returns": {
          "errCode": "An error code, or 0 if the withdrawal was successful."
        }
      },
      "renounceOwnership()": {
        "details": "Leaves the contract without owner. It will not be possible to call `onlyOwner` functions anymore. Can only be called by the current owner. NOTE: Renouncing ownership will leave the contract without an owner, thereby removing any functionality that is only available to the owner."
      },
      "transferOwnership(address)": {
        "details": "Transfers ownership of the contract to a new account (`newOwner`). Can only be called by the current owner."
      }
    },
    "version": 1
  },
  "userdoc": {
    "kind": "user",
    "methods": {
      "emergencyWithdraw(address,address[])": {
        "notice": "Withdraws any ERC20 tokens back to recipient."
      },
      "getMaxTvl()": {
        "notice": "Returns max deposits a strategy can take."
      },
      "getPricePerShare()": {
        "notice": "Returns the share price of the strategy in `underlying` units, multiplied  by 1e18"
      },
      "isCEther()": {
        "notice": "Returns whether the strategy accepts ETH or an ERC20."
      },
      "redeemUnderlying(uint256)": {
        "notice": "Withdraws a specific amount of underlying tokens from the strategy."
      }
    },
    "version": 1
  },
  "storageLayout": {
    "storage": [
      {
        "astId": 1647,
        "contract": "src/strategies/implementations/USDCglmrSTELLAwell.sol:USDCglmrSTELLAwell",
        "label": "_owner",
        "offset": 0,
        "slot": "0",
        "type": "t_address"
      },
      {
        "astId": 2302,
        "contract": "src/strategies/implementations/USDCglmrSTELLAwell.sol:USDCglmrSTELLAwell",
        "label": "_status",
        "offset": 0,
        "slot": "1",
        "type": "t_uint256"
      },
      {
        "astId": 21717,
        "contract": "src/strategies/implementations/USDCglmrSTELLAwell.sol:USDCglmrSTELLAwell",
        "label": "isInitialized",
        "offset": 0,
        "slot": "2",
        "type": "t_bool"
      },
      {
        "astId": 15543,
        "contract": "src/strategies/implementations/USDCglmrSTELLAwell.sol:USDCglmrSTELLAwell",
        "label": "lastHarvest",
        "offset": 0,
        "slot": "3",
        "type": "t_uint256"
      },
      {
        "astId": 15545,
        "contract": "src/strategies/implementations/USDCglmrSTELLAwell.sol:USDCglmrSTELLAwell",
        "label": "_vault",
        "offset": 0,
        "slot": "4",
        "type": "t_address"
      },
      {
        "astId": 15547,
        "contract": "src/strategies/implementations/USDCglmrSTELLAwell.sol:USDCglmrSTELLAwell",
        "label": "_shares",
        "offset": 0,
        "slot": "5",
        "type": "t_uint256"
      },
      {
        "astId": 15549,
        "contract": "src/strategies/implementations/USDCglmrSTELLAwell.sol:USDCglmrSTELLAwell",
        "label": "name",
        "offset": 0,
        "slot": "6",
        "type": "t_string_storage"
      },
      {
        "astId": 15551,
        "contract": "src/strategies/implementations/USDCglmrSTELLAwell.sol:USDCglmrSTELLAwell",
        "label": "symbol",
        "offset": 0,
        "slot": "7",
        "type": "t_string_storage"
      },
      {
        "astId": 15555,
        "contract": "src/strategies/implementations/USDCglmrSTELLAwell.sol:USDCglmrSTELLAwell",
        "label": "_managers",
        "offset": 0,
        "slot": "8",
        "type": "t_mapping(t_address,t_bool)"
      },
      {
        "astId": 15557,
        "contract": "src/strategies/implementations/USDCglmrSTELLAwell.sol:USDCglmrSTELLAwell",
        "label": "BASE_UNIT",
        "offset": 0,
        "slot": "9",
        "type": "t_uint256"
      },
      {
        "astId": 15951,
        "contract": "src/strategies/implementations/USDCglmrSTELLAwell.sol:USDCglmrSTELLAwell",
        "label": "_underlying",
        "offset": 0,
        "slot": "10",
        "type": "t_contract(IERC20)2997"
      },
      {
        "astId": 15954,
        "contract": "src/strategies/implementations/USDCglmrSTELLAwell.sol:USDCglmrSTELLAwell",
        "label": "_short",
        "offset": 0,
        "slot": "11",
        "type": "t_contract(IERC20)2997"
      },
      {
        "astId": 15957,
        "contract": "src/strategies/implementations/USDCglmrSTELLAwell.sol:USDCglmrSTELLAwell",
        "label": "maxPriceMismatch",
        "offset": 0,
        "slot": "12",
        "type": "t_uint256"
      },
      {
        "astId": 15963,
        "contract": "src/strategies/implementations/USDCglmrSTELLAwell.sol:USDCglmrSTELLAwell",
        "label": "minLoanHealth",
        "offset": 0,
        "slot": "13",
        "type": "t_uint256"
      },
      {
        "astId": 15966,
        "contract": "src/strategies/implementations/USDCglmrSTELLAwell.sol:USDCglmrSTELLAwell",
        "label": "rebalanceThreshold",
        "offset": 0,
        "slot": "14",
        "type": "t_uint16"
      },
      {
        "astId": 15968,
        "contract": "src/strategies/implementations/USDCglmrSTELLAwell.sol:USDCglmrSTELLAwell",
        "label": "_maxTvl",
        "offset": 0,
        "slot": "15",
        "type": "t_uint256"
      },
      {
        "astId": 15971,
        "contract": "src/strategies/implementations/USDCglmrSTELLAwell.sol:USDCglmrSTELLAwell",
        "label": "_safeCollateralRatio",
        "offset": 0,
        "slot": "16",
        "type": "t_uint256"
      },
      {
        "astId": 19131,
        "contract": "src/strategies/implementations/USDCglmrSTELLAwell.sol:USDCglmrSTELLAwell",
        "label": "_cTokenLend",
        "offset": 0,
        "slot": "17",
        "type": "t_contract(ICTokenErc20)13333"
      },
      {
        "astId": 19134,
        "contract": "src/strategies/implementations/USDCglmrSTELLAwell.sol:USDCglmrSTELLAwell",
        "label": "_cTokenBorrow",
        "offset": 0,
        "slot": "18",
        "type": "t_contract(ICTokenErc20)13333"
      },
      {
        "astId": 19137,
        "contract": "src/strategies/implementations/USDCglmrSTELLAwell.sol:USDCglmrSTELLAwell",
        "label": "_comptroller",
        "offset": 0,
        "slot": "19",
        "type": "t_contract(IComptroller)13585"
      },
      {
        "astId": 19140,
        "contract": "src/strategies/implementations/USDCglmrSTELLAwell.sol:USDCglmrSTELLAwell",
        "label": "_oracle",
        "offset": 0,
        "slot": "20",
        "type": "t_contract(ICompPriceOracle)13366"
      },
      {
        "astId": 19272,
        "contract": "src/strategies/implementations/USDCglmrSTELLAwell.sol:USDCglmrSTELLAwell",
        "label": "_router",
        "offset": 0,
        "slot": "21",
        "type": "t_contract(IUniswapV2Router01)14706"
      },
      {
        "astId": 19275,
        "contract": "src/strategies/implementations/USDCglmrSTELLAwell.sol:USDCglmrSTELLAwell",
        "label": "_farmToken",
        "offset": 0,
        "slot": "22",
        "type": "t_contract(IERC20)2997"
      },
      {
        "astId": 20479,
        "contract": "src/strategies/implementations/USDCglmrSTELLAwell.sol:USDCglmrSTELLAwell",
        "label": "_farm",
        "offset": 0,
        "slot": "23",
        "type": "t_contract(IMasterChef)14015"
      },
      {
        "astId": 20482,
        "contract": "src/strategies/implementations/USDCglmrSTELLAwell.sol:USDCglmrSTELLAwell",
        "label": "_router",
        "offset": 0,
        "slot": "24",
        "type": "t_contract(IUniswapV2Router01)14706"
      },
      {
        "astId": 20485,
        "contract": "src/strategies/implementations/USDCglmrSTELLAwell.sol:USDCglmrSTELLAwell",
        "label": "_farmToken",
        "offset": 0,
        "slot": "25",
        "type": "t_contract(IERC20)2997"
      },
      {
        "astId": 20488,
        "contract": "src/strategies/implementations/USDCglmrSTELLAwell.sol:USDCglmrSTELLAwell",
        "label": "_pair",
        "offset": 0,
        "slot": "26",
        "type": "t_contract(IUniswapV2Pair)14398"
      },
      {
        "astId": 20490,
        "contract": "src/strategies/implementations/USDCglmrSTELLAwell.sol:USDCglmrSTELLAwell",
        "label": "_farmId",
        "offset": 0,
        "slot": "27",
        "type": "t_uint256"
      }
    ],
    "types": {
      "t_address": {
        "encoding": "inplace",
        "label": "address",
        "numberOfBytes": "20"
      },
      "t_bool": {
        "encoding": "inplace",
        "label": "bool",
        "numberOfBytes": "1"
      },
      "t_contract(ICTokenErc20)13333": {
        "encoding": "inplace",
        "label": "contract ICTokenErc20",
        "numberOfBytes": "20"
      },
      "t_contract(ICompPriceOracle)13366": {
        "encoding": "inplace",
        "label": "contract ICompPriceOracle",
        "numberOfBytes": "20"
      },
      "t_contract(IComptroller)13585": {
        "encoding": "inplace",
        "label": "contract IComptroller",
        "numberOfBytes": "20"
      },
      "t_contract(IERC20)2997": {
        "encoding": "inplace",
        "label": "contract IERC20",
        "numberOfBytes": "20"
      },
      "t_contract(IMasterChef)14015": {
        "encoding": "inplace",
        "label": "contract IMasterChef",
        "numberOfBytes": "20"
      },
      "t_contract(IUniswapV2Pair)14398": {
        "encoding": "inplace",
        "label": "contract IUniswapV2Pair",
        "numberOfBytes": "20"
      },
      "t_contract(IUniswapV2Router01)14706": {
        "encoding": "inplace",
        "label": "contract IUniswapV2Router01",
        "numberOfBytes": "20"
      },
      "t_mapping(t_address,t_bool)": {
        "encoding": "mapping",
        "key": "t_address",
        "label": "mapping(address => bool)",
        "numberOfBytes": "32",
        "value": "t_bool"
      },
      "t_string_storage": {
        "encoding": "bytes",
        "label": "string",
        "numberOfBytes": "32"
      },
      "t_uint16": {
        "encoding": "inplace",
        "label": "uint16",
        "numberOfBytes": "2"
      },
      "t_uint256": {
        "encoding": "inplace",
        "label": "uint256",
        "numberOfBytes": "32"
      }
    }
  }
}