{
  "address": "0x34e125352967E55dF11cEf1077D89e19e83FCf60",
  "abi": [
    {
      "inputs": [
        {
          "components": [
            {
              "internalType": "address",
              "name": "underlying",
              "type": "address"
            },
            {
              "internalType": "address",
              "name": "short",
              "type": "address"
            },
            {
              "internalType": "address",
              "name": "cTokenLend",
              "type": "address"
            },
            {
              "internalType": "address",
              "name": "cTokenBorrow",
              "type": "address"
            },
            {
              "internalType": "address",
              "name": "uniPair",
              "type": "address"
            },
            {
              "internalType": "address",
              "name": "uniFarm",
              "type": "address"
            },
            {
              "internalType": "address",
              "name": "farmToken",
              "type": "address"
            },
            {
              "internalType": "uint256",
              "name": "farmId",
              "type": "uint256"
            },
            {
              "internalType": "address",
              "name": "farmRouter",
              "type": "address"
            },
            {
              "internalType": "address",
              "name": "comptroller",
              "type": "address"
            },
            {
              "internalType": "address",
              "name": "lendRewardRouter",
              "type": "address"
            },
            {
              "internalType": "address",
              "name": "lendRewardToken",
              "type": "address"
            },
            {
              "internalType": "address",
              "name": "vault",
              "type": "address"
            },
            {
              "internalType": "string",
              "name": "symbol",
              "type": "string"
            },
            {
              "internalType": "string",
              "name": "name",
              "type": "string"
            },
            {
              "internalType": "uint256",
              "name": "maxTvl",
              "type": "uint256"
            }
          ],
          "internalType": "struct Config",
          "name": "config",
          "type": "tuple"
        }
      ],
      "stateMutability": "nonpayable",
      "type": "constructor"
    },
    {
      "anonymous": false,
      "inputs": [
        {
          "indexed": false,
          "internalType": "address",
          "name": "sender",
          "type": "address"
        },
        {
          "indexed": false,
          "internalType": "uint256",
          "name": "amount",
          "type": "uint256"
        }
      ],
      "name": "Deposit",
      "type": "event"
    },
    {
      "anonymous": false,
      "inputs": [
        {
          "indexed": true,
          "internalType": "address",
          "name": "recipient",
          "type": "address"
        },
        {
          "indexed": false,
          "internalType": "contract IERC20[]",
          "name": "tokens",
          "type": "address[]"
        }
      ],
      "name": "EmergencyWithdraw",
      "type": "event"
    },
    {
      "anonymous": false,
      "inputs": [
        {
          "indexed": false,
          "internalType": "uint256",
          "name": "harvested",
          "type": "uint256"
        }
      ],
      "name": "Harvest",
      "type": "event"
    },
    {
      "anonymous": false,
      "inputs": [
        {
          "indexed": true,
          "internalType": "address",
          "name": "token",
          "type": "address"
        },
        {
          "indexed": false,
          "internalType": "uint256",
          "name": "amount",
          "type": "uint256"
        }
      ],
      "name": "HarvestedToken",
      "type": "event"
    },
    {
      "anonymous": false,
      "inputs": [
        {
          "indexed": true,
          "internalType": "address",
          "name": "account",
          "type": "address"
        },
        {
          "indexed": false,
          "internalType": "bool",
          "name": "isManager",
          "type": "bool"
        }
      ],
      "name": "ManagerUpdate",
      "type": "event"
    },
    {
      "anonymous": false,
      "inputs": [
        {
          "indexed": true,
          "internalType": "address",
          "name": "previousOwner",
          "type": "address"
        },
        {
          "indexed": true,
          "internalType": "address",
          "name": "newOwner",
          "type": "address"
        }
      ],
      "name": "OwnershipTransferred",
      "type": "event"
    },
    {
      "anonymous": false,
      "inputs": [
        {
          "indexed": false,
          "internalType": "uint256",
          "name": "shortPrice",
          "type": "uint256"
        },
        {
          "indexed": false,
          "internalType": "uint256",
          "name": "tvlBeforeRebalance",
          "type": "uint256"
        },
        {
          "indexed": false,
          "internalType": "uint256",
          "name": "positionOffset",
          "type": "uint256"
        }
      ],
      "name": "Rebalance",
      "type": "event"
    },
    {
      "anonymous": false,
      "inputs": [
        {
          "indexed": true,
          "internalType": "address",
          "name": "sender",
          "type": "address"
        },
        {
          "indexed": false,
          "internalType": "uint256",
          "name": "startLoanHealth",
          "type": "uint256"
        },
        {
          "indexed": false,
          "internalType": "uint256",
          "name": "updatedLoanHealth",
          "type": "uint256"
        }
      ],
      "name": "RebalanceLoan",
      "type": "event"
    },
    {
      "anonymous": false,
      "inputs": [
        {
          "indexed": false,
          "internalType": "uint256",
          "name": "loanHealth",
          "type": "uint256"
        }
      ],
      "name": "SetMaxPriceMismatch",
      "type": "event"
    },
    {
      "anonymous": false,
      "inputs": [
        {
          "indexed": false,
          "internalType": "uint256",
          "name": "loanHealth",
          "type": "uint256"
        }
      ],
      "name": "SetMaxTvl",
      "type": "event"
    },
    {
      "anonymous": false,
      "inputs": [
        {
          "indexed": false,
          "internalType": "uint256",
          "name": "loanHealth",
          "type": "uint256"
        }
      ],
      "name": "SetRebalanceThreshold",
      "type": "event"
    },
    {
      "anonymous": false,
      "inputs": [
        {
          "indexed": false,
          "internalType": "uint256",
          "name": "collateralRatio",
          "type": "uint256"
        }
      ],
      "name": "SetSafeCollateralRaio",
      "type": "event"
    },
    {
      "anonymous": false,
      "inputs": [
        {
          "indexed": true,
          "internalType": "address",
          "name": "vault",
          "type": "address"
        }
      ],
      "name": "VaultUpdate",
      "type": "event"
    },
    {
      "anonymous": false,
      "inputs": [
        {
          "indexed": false,
          "internalType": "address",
          "name": "sender",
          "type": "address"
        },
        {
          "indexed": false,
          "internalType": "uint256",
          "name": "amount",
          "type": "uint256"
        }
      ],
      "name": "Withdraw",
      "type": "event"
    },
    {
      "anonymous": false,
      "inputs": [
        {
          "indexed": false,
          "internalType": "uint256",
          "name": "loanHealth",
          "type": "uint256"
        }
      ],
      "name": "setMinLoanHealth",
      "type": "event"
    },
    {
      "inputs": [],
      "name": "BASE_UNIT",
      "outputs": [
        {
          "internalType": "uint256",
          "name": "",
          "type": "uint256"
        }
      ],
      "stateMutability": "view",
      "type": "function"
    },
    {
      "inputs": [
        {
          "internalType": "address",
          "name": "",
          "type": "address"
        }
      ],
      "name": "balanceOfUnderlying",
      "outputs": [
        {
          "internalType": "uint256",
          "name": "",
          "type": "uint256"
        }
      ],
      "stateMutability": "view",
      "type": "function"
    },
    {
      "inputs": [],
      "name": "balanceOfUnderlying",
      "outputs": [
        {
          "internalType": "uint256",
          "name": "assets",
          "type": "uint256"
        }
      ],
      "stateMutability": "view",
      "type": "function"
    },
    {
      "inputs": [],
      "name": "cTokenBorrow",
      "outputs": [
        {
          "internalType": "contract ICTokenErc20",
          "name": "",
          "type": "address"
        }
      ],
      "stateMutability": "view",
      "type": "function"
    },
    {
      "inputs": [],
      "name": "cTokenLend",
      "outputs": [
        {
          "internalType": "contract ICTokenErc20",
          "name": "",
          "type": "address"
        }
      ],
      "stateMutability": "view",
      "type": "function"
    },
    {
      "inputs": [
        {
          "internalType": "uint256",
          "name": "maxSlippage",
          "type": "uint256"
        }
      ],
      "name": "closePosition",
      "outputs": [],
      "stateMutability": "nonpayable",
      "type": "function"
    },
    {
      "inputs": [],
      "name": "comptroller",
      "outputs": [
        {
          "internalType": "contract IComptroller",
          "name": "",
          "type": "address"
        }
      ],
      "stateMutability": "view",
      "type": "function"
    },
    {
      "inputs": [],
      "name": "decimals",
      "outputs": [
        {
          "internalType": "uint8",
          "name": "",
          "type": "uint8"
        }
      ],
      "stateMutability": "view",
      "type": "function"
    },
    {
      "inputs": [
        {
          "internalType": "address",
          "name": "recipient",
          "type": "address"
        },
        {
          "internalType": "contract IERC20[]",
          "name": "tokens",
          "type": "address[]"
        }
      ],
      "name": "emergencyWithdraw",
      "outputs": [],
      "stateMutability": "nonpayable",
      "type": "function"
    },
    {
      "inputs": [],
      "name": "farmRouter",
      "outputs": [
        {
          "internalType": "contract IUniswapV2Router01",
          "name": "",
          "type": "address"
        }
      ],
      "stateMutability": "view",
      "type": "function"
    },
    {
      "inputs": [],
      "name": "getCollateralRatio",
      "outputs": [
        {
          "internalType": "uint256",
          "name": "",
          "type": "uint256"
        }
      ],
      "stateMutability": "view",
      "type": "function"
    },
    {
      "inputs": [],
      "name": "getMaxTvl",
      "outputs": [
        {
          "internalType": "uint256",
          "name": "",
          "type": "uint256"
        }
      ],
      "stateMutability": "view",
      "type": "function"
    },
    {
      "inputs": [],
      "name": "getPositionOffset",
      "outputs": [
        {
          "internalType": "uint256",
          "name": "positionOffset",
          "type": "uint256"
        }
      ],
      "stateMutability": "view",
      "type": "function"
    },
    {
      "inputs": [],
      "name": "getPriceOffset",
      "outputs": [
        {
          "internalType": "uint256",
          "name": "offset",
          "type": "uint256"
        }
      ],
      "stateMutability": "view",
      "type": "function"
    },
    {
      "inputs": [],
      "name": "getPricePerShare",
      "outputs": [
        {
          "internalType": "uint256",
          "name": "",
          "type": "uint256"
        }
      ],
      "stateMutability": "view",
      "type": "function"
    },
    {
      "inputs": [],
      "name": "getTVL",
      "outputs": [
        {
          "internalType": "uint256",
          "name": "tvl",
          "type": "uint256"
        },
        {
          "internalType": "uint256",
          "name": "collateralBalance",
          "type": "uint256"
        },
        {
          "internalType": "uint256",
          "name": "borrowPosition",
          "type": "uint256"
        },
        {
          "internalType": "uint256",
          "name": "borrowBalance",
          "type": "uint256"
        },
        {
          "internalType": "uint256",
          "name": "lpBalance",
          "type": "uint256"
        },
        {
          "internalType": "uint256",
          "name": "underlyingBalance",
          "type": "uint256"
        }
      ],
      "stateMutability": "view",
      "type": "function"
    },
    {
      "inputs": [],
      "name": "getTotalTVL",
      "outputs": [
        {
          "internalType": "uint256",
          "name": "tvl",
          "type": "uint256"
        }
      ],
      "stateMutability": "view",
      "type": "function"
    },
    {
      "inputs": [],
      "name": "getUnderlyingShortReserves",
      "outputs": [
        {
          "internalType": "uint256",
          "name": "reserveA",
          "type": "uint256"
        },
        {
          "internalType": "uint256",
          "name": "reserveB",
          "type": "uint256"
        }
      ],
      "stateMutability": "view",
      "type": "function"
    },
    {
      "inputs": [
        {
          "components": [
            {
              "internalType": "address[]",
              "name": "path",
              "type": "address[]"
            },
            {
              "internalType": "uint256",
              "name": "min",
              "type": "uint256"
            },
            {
              "internalType": "uint256",
              "name": "deadline",
              "type": "uint256"
            }
          ],
          "internalType": "struct HarvestSwapParms[]",
          "name": "uniParams",
          "type": "tuple[]"
        },
        {
          "components": [
            {
              "internalType": "address[]",
              "name": "path",
              "type": "address[]"
            },
            {
              "internalType": "uint256",
              "name": "min",
              "type": "uint256"
            },
            {
              "internalType": "uint256",
              "name": "deadline",
              "type": "uint256"
            }
          ],
          "internalType": "struct HarvestSwapParms[]",
          "name": "lendingParams",
          "type": "tuple[]"
        }
      ],
      "name": "harvest",
      "outputs": [
        {
          "internalType": "uint256[]",
          "name": "farmHarvest",
          "type": "uint256[]"
        },
        {
          "internalType": "uint256[]",
          "name": "lendHarvest",
          "type": "uint256[]"
        }
      ],
      "stateMutability": "nonpayable",
      "type": "function"
    },
    {
      "inputs": [],
      "name": "isCEther",
      "outputs": [
        {
          "internalType": "bool",
          "name": "",
          "type": "bool"
        }
      ],
      "stateMutability": "pure",
      "type": "function"
    },
    {
      "inputs": [],
      "name": "isIntialized",
      "outputs": [
        {
          "internalType": "bool",
          "name": "",
          "type": "bool"
        }
      ],
      "stateMutability": "view",
      "type": "function"
    },
    {
      "inputs": [
        {
          "internalType": "address",
          "name": "user",
          "type": "address"
        }
      ],
      "name": "isManager",
      "outputs": [
        {
          "internalType": "bool",
          "name": "",
          "type": "bool"
        }
      ],
      "stateMutability": "view",
      "type": "function"
    },
    {
      "inputs": [],
      "name": "lastHarvest",
      "outputs": [
        {
          "internalType": "uint256",
          "name": "",
          "type": "uint256"
        }
      ],
      "stateMutability": "view",
      "type": "function"
    },
    {
      "inputs": [],
      "name": "lendFarmRouter",
      "outputs": [
        {
          "internalType": "contract IUniswapV2Router01",
          "name": "",
          "type": "address"
        }
      ],
      "stateMutability": "view",
      "type": "function"
    },
    {
      "inputs": [],
      "name": "loanHealth",
      "outputs": [
        {
          "internalType": "uint256",
          "name": "",
          "type": "uint256"
        }
      ],
      "stateMutability": "view",
      "type": "function"
    },
    {
      "inputs": [],
      "name": "maxPriceMismatch",
      "outputs": [
        {
          "internalType": "uint256",
          "name": "",
          "type": "uint256"
        }
      ],
      "stateMutability": "view",
      "type": "function"
    },
    {
      "inputs": [],
      "name": "minLoanHealth",
      "outputs": [
        {
          "internalType": "uint256",
          "name": "",
          "type": "uint256"
        }
      ],
      "stateMutability": "view",
      "type": "function"
    },
    {
      "inputs": [
        {
          "internalType": "uint256",
          "name": "amount",
          "type": "uint256"
        }
      ],
      "name": "mint",
      "outputs": [
        {
          "internalType": "uint256",
          "name": "errCode",
          "type": "uint256"
        }
      ],
      "stateMutability": "nonpayable",
      "type": "function"
    },
    {
      "inputs": [],
      "name": "name",
      "outputs": [
        {
          "internalType": "string",
          "name": "",
          "type": "string"
        }
      ],
      "stateMutability": "view",
      "type": "function"
    },
    {
      "inputs": [],
      "name": "oracle",
      "outputs": [
        {
          "internalType": "contract ICompPriceOracle",
          "name": "",
          "type": "address"
        }
      ],
      "stateMutability": "view",
      "type": "function"
    },
    {
      "inputs": [],
      "name": "owner",
      "outputs": [
        {
          "internalType": "address",
          "name": "",
          "type": "address"
        }
      ],
      "stateMutability": "view",
      "type": "function"
    },
    {
      "inputs": [],
      "name": "pair",
      "outputs": [
        {
          "internalType": "contract IUniswapV2Pair",
          "name": "",
          "type": "address"
        }
      ],
      "stateMutability": "view",
      "type": "function"
    },
    {
      "inputs": [
        {
          "internalType": "uint256",
          "name": "maxSlippage",
          "type": "uint256"
        }
      ],
      "name": "rebalance",
      "outputs": [],
      "stateMutability": "nonpayable",
      "type": "function"
    },
    {
      "inputs": [],
      "name": "rebalanceLoan",
      "outputs": [],
      "stateMutability": "nonpayable",
      "type": "function"
    },
    {
      "inputs": [],
      "name": "rebalanceThreshold",
      "outputs": [
        {
          "internalType": "uint16",
          "name": "",
          "type": "uint16"
        }
      ],
      "stateMutability": "view",
      "type": "function"
    },
    {
      "inputs": [
        {
          "internalType": "uint256",
          "name": "amount",
          "type": "uint256"
        }
      ],
      "name": "redeemUnderlying",
      "outputs": [
        {
          "internalType": "uint256",
          "name": "errCode",
          "type": "uint256"
        }
      ],
      "stateMutability": "nonpayable",
      "type": "function"
    },
    {
      "inputs": [],
      "name": "renounceOwnership",
      "outputs": [],
      "stateMutability": "nonpayable",
      "type": "function"
    },
    {
      "inputs": [],
      "name": "safeCollateralRatio",
      "outputs": [
        {
          "internalType": "uint256",
          "name": "",
          "type": "uint256"
        }
      ],
      "stateMutability": "view",
      "type": "function"
    },
    {
      "inputs": [
        {
          "internalType": "address",
          "name": "user",
          "type": "address"
        },
        {
          "internalType": "bool",
          "name": "_isManager",
          "type": "bool"
        }
      ],
      "name": "setManager",
      "outputs": [],
      "stateMutability": "nonpayable",
      "type": "function"
    },
    {
      "inputs": [
        {
          "internalType": "uint256",
          "name": "maxPriceMismatch_",
          "type": "uint256"
        }
      ],
      "name": "setMaxPriceMismatch",
      "outputs": [],
      "stateMutability": "nonpayable",
      "type": "function"
    },
    {
      "inputs": [
        {
          "internalType": "uint256",
          "name": "maxTvl_",
          "type": "uint256"
        }
      ],
      "name": "setMaxTvl",
      "outputs": [],
      "stateMutability": "nonpayable",
      "type": "function"
    },
    {
      "inputs": [
        {
          "internalType": "uint256",
          "name": "minLoanHealth_",
          "type": "uint256"
        }
      ],
      "name": "setMinLoanHeath",
      "outputs": [],
      "stateMutability": "nonpayable",
      "type": "function"
    },
    {
      "inputs": [
        {
          "internalType": "uint16",
          "name": "rebalanceThreshold_",
          "type": "uint16"
        }
      ],
      "name": "setRebalanceThreshold",
      "outputs": [],
      "stateMutability": "nonpayable",
      "type": "function"
    },
    {
      "inputs": [
        {
          "internalType": "uint256",
          "name": "safeCollateralRatio_",
          "type": "uint256"
        }
      ],
      "name": "setSafeCollateralRatio",
      "outputs": [],
      "stateMutability": "nonpayable",
      "type": "function"
    },
    {
      "inputs": [
        {
          "internalType": "address",
          "name": "vault_",
          "type": "address"
        }
      ],
      "name": "setVault",
      "outputs": [],
      "stateMutability": "nonpayable",
      "type": "function"
    },
    {
      "inputs": [],
      "name": "short",
      "outputs": [
        {
          "internalType": "contract IERC20",
          "name": "",
          "type": "address"
        }
      ],
      "stateMutability": "view",
      "type": "function"
    },
    {
      "inputs": [],
      "name": "symbol",
      "outputs": [
        {
          "internalType": "string",
          "name": "",
          "type": "string"
        }
      ],
      "stateMutability": "view",
      "type": "function"
    },
    {
      "inputs": [],
      "name": "totalSupply",
      "outputs": [
        {
          "internalType": "uint256",
          "name": "",
          "type": "uint256"
        }
      ],
      "stateMutability": "view",
      "type": "function"
    },
    {
      "inputs": [
        {
          "internalType": "address",
          "name": "newOwner",
          "type": "address"
        }
      ],
      "name": "transferOwnership",
      "outputs": [],
      "stateMutability": "nonpayable",
      "type": "function"
    },
    {
      "inputs": [],
      "name": "underlying",
      "outputs": [
        {
          "internalType": "contract IERC20",
          "name": "",
          "type": "address"
        }
      ],
      "stateMutability": "view",
      "type": "function"
    },
    {
      "inputs": [],
      "name": "vault",
      "outputs": [
        {
          "internalType": "address",
          "name": "",
          "type": "address"
        }
      ],
      "stateMutability": "view",
      "type": "function"
    },
    {
      "inputs": [],
      "name": "version",
      "outputs": [
        {
          "internalType": "uint256",
          "name": "",
          "type": "uint256"
        }
      ],
      "stateMutability": "view",
      "type": "function"
    },
    {
      "inputs": [],
      "name": "withdrawFromFarm",
      "outputs": [],
      "stateMutability": "nonpayable",
      "type": "function"
    },
    {
      "stateMutability": "payable",
      "type": "receive"
    }
  ],
  "transactionHash": "0x8f663763a5605c71e16c23eb30c59d810c95a79f33aecdd99ee95a1f5376a01f",
  "args": [
    [
      "0x8f552a71EFE5eeFc207Bf75485b356A0b3f01eC9",
      "0xAcc15dC74880C9944775448304B263D191c6077F",
      "0x02e9081DfadD37A852F9a73C4d7d69e615E61334",
      "0x091608f4e4a15335145be0A279483C0f8E4c7955",
      "0x9bFcf685e641206115dadc0C9ab17181e1d4975c",
      "0xF3a5454496E26ac57da879bf3285Fa85DEBF0388",
      "0x0E358838ce72d5e61E0018a2ffaC4bEC5F4c88d2",
      12,
      "0x70085a09D30D6f8C4ecF6eE10120d1847383BB57",
      "0x8E00D5e02E65A19337Cdba98bbA9F84d4186a180",
      "0x70085a09D30D6f8C4ecF6eE10120d1847383BB57",
      "0x511aB53F793683763E5a8829738301368a2411E3",
      "0xB241C11fED14d72C0BAC45DbE3a93DBCd19dFcB0",
      "USDCglmrSTELLAwell",
      "USDC GLMR TELLA Moonwell",
      "115792089237316195423570985008687907853269984665640564039457584007913129639935"
    ]
  ],
  "numDeployments": 1,
  "solcInputHash": "b0b62c3942a0ad779f9ddc06b1597d26",
  "bytecode": "0x60806040526064600c55670ff59ee833b30000600d55600e805461ffff1916610190179055611f406010553480156200003757600080fd5b50604051620061de380380620061de8339810160408190526200005a9162000e03565b6101808101516101a08201516101c0830151620000773362000147565b60018055600480546001600160a01b0319166001600160a01b0385161790558151620000ab90600790602085019062000c24565b508051620000c190600690602084019062000c24565b505050608082015160a083015161010084015160c085015160e0860151620000ea955062000197565b6200010a816101200151826040015183606001516200021c60201b60201c565b62000126816101400151826101600151620002e860201b60201c565b805160208201516101e0830151620001409291906200035d565b5062001330565b600080546001600160a01b038381166001600160a01b0319831681178455604051919092169283917f8be0079c531659141344cd1fd0a4f28419497f9722a3daafe3b4186f6b6457e09190a35050565b60025460ff1615620001c65760405162461bcd60e51b8152600401620001bd9062000fa5565b60405180910390fd5b601780546001600160a01b03199081166001600160a01b03968716179091556018805482169486169490941790935560198054841692851692909217909155601a80549092169390921692909217909155601b55565b601180546001600160a01b038085166001600160a01b03199283161790925560128054848416908316179055601380549286169290911682179055604080516307dc0d1d60e41b81529051637dc0d1d0916004808201926020929091908290030181865afa15801562000293573d6000803e3d6000fd5b505050506040513d601f19601f82011682018060405250810190620002b9919062000fca565b601480546001600160a01b0319166001600160a01b0392909216919091179055620002e36200050b565b505050565b60025460ff16156200030e5760405162461bcd60e51b8152600401620001bd9062000fa5565b601680546001600160a01b03199081166001600160a01b0384811691821790935560158054909216928516928317909155620003599160001962000607602090811b620019f917901c565b5050565b60025460ff1615620003835760405162461bcd60e51b8152600401620001bd9062000fa5565b600a80546001600160a01b038086166001600160a01b03199283168117909355600b805491861691909216179055620003cf9030600019620019f962000607602090811b91909117901c565b620003d962000752565b620003e690600a620010fd565b600955620003f481620007c8565b7f5ceaf8b7b0d35f85ef4df565057cd318e70d9f8681f89425a2d5e09c1c70a7f9600d546040516200042891815260200190565b60405180910390a17f3e87fa3180c1babd204ce79375729d7a6694a2d2f0fb3e250f9138488ed066bb600c546040516200046491815260200190565b60405180910390a1600e5460405161ffff90911681527f36c98a54ec4f90fe58a67bf25cfc1691dbd53639eee3513536d83e8d34fb0a9b9060200160405180910390a17f4812bd1abd1ad4ea905335e3af941ec67d6d51ecb36ab58f23af0af081aac57b601054604051620004db91815260200190565b60405180910390a1620004ed62000870565b620004f7620008de565b50506002805461ff00191661010017905550565b6040805160028082526060820183526000926020830190803683375050601154919250506001600160a01b0316816000815181106200054e576200054e6200110e565b6001600160a01b03928316602091820292909201015260125416816001815181106200057e576200057e6200110e565b6001600160a01b039283166020918202929092010152601354604051631853304760e31b815291169063c299823890620005bd90849060040162001124565b6000604051808303816000875af1158015620005dd573d6000803e3d6000fd5b505050506040513d6000823e601f3d908101601f1916820160405262000359919081019062001173565b801580620006865750604051636eb1769f60e11b81526001600160a01b0384169063dd62ed3e9062000640903090869060040162001223565b602060405180830381865afa1580156200065e573d6000803e3d6000fd5b505050506040513d601f19601f820116820180604052508101906200068491906200123d565b155b620006fa5760405162461bcd60e51b815260206004820152603660248201527f5361666545524332303a20617070726f76652066726f6d206e6f6e2d7a65726f60448201527f20746f206e6f6e2d7a65726f20616c6c6f77616e6365000000000000000000006064820152608401620001bd565b604080516001600160a01b038416602482015260448082018490528251808303909101815260649091019091526020810180516001600160e01b0390811663095ea7b360e01b17909152620002e3918591620009ba16565b600a546040805163313ce56760e01b815290516000926001600160a01b03169163313ce5679160048083019260209291908290030181865afa1580156200079d573d6000803e3d6000fd5b505050506040513d601f19601f82011682018060405250810190620007c3919062001257565b905090565b6000546001600160a01b0316331480620007f657503360009081526008602052604090205460ff1615156001145b620008355760405162461bcd60e51b815260206004820152600e60248201526d0a6e8e4c2e874409c9ebe82aaa8960931b6044820152606401620001bd565b600f8190556040518181527f13d3e08a22782064d3062f92ff1101a623b60e3bf91f236b5d1e9fdddfc12a129060200160405180910390a150565b601154620008b5906001600160a01b031660001962000897600a546001600160a01b031690565b6001600160a01b03166200060760201b620019f9179092919060201c565b601254620008dc906001600160a01b031660001962000897600b546001600160a01b031690565b565b601754601a546200090b916001600160a01b03918216911660001962000607602090811b620019f917901c565b601954601854604051636eb1769f60e11b81526001600160a01b039283169263dd62ed3e92620009449230929091169060040162001223565b602060405180830381865afa15801562000962573d6000803e3d6000fd5b505050506040513d601f19601f820116820180604052508101906200098891906200123d565b620008dc57601854601954620008dc916001600160a01b03918216911660001962000607602090811b620019f917901c565b600062000a16826040518060400160405280602081526020017f5361666545524332303a206c6f772d6c6576656c2063616c6c206661696c6564815250856001600160a01b031662000a9860201b62001b34179092919060201c565b805190915015620002e3578080602001905181019062000a3791906200127c565b620002e35760405162461bcd60e51b815260206004820152602a60248201527f5361666545524332303a204552433230206f7065726174696f6e20646964206e6044820152691bdd081cdd58d8d9595960b21b6064820152608401620001bd565b606062000aa9848460008562000ab3565b90505b9392505050565b60608247101562000b165760405162461bcd60e51b815260206004820152602660248201527f416464726573733a20696e73756666696369656e742062616c616e636520666f6044820152651c8818d85b1b60d21b6064820152608401620001bd565b843b62000b665760405162461bcd60e51b815260206004820152601d60248201527f416464726573733a2063616c6c20746f206e6f6e2d636f6e74726163740000006044820152606401620001bd565b600080866001600160a01b0316858760405162000b849190620012a0565b60006040518083038185875af1925050503d806000811462000bc3576040519150601f19603f3d011682016040523d82523d6000602084013e62000bc8565b606091505b50909250905062000bdb82828662000be6565b979650505050505050565b6060831562000bf757508162000aac565b82511562000c085782518084602001fd5b8160405162461bcd60e51b8152600401620001bd9190620012be565b82805462000c3290620012f3565b90600052602060002090601f01602090048101928262000c56576000855562000ca1565b82601f1062000c7157805160ff191683800117855562000ca1565b8280016001018555821562000ca1579182015b8281111562000ca157825182559160200191906001019062000c84565b5062000caf92915062000cb3565b5090565b5b8082111562000caf576000815560010162000cb4565b634e487b7160e01b600052604160045260246000fd5b60405161020081016001600160401b038111828210171562000d065762000d0662000cca565b60405290565b604051601f8201601f191681016001600160401b038111828210171562000d375762000d3762000cca565b604052919050565b80516001600160a01b038116811462000d5757600080fd5b919050565b60005b8381101562000d7957818101518382015260200162000d5f565b8381111562000d89576000848401525b50505050565b600082601f83011262000da157600080fd5b81516001600160401b0381111562000dbd5762000dbd62000cca565b62000dd2601f8201601f191660200162000d0c565b81815284602083860101111562000de857600080fd5b62000dfb82602083016020870162000d5c565b949350505050565b60006020828403121562000e1657600080fd5b81516001600160401b038082111562000e2e57600080fd5b90830190610200828603121562000e4457600080fd5b62000e4e62000ce0565b62000e598362000d3f565b815262000e696020840162000d3f565b602082015262000e7c6040840162000d3f565b604082015262000e8f6060840162000d3f565b606082015262000ea26080840162000d3f565b608082015262000eb560a0840162000d3f565b60a082015262000ec860c0840162000d3f565b60c082015260e083015160e082015261010062000ee781850162000d3f565b9082015261012062000efb84820162000d3f565b9082015261014062000f0f84820162000d3f565b9082015261016062000f2384820162000d3f565b9082015261018062000f3784820162000d3f565b908201526101a0838101518381111562000f5057600080fd5b62000f5e8882870162000d8f565b8284015250506101c0808401518381111562000f7957600080fd5b62000f878882870162000d8f565b91830191909152506101e09283015192810192909252509392505050565b6020808252600b908201526a125392551250531256915160aa1b604082015260600190565b60006020828403121562000fdd57600080fd5b62000aac8262000d3f565b634e487b7160e01b600052601160045260246000fd5b600181815b808511156200103f57816000190482111562001023576200102362000fe8565b808516156200103157918102915b93841c939080029062001003565b509250929050565b6000826200105857506001620010f7565b816200106757506000620010f7565b81600181146200108057600281146200108b57620010ab565b6001915050620010f7565b60ff8411156200109f576200109f62000fe8565b50506001821b620010f7565b5060208310610133831016604e8410600b8410161715620010d0575081810a620010f7565b620010dc838362000ffe565b8060001904821115620010f357620010f362000fe8565b0290505b92915050565b600062000aac60ff84168362001047565b634e487b7160e01b600052603260045260246000fd5b6020808252825182820181905260009190848201906040850190845b81811015620011675783516001600160a01b03168352928401929184019160010162001140565b50909695505050505050565b600060208083850312156200118757600080fd5b82516001600160401b03808211156200119f57600080fd5b818501915085601f830112620011b457600080fd5b815181811115620011c957620011c962000cca565b8060051b9150620011dc84830162000d0c565b8181529183018401918481019088841115620011f757600080fd5b938501935b838510156200121757845182529385019390850190620011fc565b98975050505050505050565b6001600160a01b0392831681529116602082015260400190565b6000602082840312156200125057600080fd5b5051919050565b6000602082840312156200126a57600080fd5b815160ff8116811462000aac57600080fd5b6000602082840312156200128f57600080fd5b8151801515811462000aac57600080fd5b60008251620012b481846020870162000d5c565b9190910192915050565b6020815260008251806020840152620012df81604085016020870162000d5c565b601f01601f19169190910160400192915050565b600181811c908216806200130857607f821691505b602082108114156200132a57634e487b7160e01b600052602260045260246000fd5b50919050565b614e9e80620013406000396000f3fe60806040526004361061025e5760003560e01c806306fdde031461026a5780630c021ae5146102955780630d55046c146102b85780630e962f00146102df57806314b0750b146102f55780631585e0b61461031757806318160ddd146103375780631f6406671461034c578063313ce56714610361578063358d6a041461038857806338bea4cb1461039d5780633af9e669146103b25780633bf295cc146103d25780633d68175c146103e75780633dcf1342146103fc5780633dfe9f6a1461041c5780634880f9511461029557806354fd4d501461044a5780635fe3b5671461045f57806366be952d146104745780636817031b1461048a5780636f307dc3146104aa578063711326ce146104bf578063715018a6146104df5780637da64483146104f45780637dc0d1d01461051e5780637ffe28e314610533578063852a12e31461054857806386aceac7146105685780638da5cb5b1461057e57806395d89b411461059357806397b3fcaa146105a8578063a0712d68146105ea578063a126d6011461060a578063a52602b91461062a578063a5e90eee1461063f578063a8aa1b311461065f578063ac784ddc14610674578063b580a12814610688578063c2946e241461069d578063cb50087f146106b2578063cd377c53146106d2578063d539fe4b146106e7578063de747e5a146106fc578063f1a392da1461071c578063f20aea0f14610732578063f2fde38b14610760578063f3ae241514610780578063f4993018146107b9578063f9e40ac4146107d9578063fbfa77cf146107fc578063fd6bac7014610811578063fec18b3a1461082657600080fd5b3661026557005b600080fd5b34801561027657600080fd5b5061027f61083b565b60405161028c9190614663565b60405180910390f35b3480156102a157600080fd5b506102aa6108c9565b60405190815260200161028c565b3480156102c457600080fd5b506018546001600160a01b03165b60405161028c9190614676565b3480156102eb57600080fd5b506102aa60095481565b34801561030157600080fd5b5061031561031036600461468a565b6108de565b005b34801561032357600080fd5b5061031561033236600461468a565b610952565b34801561034357600080fd5b506005546102aa565b34801561035857600080fd5b506103156109bc565b34801561036d57600080fd5b50610376610a25565b60405160ff909116815260200161028c565b34801561039457600080fd5b506102aa610a98565b3480156103a957600080fd5b506102d2610abd565b3480156103be57600080fd5b506102aa6103cd3660046146b8565b610acc565b3480156103de57600080fd5b506102aa610adc565b3480156103f357600080fd5b506102aa610b5a565b34801561040857600080fd5b50610315610417366004614719565b610b9a565b34801561042857600080fd5b50600e546104379061ffff1681565b60405161ffff909116815260200161028c565b34801561045657600080fd5b506102aa600181565b34801561046b57600080fd5b506102d2610d08565b34801561048057600080fd5b506102aa600c5481565b34801561049657600080fd5b506103156104a53660046146b8565b610d17565b3480156104b657600080fd5b506102d2610d90565b3480156104cb57600080fd5b506103156104da36600461468a565b610d9f565b3480156104eb57600080fd5b50610315610e91565b34801561050057600080fd5b5060025461050e9060ff1681565b604051901515815260200161028c565b34801561052a57600080fd5b506102d2610eca565b34801561053f57600080fd5b50610315610ed9565b34801561055457600080fd5b506102aa61056336600461468a565b610f5b565b34801561057457600080fd5b506102aa600d5481565b34801561058a57600080fd5b506102d2610fc2565b34801561059f57600080fd5b5061027f610fd1565b3480156105b457600080fd5b506105bd610fde565b604080519687526020870195909552938501929092526060840152608083015260a082015260c00161028c565b3480156105f657600080fd5b506102aa61060536600461468a565b611167565b34801561061657600080fd5b5061031561062536600461468a565b6111c0565b34801561063657600080fd5b506102d2611256565b34801561064b57600080fd5b5061031561065a36600461477b565b611265565b34801561066b57600080fd5b506102d26112f3565b34801561068057600080fd5b50600061050e565b34801561069457600080fd5b506102aa611302565b3480156106a957600080fd5b506102aa611405565b3480156106be57600080fd5b506103156106cd36600461468a565b61146f565b3480156106de57600080fd5b506102aa6114fb565b3480156106f357600080fd5b506010546102aa565b34801561070857600080fd5b506103156107173660046147b4565b61152b565b34801561072857600080fd5b506102aa60035481565b34801561073e57600080fd5b5061075261074d3660046147d8565b61159e565b60405161028c92919061487e565b34801561076c57600080fd5b5061031561077b3660046146b8565b611744565b34801561078c57600080fd5b5061050e61079b3660046146b8565b6001600160a01b031660009081526008602052604090205460ff1690565b3480156107c557600080fd5b506103156107d436600461468a565b6117e4565b3480156107e557600080fd5b506107ee611995565b60405161028c9291906148ac565b34801561080857600080fd5b506102d26119cc565b34801561081d57600080fd5b506102d26119db565b34801561083257600080fd5b506102d26119ea565b60068054610848906148ba565b80601f0160208091040260200160405190810160405280929190818152602001828054610874906148ba565b80156108c15780601f10610896576101008083540402835291602001916108c1565b820191906000526020600020905b8154815290600101906020018083116108a457829003601f168201915b505050505081565b60006108d3610fde565b509395945050505050565b336108e7610fc2565b6001600160a01b0316146109165760405162461bcd60e51b815260040161090d906148ef565b60405180910390fd5b60108190556040518181527f4812bd1abd1ad4ea905335e3af941ec67d6d51ecb36ab58f23af0af081aac57b906020015b60405180910390a150565b3361095b610fc2565b6001600160a01b0316146109815760405162461bcd60e51b815260040161090d906148ef565b600d8190556040518181527f5ceaf8b7b0d35f85ef4df565057cd318e70d9f8681f89425a2d5e09c1c70a7f990602001610947565b60055490565b6109c4610fc2565b6001600160a01b0316336001600160a01b031614806109f757503360009081526008602052604090205460ff1615156001145b610a135760405162461bcd60e51b815260040161090d90614924565b610a23610a1e611b4d565b611bcf565b565b600a546040805163313ce56760e01b815290516000926001600160a01b03169163313ce5679160048083019260209291908290030181865afa158015610a6f573d6000803e3d6000fd5b505050506040513d601f19601f82011682018060405250810190610a93919061494c565b905090565b6000610a93600f54610ab8610ab3610aae611c37565b611ca2565b611dae565b611ddc565b600b546001600160a01b031690565b6000610ad66108c9565b92915050565b600080610aea610aae611df2565b905080610b015768056bc75e2d6310000091505090565b6000610b0b611e44565b90506000610b17611f39565b610b2984670de0b6b3a7640000614985565b610b3391906149a4565b905080610b4883670de0b6b3a7640000614985565b610b5291906149a4565b935050505090565b600080610b656108c9565b905060055460001415610b7a57505060095490565b600554600954610b8a9083614985565b610b9491906149a4565b91505090565b610ba26119cc565b6001600160a01b0316336001600160a01b031614610bd25760405162461bcd60e51b815260040161090d906149c6565b60005b81811015610ca8576000838383818110610bf157610bf16149f1565b9050602002016020810190610c0691906146b8565b90506000816001600160a01b03166370a08231306040518263ffffffff1660e01b8152600401610c369190614676565b602060405180830381865afa158015610c53573d6000803e3d6000fd5b505050506040513d601f19601f82011682018060405250810190610c779190614a07565b90508015610c9357610c936001600160a01b0383168783611fbf565b50508080610ca090614a20565b915050610bd5565b504715610cc057610cc0610cba6119cc565b47611fde565b826001600160a01b03167f2b06144d62a3a5785ec284ed392b3d106610ae2ce7af270417c4ca38277571048383604051610cfb929190614a3b565b60405180910390a2505050565b6013546001600160a01b031690565b33610d20610fc2565b6001600160a01b031614610d465760405162461bcd60e51b815260040161090d906148ef565b600480546001600160a01b0319166001600160a01b0383169081179091556040517fdabed91cf547ed2ee836d5787bae42fc3bca488166c65791051105490fbcf7ca90600090a250565b600a546001600160a01b031690565b610da7610fc2565b6001600160a01b0316336001600160a01b03161480610dda57503360009081526008602052604090205460ff1615156001145b610df65760405162461bcd60e51b815260040161090d90614924565b610dfe610fc2565b6001600160a01b0316336001600160a01b03161480610e1f57508061012c10155b610e5c5760405162461bcd60e51b815260206004820152600e60248201526d484c503a20544f4f204c4152474560901b604482015260640161090d565b600c8190556040518181527f3e87fa3180c1babd204ce79375729d7a6694a2d2f0fb3e250f9138488ed066bb90602001610947565b33610e9a610fc2565b6001600160a01b031614610ec05760405162461bcd60e51b815260040161090d906148ef565b610a23600061202f565b6014546001600160a01b031690565b60026001541415610efc5760405162461bcd60e51b815260040161090d90614a89565b60026001556000610f0b610adc565b9050600d54811115610f4b5760405162461bcd60e51b8152602060048201526009602482015268484c503a205341464560b81b604482015260640161090d565b610f548161207f565b5060018055565b6000610f656119cc565b6001600160a01b0316336001600160a01b031614610f955760405162461bcd60e51b815260040161090d906149c6565b6000610fa08361219f565b90508060056000828254610fb49190614ac0565b909155506000949350505050565b6000546001600160a01b031690565b60078054610848906148ba565b600080600080600080610fef611e44565b9450610ff9611df2565b93506110048461236a565b600b546040516370a0823160e01b81529194506000916001600160a01b03909116906370a082319061103a903090600401614676565b602060405180830381865afa158015611057573d6000803e3d6000fd5b505050506040513d601f19601f8201168201806040525081019061107b9190614a07565b9050600081156110935761108e8261236a565b611096565b60005b90506000806110a361239d565b915091506110b08161236a565b6110ba9083614ad7565b600a546040516370a0823160e01b81529197506001600160a01b0316906370a08231906110eb903090600401614676565b602060405180830381865afa158015611108573d6000803e3d6000fd5b505050506040513d601f19601f8201168201806040525081019061112c9190614a07565b945082858861113b898d614ad7565b6111459190614ac0565b61114f9190614ad7565b6111599190614ad7565b995050505050909192939495565b60006111716119cc565b6001600160a01b0316336001600160a01b0316146111a15760405162461bcd60e51b815260040161090d906149c6565b60006111ac8361245e565b90508060056000828254610fb49190614ad7565b80806111cb5750600c545b806111d4611405565b11156111f25760405162461bcd60e51b815260040161090d90614aef565b6111fa610fc2565b6001600160a01b0316336001600160a01b0316148061122d57503360009081526008602052604090205460ff1615156001145b6112495760405162461bcd60e51b815260040161090d90614924565b61125161261b565b505050565b6011546001600160a01b031690565b3361126e610fc2565b6001600160a01b0316146112945760405162461bcd60e51b815260040161090d906148ef565b6001600160a01b038216600081815260086020908152604091829020805460ff191685151590811790915591519182527f2458f684567d238b66deaa0126265bf3becabda0caaab7ebdda6b1794614a2d3910160405180910390a25050565b601a546001600160a01b031690565b60008061130d61239d565b915050600061131a611df2565b600b546040516370a0823160e01b81529192506000916001600160a01b03909116906370a0823190611350903090600401614676565b602060405180830381865afa15801561136d573d6000803e3d6000fd5b505050506040513d601f19601f820116820180604052508101906113919190614a07565b61139b9084614ad7565b9050818114156113af576000935050505090565b816113bf57612710935050505090565b8181116113ed57816127106113d48383614ac0565b6113de9190614985565b6113e891906149a4565b610b52565b816127106113fb8284614ac0565b610b489190614985565b600080611419670de0b6b3a764000061236a565b9050600061142e670de0b6b3a7640000611ca2565b905081811161143e578082611441565b81815b9092509050806127106114548483614ac0565b61145e9190614985565b61146891906149a4565b9250505090565b611477610fc2565b6001600160a01b0316336001600160a01b031614806114aa57503360009081526008602052604090205460ff1615156001145b6114c65760405162461bcd60e51b815260040161090d90614924565b600f8190556040518181527f13d3e08a22782064d3062f92ff1101a623b60e3bf91f236b5d1e9fdddfc12a1290602001610947565b6000670de0b6b3a764000061150f60105490565b611517611f39565b6115219190614985565b610a9391906149a4565b33611534610fc2565b6001600160a01b03161461155a5760405162461bcd60e51b815260040161090d906148ef565b600e805461ffff191661ffff83169081179091556040519081527f36c98a54ec4f90fe58a67bf25cfc1691dbd53639eee3513536d83e8d34fb0a9b90602001610947565b6060806115a9610fc2565b6001600160a01b0316336001600160a01b031614806115dc57503360009081526008602052604090205460ff1615156001145b6115f85760405162461bcd60e51b815260040161090d90614924565b600c5480611604611405565b11156116225760405162461bcd60e51b815260040161090d90614aef565b600260015414156116455760405162461bcd60e51b815260040161090d90614a89565b60026001556000611654610fde565b5093945050891592506116719150505761166e8888612834565b93505b8415611684576116818686612ae6565b92505b61170061168f610d90565b6001600160a01b03166370a08231306040518263ffffffff1660e01b81526004016116ba9190614676565b602060405180830381865afa1580156116d7573d6000803e3d6000fd5b505050506040513d601f19601f820116820180604052508101906116fb9190614a07565b612de6565b6040518181527f80f97f878e16410266694f134ddf012f2be424f54f8b5cafa107eccc51d00d589060200160405180910390a1505060018055909590945092505050565b3361174d610fc2565b6001600160a01b0316146117735760405162461bcd60e51b815260040161090d906148ef565b6001600160a01b0381166117d85760405162461bcd60e51b815260206004820152602660248201527f4f776e61626c653a206e6577206f776e657220697320746865207a65726f206160448201526564647265737360d01b606482015260840161090d565b6117e18161202f565b50565b6117ec610fc2565b6001600160a01b0316336001600160a01b0316148061181f57503360009081526008602052604090205460ff1615156001145b61183b5760405162461bcd60e51b815260040161090d90614924565b80806118465750600c545b8061184f611405565b111561186d5760405162461bcd60e51b815260040161090d90614aef565b600260015414156118905760405162461bcd60e51b815260040161090d90614a89565b6002600155600061189f612e45565b905060006118ab611302565b600e5490915061ffff1681116118f55760405162461bcd60e51b815260206004820152600f60248201526e09098a07440a48a845aa890a48aa69608b1b604482015260640161090d565b8161190157505061198d565b600061190c83612fc3565b90506119396103e8611920836103e7614985565b61192a91906149a4565b6119348386614ac0565b612fe6565b7fe0b4077da7dfa5015ff10fab6a214f37acc1b23d745f30336942d17e07848c6b61196b670de0b6b3a764000061236a565b6040805191825260208201859052810185905260600160405180910390a15050505b505060018055565b6000806119c36119a3610d90565b6119ab610abd565b6119b36112f3565b6001600160a01b0316919061310a565b90939092509050565b6004546001600160a01b031690565b6012546001600160a01b031690565b6015546001600160a01b031690565b801580611a735750604051636eb1769f60e11b81523060048201526001600160a01b03838116602483015284169063dd62ed3e90604401602060405180830381865afa158015611a4d573d6000803e3d6000fd5b505050506040513d601f19601f82011682018060405250810190611a719190614a07565b155b611ade5760405162461bcd60e51b815260206004820152603660248201527f5361666545524332303a20617070726f76652066726f6d206e6f6e2d7a65726f60448201527520746f206e6f6e2d7a65726f20616c6c6f77616e636560501b606482015260840161090d565b6112518363095ea7b360e01b8484604051602401611afd929190614b1c565b60408051601f198184030181529190526020810180516001600160e01b03166001600160e01b0319909316929092179091526131ca565b6060611b43848460008561329c565b90505b9392505050565b601754601b546040516393f1a40b60e01b8152600481019190915230602482015260009182916001600160a01b03909116906393f1a40b906044016040805180830381865afa158015611ba4573d6000803e3d6000fd5b505050506040513d601f19601f82011682018060405250810190611bc89190614b35565b5092915050565b601754601b54604051630441a3e760e41b81526001600160a01b039092169163441a3e7091611c029185906004016148ac565b600060405180830381600087803b158015611c1c57600080fd5b505af1158015611c30573d6000803e3d6000fd5b5050505050565b6000611c416119db565b6001600160a01b0316633b1d21a26040518163ffffffff1660e01b8152600401602060405180830381865afa158015611c7e573d6000803e3d6000fd5b505050506040513d601f19601f82011682018060405250810190610a939190614a07565b6000611cac610eca565b6001600160a01b031663fc57d4df611cc2611256565b6040518263ffffffff1660e01b8152600401611cde9190614676565b602060405180830381865afa158015611cfb573d6000803e3d6000fd5b505050506040513d601f19601f82011682018060405250810190611d1f9190614a07565b611d27610eca565b6001600160a01b031663fc57d4df611d3d6119db565b6040518263ffffffff1660e01b8152600401611d599190614676565b602060405180830381865afa158015611d76573d6000803e3d6000fd5b505050506040513d601f19601f82011682018060405250810190611d9a9190614a07565b611da49084614985565b610ad691906149a4565b600080611db96114fb565b905080611dc881612710614ad7565b611dd29085614985565b611b4691906149a4565b6000818310611deb5781611b46565b5090919050565b6000611dfc6119db565b6001600160a01b03166395dd9193306040518263ffffffff1660e01b8152600401611e279190614676565b602060405180830381865afa158015611c7e573d6000803e3d6000fd5b600080611e4f611256565b6001600160a01b03166370a08231306040518263ffffffff1660e01b8152600401611e7a9190614676565b602060405180830381865afa158015611e97573d6000803e3d6000fd5b505050506040513d601f19601f82011682018060405250810190611ebb9190614a07565b9050670de0b6b3a7640000611ece611256565b6001600160a01b031663182df0f56040518163ffffffff1660e01b8152600401602060405180830381865afa158015611f0b573d6000803e3d6000fd5b505050506040513d601f19601f82011682018060405250810190611f2f9190614a07565b610b8a9083614985565b600080611f44610d08565b6001600160a01b0316638e8f294b611f5a611256565b6040518263ffffffff1660e01b8152600401611f769190614676565b606060405180830381865afa158015611f93573d6000803e3d6000fd5b505050506040513d601f19601f82011682018060405250810190611fb79190614b59565b509392505050565b6112518363a9059cbb60e01b8484604051602401611afd929190614b1c565b600080600080600085875af19050806112515760405162461bcd60e51b815260206004820152601360248201527211551217d514905394d1915497d19052531151606a1b604482015260640161090d565b600080546001600160a01b038381166001600160a01b0319831681178455604051919092169283917f8be0079c531659141344cd1fd0a4f28419497f9722a3daafe3b4186f6b6457e09190a35050565b600061208961239d565b5090506000612096611e44565b9050600060105469021e19e0c9bab24000006120b291906149a4565b905060006120be611f39565b6120d083670de0b6b3a7640000614985565b6120da91906149a4565b6120ec90670de0b6b3a7640000614ad7565b83866120f88583614985565b61210291906149a4565b61210c9190614ac0565b61211e90670de0b6b3a7640000614985565b61212891906149a4565b905060008061213f61213a8488614ac0565b6133c4565b9150915061214c816134cd565b61215582613584565b337fdacd0a02d11128b25d6c3de23e91f71aa9dd5620c6f5c69f35a18d15e116846888612180610adc565b60405161218e9291906148ac565b60405180910390a250505050505050565b6000600c54806121ad611405565b11156121cb5760405162461bcd60e51b815260040161090d90614aef565b600260015414156121ee5760405162461bcd60e51b815260040161090d90614a89565b6002600155826122015760009150612360565b600061220b612e45565b90508061221c576000925050612360565b600a546040516370a0823160e01b81526000916001600160a01b0316906370a082319061224d903090600401614676565b602060405180830381865afa15801561226a573d6000803e3d6000fd5b505050506040513d601f19601f8201168201806040525081019061228e9190614a07565b9050808511156122bb576122ac6122a58287614ac0565b82846135b9565b90506122b88186611ddc565b94505b6122c3610fde565b5093955061230293508592506122db91506109b69050565b6122e6886001614ad7565b6122f09190614985565b6122fa91906149a4565b600554611ddc565b9350612324306123106119cc565b600a546001600160a01b03169190886136ba565b7f884edad9ce6fa2440d8a54cc123490eb96d2768479d49ff9c7366125a94243643386604051612355929190614b1c565b60405180910390a150505b5060018055919050565b6000811561239557600b54600a546123909184916001600160a01b0391821691166136db565b610ad6565b600092915050565b60008060006123aa613713565b90506000806123b7611995565b9150915060006123c56112f3565b6001600160a01b03166318160ddd6040518163ffffffff1660e01b8152600401602060405180830381865afa158015612402573d6000803e3d6000fd5b505050506040513d601f19601f820116820180604052508101906124269190614a07565b9050806124338585614985565b61243d91906149a4565b95508061244a8584614985565b61245491906149a4565b9450505050509091565b6000600c548061246c611405565b111561248a5760405162461bcd60e51b815260040161090d90614aef565b600260015414156124ad5760405162461bcd60e51b815260040161090d90614a89565b6002600155826124c05760009150612360565b60006124ca612e45565b90506124d4610a98565b6124de8286614ad7565b11156125205760405162461bcd60e51b81526020600482015260116024820152701213140e8813d5915497d3505617d51593607a1b604482015260640161090d565b6005541561254c57808461253360055490565b61253d9190614985565b61254791906149a4565b61254e565b835b600a549093506001600160a01b03166323b872dd61256a6119cc565b30876040518463ffffffff1660e01b815260040161258a93929190614b9c565b6020604051808303816000875af11580156125a9573d6000803e3d6000fd5b505050506040513d601f19601f820116820180604052508101906125cd9190614bc0565b506125d784612de6565b7fe1fffcc4923d04b559f4d29a8bfc6cda04eb5b0d3c460751c2402c5c5cc9109c3385604051612608929190614b1c565b60405180910390a1505060018055919050565b600061262760006133c4565b505060006126336137a1565b600b546040516370a0823160e01b81529192506000916001600160a01b03909116906370a0823190612669903090600401614676565b602060405180830381865afa158015612686573d6000803e3d6000fd5b505050506040513d601f19601f820116820180604052508101906126aa9190614a07565b9050808211156126f3576126ed6126c18284614ac0565b600a54600b546001600160a01b0391821691166126dc6112f3565b6001600160a01b03169291906137f5565b50612736565b81811115612736576127346127088383614ac0565b600b54600a546001600160a01b0391821691166127236112f3565b6001600160a01b03169291906138d4565b505b600b546040516370a0823160e01b81526127ae916001600160a01b0316906370a0823190612768903090600401614676565b602060405180830381865afa158015612785573d6000803e3d6000fd5b505050506040513d601f19601f820116820180604052508101906127a99190614a07565b6134cd565b60006127b8613935565b90506127c38161396a565b600a546040516370a0823160e01b81526001600160a01b03909116906370a08231906127f3903090600401614676565b602060405180830381865afa158015612810573d6000803e3d6000fd5b505050506040513d601f19601f82011682018060405250810190610b529190614a07565b601754601b54604051631c57762b60e31b8152606092839283926001600160a01b039092169163e2bbb1589161286f916000906004016148ac565b600060405180830381600087803b15801561288957600080fd5b505af115801561289d573d6000803e3d6000fd5b50600192506128aa915050565b6040519080825280602002602001820160405280156128d3578160200160208202803683370190505b506019546040516370a0823160e01b81529194506001600160a01b0316906370a0823190612905903090600401614676565b602060405180830381865afa158015612922573d6000803e3d6000fd5b505050506040513d601f19601f820116820180604052508101906129469190614a07565b83600081518110612959576129596149f1565b60200260200101818152505082600081518110612978576129786149f1565b60200260200101516000141561298f575050610ad6565b6018546129f1906001600160a01b031686866000816129b0576129b06149f1565b90506020028101906129c29190614bf3565b60195486516001600160a01b039091169087906000906129e4576129e46149f1565b60200260200101516139e4565b60195483516001600160a01b0390911690600080516020614e49833981519152908590600090612a2357612a236149f1565b6020026020010151604051612a3a91815260200190565b60405180910390a2478015612add57612a51610abd565b6001600160a01b031663d0e30db0826040518263ffffffff1660e01b81526004016000604051808303818588803b158015612a8b57600080fd5b505af1158015612a9f573d6000803e3d6000fd5b5050505050612aac610abd565b6001600160a01b0316600080516020614e4983398151915282604051612ad491815260200190565b60405180910390a25b50505092915050565b6060612af0610d08565b6001600160a01b0316630952c5636000306040518363ffffffff1660e01b8152600401612b1e929190614c13565b600060405180830381600087803b158015612b3857600080fd5b505af1158015612b4c573d6000803e3d6000fd5b5060019250612b59915050565b604051908082528060200260200182016040528015612b82578160200160208202803683370190505b506016546040516370a0823160e01b81529192506001600160a01b0316906370a0823190612bb4903090600401614676565b602060405180830381865afa158015612bd1573d6000803e3d6000fd5b505050506040513d601f19601f82011682018060405250810190612bf59190614a07565b81600081518110612c0857612c086149f1565b602002602001018181525050600081600081518110612c2957612c296149f1565b60200260200101511115612cdb57612c89612c426119ea565b84846000818110612c5557612c556149f1565b9050602002810190612c679190614bf3565b60165484516001600160a01b039091169085906000906129e4576129e46149f1565b60165481516001600160a01b0390911690600080516020614e49833981519152908390600090612cbb57612cbb6149f1565b6020026020010151604051612cd291815260200190565b60405180910390a25b612ce3610d08565b6001600160a01b0316630952c5636001306040518363ffffffff1660e01b8152600401612d11929190614c13565b600060405180830381600087803b158015612d2b57600080fd5b505af1158015612d3f573d6000803e3d6000fd5b504792505081159050611bc857612d54610abd565b6001600160a01b031663d0e30db0826040518263ffffffff1660e01b81526004016000604051808303818588803b158015612d8e57600080fd5b505af1158015612da2573d6000803e3d6000fd5b5050505050612daf610abd565b6001600160a01b0316600080516020614e4983398151915282604051612dd791815260200190565b60405180910390a25092915050565b6103e8811015612df35750565b6000612dfe82612fc3565b90506000612e0b82613b91565b9050612e1f612e1a8385614ac0565b613584565b612e2881613bb7565b6000612e348383613c86565b9050612e3f81613d36565b50505050565b600080612e50613935565b90506000612e5c6137a1565b90506000612e698261236a565b600b546040516370a0823160e01b81529192506000916001600160a01b03909116906370a0823190612e9f903090600401614676565b602060405180830381865afa158015612ebc573d6000803e3d6000fd5b505050506040513d601f19601f82011682018060405250810190612ee09190614a07565b905060008115612ef857612ef38261236a565b612efb565b60005b90506000612f0761239d565b50600a546040516370a0823160e01b81529192506000916001600160a01b03909116906370a0823190612f3e903090600401614676565b602060405180830381865afa158015612f5b573d6000803e3d6000fd5b505050506040513d601f19601f82011682018060405250810190612f7f9190614a07565b9050828186612f8f856002614985565b612f99908b614ad7565b612fa39190614ac0565b612fad9190614ad7565b612fb79190614ad7565b97505050505050505090565b600080612fce6114fb565b9050612fdc81612710614ad7565b611dd28285614985565b6000612ff183613b91565b90506000612ffd611df2565b90508082111561304d5761302860006130168686613d69565b1161302157846133c4565b60006133c4565b505061303383613ddd565b5061304890506130438284614ac0565b613bb7565b613101565b808210156131015761305f60006133c4565b5050600b546040516370a0823160e01b81526000916130e3916001600160a01b03909116906370a0823190613098903090600401614676565b602060405180830381865afa1580156130b5573d6000803e3d6000fd5b505050506040513d601f19601f820116820180604052508101906130d99190614a07565b610ab88585614ac0565b905080156130f4576130f4816134cd565b6130fd84613ddd565b5050505b612e3f82613e3a565b6000806000613119858561403b565b509050600080876001600160a01b0316630902f1ac6040518163ffffffff1660e01b8152600401606060405180830381865afa15801561315d573d6000803e3d6000fd5b505050506040513d601f19601f820116820180604052508101906131819190614c4b565b506001600160701b031691506001600160701b03169150826001600160a01b0316876001600160a01b0316146131b85780826131bb565b81815b90999098509650505050505050565b600061321f826040518060400160405280602081526020017f5361666545524332303a206c6f772d6c6576656c2063616c6c206661696c6564815250856001600160a01b0316611b349092919063ffffffff16565b805190915015611251578080602001905181019061323d9190614bc0565b6112515760405162461bcd60e51b815260206004820152602a60248201527f5361666545524332303a204552433230206f7065726174696f6e20646964206e6044820152691bdd081cdd58d8d9595960b21b606482015260840161090d565b6060824710156132fd5760405162461bcd60e51b815260206004820152602660248201527f416464726573733a20696e73756666696369656e742062616c616e636520666f6044820152651c8818d85b1b60d21b606482015260840161090d565b843b61334b5760405162461bcd60e51b815260206004820152601d60248201527f416464726573733a2063616c6c20746f206e6f6e2d636f6e7472616374000000604482015260640161090d565b600080866001600160a01b031685876040516133679190614c90565b60006040518083038185875af1925050503d80600081146133a4576040519150601f19603f3d011682016040523d82523d6000602084013e6133a9565b606091505b50915091506133b982828661411e565b979650505050505050565b60008060006133d161239d565b5090508084106133e75750600093849350915050565b60006133f1613713565b90506000826134008784614985565b61340a91906149a4565b905060006134188284614ac0565b905060006134246112f3565b6001600160a01b03166370a08231306040518263ffffffff1660e01b815260040161344f9190614676565b602060405180830381865afa15801561346c573d6000803e3d6000fd5b505050506040513d601f19601f820116820180604052508101906134909190614a07565b9050808211156134a7576134a7610a1e8284614ac0565b81156134bb576134b682614157565b6134bf565b6000805b965096505050505050915091565b6134d5610abd565b6001600160a01b0316632e1a7d4d826040518263ffffffff1660e01b815260040161350291815260200190565b600060405180830381600087803b15801561351c57600080fd5b505af1158015613530573d6000803e3d6000fd5b505050506117e18161423d565b6020604051808303816000875af115801561355c573d6000803e3d6000fd5b505050506040513d601f19601f820116820180604052508101906135809190614a07565b5050565b61358c611256565b6001600160a01b031663a0712d68826040518263ffffffff1660e01b815260040161353d91815260200190565b6000806103e86135cb866103ed614985565b6135d591906149a4565b905060006135e161239d565b5090506000846135f18385614985565b6135fb91906149a4565b90506000613607611df2565b9050600061361483613b91565b905083831015806136255750818110155b1561363e5761363261261b565b95505050505050611b46565b60008061364e61213a8688614ac0565b9150915061365b816134cd565b818b111561368257613675613670838d614ac0565b61427f565b61367f9083614ad7565b91505b600061368c610adc565b9050600d5481116136a0576136a08161207f565b6136aa8b84614ad7565b9c9b505050505050505050505050565b612e3f846323b872dd60e01b858585604051602401611afd93929190614b9c565b6000836136ea57506000611b46565b6000806136fa85856119b36112f3565b915091506137098683836142b2565b9695505050505050565b60008061371e611b4d565b601a546040516370a0823160e01b81529192506000916001600160a01b03909116906370a0823190613754903090600401614676565b602060405180830381865afa158015613771573d6000803e3d6000fd5b505050506040513d601f19601f820116820180604052508101906137959190614a07565b90506114688183614ad7565b60006137ab6119db565b6001600160a01b03166317bfdfbc306040518263ffffffff1660e01b81526004016137d69190614676565b6020604051808303816000875af1158015611c7e573d6000803e3d6000fd5b60008061380486868686614374565b90506000613812848661403b565b509050600080826001600160a01b0316876001600160a01b0316146138395787600061383d565b6000885b90925090506138566001600160a01b0388168a86611fbf565b6040805160008152602081019182905263022c0d9f60e01b9091526001600160a01b038a169063022c0d9f906138959085908590309060248101614ca2565b600060405180830381600087803b1580156138af57600080fd5b505af11580156138c3573d6000803e3d6000fd5b50959b9a5050505050505050505050565b6000806138e38686868661443a565b905060006138f1848661403b565b509050600080826001600160a01b0316876001600160a01b0316146139185783600061391c565b6000845b90925090506138566001600160a01b0388168a8a611fbf565b600061393f611256565b6001600160a01b0316633af9e669306040518263ffffffff1660e01b81526004016137d69190614676565b6000613974611256565b6001600160a01b031663852a12e3836040518263ffffffff1660e01b81526004016139a191815260200190565b6020604051808303816000875af11580156139c0573d6000803e3d6000fd5b505050506040513d601f19601f820116820180604052508101906112519190614a07565b60006139f08480614ccf565b60016139fc8780614ccf565b613a07929150614ac0565b818110613a1657613a166149f1565b9050602002016020810190613a2b91906146b8565b90506001600160a01b038316613a418580614ccf565b6000818110613a5257613a526149f1565b9050602002016020810190613a6791906146b8565b6001600160a01b0316148015613a955750613a80610abd565b6001600160a01b0316816001600160a01b0316145b80613ab85750613aa3610d90565b6001600160a01b0316816001600160a01b0316145b613afc5760405162461bcd60e51b81526020600482015260156024820152740928cc2e4dac2c4d8ca7440aea49e9c8ebea082a89605b1b604482015260640161090d565b6001600160a01b0385166338ed1739836020870135613b1b8880614ccf565b308a604001356040518763ffffffff1660e01b8152600401613b4296959493929190614d18565b6000604051808303816000875af1158015613b61573d6000803e3d6000fd5b505050506040513d6000823e601f3d908101601f19168201604052613b899190810190614d8b565b505050505050565b6000811561239557600a54600b546123909184916001600160a01b0391821691166136db565b613bbf6119db565b6001600160a01b031663c5ebeaec826040518263ffffffff1660e01b8152600401613bec91815260200190565b6020604051808303816000875af1158015613c0b573d6000803e3d6000fd5b505050506040513d601f19601f82011682018060405250810190613c2f9190614a07565b50613c38610abd565b6001600160a01b031663d0e30db0826040518263ffffffff1660e01b81526004016000604051808303818588803b158015613c7257600080fd5b505af1158015613b89573d6000803e3d6000fd5b6000613cac613c936112f3565b84613c9c610d90565b6001600160a01b03169190611fbf565b613cc0613cb76112f3565b83613c9c610abd565b613cc86112f3565b6001600160a01b0316636a627842306040518263ffffffff1660e01b8152600401613cf39190614676565b6020604051808303816000875af1158015613d12573d6000803e3d6000fd5b505050506040513d601f19601f82011682018060405250810190611b469190614a07565b601754601b54604051631c57762b60e31b81526001600160a01b039092169163e2bbb15891611c029185906004016148ac565b600080613d74611e44565b905080831015613d88576000915050610ad6565b6000613d9261239d565b5090506000818611613da5576000613daf565b613daf8287614ac0565b90506000613dbd8487614ac0565b9050808210613dd3576000945050505050610ad6565b6133b98282614ac0565b6000806000613dea611e44565b905083811415613e005750600093849350915050565b838111613e2057613e19613e148286614ac0565b6144fb565b6000613e2f565b6000613e2f6136708684614ac0565b909590945092505050565b600a546040516370a0823160e01b81526000916001600160a01b0316906370a0823190613e6b903090600401614676565b602060405180830381865afa158015613e88573d6000803e3d6000fd5b505050506040513d601f19601f82011682018060405250810190613eac9190614a07565b600b546040516370a0823160e01b81529192506000916001600160a01b03909116906370a0823190613ee2903090600401614676565b602060405180830381865afa158015613eff573d6000803e3d6000fd5b505050506040513d601f19601f82011682018060405250810190613f239190614a07565b90506000613f2f61239d565b91505080841015613f405750505050565b6000613f6e6002613f5086613b91565b613f5a9086614ad7565b613f6491906149a4565b610ab88488614ac0565b90506000613f7b8261236a565b905084811015613fc157613fad613f928287614ac0565b600a54600b546001600160a01b0391821691166127236112f3565b613fb79085614ad7565b9350809450613fe6565b81841115613fe657613fd66127088386614ac0565b613fe09086614ad7565b94508193505b836000613ff28261236a565b90508087101561400a57508561400781613b91565b91505b80614019575050505050505050565b60006140258284613c86565b905061403081613d36565b505050505050505050565b600080826001600160a01b0316846001600160a01b031614156140a05760405162461bcd60e51b815260206004820152601d60248201527f556e695574696c733a204944454e544943414c5f414444524553534553000000604482015260640161090d565b826001600160a01b0316846001600160a01b0316106140c05782846140c3565b83835b90925090506001600160a01b0382166141175760405162461bcd60e51b8152602060048201526016602482015275556e695574696c733a205a45524f5f4144445245535360501b604482015260640161090d565b9250929050565b6060831561412d575081611b46565b82511561413d5782518084602001fd5b8160405162461bcd60e51b815260040161090d9190614663565b60008061416e6141656112f3565b84613c9c6112f3565b600061418861417b610d90565b614183610abd565b61403b565b5090506000806141966112f3565b6001600160a01b03166389afcb44306040518263ffffffff1660e01b81526004016141c19190614676565b60408051808303816000875af11580156141df573d6000803e3d6000fd5b505050506040513d601f19601f820116820180604052508101906142039190614b35565b9150915061420f610d90565b6001600160a01b0316836001600160a01b03161461422e578082614231565b81815b94509450505050915091565b6142456119db565b6001600160a01b0316634e4d9fea826040518263ffffffff1660e01b81526004016000604051808303818588803b158015613c7257600080fd5b60008061428a614594565b9050828111614299578061429b565b825b915081156142ac576142ac8261396a565b50919050565b60008084116143035760405162461bcd60e51b815260206004820152601d60248201527f556e695574696c733a20494e53554646494349454e545f414d4f554e54000000604482015260640161090d565b6000831180156143135750600082115b61435f5760405162461bcd60e51b815260206004820181905260248201527f556e695574696c733a20494e53554646494349454e545f4c4951554944495459604482015260640161090d565b8261436a8386614985565b611b4391906149a4565b60008084116143d15760405162461bcd60e51b8152602060048201526024808201527f556e695574696c733a20494e53554646494349454e545f4f55545055545f414d60448201526313d5539560e21b606482015260840161090d565b6000806143df87868661310a565b909250905060006143f08784614985565b6143fc906103e8614985565b9050600061440a8884614ac0565b614416906103e5614985565b905061442281836149a4565b61442d906001614ad7565b9998505050505050505050565b60008084116144975760405162461bcd60e51b815260206004820152602360248201527f556e695574696c733a20494e53554646494349454e545f494e5055545f414d4f60448201526215539560ea1b606482015260840161090d565b6000806144a587868661310a565b909250905060006144b8876103e5614985565b905060006144c68383614985565b90506000826144d7866103e8614985565b6144e19190614ad7565b90506144ed81836149a4565b9a9950505050505050505050565b600080614506610d90565b6001600160a01b03166370a08231306040518263ffffffff1660e01b81526004016145319190614676565b602060405180830381865afa15801561454e573d6000803e3d6000fd5b505050506040513d601f19601f820116820180604052508101906145729190614a07565b90508281116145815780614583565b825b915081156142ac576142ac82613584565b60008061459f611e44565b905060006145ae610aae611df2565b9050600060636145bc611f39565b6145ce84670de0b6b3a7640000614985565b6145d9906064614985565b6145e391906149a4565b6145ed91906149a4565b905082811115614601576000935050505090565b610b528184614ac0565b60005b8381101561462657818101518382015260200161460e565b83811115612e3f5750506000910152565b6000815180845261464f81602086016020860161460b565b601f01601f19169290920160200192915050565b602081526000611b466020830184614637565b6001600160a01b0391909116815260200190565b60006020828403121561469c57600080fd5b5035919050565b6001600160a01b03811681146117e157600080fd5b6000602082840312156146ca57600080fd5b8135611b46816146a3565b60008083601f8401126146e757600080fd5b5081356001600160401b038111156146fe57600080fd5b6020830191508360208260051b850101111561411757600080fd5b60008060006040848603121561472e57600080fd5b8335614739816146a3565b925060208401356001600160401b0381111561475457600080fd5b614760868287016146d5565b9497909650939450505050565b80151581146117e157600080fd5b6000806040838503121561478e57600080fd5b8235614799816146a3565b915060208301356147a98161476d565b809150509250929050565b6000602082840312156147c657600080fd5b813561ffff81168114611b4657600080fd5b600080600080604085870312156147ee57600080fd5b84356001600160401b038082111561480557600080fd5b614811888389016146d5565b9096509450602087013591508082111561482a57600080fd5b50614837878288016146d5565b95989497509550505050565b600081518084526020808501945080840160005b8381101561487357815187529582019590820190600101614857565b509495945050505050565b6040815260006148916040830185614843565b82810360208401526148a38185614843565b95945050505050565b918252602082015260400190565b600181811c908216806148ce57607f821691505b602082108114156142ac57634e487b7160e01b600052602260045260246000fd5b6020808252818101527f4f776e61626c653a2063616c6c6572206973206e6f7420746865206f776e6572604082015260600190565b6020808252600e908201526d0a6e8e4c2e874409c9ebe82aaa8960931b604082015260600190565b60006020828403121561495e57600080fd5b815160ff81168114611b4657600080fd5b634e487b7160e01b600052601160045260246000fd5b600081600019048311821515161561499f5761499f61496f565b500290565b6000826149c157634e487b7160e01b600052601260045260246000fd5b500490565b60208082526011908201527014dd1c985d0e8813d3931657d590555315607a1b604082015260600190565b634e487b7160e01b600052603260045260246000fd5b600060208284031215614a1957600080fd5b5051919050565b6000600019821415614a3457614a3461496f565b5060010190565b60208082528181018390526000908460408401835b86811015614a7e578235614a63816146a3565b6001600160a01b031682529183019190830190600101614a50565b509695505050505050565b6020808252601f908201527f5265656e7472616e637947756172643a207265656e7472616e742063616c6c00604082015260600190565b600082821015614ad257614ad261496f565b500390565b60008219821115614aea57614aea61496f565b500190565b60208082526013908201527209098a07440a0a492868abe9a92a69a82a8869606b1b604082015260600190565b6001600160a01b03929092168252602082015260400190565b60008060408385031215614b4857600080fd5b505080516020909101519092909150565b600080600060608486031215614b6e57600080fd5b8351614b798161476d565b602085015160408601519194509250614b918161476d565b809150509250925092565b6001600160a01b039384168152919092166020820152604081019190915260600190565b600060208284031215614bd257600080fd5b8151611b468161476d565b634e487b7160e01b600052604160045260246000fd5b60008235605e19833603018112614c0957600080fd5b9190910192915050565b60ff9290921682526001600160a01b0316602082015260400190565b80516001600160701b0381168114614c4657600080fd5b919050565b600080600060608486031215614c6057600080fd5b614c6984614c2f565b9250614c7760208501614c2f565b9150604084015163ffffffff81168114614b9157600080fd5b60008251614c0981846020870161460b565b84815283602082015260018060a01b03831660408201526080606082015260006137096080830184614637565b6000808335601e19843603018112614ce657600080fd5b8301803591506001600160401b03821115614d0057600080fd5b6020019150600581901b360382131561411757600080fd5b868152602080820187905260a0604083018190528201859052600090869060c08401835b88811015614d6a578335614d4f816146a3565b6001600160a01b031682529282019290820190600101614d3c565b506001600160a01b0396909616606085015250505060800152949350505050565b60006020808385031215614d9e57600080fd5b82516001600160401b0380821115614db557600080fd5b818501915085601f830112614dc957600080fd5b815181811115614ddb57614ddb614bdd565b8060051b604051601f19603f83011681018181108582111715614e0057614e00614bdd565b604052918252848201925083810185019188831115614e1e57600080fd5b938501935b82851015614e3c57845184529385019392850192614e23565b9897505050505050505056fe3efad319b6afe1e0317f51df66abdc4d7a7c8b1cfda31f03440b4ad255af7245a264697066735822122098ccd8b4f287f7a23070eeb1027b760723b72686805fe086b8df9c99f77785fb64736f6c634300080a0033",
  "libraries": {
    "UniUtils": "0x92dBEa6fa85A1cd839b604D1F2852ABfb7Fa2897"
  },
  "devdoc": {
    "kind": "dev",
    "methods": {
      "getMaxTvl()": {
        "returns": {
          "_0": "MaxTvl"
        }
      },
      "isCEther()": {
        "details": "Only present in Fuse cTokens, not Compound cTokens.",
        "returns": {
          "_0": "True if the strategy accepts ETH, false otherwise."
        }
      },
      "owner()": {
        "details": "Returns the address of the current owner."
      },
      "redeemUnderlying(uint256)": {
        "params": {
          "amount": "The amount of underlying tokens to withdraw."
        },
        "returns": {
          "errCode": "An error code, or 0 if the withdrawal was successful."
        }
      },
      "renounceOwnership()": {
        "details": "Leaves the contract without owner. It will not be possible to call `onlyOwner` functions anymore. Can only be called by the current owner. NOTE: Renouncing ownership will leave the contract without an owner, thereby removing any functionality that is only available to the owner."
      },
      "transferOwnership(address)": {
        "details": "Transfers ownership of the contract to a new account (`newOwner`). Can only be called by the current owner."
      }
    },
    "version": 1
  },
  "userdoc": {
    "kind": "user",
    "methods": {
      "emergencyWithdraw(address,address[])": {
        "notice": "Withdraws any ERC20 tokens back to recipient."
      },
      "getMaxTvl()": {
        "notice": "Returns max deposits a strategy can take."
      },
      "getPricePerShare()": {
        "notice": "Returns the share price of the strategy in `underlying` units, multiplied  by 1e18"
      },
      "isCEther()": {
        "notice": "Returns whether the strategy accepts ETH or an ERC20."
      },
      "redeemUnderlying(uint256)": {
        "notice": "Withdraws a specific amount of underlying tokens from the strategy."
      }
    },
    "version": 1
  },
  "storageLayout": {
    "storage": [
      {
        "astId": 2661,
        "contract": "src/strategies/implementations/USDCglmrSTELLAwell.sol:USDCglmrSTELLAwell",
        "label": "_owner",
        "offset": 0,
        "slot": "0",
        "type": "t_address"
      },
      {
        "astId": 3337,
        "contract": "src/strategies/implementations/USDCglmrSTELLAwell.sol:USDCglmrSTELLAwell",
        "label": "_status",
        "offset": 0,
        "slot": "1",
        "type": "t_uint256"
      },
      {
        "astId": 16543,
        "contract": "src/strategies/implementations/USDCglmrSTELLAwell.sol:USDCglmrSTELLAwell",
        "label": "isIntialized",
        "offset": 0,
        "slot": "2",
        "type": "t_bool"
      },
      {
        "astId": 17848,
        "contract": "src/strategies/implementations/USDCglmrSTELLAwell.sol:USDCglmrSTELLAwell",
        "label": "isInitialized",
        "offset": 1,
        "slot": "2",
        "type": "t_bool"
      },
      {
        "astId": 17853,
        "contract": "src/strategies/implementations/USDCglmrSTELLAwell.sol:USDCglmrSTELLAwell",
        "label": "lastHarvest",
        "offset": 0,
        "slot": "3",
        "type": "t_uint256"
      },
      {
        "astId": 17855,
        "contract": "src/strategies/implementations/USDCglmrSTELLAwell.sol:USDCglmrSTELLAwell",
        "label": "_vault",
        "offset": 0,
        "slot": "4",
        "type": "t_address"
      },
      {
        "astId": 17857,
        "contract": "src/strategies/implementations/USDCglmrSTELLAwell.sol:USDCglmrSTELLAwell",
        "label": "_shares",
        "offset": 0,
        "slot": "5",
        "type": "t_uint256"
      },
      {
        "astId": 17859,
        "contract": "src/strategies/implementations/USDCglmrSTELLAwell.sol:USDCglmrSTELLAwell",
        "label": "name",
        "offset": 0,
        "slot": "6",
        "type": "t_string_storage"
      },
      {
        "astId": 17861,
        "contract": "src/strategies/implementations/USDCglmrSTELLAwell.sol:USDCglmrSTELLAwell",
        "label": "symbol",
        "offset": 0,
        "slot": "7",
        "type": "t_string_storage"
      },
      {
        "astId": 17865,
        "contract": "src/strategies/implementations/USDCglmrSTELLAwell.sol:USDCglmrSTELLAwell",
        "label": "_managers",
        "offset": 0,
        "slot": "8",
        "type": "t_mapping(t_address,t_bool)"
      },
      {
        "astId": 17867,
        "contract": "src/strategies/implementations/USDCglmrSTELLAwell.sol:USDCglmrSTELLAwell",
        "label": "BASE_UNIT",
        "offset": 0,
        "slot": "9",
        "type": "t_uint256"
      },
      {
        "astId": 18260,
        "contract": "src/strategies/implementations/USDCglmrSTELLAwell.sol:USDCglmrSTELLAwell",
        "label": "_underlying",
        "offset": 0,
        "slot": "10",
        "type": "t_contract(IERC20)3990"
      },
      {
        "astId": 18263,
        "contract": "src/strategies/implementations/USDCglmrSTELLAwell.sol:USDCglmrSTELLAwell",
        "label": "_short",
        "offset": 0,
        "slot": "11",
        "type": "t_contract(IERC20)3990"
      },
      {
        "astId": 18266,
        "contract": "src/strategies/implementations/USDCglmrSTELLAwell.sol:USDCglmrSTELLAwell",
        "label": "maxPriceMismatch",
        "offset": 0,
        "slot": "12",
        "type": "t_uint256"
      },
      {
        "astId": 18272,
        "contract": "src/strategies/implementations/USDCglmrSTELLAwell.sol:USDCglmrSTELLAwell",
        "label": "minLoanHealth",
        "offset": 0,
        "slot": "13",
        "type": "t_uint256"
      },
      {
        "astId": 18275,
        "contract": "src/strategies/implementations/USDCglmrSTELLAwell.sol:USDCglmrSTELLAwell",
        "label": "rebalanceThreshold",
        "offset": 0,
        "slot": "14",
        "type": "t_uint16"
      },
      {
        "astId": 18277,
        "contract": "src/strategies/implementations/USDCglmrSTELLAwell.sol:USDCglmrSTELLAwell",
        "label": "_maxTvl",
        "offset": 0,
        "slot": "15",
        "type": "t_uint256"
      },
      {
        "astId": 18280,
        "contract": "src/strategies/implementations/USDCglmrSTELLAwell.sol:USDCglmrSTELLAwell",
        "label": "_safeCollateralRatio",
        "offset": 0,
        "slot": "16",
        "type": "t_uint256"
      },
      {
        "astId": 21409,
        "contract": "src/strategies/implementations/USDCglmrSTELLAwell.sol:USDCglmrSTELLAwell",
        "label": "_cTokenLend",
        "offset": 0,
        "slot": "17",
        "type": "t_contract(ICTokenErc20)14327"
      },
      {
        "astId": 21412,
        "contract": "src/strategies/implementations/USDCglmrSTELLAwell.sol:USDCglmrSTELLAwell",
        "label": "_cTokenBorrow",
        "offset": 0,
        "slot": "18",
        "type": "t_contract(ICTokenErc20)14327"
      },
      {
        "astId": 21415,
        "contract": "src/strategies/implementations/USDCglmrSTELLAwell.sol:USDCglmrSTELLAwell",
        "label": "_comptroller",
        "offset": 0,
        "slot": "19",
        "type": "t_contract(IComptroller)14569"
      },
      {
        "astId": 21418,
        "contract": "src/strategies/implementations/USDCglmrSTELLAwell.sol:USDCglmrSTELLAwell",
        "label": "_oracle",
        "offset": 0,
        "slot": "20",
        "type": "t_contract(ICompPriceOracle)14350"
      },
      {
        "astId": 21550,
        "contract": "src/strategies/implementations/USDCglmrSTELLAwell.sol:USDCglmrSTELLAwell",
        "label": "_router",
        "offset": 0,
        "slot": "21",
        "type": "t_contract(IUniswapV2Router01)15700"
      },
      {
        "astId": 21553,
        "contract": "src/strategies/implementations/USDCglmrSTELLAwell.sol:USDCglmrSTELLAwell",
        "label": "_farmToken",
        "offset": 0,
        "slot": "22",
        "type": "t_contract(IERC20)3990"
      },
      {
        "astId": 22757,
        "contract": "src/strategies/implementations/USDCglmrSTELLAwell.sol:USDCglmrSTELLAwell",
        "label": "_farm",
        "offset": 0,
        "slot": "23",
        "type": "t_contract(IMasterChef)15009"
      },
      {
        "astId": 22760,
        "contract": "src/strategies/implementations/USDCglmrSTELLAwell.sol:USDCglmrSTELLAwell",
        "label": "_router",
        "offset": 0,
        "slot": "24",
        "type": "t_contract(IUniswapV2Router01)15700"
      },
      {
        "astId": 22763,
        "contract": "src/strategies/implementations/USDCglmrSTELLAwell.sol:USDCglmrSTELLAwell",
        "label": "_farmToken",
        "offset": 0,
        "slot": "25",
        "type": "t_contract(IERC20)3990"
      },
      {
        "astId": 22766,
        "contract": "src/strategies/implementations/USDCglmrSTELLAwell.sol:USDCglmrSTELLAwell",
        "label": "_pair",
        "offset": 0,
        "slot": "26",
        "type": "t_contract(IUniswapV2Pair)15392"
      },
      {
        "astId": 22768,
        "contract": "src/strategies/implementations/USDCglmrSTELLAwell.sol:USDCglmrSTELLAwell",
        "label": "_farmId",
        "offset": 0,
        "slot": "27",
        "type": "t_uint256"
      }
    ],
    "types": {
      "t_address": {
        "encoding": "inplace",
        "label": "address",
        "numberOfBytes": "20"
      },
      "t_bool": {
        "encoding": "inplace",
        "label": "bool",
        "numberOfBytes": "1"
      },
      "t_contract(ICTokenErc20)14327": {
        "encoding": "inplace",
        "label": "contract ICTokenErc20",
        "numberOfBytes": "20"
      },
      "t_contract(ICompPriceOracle)14350": {
        "encoding": "inplace",
        "label": "contract ICompPriceOracle",
        "numberOfBytes": "20"
      },
      "t_contract(IComptroller)14569": {
        "encoding": "inplace",
        "label": "contract IComptroller",
        "numberOfBytes": "20"
      },
      "t_contract(IERC20)3990": {
        "encoding": "inplace",
        "label": "contract IERC20",
        "numberOfBytes": "20"
      },
      "t_contract(IMasterChef)15009": {
        "encoding": "inplace",
        "label": "contract IMasterChef",
        "numberOfBytes": "20"
      },
      "t_contract(IUniswapV2Pair)15392": {
        "encoding": "inplace",
        "label": "contract IUniswapV2Pair",
        "numberOfBytes": "20"
      },
      "t_contract(IUniswapV2Router01)15700": {
        "encoding": "inplace",
        "label": "contract IUniswapV2Router01",
        "numberOfBytes": "20"
      },
      "t_mapping(t_address,t_bool)": {
        "encoding": "mapping",
        "key": "t_address",
        "label": "mapping(address => bool)",
        "numberOfBytes": "32",
        "value": "t_bool"
      },
      "t_string_storage": {
        "encoding": "bytes",
        "label": "string",
        "numberOfBytes": "32"
      },
      "t_uint16": {
        "encoding": "inplace",
        "label": "uint16",
        "numberOfBytes": "2"
      },
      "t_uint256": {
        "encoding": "inplace",
        "label": "uint256",
        "numberOfBytes": "32"
      }
    }
  }
}