{
  "address": "0xE206074595D33bd315aA436f3eb5159668Ec8f8b",
  "abi": [
    {
      "inputs": [
        {
          "components": [
            {
              "internalType": "address",
              "name": "underlying",
              "type": "address"
            },
            {
              "internalType": "address",
              "name": "short",
              "type": "address"
            },
            {
              "internalType": "address",
              "name": "cTokenLend",
              "type": "address"
            },
            {
              "internalType": "address",
              "name": "cTokenBorrow",
              "type": "address"
            },
            {
              "internalType": "address",
              "name": "uniPair",
              "type": "address"
            },
            {
              "internalType": "address",
              "name": "uniFarm",
              "type": "address"
            },
            {
              "internalType": "address",
              "name": "farmToken",
              "type": "address"
            },
            {
              "internalType": "uint256",
              "name": "farmId",
              "type": "uint256"
            },
            {
              "internalType": "address",
              "name": "farmRouter",
              "type": "address"
            },
            {
              "internalType": "address",
              "name": "comptroller",
              "type": "address"
            },
            {
              "internalType": "address",
              "name": "lendRewardRouter",
              "type": "address"
            },
            {
              "internalType": "address",
              "name": "lendRewardToken",
              "type": "address"
            },
            {
              "internalType": "address",
              "name": "vault",
              "type": "address"
            },
            {
              "internalType": "string",
              "name": "symbol",
              "type": "string"
            },
            {
              "internalType": "string",
              "name": "name",
              "type": "string"
            },
            {
              "internalType": "uint256",
              "name": "maxTvl",
              "type": "uint256"
            }
          ],
          "internalType": "struct Config",
          "name": "config",
          "type": "tuple"
        }
      ],
      "stateMutability": "nonpayable",
      "type": "constructor"
    },
    {
      "anonymous": false,
      "inputs": [
        {
          "indexed": false,
          "internalType": "address",
          "name": "sender",
          "type": "address"
        },
        {
          "indexed": false,
          "internalType": "uint256",
          "name": "amount",
          "type": "uint256"
        }
      ],
      "name": "Deposit",
      "type": "event"
    },
    {
      "anonymous": false,
      "inputs": [
        {
          "indexed": true,
          "internalType": "address",
          "name": "recipient",
          "type": "address"
        },
        {
          "indexed": false,
          "internalType": "contract IERC20[]",
          "name": "tokens",
          "type": "address[]"
        }
      ],
      "name": "EmergencyWithdraw",
      "type": "event"
    },
    {
      "anonymous": false,
      "inputs": [
        {
          "indexed": false,
          "internalType": "uint256",
          "name": "harvested",
          "type": "uint256"
        }
      ],
      "name": "Harvest",
      "type": "event"
    },
    {
      "anonymous": false,
      "inputs": [
        {
          "indexed": true,
          "internalType": "address",
          "name": "token",
          "type": "address"
        },
        {
          "indexed": false,
          "internalType": "uint256",
          "name": "amount",
          "type": "uint256"
        }
      ],
      "name": "HarvestedToken",
      "type": "event"
    },
    {
      "anonymous": false,
      "inputs": [
        {
          "indexed": true,
          "internalType": "address",
          "name": "account",
          "type": "address"
        },
        {
          "indexed": false,
          "internalType": "bool",
          "name": "isManager",
          "type": "bool"
        }
      ],
      "name": "ManagerUpdate",
      "type": "event"
    },
    {
      "anonymous": false,
      "inputs": [
        {
          "indexed": true,
          "internalType": "address",
          "name": "previousOwner",
          "type": "address"
        },
        {
          "indexed": true,
          "internalType": "address",
          "name": "newOwner",
          "type": "address"
        }
      ],
      "name": "OwnershipTransferred",
      "type": "event"
    },
    {
      "anonymous": false,
      "inputs": [
        {
          "indexed": false,
          "internalType": "uint256",
          "name": "shortPrice",
          "type": "uint256"
        },
        {
          "indexed": false,
          "internalType": "uint256",
          "name": "tvlBeforeRebalance",
          "type": "uint256"
        },
        {
          "indexed": false,
          "internalType": "uint256",
          "name": "positionOffset",
          "type": "uint256"
        }
      ],
      "name": "Rebalance",
      "type": "event"
    },
    {
      "anonymous": false,
      "inputs": [
        {
          "indexed": true,
          "internalType": "address",
          "name": "sender",
          "type": "address"
        },
        {
          "indexed": false,
          "internalType": "uint256",
          "name": "startLoanHealth",
          "type": "uint256"
        },
        {
          "indexed": false,
          "internalType": "uint256",
          "name": "updatedLoanHealth",
          "type": "uint256"
        }
      ],
      "name": "RebalanceLoan",
      "type": "event"
    },
    {
      "anonymous": false,
      "inputs": [
        {
          "indexed": false,
          "internalType": "uint256",
          "name": "loanHealth",
          "type": "uint256"
        }
      ],
      "name": "SetMaxPriceMismatch",
      "type": "event"
    },
    {
      "anonymous": false,
      "inputs": [
        {
          "indexed": false,
          "internalType": "uint256",
          "name": "loanHealth",
          "type": "uint256"
        }
      ],
      "name": "SetMaxTvl",
      "type": "event"
    },
    {
      "anonymous": false,
      "inputs": [
        {
          "indexed": false,
          "internalType": "uint256",
          "name": "loanHealth",
          "type": "uint256"
        }
      ],
      "name": "SetRebalanceThreshold",
      "type": "event"
    },
    {
      "anonymous": false,
      "inputs": [
        {
          "indexed": false,
          "internalType": "uint256",
          "name": "collateralRatio",
          "type": "uint256"
        }
      ],
      "name": "SetSafeCollateralRaio",
      "type": "event"
    },
    {
      "anonymous": false,
      "inputs": [
        {
          "indexed": true,
          "internalType": "address",
          "name": "vault",
          "type": "address"
        }
      ],
      "name": "VaultUpdate",
      "type": "event"
    },
    {
      "anonymous": false,
      "inputs": [
        {
          "indexed": false,
          "internalType": "address",
          "name": "sender",
          "type": "address"
        },
        {
          "indexed": false,
          "internalType": "uint256",
          "name": "amount",
          "type": "uint256"
        }
      ],
      "name": "Withdraw",
      "type": "event"
    },
    {
      "anonymous": false,
      "inputs": [
        {
          "indexed": false,
          "internalType": "uint256",
          "name": "loanHealth",
          "type": "uint256"
        }
      ],
      "name": "setMinLoanHealth",
      "type": "event"
    },
    {
      "inputs": [],
      "name": "BASE_UNIT",
      "outputs": [
        {
          "internalType": "uint256",
          "name": "",
          "type": "uint256"
        }
      ],
      "stateMutability": "view",
      "type": "function"
    },
    {
      "inputs": [
        {
          "internalType": "address",
          "name": "",
          "type": "address"
        }
      ],
      "name": "balanceOfUnderlying",
      "outputs": [
        {
          "internalType": "uint256",
          "name": "",
          "type": "uint256"
        }
      ],
      "stateMutability": "view",
      "type": "function"
    },
    {
      "inputs": [],
      "name": "balanceOfUnderlying",
      "outputs": [
        {
          "internalType": "uint256",
          "name": "",
          "type": "uint256"
        }
      ],
      "stateMutability": "view",
      "type": "function"
    },
    {
      "inputs": [],
      "name": "cTokenBorrow",
      "outputs": [
        {
          "internalType": "contract ICTokenErc20",
          "name": "",
          "type": "address"
        }
      ],
      "stateMutability": "view",
      "type": "function"
    },
    {
      "inputs": [],
      "name": "cTokenLend",
      "outputs": [
        {
          "internalType": "contract ICTokenErc20",
          "name": "",
          "type": "address"
        }
      ],
      "stateMutability": "view",
      "type": "function"
    },
    {
      "inputs": [
        {
          "internalType": "uint256",
          "name": "maxSlippage",
          "type": "uint256"
        }
      ],
      "name": "closePosition",
      "outputs": [],
      "stateMutability": "nonpayable",
      "type": "function"
    },
    {
      "inputs": [],
      "name": "comptroller",
      "outputs": [
        {
          "internalType": "contract IComptroller",
          "name": "",
          "type": "address"
        }
      ],
      "stateMutability": "view",
      "type": "function"
    },
    {
      "inputs": [],
      "name": "decimals",
      "outputs": [
        {
          "internalType": "uint8",
          "name": "",
          "type": "uint8"
        }
      ],
      "stateMutability": "view",
      "type": "function"
    },
    {
      "inputs": [
        {
          "internalType": "address",
          "name": "recipient",
          "type": "address"
        },
        {
          "internalType": "contract IERC20[]",
          "name": "tokens",
          "type": "address[]"
        }
      ],
      "name": "emergencyWithdraw",
      "outputs": [],
      "stateMutability": "nonpayable",
      "type": "function"
    },
    {
      "inputs": [],
      "name": "farmRouter",
      "outputs": [
        {
          "internalType": "contract IUniswapV2Router01",
          "name": "",
          "type": "address"
        }
      ],
      "stateMutability": "view",
      "type": "function"
    },
    {
      "inputs": [],
      "name": "getCollateralRatio",
      "outputs": [
        {
          "internalType": "uint256",
          "name": "",
          "type": "uint256"
        }
      ],
      "stateMutability": "view",
      "type": "function"
    },
    {
      "inputs": [],
      "name": "getMaxTvl",
      "outputs": [
        {
          "internalType": "uint256",
          "name": "",
          "type": "uint256"
        }
      ],
      "stateMutability": "view",
      "type": "function"
    },
    {
      "inputs": [],
      "name": "getPositionOffset",
      "outputs": [
        {
          "internalType": "uint256",
          "name": "positionOffset",
          "type": "uint256"
        }
      ],
      "stateMutability": "view",
      "type": "function"
    },
    {
      "inputs": [],
      "name": "getPriceOffset",
      "outputs": [
        {
          "internalType": "uint256",
          "name": "offset",
          "type": "uint256"
        }
      ],
      "stateMutability": "view",
      "type": "function"
    },
    {
      "inputs": [],
      "name": "getPricePerShare",
      "outputs": [
        {
          "internalType": "uint256",
          "name": "",
          "type": "uint256"
        }
      ],
      "stateMutability": "view",
      "type": "function"
    },
    {
      "inputs": [],
      "name": "getTVL",
      "outputs": [
        {
          "internalType": "uint256",
          "name": "tvl",
          "type": "uint256"
        },
        {
          "internalType": "uint256",
          "name": "collateralBalance",
          "type": "uint256"
        },
        {
          "internalType": "uint256",
          "name": "borrowPosition",
          "type": "uint256"
        },
        {
          "internalType": "uint256",
          "name": "borrowBalance",
          "type": "uint256"
        },
        {
          "internalType": "uint256",
          "name": "lpBalance",
          "type": "uint256"
        },
        {
          "internalType": "uint256",
          "name": "underlyingBalance",
          "type": "uint256"
        }
      ],
      "stateMutability": "view",
      "type": "function"
    },
    {
      "inputs": [],
      "name": "getTotalTVL",
      "outputs": [
        {
          "internalType": "uint256",
          "name": "tvl",
          "type": "uint256"
        }
      ],
      "stateMutability": "view",
      "type": "function"
    },
    {
      "inputs": [],
      "name": "getUnderlyingShortReserves",
      "outputs": [
        {
          "internalType": "uint256",
          "name": "reserveA",
          "type": "uint256"
        },
        {
          "internalType": "uint256",
          "name": "reserveB",
          "type": "uint256"
        }
      ],
      "stateMutability": "view",
      "type": "function"
    },
    {
      "inputs": [
        {
          "components": [
            {
              "internalType": "address[]",
              "name": "path",
              "type": "address[]"
            },
            {
              "internalType": "uint256",
              "name": "min",
              "type": "uint256"
            },
            {
              "internalType": "uint256",
              "name": "deadline",
              "type": "uint256"
            }
          ],
          "internalType": "struct HarvestSwapParms[]",
          "name": "uniParams",
          "type": "tuple[]"
        },
        {
          "components": [
            {
              "internalType": "address[]",
              "name": "path",
              "type": "address[]"
            },
            {
              "internalType": "uint256",
              "name": "min",
              "type": "uint256"
            },
            {
              "internalType": "uint256",
              "name": "deadline",
              "type": "uint256"
            }
          ],
          "internalType": "struct HarvestSwapParms[]",
          "name": "lendingParams",
          "type": "tuple[]"
        }
      ],
      "name": "harvest",
      "outputs": [
        {
          "internalType": "uint256[]",
          "name": "farmHarvest",
          "type": "uint256[]"
        },
        {
          "internalType": "uint256[]",
          "name": "lendHarvest",
          "type": "uint256[]"
        }
      ],
      "stateMutability": "nonpayable",
      "type": "function"
    },
    {
      "inputs": [],
      "name": "isCEther",
      "outputs": [
        {
          "internalType": "bool",
          "name": "",
          "type": "bool"
        }
      ],
      "stateMutability": "pure",
      "type": "function"
    },
    {
      "inputs": [],
      "name": "isIntialized",
      "outputs": [
        {
          "internalType": "bool",
          "name": "",
          "type": "bool"
        }
      ],
      "stateMutability": "view",
      "type": "function"
    },
    {
      "inputs": [
        {
          "internalType": "address",
          "name": "user",
          "type": "address"
        }
      ],
      "name": "isManager",
      "outputs": [
        {
          "internalType": "bool",
          "name": "",
          "type": "bool"
        }
      ],
      "stateMutability": "view",
      "type": "function"
    },
    {
      "inputs": [],
      "name": "lastHarvest",
      "outputs": [
        {
          "internalType": "uint256",
          "name": "",
          "type": "uint256"
        }
      ],
      "stateMutability": "view",
      "type": "function"
    },
    {
      "inputs": [],
      "name": "lendFarmRouter",
      "outputs": [
        {
          "internalType": "contract IUniswapV2Router01",
          "name": "",
          "type": "address"
        }
      ],
      "stateMutability": "view",
      "type": "function"
    },
    {
      "inputs": [],
      "name": "loanHealth",
      "outputs": [
        {
          "internalType": "uint256",
          "name": "",
          "type": "uint256"
        }
      ],
      "stateMutability": "view",
      "type": "function"
    },
    {
      "inputs": [],
      "name": "maxPriceMismatch",
      "outputs": [
        {
          "internalType": "uint256",
          "name": "",
          "type": "uint256"
        }
      ],
      "stateMutability": "view",
      "type": "function"
    },
    {
      "inputs": [],
      "name": "minLoanHealth",
      "outputs": [
        {
          "internalType": "uint256",
          "name": "",
          "type": "uint256"
        }
      ],
      "stateMutability": "view",
      "type": "function"
    },
    {
      "inputs": [
        {
          "internalType": "uint256",
          "name": "amount",
          "type": "uint256"
        }
      ],
      "name": "mint",
      "outputs": [
        {
          "internalType": "uint256",
          "name": "errCode",
          "type": "uint256"
        }
      ],
      "stateMutability": "nonpayable",
      "type": "function"
    },
    {
      "inputs": [],
      "name": "name",
      "outputs": [
        {
          "internalType": "string",
          "name": "",
          "type": "string"
        }
      ],
      "stateMutability": "view",
      "type": "function"
    },
    {
      "inputs": [],
      "name": "oracle",
      "outputs": [
        {
          "internalType": "contract ICompPriceOracle",
          "name": "",
          "type": "address"
        }
      ],
      "stateMutability": "view",
      "type": "function"
    },
    {
      "inputs": [],
      "name": "owner",
      "outputs": [
        {
          "internalType": "address",
          "name": "",
          "type": "address"
        }
      ],
      "stateMutability": "view",
      "type": "function"
    },
    {
      "inputs": [],
      "name": "pair",
      "outputs": [
        {
          "internalType": "contract IUniswapV2Pair",
          "name": "",
          "type": "address"
        }
      ],
      "stateMutability": "view",
      "type": "function"
    },
    {
      "inputs": [],
      "name": "rebalance",
      "outputs": [],
      "stateMutability": "pure",
      "type": "function"
    },
    {
      "inputs": [
        {
          "internalType": "uint256",
          "name": "maxSlippage",
          "type": "uint256"
        }
      ],
      "name": "rebalance",
      "outputs": [],
      "stateMutability": "nonpayable",
      "type": "function"
    },
    {
      "inputs": [],
      "name": "rebalanceLoan",
      "outputs": [],
      "stateMutability": "nonpayable",
      "type": "function"
    },
    {
      "inputs": [],
      "name": "rebalanceThreshold",
      "outputs": [
        {
          "internalType": "uint16",
          "name": "",
          "type": "uint16"
        }
      ],
      "stateMutability": "view",
      "type": "function"
    },
    {
      "inputs": [
        {
          "internalType": "uint256",
          "name": "amount",
          "type": "uint256"
        }
      ],
      "name": "redeemUnderlying",
      "outputs": [
        {
          "internalType": "uint256",
          "name": "errCode",
          "type": "uint256"
        }
      ],
      "stateMutability": "nonpayable",
      "type": "function"
    },
    {
      "inputs": [],
      "name": "renounceOwnership",
      "outputs": [],
      "stateMutability": "nonpayable",
      "type": "function"
    },
    {
      "inputs": [],
      "name": "safeCollateralRatio",
      "outputs": [
        {
          "internalType": "uint256",
          "name": "",
          "type": "uint256"
        }
      ],
      "stateMutability": "view",
      "type": "function"
    },
    {
      "inputs": [
        {
          "internalType": "address",
          "name": "user",
          "type": "address"
        },
        {
          "internalType": "bool",
          "name": "_isManager",
          "type": "bool"
        }
      ],
      "name": "setManager",
      "outputs": [],
      "stateMutability": "nonpayable",
      "type": "function"
    },
    {
      "inputs": [
        {
          "internalType": "uint256",
          "name": "maxPriceMismatch_",
          "type": "uint256"
        }
      ],
      "name": "setMaxPriceMismatch",
      "outputs": [],
      "stateMutability": "nonpayable",
      "type": "function"
    },
    {
      "inputs": [
        {
          "internalType": "uint256",
          "name": "maxTvl_",
          "type": "uint256"
        }
      ],
      "name": "setMaxTvl",
      "outputs": [],
      "stateMutability": "nonpayable",
      "type": "function"
    },
    {
      "inputs": [
        {
          "internalType": "uint256",
          "name": "minLoanHealth_",
          "type": "uint256"
        }
      ],
      "name": "setMinLoanHeath",
      "outputs": [],
      "stateMutability": "nonpayable",
      "type": "function"
    },
    {
      "inputs": [
        {
          "internalType": "uint16",
          "name": "rebalanceThreshold_",
          "type": "uint16"
        }
      ],
      "name": "setRebalanceThreshold",
      "outputs": [],
      "stateMutability": "nonpayable",
      "type": "function"
    },
    {
      "inputs": [
        {
          "internalType": "uint256",
          "name": "safeCollateralRatio_",
          "type": "uint256"
        }
      ],
      "name": "setSafeCollateralRatio",
      "outputs": [],
      "stateMutability": "nonpayable",
      "type": "function"
    },
    {
      "inputs": [
        {
          "internalType": "address",
          "name": "vault_",
          "type": "address"
        }
      ],
      "name": "setVault",
      "outputs": [],
      "stateMutability": "nonpayable",
      "type": "function"
    },
    {
      "inputs": [],
      "name": "short",
      "outputs": [
        {
          "internalType": "contract IERC20",
          "name": "",
          "type": "address"
        }
      ],
      "stateMutability": "view",
      "type": "function"
    },
    {
      "inputs": [],
      "name": "symbol",
      "outputs": [
        {
          "internalType": "string",
          "name": "",
          "type": "string"
        }
      ],
      "stateMutability": "view",
      "type": "function"
    },
    {
      "inputs": [],
      "name": "totalSupply",
      "outputs": [
        {
          "internalType": "uint256",
          "name": "",
          "type": "uint256"
        }
      ],
      "stateMutability": "view",
      "type": "function"
    },
    {
      "inputs": [
        {
          "internalType": "address",
          "name": "newOwner",
          "type": "address"
        }
      ],
      "name": "transferOwnership",
      "outputs": [],
      "stateMutability": "nonpayable",
      "type": "function"
    },
    {
      "inputs": [],
      "name": "underlying",
      "outputs": [
        {
          "internalType": "contract IERC20",
          "name": "",
          "type": "address"
        }
      ],
      "stateMutability": "view",
      "type": "function"
    },
    {
      "inputs": [],
      "name": "vault",
      "outputs": [
        {
          "internalType": "address",
          "name": "",
          "type": "address"
        }
      ],
      "stateMutability": "view",
      "type": "function"
    },
    {
      "inputs": [],
      "name": "version",
      "outputs": [
        {
          "internalType": "uint256",
          "name": "",
          "type": "uint256"
        }
      ],
      "stateMutability": "view",
      "type": "function"
    },
    {
      "stateMutability": "payable",
      "type": "receive"
    }
  ],
  "transactionHash": "0x901186d3bed69be784419a2ebbdac98f4c9f9185eb4fb69c444c592d644abaf6",
  "args": [
    [
      "0xE3F5a90F9cb311505cd691a46596599aA1A0AD7D",
      "0x98878B06940aE243284CA214f92Bb71a2b032B8A",
      "0xd0670AEe3698F66e2D4dAf071EB9c690d978BFA8",
      "0x6a1A771C7826596652daDC9145fEAaE62b1cd07f",
      "0xe537f70a8b62204832B8Ba91940B77d3f79AEb81",
      "0x0329867a8c457e9f75e25b0685011291cd30904f",
      "0x6bD193Ee6D2104F14F94E2cA6efefae561A4334B",
      10,
      "0xAA30eF758139ae4a7f798112902Bf6d65612045f",
      "0x0b7a0EAA884849c6Af7a129e899536dDDcA4905E",
      "0xAA30eF758139ae4a7f798112902Bf6d65612045f",
      "0xBb8d88bcD9749636BC4D2bE22aaC4Bb3B01A58F1",
      "0xc24D43093b44b7A9657571DDB79FEdf014eaef7d",
      "USDCmovrSOLARwell",
      "USDC MOVR SOLAR Moonwell",
      "115792089237316195423570985008687907853269984665640564039457584007913129639935"
    ]
  ],
  "numDeployments": 4,
  "solcInputHash": "1c7d1ede5d706dd14398e334ca29be8c",
  "bytecode": "0x60806040526096600c55670e6ed27d66680000600d55600e805461ffff19166101901790556120d06010553480156200003757600080fd5b506040516200604f3803806200604f8339810160408190526200005a9162000e03565b6101808101516101a08201516101c0830151620000773362000147565b60018055600480546001600160a01b0319166001600160a01b0385161790558151620000ab90600790602085019062000c24565b508051620000c190600690602084019062000c24565b505050608082015160a083015161010084015160c085015160e0860151620000ea955062000197565b6200010a816101200151826040015183606001516200021c60201b60201c565b62000126816101400151826101600151620002e860201b60201c565b805160208201516101e0830151620001409291906200035d565b5062001330565b600080546001600160a01b038381166001600160a01b0319831681178455604051919092169283917f8be0079c531659141344cd1fd0a4f28419497f9722a3daafe3b4186f6b6457e09190a35050565b60025460ff1615620001c65760405162461bcd60e51b8152600401620001bd9062000fa5565b60405180910390fd5b601880546001600160a01b03199081166001600160a01b039687161790915560198054821694861694909417909355601a8054841692851692909217909155601b80549092169390921692909217909155601c55565b601280546001600160a01b038085166001600160a01b03199283161790925560138054848416908316179055601480549286169290911682179055604080516307dc0d1d60e41b81529051637dc0d1d0916004808201926020929091908290030181865afa15801562000293573d6000803e3d6000fd5b505050506040513d601f19601f82011682018060405250810190620002b9919062000fca565b601580546001600160a01b0319166001600160a01b0392909216919091179055620002e36200050b565b505050565b60025460ff16156200030e5760405162461bcd60e51b8152600401620001bd9062000fa5565b601780546001600160a01b03199081166001600160a01b0384811691821790935560168054909216928516928317909155620003599160001962000607602090811b62001a3317901c565b5050565b60025460ff1615620003835760405162461bcd60e51b8152600401620001bd9062000fa5565b600a80546001600160a01b038086166001600160a01b03199283168117909355600b805491861691909216179055620003cf903060001962001a3362000607602090811b91909117901c565b620003d962000752565b620003e690600a620010fd565b600955620003f481620007c8565b7f5ceaf8b7b0d35f85ef4df565057cd318e70d9f8681f89425a2d5e09c1c70a7f9600d546040516200042891815260200190565b60405180910390a17f3e87fa3180c1babd204ce79375729d7a6694a2d2f0fb3e250f9138488ed066bb600c546040516200046491815260200190565b60405180910390a1600e5460405161ffff90911681527f36c98a54ec4f90fe58a67bf25cfc1691dbd53639eee3513536d83e8d34fb0a9b9060200160405180910390a17f4812bd1abd1ad4ea905335e3af941ec67d6d51ecb36ab58f23af0af081aac57b601054604051620004db91815260200190565b60405180910390a1620004ed62000870565b620004f7620008de565b50506002805461ff00191661010017905550565b6040805160028082526060820183526000926020830190803683375050601254919250506001600160a01b0316816000815181106200054e576200054e6200110e565b6001600160a01b03928316602091820292909201015260135416816001815181106200057e576200057e6200110e565b6001600160a01b039283166020918202929092010152601454604051631853304760e31b815291169063c299823890620005bd90849060040162001124565b6000604051808303816000875af1158015620005dd573d6000803e3d6000fd5b505050506040513d6000823e601f3d908101601f1916820160405262000359919081019062001173565b801580620006865750604051636eb1769f60e11b81526001600160a01b0384169063dd62ed3e9062000640903090869060040162001223565b602060405180830381865afa1580156200065e573d6000803e3d6000fd5b505050506040513d601f19601f820116820180604052508101906200068491906200123d565b155b620006fa5760405162461bcd60e51b815260206004820152603660248201527f5361666545524332303a20617070726f76652066726f6d206e6f6e2d7a65726f60448201527f20746f206e6f6e2d7a65726f20616c6c6f77616e6365000000000000000000006064820152608401620001bd565b604080516001600160a01b038416602482015260448082018490528251808303909101815260649091019091526020810180516001600160e01b0390811663095ea7b360e01b17909152620002e3918591620009ba16565b600a546040805163313ce56760e01b815290516000926001600160a01b03169163313ce5679160048083019260209291908290030181865afa1580156200079d573d6000803e3d6000fd5b505050506040513d601f19601f82011682018060405250810190620007c3919062001257565b905090565b6000546001600160a01b0316331480620007f657503360009081526008602052604090205460ff1615156001145b620008355760405162461bcd60e51b815260206004820152600e60248201526d0a6e8e4c2e874409c9ebe82aaa8960931b6044820152606401620001bd565b600f8190556040518181527f13d3e08a22782064d3062f92ff1101a623b60e3bf91f236b5d1e9fdddfc12a129060200160405180910390a150565b601254620008b5906001600160a01b031660001962000897600a546001600160a01b031690565b6001600160a01b03166200060760201b62001a33179092919060201c565b601354620008dc906001600160a01b031660001962000897600b546001600160a01b031690565b565b601854601b546200090b916001600160a01b03918216911660001962000607602090811b62001a3317901c565b601a54601954604051636eb1769f60e11b81526001600160a01b039283169263dd62ed3e92620009449230929091169060040162001223565b602060405180830381865afa15801562000962573d6000803e3d6000fd5b505050506040513d601f19601f820116820180604052508101906200098891906200123d565b620008dc57601954601a54620008dc916001600160a01b03918216911660001962000607602090811b62001a3317901c565b600062000a16826040518060400160405280602081526020017f5361666545524332303a206c6f772d6c6576656c2063616c6c206661696c6564815250856001600160a01b031662000a9860201b62001b73179092919060201c565b805190915015620002e3578080602001905181019062000a3791906200127c565b620002e35760405162461bcd60e51b815260206004820152602a60248201527f5361666545524332303a204552433230206f7065726174696f6e20646964206e6044820152691bdd081cdd58d8d9595960b21b6064820152608401620001bd565b606062000aa9848460008562000ab3565b90505b9392505050565b60608247101562000b165760405162461bcd60e51b815260206004820152602660248201527f416464726573733a20696e73756666696369656e742062616c616e636520666f6044820152651c8818d85b1b60d21b6064820152608401620001bd565b843b62000b665760405162461bcd60e51b815260206004820152601d60248201527f416464726573733a2063616c6c20746f206e6f6e2d636f6e74726163740000006044820152606401620001bd565b600080866001600160a01b0316858760405162000b849190620012a0565b60006040518083038185875af1925050503d806000811462000bc3576040519150601f19603f3d011682016040523d82523d6000602084013e62000bc8565b606091505b50909250905062000bdb82828662000be6565b979650505050505050565b6060831562000bf757508162000aac565b82511562000c085782518084602001fd5b8160405162461bcd60e51b8152600401620001bd9190620012be565b82805462000c3290620012f3565b90600052602060002090601f01602090048101928262000c56576000855562000ca1565b82601f1062000c7157805160ff191683800117855562000ca1565b8280016001018555821562000ca1579182015b8281111562000ca157825182559160200191906001019062000c84565b5062000caf92915062000cb3565b5090565b5b8082111562000caf576000815560010162000cb4565b634e487b7160e01b600052604160045260246000fd5b60405161020081016001600160401b038111828210171562000d065762000d0662000cca565b60405290565b604051601f8201601f191681016001600160401b038111828210171562000d375762000d3762000cca565b604052919050565b80516001600160a01b038116811462000d5757600080fd5b919050565b60005b8381101562000d7957818101518382015260200162000d5f565b8381111562000d89576000848401525b50505050565b600082601f83011262000da157600080fd5b81516001600160401b0381111562000dbd5762000dbd62000cca565b62000dd2601f8201601f191660200162000d0c565b81815284602083860101111562000de857600080fd5b62000dfb82602083016020870162000d5c565b949350505050565b60006020828403121562000e1657600080fd5b81516001600160401b038082111562000e2e57600080fd5b90830190610200828603121562000e4457600080fd5b62000e4e62000ce0565b62000e598362000d3f565b815262000e696020840162000d3f565b602082015262000e7c6040840162000d3f565b604082015262000e8f6060840162000d3f565b606082015262000ea26080840162000d3f565b608082015262000eb560a0840162000d3f565b60a082015262000ec860c0840162000d3f565b60c082015260e083015160e082015261010062000ee781850162000d3f565b9082015261012062000efb84820162000d3f565b9082015261014062000f0f84820162000d3f565b9082015261016062000f2384820162000d3f565b9082015261018062000f3784820162000d3f565b908201526101a0838101518381111562000f5057600080fd5b62000f5e8882870162000d8f565b8284015250506101c0808401518381111562000f7957600080fd5b62000f878882870162000d8f565b91830191909152506101e09283015192810192909252509392505050565b6020808252600b908201526a125392551250531256915160aa1b604082015260600190565b60006020828403121562000fdd57600080fd5b62000aac8262000d3f565b634e487b7160e01b600052601160045260246000fd5b600181815b808511156200103f57816000190482111562001023576200102362000fe8565b808516156200103157918102915b93841c939080029062001003565b509250929050565b6000826200105857506001620010f7565b816200106757506000620010f7565b81600181146200108057600281146200108b57620010ab565b6001915050620010f7565b60ff8411156200109f576200109f62000fe8565b50506001821b620010f7565b5060208310610133831016604e8410600b8410161715620010d0575081810a620010f7565b620010dc838362000ffe565b8060001904821115620010f357620010f362000fe8565b0290505b92915050565b600062000aac60ff84168362001047565b634e487b7160e01b600052603260045260246000fd5b6020808252825182820181905260009190848201906040850190845b81811015620011675783516001600160a01b03168352928401929184019160010162001140565b50909695505050505050565b600060208083850312156200118757600080fd5b82516001600160401b03808211156200119f57600080fd5b818501915085601f830112620011b457600080fd5b815181811115620011c957620011c962000cca565b8060051b9150620011dc84830162000d0c565b8181529183018401918481019088841115620011f757600080fd5b938501935b838510156200121757845182529385019390850190620011fc565b98975050505050505050565b6001600160a01b0392831681529116602082015260400190565b6000602082840312156200125057600080fd5b5051919050565b6000602082840312156200126a57600080fd5b815160ff8116811462000aac57600080fd5b6000602082840312156200128f57600080fd5b8151801515811462000aac57600080fd5b60008251620012b481846020870162000d5c565b9190910192915050565b6020815260008251806020840152620012df81604085016020870162000d5c565b601f01601f19169190910160400192915050565b600181811c908216806200130857607f821691505b602082108114156200132a57634e487b7160e01b600052602260045260246000fd5b50919050565b614d0f80620013406000396000f3fe60806040526004361061025e5760003560e01c806306fdde031461026a5780630c021ae5146102955780630d55046c146102b85780630e962f00146102df57806314b0750b146102f55780631585e0b61461031757806318160ddd14610337578063313ce5671461034c578063358d6a041461037357806338bea4cb146103885780633af9e6691461039d5780633bf295cc146103bd5780633d68175c146103d25780633dcf1342146103e75780633dfe9f6a146104075780634880f9511461043557806354fd4d501461044a5780635fe3b5671461045f57806366be952d146104745780636817031b1461048a5780636f307dc3146104aa578063711326ce146104bf578063715018a6146104df5780637d7c2a1c146104f45780637da64483146105095780637dc0d1d0146105335780637ffe28e314610548578063852a12e31461055d57806386aceac71461057d5780638da5cb5b1461059357806395d89b41146105a857806397b3fcaa146105bd578063a0712d68146105ff578063a126d6011461061f578063a52602b91461063f578063a5e90eee14610654578063a8aa1b3114610674578063ac784ddc14610689578063b580a1281461069d578063c2946e24146106b2578063cb50087f146106c7578063cd377c53146106e7578063d539fe4b146106fc578063de747e5a14610711578063f1a392da14610731578063f20aea0f14610747578063f2fde38b14610775578063f3ae241514610795578063f4993018146107ce578063f9e40ac4146107ee578063fbfa77cf14610811578063fd6bac7014610826578063fec18b3a1461083b57600080fd5b3661026557005b600080fd5b34801561027657600080fd5b5061027f610850565b60405161028c91906144e0565b60405180910390f35b3480156102a157600080fd5b506102aa6108de565b60405190815260200161028c565b3480156102c457600080fd5b506019546001600160a01b03165b60405161028c91906144f3565b3480156102eb57600080fd5b506102aa60095481565b34801561030157600080fd5b50610315610310366004614507565b6108f3565b005b34801561032357600080fd5b50610315610332366004614507565b610967565b34801561034357600080fd5b506005546102aa565b34801561035857600080fd5b506103616109d1565b60405160ff909116815260200161028c565b34801561037f57600080fd5b506102aa610a44565b34801561039457600080fd5b506102d2610a69565b3480156103a957600080fd5b506102aa6103b8366004614535565b610a78565b3480156103c957600080fd5b506102aa610a89565b3480156103de57600080fd5b506102aa610b00565b3480156103f357600080fd5b50610315610402366004614596565b610b41565b34801561041357600080fd5b50600e546104229061ffff1681565b60405161ffff909116815260200161028c565b34801561044157600080fd5b506011546102aa565b34801561045657600080fd5b506102aa600181565b34801561046b57600080fd5b506102d2610ca8565b34801561048057600080fd5b506102aa600c5481565b34801561049657600080fd5b506103156104a5366004614535565b610cb7565b3480156104b657600080fd5b506102d2610d30565b3480156104cb57600080fd5b506103156104da366004614507565b610d3f565b3480156104eb57600080fd5b50610315610e31565b34801561050057600080fd5b50610315610e6c565b34801561051557600080fd5b506002546105239060ff1681565b604051901515815260200161028c565b34801561053f57600080fd5b506102d2610ea8565b34801561055457600080fd5b50610315610eb7565b34801561056957600080fd5b506102aa610578366004614507565b610fdb565b34801561058957600080fd5b506102aa600d5481565b34801561059f57600080fd5b506102d2611042565b3480156105b457600080fd5b5061027f611051565b3480156105c957600080fd5b506105d261105e565b604080519687526020870195909552938501929092526060840152608083015260a082015260c00161028c565b34801561060b57600080fd5b506102aa61061a366004614507565b6111e7565b34801561062b57600080fd5b5061031561063a366004614507565b611240565b34801561064b57600080fd5b506102d26112e9565b34801561066057600080fd5b5061031561066f3660046145f8565b6112f8565b34801561068057600080fd5b506102d2611386565b34801561069557600080fd5b506000610523565b3480156106a957600080fd5b506102aa611395565b3480156106be57600080fd5b506102aa611498565b3480156106d357600080fd5b506103156106e2366004614507565b611502565b3480156106f357600080fd5b506102aa61158e565b34801561070857600080fd5b506010546102aa565b34801561071d57600080fd5b5061031561072c366004614631565b6115be565b34801561073d57600080fd5b506102aa60035481565b34801561075357600080fd5b50610767610762366004614655565b611631565b60405161028c9291906146fb565b34801561078157600080fd5b50610315610790366004614535565b61177a565b3480156107a157600080fd5b506105236107b0366004614535565b6001600160a01b031660009081526008602052604090205460ff1690565b3480156107da57600080fd5b506103156107e9366004614507565b61181a565b3480156107fa57600080fd5b506108036119cf565b60405161028c929190614729565b34801561081d57600080fd5b506102d2611a06565b34801561083257600080fd5b506102d2611a15565b34801561084757600080fd5b506102d2611a24565b6006805461085d90614737565b80601f016020809104026020016040519081016040528092919081815260200182805461088990614737565b80156108d65780601f106108ab576101008083540402835291602001916108d6565b820191906000526020600020905b8154815290600101906020018083116108b957829003601f168201915b505050505081565b60006108e861105e565b509395945050505050565b336108fc611042565b6001600160a01b03161461092b5760405162461bcd60e51b81526004016109229061476c565b60405180910390fd5b60108190556040518181527f4812bd1abd1ad4ea905335e3af941ec67d6d51ecb36ab58f23af0af081aac57b906020015b60405180910390a150565b33610970611042565b6001600160a01b0316146109965760405162461bcd60e51b81526004016109229061476c565b600d8190556040518181527f5ceaf8b7b0d35f85ef4df565057cd318e70d9f8681f89425a2d5e09c1c70a7f99060200161095c565b60055490565b600a546040805163313ce56760e01b815290516000926001600160a01b03169163313ce5679160048083019260209291908290030181865afa158015610a1b573d6000803e3d6000fd5b505050506040513d601f19601f82011682018060405250810190610a3f91906147a1565b905090565b6000610a3f600f54610a64610a5f610a5a611b8c565b611bf7565b611d03565b611d31565b600b546001600160a01b031690565b6000610a8360115490565b92915050565b600080610a97610a5a611d47565b905080610aa75761271091505090565b6000610ab1611d99565b90506000610abd611e8e565b610acf84670de0b6b3a76400006147da565b610ad991906147f9565b905080610aee83670de0b6b3a76400006147da565b610af891906147f9565b935050505090565b600080610b0c60115490565b905060055460001415610b2157505060095490565b600554600954610b3190836147da565b610b3b91906147f9565b91505090565b610b49611a06565b6001600160a01b0316336001600160a01b031614610b795760405162461bcd60e51b81526004016109229061481b565b60005b81811015610c4f576000838383818110610b9857610b98614846565b9050602002016020810190610bad9190614535565b90506000816001600160a01b03166370a08231306040518263ffffffff1660e01b8152600401610bdd91906144f3565b602060405180830381865afa158015610bfa573d6000803e3d6000fd5b505050506040513d601f19601f82011682018060405250810190610c1e919061485c565b90508015610c3a57610c3a6001600160a01b0383168783611f14565b50508080610c4790614875565b915050610b7c565b504715610c6057610c603347611f33565b826001600160a01b03167f2b06144d62a3a5785ec284ed392b3d106610ae2ce7af270417c4ca38277571048383604051610c9b929190614890565b60405180910390a2505050565b6014546001600160a01b031690565b33610cc0611042565b6001600160a01b031614610ce65760405162461bcd60e51b81526004016109229061476c565b600480546001600160a01b0319166001600160a01b0383169081179091556040517fdabed91cf547ed2ee836d5787bae42fc3bca488166c65791051105490fbcf7ca90600090a250565b600a546001600160a01b031690565b610d47611042565b6001600160a01b0316336001600160a01b03161480610d7a57503360009081526008602052604090205460ff1615156001145b610d965760405162461bcd60e51b8152600401610922906148de565b610d9e611042565b6001600160a01b0316336001600160a01b03161480610dbf57508061012c10155b610dfc5760405162461bcd60e51b815260206004820152600e60248201526d484c503a20544f4f204c4152474560901b6044820152606401610922565b600c8190556040518181527f3e87fa3180c1babd204ce79375729d7a6694a2d2f0fb3e250f9138488ed066bb9060200161095c565b33610e3a611042565b6001600160a01b031614610e605760405162461bcd60e51b81526004016109229061476c565b610e6a6000611f84565b565b60405162461bcd60e51b81526020600482015260116024820152704d5553545f5553455f534c49505041474560781b6044820152606401610922565b6015546001600160a01b031690565b60026001541415610eda5760405162461bcd60e51b815260040161092290614906565b60026001556000610ee9610a89565b9050600d54811115610f295760405162461bcd60e51b8152602060048201526009602482015268484c503a205341464560b81b6044820152606401610922565b6000610f33611fd4565b5090506000600d54612710838561251c610f4d91906147da565b610f5791906147da565b610f6191906147f9565b610f6b91906147f9565b9050600080610f7983612095565b91509150610f86816121a3565b610f8f8261225a565b337fdacd0a02d11128b25d6c3de23e91f71aa9dd5620c6f5c69f35a18d15e116846886610fba610a89565b604051610fc8929190614729565b60405180910390a2505060018055505050565b6000610fe5611a06565b6001600160a01b0316336001600160a01b0316146110155760405162461bcd60e51b81526004016109229061481b565b60006110208361228f565b90508060056000828254611034919061493d565b909155506000949350505050565b6000546001600160a01b031690565b6007805461085d90614737565b60008060008060008061106f611d99565b9450611079611d47565b9350611084846124be565b600b546040516370a0823160e01b81529194506000916001600160a01b03909116906370a08231906110ba9030906004016144f3565b602060405180830381865afa1580156110d7573d6000803e3d6000fd5b505050506040513d601f19601f820116820180604052508101906110fb919061485c565b9050600081156111135761110e826124be565b611116565b60005b9050600080611123611fd4565b91509150611130816124be565b61113a9083614954565b600a546040516370a0823160e01b81529197506001600160a01b0316906370a082319061116b9030906004016144f3565b602060405180830381865afa158015611188573d6000803e3d6000fd5b505050506040513d601f19601f820116820180604052508101906111ac919061485c565b94508285886111bb898d614954565b6111c5919061493d565b6111cf9190614954565b6111d99190614954565b995050505050909192939495565b60006111f1611a06565b6001600160a01b0316336001600160a01b0316146112215760405162461bcd60e51b81526004016109229061481b565b600061122c836124f1565b905080600560008282546110349190614954565b808061124b5750600c545b80611254611498565b11156112725760405162461bcd60e51b81526004016109229061496c565b61127a611042565b6001600160a01b0316336001600160a01b031614806112ad57503360009081526008602052604090205460ff1615156001145b6112c95760405162461bcd60e51b8152600401610922906148de565b6112d16126b0565b506112da61105e565b50505060119290925550505050565b6012546001600160a01b031690565b33611301611042565b6001600160a01b0316146113275760405162461bcd60e51b81526004016109229061476c565b6001600160a01b038216600081815260086020908152604091829020805460ff191685151590811790915591519182527f2458f684567d238b66deaa0126265bf3becabda0caaab7ebdda6b1794614a2d3910160405180910390a25050565b601b546001600160a01b031690565b6000806113a0611fd4565b91505060006113ad611d47565b600b546040516370a0823160e01b81529192506000916001600160a01b03909116906370a08231906113e39030906004016144f3565b602060405180830381865afa158015611400573d6000803e3d6000fd5b505050506040513d601f19601f82011682018060405250810190611424919061485c565b61142e9084614954565b905081811415611442576000935050505090565b8161145257612710935050505090565b8181116114805781612710611467838361493d565b61147191906147da565b61147b91906147f9565b610af8565b8161271061148e828461493d565b610aee91906147da565b6000806114ac670de0b6b3a76400006124be565b905060006114c1670de0b6b3a7640000611bf7565b90508181116114d15780826114d4565b81815b9092509050806127106114e7848361493d565b6114f191906147da565b6114fb91906147f9565b9250505090565b61150a611042565b6001600160a01b0316336001600160a01b0316148061153d57503360009081526008602052604090205460ff1615156001145b6115595760405162461bcd60e51b8152600401610922906148de565b600f8190556040518181527f13d3e08a22782064d3062f92ff1101a623b60e3bf91f236b5d1e9fdddfc12a129060200161095c565b6000670de0b6b3a76400006115a260105490565b6115aa611e8e565b6115b491906147da565b610a3f91906147f9565b336115c7611042565b6001600160a01b0316146115ed5760405162461bcd60e51b81526004016109229061476c565b600e805461ffff191661ffff83169081179091556040519081527f36c98a54ec4f90fe58a67bf25cfc1691dbd53639eee3513536d83e8d34fb0a9b9060200161095c565b60608061163c611042565b6001600160a01b0316336001600160a01b0316148061166f57503360009081526008602052604090205460ff1615156001145b61168b5760405162461bcd60e51b8152600401610922906148de565b600c5480611697611498565b11156116b55760405162461bcd60e51b81526004016109229061496c565b600260015414156116d85760405162461bcd60e51b815260040161092290614906565b600260015560006116e761105e565b5093945050891592506117049150505761170188886128c9565b93505b8415611717576117148686612b72565b92505b611722600019612de0565b6040518181527f80f97f878e16410266694f134ddf012f2be424f54f8b5cafa107eccc51d00d589060200160405180910390a1506001805561176261105e565b50505060119290925550929791965090945050505050565b33611783611042565b6001600160a01b0316146117a95760405162461bcd60e51b81526004016109229061476c565b6001600160a01b03811661180e5760405162461bcd60e51b815260206004820152602660248201527f4f776e61626c653a206e6577206f776e657220697320746865207a65726f206160448201526564647265737360d01b6064820152608401610922565b61181781611f84565b50565b611822611042565b6001600160a01b0316336001600160a01b0316148061185557503360009081526008602052604090205460ff1615156001145b6118715760405162461bcd60e51b8152600401610922906148de565b808061187c5750600c545b80611885611498565b11156118a35760405162461bcd60e51b81526004016109229061496c565b600260015414156118c65760405162461bcd60e51b815260040161092290614906565b600260015560006118d5612fe1565b905060006118e1611395565b600e5490915061ffff16811161192b5760405162461bcd60e51b815260206004820152600f60248201526e09098a07440a48a845aa890a48aa69608b1b6044820152606401610922565b816119375750506119c3565b60006119428361315f565b905061196f6103e8611956836103e76147da565b61196091906147f9565b61196a838661493d565b613182565b7fe0b4077da7dfa5015ff10fab6a214f37acc1b23d745f30336942d17e07848c6b6119a1670de0b6b3a76400006124be565b6040805191825260208201859052810185905260600160405180910390a15050505b600180556112da61105e565b6000806119fd6119dd610d30565b6119e5610a69565b6119ed611386565b6001600160a01b031691906132ad565b90939092509050565b6004546001600160a01b031690565b6013546001600160a01b031690565b6016546001600160a01b031690565b801580611aad5750604051636eb1769f60e11b81523060048201526001600160a01b03838116602483015284169063dd62ed3e90604401602060405180830381865afa158015611a87573d6000803e3d6000fd5b505050506040513d601f19601f82011682018060405250810190611aab919061485c565b155b611b185760405162461bcd60e51b815260206004820152603660248201527f5361666545524332303a20617070726f76652066726f6d206e6f6e2d7a65726f60448201527520746f206e6f6e2d7a65726f20616c6c6f77616e636560501b6064820152608401610922565b611b6e8363095ea7b360e01b8484604051602401611b37929190614999565b60408051601f198184030181529190526020810180516001600160e01b03166001600160e01b03199093169290921790915261336d565b505050565b6060611b82848460008561343f565b90505b9392505050565b6000611b96611a15565b6001600160a01b0316633b1d21a26040518163ffffffff1660e01b8152600401602060405180830381865afa158015611bd3573d6000803e3d6000fd5b505050506040513d601f19601f82011682018060405250810190610a3f919061485c565b6000611c01610ea8565b6001600160a01b031663fc57d4df611c176112e9565b6040518263ffffffff1660e01b8152600401611c3391906144f3565b602060405180830381865afa158015611c50573d6000803e3d6000fd5b505050506040513d601f19601f82011682018060405250810190611c74919061485c565b611c7c610ea8565b6001600160a01b031663fc57d4df611c92611a15565b6040518263ffffffff1660e01b8152600401611cae91906144f3565b602060405180830381865afa158015611ccb573d6000803e3d6000fd5b505050506040513d601f19601f82011682018060405250810190611cef919061485c565b611cf990846147da565b610a8391906147f9565b600080611d0e61158e565b905080611d1d81612710614954565b611d2790856147da565b611b8591906147f9565b6000818310611d405781611b85565b5090919050565b6000611d51611a15565b6001600160a01b03166395dd9193306040518263ffffffff1660e01b8152600401611d7c91906144f3565b602060405180830381865afa158015611bd3573d6000803e3d6000fd5b600080611da46112e9565b6001600160a01b03166370a08231306040518263ffffffff1660e01b8152600401611dcf91906144f3565b602060405180830381865afa158015611dec573d6000803e3d6000fd5b505050506040513d601f19601f82011682018060405250810190611e10919061485c565b9050670de0b6b3a7640000611e236112e9565b6001600160a01b031663182df0f56040518163ffffffff1660e01b8152600401602060405180830381865afa158015611e60573d6000803e3d6000fd5b505050506040513d601f19601f82011682018060405250810190611e84919061485c565b610b3190836147da565b600080611e99610ca8565b6001600160a01b0316638e8f294b611eaf6112e9565b6040518263ffffffff1660e01b8152600401611ecb91906144f3565b606060405180830381865afa158015611ee8573d6000803e3d6000fd5b505050506040513d601f19601f82011682018060405250810190611f0c91906149b2565b509392505050565b611b6e8363a9059cbb60e01b8484604051602401611b37929190614999565b600080600080600085875af1905080611b6e5760405162461bcd60e51b815260206004820152601360248201527211551217d514905394d1915497d19052531151606a1b6044820152606401610922565b600080546001600160a01b038381166001600160a01b0319831681178455604051919092169283917f8be0079c531659141344cd1fd0a4f28419497f9722a3daafe3b4186f6b6457e09190a35050565b6000806000611fe1613567565b9050600080611fee6119cf565b915091506000611ffc611386565b6001600160a01b03166318160ddd6040518163ffffffff1660e01b8152600401602060405180830381865afa158015612039573d6000803e3d6000fd5b505050506040513d601f19601f8201168201806040525081019061205d919061485c565b90508061206a85856147da565b61207491906147f9565b95508061208185846147da565b61208b91906147f9565b9450505050509091565b60008060006120a2611fd4565b5090508084106120b85750600093849350915050565b60006120c2613567565b90506000826120d187846147da565b6120db91906147f9565b905060006120e9828461493d565b905060006120f5611386565b6001600160a01b03166370a08231306040518263ffffffff1660e01b815260040161212091906144f3565b602060405180830381865afa15801561213d573d6000803e3d6000fd5b505050506040513d601f19601f82011682018060405250810190612161919061485c565b90508082111561217d5761217d612178828461493d565b6135f5565b81156121915761218c8261365d565b612195565b6000805b965096505050505050915091565b6121ab610a69565b6001600160a01b0316632e1a7d4d826040518263ffffffff1660e01b81526004016121d891815260200190565b600060405180830381600087803b1580156121f257600080fd5b505af1158015612206573d6000803e3d6000fd5b5050505061181781613753565b6020604051808303816000875af1158015612232573d6000803e3d6000fd5b505050506040513d601f19601f82011682018060405250810190612256919061485c565b5050565b6122626112e9565b6001600160a01b031663a0712d68826040518263ffffffff1660e01b815260040161221391815260200190565b6000600c548061229d611498565b11156122bb5760405162461bcd60e51b81526004016109229061496c565b600260015414156122de5760405162461bcd60e51b815260040161092290614906565b6002600155826122f157600091506124a0565b60006122fb612fe1565b90508061230c5760009250506124a0565b600a546040516370a0823160e01b81526000916001600160a01b0316906370a082319061233d9030906004016144f3565b602060405180830381865afa15801561235a573d6000803e3d6000fd5b505050506040513d601f19601f8201168201806040525081019061237e919061485c565b9050848110156123fb57600060001986146123b5576123b0836103e86123a6896103ed6147da565b610a6491906147f9565b6123b7565b825b9050828110156123e357816123d46123cf828461493d565b6137b1565b6123de9190614954565b6123eb565b6123eb6126b0565b90506123f78187611d31565b9550505b61240361105e565b50939550612442935085925061241b91506109cb9050565b612426886001614954565b61243091906147da565b61243a91906147f9565b600554611d31565b935061246430612450611a06565b600a546001600160a01b0316919088613850565b7f884edad9ce6fa2440d8a54cc123490eb96d2768479d49ff9c7366125a94243643386604051612495929190614999565b60405180910390a150505b600180556124ac61105e565b50505060119290925550919392505050565b600081156124e957600b54600a546124e49184916001600160a01b039182169116613871565b610a83565b600092915050565b6000600c54806124ff611498565b111561251d5760405162461bcd60e51b81526004016109229061496c565b600260015414156125405760405162461bcd60e51b815260040161092290614906565b60026001558261255357600091506124a0565b600061255d612fe1565b9050612567610a44565b6125718286614954565b11156125b35760405162461bcd60e51b81526020600482015260116024820152701213140e8813d5915497d3505617d51593607a1b6044820152606401610922565b600554156125df5780846125c660055490565b6125d091906147da565b6125da91906147f9565b6125e1565b835b600a549093506001600160a01b03166323b872dd6125fd611a06565b30876040518463ffffffff1660e01b815260040161261d939291906149f5565b6020604051808303816000875af115801561263c573d6000803e3d6000fd5b505050506040513d601f19601f820116820180604052508101906126609190614a19565b5061266a8461389f565b7fe1fffcc4923d04b559f4d29a8bfc6cda04eb5b0d3c460751c2402c5c5cc9109c338560405161269b929190614999565b60405180910390a150600180556124ac61105e565b60006126bc6000612095565b505060006126c86138f8565b600b546040516370a0823160e01b81529192506000916001600160a01b03909116906370a08231906126fe9030906004016144f3565b602060405180830381865afa15801561271b573d6000803e3d6000fd5b505050506040513d601f19601f8201168201806040525081019061273f919061485c565b90508082111561278857612782612756828461493d565b600a54600b546001600160a01b039182169116612771611386565b6001600160a01b031692919061394c565b506127cb565b818111156127cb576127c961279d838361493d565b600b54600a546001600160a01b0391821691166127b8611386565b6001600160a01b0316929190613a2b565b505b600b546040516370a0823160e01b8152612843916001600160a01b0316906370a08231906127fd9030906004016144f3565b602060405180830381865afa15801561281a573d6000803e3d6000fd5b505050506040513d601f19601f8201168201806040525081019061283e919061485c565b6121a3565b600061284d613a8c565b905061285881613ac1565b600a546040516370a0823160e01b81526001600160a01b03909116906370a08231906128889030906004016144f3565b602060405180830381865afa1580156128a5573d6000803e3d6000fd5b505050506040513d601f19601f82011682018060405250810190610af8919061485c565b601854601c54604051631c57762b60e31b81526060926001600160a01b03169163e2bbb158916128ff9190600090600401614729565b600060405180830381600087803b15801561291957600080fd5b505af115801561292d573d6000803e3d6000fd5b506001925061293a915050565b604051908082528060200260200182016040528015612963578160200160208202803683370190505b50601a546040516370a0823160e01b81529192506001600160a01b0316906370a08231906129959030906004016144f3565b602060405180830381865afa1580156129b2573d6000803e3d6000fd5b505050506040513d601f19601f820116820180604052508101906129d6919061485c565b816000815181106129e9576129e9614846565b60200260200101818152505080600081518110612a0857612a08614846565b602002602001015160001415612a1d57610a83565b601954612a7f906001600160a01b03168484600081612a3e57612a3e614846565b9050602002810190612a509190614a4c565b601a5484516001600160a01b03909116908590600090612a7257612a72614846565b6020026020010151613b3b565b601a5481516001600160a01b0390911690600080516020614cba833981519152908390600090612ab157612ab1614846565b6020026020010151604051612ac891815260200190565b60405180910390a2478015612b6b57612adf610a69565b6001600160a01b031663d0e30db0826040518263ffffffff1660e01b81526004016000604051808303818588803b158015612b1957600080fd5b505af1158015612b2d573d6000803e3d6000fd5b5050505050612b3a610a69565b6001600160a01b0316600080516020614cba83398151915282604051612b6291815260200190565b60405180910390a25b5092915050565b6060612b7c610ca8565b6001600160a01b0316630952c5636000306040518363ffffffff1660e01b8152600401612baa929190614a6c565b600060405180830381600087803b158015612bc457600080fd5b505af1158015612bd8573d6000803e3d6000fd5b5060019250612be5915050565b604051908082528060200260200182016040528015612c0e578160200160208202803683370190505b506017546040516370a0823160e01b81529192506001600160a01b0316906370a0823190612c409030906004016144f3565b602060405180830381865afa158015612c5d573d6000803e3d6000fd5b505050506040513d601f19601f82011682018060405250810190612c81919061485c565b81600081518110612c9457612c94614846565b602002602001018181525050600081600081518110612cb557612cb5614846565b60200260200101511115612d6757612d15612cce611a24565b84846000818110612ce157612ce1614846565b9050602002810190612cf39190614a4c565b60175484516001600160a01b03909116908590600090612a7257612a72614846565b60175481516001600160a01b0390911690600080516020614cba833981519152908390600090612d4757612d47614846565b6020026020010151604051612d5e91815260200190565b60405180910390a25b612d6f610ca8565b6001600160a01b0316630952c5636001306040518363ffffffff1660e01b8152600401612d9d929190614a6c565b600060405180830381600087803b158015612db757600080fd5b505af1158015612dcb573d6000803e3d6000fd5b504792505081159050612b6b57612adf610a69565b600a546040516370a0823160e01b81526000916001600160a01b0316906370a0823190612e119030906004016144f3565b602060405180830381865afa158015612e2e573d6000803e3d6000fd5b505050506040513d601f19601f82011682018060405250810190612e52919061485c565b600b546040516370a0823160e01b81529192506000916001600160a01b03909116906370a0823190612e889030906004016144f3565b602060405180830381865afa158015612ea5573d6000803e3d6000fd5b505050506040513d601f19601f82011682018060405250810190612ec9919061485c565b90506000612ed5611fd4565b91505080841015612ee65750505050565b6000612f146002612ef686613ce0565b612f009086614954565b612f0a91906147f9565b610a64848861493d565b90506000612f21826124be565b905084811015612f6757612f53612f38828761493d565b600a54600b546001600160a01b0391821691166127b8611386565b612f5d9085614954565b9350809450612f8c565b81841115612f8c57612f7c61279d838661493d565b612f869086614954565b94508193505b836000612f98826124be565b905080871015612fb0575085612fad81613ce0565b91505b80612fbf575050505050505050565b6000612fcb8284613d06565b9050612fd681613da6565b505050505050505050565b600080612fec613a8c565b90506000612ff86138f8565b90506000613005826124be565b600b546040516370a0823160e01b81529192506000916001600160a01b03909116906370a082319061303b9030906004016144f3565b602060405180830381865afa158015613058573d6000803e3d6000fd5b505050506040513d601f19601f8201168201806040525081019061307c919061485c565b9050600081156130945761308f826124be565b613097565b60005b905060006130a3611fd4565b50600a546040516370a0823160e01b81529192506000916001600160a01b03909116906370a08231906130da9030906004016144f3565b602060405180830381865afa1580156130f7573d6000803e3d6000fd5b505050506040513d601f19601f8201168201806040525081019061311b919061485c565b905082818661312b8560026147da565b613135908b614954565b61313f919061493d565b6131499190614954565b6131539190614954565b97505050505050505090565b60008061316a61158e565b905061317881612710614954565b611d2782856147da565b600061318d83613ce0565b90506000613199611d47565b9050808211156131ea576131c560006131b28686613dd9565b116131bd5784612095565b60005b612095565b50506131d083613e4d565b506131e590506131e0828461493d565b613eaa565b61329e565b8082101561329e576131fc6000612095565b5050600b546040516370a0823160e01b8152600091613280916001600160a01b03909116906370a08231906132359030906004016144f3565b602060405180830381865afa158015613252573d6000803e3d6000fd5b505050506040513d601f19601f82011682018060405250810190613276919061485c565b610a64858561493d565b9050801561329157613291816121a3565b61329a84613e4d565b5050505b6132a782612de0565b50505050565b60008060006132bc8585613f65565b509050600080876001600160a01b0316630902f1ac6040518163ffffffff1660e01b8152600401606060405180830381865afa158015613300573d6000803e3d6000fd5b505050506040513d601f19601f820116820180604052508101906133249190614aa4565b506001600160701b031691506001600160701b03169150826001600160a01b0316876001600160a01b03161461335b57808261335e565b81815b90999098509650505050505050565b60006133c2826040518060400160405280602081526020017f5361666545524332303a206c6f772d6c6576656c2063616c6c206661696c6564815250856001600160a01b0316611b739092919063ffffffff16565b805190915015611b6e57808060200190518101906133e09190614a19565b611b6e5760405162461bcd60e51b815260206004820152602a60248201527f5361666545524332303a204552433230206f7065726174696f6e20646964206e6044820152691bdd081cdd58d8d9595960b21b6064820152608401610922565b6060824710156134a05760405162461bcd60e51b815260206004820152602660248201527f416464726573733a20696e73756666696369656e742062616c616e636520666f6044820152651c8818d85b1b60d21b6064820152608401610922565b843b6134ee5760405162461bcd60e51b815260206004820152601d60248201527f416464726573733a2063616c6c20746f206e6f6e2d636f6e74726163740000006044820152606401610922565b600080866001600160a01b0316858760405161350a9190614ae9565b60006040518083038185875af1925050503d8060008114613547576040519150601f19603f3d011682016040523d82523d6000602084013e61354c565b606091505b509150915061355c828286614048565b979650505050505050565b600080613572614081565b601b546040516370a0823160e01b81529192506000916001600160a01b03909116906370a08231906135a89030906004016144f3565b602060405180830381865afa1580156135c5573d6000803e3d6000fd5b505050506040513d601f19601f820116820180604052508101906135e9919061485c565b90506114fb8183614954565b601854601c54604051630441a3e760e41b81526001600160a01b039092169163441a3e7091613628918590600401614729565b600060405180830381600087803b15801561364257600080fd5b505af1158015613656573d6000803e3d6000fd5b5050505050565b60008061368461366b611386565b84613674611386565b6001600160a01b03169190611f14565b600061369e613691610d30565b613699610a69565b613f65565b5090506000806136ac611386565b6001600160a01b03166389afcb44306040518263ffffffff1660e01b81526004016136d791906144f3565b60408051808303816000875af11580156136f5573d6000803e3d6000fd5b505050506040513d601f19601f820116820180604052508101906137199190614afb565b91509150613725610d30565b6001600160a01b0316836001600160a01b031614613744578082613747565b81815b94509450505050915091565b61375b611a15565b6001600160a01b0316634e4d9fea826040518263ffffffff1660e01b81526004016000604051808303818588803b15801561379557600080fd5b505af11580156137a9573d6000803e3d6000fd5b505050505050565b6000806137bd8361315f565b905060006137c9611fd4565b50905060006137d6611d47565b905060006137e384613ce0565b905082841015806137f45750818110155b1561380b576138016126b0565b9695505050505050565b60008061381b6131c0878761493d565b91509150613828816121a3565b61383a613835838a61493d565b6140fc565b6138449083614954565b98975050505050505050565b6132a7846323b872dd60e01b858585604051602401611b37939291906149f5565b60008361388057506000611b85565b60008061389085856119ed611386565b9150915061380186838361412f565b6103e88110156138ac5750565b60006138b78261315f565b905060006138c482613ce0565b90506138d86138d3838561493d565b61225a565b6138e181613eaa565b60006138ed8383613d06565b90506132a781613da6565b6000613902611a15565b6001600160a01b03166317bfdfbc306040518263ffffffff1660e01b815260040161392d91906144f3565b6020604051808303816000875af1158015611bd3573d6000803e3d6000fd5b60008061395b868686866141f1565b905060006139698486613f65565b509050600080826001600160a01b0316876001600160a01b03161461399057876000613994565b6000885b90925090506139ad6001600160a01b0388168a86611f14565b6040805160008152602081019182905263022c0d9f60e01b9091526001600160a01b038a169063022c0d9f906139ec9085908590309060248101614b1f565b600060405180830381600087803b158015613a0657600080fd5b505af1158015613a1a573d6000803e3d6000fd5b50959b9a5050505050505050505050565b600080613a3a868686866142b7565b90506000613a488486613f65565b509050600080826001600160a01b0316876001600160a01b031614613a6f57836000613a73565b6000845b90925090506139ad6001600160a01b0388168a8a611f14565b6000613a966112e9565b6001600160a01b0316633af9e669306040518263ffffffff1660e01b815260040161392d91906144f3565b6000613acb6112e9565b6001600160a01b031663852a12e3836040518263ffffffff1660e01b8152600401613af891815260200190565b6020604051808303816000875af1158015613b17573d6000803e3d6000fd5b505050506040513d601f19601f82011682018060405250810190611b6e919061485c565b6000613b478480614b4c565b6001613b538780614b4c565b613b5e92915061493d565b818110613b6d57613b6d614846565b9050602002016020810190613b829190614535565b90506001600160a01b038316613b988580614b4c565b6000818110613ba957613ba9614846565b9050602002016020810190613bbe9190614535565b6001600160a01b0316148015613bec5750613bd7610a69565b6001600160a01b0316816001600160a01b0316145b80613c0f5750613bfa610d30565b6001600160a01b0316816001600160a01b0316145b613c535760405162461bcd60e51b81526020600482015260156024820152740928cc2e4dac2c4d8ca7440aea49e9c8ebea082a89605b1b6044820152606401610922565b6001600160a01b0385166338ed1739836020870135613c728880614b4c565b308a604001356040518763ffffffff1660e01b8152600401613c9996959493929190614b95565b6000604051808303816000875af1158015613cb8573d6000803e3d6000fd5b505050506040513d6000823e601f3d908101601f191682016040526137a99190810190614c08565b600081156124e957600a54600b546124e49184916001600160a01b039182169116613871565b6000613d1c613d13611386565b84613674610d30565b613d30613d27611386565b83613674610a69565b613d38611386565b6001600160a01b0316636a627842306040518263ffffffff1660e01b8152600401613d6391906144f3565b6020604051808303816000875af1158015613d82573d6000803e3d6000fd5b505050506040513d601f19601f82011682018060405250810190611b85919061485c565b601854601c54604051631c57762b60e31b81526001600160a01b039092169163e2bbb15891613628918590600401614729565b600080613de4611d99565b905080831015613df8576000915050610a83565b6000613e02611fd4565b5090506000818611613e15576000613e1f565b613e1f828761493d565b90506000613e2d848761493d565b9050808210613e43576000945050505050610a83565b61355c828261493d565b6000806000613e5a611d99565b905083811415613e705750600093849350915050565b838111613e9057613e89613e84828661493d565b614378565b6000613e9f565b6000613e9f613835868461493d565b909590945092505050565b613eb2611a15565b6001600160a01b031663c5ebeaec826040518263ffffffff1660e01b8152600401613edf91815260200190565b6020604051808303816000875af1158015613efe573d6000803e3d6000fd5b505050506040513d601f19601f82011682018060405250810190613f22919061485c565b50613f2b610a69565b6001600160a01b031663d0e30db0826040518263ffffffff1660e01b81526004016000604051808303818588803b15801561379557600080fd5b600080826001600160a01b0316846001600160a01b03161415613fca5760405162461bcd60e51b815260206004820152601d60248201527f556e695574696c733a204944454e544943414c5f4144445245535345530000006044820152606401610922565b826001600160a01b0316846001600160a01b031610613fea578284613fed565b83835b90925090506001600160a01b0382166140415760405162461bcd60e51b8152602060048201526016602482015275556e695574696c733a205a45524f5f4144445245535360501b6044820152606401610922565b9250929050565b60608315614057575081611b85565b8251156140675782518084602001fd5b8160405162461bcd60e51b815260040161092291906144e0565b601854601c546040516393f1a40b60e01b8152600481019190915230602482015260009182916001600160a01b03909116906393f1a40b906044016040805180830381865afa1580156140d8573d6000803e3d6000fd5b505050506040513d601f19601f82011682018060405250810190612b6b9190614afb565b600080614107614411565b90508281116141165780614118565b825b915081156141295761412982613ac1565b50919050565b60008084116141805760405162461bcd60e51b815260206004820152601d60248201527f556e695574696c733a20494e53554646494349454e545f414d4f554e540000006044820152606401610922565b6000831180156141905750600082115b6141dc5760405162461bcd60e51b815260206004820181905260248201527f556e695574696c733a20494e53554646494349454e545f4c49515549444954596044820152606401610922565b826141e783866147da565b611b8291906147f9565b600080841161424e5760405162461bcd60e51b8152602060048201526024808201527f556e695574696c733a20494e53554646494349454e545f4f55545055545f414d60448201526313d5539560e21b6064820152608401610922565b60008061425c8786866132ad565b9092509050600061426d87846147da565b614279906103e86147da565b90506000614287888461493d565b614293906103e56147da565b905061429f81836147f9565b6142aa906001614954565b9998505050505050505050565b60008084116143145760405162461bcd60e51b815260206004820152602360248201527f556e695574696c733a20494e53554646494349454e545f494e5055545f414d4f60448201526215539560ea1b6064820152608401610922565b6000806143228786866132ad565b90925090506000614335876103e56147da565b9050600061434383836147da565b9050600082614354866103e86147da565b61435e9190614954565b905061436a81836147f9565b9a9950505050505050505050565b600080614383610d30565b6001600160a01b03166370a08231306040518263ffffffff1660e01b81526004016143ae91906144f3565b602060405180830381865afa1580156143cb573d6000803e3d6000fd5b505050506040513d601f19601f820116820180604052508101906143ef919061485c565b90508281116143fe5780614400565b825b91508115614129576141298261225a565b60008061441c611d99565b9050600061442b610a5a611d47565b905060006063614439611e8e565b61444b84670de0b6b3a76400006147da565b6144569060646147da565b61446091906147f9565b61446a91906147f9565b90508281111561447e576000935050505090565b610af8818461493d565b60005b838110156144a357818101518382015260200161448b565b838111156132a75750506000910152565b600081518084526144cc816020860160208601614488565b601f01601f19169290920160200192915050565b602081526000611b8560208301846144b4565b6001600160a01b0391909116815260200190565b60006020828403121561451957600080fd5b5035919050565b6001600160a01b038116811461181757600080fd5b60006020828403121561454757600080fd5b8135611b8581614520565b60008083601f84011261456457600080fd5b5081356001600160401b0381111561457b57600080fd5b6020830191508360208260051b850101111561404157600080fd5b6000806000604084860312156145ab57600080fd5b83356145b681614520565b925060208401356001600160401b038111156145d157600080fd5b6145dd86828701614552565b9497909650939450505050565b801515811461181757600080fd5b6000806040838503121561460b57600080fd5b823561461681614520565b91506020830135614626816145ea565b809150509250929050565b60006020828403121561464357600080fd5b813561ffff81168114611b8557600080fd5b6000806000806040858703121561466b57600080fd5b84356001600160401b038082111561468257600080fd5b61468e88838901614552565b909650945060208701359150808211156146a757600080fd5b506146b487828801614552565b95989497509550505050565b600081518084526020808501945080840160005b838110156146f0578151875295820195908201906001016146d4565b509495945050505050565b60408152600061470e60408301856146c0565b828103602084015261472081856146c0565b95945050505050565b918252602082015260400190565b600181811c9082168061474b57607f821691505b6020821081141561412957634e487b7160e01b600052602260045260246000fd5b6020808252818101527f4f776e61626c653a2063616c6c6572206973206e6f7420746865206f776e6572604082015260600190565b6000602082840312156147b357600080fd5b815160ff81168114611b8557600080fd5b634e487b7160e01b600052601160045260246000fd5b60008160001904831182151516156147f4576147f46147c4565b500290565b60008261481657634e487b7160e01b600052601260045260246000fd5b500490565b60208082526011908201527014dd1c985d0e8813d3931657d590555315607a1b604082015260600190565b634e487b7160e01b600052603260045260246000fd5b60006020828403121561486e57600080fd5b5051919050565b6000600019821415614889576148896147c4565b5060010190565b60208082528181018390526000908460408401835b868110156148d35782356148b881614520565b6001600160a01b0316825291830191908301906001016148a5565b509695505050505050565b6020808252600e908201526d0a6e8e4c2e874409c9ebe82aaa8960931b604082015260600190565b6020808252601f908201527f5265656e7472616e637947756172643a207265656e7472616e742063616c6c00604082015260600190565b60008282101561494f5761494f6147c4565b500390565b60008219821115614967576149676147c4565b500190565b60208082526013908201527209098a07440a0a492868abe9a92a69a82a8869606b1b604082015260600190565b6001600160a01b03929092168252602082015260400190565b6000806000606084860312156149c757600080fd5b83516149d2816145ea565b6020850151604086015191945092506149ea816145ea565b809150509250925092565b6001600160a01b039384168152919092166020820152604081019190915260600190565b600060208284031215614a2b57600080fd5b8151611b85816145ea565b634e487b7160e01b600052604160045260246000fd5b60008235605e19833603018112614a6257600080fd5b9190910192915050565b60ff9290921682526001600160a01b0316602082015260400190565b80516001600160701b0381168114614a9f57600080fd5b919050565b600080600060608486031215614ab957600080fd5b614ac284614a88565b9250614ad060208501614a88565b9150604084015163ffffffff811681146149ea57600080fd5b60008251614a62818460208701614488565b60008060408385031215614b0e57600080fd5b505080516020909101519092909150565b84815283602082015260018060a01b038316604082015260806060820152600061380160808301846144b4565b6000808335601e19843603018112614b6357600080fd5b8301803591506001600160401b03821115614b7d57600080fd5b6020019150600581901b360382131561404157600080fd5b868152602080820187905260a0604083018190528201859052600090869060c08401835b88811015614be7578335614bcc81614520565b6001600160a01b031682529282019290820190600101614bb9565b506001600160a01b0396909616606085015250505060800152949350505050565b60006020808385031215614c1b57600080fd5b82516001600160401b0380821115614c3257600080fd5b818501915085601f830112614c4657600080fd5b815181811115614c5857614c58614a36565b8060051b604051601f19603f83011681018181108582111715614c7d57614c7d614a36565b604052918252848201925083810185019188831115614c9b57600080fd5b938501935b8285101561384457845184529385019392850192614ca056fe3efad319b6afe1e0317f51df66abdc4d7a7c8b1cfda31f03440b4ad255af7245a2646970667358221220560a575531386b8f3fdd8f8afdf2fc19f99efd2998f041e7114e3138d3f5687064736f6c634300080a0033",
  "libraries": {
    "UniUtils": "0x92dBEa6fa85A1cd839b604D1F2852ABfb7Fa2897"
  },
  "devdoc": {
    "kind": "dev",
    "methods": {
      "getMaxTvl()": {
        "returns": {
          "_0": "MaxTvl"
        }
      },
      "isCEther()": {
        "details": "Only present in Fuse cTokens, not Compound cTokens.",
        "returns": {
          "_0": "True if the strategy accepts ETH, false otherwise."
        }
      },
      "owner()": {
        "details": "Returns the address of the current owner."
      },
      "redeemUnderlying(uint256)": {
        "params": {
          "amount": "The amount of underlying tokens to withdraw."
        },
        "returns": {
          "errCode": "An error code, or 0 if the withdrawal was successful."
        }
      },
      "renounceOwnership()": {
        "details": "Leaves the contract without owner. It will not be possible to call `onlyOwner` functions anymore. Can only be called by the current owner. NOTE: Renouncing ownership will leave the contract without an owner, thereby removing any functionality that is only available to the owner."
      },
      "transferOwnership(address)": {
        "details": "Transfers ownership of the contract to a new account (`newOwner`). Can only be called by the current owner."
      }
    },
    "version": 1
  },
  "userdoc": {
    "kind": "user",
    "methods": {
      "emergencyWithdraw(address,address[])": {
        "notice": "Withdraws any ERC20 tokens back to recipient."
      },
      "getMaxTvl()": {
        "notice": "Returns max deposits a strategy can take."
      },
      "getPricePerShare()": {
        "notice": "Returns the share price of the strategy in `underlying` units, multiplied  by 1e18"
      },
      "isCEther()": {
        "notice": "Returns whether the strategy accepts ETH or an ERC20."
      },
      "redeemUnderlying(uint256)": {
        "notice": "Withdraws a specific amount of underlying tokens from the strategy."
      }
    },
    "version": 1
  },
  "storageLayout": {
    "storage": [
      {
        "astId": 2661,
        "contract": "src/strategies/implementations/USDCmovrSOLARwell.sol:USDCmovrSOLARwell",
        "label": "_owner",
        "offset": 0,
        "slot": "0",
        "type": "t_address"
      },
      {
        "astId": 3337,
        "contract": "src/strategies/implementations/USDCmovrSOLARwell.sol:USDCmovrSOLARwell",
        "label": "_status",
        "offset": 0,
        "slot": "1",
        "type": "t_uint256"
      },
      {
        "astId": 18262,
        "contract": "src/strategies/implementations/USDCmovrSOLARwell.sol:USDCmovrSOLARwell",
        "label": "isIntialized",
        "offset": 0,
        "slot": "2",
        "type": "t_bool"
      },
      {
        "astId": 19464,
        "contract": "src/strategies/implementations/USDCmovrSOLARwell.sol:USDCmovrSOLARwell",
        "label": "isInitialized",
        "offset": 1,
        "slot": "2",
        "type": "t_bool"
      },
      {
        "astId": 19469,
        "contract": "src/strategies/implementations/USDCmovrSOLARwell.sol:USDCmovrSOLARwell",
        "label": "lastHarvest",
        "offset": 0,
        "slot": "3",
        "type": "t_uint256"
      },
      {
        "astId": 19471,
        "contract": "src/strategies/implementations/USDCmovrSOLARwell.sol:USDCmovrSOLARwell",
        "label": "_vault",
        "offset": 0,
        "slot": "4",
        "type": "t_address"
      },
      {
        "astId": 19473,
        "contract": "src/strategies/implementations/USDCmovrSOLARwell.sol:USDCmovrSOLARwell",
        "label": "_shares",
        "offset": 0,
        "slot": "5",
        "type": "t_uint256"
      },
      {
        "astId": 19475,
        "contract": "src/strategies/implementations/USDCmovrSOLARwell.sol:USDCmovrSOLARwell",
        "label": "name",
        "offset": 0,
        "slot": "6",
        "type": "t_string_storage"
      },
      {
        "astId": 19477,
        "contract": "src/strategies/implementations/USDCmovrSOLARwell.sol:USDCmovrSOLARwell",
        "label": "symbol",
        "offset": 0,
        "slot": "7",
        "type": "t_string_storage"
      },
      {
        "astId": 19481,
        "contract": "src/strategies/implementations/USDCmovrSOLARwell.sol:USDCmovrSOLARwell",
        "label": "_managers",
        "offset": 0,
        "slot": "8",
        "type": "t_mapping(t_address,t_bool)"
      },
      {
        "astId": 19483,
        "contract": "src/strategies/implementations/USDCmovrSOLARwell.sol:USDCmovrSOLARwell",
        "label": "BASE_UNIT",
        "offset": 0,
        "slot": "9",
        "type": "t_uint256"
      },
      {
        "astId": 19876,
        "contract": "src/strategies/implementations/USDCmovrSOLARwell.sol:USDCmovrSOLARwell",
        "label": "_underlying",
        "offset": 0,
        "slot": "10",
        "type": "t_contract(IERC20)3990"
      },
      {
        "astId": 19879,
        "contract": "src/strategies/implementations/USDCmovrSOLARwell.sol:USDCmovrSOLARwell",
        "label": "_short",
        "offset": 0,
        "slot": "11",
        "type": "t_contract(IERC20)3990"
      },
      {
        "astId": 19882,
        "contract": "src/strategies/implementations/USDCmovrSOLARwell.sol:USDCmovrSOLARwell",
        "label": "maxPriceMismatch",
        "offset": 0,
        "slot": "12",
        "type": "t_uint256"
      },
      {
        "astId": 19888,
        "contract": "src/strategies/implementations/USDCmovrSOLARwell.sol:USDCmovrSOLARwell",
        "label": "minLoanHealth",
        "offset": 0,
        "slot": "13",
        "type": "t_uint256"
      },
      {
        "astId": 19891,
        "contract": "src/strategies/implementations/USDCmovrSOLARwell.sol:USDCmovrSOLARwell",
        "label": "rebalanceThreshold",
        "offset": 0,
        "slot": "14",
        "type": "t_uint16"
      },
      {
        "astId": 19893,
        "contract": "src/strategies/implementations/USDCmovrSOLARwell.sol:USDCmovrSOLARwell",
        "label": "_maxTvl",
        "offset": 0,
        "slot": "15",
        "type": "t_uint256"
      },
      {
        "astId": 19896,
        "contract": "src/strategies/implementations/USDCmovrSOLARwell.sol:USDCmovrSOLARwell",
        "label": "_safeCollateralRatio",
        "offset": 0,
        "slot": "16",
        "type": "t_uint256"
      },
      {
        "astId": 19898,
        "contract": "src/strategies/implementations/USDCmovrSOLARwell.sol:USDCmovrSOLARwell",
        "label": "_cachedBalanceOfUnderlying",
        "offset": 0,
        "slot": "17",
        "type": "t_uint256"
      },
      {
        "astId": 21705,
        "contract": "src/strategies/implementations/USDCmovrSOLARwell.sol:USDCmovrSOLARwell",
        "label": "_cTokenLend",
        "offset": 0,
        "slot": "18",
        "type": "t_contract(ICTokenErc20)16320"
      },
      {
        "astId": 21708,
        "contract": "src/strategies/implementations/USDCmovrSOLARwell.sol:USDCmovrSOLARwell",
        "label": "_cTokenBorrow",
        "offset": 0,
        "slot": "19",
        "type": "t_contract(ICTokenErc20)16320"
      },
      {
        "astId": 21711,
        "contract": "src/strategies/implementations/USDCmovrSOLARwell.sol:USDCmovrSOLARwell",
        "label": "_comptroller",
        "offset": 0,
        "slot": "20",
        "type": "t_contract(IComptroller)16562"
      },
      {
        "astId": 21714,
        "contract": "src/strategies/implementations/USDCmovrSOLARwell.sol:USDCmovrSOLARwell",
        "label": "_oracle",
        "offset": 0,
        "slot": "21",
        "type": "t_contract(ICompPriceOracle)16343"
      },
      {
        "astId": 21846,
        "contract": "src/strategies/implementations/USDCmovrSOLARwell.sol:USDCmovrSOLARwell",
        "label": "_router",
        "offset": 0,
        "slot": "22",
        "type": "t_contract(IUniswapV2Router01)17510"
      },
      {
        "astId": 21849,
        "contract": "src/strategies/implementations/USDCmovrSOLARwell.sol:USDCmovrSOLARwell",
        "label": "_farmToken",
        "offset": 0,
        "slot": "23",
        "type": "t_contract(IERC20)3990"
      },
      {
        "astId": 22026,
        "contract": "src/strategies/implementations/USDCmovrSOLARwell.sol:USDCmovrSOLARwell",
        "label": "_farm",
        "offset": 0,
        "slot": "24",
        "type": "t_contract(IMasterChef)16819"
      },
      {
        "astId": 22029,
        "contract": "src/strategies/implementations/USDCmovrSOLARwell.sol:USDCmovrSOLARwell",
        "label": "_router",
        "offset": 0,
        "slot": "25",
        "type": "t_contract(IUniswapV2Router01)17510"
      },
      {
        "astId": 22032,
        "contract": "src/strategies/implementations/USDCmovrSOLARwell.sol:USDCmovrSOLARwell",
        "label": "_farmToken",
        "offset": 0,
        "slot": "26",
        "type": "t_contract(IERC20)3990"
      },
      {
        "astId": 22035,
        "contract": "src/strategies/implementations/USDCmovrSOLARwell.sol:USDCmovrSOLARwell",
        "label": "_pair",
        "offset": 0,
        "slot": "27",
        "type": "t_contract(IUniswapV2Pair)17202"
      },
      {
        "astId": 22037,
        "contract": "src/strategies/implementations/USDCmovrSOLARwell.sol:USDCmovrSOLARwell",
        "label": "_farmId",
        "offset": 0,
        "slot": "28",
        "type": "t_uint256"
      }
    ],
    "types": {
      "t_address": {
        "encoding": "inplace",
        "label": "address",
        "numberOfBytes": "20"
      },
      "t_bool": {
        "encoding": "inplace",
        "label": "bool",
        "numberOfBytes": "1"
      },
      "t_contract(ICTokenErc20)16320": {
        "encoding": "inplace",
        "label": "contract ICTokenErc20",
        "numberOfBytes": "20"
      },
      "t_contract(ICompPriceOracle)16343": {
        "encoding": "inplace",
        "label": "contract ICompPriceOracle",
        "numberOfBytes": "20"
      },
      "t_contract(IComptroller)16562": {
        "encoding": "inplace",
        "label": "contract IComptroller",
        "numberOfBytes": "20"
      },
      "t_contract(IERC20)3990": {
        "encoding": "inplace",
        "label": "contract IERC20",
        "numberOfBytes": "20"
      },
      "t_contract(IMasterChef)16819": {
        "encoding": "inplace",
        "label": "contract IMasterChef",
        "numberOfBytes": "20"
      },
      "t_contract(IUniswapV2Pair)17202": {
        "encoding": "inplace",
        "label": "contract IUniswapV2Pair",
        "numberOfBytes": "20"
      },
      "t_contract(IUniswapV2Router01)17510": {
        "encoding": "inplace",
        "label": "contract IUniswapV2Router01",
        "numberOfBytes": "20"
      },
      "t_mapping(t_address,t_bool)": {
        "encoding": "mapping",
        "key": "t_address",
        "label": "mapping(address => bool)",
        "numberOfBytes": "32",
        "value": "t_bool"
      },
      "t_string_storage": {
        "encoding": "bytes",
        "label": "string",
        "numberOfBytes": "32"
      },
      "t_uint16": {
        "encoding": "inplace",
        "label": "uint16",
        "numberOfBytes": "2"
      },
      "t_uint256": {
        "encoding": "inplace",
        "label": "uint256",
        "numberOfBytes": "32"
      }
    }
  }
}