{
  "address": "0x9ac19a2fa7d3ed36039d64865f5e5baa3994c2ba",
  "abi": [
    {
      "inputs": [],
      "stateMutability": "nonpayable",
      "type": "constructor"
    },
    {
      "anonymous": false,
      "inputs": [
        {
          "indexed": false,
          "internalType": "address",
          "name": "sender",
          "type": "address"
        },
        {
          "indexed": false,
          "internalType": "uint256",
          "name": "amount",
          "type": "uint256"
        }
      ],
      "name": "Deposit",
      "type": "event"
    },
    {
      "anonymous": false,
      "inputs": [
        {
          "indexed": false,
          "internalType": "uint256",
          "name": "harvested",
          "type": "uint256"
        }
      ],
      "name": "Harvest",
      "type": "event"
    },
    {
      "anonymous": false,
      "inputs": [
        {
          "indexed": false,
          "internalType": "uint256",
          "name": "harvest0",
          "type": "uint256"
        },
        {
          "indexed": false,
          "internalType": "uint256",
          "name": "harvest1",
          "type": "uint256"
        },
        {
          "indexed": false,
          "internalType": "uint256",
          "name": "harvest2",
          "type": "uint256"
        }
      ],
      "name": "LendHarvest",
      "type": "event"
    },
    {
      "anonymous": false,
      "inputs": [
        {
          "indexed": false,
          "internalType": "uint256",
          "name": "harvest",
          "type": "uint256"
        }
      ],
      "name": "LpHarvest",
      "type": "event"
    },
    {
      "anonymous": false,
      "inputs": [
        {
          "indexed": true,
          "internalType": "address",
          "name": "account",
          "type": "address"
        },
        {
          "indexed": false,
          "internalType": "bool",
          "name": "isManager",
          "type": "bool"
        }
      ],
      "name": "ManagerUpdate",
      "type": "event"
    },
    {
      "anonymous": false,
      "inputs": [
        {
          "indexed": true,
          "internalType": "address",
          "name": "previousOwner",
          "type": "address"
        },
        {
          "indexed": true,
          "internalType": "address",
          "name": "newOwner",
          "type": "address"
        }
      ],
      "name": "OwnershipTransferred",
      "type": "event"
    },
    {
      "anonymous": false,
      "inputs": [
        {
          "indexed": false,
          "internalType": "uint256",
          "name": "shortPrice",
          "type": "uint256"
        },
        {
          "indexed": false,
          "internalType": "uint256",
          "name": "tvlBeforeRebalance",
          "type": "uint256"
        },
        {
          "indexed": false,
          "internalType": "uint256",
          "name": "positionOffset",
          "type": "uint256"
        }
      ],
      "name": "Rebalance",
      "type": "event"
    },
    {
      "anonymous": false,
      "inputs": [],
      "name": "Upgrade",
      "type": "event"
    },
    {
      "anonymous": false,
      "inputs": [
        {
          "indexed": false,
          "internalType": "address",
          "name": "sender",
          "type": "address"
        },
        {
          "indexed": false,
          "internalType": "uint256",
          "name": "amount",
          "type": "uint256"
        }
      ],
      "name": "Withdraw",
      "type": "event"
    },
    {
      "inputs": [],
      "name": "BASE_UNIT",
      "outputs": [
        {
          "internalType": "uint256",
          "name": "",
          "type": "uint256"
        }
      ],
      "stateMutability": "view",
      "type": "function"
    },
    {
      "inputs": [
        {
          "internalType": "contract IUniswapV2Pair",
          "name": "pair",
          "type": "address"
        },
        {
          "internalType": "uint256",
          "name": "amountIn",
          "type": "uint256"
        },
        {
          "internalType": "address",
          "name": "inToken",
          "type": "address"
        },
        {
          "internalType": "address",
          "name": "outToken",
          "type": "address"
        }
      ],
      "name": "_swapExactTokensForTokens",
      "outputs": [
        {
          "internalType": "uint256",
          "name": "",
          "type": "uint256"
        }
      ],
      "stateMutability": "nonpayable",
      "type": "function"
    },
    {
      "inputs": [
        {
          "internalType": "contract IUniswapV2Pair",
          "name": "pair",
          "type": "address"
        },
        {
          "internalType": "uint256",
          "name": "amountOut",
          "type": "uint256"
        },
        {
          "internalType": "address",
          "name": "inToken",
          "type": "address"
        },
        {
          "internalType": "address",
          "name": "outToken",
          "type": "address"
        }
      ],
      "name": "_swapTokensForExactTokens",
      "outputs": [
        {
          "internalType": "uint256",
          "name": "",
          "type": "uint256"
        }
      ],
      "stateMutability": "nonpayable",
      "type": "function"
    },
    {
      "inputs": [
        {
          "internalType": "address",
          "name": "",
          "type": "address"
        }
      ],
      "name": "balanceOfUnderlying",
      "outputs": [
        {
          "internalType": "uint256",
          "name": "",
          "type": "uint256"
        }
      ],
      "stateMutability": "view",
      "type": "function"
    },
    {
      "inputs": [],
      "name": "balanceOfUnderlying",
      "outputs": [
        {
          "internalType": "uint256",
          "name": "assets",
          "type": "uint256"
        }
      ],
      "stateMutability": "view",
      "type": "function"
    },
    {
      "inputs": [],
      "name": "cTokenBorrow",
      "outputs": [
        {
          "internalType": "contract ICTokenErc20",
          "name": "",
          "type": "address"
        }
      ],
      "stateMutability": "view",
      "type": "function"
    },
    {
      "inputs": [],
      "name": "cTokenLend",
      "outputs": [
        {
          "internalType": "contract ICTokenErc20",
          "name": "",
          "type": "address"
        }
      ],
      "stateMutability": "view",
      "type": "function"
    },
    {
      "inputs": [],
      "name": "closePosition",
      "outputs": [],
      "stateMutability": "nonpayable",
      "type": "function"
    },
    {
      "inputs": [],
      "name": "comptroller",
      "outputs": [
        {
          "internalType": "contract IComptroller",
          "name": "",
          "type": "address"
        }
      ],
      "stateMutability": "view",
      "type": "function"
    },
    {
      "inputs": [],
      "name": "decimals",
      "outputs": [
        {
          "internalType": "uint8",
          "name": "",
          "type": "uint8"
        }
      ],
      "stateMutability": "view",
      "type": "function"
    },
    {
      "inputs": [],
      "name": "getCollateralRatio",
      "outputs": [
        {
          "internalType": "uint256",
          "name": "",
          "type": "uint256"
        }
      ],
      "stateMutability": "view",
      "type": "function"
    },
    {
      "inputs": [],
      "name": "getPricePerShare",
      "outputs": [
        {
          "internalType": "uint256",
          "name": "",
          "type": "uint256"
        }
      ],
      "stateMutability": "view",
      "type": "function"
    },
    {
      "inputs": [],
      "name": "getTVL",
      "outputs": [
        {
          "internalType": "uint256",
          "name": "tvl",
          "type": "uint256"
        },
        {
          "internalType": "uint256",
          "name": "collateralBalance",
          "type": "uint256"
        },
        {
          "internalType": "uint256",
          "name": "shortPosition",
          "type": "uint256"
        },
        {
          "internalType": "uint256",
          "name": "shortBalance",
          "type": "uint256"
        },
        {
          "internalType": "uint256",
          "name": "lpBalance",
          "type": "uint256"
        },
        {
          "internalType": "uint256",
          "name": "underlyingBalance",
          "type": "uint256"
        }
      ],
      "stateMutability": "view",
      "type": "function"
    },
    {
      "inputs": [],
      "name": "getUnderlyingShortReserves",
      "outputs": [
        {
          "internalType": "uint256",
          "name": "reserveA",
          "type": "uint256"
        },
        {
          "internalType": "uint256",
          "name": "reserveB",
          "type": "uint256"
        }
      ],
      "stateMutability": "view",
      "type": "function"
    },
    {
      "inputs": [],
      "name": "harvest",
      "outputs": [],
      "stateMutability": "nonpayable",
      "type": "function"
    },
    {
      "inputs": [
        {
          "components": [
            {
              "internalType": "address",
              "name": "underlying",
              "type": "address"
            },
            {
              "internalType": "address",
              "name": "short",
              "type": "address"
            },
            {
              "internalType": "address",
              "name": "cTokenLend",
              "type": "address"
            },
            {
              "internalType": "address",
              "name": "cTokenBorrow",
              "type": "address"
            },
            {
              "internalType": "address",
              "name": "uniPair",
              "type": "address"
            },
            {
              "internalType": "address",
              "name": "uniFarm",
              "type": "address"
            },
            {
              "internalType": "address",
              "name": "farmLp",
              "type": "address"
            },
            {
              "internalType": "address",
              "name": "farmToken",
              "type": "address"
            },
            {
              "internalType": "uint256",
              "name": "farmId",
              "type": "uint256"
            },
            {
              "internalType": "address",
              "name": "router",
              "type": "address"
            },
            {
              "internalType": "address",
              "name": "comptroller",
              "type": "address"
            },
            {
              "internalType": "address",
              "name": "benqiPair",
              "type": "address"
            },
            {
              "internalType": "address",
              "name": "benqiToken",
              "type": "address"
            },
            {
              "internalType": "uint256",
              "name": "safeCollateralRatio",
              "type": "uint256"
            },
            {
              "internalType": "address",
              "name": "vault",
              "type": "address"
            },
            {
              "internalType": "string",
              "name": "symbol",
              "type": "string"
            },
            {
              "internalType": "string",
              "name": "name",
              "type": "string"
            }
          ],
          "internalType": "struct USDCavaxPNGqi.Config",
          "name": "config",
          "type": "tuple"
        }
      ],
      "name": "initialize",
      "outputs": [],
      "stateMutability": "nonpayable",
      "type": "function"
    },
    {
      "inputs": [],
      "name": "isCEther",
      "outputs": [
        {
          "internalType": "bool",
          "name": "",
          "type": "bool"
        }
      ],
      "stateMutability": "pure",
      "type": "function"
    },
    {
      "inputs": [
        {
          "internalType": "address",
          "name": "user",
          "type": "address"
        }
      ],
      "name": "isManager",
      "outputs": [
        {
          "internalType": "bool",
          "name": "",
          "type": "bool"
        }
      ],
      "stateMutability": "view",
      "type": "function"
    },
    {
      "inputs": [],
      "name": "lastHarvest",
      "outputs": [
        {
          "internalType": "uint256",
          "name": "",
          "type": "uint256"
        }
      ],
      "stateMutability": "view",
      "type": "function"
    },
    {
      "inputs": [],
      "name": "lastVar",
      "outputs": [
        {
          "internalType": "uint256",
          "name": "",
          "type": "uint256"
        }
      ],
      "stateMutability": "view",
      "type": "function"
    },
    {
      "inputs": [
        {
          "internalType": "uint256",
          "name": "amount",
          "type": "uint256"
        }
      ],
      "name": "mint",
      "outputs": [
        {
          "internalType": "uint256",
          "name": "errCode",
          "type": "uint256"
        }
      ],
      "stateMutability": "nonpayable",
      "type": "function"
    },
    {
      "inputs": [],
      "name": "name",
      "outputs": [
        {
          "internalType": "string",
          "name": "",
          "type": "string"
        }
      ],
      "stateMutability": "view",
      "type": "function"
    },
    {
      "inputs": [
        {
          "internalType": "string",
          "name": "_symbol",
          "type": "string"
        },
        {
          "internalType": "string",
          "name": "_name",
          "type": "string"
        }
      ],
      "name": "onUpgrade",
      "outputs": [],
      "stateMutability": "nonpayable",
      "type": "function"
    },
    {
      "inputs": [],
      "name": "onUpgradeFarm",
      "outputs": [],
      "stateMutability": "nonpayable",
      "type": "function"
    },
    {
      "inputs": [],
      "name": "onUpgradeLend",
      "outputs": [],
      "stateMutability": "nonpayable",
      "type": "function"
    },
    {
      "inputs": [],
      "name": "oracle",
      "outputs": [
        {
          "internalType": "contract ICompPriceOracle",
          "name": "",
          "type": "address"
        }
      ],
      "stateMutability": "view",
      "type": "function"
    },
    {
      "inputs": [],
      "name": "owner",
      "outputs": [
        {
          "internalType": "address",
          "name": "",
          "type": "address"
        }
      ],
      "stateMutability": "view",
      "type": "function"
    },
    {
      "inputs": [],
      "name": "pair",
      "outputs": [
        {
          "internalType": "contract IUniswapV2Pair",
          "name": "",
          "type": "address"
        }
      ],
      "stateMutability": "view",
      "type": "function"
    },
    {
      "inputs": [],
      "name": "rebalance",
      "outputs": [],
      "stateMutability": "nonpayable",
      "type": "function"
    },
    {
      "inputs": [],
      "name": "rebalanceThreshold",
      "outputs": [
        {
          "internalType": "uint16",
          "name": "",
          "type": "uint16"
        }
      ],
      "stateMutability": "view",
      "type": "function"
    },
    {
      "inputs": [
        {
          "internalType": "uint256",
          "name": "amount",
          "type": "uint256"
        }
      ],
      "name": "redeemUnderlying",
      "outputs": [
        {
          "internalType": "uint256",
          "name": "errCode",
          "type": "uint256"
        }
      ],
      "stateMutability": "nonpayable",
      "type": "function"
    },
    {
      "inputs": [],
      "name": "renounceOwnership",
      "outputs": [],
      "stateMutability": "nonpayable",
      "type": "function"
    },
    {
      "inputs": [],
      "name": "safeCollateralRatio",
      "outputs": [
        {
          "internalType": "uint256",
          "name": "",
          "type": "uint256"
        }
      ],
      "stateMutability": "view",
      "type": "function"
    },
    {
      "inputs": [
        {
          "internalType": "address",
          "name": "user",
          "type": "address"
        },
        {
          "internalType": "bool",
          "name": "_isManager",
          "type": "bool"
        }
      ],
      "name": "setManager",
      "outputs": [],
      "stateMutability": "nonpayable",
      "type": "function"
    },
    {
      "inputs": [
        {
          "internalType": "uint256",
          "name": "maxPriceMismatch_",
          "type": "uint256"
        }
      ],
      "name": "setMaxPriceMismatch",
      "outputs": [],
      "stateMutability": "nonpayable",
      "type": "function"
    },
    {
      "inputs": [
        {
          "internalType": "uint256",
          "name": "minLendHarvest_",
          "type": "uint256"
        }
      ],
      "name": "setMinLendHarvest",
      "outputs": [],
      "stateMutability": "nonpayable",
      "type": "function"
    },
    {
      "inputs": [
        {
          "internalType": "uint16",
          "name": "rebalanceThreshold_",
          "type": "uint16"
        }
      ],
      "name": "setRebalanceThreshold",
      "outputs": [],
      "stateMutability": "nonpayable",
      "type": "function"
    },
    {
      "inputs": [
        {
          "internalType": "address",
          "name": "vault_",
          "type": "address"
        }
      ],
      "name": "setVault",
      "outputs": [],
      "stateMutability": "nonpayable",
      "type": "function"
    },
    {
      "inputs": [],
      "name": "short",
      "outputs": [
        {
          "internalType": "contract IERC20",
          "name": "",
          "type": "address"
        }
      ],
      "stateMutability": "view",
      "type": "function"
    },
    {
      "inputs": [],
      "name": "symbol",
      "outputs": [
        {
          "internalType": "string",
          "name": "",
          "type": "string"
        }
      ],
      "stateMutability": "view",
      "type": "function"
    },
    {
      "inputs": [],
      "name": "totalSupply",
      "outputs": [
        {
          "internalType": "uint256",
          "name": "",
          "type": "uint256"
        }
      ],
      "stateMutability": "view",
      "type": "function"
    },
    {
      "inputs": [
        {
          "internalType": "address",
          "name": "newOwner",
          "type": "address"
        }
      ],
      "name": "transferOwnership",
      "outputs": [],
      "stateMutability": "nonpayable",
      "type": "function"
    },
    {
      "inputs": [],
      "name": "underlying",
      "outputs": [
        {
          "internalType": "contract IERC20",
          "name": "",
          "type": "address"
        }
      ],
      "stateMutability": "view",
      "type": "function"
    },
    {
      "inputs": [],
      "name": "vault",
      "outputs": [
        {
          "internalType": "address",
          "name": "",
          "type": "address"
        }
      ],
      "stateMutability": "view",
      "type": "function"
    },
    {
      "inputs": [],
      "name": "version",
      "outputs": [
        {
          "internalType": "uint256",
          "name": "",
          "type": "uint256"
        }
      ],
      "stateMutability": "view",
      "type": "function"
    },
    {
      "stateMutability": "payable",
      "type": "receive"
    }
  ],
  "transactionHash": "0x6f61ae44923ac8f5286825bf391939ed413af192e8643526608633cce6983592",
  "args": [],
  "numDeployments": 5,
  "solcInputHash": "b94a9bfe6ec3898123a86570253bf917",
  "bytecode": "0x608060405260636101a9553480156200001757600080fd5b50600054610100900460ff16620000355760005460ff16156200003f565b6200003f620000e4565b620000a75760405162461bcd60e51b815260206004820152602e60248201527f496e697469616c697a61626c653a20636f6e747261637420697320616c72656160448201526d191e481a5b9a5d1a585b1a5e995960921b606482015260840160405180910390fd5b600054610100900460ff16158015620000ca576000805461ffff19166101011790555b8015620000dd576000805461ff00191690555b5062000108565b6000620000fc306200010260201b620015ac1760201c565b15905090565b3b151590565b61533980620001186000396000f3fe6080604052600436106102065760003560e01c806302df632f1461021257806306fdde03146102295780630e962f001461025457806318160ddd146102785780632125001e1461028d57806330741fa4146102ad578063313ce567146102cd57806338bea4cb146102f45780633af9e669146103165780633d68175c146103365780633dfe9f6a1461034b5780634641257d146103795780634654e3f31461038e5780634880f951146103ae5780634f1342d4146103c35780635439c4ad146103e357806354fd4d50146104035780635fe3b5671461041a5780636817031b1461042f5780636f307dc31461046c578063711326ce14610481578063715018a6146104a15780637d7c2a1c146104b65780637dc0d1d0146104cb5780638255df31146104e0578063852a12e3146104f75780638da5cb5b1461051757806395d89b411461052c57806397b3fcaa14610541578063a0712d6814610583578063a52602b9146105a3578063a5e90eee146105b8578063a8aa1b31146105d8578063ac784ddc146105ed578063c393d0e31461060d578063cd377c5314610622578063d539fe4b14610637578063d56974cf1461064d578063de747e5a14610662578063f1a392da14610682578063f2fde38b14610698578063f3ae2415146106b8578063f9e40ac4146106f1578063fbfa77cf1461071b578063fd6bac701461073057600080fd5b3661020d57005b600080fd5b34801561021e57600080fd5b50610227610745565b005b34801561023557600080fd5b5061023e61086f565b60405161024b919061485f565b60405180910390f35b34801561026057600080fd5b5061026a609d5481565b60405190815260200161024b565b34801561028457600080fd5b5060995461026a565b34801561029957600080fd5b506102276102a8366004614872565b6108fd565b3480156102b957600080fd5b5061026a6102c83660046148b0565b61093a565b3480156102d957600080fd5b506102e2610a19565b60405160ff909116815260200161024b565b34801561030057600080fd5b50610309610a8c565b60405161024b9190614903565b34801561032257600080fd5b5061026a610331366004614917565b610a9b565b34801561034257600080fd5b5061026a610aab565b34801561035757600080fd5b5060d3546103669061ffff1681565b60405161ffff909116815260200161024b565b34801561038557600080fd5b50610227610aeb565b34801561039a57600080fd5b506102276103a9366004614975565b610b8a565b3480156103ba57600080fd5b5061026a610c02565b3480156103cf57600080fd5b506102276103de366004614abe565b610c17565b3480156103ef57600080fd5b5061026a6103fe3660046148b0565b610d1a565b34801561040f57600080fd5b5061026a6102725481565b34801561042657600080fd5b50610309610d7b565b34801561043b57600080fd5b5061022761044a366004614917565b609880546001600160a01b0319166001600160a01b0392909216919091179055565b34801561047857600080fd5b50610309610d8b565b34801561048d57600080fd5b5061022761049c366004614872565b610d9a565b3480156104ad57600080fd5b50610227610dce565b3480156104c257600080fd5b50610227610e09565b3480156104d757600080fd5b50610309611047565b3480156104ec57600080fd5b5061026a6101a95481565b34801561050357600080fd5b5061026a610512366004614872565b611057565b34801561052357600080fd5b506103096110be565b34801561053857600080fd5b5061023e6110cd565b34801561054d57600080fd5b506105566110da565b604080519687526020870195909552938501929092526060840152608083015260a082015260c00161024b565b34801561058f57600080fd5b5061026a61059e366004614872565b6111b9565b3480156105af57600080fd5b50610309611212565b3480156105c457600080fd5b506102276105d3366004614c5b565b611222565b3480156105e457600080fd5b506103096112b0565b3480156105f957600080fd5b5060005b604051901515815260200161024b565b34801561061957600080fd5b506102276112c0565b34801561062e57600080fd5b5061026a61131f565b34801561064357600080fd5b5061010a5461026a565b34801561065957600080fd5b50610227611350565b34801561066e57600080fd5b5061022761067d366004614c94565b61147a565b34801561068e57600080fd5b5061026a60975481565b3480156106a457600080fd5b506102276106b3366004614917565b6114c1565b3480156106c457600080fd5b506105fd6106d3366004614917565b6001600160a01b03166000908152609c602052604090205460ff1690565b3480156106fd57600080fd5b50610706611561565b6040805192835260208301919091520161024b565b34801561072757600080fd5b5061030961158d565b34801561073c57600080fd5b5061030961159c565b6101735460408051630dfe168160e01b815290516000926001600160a01b031691630dfe16819160048083019260209291908290030181865afa158015610790573d6000803e3d6000fd5b505050506040513d601f19601f820116820180604052508101906107b49190614cb8565b610174549091506001600160a01b038083169116146107d3578061084b565b61017360009054906101000a90046001600160a01b03166001600160a01b031663d21220a76040518163ffffffff1660e01b8152600401602060405180830381865afa158015610827573d6000803e3d6000fd5b505050506040513d601f19601f8201168201806040525081019061084b9190614cb8565b61017780546001600160a01b0319166001600160a01b039290921691909117905550565b609a805461087c90614cd5565b80601f01602080910402602001604051908101604052809291908181526020018280546108a890614cd5565b80156108f55780601f106108ca576101008083540402835291602001916108f5565b820191906000526020600020905b8154815290600101906020018083116108d857829003601f168201915b505050505081565b336109066110be565b6001600160a01b0316146109355760405162461bcd60e51b815260040161092c90614d0a565b60405180910390fd5b60d255565b600080610949868686866115b2565b905060006109578486611673565b509050600080826001600160a01b0316876001600160a01b03161461097e57836000610982565b6000845b909250905061099b6001600160a01b0388168a8a611756565b6040805160008152602081019182905263022c0d9f60e01b9091526001600160a01b038a169063022c0d9f906109da9085908590309060248101614d3f565b600060405180830381600087803b1580156109f457600080fd5b505af1158015610a08573d6000803e3d6000fd5b50959b9a5050505050505050505050565b60d0546040805163313ce56760e01b815290516000926001600160a01b03169163313ce5679160048083019260209291908290030181865afa158015610a63573d6000803e3d6000fd5b505050506040513d601f19601f82011682018060405250810190610a879190614d76565b905090565b60d1546001600160a01b031690565b6000610aa5610c02565b92915050565b600080610ab6610c02565b905060995460001415610acb575050609d5490565b609954609d54610adb9083614daf565b610ae59190614dce565b91505090565b610af36110be565b6001600160a01b0316336001600160a01b03161480610b265750336000908152609c602052604090205460ff1615156001145b610b425760405162461bcd60e51b815260040161092c90614df0565b6000610b4c6117b1565b90507f80f97f878e16410266694f134ddf012f2be424f54f8b5cafa107eccc51d00d5881604051610b7f91815260200190565b60405180910390a150565b33610b936110be565b6001600160a01b031614610bb95760405162461bcd60e51b815260040161092c90614d0a565b610bc5609a83836146fa565b50610bd2609b85856146fa565b506040517f6f2d71ced264587bd808aaf888d1c083d1ef532ab6eafb10b4fbd18b60eda3e690600090a150505050565b6000610c0c6110da565b509395945050505050565b600054610100900460ff16610c325760005460ff1615610c36565b303b155b610c525760405162461bcd60e51b815260040161092c90614e18565b600054610100900460ff16158015610c74576000805461ffff19166101011790555b610c9682608001518360a001518460c001518560e001518661010001516119cc565b610cb482610140015183604001518460600151856101a00151611bb6565b610cc8826101600151836101800151611cf8565b610ce2826101c00151836101e00151846102000151611eb8565b610cf482600001518360200151611f80565b610cfc61205f565b610d046120a7565b8015610d16576000805461ff00191690555b5050565b600080610d29868686866120c8565b90506000610d378486611673565b509050600080826001600160a01b0316876001600160a01b031614610d5e57876000610d62565b6000885b909250905061099b6001600160a01b0388168a86611756565b610108546001600160a01b031690565b60d0546001600160a01b031690565b33610da36110be565b6001600160a01b031614610dc95760405162461bcd60e51b815260040161092c90614d0a565b60cf55565b33610dd76110be565b6001600160a01b031614610dfd5760405162461bcd60e51b815260040161092c90614d0a565b610e07600061218e565b565b610e116110be565b6001600160a01b0316336001600160a01b03161480610e445750336000908152609c602052604090205460ff1615156001145b610e605760405162461bcd60e51b815260040161092c90614df0565b60d15460d054600091610e8991670de0b6b3a7640000916001600160a01b0390811691166121e0565b90506000610e9e670de0b6b3a764000061221f565b9050818111610eae578082610eb1565b81815b60cf54919350915081612710610ec78583614e66565b610ed19190614daf565b610edb9190614dce565b10610ef85760405162461bcd60e51b815260040161092c90614e7d565b60026065541415610f1b5760405162461bcd60e51b815260040161092c90614eb4565b60026065556000610f2a61232b565b5090506000610f376123ec565b90506000610f44826124cb565b90506000806000610f5584876124f8565b92509250925082610fbf5760405162461bcd60e51b815260206004820152602e60248201527f4865646765644c503a2068617665206e6f74207265616368656420726562616c60448201526d185b98d9481d1a1c995cda1bdb1960921b606482015260840161092c565b6000610fcb8587614e66565b90508215610fe257610fdd8582612621565b610fec565b610fec858261284e565b7fe0b4077da7dfa5015ff10fab6a214f37acc1b23d745f30336942d17e07848c6b61101e670de0b6b3a7640000612a95565b838860405161102f93929190614eeb565b60405180910390a15050600160655550505050505050565b610109546001600160a01b031690565b600061106161158d565b6001600160a01b0316336001600160a01b0316146110915760405162461bcd60e51b815260040161092c90614df0565b600061109c83612ac2565b905080609960008282546110b09190614e66565b909155506000949350505050565b6033546001600160a01b031690565b609b805461087c90614cd5565b6000806000806000806110eb612d9f565b94506110f5612e94565b935061110084612a95565b9250600061110c61232b565b50905061111a816002614daf565b60d0546040516370a0823160e01b81529194506001600160a01b0316906370a082319061114b903090600401614903565b602060405180830381865afa158015611168573d6000803e3d6000fd5b505050506040513d601f19601f8201168201806040525081019061118c9190614f01565b9150818461119a8589614f1a565b6111a49190614e66565b6111ae9190614f1a565b965050909192939495565b60006111c361158d565b6001600160a01b0316336001600160a01b0316146111f35760405162461bcd60e51b815260040161092c90614df0565b60006111fe83612f0a565b905080609960008282546110b09190614f1a565b610106546001600160a01b031690565b3361122b6110be565b6001600160a01b0316146112515760405162461bcd60e51b815260040161092c90614d0a565b6001600160a01b0382166000818152609c6020908152604091829020805460ff191685151590811790915591519182527f2458f684567d238b66deaa0126265bf3becabda0caaab7ebdda6b1794614a2d3910160405180910390a25050565b610175546001600160a01b031690565b6112c86110be565b6001600160a01b0316336001600160a01b031614806112fb5750336000908152609c602052604090205460ff1615156001145b6113175760405162461bcd60e51b815260040161092c90614df0565b610e076130db565b6000670de0b6b3a764000061133461010a5490565b61133c613277565b6113469190614daf565b610a879190614dce565b61013f5460408051630dfe168160e01b815290516000926001600160a01b031691630dfe16819160048083019260209291908290030181865afa15801561139b573d6000803e3d6000fd5b505050506040513d601f19601f820116820180604052508101906113bf9190614cb8565b61013e549091506001600160a01b038083169116146113de5780611456565b61013f60009054906101000a90046001600160a01b03166001600160a01b031663d21220a76040518163ffffffff1660e01b8152600401602060405180830381865afa158015611432573d6000803e3d6000fd5b505050506040513d601f19601f820116820180604052508101906114569190614cb8565b61013d80546001600160a01b0319166001600160a01b039290921691909117905550565b336114836110be565b6001600160a01b0316146114a95760405162461bcd60e51b815260040161092c90614d0a565b60d3805461ffff191661ffff92909216919091179055565b336114ca6110be565b6001600160a01b0316146114f05760405162461bcd60e51b815260040161092c90614d0a565b6001600160a01b0381166115555760405162461bcd60e51b815260206004820152602660248201527f4f776e61626c653a206e6577206f776e657220697320746865207a65726f206160448201526564647265737360d01b606482015260840161092c565b61155e8161218e565b50565b60008061158461156f6112b0565b611577610d8b565b61157f610a8c565b6132fd565b90939092509050565b6098546001600160a01b031690565b610107546001600160a01b031690565b3b151590565b600080841161160f5760405162461bcd60e51b815260206004820152602360248201527f556e695574696c733a20494e53554646494349454e545f494e5055545f414d4f60448201526215539560ea1b606482015260840161092c565b60008061161d8786866132fd565b90925090506000611630876103e5614daf565b9050600061163e8383614daf565b905060008261164f866103e8614daf565b6116599190614f1a565b90506116658183614dce565b9a9950505050505050505050565b600080826001600160a01b0316846001600160a01b031614156116d85760405162461bcd60e51b815260206004820152601d60248201527f556e695574696c733a204944454e544943414c5f414444524553534553000000604482015260640161092c565b826001600160a01b0316846001600160a01b0316106116f85782846116fb565b83835b90925090506001600160a01b03821661174f5760405162461bcd60e51b8152602060048201526016602482015275556e695574696c733a205a45524f5f4144445245535360501b604482015260640161092c565b9250929050565b6117ac8363a9059cbb60e01b8484604051602401611775929190614f32565b60408051601f198184030181529190526020810180516001600160e01b03166001600160e01b0319909316929092179091526133bd565b505050565b60d15460d05460009182916117dc91670de0b6b3a7640000916001600160a01b0391821691166121e0565b905060006117f1670de0b6b3a764000061221f565b9050818111611801578082611804565b81815b60cf5491935091508161271061181a8583614e66565b6118249190614daf565b61182e9190614dce565b1061184b5760405162461bcd60e51b815260040161092c90614e7d565b6002606554141561186e5760405162461bcd60e51b815260040161092c90614eb4565b6002606555600061187d6123ec565b905061188a60d25461348f565b611892613654565b60d0546040516370a0823160e01b81526000916001600160a01b0316906370a08231906118c3903090600401614903565b602060405180830381865afa1580156118e0573d6000803e3d6000fd5b505050506040513d601f19601f820116820180604052508101906119049190614f01565b905080156119155761191581613793565b60d1546040516370a0823160e01b81526000916001600160a01b0316906370a0823190611946903090600401614903565b602060405180830381865afa158015611963573d6000803e3d6000fd5b505050506040513d601f19601f820116820180604052508101906119879190614f01565b90508015611998576119988161380b565b60006119a2610c02565b90508381116119b25760006119bc565b6119bc8482614e66565b9650505050505050600160655590565b600054610100900460ff166119e75760005460ff16156119eb565b303b155b611a075760405162461bcd60e51b815260040161092c90614e18565b600054610100900460ff16158015611a29576000805461ffff19166101011790555b61017280546001600160a01b038088166001600160a01b0319928316179092556101738054878416908316811790915561017480548785169084161790556101758054938a169390921692909217905561017683905560408051630dfe168160e01b8152905160009291630dfe16819160048083019260209291908290030181865afa158015611abd573d6000803e3d6000fd5b505050506040513d601f19601f82011682018060405250810190611ae19190614cb8565b9050836001600160a01b0316816001600160a01b031614611b025780611b7a565b61017360009054906101000a90046001600160a01b03166001600160a01b031663d21220a76040518163ffffffff1660e01b8152600401602060405180830381865afa158015611b56573d6000803e3d6000fd5b505050506040513d601f19601f82011682018060405250810190611b7a9190614cb8565b61017780546001600160a01b0319166001600160a01b0392909216919091179055508015611bae576000805461ff00191690555b505050505050565b600054610100900460ff16611bd15760005460ff1615611bd5565b303b155b611bf15760405162461bcd60e51b815260040161092c90614e18565b600054610100900460ff16158015611c13576000805461ffff19166101011790555b61010680546001600160a01b038087166001600160a01b031992831617909255610107805486841690831617905561010880549288169290911682179055604080516307dc0d1d60e41b81529051637dc0d1d0916004808201926020929091908290030181865afa158015611c8c573d6000803e3d6000fd5b505050506040513d601f19601f82011682018060405250810190611cb09190614cb8565b61010980546001600160a01b0319166001600160a01b039290921691909117905561010a829055611cdf6138bf565b8015611cf1576000805461ff00191690555b5050505050565b600054610100900460ff16611d135760005460ff1615611d17565b303b155b611d335760405162461bcd60e51b815260040161092c90614e18565b600054610100900460ff16158015611d55576000805461ffff19166101011790555b61013f80546001600160a01b038086166001600160a01b0319928316811790935561013e80549186169190921617905560408051630dfe168160e01b8152905160009291630dfe16819160048083019260209291908290030181865afa158015611dc3573d6000803e3d6000fd5b505050506040513d601f19601f82011682018060405250810190611de79190614cb8565b9050826001600160a01b0316816001600160a01b031614611e085780611e80565b61013f60009054906101000a90046001600160a01b03166001600160a01b031663d21220a76040518163ffffffff1660e01b8152600401602060405180830381865afa158015611e5c573d6000803e3d6000fd5b505050506040513d601f19601f82011682018060405250810190611e809190614cb8565b61013d80546001600160a01b0319166001600160a01b03929092169190911790555080156117ac576000805461ff0019169055505050565b600054610100900460ff16611ed35760005460ff1615611ed7565b303b155b611ef35760405162461bcd60e51b815260040161092c90614e18565b600054610100900460ff16158015611f15576000805461ffff19166101011790555b611f1d6139d0565b611f256139ff565b609880546001600160a01b0319166001600160a01b0386161790558251611f5390609b90602086019061477e565b508151611f6790609a90602085019061477e565b508015611f7a576000805461ff00191690555b50505050565b600054610100900460ff16611f9b5760005460ff1615611f9f565b303b155b611fbb5760405162461bcd60e51b815260040161092c90614e18565b600054610100900460ff16158015611fdd576000805461ffff19166101011790555b60d080546001600160a01b038086166001600160a01b0319928316811790935560d18054918616919092161790556120189030600019613a36565b603c60cf5560d3805461ffff1916610190179055623d090060d25561203b610a19565b61204690600a61502f565b609d5580156117ac576000805461ff0019169055505050565b6101065461208b906001600160a01b031660001961207b610d8b565b6001600160a01b03169190613a36565b61010754610e07906001600160a01b031660001961207b610a8c565b6101725461017554610e07916001600160a01b039182169116600019613a36565b60008084116121255760405162461bcd60e51b8152602060048201526024808201527f556e695574696c733a20494e53554646494349454e545f4f55545055545f414d60448201526313d5539560e21b606482015260840161092c565b6000806121338786866132fd565b909250905060006121448784614daf565b612150906103e8614daf565b9050600061215e8884614e66565b61216a906103e5614daf565b90506121768183614dce565b612181906001614f1a565b9998505050505050505050565b603380546001600160a01b038381166001600160a01b0319831681179093556040519116919082907f8be0079c531659141344cd1fd0a4f28419497f9722a3daafe3b4186f6b6457e090600090a35050565b6000836121ef57506000612218565b6000806122046121fd6112b0565b86866132fd565b91509150612213868383613b3a565b925050505b9392505050565b6000612229611047565b6001600160a01b031663fc57d4df61223f611212565b6040518263ffffffff1660e01b815260040161225b9190614903565b602060405180830381865afa158015612278573d6000803e3d6000fd5b505050506040513d601f19601f8201168201806040525081019061229c9190614f01565b6122a4611047565b6001600160a01b031663fc57d4df6122ba61159c565b6040518263ffffffff1660e01b81526004016122d69190614903565b602060405180830381865afa1580156122f3573d6000803e3d6000fd5b505050506040513d601f19601f820116820180604052508101906123179190614f01565b6123219084614daf565b610aa59190614dce565b6000806000612338613c04565b9050600080612345611561565b9150915060006123536112b0565b6001600160a01b03166318160ddd6040518163ffffffff1660e01b8152600401602060405180830381865afa158015612390573d6000803e3d6000fd5b505050506040513d601f19601f820116820180604052508101906123b49190614f01565b9050806123c18585614daf565b6123cb9190614dce565b9550806123d88584614daf565b6123e29190614dce565b9450505050509091565b6000806123f7613c9a565b90506000612403613cee565b9050600061241082612a95565b9050600061241c61232b565b5060d0546040516370a0823160e01b81529192506000916001600160a01b03909116906370a0823190612453903090600401614903565b602060405180830381865afa158015612470573d6000803e3d6000fd5b505050506040513d601f19601f820116820180604052508101906124949190614f01565b905080836124a3846002614daf565b6124ad9088614f1a565b6124b79190614e66565b6124c19190614f1a565b9550505050505090565b6000806124d661131f565b90506124e481612710614f1a565b6124ee8285614daf565b6122189190614dce565b600080600083851161250b57600061250e565b60015b915083158061251b575084155b1561252b5784841415925061261a565b6000612535612e94565b905082612563578561271061254a8288614e66565b6125549190614daf565b61255e9190614dce565b612585565b846127106125718289614e66565b61257b9190614daf565b6125859190614dce565b60d35490925061ffff1682118061260d575060d0546040516370a0823160e01b815262989680916001600160a01b0316906370a08231906125ca903090600401614903565b602060405180830381865afa1580156125e7573d6000803e3d6000fd5b505050506040513d601f19601f8201168201806040525081019061260b9190614f01565b115b80612616575080155b9350505b9250925092565b61262a81613d23565b5050600061263783613d85565b90506000612643612e94565b90506126576126528284614e66565b613db2565b600061266161232b565b5060d0546040516370a0823160e01b815291925060009183916001600160a01b0316906370a0823190612698903090600401614903565b602060405180830381865afa1580156126b5573d6000803e3d6000fd5b505050506040513d601f19601f820116820180604052508101906126d99190614f01565b6126e39190614f1a565b6126ed9087614e66565b9050801561271c5761271a6127006112b0565b60d15460d05484916001600160a01b039081169116610d1a565b505b60d1546040516370a0823160e01b81526000916001600160a01b0316906370a082319061274d903090600401614903565b602060405180830381865afa15801561276a573d6000803e3d6000fd5b505050506040513d601f19601f8201168201806040525081019061278e9190614f01565b9050600061279b82612a95565b60d0546040516370a0823160e01b81529192506000916001600160a01b03909116906370a08231906127d1903090600401614903565b602060405180830381865afa1580156127ee573d6000803e3d6000fd5b505050506040513d601f19601f820116820180604052508101906128129190614f01565b90508181101561282b5780915061282882613d85565b92505b60006128378385613e90565b905061284281613f40565b50505050505050505050565b8161285b57610d166130db565b61286482613fa5565b505060d1546040516370a0823160e01b81526000916001600160a01b0316906370a0823190612897903090600401614903565b602060405180830381865afa1580156128b4573d6000803e3d6000fd5b505050506040513d601f19601f820116820180604052508101906128d89190614f01565b90506128e38161380b565b60006128ee83613d23565b91505060006128fb613cee565b9050600061290886613d85565b6129129083614e66565b90508061292157505050505050565b600061294861292e6112b0565b60d05460d15485916001600160a01b0390811691166120c8565b60d0546040516370a0823160e01b81529192506000916001600160a01b03909116906370a082319061297e903090600401614903565b602060405180830381865afa15801561299b573d6000803e3d6000fd5b505050506040513d601f19601f820116820180604052508101906129bf9190614f01565b905060008183106129d057816129d2565b825b90506129f96129df6112b0565b60d05460d15484916001600160a01b03908116911661093a565b5060d1546040516370a0823160e01b81526001600160a01b03909116906370a0823190612a2a903090600401614903565b602060405180830381865afa158015612a47573d6000803e3d6000fd5b505050506040513d601f19601f82011682018060405250810190612a6b9190614f01565b9650612a768761380b565b85881115612a8a57612a8788613d23565b50505b505050505050505050565b600081612aa457506000919050565b60d15460d054610aa59184916001600160a01b0391821691166121e0565b6000612acc61158d565b6001600160a01b0316336001600160a01b031614612afc5760405162461bcd60e51b815260040161092c90614df0565b60d15460d054600091612b2591670de0b6b3a7640000916001600160a01b0390811691166121e0565b90506000612b3a670de0b6b3a764000061221f565b9050818111612b4a578082612b4d565b81815b60cf54919350915081612710612b638583614e66565b612b6d9190614daf565b612b779190614dce565b10612b945760405162461bcd60e51b815260040161092c90614e7d565b60026065541415612bb75760405162461bcd60e51b815260040161092c90614eb4565b60026065556000612bc66123ec565b60d0546040516370a0823160e01b81529192506000916001600160a01b03909116906370a0823190612bfc903090600401614903565b602060405180830381865afa158015612c19573d6000803e3d6000fd5b505050506040513d601f19601f82011682018060405250810190612c3d9190614f01565b905085811015612d175760006064612c56886065614daf565b612c609190614dce565b9050828110612ce957612c716130db565b60d0546040516370a0823160e01b81526001600160a01b03909116906370a0823190612ca1903090600401614903565b602060405180830381865afa158015612cbe573d6000803e3d6000fd5b505050506040513d601f19601f82011682018060405250810190612ce29190614f01565b9050612d09565b81612cfc612cf78284614e66565b614007565b612d069190614f1a565b90505b612d1381886140b2565b9650505b81612d2160995490565b612d2b9088614daf565b612d359190614dce565b9450612d5730612d4361158d565b60d0546001600160a01b03169190896140c8565b7f884edad9ce6fa2440d8a54cc123490eb96d2768479d49ff9c7366125a94243643387604051612d88929190614f32565b60405180910390a150506001606555509092915050565b600080612daa611212565b6001600160a01b03166370a08231306040518263ffffffff1660e01b8152600401612dd59190614903565b602060405180830381865afa158015612df2573d6000803e3d6000fd5b505050506040513d601f19601f82011682018060405250810190612e169190614f01565b9050670de0b6b3a7640000612e29611212565b6001600160a01b031663182df0f56040518163ffffffff1660e01b8152600401602060405180830381865afa158015612e66573d6000803e3d6000fd5b505050506040513d601f19601f82011682018060405250810190612e8a9190614f01565b610adb9083614daf565b6000612e9e61159c565b6001600160a01b03166395dd9193306040518263ffffffff1660e01b8152600401612ec99190614903565b602060405180830381865afa158015612ee6573d6000803e3d6000fd5b505050506040513d601f19601f82011682018060405250810190610a879190614f01565b60d15460d0546000918291612f3591670de0b6b3a7640000916001600160a01b0391821691166121e0565b90506000612f4a670de0b6b3a764000061221f565b9050818111612f5a578082612f5d565b81815b60cf54919350915081612710612f738583614e66565b612f7d9190614daf565b612f879190614dce565b10612fa45760405162461bcd60e51b815260040161092c90614e7d565b60026065541415612fc75760405162461bcd60e51b815260040161092c90614eb4565b60026065556000612fd66123ec565b9050612fe160995490565b1561300a578085612ff160995490565b612ffb9190614daf565b6130059190614dce565b61300c565b845b60d0549094506001600160a01b03166323b872dd61302861158d565b30886040518463ffffffff1660e01b81526004016130489392919061503e565b6020604051808303816000875af1158015613067573d6000803e3d6000fd5b505050506040513d601f19601f8201168201806040525081019061308b9190615062565b50613095856140e9565b7fe1fffcc4923d04b559f4d29a8bfc6cda04eb5b0d3c460751c2402c5c5cc9109c33866040516130c6929190614f32565b60405180910390a15050600160655550919050565b6130e56000613fa5565b505060006130f1613cee565b60d1546040516370a0823160e01b81529192506000916001600160a01b03909116906370a0823190613127903090600401614903565b602060405180830381865afa158015613144573d6000803e3d6000fd5b505050506040513d601f19601f820116820180604052508101906131689190614f01565b9050808211156131ac57600061317e8284614e66565b90506131a561318b6112b0565b60d05460d15484916001600160a01b039081169116610d1a565b50506131ea565b818111156131ea5760006131c08383614e66565b90506131e76131cd6112b0565b60d15460d05484916001600160a01b03908116911661093a565b50505b60d1546040516370a0823160e01b8152613262916001600160a01b0316906370a082319061321c903090600401614903565b602060405180830381865afa158015613239573d6000803e3d6000fd5b505050506040513d601f19601f8201168201806040525081019061325d9190614f01565b61380b565b600061326c613c9a565b90506117ac8161414c565b600080613282610d7b565b6001600160a01b0316638e8f294b613298611212565b6040518263ffffffff1660e01b81526004016132b49190614903565b606060405180830381865afa1580156132d1573d6000803e3d6000fd5b505050506040513d601f19601f820116820180604052508101906132f5919061507f565b509392505050565b600080600061330c8585611673565b509050600080876001600160a01b0316630902f1ac6040518163ffffffff1660e01b8152600401606060405180830381865afa158015613350573d6000803e3d6000fd5b505050506040513d601f19601f8201168201806040525081019061337491906150d9565b506001600160701b031691506001600160701b03169150826001600160a01b0316876001600160a01b0316146133ab5780826133ae565b81815b90999098509650505050505050565b6000613412826040518060400160405280602081526020017f5361666545524332303a206c6f772d6c6576656c2063616c6c206661696c6564815250856001600160a01b03166141c69092919063ffffffff16565b8051909150156117ac57808060200190518101906134309190615062565b6117ac5760405162461bcd60e51b815260206004820152602a60248201527f5361666545524332303a204552433230206f7065726174696f6e20646964206e6044820152691bdd081cdd58d8d9595960b21b606482015260840161092c565b613497610d7b565b6001600160a01b0316630952c5636000306040518363ffffffff1660e01b81526004016134c592919061511e565b600060405180830381600087803b1580156134df57600080fd5b505af11580156134f3573d6000803e3d6000fd5b505061013e546040516370a0823160e01b8152600093506001600160a01b0390911691506370a082319061352b903090600401614903565b602060405180830381865afa158015613548573d6000803e3d6000fd5b505050506040513d601f19601f8201168201806040525081019061356c9190614f01565b9050801561359e5761013f5461013e5461013d5461359c926001600160a01b03908116928592908216911661093a565b505b6135a6610d7b565b6001600160a01b0316630952c5636001306040518363ffffffff1660e01b81526004016135d492919061511e565b600060405180830381600087803b1580156135ee57600080fd5b505af1158015613602573d6000803e3d6000fd5b50506040514792507fb7828c606ac1d345dde5ddccf4f72a887cac5c2627ffabb0ed53c2346497e010915061363d9084908490600090614eeb565b60405180910390a180156117ac576117ac816141d5565b6101725461017654604051630c7e663b60e11b81526001600160a01b03909216916318fccc769161368991309060040161513a565b600060405180830381600087803b1580156136a357600080fd5b505af11580156136b7573d6000803e3d6000fd5b5050610174546040516370a0823160e01b8152600093506001600160a01b0390911691506370a08231906136ef903090600401614903565b602060405180830381865afa15801561370c573d6000803e3d6000fd5b505050506040513d601f19601f820116820180604052508101906137309190614f01565b90508061373a5750565b610173546101745461017754613762926001600160a01b03908116928592908216911661093a565b506040518181527f32a12275d11ded9e7f36c2998c56e68328a566370e94f5a57d62df0bb39c690590602001610b7f565b61379b611212565b6001600160a01b031663a0712d68826040518263ffffffff1660e01b81526004016137c891815260200190565b6020604051808303816000875af11580156137e7573d6000803e3d6000fd5b505050506040513d601f19601f82011682018060405250810190610d169190614f01565b6138156001614217565b1561388a57613822610a8c565b6001600160a01b0316632e1a7d4d826040518263ffffffff1660e01b815260040161384f91815260200190565b600060405180830381600087803b15801561386957600080fd5b505af115801561387d573d6000803e3d6000fd5b5050505061155e816141d5565b61389261159c565b6001600160a01b0316630e752702826040518263ffffffff1660e01b81526004016137c891815260200190565b6040805160028082526060820183526000926020830190803683370190505090506138e8611212565b816000815181106138fb576138fb615151565b60200260200101906001600160a01b031690816001600160a01b03168152505061392361159c565b8160018151811061393657613936615151565b60200260200101906001600160a01b031690816001600160a01b03168152505061395e610d7b565b6001600160a01b031663c2998238826040518263ffffffff1660e01b81526004016139899190615167565b6000604051808303816000875af11580156139a8573d6000803e3d6000fd5b505050506040513d6000823e601f3d908101601f19168201604052610d1691908101906151b4565b600054610100900460ff166139f75760405162461bcd60e51b815260040161092c90615259565b610e07614233565b600054610100900460ff16613a265760405162461bcd60e51b815260040161092c90615259565b613a2e614261565b610e07614288565b801580613ab05750604051636eb1769f60e11b81523060048201526001600160a01b03838116602483015284169063dd62ed3e90604401602060405180830381865afa158015613a8a573d6000803e3d6000fd5b505050506040513d601f19601f82011682018060405250810190613aae9190614f01565b155b613b1b5760405162461bcd60e51b815260206004820152603660248201527f5361666545524332303a20617070726f76652066726f6d206e6f6e2d7a65726f60448201527520746f206e6f6e2d7a65726f20616c6c6f77616e636560501b606482015260840161092c565b6117ac8363095ea7b360e01b8484604051602401611775929190614f32565b6000808411613b8b5760405162461bcd60e51b815260206004820152601d60248201527f556e695574696c733a20494e53554646494349454e545f414d4f554e54000000604482015260640161092c565b600083118015613b9b5750600082115b613be75760405162461bcd60e51b815260206004820181905260248201527f556e695574696c733a20494e53554646494349454e545f4c4951554944495459604482015260640161092c565b82613bf28386614daf565b613bfc9190614dce565b949350505050565b600080613c0f6142b8565b610175546040516370a0823160e01b81529192506000916001600160a01b03909116906370a0823190613c46903090600401614903565b602060405180830381865afa158015613c63573d6000803e3d6000fd5b505050506040513d601f19601f82011682018060405250810190613c879190614f01565b9050613c938183614f1a565b9250505090565b6000613ca4611212565b6001600160a01b0316633af9e669306040518263ffffffff1660e01b8152600401613ccf9190614903565b6020604051808303816000875af1158015612ee6573d6000803e3d6000fd5b6000613cf861159c565b6001600160a01b03166317bfdfbc306040518263ffffffff1660e01b8152600401613ccf9190614903565b6000806000613d30612d9f565b905083811415613d465750600093849350915050565b838111613d6657613d5f613d5a8286614e66565b614339565b6000613d7a565b6000613d7a613d758684614e66565b6143d8565b909590945092505050565b600081613d9457506000919050565b60d05460d154610aa59184916001600160a01b0391821691166121e0565b613dba61159c565b6001600160a01b031663c5ebeaec826040518263ffffffff1660e01b8152600401613de791815260200190565b6020604051808303816000875af1158015613e06573d6000803e3d6000fd5b505050506040513d601f19601f82011682018060405250810190613e2a9190614f01565b50613e356001614217565b1561155e57613e42610a8c565b6001600160a01b031663d0e30db0826040518263ffffffff1660e01b81526004016000604051808303818588803b158015613e7c57600080fd5b505af1158015611bae573d6000803e3d6000fd5b6000613eb6613e9d6112b0565b84613ea6610d8b565b6001600160a01b03169190611756565b613eca613ec16112b0565b83613ea6610a8c565b613ed26112b0565b6001600160a01b0316636a627842306040518263ffffffff1660e01b8152600401613efd9190614903565b6020604051808303816000875af1158015613f1c573d6000803e3d6000fd5b505050506040513d601f19601f820116820180604052508101906122189190614f01565b6101725461017654604051638dbdbe6d60e01b81526001600160a01b0390921691638dbdbe6d91613f7791859030906004016152a4565b600060405180830381600087803b158015613f9157600080fd5b505af1158015611cf1573d6000803e3d6000fd5b6000806000613fb261232b565b5090506000613fbf613c04565b9050600082613fce8784614daf565b613fd89190614dce565b90506000613fe68284614e66565b9050613ff18161447c565b613ffa816144b3565b9550955050505050915091565b600080614013836124cb565b9050600061401f61232b565b509050600061402c612e94565b905060008061404361403e8686614e66565b613fa5565b9092509050808084101561408e5761407e61405c6112b0565b6140668685614e66565b60d15460d0546001600160a01b03918216911661093a565b6140889084614f1a565b92508390505b6140978161380b565b60006140a6613d75858b614e66565b90506121818185614f1a565b60008183106140c15781612218565b5090919050565b611f7a846323b872dd60e01b8585856040516024016117759392919061503e565b60006140f4826124cb565b60d05460d1549192506000916141189184916001600160a01b0391821691166121e0565b905061412c6141278385614e66565b613793565b61413581613db2565b60006141418383613e90565b9050611f7a81613f40565b6000614156611212565b6001600160a01b031663852a12e3836040518263ffffffff1660e01b815260040161418391815260200190565b6020604051808303816000875af11580156141a2573d6000803e3d6000fd5b505050506040513d601f19601f820116820180604052508101906117ac9190614f01565b6060613bfc8484600085614599565b6141dd61159c565b6001600160a01b0316634e4d9fea826040518263ffffffff1660e01b81526004016000604051808303818588803b158015613e7c57600080fd5b60008160ff1660011461422b576000610aa5565b600192915050565b600054610100900460ff1661425a5760405162461bcd60e51b815260040161092c90615259565b6001606555565b600054610100900460ff16610e075760405162461bcd60e51b815260040161092c90615259565b600054610100900460ff166142af5760405162461bcd60e51b815260040161092c90615259565b610e073361218e565b61017254610176546040516393f1a40b60e01b815260009283926001600160a01b03909116916393f1a40b916142f291309060040161513a565b6040805180830381865afa15801561430e573d6000803e3d6000fd5b505050506040513d601f19601f8201168201806040525081019061433291906152c3565b5092915050565b600080614344610d8b565b6001600160a01b03166370a08231306040518263ffffffff1660e01b815260040161436f9190614903565b602060405180830381865afa15801561438c573d6000803e3d6000fd5b505050506040513d601f19601f820116820180604052508101906143b09190614f01565b90508281116143bf57806143c1565b825b915081156143d2576143d282613793565b50919050565b6000806143eb6143e6612e94565b61221f565b905060006143f7612d9f565b90506000605f614405613277565b61441785670de0b6b3a7640000614daf565b614422906064614daf565b61442c9190614dce565b6144369190614dce565b90508181111561444b57506000949350505050565b60006144578284614e66565b90508581116144665780614468565b855b94506144738561414c565b50505050919050565b6101725461017654604051630ad58d2f60e01b81526001600160a01b0390921691630ad58d2f91613f7791859030906004016152a4565b6000806144ca6144c16112b0565b84613ea66112b0565b60006144e46144d7610d8b565b6144df610a8c565b611673565b5090506000806144f26112b0565b6001600160a01b03166389afcb44306040518263ffffffff1660e01b815260040161451d9190614903565b60408051808303816000875af115801561453b573d6000803e3d6000fd5b505050506040513d601f19601f8201168201806040525081019061455f91906152c3565b9150915061456b610d8b565b6001600160a01b0316836001600160a01b03161461458a57808261458d565b81815b94509450505050915091565b6060824710156145fa5760405162461bcd60e51b815260206004820152602660248201527f416464726573733a20696e73756666696369656e742062616c616e636520666f6044820152651c8818d85b1b60d21b606482015260840161092c565b843b6146485760405162461bcd60e51b815260206004820152601d60248201527f416464726573733a2063616c6c20746f206e6f6e2d636f6e7472616374000000604482015260640161092c565b600080866001600160a01b0316858760405161466491906152e7565b60006040518083038185875af1925050503d80600081146146a1576040519150601f19603f3d011682016040523d82523d6000602084013e6146a6565b606091505b50915091506146b68282866146c1565b979650505050505050565b606083156146d0575081612218565b8251156146e05782518084602001fd5b8160405162461bcd60e51b815260040161092c919061485f565b82805461470690614cd5565b90600052602060002090601f016020900481019282614728576000855561476e565b82601f106147415782800160ff1982351617855561476e565b8280016001018555821561476e579182015b8281111561476e578235825591602001919060010190614753565b5061477a9291506147f2565b5090565b82805461478a90614cd5565b90600052602060002090601f0160209004810192826147ac576000855561476e565b82601f106147c557805160ff191683800117855561476e565b8280016001018555821561476e579182015b8281111561476e5782518255916020019190600101906147d7565b5b8082111561477a57600081556001016147f3565b60005b8381101561482257818101518382015260200161480a565b83811115611f7a5750506000910152565b6000815180845261484b816020860160208601614807565b601f01601f19169290920160200192915050565b6020815260006122186020830184614833565b60006020828403121561488457600080fd5b5035919050565b6001600160a01b038116811461155e57600080fd5b80356148ab8161488b565b919050565b600080600080608085870312156148c657600080fd5b84356148d18161488b565b93506020850135925060408501356148e88161488b565b915060608501356148f88161488b565b939692955090935050565b6001600160a01b0391909116815260200190565b60006020828403121561492957600080fd5b81356122188161488b565b60008083601f84011261494657600080fd5b5081356001600160401b0381111561495d57600080fd5b60208301915083602082850101111561174f57600080fd5b6000806000806040858703121561498b57600080fd5b84356001600160401b03808211156149a257600080fd5b6149ae88838901614934565b909650945060208701359150808211156149c757600080fd5b506149d487828801614934565b95989497509550505050565b634e487b7160e01b600052604160045260246000fd5b60405161022081016001600160401b0381118282101715614a1957614a196149e0565b60405290565b604051601f8201601f191681016001600160401b0381118282101715614a4757614a476149e0565b604052919050565b600082601f830112614a6057600080fd5b81356001600160401b03811115614a7957614a796149e0565b614a8c601f8201601f1916602001614a1f565b818152846020838601011115614aa157600080fd5b816020850160208301376000918101602001919091529392505050565b600060208284031215614ad057600080fd5b81356001600160401b0380821115614ae757600080fd5b908301906102208286031215614afc57600080fd5b614b046149f6565b614b0d836148a0565b8152614b1b602084016148a0565b6020820152614b2c604084016148a0565b6040820152614b3d606084016148a0565b6060820152614b4e608084016148a0565b6080820152614b5f60a084016148a0565b60a0820152614b7060c084016148a0565b60c0820152614b8160e084016148a0565b60e08201526101008381013590820152610120614b9f8185016148a0565b90820152610140614bb18482016148a0565b90820152610160614bc38482016148a0565b90820152610180614bd58482016148a0565b908201526101a083810135908201526101c0614bf28185016148a0565b908201526101e08381013583811115614c0a57600080fd5b614c1688828701614a4f565b8284015250506102008084013583811115614c3057600080fd5b614c3c88828701614a4f565b918301919091525095945050505050565b801515811461155e57600080fd5b60008060408385031215614c6e57600080fd5b8235614c798161488b565b91506020830135614c8981614c4d565b809150509250929050565b600060208284031215614ca657600080fd5b813561ffff8116811461221857600080fd5b600060208284031215614cca57600080fd5b81516122188161488b565b600181811c90821680614ce957607f821691505b602082108114156143d257634e487b7160e01b600052602260045260246000fd5b6020808252818101527f4f776e61626c653a2063616c6c6572206973206e6f7420746865206f776e6572604082015260600190565b84815283602082015260018060a01b0383166040820152608060608201526000614d6c6080830184614833565b9695505050505050565b600060208284031215614d8857600080fd5b815160ff8116811461221857600080fd5b634e487b7160e01b600052601160045260246000fd5b6000816000190483118215151615614dc957614dc9614d99565b500290565b600082614deb57634e487b7160e01b600052601260045260246000fd5b500490565b6020808252600e908201526d0a6e8e4c2e874409c9ebe82aaa8960931b604082015260600190565b6020808252602e908201527f496e697469616c697a61626c653a20636f6e747261637420697320616c72656160408201526d191e481a5b9a5d1a585b1a5e995960921b606082015260800190565b600082821015614e7857614e78614d99565b500390565b6020808252601e908201527f4865646765644c503a2053484f52545f50524943455f4d49534d415443480000604082015260600190565b6020808252601f908201527f5265656e7472616e637947756172643a207265656e7472616e742063616c6c00604082015260600190565b9283526020830191909152604082015260600190565b600060208284031215614f1357600080fd5b5051919050565b60008219821115614f2d57614f2d614d99565b500190565b6001600160a01b03929092168252602082015260400190565b600181815b80851115614f86578160001904821115614f6c57614f6c614d99565b80851615614f7957918102915b93841c9390800290614f50565b509250929050565b600082614f9d57506001610aa5565b81614faa57506000610aa5565b8160018114614fc05760028114614fca57614fe6565b6001915050610aa5565b60ff841115614fdb57614fdb614d99565b50506001821b610aa5565b5060208310610133831016604e8410600b8410161715615009575081810a610aa5565b6150138383614f4b565b806000190482111561502757615027614d99565b029392505050565b600061221860ff841683614f8e565b6001600160a01b039384168152919092166020820152604081019190915260600190565b60006020828403121561507457600080fd5b815161221881614c4d565b60008060006060848603121561509457600080fd5b835161509f81614c4d565b6020850151604086015191945092506150b781614c4d565b809150509250925092565b80516001600160701b03811681146148ab57600080fd5b6000806000606084860312156150ee57600080fd5b6150f7846150c2565b9250615105602085016150c2565b9150604084015163ffffffff811681146150b757600080fd5b60ff9290921682526001600160a01b0316602082015260400190565b9182526001600160a01b0316602082015260400190565b634e487b7160e01b600052603260045260246000fd5b6020808252825182820181905260009190848201906040850190845b818110156151a85783516001600160a01b031683529284019291840191600101615183565b50909695505050505050565b600060208083850312156151c757600080fd5b82516001600160401b03808211156151de57600080fd5b818501915085601f8301126151f257600080fd5b815181811115615204576152046149e0565b8060051b9150615215848301614a1f565b818152918301840191848101908884111561522f57600080fd5b938501935b8385101561524d57845182529385019390850190615234565b98975050505050505050565b6020808252602b908201527f496e697469616c697a61626c653a20636f6e7472616374206973206e6f74206960408201526a6e697469616c697a696e6760a81b606082015260800190565b92835260208301919091526001600160a01b0316604082015260600190565b600080604083850312156152d657600080fd5b505080516020909101519092909150565b600082516152f9818460208701614807565b919091019291505056fea2646970667358221220fe80c6c5c814457ca07283723ac8b83608231b8e43ceb76b542eb1e2d312652164736f6c634300080a0033",
  "devdoc": {
    "kind": "dev",
    "methods": {
      "owner()": {
        "details": "Returns the address of the current owner."
      },
      "renounceOwnership()": {
        "details": "Leaves the contract without owner. It will not be possible to call `onlyOwner` functions anymore. Can only be called by the current owner. NOTE: Renouncing ownership will leave the contract without an owner, thereby removing any functionality that is only available to the owner."
      },
      "transferOwnership(address)": {
        "details": "Transfers ownership of the contract to a new account (`newOwner`). Can only be called by the current owner."
      }
    },
    "version": 1
  },
  "userdoc": {
    "kind": "user",
    "methods": {
      "getPricePerShare()": {
        "notice": "Returns the share price of the strategy in `want` units, multiplied  by 1e18"
      }
    },
    "version": 1
  },
  "storageLayout": {
    "storage": [
      {
        "astId": 132,
        "contract": "src/strategies/impl/USDCavaxPNGqi.sol:USDCavaxPNGqi",
        "label": "_initialized",
        "offset": 0,
        "slot": "0",
        "type": "t_bool"
      },
      {
        "astId": 135,
        "contract": "src/strategies/impl/USDCavaxPNGqi.sol:USDCavaxPNGqi",
        "label": "_initializing",
        "offset": 1,
        "slot": "0",
        "type": "t_bool"
      },
      {
        "astId": 1454,
        "contract": "src/strategies/impl/USDCavaxPNGqi.sol:USDCavaxPNGqi",
        "label": "__gap",
        "offset": 0,
        "slot": "1",
        "type": "t_array(t_uint256)50_storage"
      },
      {
        "astId": 10,
        "contract": "src/strategies/impl/USDCavaxPNGqi.sol:USDCavaxPNGqi",
        "label": "_owner",
        "offset": 0,
        "slot": "51",
        "type": "t_address"
      },
      {
        "astId": 124,
        "contract": "src/strategies/impl/USDCavaxPNGqi.sol:USDCavaxPNGqi",
        "label": "__gap",
        "offset": 0,
        "slot": "52",
        "type": "t_array(t_uint256)49_storage"
      },
      {
        "astId": 213,
        "contract": "src/strategies/impl/USDCavaxPNGqi.sol:USDCavaxPNGqi",
        "label": "_status",
        "offset": 0,
        "slot": "101",
        "type": "t_uint256"
      },
      {
        "astId": 256,
        "contract": "src/strategies/impl/USDCavaxPNGqi.sol:USDCavaxPNGqi",
        "label": "__gap",
        "offset": 0,
        "slot": "102",
        "type": "t_array(t_uint256)49_storage"
      },
      {
        "astId": 15273,
        "contract": "src/strategies/impl/USDCavaxPNGqi.sol:USDCavaxPNGqi",
        "label": "lastHarvest",
        "offset": 0,
        "slot": "151",
        "type": "t_uint256"
      },
      {
        "astId": 15275,
        "contract": "src/strategies/impl/USDCavaxPNGqi.sol:USDCavaxPNGqi",
        "label": "_vault",
        "offset": 0,
        "slot": "152",
        "type": "t_address"
      },
      {
        "astId": 15277,
        "contract": "src/strategies/impl/USDCavaxPNGqi.sol:USDCavaxPNGqi",
        "label": "_shares",
        "offset": 0,
        "slot": "153",
        "type": "t_uint256"
      },
      {
        "astId": 15279,
        "contract": "src/strategies/impl/USDCavaxPNGqi.sol:USDCavaxPNGqi",
        "label": "name",
        "offset": 0,
        "slot": "154",
        "type": "t_string_storage"
      },
      {
        "astId": 15281,
        "contract": "src/strategies/impl/USDCavaxPNGqi.sol:USDCavaxPNGqi",
        "label": "symbol",
        "offset": 0,
        "slot": "155",
        "type": "t_string_storage"
      },
      {
        "astId": 15285,
        "contract": "src/strategies/impl/USDCavaxPNGqi.sol:USDCavaxPNGqi",
        "label": "_managers",
        "offset": 0,
        "slot": "156",
        "type": "t_mapping(t_address,t_bool)"
      },
      {
        "astId": 15287,
        "contract": "src/strategies/impl/USDCavaxPNGqi.sol:USDCavaxPNGqi",
        "label": "BASE_UNIT",
        "offset": 0,
        "slot": "157",
        "type": "t_uint256"
      },
      {
        "astId": 15565,
        "contract": "src/strategies/impl/USDCavaxPNGqi.sol:USDCavaxPNGqi",
        "label": "_gap",
        "offset": 0,
        "slot": "158",
        "type": "t_array(t_uint256)49_storage"
      },
      {
        "astId": 15598,
        "contract": "src/strategies/impl/USDCavaxPNGqi.sol:USDCavaxPNGqi",
        "label": "_maxPriceMismatch",
        "offset": 0,
        "slot": "207",
        "type": "t_uint256"
      },
      {
        "astId": 15655,
        "contract": "src/strategies/impl/USDCavaxPNGqi.sol:USDCavaxPNGqi",
        "label": "_underlying",
        "offset": 0,
        "slot": "208",
        "type": "t_contract(IERC20)3568"
      },
      {
        "astId": 15658,
        "contract": "src/strategies/impl/USDCavaxPNGqi.sol:USDCavaxPNGqi",
        "label": "_short",
        "offset": 0,
        "slot": "209",
        "type": "t_contract(IERC20)3568"
      },
      {
        "astId": 15660,
        "contract": "src/strategies/impl/USDCavaxPNGqi.sol:USDCavaxPNGqi",
        "label": "_minLendHarvest",
        "offset": 0,
        "slot": "210",
        "type": "t_uint256"
      },
      {
        "astId": 15662,
        "contract": "src/strategies/impl/USDCavaxPNGqi.sol:USDCavaxPNGqi",
        "label": "rebalanceThreshold",
        "offset": 0,
        "slot": "211",
        "type": "t_uint16"
      },
      {
        "astId": 16923,
        "contract": "src/strategies/impl/USDCavaxPNGqi.sol:USDCavaxPNGqi",
        "label": "_gap",
        "offset": 0,
        "slot": "212",
        "type": "t_array(t_uint256)50_storage"
      },
      {
        "astId": 17803,
        "contract": "src/strategies/impl/USDCavaxPNGqi.sol:USDCavaxPNGqi",
        "label": "_cTokenLend",
        "offset": 0,
        "slot": "262",
        "type": "t_contract(ICTokenErc20)12715"
      },
      {
        "astId": 17806,
        "contract": "src/strategies/impl/USDCavaxPNGqi.sol:USDCavaxPNGqi",
        "label": "_cTokenBorrow",
        "offset": 0,
        "slot": "263",
        "type": "t_contract(ICTokenErc20)12715"
      },
      {
        "astId": 17809,
        "contract": "src/strategies/impl/USDCavaxPNGqi.sol:USDCavaxPNGqi",
        "label": "_comptroller",
        "offset": 0,
        "slot": "264",
        "type": "t_contract(IComptroller)12957"
      },
      {
        "astId": 17812,
        "contract": "src/strategies/impl/USDCavaxPNGqi.sol:USDCavaxPNGqi",
        "label": "_oracle",
        "offset": 0,
        "slot": "265",
        "type": "t_contract(ICompPriceOracle)12738"
      },
      {
        "astId": 17814,
        "contract": "src/strategies/impl/USDCavaxPNGqi.sol:USDCavaxPNGqi",
        "label": "_safeCollateralRatio",
        "offset": 0,
        "slot": "266",
        "type": "t_uint256"
      },
      {
        "astId": 17950,
        "contract": "src/strategies/impl/USDCavaxPNGqi.sol:USDCavaxPNGqi",
        "label": "_gap",
        "offset": 0,
        "slot": "267",
        "type": "t_array(t_uint256)50_storage"
      },
      {
        "astId": 17534,
        "contract": "src/strategies/impl/USDCavaxPNGqi.sol:USDCavaxPNGqi",
        "label": "_harvestTo",
        "offset": 0,
        "slot": "317",
        "type": "t_address"
      },
      {
        "astId": 17537,
        "contract": "src/strategies/impl/USDCavaxPNGqi.sol:USDCavaxPNGqi",
        "label": "_farmToken",
        "offset": 0,
        "slot": "318",
        "type": "t_contract(IERC20)3568"
      },
      {
        "astId": 17540,
        "contract": "src/strategies/impl/USDCavaxPNGqi.sol:USDCavaxPNGqi",
        "label": "_farmPair",
        "offset": 0,
        "slot": "319",
        "type": "t_contract(IUniswapV2Pair)13541"
      },
      {
        "astId": 17782,
        "contract": "src/strategies/impl/USDCavaxPNGqi.sol:USDCavaxPNGqi",
        "label": "_gap",
        "offset": 0,
        "slot": "320",
        "type": "t_array(t_uint256)50_storage"
      },
      {
        "astId": 18421,
        "contract": "src/strategies/impl/USDCavaxPNGqi.sol:USDCavaxPNGqi",
        "label": "_farm",
        "offset": 0,
        "slot": "370",
        "type": "t_contract(IMiniChefV2)13299"
      },
      {
        "astId": 18424,
        "contract": "src/strategies/impl/USDCavaxPNGqi.sol:USDCavaxPNGqi",
        "label": "_farmPair",
        "offset": 0,
        "slot": "371",
        "type": "t_contract(IUniswapV2Pair)13541"
      },
      {
        "astId": 18427,
        "contract": "src/strategies/impl/USDCavaxPNGqi.sol:USDCavaxPNGqi",
        "label": "_farmToken",
        "offset": 0,
        "slot": "372",
        "type": "t_contract(IERC20)3568"
      },
      {
        "astId": 18430,
        "contract": "src/strategies/impl/USDCavaxPNGqi.sol:USDCavaxPNGqi",
        "label": "_pair",
        "offset": 0,
        "slot": "373",
        "type": "t_contract(IUniswapV2Pair)13541"
      },
      {
        "astId": 18432,
        "contract": "src/strategies/impl/USDCavaxPNGqi.sol:USDCavaxPNGqi",
        "label": "_farmId",
        "offset": 0,
        "slot": "374",
        "type": "t_uint256"
      },
      {
        "astId": 18434,
        "contract": "src/strategies/impl/USDCavaxPNGqi.sol:USDCavaxPNGqi",
        "label": "_harvestTo",
        "offset": 0,
        "slot": "375",
        "type": "t_address"
      },
      {
        "astId": 18681,
        "contract": "src/strategies/impl/USDCavaxPNGqi.sol:USDCavaxPNGqi",
        "label": "_gap",
        "offset": 0,
        "slot": "376",
        "type": "t_array(t_uint256)49_storage"
      },
      {
        "astId": 18684,
        "contract": "src/strategies/impl/USDCavaxPNGqi.sol:USDCavaxPNGqi",
        "label": "lastVar",
        "offset": 0,
        "slot": "425",
        "type": "t_uint256"
      },
      {
        "astId": 17093,
        "contract": "src/strategies/impl/USDCavaxPNGqi.sol:USDCavaxPNGqi",
        "label": "_gap",
        "offset": 0,
        "slot": "426",
        "type": "t_array(t_uint256)200_storage"
      },
      {
        "astId": 17219,
        "contract": "src/strategies/impl/USDCavaxPNGqi.sol:USDCavaxPNGqi",
        "label": "version",
        "offset": 0,
        "slot": "626",
        "type": "t_uint256"
      }
    ],
    "types": {
      "t_address": {
        "encoding": "inplace",
        "label": "address",
        "numberOfBytes": "20"
      },
      "t_array(t_uint256)200_storage": {
        "base": "t_uint256",
        "encoding": "inplace",
        "label": "uint256[200]",
        "numberOfBytes": "6400"
      },
      "t_array(t_uint256)49_storage": {
        "base": "t_uint256",
        "encoding": "inplace",
        "label": "uint256[49]",
        "numberOfBytes": "1568"
      },
      "t_array(t_uint256)50_storage": {
        "base": "t_uint256",
        "encoding": "inplace",
        "label": "uint256[50]",
        "numberOfBytes": "1600"
      },
      "t_bool": {
        "encoding": "inplace",
        "label": "bool",
        "numberOfBytes": "1"
      },
      "t_contract(ICTokenErc20)12715": {
        "encoding": "inplace",
        "label": "contract ICTokenErc20",
        "numberOfBytes": "20"
      },
      "t_contract(ICompPriceOracle)12738": {
        "encoding": "inplace",
        "label": "contract ICompPriceOracle",
        "numberOfBytes": "20"
      },
      "t_contract(IComptroller)12957": {
        "encoding": "inplace",
        "label": "contract IComptroller",
        "numberOfBytes": "20"
      },
      "t_contract(IERC20)3568": {
        "encoding": "inplace",
        "label": "contract IERC20",
        "numberOfBytes": "20"
      },
      "t_contract(IMiniChefV2)13299": {
        "encoding": "inplace",
        "label": "contract IMiniChefV2",
        "numberOfBytes": "20"
      },
      "t_contract(IUniswapV2Pair)13541": {
        "encoding": "inplace",
        "label": "contract IUniswapV2Pair",
        "numberOfBytes": "20"
      },
      "t_mapping(t_address,t_bool)": {
        "encoding": "mapping",
        "key": "t_address",
        "label": "mapping(address => bool)",
        "numberOfBytes": "32",
        "value": "t_bool"
      },
      "t_string_storage": {
        "encoding": "bytes",
        "label": "string",
        "numberOfBytes": "32"
      },
      "t_uint16": {
        "encoding": "inplace",
        "label": "uint16",
        "numberOfBytes": "2"
      },
      "t_uint256": {
        "encoding": "inplace",
        "label": "uint256",
        "numberOfBytes": "32"
      }
    }
  }
}