{
  "address": "0x5672E5aCbBbb467Feaf91327C847824Dd1C4f4B9",
  "abi": [
    {
      "inputs": [
        {
          "internalType": "address",
          "name": "_owner",
          "type": "address"
        },
        {
          "internalType": "contract Authority",
          "name": "_authority",
          "type": "address"
        }
      ],
      "stateMutability": "nonpayable",
      "type": "constructor"
    },
    {
      "anonymous": false,
      "inputs": [
        {
          "indexed": true,
          "internalType": "contract Authority",
          "name": "authority",
          "type": "address"
        }
      ],
      "name": "AuthorityUpdated",
      "type": "event"
    },
    {
      "anonymous": false,
      "inputs": [
        {
          "indexed": true,
          "internalType": "contract Vault",
          "name": "vault",
          "type": "address"
        },
        {
          "indexed": false,
          "internalType": "uint256",
          "name": "newCustomFeePercent",
          "type": "uint256"
        }
      ],
      "name": "CustomFeePercentUpdated",
      "type": "event"
    },
    {
      "anonymous": false,
      "inputs": [
        {
          "indexed": true,
          "internalType": "contract Vault",
          "name": "vault",
          "type": "address"
        },
        {
          "indexed": false,
          "internalType": "uint256",
          "name": "newCustomHarvestDelay",
          "type": "uint256"
        }
      ],
      "name": "CustomHarvestDelayUpdated",
      "type": "event"
    },
    {
      "anonymous": false,
      "inputs": [
        {
          "indexed": true,
          "internalType": "contract Vault",
          "name": "vault",
          "type": "address"
        },
        {
          "indexed": false,
          "internalType": "uint256",
          "name": "newCustomHarvestWindow",
          "type": "uint256"
        }
      ],
      "name": "CustomHarvestWindowUpdated",
      "type": "event"
    },
    {
      "anonymous": false,
      "inputs": [
        {
          "indexed": true,
          "internalType": "contract Vault",
          "name": "vault",
          "type": "address"
        },
        {
          "indexed": false,
          "internalType": "uint256",
          "name": "newCustomTargetFloatPercent",
          "type": "uint256"
        }
      ],
      "name": "CustomTargetFloatPercentUpdated",
      "type": "event"
    },
    {
      "anonymous": false,
      "inputs": [
        {
          "indexed": false,
          "internalType": "uint256",
          "name": "newDefaultFeePercent",
          "type": "uint256"
        }
      ],
      "name": "DefaultFeePercentUpdated",
      "type": "event"
    },
    {
      "anonymous": false,
      "inputs": [
        {
          "indexed": false,
          "internalType": "uint64",
          "name": "newDefaultHarvestDelay",
          "type": "uint64"
        }
      ],
      "name": "DefaultHarvestDelayUpdated",
      "type": "event"
    },
    {
      "anonymous": false,
      "inputs": [
        {
          "indexed": false,
          "internalType": "uint128",
          "name": "newDefaultHarvestWindow",
          "type": "uint128"
        }
      ],
      "name": "DefaultHarvestWindowUpdated",
      "type": "event"
    },
    {
      "anonymous": false,
      "inputs": [
        {
          "indexed": false,
          "internalType": "uint256",
          "name": "newDefaultTargetFloatPercent",
          "type": "uint256"
        }
      ],
      "name": "DefaultTargetFloatPercentUpdated",
      "type": "event"
    },
    {
      "anonymous": false,
      "inputs": [
        {
          "indexed": true,
          "internalType": "address",
          "name": "owner",
          "type": "address"
        }
      ],
      "name": "OwnerUpdated",
      "type": "event"
    },
    {
      "inputs": [],
      "name": "authority",
      "outputs": [
        {
          "internalType": "contract Authority",
          "name": "",
          "type": "address"
        }
      ],
      "stateMutability": "view",
      "type": "function"
    },
    {
      "inputs": [],
      "name": "defaultFeePercent",
      "outputs": [
        {
          "internalType": "uint256",
          "name": "",
          "type": "uint256"
        }
      ],
      "stateMutability": "view",
      "type": "function"
    },
    {
      "inputs": [],
      "name": "defaultHarvestDelay",
      "outputs": [
        {
          "internalType": "uint64",
          "name": "",
          "type": "uint64"
        }
      ],
      "stateMutability": "view",
      "type": "function"
    },
    {
      "inputs": [],
      "name": "defaultHarvestWindow",
      "outputs": [
        {
          "internalType": "uint128",
          "name": "",
          "type": "uint128"
        }
      ],
      "stateMutability": "view",
      "type": "function"
    },
    {
      "inputs": [],
      "name": "defaultTargetFloatPercent",
      "outputs": [
        {
          "internalType": "uint256",
          "name": "",
          "type": "uint256"
        }
      ],
      "stateMutability": "view",
      "type": "function"
    },
    {
      "inputs": [
        {
          "internalType": "contract Vault",
          "name": "",
          "type": "address"
        }
      ],
      "name": "getVaultCustomFeePercent",
      "outputs": [
        {
          "internalType": "uint256",
          "name": "",
          "type": "uint256"
        }
      ],
      "stateMutability": "view",
      "type": "function"
    },
    {
      "inputs": [
        {
          "internalType": "contract Vault",
          "name": "",
          "type": "address"
        }
      ],
      "name": "getVaultCustomHarvestDelay",
      "outputs": [
        {
          "internalType": "uint64",
          "name": "",
          "type": "uint64"
        }
      ],
      "stateMutability": "view",
      "type": "function"
    },
    {
      "inputs": [
        {
          "internalType": "contract Vault",
          "name": "",
          "type": "address"
        }
      ],
      "name": "getVaultCustomHarvestWindow",
      "outputs": [
        {
          "internalType": "uint128",
          "name": "",
          "type": "uint128"
        }
      ],
      "stateMutability": "view",
      "type": "function"
    },
    {
      "inputs": [
        {
          "internalType": "contract Vault",
          "name": "",
          "type": "address"
        }
      ],
      "name": "getVaultCustomTargetFloatPercent",
      "outputs": [
        {
          "internalType": "uint256",
          "name": "",
          "type": "uint256"
        }
      ],
      "stateMutability": "view",
      "type": "function"
    },
    {
      "inputs": [],
      "name": "owner",
      "outputs": [
        {
          "internalType": "address",
          "name": "",
          "type": "address"
        }
      ],
      "stateMutability": "view",
      "type": "function"
    },
    {
      "inputs": [
        {
          "internalType": "contract Authority",
          "name": "newAuthority",
          "type": "address"
        }
      ],
      "name": "setAuthority",
      "outputs": [],
      "stateMutability": "nonpayable",
      "type": "function"
    },
    {
      "inputs": [
        {
          "internalType": "uint256",
          "name": "newDefaultFeePercent",
          "type": "uint256"
        }
      ],
      "name": "setDefaultFeePercent",
      "outputs": [],
      "stateMutability": "nonpayable",
      "type": "function"
    },
    {
      "inputs": [
        {
          "internalType": "uint64",
          "name": "newDefaultHarvestDelay",
          "type": "uint64"
        }
      ],
      "name": "setDefaultHarvestDelay",
      "outputs": [],
      "stateMutability": "nonpayable",
      "type": "function"
    },
    {
      "inputs": [
        {
          "internalType": "uint128",
          "name": "newDefaultHarvestWindow",
          "type": "uint128"
        }
      ],
      "name": "setDefaultHarvestWindow",
      "outputs": [],
      "stateMutability": "nonpayable",
      "type": "function"
    },
    {
      "inputs": [
        {
          "internalType": "uint256",
          "name": "newDefaultTargetFloatPercent",
          "type": "uint256"
        }
      ],
      "name": "setDefaultTargetFloatPercent",
      "outputs": [],
      "stateMutability": "nonpayable",
      "type": "function"
    },
    {
      "inputs": [
        {
          "internalType": "address",
          "name": "newOwner",
          "type": "address"
        }
      ],
      "name": "setOwner",
      "outputs": [],
      "stateMutability": "nonpayable",
      "type": "function"
    },
    {
      "inputs": [
        {
          "internalType": "contract Vault",
          "name": "vault",
          "type": "address"
        },
        {
          "internalType": "uint256",
          "name": "customFeePercent",
          "type": "uint256"
        }
      ],
      "name": "setVaultCustomFeePercent",
      "outputs": [],
      "stateMutability": "nonpayable",
      "type": "function"
    },
    {
      "inputs": [
        {
          "internalType": "contract Vault",
          "name": "vault",
          "type": "address"
        },
        {
          "internalType": "uint64",
          "name": "customHarvestDelay",
          "type": "uint64"
        }
      ],
      "name": "setVaultCustomHarvestDelay",
      "outputs": [],
      "stateMutability": "nonpayable",
      "type": "function"
    },
    {
      "inputs": [
        {
          "internalType": "contract Vault",
          "name": "vault",
          "type": "address"
        },
        {
          "internalType": "uint128",
          "name": "customHarvestWindow",
          "type": "uint128"
        }
      ],
      "name": "setVaultCustomHarvestWindow",
      "outputs": [],
      "stateMutability": "nonpayable",
      "type": "function"
    },
    {
      "inputs": [
        {
          "internalType": "contract Vault",
          "name": "vault",
          "type": "address"
        },
        {
          "internalType": "uint256",
          "name": "customTargetFloatPercent",
          "type": "uint256"
        }
      ],
      "name": "setVaultCustomTargetFloatPercent",
      "outputs": [],
      "stateMutability": "nonpayable",
      "type": "function"
    },
    {
      "inputs": [
        {
          "internalType": "contract Vault",
          "name": "vault",
          "type": "address"
        }
      ],
      "name": "syncFeePercent",
      "outputs": [],
      "stateMutability": "nonpayable",
      "type": "function"
    },
    {
      "inputs": [
        {
          "internalType": "contract Vault",
          "name": "vault",
          "type": "address"
        }
      ],
      "name": "syncHarvestDelay",
      "outputs": [],
      "stateMutability": "nonpayable",
      "type": "function"
    },
    {
      "inputs": [
        {
          "internalType": "contract Vault",
          "name": "vault",
          "type": "address"
        }
      ],
      "name": "syncHarvestWindow",
      "outputs": [],
      "stateMutability": "nonpayable",
      "type": "function"
    },
    {
      "inputs": [
        {
          "internalType": "contract Vault",
          "name": "vault",
          "type": "address"
        }
      ],
      "name": "syncTargetFloatPercent",
      "outputs": [],
      "stateMutability": "nonpayable",
      "type": "function"
    }
  ],
  "transactionHash": "0x43c2826d836e10551882d2ee36e2421088b31136747e7ba111234ae2f78c072e",
  "args": [
    "0xf09c27934A92c56c7C0dD6cBAc858C35fBd5170f",
    "0xE669f5f83616639D3442b03108233E0054afbef8"
  ],
  "solcInputHash": "9dd7be47a0ead41cf23f6aa7653a5c36",
  "bytecode": "0x608060405234801561001057600080fd5b50604051610deb380380610deb83398101604081905261002f916100de565b600080546001600160a01b03199081166001600160a01b038581169182178455600180549093169085161790915560405184928492917f4ffd725fc4a22075e9ec71c59edf9c38cdeb588a91b24fc5b61388c5be41282b9190a26040516001600160a01b038216907f2f658b440c35314f52658ea8a740e05b284cdc84dc9ae01e891f21b8933e7cad90600090a250505050610118565b6001600160a01b03811681146100db57600080fd5b50565b600080604083850312156100f157600080fd5b82516100fc816100c6565b602084015190925061010d816100c6565b809150509250929050565b610cc4806101276000396000f3fe608060405234801561001057600080fd5b50600436106101285760003560e01c806305d7282c1461012d57806313af4035146101425780632487bbff14610155578063261d26b6146101945780632b4b2753146101ab5780633295ce96146101be5780634022d941146101d15780634ce908f4146101e45780635607702f146101f75780635fad65b01461020a5780636eae95131461022a5780636f8409321461024a5780637a9e5e4b146102805780638da5cb5b14610293578063ac345d03146102be578063af54da91146102d1578063b5ef8b1e146102e4578063b7c392c8146102fe578063bc3e38fa14610311578063bf7e214f14610324578063c9b639d214610337578063dd55002d1461034a578063e7926d5c1461035d578063e7d9934b14610366575b600080fd5b61014061013b366004610aeb565b610379565b005b610140610150366004610b17565b61040d565b61017e610163366004610b17565b6007602052600090815260409020546001600160801b031681565b60405161018b9190610b3b565b60405180910390f35b61019d60045481565b60405190815260200161018b565b6101406101b9366004610b4f565b610487565b6101406101cc366004610b84565b6104f5565b6101406101df366004610bb6565b61057b565b6101406101f2366004610bd1565b6105f8565b610140610205366004610b17565b61068b565b61019d610218366004610b17565b60086020526000908152604090205481565b61019d610238366004610b17565b60056020526000908152604090205481565b610273610258366004610b17565b6006602052600090815260409020546001600160401b031681565b60405161018b9190610c06565b61014061028e366004610b17565b61071e565b6000546102a6906001600160a01b031681565b6040516001600160a01b03909116815260200161018b565b6101406102cc366004610b17565b61079a565b6101406102df366004610c1a565b6107e7565b60035461017e90600160401b90046001600160801b031681565b61014061030c366004610b17565b61087a565b61014061031f366004610aeb565b6108c6565b6001546102a6906001600160a01b031681565b600354610273906001600160401b031681565b610140610358366004610b4f565b610945565b61019d60025481565b610140610374366004610b17565b6109ac565b61038f336000356001600160e01b031916610a10565b6103b45760405162461bcd60e51b81526004016103ab90610c46565b60405180910390fd5b6001600160a01b03821660008181526008602052604090819020839055517fd710c46434b3517342d3119bd7db2b06b533042ad40997249339dc52a84ef87c906104019084815260200190565b60405180910390a25050565b610423336000356001600160e01b031916610a10565b61043f5760405162461bcd60e51b81526004016103ab90610c46565b600080546001600160a01b0319166001600160a01b038316908117825560405190917f4ffd725fc4a22075e9ec71c59edf9c38cdeb588a91b24fc5b61388c5be41282b91a250565b61049d336000356001600160e01b031916610a10565b6104b95760405162461bcd60e51b81526004016103ab90610c46565b60048190556040518181527ff6ac39ac7a3a4a8e0820f1f0db868216520c8194410993c9a4256df18f2c1648906020015b60405180910390a150565b61050b336000356001600160e01b031916610a10565b6105275760405162461bcd60e51b81526004016103ab90610c46565b60038054600160401b600160c01b031916600160401b6001600160801b038416021790556040517f54707f3cc4f1f275c1ca6cc5ea22b131da3e4e3187055769a011b8bfa3fe7e2c906104ea908390610b3b565b610591336000356001600160e01b031916610a10565b6105ad5760405162461bcd60e51b81526004016103ab90610c46565b600380546001600160401b0319166001600160401b0383161790556040517fd49755c36f0046593fc57349146d19a3d849086b9f6f07f5262bbe51338dd020906104ea908390610c06565b61060e336000356001600160e01b031916610a10565b61062a5760405162461bcd60e51b81526004016103ab90610c46565b6001600160a01b0382166000818152600760205260409081902080546001600160801b0319166001600160801b038516179055517f020f4b532e50c21e70f84cf5b279d8b67380fe88a156bc883d11cbd3c906460890610401908490610b3b565b6001600160a01b0381166000818152600660205260409020546001600160401b031690637b72aeb982156106bf57826106cc565b6003546001600160401b03165b6040518263ffffffff1660e01b81526004016106e89190610c06565b600060405180830381600087803b15801561070257600080fd5b505af1158015610716573d6000803e3d6000fd5b505050505050565b610734336000356001600160e01b031916610a10565b6107505760405162461bcd60e51b81526004016103ab90610c46565b600180546001600160a01b0319166001600160a01b0383169081179091556040517f2f658b440c35314f52658ea8a740e05b284cdc84dc9ae01e891f21b8933e7cad90600090a250565b6001600160a01b0381166000818152600860205260409020549063bd662f8882156107c557826107c9565b6004545b6040518263ffffffff1660e01b81526004016106e891815260200190565b6107fd336000356001600160e01b031916610a10565b6108195760405162461bcd60e51b81526004016103ab90610c46565b6001600160a01b0382166000818152600660205260409081902080546001600160401b0319166001600160401b038516179055517f0d239ace1084ebc7a2681e317ee23b0ddccdfb63175585667a8cf7d6771aa36e90610401908490610c06565b6001600160a01b03811660008181526005602052604090205490637ce3489b82156108a557826107c9565b6002546040518263ffffffff1660e01b81526004016106e891815260200190565b6108dc336000356001600160e01b031916610a10565b6108f85760405162461bcd60e51b81526004016103ab90610c46565b6001600160a01b03821660008181526005602052604090819020839055517f1d66532ea81d485f8eedbb61c45181fc69b2cbf6f5b05f741b0d3d54d80f9ea9906104019084815260200190565b61095b336000356001600160e01b031916610a10565b6109775760405162461bcd60e51b81526004016103ab90610c46565b60028190556040518181527f1ba0c7196822b2db3b609b1fbf446c9e0857b6864a4143877b6eb5fa9e9d2bb7906020016104ea565b6001600160a01b0381166000818152600760205260409020546001600160801b0316906307b35d1d82156109e057826109f4565b600354600160401b90046001600160801b03165b6040518263ffffffff1660e01b81526004016106e89190610b3b565b6001546000906001600160a01b03168015610ab95760405163b700961360e01b81526001600160a01b0385811660048301523060248301526001600160e01b03198516604483015282169063b700961390606401602060405180830381865afa925050508015610a9d575060408051601f3d908101601f19168201909252610a9a91810190610c6c565b60015b610aa657610ab9565b8015610ab757600192505050610acd565b505b50506000546001600160a01b038381169116145b92915050565b6001600160a01b0381168114610ae857600080fd5b50565b60008060408385031215610afe57600080fd5b8235610b0981610ad3565b946020939093013593505050565b600060208284031215610b2957600080fd5b8135610b3481610ad3565b9392505050565b6001600160801b0391909116815260200190565b600060208284031215610b6157600080fd5b5035919050565b80356001600160801b0381168114610b7f57600080fd5b919050565b600060208284031215610b9657600080fd5b610b3482610b68565b80356001600160401b0381168114610b7f57600080fd5b600060208284031215610bc857600080fd5b610b3482610b9f565b60008060408385031215610be457600080fd5b8235610bef81610ad3565b9150610bfd60208401610b68565b90509250929050565b6001600160401b0391909116815260200190565b60008060408385031215610c2d57600080fd5b8235610c3881610ad3565b9150610bfd60208401610b9f565b6020808252600c908201526b15539055551213d49256915160a21b604082015260600190565b600060208284031215610c7e57600080fd5b81518015158114610b3457600080fdfea26469706673582212206c622dea89a10a9c9e772d46a9ebaba5f0f43f428144a34d9332442a5403b3c764736f6c634300080a0033",
  "devdoc": {
    "author": "Transmissions11 and JetJadeja",
    "events": {
      "CustomFeePercentUpdated(address,uint256)": {
        "params": {
          "newCustomFeePercent": "The new custom fee percentage for the Vault.",
          "vault": "The Vault that had its custom fee percentage set/updated."
        }
      },
      "CustomHarvestDelayUpdated(address,uint256)": {
        "params": {
          "newCustomHarvestDelay": "The new custom harvest delay for the Vault.",
          "vault": "The Vault that had its custom harvest delay set/updated."
        }
      },
      "CustomHarvestWindowUpdated(address,uint256)": {
        "params": {
          "newCustomHarvestWindow": "The new custom harvest window for the Vault.",
          "vault": "The Vault that had its custom harvest window set/updated."
        }
      },
      "CustomTargetFloatPercentUpdated(address,uint256)": {
        "params": {
          "newCustomTargetFloatPercent": "The new custom target float percentage for the Vault.",
          "vault": "The Vault that had its custom target float percentage set/updated."
        }
      },
      "DefaultFeePercentUpdated(uint256)": {
        "params": {
          "newDefaultFeePercent": "The new default fee percentage."
        }
      },
      "DefaultHarvestDelayUpdated(uint64)": {
        "params": {
          "newDefaultHarvestDelay": "The new default harvest delay."
        }
      },
      "DefaultHarvestWindowUpdated(uint128)": {
        "params": {
          "newDefaultHarvestWindow": "The new default harvest window."
        }
      },
      "DefaultTargetFloatPercentUpdated(uint256)": {
        "params": {
          "newDefaultTargetFloatPercent": "The new default target float percentage."
        }
      }
    },
    "kind": "dev",
    "methods": {
      "constructor": {
        "params": {
          "_authority": "The Authority of the module.",
          "_owner": "The owner of the module."
        }
      },
      "setDefaultFeePercent(uint256)": {
        "params": {
          "newDefaultFeePercent": "The new default fee percentage to set."
        }
      },
      "setDefaultHarvestDelay(uint64)": {
        "params": {
          "newDefaultHarvestDelay": "The new default harvest delay to set."
        }
      },
      "setDefaultHarvestWindow(uint128)": {
        "params": {
          "newDefaultHarvestWindow": "The new default harvest window to set."
        }
      },
      "setDefaultTargetFloatPercent(uint256)": {
        "params": {
          "newDefaultTargetFloatPercent": "The new default target float percentage to set."
        }
      },
      "setVaultCustomFeePercent(address,uint256)": {
        "params": {
          "customFeePercent": "The new custom fee percentage to set.",
          "vault": "The Vault to set the custom fee percentage for."
        }
      },
      "setVaultCustomHarvestDelay(address,uint64)": {
        "params": {
          "customHarvestDelay": "The new custom harvest delay to set.",
          "vault": "The Vault to set the custom harvest delay for."
        }
      },
      "setVaultCustomHarvestWindow(address,uint128)": {
        "params": {
          "customHarvestWindow": "The new custom harvest window to set.",
          "vault": "The Vault to set the custom harvest window for."
        }
      },
      "setVaultCustomTargetFloatPercent(address,uint256)": {
        "params": {
          "customTargetFloatPercent": "The new custom target float percentage to set.",
          "vault": "The Vault to set the custom target float percentage for."
        }
      },
      "syncFeePercent(address)": {
        "params": {
          "vault": "The Vault to sync the fee percentage for."
        }
      },
      "syncHarvestDelay(address)": {
        "params": {
          "vault": "The Vault to sync the harvest delay for."
        }
      },
      "syncHarvestWindow(address)": {
        "params": {
          "vault": "The Vault to sync the harvest window for."
        }
      },
      "syncTargetFloatPercent(address)": {
        "params": {
          "vault": "The Vault to sync the target float percentage for."
        }
      }
    },
    "stateVariables": {
      "getVaultCustomFeePercent": {
        "details": "Will be 0 if there is no custom fee percentage for the Vault."
      },
      "getVaultCustomHarvestDelay": {
        "details": "Will be 0 if there is no custom harvest delay for the Vault."
      },
      "getVaultCustomHarvestWindow": {
        "details": "Will be 0 if there is no custom harvest window for the Vault."
      },
      "getVaultCustomTargetFloatPercent": {
        "details": "Will be 0 if there is no custom target float percentage for the Vault."
      }
    },
    "title": "Rari Vault Configuration Module",
    "version": 1
  },
  "userdoc": {
    "events": {
      "CustomFeePercentUpdated(address,uint256)": {
        "notice": "Emitted when a Vault has its custom fee percentage set/updated."
      },
      "CustomHarvestDelayUpdated(address,uint256)": {
        "notice": "Emitted when a Vault has its custom harvest delay set/updated."
      },
      "CustomHarvestWindowUpdated(address,uint256)": {
        "notice": "Emitted when a Vault has its custom harvest window set/updated."
      },
      "CustomTargetFloatPercentUpdated(address,uint256)": {
        "notice": "Emitted when a Vault has its custom target float percentage set/updated."
      },
      "DefaultFeePercentUpdated(uint256)": {
        "notice": "Emitted when the default fee percentage is updated."
      },
      "DefaultHarvestDelayUpdated(uint64)": {
        "notice": "Emitted when the default harvest delay is updated."
      },
      "DefaultHarvestWindowUpdated(uint128)": {
        "notice": "Emitted when the default harvest window is updated."
      },
      "DefaultTargetFloatPercentUpdated(uint256)": {
        "notice": "Emitted when the default target float percentage is updated."
      }
    },
    "kind": "user",
    "methods": {
      "constructor": {
        "notice": "Creates a Vault configuration module."
      },
      "defaultFeePercent()": {
        "notice": "The default fee percentage for Vaults."
      },
      "defaultHarvestDelay()": {
        "notice": "The default harvest delay for Vaults."
      },
      "defaultHarvestWindow()": {
        "notice": "The default harvest window for Vaults."
      },
      "defaultTargetFloatPercent()": {
        "notice": "The default target float percentage for Vaults."
      },
      "getVaultCustomFeePercent(address)": {
        "notice": "Maps Vaults to their custom fee percentage."
      },
      "getVaultCustomHarvestDelay(address)": {
        "notice": "Maps Vaults to their custom harvest delay."
      },
      "getVaultCustomHarvestWindow(address)": {
        "notice": "Maps Vaults to their custom harvest window."
      },
      "getVaultCustomTargetFloatPercent(address)": {
        "notice": "Maps Vaults to their custom target float percentage."
      },
      "setDefaultFeePercent(uint256)": {
        "notice": "Sets the default fee percentage for Vaults."
      },
      "setDefaultHarvestDelay(uint64)": {
        "notice": "Sets the default harvest delay for Vaults."
      },
      "setDefaultHarvestWindow(uint128)": {
        "notice": "Sets the default harvest window for Vaults."
      },
      "setDefaultTargetFloatPercent(uint256)": {
        "notice": "Sets the default target float percentage for Vaults."
      },
      "setVaultCustomFeePercent(address,uint256)": {
        "notice": "Sets the custom fee percentage for the Vault."
      },
      "setVaultCustomHarvestDelay(address,uint64)": {
        "notice": "Sets the custom harvest delay for the Vault."
      },
      "setVaultCustomHarvestWindow(address,uint128)": {
        "notice": "Sets the custom harvest window for the Vault."
      },
      "setVaultCustomTargetFloatPercent(address,uint256)": {
        "notice": "Sets the custom target float percentage for the Vault."
      },
      "syncFeePercent(address)": {
        "notice": "Syncs a Vault's fee percentage with either the Vault's custom fee percentage or the default fee percentage if a custom percentage is not set."
      },
      "syncHarvestDelay(address)": {
        "notice": "Syncs a Vault's harvest delay with either the Vault's custom harvest delay or the default harvest delay if a custom delay is not set."
      },
      "syncHarvestWindow(address)": {
        "notice": "Syncs a Vault's harvest window with either the Vault's custom harvest window or the default harvest window if a custom window is not set."
      },
      "syncTargetFloatPercent(address)": {
        "notice": "Syncs a Vault's target float percentage with either the Vault's custom target float percentage or the default target float percentage if a custom percentage is not set."
      }
    },
    "notice": "Module for configuring Vault parameters.",
    "version": 1
  },
  "storageLayout": {
    "storage": [
      {
        "astId": 9760,
        "contract": "src/vault/modules/VaultConfigurationModule.sol:VaultConfigurationModule",
        "label": "owner",
        "offset": 0,
        "slot": "0",
        "type": "t_address"
      },
      {
        "astId": 9763,
        "contract": "src/vault/modules/VaultConfigurationModule.sol:VaultConfigurationModule",
        "label": "authority",
        "offset": 0,
        "slot": "1",
        "type": "t_contract(Authority)9748"
      },
      {
        "astId": 18304,
        "contract": "src/vault/modules/VaultConfigurationModule.sol:VaultConfigurationModule",
        "label": "defaultFeePercent",
        "offset": 0,
        "slot": "2",
        "type": "t_uint256"
      },
      {
        "astId": 18307,
        "contract": "src/vault/modules/VaultConfigurationModule.sol:VaultConfigurationModule",
        "label": "defaultHarvestDelay",
        "offset": 0,
        "slot": "3",
        "type": "t_uint64"
      },
      {
        "astId": 18310,
        "contract": "src/vault/modules/VaultConfigurationModule.sol:VaultConfigurationModule",
        "label": "defaultHarvestWindow",
        "offset": 8,
        "slot": "3",
        "type": "t_uint128"
      },
      {
        "astId": 18313,
        "contract": "src/vault/modules/VaultConfigurationModule.sol:VaultConfigurationModule",
        "label": "defaultTargetFloatPercent",
        "offset": 0,
        "slot": "4",
        "type": "t_uint256"
      },
      {
        "astId": 18419,
        "contract": "src/vault/modules/VaultConfigurationModule.sol:VaultConfigurationModule",
        "label": "getVaultCustomFeePercent",
        "offset": 0,
        "slot": "5",
        "type": "t_mapping(t_contract(Vault)17624,t_uint256)"
      },
      {
        "astId": 18425,
        "contract": "src/vault/modules/VaultConfigurationModule.sol:VaultConfigurationModule",
        "label": "getVaultCustomHarvestDelay",
        "offset": 0,
        "slot": "6",
        "type": "t_mapping(t_contract(Vault)17624,t_uint64)"
      },
      {
        "astId": 18431,
        "contract": "src/vault/modules/VaultConfigurationModule.sol:VaultConfigurationModule",
        "label": "getVaultCustomHarvestWindow",
        "offset": 0,
        "slot": "7",
        "type": "t_mapping(t_contract(Vault)17624,t_uint128)"
      },
      {
        "astId": 18437,
        "contract": "src/vault/modules/VaultConfigurationModule.sol:VaultConfigurationModule",
        "label": "getVaultCustomTargetFloatPercent",
        "offset": 0,
        "slot": "8",
        "type": "t_mapping(t_contract(Vault)17624,t_uint256)"
      }
    ],
    "types": {
      "t_address": {
        "encoding": "inplace",
        "label": "address",
        "numberOfBytes": "20"
      },
      "t_contract(Authority)9748": {
        "encoding": "inplace",
        "label": "contract Authority",
        "numberOfBytes": "20"
      },
      "t_contract(Vault)17624": {
        "encoding": "inplace",
        "label": "contract Vault",
        "numberOfBytes": "20"
      },
      "t_mapping(t_contract(Vault)17624,t_uint128)": {
        "encoding": "mapping",
        "key": "t_contract(Vault)17624",
        "label": "mapping(contract Vault => uint128)",
        "numberOfBytes": "32",
        "value": "t_uint128"
      },
      "t_mapping(t_contract(Vault)17624,t_uint256)": {
        "encoding": "mapping",
        "key": "t_contract(Vault)17624",
        "label": "mapping(contract Vault => uint256)",
        "numberOfBytes": "32",
        "value": "t_uint256"
      },
      "t_mapping(t_contract(Vault)17624,t_uint64)": {
        "encoding": "mapping",
        "key": "t_contract(Vault)17624",
        "label": "mapping(contract Vault => uint64)",
        "numberOfBytes": "32",
        "value": "t_uint64"
      },
      "t_uint128": {
        "encoding": "inplace",
        "label": "uint128",
        "numberOfBytes": "16"
      },
      "t_uint256": {
        "encoding": "inplace",
        "label": "uint256",
        "numberOfBytes": "32"
      },
      "t_uint64": {
        "encoding": "inplace",
        "label": "uint64",
        "numberOfBytes": "8"
      }
    }
  }
}