{
  "address": "0xEC71e47c3573D50FFc5f5AD43EB81598c5B65d8a",
  "abi": [
    {
      "anonymous": false,
      "inputs": [
        {
          "indexed": true,
          "internalType": "address",
          "name": "owner",
          "type": "address"
        },
        {
          "indexed": true,
          "internalType": "address",
          "name": "spender",
          "type": "address"
        },
        {
          "indexed": false,
          "internalType": "uint256",
          "name": "value",
          "type": "uint256"
        }
      ],
      "name": "Approval",
      "type": "event"
    },
    {
      "anonymous": false,
      "inputs": [
        {
          "indexed": false,
          "internalType": "address",
          "name": "addr",
          "type": "address"
        },
        {
          "indexed": false,
          "internalType": "uint256",
          "name": "want",
          "type": "uint256"
        },
        {
          "indexed": false,
          "internalType": "uint256",
          "name": "shares",
          "type": "uint256"
        }
      ],
      "name": "Deposit",
      "type": "event"
    },
    {
      "anonymous": false,
      "inputs": [
        {
          "indexed": false,
          "internalType": "uint256",
          "name": "harvested",
          "type": "uint256"
        },
        {
          "indexed": false,
          "internalType": "uint256",
          "name": "profitFeeTaken",
          "type": "uint256"
        },
        {
          "indexed": false,
          "internalType": "uint256",
          "name": "operationalFeeTaken",
          "type": "uint256"
        }
      ],
      "name": "Harvested",
      "type": "event"
    },
    {
      "anonymous": false,
      "inputs": [
        {
          "indexed": false,
          "internalType": "uint256",
          "name": "shortPrice",
          "type": "uint256"
        },
        {
          "indexed": false,
          "internalType": "uint256",
          "name": "tvlBeforeRebalance",
          "type": "uint256"
        },
        {
          "indexed": false,
          "internalType": "uint256",
          "name": "positionOffset",
          "type": "uint256"
        }
      ],
      "name": "Rebalance",
      "type": "event"
    },
    {
      "anonymous": false,
      "inputs": [
        {
          "indexed": true,
          "internalType": "bytes32",
          "name": "role",
          "type": "bytes32"
        },
        {
          "indexed": true,
          "internalType": "bytes32",
          "name": "previousAdminRole",
          "type": "bytes32"
        },
        {
          "indexed": true,
          "internalType": "bytes32",
          "name": "newAdminRole",
          "type": "bytes32"
        }
      ],
      "name": "RoleAdminChanged",
      "type": "event"
    },
    {
      "anonymous": false,
      "inputs": [
        {
          "indexed": true,
          "internalType": "bytes32",
          "name": "role",
          "type": "bytes32"
        },
        {
          "indexed": true,
          "internalType": "address",
          "name": "account",
          "type": "address"
        },
        {
          "indexed": true,
          "internalType": "address",
          "name": "sender",
          "type": "address"
        }
      ],
      "name": "RoleGranted",
      "type": "event"
    },
    {
      "anonymous": false,
      "inputs": [
        {
          "indexed": true,
          "internalType": "bytes32",
          "name": "role",
          "type": "bytes32"
        },
        {
          "indexed": true,
          "internalType": "address",
          "name": "account",
          "type": "address"
        },
        {
          "indexed": true,
          "internalType": "address",
          "name": "sender",
          "type": "address"
        }
      ],
      "name": "RoleRevoked",
      "type": "event"
    },
    {
      "anonymous": false,
      "inputs": [
        {
          "indexed": true,
          "internalType": "address",
          "name": "from",
          "type": "address"
        },
        {
          "indexed": true,
          "internalType": "address",
          "name": "to",
          "type": "address"
        },
        {
          "indexed": false,
          "internalType": "uint256",
          "name": "value",
          "type": "uint256"
        }
      ],
      "name": "Transfer",
      "type": "event"
    },
    {
      "anonymous": false,
      "inputs": [
        {
          "indexed": false,
          "internalType": "address",
          "name": "newManager",
          "type": "address"
        }
      ],
      "name": "UpdatedManager",
      "type": "event"
    },
    {
      "anonymous": false,
      "inputs": [
        {
          "indexed": false,
          "internalType": "address",
          "name": "rewardsAddr",
          "type": "address"
        }
      ],
      "name": "UpdatedRewardsAddr",
      "type": "event"
    },
    {
      "anonymous": false,
      "inputs": [
        {
          "indexed": false,
          "internalType": "address",
          "name": "addr",
          "type": "address"
        },
        {
          "indexed": false,
          "internalType": "uint256",
          "name": "want",
          "type": "uint256"
        },
        {
          "indexed": false,
          "internalType": "uint256",
          "name": "shares",
          "type": "uint256"
        },
        {
          "indexed": false,
          "internalType": "uint256",
          "name": "fee",
          "type": "uint256"
        }
      ],
      "name": "Withdrawal",
      "type": "event"
    },
    {
      "inputs": [],
      "name": "DEFAULT_ADMIN_ROLE",
      "outputs": [
        {
          "internalType": "bytes32",
          "name": "",
          "type": "bytes32"
        }
      ],
      "stateMutability": "view",
      "type": "function"
    },
    {
      "inputs": [],
      "name": "DOMAIN_SEPARATOR",
      "outputs": [
        {
          "internalType": "bytes32",
          "name": "",
          "type": "bytes32"
        }
      ],
      "stateMutability": "view",
      "type": "function"
    },
    {
      "inputs": [],
      "name": "MANAGER_ROLE",
      "outputs": [
        {
          "internalType": "bytes32",
          "name": "",
          "type": "bytes32"
        }
      ],
      "stateMutability": "view",
      "type": "function"
    },
    {
      "inputs": [],
      "name": "WHITELIST_ROLE",
      "outputs": [
        {
          "internalType": "bytes32",
          "name": "",
          "type": "bytes32"
        }
      ],
      "stateMutability": "view",
      "type": "function"
    },
    {
      "inputs": [
        {
          "internalType": "contract IUniswapV2Pair",
          "name": "pair",
          "type": "address"
        },
        {
          "internalType": "uint256",
          "name": "amountIn",
          "type": "uint256"
        },
        {
          "internalType": "address",
          "name": "inToken",
          "type": "address"
        },
        {
          "internalType": "address",
          "name": "outToken",
          "type": "address"
        }
      ],
      "name": "_swapExactTokensForTokens",
      "outputs": [
        {
          "internalType": "uint256",
          "name": "",
          "type": "uint256"
        }
      ],
      "stateMutability": "nonpayable",
      "type": "function"
    },
    {
      "inputs": [
        {
          "internalType": "contract IUniswapV2Pair",
          "name": "pair",
          "type": "address"
        },
        {
          "internalType": "uint256",
          "name": "amountOut",
          "type": "uint256"
        },
        {
          "internalType": "address",
          "name": "inToken",
          "type": "address"
        },
        {
          "internalType": "address",
          "name": "outToken",
          "type": "address"
        }
      ],
      "name": "_swapTokensForExactTokens",
      "outputs": [
        {
          "internalType": "uint256",
          "name": "",
          "type": "uint256"
        }
      ],
      "stateMutability": "nonpayable",
      "type": "function"
    },
    {
      "inputs": [],
      "name": "accountDepositLimit",
      "outputs": [
        {
          "internalType": "uint256",
          "name": "",
          "type": "uint256"
        }
      ],
      "stateMutability": "view",
      "type": "function"
    },
    {
      "inputs": [
        {
          "internalType": "address",
          "name": "owner",
          "type": "address"
        },
        {
          "internalType": "address",
          "name": "spender",
          "type": "address"
        }
      ],
      "name": "allowance",
      "outputs": [
        {
          "internalType": "uint256",
          "name": "",
          "type": "uint256"
        }
      ],
      "stateMutability": "view",
      "type": "function"
    },
    {
      "inputs": [
        {
          "internalType": "address",
          "name": "spender",
          "type": "address"
        },
        {
          "internalType": "uint256",
          "name": "amount",
          "type": "uint256"
        }
      ],
      "name": "approve",
      "outputs": [
        {
          "internalType": "bool",
          "name": "",
          "type": "bool"
        }
      ],
      "stateMutability": "nonpayable",
      "type": "function"
    },
    {
      "inputs": [
        {
          "internalType": "address",
          "name": "account",
          "type": "address"
        }
      ],
      "name": "balanceOf",
      "outputs": [
        {
          "internalType": "uint256",
          "name": "",
          "type": "uint256"
        }
      ],
      "stateMutability": "view",
      "type": "function"
    },
    {
      "inputs": [],
      "name": "closePosition",
      "outputs": [],
      "stateMutability": "nonpayable",
      "type": "function"
    },
    {
      "inputs": [],
      "name": "comptroller",
      "outputs": [
        {
          "internalType": "contract IComptroller",
          "name": "",
          "type": "address"
        }
      ],
      "stateMutability": "view",
      "type": "function"
    },
    {
      "inputs": [],
      "name": "decimals",
      "outputs": [
        {
          "internalType": "uint8",
          "name": "",
          "type": "uint8"
        }
      ],
      "stateMutability": "view",
      "type": "function"
    },
    {
      "inputs": [
        {
          "internalType": "address",
          "name": "spender",
          "type": "address"
        },
        {
          "internalType": "uint256",
          "name": "subtractedValue",
          "type": "uint256"
        }
      ],
      "name": "decreaseAllowance",
      "outputs": [
        {
          "internalType": "bool",
          "name": "",
          "type": "bool"
        }
      ],
      "stateMutability": "nonpayable",
      "type": "function"
    },
    {
      "inputs": [
        {
          "internalType": "uint256",
          "name": "total",
          "type": "uint256"
        }
      ],
      "name": "deposit",
      "outputs": [],
      "stateMutability": "nonpayable",
      "type": "function"
    },
    {
      "inputs": [],
      "name": "estimatedTotalAssets",
      "outputs": [
        {
          "internalType": "uint256",
          "name": "assets",
          "type": "uint256"
        }
      ],
      "stateMutability": "view",
      "type": "function"
    },
    {
      "inputs": [],
      "name": "getCollateralRatio",
      "outputs": [
        {
          "internalType": "uint256",
          "name": "",
          "type": "uint256"
        }
      ],
      "stateMutability": "view",
      "type": "function"
    },
    {
      "inputs": [],
      "name": "getPricePerShare",
      "outputs": [
        {
          "internalType": "uint256",
          "name": "",
          "type": "uint256"
        }
      ],
      "stateMutability": "view",
      "type": "function"
    },
    {
      "inputs": [
        {
          "internalType": "bytes32",
          "name": "role",
          "type": "bytes32"
        }
      ],
      "name": "getRoleAdmin",
      "outputs": [
        {
          "internalType": "bytes32",
          "name": "",
          "type": "bytes32"
        }
      ],
      "stateMutability": "view",
      "type": "function"
    },
    {
      "inputs": [],
      "name": "getTVL",
      "outputs": [
        {
          "internalType": "uint256",
          "name": "tvl",
          "type": "uint256"
        },
        {
          "internalType": "uint256",
          "name": "collateralBalance",
          "type": "uint256"
        },
        {
          "internalType": "uint256",
          "name": "shortPosition",
          "type": "uint256"
        },
        {
          "internalType": "uint256",
          "name": "shortBalance",
          "type": "uint256"
        },
        {
          "internalType": "uint256",
          "name": "lpBalance",
          "type": "uint256"
        },
        {
          "internalType": "uint256",
          "name": "wantBalance",
          "type": "uint256"
        }
      ],
      "stateMutability": "view",
      "type": "function"
    },
    {
      "inputs": [
        {
          "internalType": "bytes32",
          "name": "role",
          "type": "bytes32"
        },
        {
          "internalType": "address",
          "name": "account",
          "type": "address"
        }
      ],
      "name": "grantRole",
      "outputs": [],
      "stateMutability": "nonpayable",
      "type": "function"
    },
    {
      "inputs": [],
      "name": "harvest",
      "outputs": [],
      "stateMutability": "nonpayable",
      "type": "function"
    },
    {
      "inputs": [
        {
          "internalType": "bytes32",
          "name": "role",
          "type": "bytes32"
        },
        {
          "internalType": "address",
          "name": "account",
          "type": "address"
        }
      ],
      "name": "hasRole",
      "outputs": [
        {
          "internalType": "bool",
          "name": "",
          "type": "bool"
        }
      ],
      "stateMutability": "view",
      "type": "function"
    },
    {
      "inputs": [
        {
          "internalType": "address",
          "name": "spender",
          "type": "address"
        },
        {
          "internalType": "uint256",
          "name": "addedValue",
          "type": "uint256"
        }
      ],
      "name": "increaseAllowance",
      "outputs": [
        {
          "internalType": "bool",
          "name": "",
          "type": "bool"
        }
      ],
      "stateMutability": "nonpayable",
      "type": "function"
    },
    {
      "inputs": [
        {
          "components": [
            {
              "internalType": "address",
              "name": "want",
              "type": "address"
            },
            {
              "internalType": "address",
              "name": "short",
              "type": "address"
            },
            {
              "internalType": "address",
              "name": "cTokenLend",
              "type": "address"
            },
            {
              "internalType": "address",
              "name": "cTokenBorrow",
              "type": "address"
            },
            {
              "internalType": "address",
              "name": "uniPair",
              "type": "address"
            },
            {
              "internalType": "address",
              "name": "uniFarm",
              "type": "address"
            },
            {
              "internalType": "address",
              "name": "farmLp",
              "type": "address"
            },
            {
              "internalType": "address",
              "name": "farmToken",
              "type": "address"
            },
            {
              "internalType": "address",
              "name": "router",
              "type": "address"
            },
            {
              "internalType": "address",
              "name": "comptroller",
              "type": "address"
            },
            {
              "internalType": "address",
              "name": "benqiPair",
              "type": "address"
            },
            {
              "internalType": "address",
              "name": "benqiToken",
              "type": "address"
            },
            {
              "internalType": "uint256",
              "name": "safeCollateralRatio",
              "type": "uint256"
            },
            {
              "internalType": "uint256",
              "name": "operationalFee",
              "type": "uint256"
            },
            {
              "internalType": "uint256",
              "name": "profitFee",
              "type": "uint256"
            },
            {
              "internalType": "address",
              "name": "manager",
              "type": "address"
            }
          ],
          "internalType": "struct vUSDCavaxPB.Config",
          "name": "config",
          "type": "tuple"
        }
      ],
      "name": "initialize",
      "outputs": [],
      "stateMutability": "nonpayable",
      "type": "function"
    },
    {
      "inputs": [],
      "name": "lastHarvest",
      "outputs": [
        {
          "internalType": "uint256",
          "name": "",
          "type": "uint256"
        }
      ],
      "stateMutability": "view",
      "type": "function"
    },
    {
      "inputs": [],
      "name": "name",
      "outputs": [
        {
          "internalType": "string",
          "name": "",
          "type": "string"
        }
      ],
      "stateMutability": "view",
      "type": "function"
    },
    {
      "inputs": [
        {
          "internalType": "address",
          "name": "owner",
          "type": "address"
        }
      ],
      "name": "nonces",
      "outputs": [
        {
          "internalType": "uint256",
          "name": "",
          "type": "uint256"
        }
      ],
      "stateMutability": "view",
      "type": "function"
    },
    {
      "inputs": [],
      "name": "operationalFee",
      "outputs": [
        {
          "internalType": "uint256",
          "name": "",
          "type": "uint256"
        }
      ],
      "stateMutability": "view",
      "type": "function"
    },
    {
      "inputs": [],
      "name": "operationalFeeLimit",
      "outputs": [
        {
          "internalType": "uint256",
          "name": "",
          "type": "uint256"
        }
      ],
      "stateMutability": "view",
      "type": "function"
    },
    {
      "inputs": [],
      "name": "oracle",
      "outputs": [
        {
          "internalType": "contract ICompPriceOracle",
          "name": "",
          "type": "address"
        }
      ],
      "stateMutability": "view",
      "type": "function"
    },
    {
      "inputs": [],
      "name": "pair",
      "outputs": [
        {
          "internalType": "contract IUniswapV2Pair",
          "name": "",
          "type": "address"
        }
      ],
      "stateMutability": "view",
      "type": "function"
    },
    {
      "inputs": [
        {
          "internalType": "address",
          "name": "owner",
          "type": "address"
        },
        {
          "internalType": "address",
          "name": "spender",
          "type": "address"
        },
        {
          "internalType": "uint256",
          "name": "value",
          "type": "uint256"
        },
        {
          "internalType": "uint256",
          "name": "deadline",
          "type": "uint256"
        },
        {
          "internalType": "uint8",
          "name": "v",
          "type": "uint8"
        },
        {
          "internalType": "bytes32",
          "name": "r",
          "type": "bytes32"
        },
        {
          "internalType": "bytes32",
          "name": "s",
          "type": "bytes32"
        }
      ],
      "name": "permit",
      "outputs": [],
      "stateMutability": "nonpayable",
      "type": "function"
    },
    {
      "inputs": [],
      "name": "profitFee",
      "outputs": [
        {
          "internalType": "uint256",
          "name": "",
          "type": "uint256"
        }
      ],
      "stateMutability": "view",
      "type": "function"
    },
    {
      "inputs": [],
      "name": "profitFeeLimit",
      "outputs": [
        {
          "internalType": "uint256",
          "name": "",
          "type": "uint256"
        }
      ],
      "stateMutability": "view",
      "type": "function"
    },
    {
      "inputs": [],
      "name": "rebalance",
      "outputs": [],
      "stateMutability": "nonpayable",
      "type": "function"
    },
    {
      "inputs": [],
      "name": "rebalanceThreshold",
      "outputs": [
        {
          "internalType": "uint16",
          "name": "",
          "type": "uint16"
        }
      ],
      "stateMutability": "view",
      "type": "function"
    },
    {
      "inputs": [
        {
          "internalType": "bytes32",
          "name": "role",
          "type": "bytes32"
        },
        {
          "internalType": "address",
          "name": "account",
          "type": "address"
        }
      ],
      "name": "renounceRole",
      "outputs": [],
      "stateMutability": "nonpayable",
      "type": "function"
    },
    {
      "inputs": [
        {
          "internalType": "bytes32",
          "name": "role",
          "type": "bytes32"
        },
        {
          "internalType": "address",
          "name": "account",
          "type": "address"
        }
      ],
      "name": "revokeRole",
      "outputs": [],
      "stateMutability": "nonpayable",
      "type": "function"
    },
    {
      "inputs": [],
      "name": "rewardsAddr",
      "outputs": [
        {
          "internalType": "address",
          "name": "",
          "type": "address"
        }
      ],
      "stateMutability": "view",
      "type": "function"
    },
    {
      "inputs": [],
      "name": "safeCollateralRatio",
      "outputs": [
        {
          "internalType": "uint256",
          "name": "",
          "type": "uint256"
        }
      ],
      "stateMutability": "view",
      "type": "function"
    },
    {
      "inputs": [
        {
          "internalType": "address",
          "name": "rewardsAddr_",
          "type": "address"
        }
      ],
      "name": "setRewards",
      "outputs": [],
      "stateMutability": "nonpayable",
      "type": "function"
    },
    {
      "inputs": [],
      "name": "sharePriceTracker",
      "outputs": [
        {
          "internalType": "uint256",
          "name": "",
          "type": "uint256"
        }
      ],
      "stateMutability": "view",
      "type": "function"
    },
    {
      "inputs": [],
      "name": "short",
      "outputs": [
        {
          "internalType": "contract IERC20",
          "name": "",
          "type": "address"
        }
      ],
      "stateMutability": "view",
      "type": "function"
    },
    {
      "inputs": [
        {
          "internalType": "bytes4",
          "name": "interfaceId",
          "type": "bytes4"
        }
      ],
      "name": "supportsInterface",
      "outputs": [
        {
          "internalType": "bool",
          "name": "",
          "type": "bool"
        }
      ],
      "stateMutability": "view",
      "type": "function"
    },
    {
      "inputs": [],
      "name": "symbol",
      "outputs": [
        {
          "internalType": "string",
          "name": "",
          "type": "string"
        }
      ],
      "stateMutability": "view",
      "type": "function"
    },
    {
      "inputs": [],
      "name": "totalSupply",
      "outputs": [
        {
          "internalType": "uint256",
          "name": "",
          "type": "uint256"
        }
      ],
      "stateMutability": "view",
      "type": "function"
    },
    {
      "inputs": [
        {
          "internalType": "address",
          "name": "recipient",
          "type": "address"
        },
        {
          "internalType": "uint256",
          "name": "amount",
          "type": "uint256"
        }
      ],
      "name": "transfer",
      "outputs": [
        {
          "internalType": "bool",
          "name": "",
          "type": "bool"
        }
      ],
      "stateMutability": "nonpayable",
      "type": "function"
    },
    {
      "inputs": [
        {
          "internalType": "address",
          "name": "sender",
          "type": "address"
        },
        {
          "internalType": "address",
          "name": "recipient",
          "type": "address"
        },
        {
          "internalType": "uint256",
          "name": "amount",
          "type": "uint256"
        }
      ],
      "name": "transferFrom",
      "outputs": [
        {
          "internalType": "bool",
          "name": "",
          "type": "bool"
        }
      ],
      "stateMutability": "nonpayable",
      "type": "function"
    },
    {
      "inputs": [],
      "name": "vaultTvlLimit",
      "outputs": [
        {
          "internalType": "uint256",
          "name": "",
          "type": "uint256"
        }
      ],
      "stateMutability": "view",
      "type": "function"
    },
    {
      "inputs": [],
      "name": "want",
      "outputs": [
        {
          "internalType": "contract IERC20",
          "name": "",
          "type": "address"
        }
      ],
      "stateMutability": "view",
      "type": "function"
    },
    {
      "inputs": [
        {
          "internalType": "uint256",
          "name": "shares",
          "type": "uint256"
        }
      ],
      "name": "withdraw",
      "outputs": [],
      "stateMutability": "nonpayable",
      "type": "function"
    },
    {
      "stateMutability": "payable",
      "type": "receive"
    }
  ],
  "transactionHash": "0x561bf08e733c045ccf24b1073eecd91f1bee37e08e1e1e2a0e5db053c385d8ae",
  "args": [],
  "solcInputHash": "25b29b4a1f5fdd3cdbf1fe5c2d83cbbd",
  "bytecode": "0x608060405234801561001057600080fd5b50615f0980620000216000396000f3fe6080604052600436106102535760003560e01c806301ffc9a71461025f57806304b2b8861461029457806306fdde03146102b9578063095ea7b3146102db57806318160ddd146102fb5780631f1fcd511461031057806323b872dd14610332578063248a9ca314610352578063263f4f40146103725780632e1a7d4d146103895780632f2ff15d146103ab57806330741fa4146103cb578063313ce567146103eb5780633644e5151461040757806336568abe1461041c57806338bea4cb1461043c57806339509351146104515780633d68175c146104715780633dfe9f6a146104865780634641257d146104b55780635439c4ad146104ca5780635fe3b567146104ea57806370a08231146105095780637a997ab71461053f5780637d7c2a1c146105615780637dc0d1d0146105765780637ecebe001461059557806391d14854146105b557806395d89b41146105d557806397b3fcaa146105ea578063a217fddf1461062c578063a457c2d714610641578063a8aa1b3114610661578063a9059cbb14610676578063b15f67b314610696578063b6b55f25146106b7578063c089f572146106d7578063c393d0e3146106ee578063cbf2537614610703578063cd377c5314610719578063d505accf1461072e578063d539fe4b1461074e578063d547741f14610764578063dd62ed3e14610784578063e642dd35146107ca578063e86b07ea146107ea578063ec38a86214610800578063ec87621c14610820578063efbb5cb014610842578063f1a392da14610857578063f7c18daa1461086e578063f90766a61461088557600080fd5b3661025a57005b600080fd5b34801561026b57600080fd5b5061027f61027a366004615819565b61089c565b60405190151581526020015b60405180910390f35b3480156102a057600080fd5b506102ab6101645481565b60405190815260200161028b565b3480156102c557600080fd5b506102ce6108d3565b60405161028b9190615bb3565b3480156102e757600080fd5b5061027f6102f63660046156ac565b610965565b34801561030757600080fd5b506035546102ab565b34801561031c57600080fd5b5061032561097b565b60405161028b9190615af9565b34801561033e57600080fd5b5061027f61034d3660046155f4565b61098b565b34801561035e57600080fd5b506102ab61036d3660046157db565b610a3c565b34801561037e57600080fd5b506102ab6101635481565b34801561039557600080fd5b506103a96103a43660046157db565b610a51565b005b3480156103b757600080fd5b506103a96103c63660046157f4565b610d26565b3480156103d757600080fd5b506102ab6103e6366004615843565b610d48565b3480156103f757600080fd5b506040516012815260200161028b565b34801561041357600080fd5b506102ab610e27565b34801561042857600080fd5b506103a96104373660046157f4565b610e36565b34801561044857600080fd5b50610325610eb4565b34801561045d57600080fd5b5061027f61046c3660046156ac565b610ec4565b34801561047d57600080fd5b506102ab610f00565b34801561049257600080fd5b5061019f546104a29061ffff1681565b60405161ffff909116815260200161028b565b3480156104c157600080fd5b506103a9610f3e565b3480156104d657600080fd5b506102ab6104e5366004615843565b610fba565b3480156104f657600080fd5b506101d4546001600160a01b0316610325565b34801561051557600080fd5b506102ab610524366004615581565b6001600160a01b031660009081526033602052604090205490565b34801561054b57600080fd5b506102ab600080516020615e7483398151915281565b34801561056d57600080fd5b506103a961101b565b34801561058257600080fd5b506101d5546001600160a01b0316610325565b3480156105a157600080fd5b506102ab6105b0366004615581565b6111c8565b3480156105c157600080fd5b5061027f6105d03660046157f4565b6111e6565b3480156105e157600080fd5b506102ce611211565b3480156105f657600080fd5b506105ff611220565b604080519687526020870195909552938501929092526060840152608083015260a082015260c00161028b565b34801561063857600080fd5b506102ab600081565b34801561064d57600080fd5b5061027f61065c3660046156ac565b61130f565b34801561066d57600080fd5b506103256113a8565b34801561068257600080fd5b5061027f6106913660046156ac565b6113b8565b3480156106a257600080fd5b5061016754610325906001600160a01b031681565b3480156106c357600080fd5b506103a96106d23660046157db565b6113c5565b3480156106e357600080fd5b506102ab6101655481565b3480156106fa57600080fd5b506103a96115bf565b34801561070f57600080fd5b506102ab6101f481565b34801561072557600080fd5b506102ab6115e3565b34801561073a57600080fd5b506103a9610749366004615635565b611614565b34801561075a57600080fd5b506101d6546102ab565b34801561077057600080fd5b506103a961077f3660046157f4565b61175a565b34801561079057600080fd5b506102ab61079f3660046155bb565b6001600160a01b03918216600090815260346020908152604080832093909416825291909152205490565b3480156107d657600080fd5b506103a96107e5366004615896565b611777565b3480156107f657600080fd5b506102ab614e2081565b34801561080c57600080fd5b506103a961081b366004615581565b6118de565b34801561082c57600080fd5b506102ab600080516020615e9483398151915281565b34801561084e57600080fd5b506102ab611945565b34801561086357600080fd5b506102ab6101685481565b34801561087a57600080fd5b506102ab6101625481565b34801561089157600080fd5b506102ab6101665481565b60006001600160e01b03198216637965db0b60e01b14806108cd57506301ffc9a760e01b6001600160e01b03198316145b92915050565b6060603680546108e290615dd1565b80601f016020809104026020016040519081016040528092919081815260200182805461090e90615dd1565b801561095b5780601f106109305761010080835404028352916020019161095b565b820191906000526020600020905b81548152906001019060200180831161093e57829003601f168201915b5050505050905090565b600061097233848461195a565b50600192915050565b61019c546001600160a01b031690565b6000610998848484611a7e565b6001600160a01b038416600090815260346020908152604080832033845290915290205482811015610a225760405162461bcd60e51b815260206004820152602860248201527f45524332303a207472616e7366657220616d6f756e74206578636565647320616044820152676c6c6f77616e636560c01b60648201526084015b60405180910390fd5b610a2f853385840361195a565b60019150505b9392505050565b600090815260fe602052604090206001015490565b61019d5461019c54600091610a7c91670de0b6b3a7640000916001600160a01b039081169116611c3c565b90506000610a91670de0b6b3a7640000611c79565b9050818111610aa1578082610aa4565b81815b61019b54919350915081612710610abb8583615d77565b610ac59190615d58565b610acf9190615d36565b10610aec5760405162461bcd60e51b8152600401610a1990615bc6565b6002610130541415610b105760405162461bcd60e51b8152600401610a1990615c4b565b6002610130556000610b20611d9d565b90506000610b2d60355490565b610b378684615d58565b610b419190615d36565b61019c546040516370a0823160e01b81529192506000916001600160a01b03909116906370a0823190610b78903090600401615af9565b60206040518083038186803b158015610b9057600080fd5b505afa158015610ba4573d6000803e3d6000fd5b505050506040513d601f19601f82011682018060405250810190610bc89190615a05565b905081811015610c8c57603554861415610c6c57610be4611e8c565b61019c546040516370a0823160e01b81526001600160a01b03909116906370a0823190610c15903090600401615af9565b60206040518083038186803b158015610c2d57600080fd5b505afa158015610c41573d6000803e3d6000fd5b505050506040513d601f19601f82011682018060405250810190610c659190615a05565b9150610c8c565b80610c7f610c7a8285615d77565b61204c565b610c899190615d1e565b91505b82610c9660355490565b610ca09084615d58565b610caa9190615d36565b9550610cb6338761210b565b61019c54610ccf906001600160a01b0316303385612247565b6040805133815260208101849052908101879052600060608201527f650fdf669e93aa6c8ff3defe2da9c12b64f1548e5e1e54e803f4c1beb6466c8e906080015b60405180910390a1505060016101305550505050565b610d2f82610a3c565b610d39813361229f565b610d438383612303565b505050565b600080610d5786868686612389565b90506000610d65848661244a565b509050600080826001600160a01b0316876001600160a01b031614610d8c57836000610d90565b6000845b9092509050610da96001600160a01b0388168a8a61252d565b6040805160008152602081019182905263022c0d9f60e01b9091526001600160a01b038a169063022c0d9f90610de89085908590309060248101615c82565b600060405180830381600087803b158015610e0257600080fd5b505af1158015610e16573d6000803e3d6000fd5b50959b9a5050505050505050505050565b6000610e3161254c565b905090565b6001600160a01b0381163314610ea65760405162461bcd60e51b815260206004820152602f60248201527f416363657373436f6e74726f6c3a2063616e206f6e6c792072656e6f756e636560448201526e103937b632b9903337b91039b2b63360891b6064820152608401610a19565b610eb082826125c7565b5050565b61019d546001600160a01b031690565b3360008181526034602090815260408083206001600160a01b03871684529091528120549091610972918590610efb908690615d1e565b61195a565b600080610f0b611945565b90506000610f1860355490565b905080610f2d670de0b6b3a764000084615d58565b610f379190615d36565b9250505090565b600080516020615e94833981519152610f57813361229f565b6000610f6161262e565b9050600080610f6e612812565b426101685560405191935091507febdd323f18ba49318367d0c92a04d5c51a67f15a60ad50d46523db464661a30290610fac90859085908590615caf565b60405180910390a150505050565b600080610fc986868686612969565b90506000610fd7848661244a565b509050600080826001600160a01b0316876001600160a01b031614610ffe57876000611002565b6000885b9092509050610da96001600160a01b0388168a8661252d565b600080516020615e94833981519152611034813361229f565b61019d5461019c5460009161105f91670de0b6b3a7640000916001600160a01b039081169116611c3c565b90506000611074670de0b6b3a7640000611c79565b9050818111611084578082611087565b81815b61019b5491935091508161271061109e8583615d77565b6110a89190615d58565b6110b29190615d36565b106110cf5760405162461bcd60e51b8152600401610a1990615bc6565b60026101305414156110f35760405162461bcd60e51b8152600401610a1990615c4b565b6002610130556000611103612a22565b5090506000611110611d9d565b9050600061111d82612af2565b9050600080600061112e8487612b1f565b9250925092508261113e57600080fd5b600061114a8587615d77565b905082156111615761115c8582612c59565b61116b565b61116b8582612eac565b7fe0b4077da7dfa5015ff10fab6a214f37acc1b23d745f30336942d17e07848c6b61119d670de0b6b3a7640000613127565b83886040516111ae93929190615caf565b60405180910390a150506001610130555050505050505050565b6001600160a01b0381166000908152609960205260408120546108cd565b600091825260fe602090815260408084206001600160a01b0393909316845291905290205460ff1690565b6060603780546108e290615dd1565b600080600080600080611231613156565b945061123b613288565b935061124684613127565b92506000611252612a22565b509050611260816002615d58565b61019c546040516370a0823160e01b81529194506001600160a01b0316906370a0823190611292903090600401615af9565b60206040518083038186803b1580156112aa57600080fd5b505afa1580156112be573d6000803e3d6000fd5b505050506040513d601f19601f820116820180604052508101906112e29190615a05565b915081846112f08589615d1e565b6112fa9190615d77565b6113049190615d1e565b965050909192939495565b3360009081526034602090815260408083206001600160a01b0386168452909152812054828110156113915760405162461bcd60e51b815260206004820152602560248201527f45524332303a2064656372656173656420616c6c6f77616e63652062656c6f77604482015264207a65726f60d81b6064820152608401610a19565b61139e338585840361195a565b5060019392505050565b610241546001600160a01b031690565b6000610972338484611a7e565b600080516020615e748339815191526113de813361229f565b61019d5461019c5460009161140991670de0b6b3a7640000916001600160a01b039081169116611c3c565b9050600061141e670de0b6b3a7640000611c79565b905081811161142e578082611431565b81815b61019b549193509150816127106114488583615d77565b6114529190615d58565b61145c9190615d36565b106114795760405162461bcd60e51b8152600401610a1990615bc6565b600261013054141561149d5760405162461bcd60e51b8152600401610a1990615c4b565b60026101305560006114ad611d9d565b905060006114ba60355490565b156114e35781866114ca60355490565b6114d49190615d58565b6114de9190615d36565b6114e5565b855b61019c546040516323b872dd60e01b81529192506001600160a01b0316906323b872dd9061151b90339030908b90600401615b0d565b602060405180830381600087803b15801561153557600080fd5b505af1158015611549573d6000803e3d6000fd5b505050506040513d601f19601f8201168201806040525081019061156d9190615784565b506115778661330a565b611581338261336f565b60408051338152602081018890529081018290527f90890809c654f11d6e72a28fa60149770a0d11ec6c92319d6ceb2bb0a4ea1a1590606001610d10565b600080516020615e948339815191526115d8813361229f565b6115e0611e8c565b50565b6000670de0b6b3a76400006115f86101d65490565b61160061343c565b61160a9190615d58565b610e319190615d36565b834211156116645760405162461bcd60e51b815260206004820152601d60248201527f45524332305065726d69743a206578706972656420646561646c696e650000006044820152606401610a19565b6000609a548888886116758c6134ce565b6040805160208101969096526001600160a01b0394851690860152929091166060840152608083015260a082015260c0810186905260e00160405160208183030381529060405280519060200120905060006116d0826134f6565b905060006116e082878787613544565b9050896001600160a01b0316816001600160a01b0316146117435760405162461bcd60e51b815260206004820152601e60248201527f45524332305065726d69743a20696e76616c6964207369676e617475726500006044820152606401610a19565b61174e8a8a8a61195a565b50505050505050505050565b61176382610a3c565b61176d813361229f565b610d4383836125c7565b600054610100900460ff1680611790575060005460ff16155b6117ac5760405162461bcd60e51b8152600401610a1990615bfd565b600054610100900460ff161580156117ce576000805461ffff19166101011790555b6118256040518060400160405280601681526020017576555344434156415850616e676f6c696e42656e716960501b815250604051806040016040528060078152602001663b2aa9a221a82160c91b81525061356c565b61182d6135eb565b61183860003361366e565b61185482608001518360a001518460c001518560e00151613678565b61187282610120015183604001518460600151856101800151613736565b61188c826101200151836101400151846101600151613880565b6118a733836101a00151846101c00151856101e0015161392e565b6118b982600001518360200151613af7565b6118c1613bc0565b6118c9613bee565b8015610eb0576000805461ff00191690555050565b600080516020615e948339815191526118f7813361229f565b6001600160a01b03821661190a57600080fd5b7f4e02820ee8f94677fdcb7853cf216d6695139bacba43fb49a6eb7ec549e14477826040516119399190615af9565b60405180910390a15050565b600061194f611220565b509395945050505050565b6001600160a01b0383166119bc5760405162461bcd60e51b8152602060048201526024808201527f45524332303a20617070726f76652066726f6d20746865207a65726f206164646044820152637265737360e01b6064820152608401610a19565b6001600160a01b038216611a1d5760405162461bcd60e51b815260206004820152602260248201527f45524332303a20617070726f766520746f20746865207a65726f206164647265604482015261737360f01b6064820152608401610a19565b6001600160a01b0383811660008181526034602090815260408083209487168084529482529182902085905590518481527f8c5be1e5ebec7d5bd14f71427d1e84f3dd0314c0f7b2291e5b200ac8c7c3b925910160405180910390a3505050565b6001600160a01b038316611ae25760405162461bcd60e51b815260206004820152602560248201527f45524332303a207472616e736665722066726f6d20746865207a65726f206164604482015264647265737360d81b6064820152608401610a19565b6001600160a01b038216611b445760405162461bcd60e51b815260206004820152602360248201527f45524332303a207472616e7366657220746f20746865207a65726f206164647260448201526265737360e81b6064820152608401610a19565b6001600160a01b03831660009081526033602052604090205481811015611bbc5760405162461bcd60e51b815260206004820152602660248201527f45524332303a207472616e7366657220616d6f756e7420657863656564732062604482015265616c616e636560d01b6064820152608401610a19565b6001600160a01b03808516600090815260336020526040808220858503905591851681529081208054849290611bf3908490615d1e565b92505081905550826001600160a01b0316846001600160a01b0316600080516020615eb483398151915284604051611c2d91815260200190565b60405180910390a35b50505050565b600083611c4b57506000610a35565b600080611c60611c596113a8565b8686613c0f565b91509150611c6f868383613cde565b9695505050505050565b6101d5546101d25460405163fc57d4df60e01b81526000926001600160a01b039081169263fc57d4df92611cb39290911690600401615af9565b60206040518083038186803b158015611ccb57600080fd5b505afa158015611cdf573d6000803e3d6000fd5b505050506040513d601f19601f82011682018060405250810190611d039190615a05565b6101d5546101d35460405163fc57d4df60e01b81526001600160a01b039283169263fc57d4df92611d3992911690600401615af9565b60206040518083038186803b158015611d5157600080fd5b505afa158015611d65573d6000803e3d6000fd5b505050506040513d601f19601f82011682018060405250810190611d899190615a05565b611d939084615d58565b6108cd9190615d36565b600080611da8613da8565b90506000611db4613e08565b90506000611dc182613127565b90506000611dcd612a22565b5061019c546040516370a0823160e01b81529192506000916001600160a01b03909116906370a0823190611e05903090600401615af9565b60206040518083038186803b158015611e1d57600080fd5b505afa158015611e31573d6000803e3d6000fd5b505050506040513d601f19601f82011682018060405250810190611e559190615a05565b90508083611e64846002615d58565b611e6e9088615d1e565b611e789190615d77565b611e829190615d1e565b9550505050505090565b611e966000613e3a565b50506000611ea2613e08565b61019d546040516370a0823160e01b81529192506000916001600160a01b03909116906370a0823190611ed9903090600401615af9565b60206040518083038186803b158015611ef157600080fd5b505afa158015611f05573d6000803e3d6000fd5b505050506040513d601f19601f82011682018060405250810190611f299190615a05565b905080821115611f6f576000611f3f8284615d77565b9050611f68611f4c6113a8565b61019c5461019d5484916001600160a01b039081169116610fba565b5050611faf565b81811115611faf576000611f838383615d77565b9050611fac611f906113a8565b61019d5461019c5484916001600160a01b039081169116610d48565b50505b61019d546040516370a0823160e01b8152612037916001600160a01b0316906370a0823190611fe2903090600401615af9565b60206040518083038186803b158015611ffa57600080fd5b505afa15801561200e573d6000803e3d6000fd5b505050506040513d601f19601f820116820180604052508101906120329190615a05565b613e9c565b6000612041613da8565b9050610d4381613f12565b60008061205883612af2565b90506000612064612a22565b5090506000612071613288565b90506000806120886120838686615d77565b613e3a565b909250905080808410156120d5576120c56120a16113a8565b6120ab8685615d77565b61019d5461019c546001600160a01b039182169116610d48565b6120cf9084615d1e565b92508390505b6120de81613e9c565b60006120f26120ed858b615d77565b613f92565b90506120fe8185615d1e565b9998505050505050505050565b6001600160a01b03821661216b5760405162461bcd60e51b815260206004820152602160248201527f45524332303a206275726e2066726f6d20746865207a65726f206164647265736044820152607360f81b6064820152608401610a19565b6001600160a01b038216600090815260336020526040902054818110156121df5760405162461bcd60e51b815260206004820152602260248201527f45524332303a206275726e20616d6f756e7420657863656564732062616c616e604482015261636560f01b6064820152608401610a19565b6001600160a01b038316600090815260336020526040812083830390556035805484929061220e908490615d77565b90915550506040518281526000906001600160a01b03851690600080516020615eb48339815191529060200160405180910390a3505050565b611c36846323b872dd60e01b85858560405160240161226893929190615b0d565b60408051601f198184030181529190526020810180516001600160e01b03166001600160e01b031990931692909217909152614036565b6122a982826111e6565b610eb0576122c1816001600160a01b03166014614108565b6122cc836020614108565b6040516020016122dd929190615a8a565b60408051601f198184030181529082905262461bcd60e51b8252610a1991600401615bb3565b61230d82826111e6565b610eb057600082815260fe602090815260408083206001600160a01b03851684529091529020805460ff191660011790556123453390565b6001600160a01b0316816001600160a01b0316837f2f8788117e7eff1d82e926ec794901d17c78024a50270940304540a733656f0d60405160405180910390a45050565b60008084116123e65760405162461bcd60e51b815260206004820152602360248201527f556e695574696c733a20494e53554646494349454e545f494e5055545f414d4f60448201526215539560ea1b6064820152608401610a19565b6000806123f4878686613c0f565b90925090506000612407876103e5615d58565b905060006124158383615d58565b9050600082612426866103e8615d58565b6124309190615d1e565b905061243c8183615d36565b9a9950505050505050505050565b600080826001600160a01b0316846001600160a01b031614156124af5760405162461bcd60e51b815260206004820152601d60248201527f556e695574696c733a204944454e544943414c5f4144445245535345530000006044820152606401610a19565b826001600160a01b0316846001600160a01b0316106124cf5782846124d2565b83835b90925090506001600160a01b0382166125265760405162461bcd60e51b8152602060048201526016602482015275556e695574696c733a205a45524f5f4144445245535360501b6044820152606401610a19565b9250929050565b610d438363a9059cbb60e01b8484604051602401612268929190615b31565b6000610e317f8b73c3c69bb8fe3d512ecc4cf759cc79239f7b179b0ffacaa9a75d522b39400f61257b60655490565b6066546040805160208101859052908101839052606081018290524660808201523060a082015260009060c0016040516020818303038152906040528051906020012090509392505050565b6125d182826111e6565b15610eb057600082815260fe602090815260408083206001600160a01b0385168085529252808320805460ff1916905551339285917ff6391f5c32d9c69d2a47ea670b442974b53935d1edc7fd64eb21e047a839171b9190a45050565b61019d5461019c54600091829161265b91670de0b6b3a7640000916001600160a01b039182169116611c3c565b90506000612670670de0b6b3a7640000611c79565b9050818111612680578082612683565b81815b61019b5491935091508161271061269a8583615d77565b6126a49190615d58565b6126ae9190615d36565b106126cb5760405162461bcd60e51b8152600401610a1990615bc6565b6126d761019e546142a3565b6126e19084615d1e565b92506126eb6144ca565b6126f59084615d1e565b61019c546040516370a0823160e01b81529194506000916001600160a01b03909116906370a082319061272c903090600401615af9565b60206040518083038186803b15801561274457600080fd5b505afa158015612758573d6000803e3d6000fd5b505050506040513d601f19601f8201168201806040525081019061277c9190615a05565b9050801561280c5761019c546040516370a0823160e01b815261280c916001600160a01b0316906370a08231906127b7903090600401615af9565b60206040518083038186803b1580156127cf57600080fd5b505afa1580156127e3573d6000803e3d6000fd5b505050506040513d601f19601f820116820180604052508101906128079190615a05565b61330a565b50505090565b600080600061281f610f00565b9050610164548111156128ca576000610164548261283d9190615d77565b9050600061016454670de0b6b3a7640000836128599190615d58565b6128639190615d36565b9050670de0b6b3a7640000612710610166548361287f60355490565b6128899190615d58565b6128939190615d58565b61289d9190615d36565b6128a79190615d36565b610167549095506128c1906001600160a01b03168661336f565b50506101648190555b610165541561296457600061016854426128e49190615d77565b905060006128f561016d6018615d58565b61290090603c615d58565b61290b90603c615d58565b90508061271061291a60355490565b84610165546129299190615d58565b6129339190615d58565b61293d9190615d36565b6129479190615d36565b61016754909450612961906001600160a01b03168561336f565b50505b509091565b60008084116129c65760405162461bcd60e51b8152602060048201526024808201527f556e695574696c733a20494e53554646494349454e545f4f55545055545f414d60448201526313d5539560e21b6064820152608401610a19565b6000806129d4878686613c0f565b909250905060006129e58784615d58565b6129f1906103e8615d58565b905060006129ff8884615d77565b612a0b906103e5615d58565b9050612a178183615d36565b6120fe906001615d1e565b6000806000612a2f6145da565b9050600080612a3c614678565b915091506000612a4a6113a8565b6001600160a01b03166318160ddd6040518163ffffffff1660e01b815260040160206040518083038186803b158015612a8257600080fd5b505afa158015612a96573d6000803e3d6000fd5b505050506040513d601f19601f82011682018060405250810190612aba9190615a05565b905080612ac78585615d58565b612ad19190615d36565b955080612ade8584615d58565b612ae89190615d36565b9450505050509091565b600080612afd6115e3565b9050612b0b81612710615d1e565b612b158285615d58565b610a359190615d36565b6000806000838511612b32576000612b35565b60015b9150831580612b42575084155b15612b5257848414159250612c52565b6000612b5c613288565b905082612b8a5785612710612b718288615d77565b612b7b9190615d58565b612b859190615d36565b612bac565b84612710612b988289615d77565b612ba29190615d58565b612bac9190615d36565b61019f5490925061ffff16821180612c45575061019c546040516370a0823160e01b815262989680916001600160a01b0316906370a0823190612bf3903090600401615af9565b60206040518083038186803b158015612c0b57600080fd5b505afa158015612c1f573d6000803e3d6000fd5b505050506040513d601f19601f82011682018060405250810190612c439190615a05565b115b80612c4e575080155b9350505b9250925092565b612c62816146a4565b50506000612c6f83614701565b90506000612c7b613288565b9050612c8f612c8a8284615d77565b614730565b6000612c99612a22565b5061019c546040516370a0823160e01b815291925060009183916001600160a01b0316906370a0823190612cd1903090600401615af9565b60206040518083038186803b158015612ce957600080fd5b505afa158015612cfd573d6000803e3d6000fd5b505050506040513d601f19601f82011682018060405250810190612d219190615a05565b612d2b9190615d1e565b612d359087615d77565b90508015612d6657612d64612d486113a8565b61019d5461019c5484916001600160a01b039081169116610fba565b505b61019d546040516370a0823160e01b81526000916001600160a01b0316906370a0823190612d98903090600401615af9565b60206040518083038186803b158015612db057600080fd5b505afa158015612dc4573d6000803e3d6000fd5b505050506040513d601f19601f82011682018060405250810190612de89190615a05565b90506000612df582613127565b61019c546040516370a0823160e01b81529192506000916001600160a01b03909116906370a0823190612e2c903090600401615af9565b60206040518083038186803b158015612e4457600080fd5b505afa158015612e58573d6000803e3d6000fd5b505050506040513d601f19601f82011682018060405250810190612e7c9190615a05565b905081811015612e9557809150612e9282614701565b92505b6000612ea183856147b9565b905061174e81614878565b81612eb957610eb0611e8c565b612ec282613e3a565b505061019d546040516370a0823160e01b81526000916001600160a01b0316906370a0823190612ef6903090600401615af9565b60206040518083038186803b158015612f0e57600080fd5b505afa158015612f22573d6000803e3d6000fd5b505050506040513d601f19601f82011682018060405250810190612f469190615a05565b9050612f5181613e9c565b6000612f5c836146a4565b9150506000612f69613e08565b90506000612f7686614701565b612f809083615d77565b905080612f8f57505050505050565b6000612fb8612f9c6113a8565b61019c5461019d5485916001600160a01b039081169116612969565b61019c546040516370a0823160e01b81529192506000916001600160a01b03909116906370a0823190612fef903090600401615af9565b60206040518083038186803b15801561300757600080fd5b505afa15801561301b573d6000803e3d6000fd5b505050506040513d601f19601f8201168201806040525081019061303f9190615a05565b905060008183106130505781613052565b825b905061307b61305f6113a8565b61019c5461019d5484916001600160a01b039081169116610d48565b5061019d546040516370a0823160e01b81526001600160a01b03909116906370a08231906130ad903090600401615af9565b60206040518083038186803b1580156130c557600080fd5b505afa1580156130d9573d6000803e3d6000fd5b505050506040513d601f19601f820116820180604052508101906130fd9190615a05565b965061310887613e9c565b8588111561311c57613119886146a4565b50505b505050505050505050565b60008161313657506000919050565b61019d5461019c546108cd9184916001600160a01b039182169116611c3c565b6101d2546040516370a0823160e01b815260009182916001600160a01b03909116906370a082319061318c903090600401615af9565b60206040518083038186803b1580156131a457600080fd5b505afa1580156131b8573d6000803e3d6000fd5b505050506040513d601f19601f820116820180604052508101906131dc9190615a05565b9050670de0b6b3a76400006101d260009054906101000a90046001600160a01b03166001600160a01b031663182df0f56040518163ffffffff1660e01b815260040160206040518083038186803b15801561323657600080fd5b505afa15801561324a573d6000803e3d6000fd5b505050506040513d601f19601f8201168201806040525081019061326e9190615a05565b6132789083615d58565b6132829190615d36565b91505090565b6101d3546040516395dd919360e01b81526000916001600160a01b0316906395dd9193906132ba903090600401615af9565b60206040518083038186803b1580156132d257600080fd5b505afa1580156132e6573d6000803e3d6000fd5b505050506040513d601f19601f82011682018060405250810190610e319190615a05565b600061331582612af2565b61019c5461019d5491925060009161333b9184916001600160a01b039182169116611c3c565b905061334f61334a8385615d77565b6148d4565b61335881614730565b600061336483836147b9565b9050611c3681614878565b6001600160a01b0382166133c55760405162461bcd60e51b815260206004820152601f60248201527f45524332303a206d696e7420746f20746865207a65726f2061646472657373006044820152606401610a19565b80603560008282546133d79190615d1e565b90915550506001600160a01b03821660009081526033602052604081208054839290613404908490615d1e565b90915550506040518181526001600160a01b03831690600090600080516020615eb48339815191529060200160405180910390a35050565b6101d4546101d254604051638e8f294b60e01b815260009283926001600160a01b0391821692638e8f294b92613476921690600401615af9565b60606040518083038186803b15801561348e57600080fd5b505afa1580156134a2573d6000803e3d6000fd5b505050506040513d601f19601f820116820180604052508101906134c6919061579f565b509392505050565b6001600160a01b03811660009081526099602052604090208054600181018255905b50919050565b60006108cd61350361254c565b8360405161190160f01b6020820152602281018390526042810182905260009060620160405160208183030381529060405280519060200120905092915050565b600080600061355587878787614953565b9150915061356281614a36565b5095945050505050565b600054610100900460ff1680613585575060005460ff16155b6135a15760405162461bcd60e51b8152600401610a1990615bfd565b600054610100900460ff161580156135c3576000805461ffff19166101011790555b6135cb614bec565b6135d58383614c56565b8015610d43576000805461ff0019169055505050565b600054610100900460ff1680613604575060005460ff16155b6136205760405162461bcd60e51b8152600401610a1990615bfd565b600054610100900460ff16158015613642576000805461ffff19166101011790555b61364a614bec565b613652614bec565b61365a614bec565b80156115e0576000805461ff001916905550565b610eb08282612303565b600054610100900460ff1680613691575060005460ff16155b6136ad5760405162461bcd60e51b8152600401610a1990615bfd565b600054610100900460ff161580156136cf576000805461ffff19166101011790555b61023e80546001600160a01b038087166001600160a01b03199283161790925561023f80548684169083161790556102408054858416908316179055610241805492881692909116919091179055801561372f576000805461ff00191690555b5050505050565b600054610100900460ff168061374f575060005460ff16155b61376b5760405162461bcd60e51b8152600401610a1990615bfd565b600054610100900460ff1615801561378d576000805461ffff19166101011790555b6101d280546001600160a01b038087166001600160a01b0319928316179092556101d380548684169083161790556101d480549288169290911682179055604080516307dc0d1d60e41b81529051637dc0d1d091600480820192602092909190829003018186803b15801561380157600080fd5b505afa158015613815573d6000803e3d6000fd5b505050506040513d601f19601f82011682018060405250810190613839919061559e565b6101d580546001600160a01b0319166001600160a01b03929092169190911790556101d6829055613868614ceb565b801561372f576000805461ff00191690555050505050565b600054610100900460ff1680613899575060005460ff16155b6138b55760405162461bcd60e51b8152600401610a1990615bfd565b600054610100900460ff161580156138d7576000805461ffff19166101011790555b61020980546001600160a01b038087166001600160a01b03199283161790925561020b805486841690831617905561020a8054928516929091169190911790558015611c36576000805461ff001916905550505050565b600054610100900460ff1680613947575060005460ff16155b6139635760405162461bcd60e51b8152600401610a1990615bfd565b600054610100900460ff16158015613985576000805461ffff19166101011790555b6101f484106139e95760405162461bcd60e51b815260206004820152602a60248201527f4261736553747261746567793a206f7065726174696f6e616c466565206578636044820152691959591cc81b1a5b5a5d60b21b6064820152608401610a19565b614e208310613a485760405162461bcd60e51b815260206004820152602560248201527f4261736553747261746567793a2070726f6669744665652065786365656473206044820152641b1a5b5a5d60da1b6064820152608401610a19565b613a50614dc2565b613a68600080516020615e948339815191528361366e565b613a80600080516020615e748339815191528361366e565b613a98600080516020615e748339815191523361366e565b61016780546001600160a01b0319166001600160a01b038716179055610165849055610166839055670de0b6b3a764000061016455426101685560001961016281905561016355801561372f576000805461ff00191690555050505050565b600054610100900460ff1680613b10575060005460ff16155b613b2c5760405162461bcd60e51b8152600401610a1990615bfd565b600054610100900460ff16158015613b4e576000805461ffff19166101011790555b61019c80546001600160a01b038086166001600160a01b0319928316811790935561019d805491861691909216179055613b8b9030600019614e33565b603c61019b5561019f805461ffff19166101901790556301312d0061019e558015610d43576000805461ff0019169055505050565b6101d254613bec906001600160a01b0316600019613bdc61097b565b6001600160a01b03169190614e33565b565b61023e5461024154613bec916001600160a01b039182169116600019614e33565b6000806000613c1e858561244a565b509050600080876001600160a01b0316630902f1ac6040518163ffffffff1660e01b815260040160606040518083038186803b158015613c5d57600080fd5b505afa158015613c71573d6000803e3d6000fd5b505050506040513d601f19601f82011682018060405250810190613c9591906159b5565b506001600160701b031691506001600160701b03169150826001600160a01b0316876001600160a01b031614613ccc578082613ccf565b81815b90999098509650505050505050565b6000808411613d2f5760405162461bcd60e51b815260206004820152601d60248201527f556e695574696c733a20494e53554646494349454e545f414d4f554e540000006044820152606401610a19565b600083118015613d3f5750600082115b613d8b5760405162461bcd60e51b815260206004820181905260248201527f556e695574696c733a20494e53554646494349454e545f4c49515549444954596044820152606401610a19565b82613d968386615d58565b613da09190615d36565b949350505050565b6101d254604051633af9e66960e01b81526000916001600160a01b031690633af9e66990613dda903090600401615af9565b602060405180830381600087803b158015613df457600080fd5b505af11580156132e6573d6000803e3d6000fd5b6101d3546040516305eff7ef60e21b81526000916001600160a01b0316906317bfdfbc90613dda903090600401615af9565b6000806000613e47612a22565b5090506000613e546145da565b9050600082613e638784615d58565b613e6d9190615d36565b90506000613e7b8284615d77565b9050613e8681614f46565b613e8f81614f78565b9550955050505050915091565b613ea58161506d565b6101d360009054906101000a90046001600160a01b03166001600160a01b0316634e4d9fea826040518263ffffffff1660e01b81526004016000604051808303818588803b158015613ef657600080fd5b505af1158015613f0a573d6000803e3d6000fd5b505050505050565b6101d25460405163852a12e360e01b8152600481018390526000916001600160a01b03169063852a12e390602401602060405180830381600087803b158015613f5a57600080fd5b505af1158015613f6e573d6000803e3d6000fd5b505050506040513d601f19601f82011682018060405250810190610d439190615a05565b600080613fa5613fa0613288565b611c79565b90506000613fb1613156565b90506000605f613fbf61343c565b613fd185670de0b6b3a7640000615d58565b613fdc906064615d58565b613fe69190615d36565b613ff09190615d36565b90508181111561400557506000949350505050565b60006140118284615d77565b90508581116140205780614022565b855b945061402d85613f12565b50505050919050565b600061408b826040518060400160405280602081526020017f5361666545524332303a206c6f772d6c6576656c2063616c6c206661696c6564815250856001600160a01b03166150a29092919063ffffffff16565b805190915015610d4357808060200190518101906140a99190615784565b610d435760405162461bcd60e51b815260206004820152602a60248201527f5361666545524332303a204552433230206f7065726174696f6e20646964206e6044820152691bdd081cdd58d8d9595960b21b6064820152608401610a19565b60606000614117836002615d58565b614122906002615d1e565b6001600160401b0381111561413957614139615e48565b6040519080825280601f01601f191660200182016040528015614163576020820181803683370190505b509050600360fc1b8160008151811061417e5761417e615e32565b60200101906001600160f81b031916908160001a905350600f60fb1b816001815181106141ad576141ad615e32565b60200101906001600160f81b031916908160001a90535060006141d1846002615d58565b6141dc906001615d1e565b90505b6001811115614254576f181899199a1a9b1b9c1cb0b131b232b360811b85600f166010811061421057614210615e32565b1a60f81b82828151811061422657614226615e32565b60200101906001600160f81b031916908160001a90535060049490941c9361424d81615dba565b90506141df565b508315610a355760405162461bcd60e51b815260206004820181905260248201527f537472696e67733a20686578206c656e67746820696e73756666696369656e746044820152606401610a19565b6000806142ae6150b1565b9050828110156142be5750919050565b61020954604051630952c56360e01b81526001600160a01b0390911690630952c563906142f2906000903090600401615b97565b600060405180830381600087803b15801561430c57600080fd5b505af1158015614320573d6000803e3d6000fd5b505061020a546040516370a0823160e01b8152600093506001600160a01b0390911691506370a0823190614358903090600401615af9565b60206040518083038186803b15801561437057600080fd5b505afa158015614384573d6000803e3d6000fd5b505050506040513d601f19601f820116820180604052508101906143a89190615a05565b905080156143d55761020b5461020a546143d3916001600160a01b03908116918491166103e6610eb4565b505b61020954604051630952c56360e01b81526001600160a01b0390911690630952c56390614409906001903090600401615b97565b600060405180830381600087803b15801561442357600080fd5b505af1158015614437573d6000803e3d6000fd5b5047925050508061444a57505050919050565b614452610eb4565b6001600160a01b031663d0e30db0826040518263ffffffff1660e01b81526004016000604051808303818588803b15801561448c57600080fd5b505af11580156144a0573d6000803e3d6000fd5b50505050506144c16144b06113a8565b826144b9610eb4565b6103e661097b565b95945050505050565b61023e5460408051631e8c5c8960e11b815290516000926001600160a01b031691633d18b912916004808301928692919082900301818387803b15801561451057600080fd5b505af1158015614524573d6000803e3d6000fd5b5050610240546040516370a0823160e01b8152600093506001600160a01b0390911691506370a082319061455c903090600401615af9565b60206040518083038186803b15801561457457600080fd5b505afa158015614588573d6000803e3d6000fd5b505050506040513d601f19601f820116820180604052508101906145ac9190615a05565b9050806145b7575090565b61023f5461024054613282916001600160a01b03908116918491166103e661097b565b6000806145e5615234565b610241546040516370a0823160e01b81529192506000916001600160a01b03909116906370a082319061461c903090600401615af9565b60206040518083038186803b15801561463457600080fd5b505afa158015614648573d6000803e3d6000fd5b505050506040513d601f19601f8201168201806040525081019061466c9190615a05565b9050610f378183615d1e565b60008061469b6146866113a8565b61468e61097b565b614696610eb4565b613c0f565b90939092509050565b60008060006146b1613156565b9050838114156146c75750600093849350915050565b8381116146e7576146e06146db8286615d77565b615266565b60006146f6565b60006146f66120ed8684615d77565b909590945092505050565b60008161471057506000919050565b61019c5461019d546108cd9184916001600160a01b039182169116611c3c565b6101d35460405163317afabb60e21b8152600481018390526001600160a01b039091169063c5ebeaec90602401602060405180830381600087803b15801561477757600080fd5b505af115801561478b573d6000803e3d6000fd5b505050506040513d601f19601f820116820180604052508101906147af9190615a05565b506115e08161530e565b60006147df6147c66113a8565b846147cf61097b565b6001600160a01b0316919061252d565b6147f36147ea6113a8565b836147cf610eb4565b6147fb6113a8565b6001600160a01b0316636a627842306040518263ffffffff1660e01b81526004016148269190615af9565b602060405180830381600087803b15801561484057600080fd5b505af1158015614854573d6000803e3d6000fd5b505050506040513d601f19601f82011682018060405250810190610a359190615a05565b61023e5460405163534a7e1d60e11b8152600481018390526001600160a01b039091169063a694fc3a906024015b600060405180830381600087803b1580156148c057600080fd5b505af115801561372f573d6000803e3d6000fd5b6101d25460405163140e25ad60e31b8152600481018390526001600160a01b039091169063a0712d6890602401602060405180830381600087803b15801561491b57600080fd5b505af115801561492f573d6000803e3d6000fd5b505050506040513d601f19601f82011682018060405250810190610eb09190615a05565b6000806fa2a8918ca85bafe22016d0b997e4df60600160ff1b038311156149805750600090506003614a2d565b8460ff16601b1415801561499857508460ff16601c14155b156149a95750600090506004614a2d565b6040805160008082526020820180845289905260ff881692820192909252606081018690526080810185905260019060a0016020604051602081039080840390855afa1580156149fd573d6000803e3d6000fd5b5050604051601f1901519150506001600160a01b038116614a2657600060019250925050614a2d565b9150600090505b94509492505050565b6000816004811115614a4a57614a4a615e1c565b1415614a535750565b6001816004811115614a6757614a67615e1c565b1415614ab05760405162461bcd60e51b815260206004820152601860248201527745434453413a20696e76616c6964207369676e617475726560401b6044820152606401610a19565b6002816004811115614ac457614ac4615e1c565b1415614b125760405162461bcd60e51b815260206004820152601f60248201527f45434453413a20696e76616c6964207369676e6174757265206c656e677468006044820152606401610a19565b6003816004811115614b2657614b26615e1c565b1415614b7f5760405162461bcd60e51b815260206004820152602260248201527f45434453413a20696e76616c6964207369676e6174757265202773272076616c604482015261756560f01b6064820152608401610a19565b6004816004811115614b9357614b93615e1c565b14156115e05760405162461bcd60e51b815260206004820152602260248201527f45434453413a20696e76616c6964207369676e6174757265202776272076616c604482015261756560f01b6064820152608401610a19565b600054610100900460ff1680614c05575060005460ff16155b614c215760405162461bcd60e51b8152600401610a1990615bfd565b600054610100900460ff1615801561365a576000805461ffff191661010117905580156115e0576000805461ff001916905550565b600054610100900460ff1680614c6f575060005460ff16155b614c8b5760405162461bcd60e51b8152600401610a1990615bfd565b600054610100900460ff16158015614cad576000805461ffff19166101011790555b8251614cc09060369060208601906154b1565b508151614cd49060379060208501906154b1565b508015610d43576000805461ff0019169055505050565b6040805160018082528183019092526000916020808301908036833750506101d25482519293506001600160a01b031691839150600090614d2e57614d2e615e32565b6001600160a01b0392831660209182029290920101526101d454604051631853304760e31b815291169063c299823890614d6c908490600401615b4a565b600060405180830381600087803b158015614d8657600080fd5b505af1158015614d9a573d6000803e3d6000fd5b505050506040513d6000823e601f3d908101601f19168201604052610eb091908101906156d8565b600054610100900460ff1680614ddb575060005460ff16155b614df75760405162461bcd60e51b8152600401610a1990615bfd565b600054610100900460ff16158015614e19576000805461ffff19166101011790555b60016101305580156115e0576000805461ff001916905550565b801580614ebc5750604051636eb1769f60e11b81523060048201526001600160a01b03838116602483015284169063dd62ed3e9060440160206040518083038186803b158015614e8257600080fd5b505afa158015614e96573d6000803e3d6000fd5b505050506040513d601f19601f82011682018060405250810190614eba9190615a05565b155b614f275760405162461bcd60e51b815260206004820152603660248201527f5361666545524332303a20617070726f76652066726f6d206e6f6e2d7a65726f60448201527520746f206e6f6e2d7a65726f20616c6c6f77616e636560501b6064820152608401610a19565b610d438363095ea7b360e01b8484604051602401612268929190615b31565b61023e54604051632e1a7d4d60e01b8152600481018390526001600160a01b0390911690632e1a7d4d906024016148a6565b600080614f8f614f866113a8565b846147cf6113a8565b6000614fa9614f9c61097b565b614fa4610eb4565b61244a565b509050600080614fb76113a8565b6001600160a01b03166389afcb44306040518263ffffffff1660e01b8152600401614fe29190615af9565b6040805180830381600087803b158015614ffb57600080fd5b505af115801561500f573d6000803e3d6000fd5b505050506040513d601f19601f820116820180604052508101906150339190615a1e565b9150915061503f61097b565b6001600160a01b0316836001600160a01b03161461505e578082615061565b81815b94509450505050915091565b615075610eb4565b6001600160a01b0316632e1a7d4d826040518263ffffffff1660e01b81526004016148a691815260200190565b6060613da08484600085615350565b610209546040516305b9783d60e01b815260009182916001600160a01b03909116906305b9783d906150e99084903090600401615b97565b60206040518083038186803b15801561510157600080fd5b505afa158015615115573d6000803e3d6000fd5b505050506040513d601f19601f820116820180604052508101906151399190615a05565b9050600081156151705761020b5461020a5461516b916001600160a01b0390811691859116615166610eb4565b612389565b615173565b60005b610209546040516305b9783d60e01b81529192506001600160a01b0316906305b9783d906151a8906001903090600401615b97565b60206040518083038186803b1580156151c057600080fd5b505afa1580156151d4573d6000803e3d6000fd5b505050506040513d601f19601f820116820180604052508101906151f89190615a05565b6152029082615d1e565b9050801561522b576152266152156113a8565b8261521e610eb4565b61516661097b565b610f37565b60009250505090565b61023e546040516370a0823160e01b81526000916001600160a01b0316906370a08231906132ba903090600401615af9565b60008061527161097b565b6001600160a01b03166370a08231306040518263ffffffff1660e01b815260040161529c9190615af9565b60206040518083038186803b1580156152b457600080fd5b505afa1580156152c8573d6000803e3d6000fd5b505050506040513d601f19601f820116820180604052508101906152ec9190615a05565b90508281116152fb57806152fd565b825b915081156134f0576134f0826148d4565b615316610eb4565b6001600160a01b031663d0e30db0826040518263ffffffff1660e01b81526004016000604051808303818588803b158015613ef657600080fd5b6060824710156153b15760405162461bcd60e51b815260206004820152602660248201527f416464726573733a20696e73756666696369656e742062616c616e636520666f6044820152651c8818d85b1b60d21b6064820152608401610a19565b843b6153ff5760405162461bcd60e51b815260206004820152601d60248201527f416464726573733a2063616c6c20746f206e6f6e2d636f6e74726163740000006044820152606401610a19565b600080866001600160a01b0316858760405161541b9190615a6e565b60006040518083038185875af1925050503d8060008114615458576040519150601f19603f3d011682016040523d82523d6000602084013e61545d565b606091505b509150915061546d828286615478565b979650505050505050565b60608315615487575081610a35565b8251156154975782518084602001fd5b8160405162461bcd60e51b8152600401610a199190615bb3565b8280546154bd90615dd1565b90600052602060002090601f0160209004810192826154df5760008555615525565b82601f106154f857805160ff1916838001178555615525565b82800160010185558215615525579182015b8281111561552557825182559160200191906001019061550a565b50615531929150615535565b5090565b5b808211156155315760008155600101615536565b803561555581615e5e565b919050565b8051801515811461555557600080fd5b80516001600160701b038116811461555557600080fd5b60006020828403121561559357600080fd5b8135610a3581615e5e565b6000602082840312156155b057600080fd5b8151610a3581615e5e565b600080604083850312156155ce57600080fd5b82356155d981615e5e565b915060208301356155e981615e5e565b809150509250929050565b60008060006060848603121561560957600080fd5b833561561481615e5e565b9250602084013561562481615e5e565b929592945050506040919091013590565b600080600080600080600060e0888a03121561565057600080fd5b873561565b81615e5e565b9650602088013561566b81615e5e565b95506040880135945060608801359350608088013560ff8116811461568f57600080fd5b9699959850939692959460a0840135945060c09093013592915050565b600080604083850312156156bf57600080fd5b82356156ca81615e5e565b946020939093013593505050565b600060208083850312156156eb57600080fd5b82516001600160401b038082111561570257600080fd5b818501915085601f83011261571657600080fd5b81518181111561572857615728615e48565b8060051b9150615739848301615cee565b8181528481019084860184860187018a101561575457600080fd5b600095505b83861015615777578051835260019590950194918601918601615759565b5098975050505050505050565b60006020828403121561579657600080fd5b610a358261555a565b6000806000606084860312156157b457600080fd5b6157bd8461555a565b9250602084015191506157d26040850161555a565b90509250925092565b6000602082840312156157ed57600080fd5b5035919050565b6000806040838503121561580757600080fd5b8235915060208301356155e981615e5e565b60006020828403121561582b57600080fd5b81356001600160e01b031981168114610a3557600080fd5b6000806000806080858703121561585957600080fd5b843561586481615e5e565b935060208501359250604085013561587b81615e5e565b9150606085013561588b81615e5e565b939692955090935050565b600061020082840312156158a957600080fd5b6158b1615cc5565b6158ba8361554a565b81526158c86020840161554a565b60208201526158d96040840161554a565b60408201526158ea6060840161554a565b60608201526158fb6080840161554a565b608082015261590c60a0840161554a565b60a082015261591d60c0840161554a565b60c082015261592e60e0840161554a565b60e082015261010061594181850161554a565b9082015261012061595384820161554a565b9082015261014061596584820161554a565b9082015261016061597784820161554a565b9082015261018083810135908201526101a080840135908201526101c080840135908201526101e06159aa81850161554a565b908201529392505050565b6000806000606084860312156159ca57600080fd5b6159d38461556a565b92506159e16020850161556a565b9150604084015163ffffffff811681146159fa57600080fd5b809150509250925092565b600060208284031215615a1757600080fd5b5051919050565b60008060408385031215615a3157600080fd5b505080516020909101519092909150565b60008151808452615a5a816020860160208601615d8e565b601f01601f19169290920160200192915050565b60008251615a80818460208701615d8e565b9190910192915050565b76020b1b1b2b9b9a1b7b73a3937b61d1030b1b1b7bab73a1604d1b815260008351615abc816017850160208801615d8e565b7001034b99036b4b9b9b4b733903937b6329607d1b6017918401918201528351615aed816028840160208801615d8e565b01602801949350505050565b6001600160a01b0391909116815260200190565b6001600160a01b039384168152919092166020820152604081019190915260600190565b6001600160a01b03929092168252602082015260400190565b6020808252825182820181905260009190848201906040850190845b81811015615b8b5783516001600160a01b031683529284019291840191600101615b66565b50909695505050505050565b60ff9290921682526001600160a01b0316602082015260400190565b602081526000610a356020830184615a42565b6020808252601e908201527f4865646765644c503a2053484f52545f50524943455f4d49534d415443480000604082015260600190565b6020808252602e908201527f496e697469616c697a61626c653a20636f6e747261637420697320616c72656160408201526d191e481a5b9a5d1a585b1a5e995960921b606082015260800190565b6020808252601f908201527f5265656e7472616e637947756172643a207265656e7472616e742063616c6c00604082015260600190565b84815283602082015260018060a01b0383166040820152608060608201526000611c6f6080830184615a42565b9283526020830191909152604082015260600190565b60405161020081016001600160401b0381118282101715615ce857615ce8615e48565b60405290565b604051601f8201601f191681016001600160401b0381118282101715615d1657615d16615e48565b604052919050565b60008219821115615d3157615d31615e06565b500190565b600082615d5357634e487b7160e01b600052601260045260246000fd5b500490565b6000816000190483118215151615615d7257615d72615e06565b500290565b600082821015615d8957615d89615e06565b500390565b60005b83811015615da9578181015183820152602001615d91565b83811115611c365750506000910152565b600081615dc957615dc9615e06565b506000190190565b600181811c90821680615de557607f821691505b602082108114156134f057634e487b7160e01b600052602260045260246000fd5b634e487b7160e01b600052601160045260246000fd5b634e487b7160e01b600052602160045260246000fd5b634e487b7160e01b600052603260045260246000fd5b634e487b7160e01b600052604160045260246000fd5b6001600160a01b03811681146115e057600080fdfedc72ed553f2544c34465af23b847953efeb813428162d767f9ba5f4013be6760241ecf16d79d0f8dbfb92cbc07fe17840425976cf0667f022fe9877caa831b08ddf252ad1be2c89b69c2b068fc378daa952ba7f163c4a11628f55a4df523b3efa2646970667358221220903cf1c298678ab3ef616d2e848525a5f593a5e76cce18c9144d0d9aff4ba2c664736f6c63430008060033",
  "libraries": {
    "UniUtils": "0x3d51b3C4Ce8B820bEb54e5bCd94AAb06A40A2B8d"
  },
  "devdoc": {
    "kind": "dev",
    "methods": {
      "DOMAIN_SEPARATOR()": {
        "details": "See {IERC20Permit-DOMAIN_SEPARATOR}."
      },
      "allowance(address,address)": {
        "details": "See {IERC20-allowance}."
      },
      "approve(address,uint256)": {
        "details": "See {IERC20-approve}. Requirements: - `spender` cannot be the zero address."
      },
      "balanceOf(address)": {
        "details": "See {IERC20-balanceOf}."
      },
      "decimals()": {
        "details": "Returns the number of decimals used to get its user representation. For example, if `decimals` equals `2`, a balance of `505` tokens should be displayed to a user as `5.05` (`505 / 10 ** 2`). Tokens usually opt for a value of 18, imitating the relationship between Ether and Wei. This is the value {ERC20} uses, unless this function is overridden; NOTE: This information is only used for _display_ purposes: it in no way affects any of the arithmetic of the contract, including {IERC20-balanceOf} and {IERC20-transfer}."
      },
      "decreaseAllowance(address,uint256)": {
        "details": "Atomically decreases the allowance granted to `spender` by the caller. This is an alternative to {approve} that can be used as a mitigation for problems described in {IERC20-approve}. Emits an {Approval} event indicating the updated allowance. Requirements: - `spender` cannot be the zero address. - `spender` must have allowance for the caller of at least `subtractedValue`."
      },
      "estimatedTotalAssets()": {
        "details": "Care must be taken in using this function, since it relies on external  systems, which could be manipulated by the attacker to give an inflated  (or reduced) value produced by this function, wantd on current on-chain  conditions (e.g. this function is possible to influence through  flashloan attacks, oracle manipulations, or other DeFi attack  mechanisms).",
        "returns": {
          "assets": "The estimated total assets in this Strategy."
        }
      },
      "getRoleAdmin(bytes32)": {
        "details": "Returns the admin role that controls `role`. See {grantRole} and {revokeRole}. To change a role's admin, use {_setRoleAdmin}."
      },
      "grantRole(bytes32,address)": {
        "details": "Grants `role` to `account`. If `account` had not been already granted `role`, emits a {RoleGranted} event. Requirements: - the caller must have ``role``'s admin role."
      },
      "harvest()": {
        "details": "When `harvest()` is called, the Strategy reports to the Vault (via  `vault.report()`), so in some cases `harvest()` must be called in order  to take in profits, to borrow newly available funds from the Vault, or  otherwise adjust its position. In other cases `harvest()` must be  called to report to the Vault on the Strategy's position, especially if  any losses have occurred."
      },
      "hasRole(bytes32,address)": {
        "details": "Returns `true` if `account` has been granted `role`."
      },
      "increaseAllowance(address,uint256)": {
        "details": "Atomically increases the allowance granted to `spender` by the caller. This is an alternative to {approve} that can be used as a mitigation for problems described in {IERC20-approve}. Emits an {Approval} event indicating the updated allowance. Requirements: - `spender` cannot be the zero address."
      },
      "name()": {
        "details": "Returns the name of the token."
      },
      "nonces(address)": {
        "details": "See {IERC20Permit-nonces}."
      },
      "permit(address,address,uint256,uint256,uint8,bytes32,bytes32)": {
        "details": "See {IERC20Permit-permit}."
      },
      "renounceRole(bytes32,address)": {
        "details": "Revokes `role` from the calling account. Roles are often managed via {grantRole} and {revokeRole}: this function's purpose is to provide a mechanism for accounts to lose their privileges if they are compromised (such as when a trusted device is misplaced). If the calling account had been granted `role`, emits a {RoleRevoked} event. Requirements: - the caller must be `account`."
      },
      "revokeRole(bytes32,address)": {
        "details": "Revokes `role` from `account`. If `account` had been granted `role`, emits a {RoleRevoked} event. Requirements: - the caller must have ``role``'s admin role."
      },
      "setRewards(address)": {
        "params": {
          "rewardsAddr_": "The address to use for pulling rewards."
        }
      },
      "supportsInterface(bytes4)": {
        "details": "See {IERC165-supportsInterface}."
      },
      "symbol()": {
        "details": "Returns the symbol of the token, usually a shorter version of the name."
      },
      "totalSupply()": {
        "details": "See {IERC20-totalSupply}."
      },
      "transfer(address,uint256)": {
        "details": "See {IERC20-transfer}. Requirements: - `recipient` cannot be the zero address. - the caller must have a balance of at least `amount`."
      },
      "transferFrom(address,address,uint256)": {
        "details": "See {IERC20-transferFrom}. Emits an {Approval} event indicating the updated allowance. This is not required by the EIP. See the note at the beginning of {ERC20}. Requirements: - `sender` and `recipient` cannot be the zero address. - `sender` must have a balance of at least `amount`. - the caller must have allowance for ``sender``'s tokens of at least `amount`."
      }
    },
    "version": 1
  },
  "userdoc": {
    "kind": "user",
    "methods": {
      "estimatedTotalAssets()": {
        "notice": "Provide an accurate estimate for the total amount of assets  (principle + return) that this Strategy is currently managing,  denominated in terms of `want` tokens.  This total should be \"realizable\" e.g. the total value that could  *actually* be obtained from this Strategy if it were to divest its  entire position wantd on current on-chain conditions."
      },
      "getPricePerShare()": {
        "notice": "Returns the share price of the strategy in `want` units, multiplied  by 1e18"
      },
      "harvest()": {
        "notice": "Harvests the Strategy  This may only be called by MANAGER_ROLE."
      },
      "setRewards(address)": {
        "notice": "Used to change `rewards`. EOA or smart contract which has the permission  to pull rewards from the vault.  This may only be called by the manager."
      }
    },
    "version": 1
  },
  "storageLayout": {
    "storage": [
      {
        "astId": 413,
        "contract": "src/vUSDCavaxPB.sol:vUSDCavaxPB",
        "label": "_initialized",
        "offset": 0,
        "slot": "0",
        "type": "t_bool"
      },
      {
        "astId": 416,
        "contract": "src/vUSDCavaxPB.sol:vUSDCavaxPB",
        "label": "_initializing",
        "offset": 1,
        "slot": "0",
        "type": "t_bool"
      },
      {
        "astId": 1463,
        "contract": "src/vUSDCavaxPB.sol:vUSDCavaxPB",
        "label": "__gap",
        "offset": 0,
        "slot": "1",
        "type": "t_array(t_uint256)50_storage"
      },
      {
        "astId": 530,
        "contract": "src/vUSDCavaxPB.sol:vUSDCavaxPB",
        "label": "_balances",
        "offset": 0,
        "slot": "51",
        "type": "t_mapping(t_address,t_uint256)"
      },
      {
        "astId": 536,
        "contract": "src/vUSDCavaxPB.sol:vUSDCavaxPB",
        "label": "_allowances",
        "offset": 0,
        "slot": "52",
        "type": "t_mapping(t_address,t_mapping(t_address,t_uint256))"
      },
      {
        "astId": 538,
        "contract": "src/vUSDCavaxPB.sol:vUSDCavaxPB",
        "label": "_totalSupply",
        "offset": 0,
        "slot": "53",
        "type": "t_uint256"
      },
      {
        "astId": 540,
        "contract": "src/vUSDCavaxPB.sol:vUSDCavaxPB",
        "label": "_name",
        "offset": 0,
        "slot": "54",
        "type": "t_string_storage"
      },
      {
        "astId": 542,
        "contract": "src/vUSDCavaxPB.sol:vUSDCavaxPB",
        "label": "_symbol",
        "offset": 0,
        "slot": "55",
        "type": "t_string_storage"
      },
      {
        "astId": 1083,
        "contract": "src/vUSDCavaxPB.sol:vUSDCavaxPB",
        "label": "__gap",
        "offset": 0,
        "slot": "56",
        "type": "t_array(t_uint256)45_storage"
      },
      {
        "astId": 2117,
        "contract": "src/vUSDCavaxPB.sol:vUSDCavaxPB",
        "label": "_HASHED_NAME",
        "offset": 0,
        "slot": "101",
        "type": "t_bytes32"
      },
      {
        "astId": 2119,
        "contract": "src/vUSDCavaxPB.sol:vUSDCavaxPB",
        "label": "_HASHED_VERSION",
        "offset": 0,
        "slot": "102",
        "type": "t_bytes32"
      },
      {
        "astId": 2256,
        "contract": "src/vUSDCavaxPB.sol:vUSDCavaxPB",
        "label": "__gap",
        "offset": 0,
        "slot": "103",
        "type": "t_array(t_uint256)50_storage"
      },
      {
        "astId": 1213,
        "contract": "src/vUSDCavaxPB.sol:vUSDCavaxPB",
        "label": "_nonces",
        "offset": 0,
        "slot": "153",
        "type": "t_mapping(t_address,t_struct(Counter)1470_storage)"
      },
      {
        "astId": 1215,
        "contract": "src/vUSDCavaxPB.sol:vUSDCavaxPB",
        "label": "_PERMIT_TYPEHASH",
        "offset": 0,
        "slot": "154",
        "type": "t_bytes32"
      },
      {
        "astId": 1383,
        "contract": "src/vUSDCavaxPB.sol:vUSDCavaxPB",
        "label": "__gap",
        "offset": 0,
        "slot": "155",
        "type": "t_array(t_uint256)49_storage"
      },
      {
        "astId": 2302,
        "contract": "src/vUSDCavaxPB.sol:vUSDCavaxPB",
        "label": "__gap",
        "offset": 0,
        "slot": "204",
        "type": "t_array(t_uint256)50_storage"
      },
      {
        "astId": 48,
        "contract": "src/vUSDCavaxPB.sol:vUSDCavaxPB",
        "label": "_roles",
        "offset": 0,
        "slot": "254",
        "type": "t_mapping(t_bytes32,t_struct(RoleData)43_storage)"
      },
      {
        "astId": 333,
        "contract": "src/vUSDCavaxPB.sol:vUSDCavaxPB",
        "label": "__gap",
        "offset": 0,
        "slot": "255",
        "type": "t_array(t_uint256)49_storage"
      },
      {
        "astId": 467,
        "contract": "src/vUSDCavaxPB.sol:vUSDCavaxPB",
        "label": "_status",
        "offset": 0,
        "slot": "304",
        "type": "t_uint256"
      },
      {
        "astId": 510,
        "contract": "src/vUSDCavaxPB.sol:vUSDCavaxPB",
        "label": "__gap",
        "offset": 0,
        "slot": "305",
        "type": "t_array(t_uint256)49_storage"
      },
      {
        "astId": 11549,
        "contract": "src/vUSDCavaxPB.sol:vUSDCavaxPB",
        "label": "accountDepositLimit",
        "offset": 0,
        "slot": "354",
        "type": "t_uint256"
      },
      {
        "astId": 11551,
        "contract": "src/vUSDCavaxPB.sol:vUSDCavaxPB",
        "label": "vaultTvlLimit",
        "offset": 0,
        "slot": "355",
        "type": "t_uint256"
      },
      {
        "astId": 11553,
        "contract": "src/vUSDCavaxPB.sol:vUSDCavaxPB",
        "label": "sharePriceTracker",
        "offset": 0,
        "slot": "356",
        "type": "t_uint256"
      },
      {
        "astId": 11555,
        "contract": "src/vUSDCavaxPB.sol:vUSDCavaxPB",
        "label": "operationalFee",
        "offset": 0,
        "slot": "357",
        "type": "t_uint256"
      },
      {
        "astId": 11557,
        "contract": "src/vUSDCavaxPB.sol:vUSDCavaxPB",
        "label": "profitFee",
        "offset": 0,
        "slot": "358",
        "type": "t_uint256"
      },
      {
        "astId": 11559,
        "contract": "src/vUSDCavaxPB.sol:vUSDCavaxPB",
        "label": "rewardsAddr",
        "offset": 0,
        "slot": "359",
        "type": "t_address"
      },
      {
        "astId": 11561,
        "contract": "src/vUSDCavaxPB.sol:vUSDCavaxPB",
        "label": "lastHarvest",
        "offset": 0,
        "slot": "360",
        "type": "t_uint256"
      },
      {
        "astId": 11886,
        "contract": "src/vUSDCavaxPB.sol:vUSDCavaxPB",
        "label": "_gap",
        "offset": 0,
        "slot": "361",
        "type": "t_array(t_uint256)50_storage"
      },
      {
        "astId": 11918,
        "contract": "src/vUSDCavaxPB.sol:vUSDCavaxPB",
        "label": "_maxPriceMismatch",
        "offset": 0,
        "slot": "411",
        "type": "t_uint256"
      },
      {
        "astId": 11975,
        "contract": "src/vUSDCavaxPB.sol:vUSDCavaxPB",
        "label": "_want",
        "offset": 0,
        "slot": "412",
        "type": "t_contract(IERC20)2857"
      },
      {
        "astId": 11978,
        "contract": "src/vUSDCavaxPB.sol:vUSDCavaxPB",
        "label": "_short",
        "offset": 0,
        "slot": "413",
        "type": "t_contract(IERC20)2857"
      },
      {
        "astId": 11980,
        "contract": "src/vUSDCavaxPB.sol:vUSDCavaxPB",
        "label": "_minLendHarvest",
        "offset": 0,
        "slot": "414",
        "type": "t_uint256"
      },
      {
        "astId": 11982,
        "contract": "src/vUSDCavaxPB.sol:vUSDCavaxPB",
        "label": "rebalanceThreshold",
        "offset": 0,
        "slot": "415",
        "type": "t_uint16"
      },
      {
        "astId": 13143,
        "contract": "src/vUSDCavaxPB.sol:vUSDCavaxPB",
        "label": "_gap",
        "offset": 0,
        "slot": "416",
        "type": "t_array(t_uint256)50_storage"
      },
      {
        "astId": 15601,
        "contract": "src/vUSDCavaxPB.sol:vUSDCavaxPB",
        "label": "_cTokenLend",
        "offset": 0,
        "slot": "466",
        "type": "t_contract(ICTokenErc20)13583"
      },
      {
        "astId": 15604,
        "contract": "src/vUSDCavaxPB.sol:vUSDCavaxPB",
        "label": "_cTokenBorrow",
        "offset": 0,
        "slot": "467",
        "type": "t_contract(ICTokenErc20)13583"
      },
      {
        "astId": 15607,
        "contract": "src/vUSDCavaxPB.sol:vUSDCavaxPB",
        "label": "_comptroller",
        "offset": 0,
        "slot": "468",
        "type": "t_contract(IComptroller)13815"
      },
      {
        "astId": 15610,
        "contract": "src/vUSDCavaxPB.sol:vUSDCavaxPB",
        "label": "_oracle",
        "offset": 0,
        "slot": "469",
        "type": "t_contract(ICompPriceOracle)13606"
      },
      {
        "astId": 15612,
        "contract": "src/vUSDCavaxPB.sol:vUSDCavaxPB",
        "label": "_safeCollateralRatio",
        "offset": 0,
        "slot": "470",
        "type": "t_uint256"
      },
      {
        "astId": 15972,
        "contract": "src/vUSDCavaxPB.sol:vUSDCavaxPB",
        "label": "_gap",
        "offset": 0,
        "slot": "471",
        "type": "t_array(t_uint256)50_storage"
      },
      {
        "astId": 15347,
        "contract": "src/vUSDCavaxPB.sol:vUSDCavaxPB",
        "label": "_comptroller",
        "offset": 0,
        "slot": "521",
        "type": "t_contract(IBenqiComptroller)13971"
      },
      {
        "astId": 15350,
        "contract": "src/vUSDCavaxPB.sol:vUSDCavaxPB",
        "label": "_qi",
        "offset": 0,
        "slot": "522",
        "type": "t_contract(IERC20)2857"
      },
      {
        "astId": 15353,
        "contract": "src/vUSDCavaxPB.sol:vUSDCavaxPB",
        "label": "_qiAvaxPair",
        "offset": 0,
        "slot": "523",
        "type": "t_contract(IUniswapV2Pair)14299"
      },
      {
        "astId": 15581,
        "contract": "src/vUSDCavaxPB.sol:vUSDCavaxPB",
        "label": "_gap",
        "offset": 0,
        "slot": "524",
        "type": "t_array(t_uint256)50_storage"
      },
      {
        "astId": 15997,
        "contract": "src/vUSDCavaxPB.sol:vUSDCavaxPB",
        "label": "_farm",
        "offset": 0,
        "slot": "574",
        "type": "t_contract(IStakingRewards)14033"
      },
      {
        "astId": 16000,
        "contract": "src/vUSDCavaxPB.sol:vUSDCavaxPB",
        "label": "_farmLp",
        "offset": 0,
        "slot": "575",
        "type": "t_contract(IUniswapV2Pair)14299"
      },
      {
        "astId": 16003,
        "contract": "src/vUSDCavaxPB.sol:vUSDCavaxPB",
        "label": "_farmToken",
        "offset": 0,
        "slot": "576",
        "type": "t_contract(IERC20)2857"
      },
      {
        "astId": 16006,
        "contract": "src/vUSDCavaxPB.sol:vUSDCavaxPB",
        "label": "_pair",
        "offset": 0,
        "slot": "577",
        "type": "t_contract(IUniswapV2Pair)14299"
      },
      {
        "astId": 16191,
        "contract": "src/vUSDCavaxPB.sol:vUSDCavaxPB",
        "label": "_gap",
        "offset": 0,
        "slot": "578",
        "type": "t_array(t_uint256)50_storage"
      },
      {
        "astId": 16213,
        "contract": "src/vUSDCavaxPB.sol:vUSDCavaxPB",
        "label": "_gap",
        "offset": 0,
        "slot": "628",
        "type": "t_array(t_uint256)200_storage"
      }
    ],
    "types": {
      "t_address": {
        "encoding": "inplace",
        "label": "address",
        "numberOfBytes": "20"
      },
      "t_array(t_uint256)200_storage": {
        "base": "t_uint256",
        "encoding": "inplace",
        "label": "uint256[200]",
        "numberOfBytes": "6400"
      },
      "t_array(t_uint256)45_storage": {
        "base": "t_uint256",
        "encoding": "inplace",
        "label": "uint256[45]",
        "numberOfBytes": "1440"
      },
      "t_array(t_uint256)49_storage": {
        "base": "t_uint256",
        "encoding": "inplace",
        "label": "uint256[49]",
        "numberOfBytes": "1568"
      },
      "t_array(t_uint256)50_storage": {
        "base": "t_uint256",
        "encoding": "inplace",
        "label": "uint256[50]",
        "numberOfBytes": "1600"
      },
      "t_bool": {
        "encoding": "inplace",
        "label": "bool",
        "numberOfBytes": "1"
      },
      "t_bytes32": {
        "encoding": "inplace",
        "label": "bytes32",
        "numberOfBytes": "32"
      },
      "t_contract(IBenqiComptroller)13971": {
        "encoding": "inplace",
        "label": "contract IBenqiComptroller",
        "numberOfBytes": "20"
      },
      "t_contract(ICTokenErc20)13583": {
        "encoding": "inplace",
        "label": "contract ICTokenErc20",
        "numberOfBytes": "20"
      },
      "t_contract(ICompPriceOracle)13606": {
        "encoding": "inplace",
        "label": "contract ICompPriceOracle",
        "numberOfBytes": "20"
      },
      "t_contract(IComptroller)13815": {
        "encoding": "inplace",
        "label": "contract IComptroller",
        "numberOfBytes": "20"
      },
      "t_contract(IERC20)2857": {
        "encoding": "inplace",
        "label": "contract IERC20",
        "numberOfBytes": "20"
      },
      "t_contract(IStakingRewards)14033": {
        "encoding": "inplace",
        "label": "contract IStakingRewards",
        "numberOfBytes": "20"
      },
      "t_contract(IUniswapV2Pair)14299": {
        "encoding": "inplace",
        "label": "contract IUniswapV2Pair",
        "numberOfBytes": "20"
      },
      "t_mapping(t_address,t_bool)": {
        "encoding": "mapping",
        "key": "t_address",
        "label": "mapping(address => bool)",
        "numberOfBytes": "32",
        "value": "t_bool"
      },
      "t_mapping(t_address,t_mapping(t_address,t_uint256))": {
        "encoding": "mapping",
        "key": "t_address",
        "label": "mapping(address => mapping(address => uint256))",
        "numberOfBytes": "32",
        "value": "t_mapping(t_address,t_uint256)"
      },
      "t_mapping(t_address,t_struct(Counter)1470_storage)": {
        "encoding": "mapping",
        "key": "t_address",
        "label": "mapping(address => struct CountersUpgradeable.Counter)",
        "numberOfBytes": "32",
        "value": "t_struct(Counter)1470_storage"
      },
      "t_mapping(t_address,t_uint256)": {
        "encoding": "mapping",
        "key": "t_address",
        "label": "mapping(address => uint256)",
        "numberOfBytes": "32",
        "value": "t_uint256"
      },
      "t_mapping(t_bytes32,t_struct(RoleData)43_storage)": {
        "encoding": "mapping",
        "key": "t_bytes32",
        "label": "mapping(bytes32 => struct AccessControlUpgradeable.RoleData)",
        "numberOfBytes": "32",
        "value": "t_struct(RoleData)43_storage"
      },
      "t_string_storage": {
        "encoding": "bytes",
        "label": "string",
        "numberOfBytes": "32"
      },
      "t_struct(Counter)1470_storage": {
        "encoding": "inplace",
        "label": "struct CountersUpgradeable.Counter",
        "members": [
          {
            "astId": 1469,
            "contract": "src/vUSDCavaxPB.sol:vUSDCavaxPB",
            "label": "_value",
            "offset": 0,
            "slot": "0",
            "type": "t_uint256"
          }
        ],
        "numberOfBytes": "32"
      },
      "t_struct(RoleData)43_storage": {
        "encoding": "inplace",
        "label": "struct AccessControlUpgradeable.RoleData",
        "members": [
          {
            "astId": 40,
            "contract": "src/vUSDCavaxPB.sol:vUSDCavaxPB",
            "label": "members",
            "offset": 0,
            "slot": "0",
            "type": "t_mapping(t_address,t_bool)"
          },
          {
            "astId": 42,
            "contract": "src/vUSDCavaxPB.sol:vUSDCavaxPB",
            "label": "adminRole",
            "offset": 0,
            "slot": "1",
            "type": "t_bytes32"
          }
        ],
        "numberOfBytes": "64"
      },
      "t_uint16": {
        "encoding": "inplace",
        "label": "uint16",
        "numberOfBytes": "2"
      },
      "t_uint256": {
        "encoding": "inplace",
        "label": "uint256",
        "numberOfBytes": "32"
      }
    }
  }
}